{
	"contracts/transact.sol": {
		"transact": {
			"abi": [
				{
					"inputs": [
						{
							"internalType": "int256",
							"name": "transactions",
							"type": "int256"
						}
					],
					"name": "Block",
					"outputs": [
						{
							"internalType": "bytes32",
							"name": "hashin",
							"type": "bytes32"
						}
					],
					"stateMutability": "view",
					"type": "function"
				},
				{
					"inputs": [],
					"name": "balanceOf",
					"outputs": [
						{
							"internalType": "uint256",
							"name": "",
							"type": "uint256"
						}
					],
					"stateMutability": "view",
					"type": "function"
				},
				{
					"inputs": [
						{
							"internalType": "int8",
							"name": "time",
							"type": "int8"
						}
					],
					"name": "encodeInt8",
					"outputs": [
						{
							"internalType": "bytes",
							"name": "",
							"type": "bytes"
						}
					],
					"stateMutability": "pure",
					"type": "function"
				},
				{
					"inputs": [
						{
							"internalType": "address",
							"name": "addr",
							"type": "address"
						}
					],
					"name": "getBalance",
					"outputs": [
						{
							"internalType": "uint256",
							"name": "",
							"type": "uint256"
						}
					],
					"stateMutability": "view",
					"type": "function"
				},
				{
					"inputs": [
						{
							"internalType": "address",
							"name": "addr",
							"type": "address"
						}
					],
					"name": "getBalanceInEth",
					"outputs": [
						{
							"internalType": "uint256",
							"name": "",
							"type": "uint256"
						}
					],
					"stateMutability": "view",
					"type": "function"
				},
				{
					"inputs": [],
					"name": "invest",
					"outputs": [],
					"stateMutability": "payable",
					"type": "function"
				}
			],
			"devdoc": {
				"kind": "dev",
				"methods": {},
				"version": 1
			},
			"evm": {
				"assembly": "    /* \"contracts/transact.sol\":60:1097  contract transact {... */\n  mstore(0x40, 0x80)\n  callvalue\n  dup1\n  iszero\n  tag_1\n  jumpi\n  0x00\n  dup1\n  revert\ntag_1:\n  pop\n  dataSize(sub_0)\n  dup1\n  dataOffset(sub_0)\n  0x00\n  codecopy\n  0x00\n  return\nstop\n\nsub_0: assembly {\n        /* \"contracts/transact.sol\":60:1097  contract transact {... */\n      mstore(0x40, 0x80)\n      jumpi(tag_1, lt(calldatasize, 0x04))\n      shr(0xe0, calldataload(0x00))\n      dup1\n      0x722713f7\n      eq\n      tag_2\n      jumpi\n      dup1\n      0x7bd703e8\n      eq\n      tag_3\n      jumpi\n      dup1\n      0x8c6f2e82\n      eq\n      tag_4\n      jumpi\n      dup1\n      0xc47e739a\n      eq\n      tag_5\n      jumpi\n      dup1\n      0xe8b5e51f\n      eq\n      tag_6\n      jumpi\n      dup1\n      0xf8b2cb4f\n      eq\n      tag_7\n      jumpi\n    tag_1:\n      0x00\n      dup1\n      revert\n        /* \"contracts/transact.sol\":245:343  function balanceOf() external view returns (uint) {... */\n    tag_2:\n      callvalue\n      dup1\n      iszero\n      tag_8\n      jumpi\n      0x00\n      dup1\n      revert\n    tag_8:\n      pop\n      tag_9\n      tag_10\n      jump\t// in\n    tag_9:\n      mload(0x40)\n      tag_11\n      swap2\n      swap1\n      tag_12\n      jump\t// in\n    tag_11:\n      mload(0x40)\n      dup1\n      swap2\n      sub\n      swap1\n      return\n        /* \"contracts/transact.sol\":351:457  function getBalanceInEth(address addr) public view returns(uint){... */\n    tag_3:\n      callvalue\n      dup1\n      iszero\n      tag_13\n      jumpi\n      0x00\n      dup1\n      revert\n    tag_13:\n      pop\n      tag_14\n      0x04\n      dup1\n      calldatasize\n      sub\n      dup2\n      add\n      swap1\n      tag_15\n      swap2\n      swap1\n      tag_16\n      jump\t// in\n    tag_15:\n      tag_17\n      jump\t// in\n    tag_14:\n      mload(0x40)\n      tag_18\n      swap2\n      swap1\n      tag_12\n      jump\t// in\n    tag_18:\n      mload(0x40)\n      dup1\n      swap2\n      sub\n      swap1\n      return\n        /* \"contracts/transact.sol\":573:881  function Block(int transactions)public view returns(bytes32 hashin){... */\n    tag_4:\n      callvalue\n      dup1\n      iszero\n      tag_19\n      jumpi\n      0x00\n      dup1\n      revert\n    tag_19:\n      pop\n      tag_20\n      0x04\n      dup1\n      calldatasize\n      sub\n      dup2\n      add\n      swap1\n      tag_21\n      swap2\n      swap1\n      tag_22\n      jump\t// in\n    tag_21:\n      tag_23\n      jump\t// in\n    tag_20:\n      mload(0x40)\n      tag_24\n      swap2\n      swap1\n      tag_25\n      jump\t// in\n    tag_24:\n      mload(0x40)\n      dup1\n      swap2\n      sub\n      swap1\n      return\n        /* \"contracts/transact.sol\":888:1002  function encodeInt8(int8 time) public pure returns (bytes memory) {... */\n    tag_5:\n      callvalue\n      dup1\n      iszero\n      tag_26\n      jumpi\n      0x00\n      dup1\n      revert\n    tag_26:\n      pop\n      tag_27\n      0x04\n      dup1\n      calldatasize\n      sub\n      dup2\n      add\n      swap1\n      tag_28\n      swap2\n      swap1\n      tag_29\n      jump\t// in\n    tag_28:\n      tag_30\n      jump\t// in\n    tag_27:\n      mload(0x40)\n      tag_31\n      swap2\n      swap1\n      tag_32\n      jump\t// in\n    tag_31:\n      mload(0x40)\n      dup1\n      swap2\n      sub\n      swap1\n      return\n        /* \"contracts/transact.sol\":126:239  function invest() external payable {... */\n    tag_6:\n      tag_33\n      tag_34\n      jump\t// in\n    tag_33:\n      stop\n        /* \"contracts/transact.sol\":465:565  function getBalance(address addr) public view returns(uint) {... */\n    tag_7:\n      callvalue\n      dup1\n      iszero\n      tag_35\n      jumpi\n      0x00\n      dup1\n      revert\n    tag_35:\n      pop\n      tag_36\n      0x04\n      dup1\n      calldatasize\n      sub\n      dup2\n      add\n      swap1\n      tag_37\n      swap2\n      swap1\n      tag_16\n      jump\t// in\n    tag_37:\n      tag_38\n      jump\t// in\n    tag_36:\n      mload(0x40)\n      tag_39\n      swap2\n      swap1\n      tag_12\n      jump\t// in\n    tag_39:\n      mload(0x40)\n      dup1\n      swap2\n      sub\n      swap1\n      return\n        /* \"contracts/transact.sol\":245:343  function balanceOf() external view returns (uint) {... */\n    tag_10:\n        /* \"contracts/transact.sol\":289:293  uint */\n      0x00\n        /* \"contracts/transact.sol\":313:334  address(this).balance */\n      selfbalance\n        /* \"contracts/transact.sol\":306:334  return address(this).balance */\n      swap1\n      pop\n        /* \"contracts/transact.sol\":245:343  function balanceOf() external view returns (uint) {... */\n      swap1\n      jump\t// out\n        /* \"contracts/transact.sol\":351:457  function getBalanceInEth(address addr) public view returns(uint){... */\n    tag_17:\n        /* \"contracts/transact.sol\":410:414  uint */\n      0x00\n        /* \"contracts/transact.sol\":433:449  getBalance(addr) */\n      tag_42\n        /* \"contracts/transact.sol\":444:448  addr */\n      dup3\n        /* \"contracts/transact.sol\":433:443  getBalance */\n      tag_38\n        /* \"contracts/transact.sol\":433:449  getBalance(addr) */\n      jump\t// in\n    tag_42:\n        /* \"contracts/transact.sol\":426:449  return getBalance(addr) */\n      swap1\n      pop\n        /* \"contracts/transact.sol\":351:457  function getBalanceInEth(address addr) public view returns(uint){... */\n      swap2\n      swap1\n      pop\n      jump\t// out\n        /* \"contracts/transact.sol\":573:881  function Block(int transactions)public view returns(bytes32 hashin){... */\n    tag_23:\n        /* \"contracts/transact.sol\":625:639  bytes32 hashin */\n      0x00\n        /* \"contracts/transact.sol\":650:659  uint time */\n      dup1\n        /* \"contracts/transact.sol\":661:676  block.timestamp */\n      timestamp\n        /* \"contracts/transact.sol\":650:676  uint time= block.timestamp */\n      swap1\n      pop\n        /* \"contracts/transact.sol\":685:705  bytes32 previousHash */\n      0x00\n        /* \"contracts/transact.sol\":707:708  0 */\n      dup1\n        /* \"contracts/transact.sol\":685:708  bytes32 previousHash= 0 */\n      0x00\n      shl\n      swap1\n      pop\n        /* \"contracts/transact.sol\":718:727  int nonce */\n      0x00\n        /* \"contracts/transact.sol\":750:812  sha256(abi.encodePacked(time,transactions,nonce,previousHash)) */\n      0x02\n        /* \"contracts/transact.sol\":774:778  time */\n      dup4\n        /* \"contracts/transact.sol\":779:791  transactions */\n      dup7\n        /* \"contracts/transact.sol\":792:797  nonce */\n      dup4\n        /* \"contracts/transact.sol\":798:810  previousHash */\n      dup6\n        /* \"contracts/transact.sol\":757:811  abi.encodePacked(time,transactions,nonce,previousHash) */\n      add(0x20, mload(0x40))\n      tag_44\n      swap5\n      swap4\n      swap3\n      swap2\n      swap1\n      tag_45\n      jump\t// in\n    tag_44:\n      mload(0x40)\n      0x20\n      dup2\n      dup4\n      sub\n      sub\n      dup2\n      mstore\n      swap1\n      0x40\n      mstore\n        /* \"contracts/transact.sol\":750:812  sha256(abi.encodePacked(time,transactions,nonce,previousHash)) */\n      mload(0x40)\n      tag_46\n      swap2\n      swap1\n      tag_47\n      jump\t// in\n    tag_46:\n      0x20\n      mload(0x40)\n      dup1\n      dup4\n      sub\n      dup2\n      dup6\n      gas\n      staticcall\n      iszero\n      dup1\n      iszero\n      tag_49\n      jumpi\n      returndatasize\n      0x00\n      dup1\n      returndatacopy\n      revert(0x00, returndatasize)\n    tag_49:\n      pop\n      pop\n      pop\n      mload(0x40)\n      returndatasize\n      not(0x1f)\n      0x1f\n      dup3\n      add\n      and\n      dup3\n      add\n      dup1\n      0x40\n      mstore\n      pop\n      dup2\n      add\n      swap1\n      tag_50\n      swap2\n      swap1\n      tag_51\n      jump\t// in\n    tag_50:\n        /* \"contracts/transact.sol\":742:812  hashin= sha256(abi.encodePacked(time,transactions,nonce,previousHash)) */\n      swap4\n      pop\n        /* \"contracts/transact.sol\":836:842  hashin */\n      dup4\n        /* \"contracts/transact.sol\":823:842  previousHash=hashin */\n      swap2\n      pop\n        /* \"contracts/transact.sol\":853:867  return(hashin) */\n      pop\n      pop\n      pop\n        /* \"contracts/transact.sol\":573:881  function Block(int transactions)public view returns(bytes32 hashin){... */\n      swap2\n      swap1\n      pop\n      jump\t// out\n        /* \"contracts/transact.sol\":888:1002  function encodeInt8(int8 time) public pure returns (bytes memory) {... */\n    tag_30:\n        /* \"contracts/transact.sol\":940:952  bytes memory */\n      0x60\n        /* \"contracts/transact.sol\":989:993  time */\n      dup2\n        /* \"contracts/transact.sol\":972:994  abi.encodePacked(time) */\n      add(0x20, mload(0x40))\n      tag_53\n      swap2\n      swap1\n      tag_54\n      jump\t// in\n    tag_53:\n      mload(0x40)\n      0x20\n      dup2\n      dup4\n      sub\n      sub\n      dup2\n      mstore\n      swap1\n      0x40\n      mstore\n        /* \"contracts/transact.sol\":965:994  return abi.encodePacked(time) */\n      swap1\n      pop\n        /* \"contracts/transact.sol\":888:1002  function encodeInt8(int8 time) public pure returns (bytes memory) {... */\n      swap2\n      swap1\n      pop\n      jump\t// out\n        /* \"contracts/transact.sol\":126:239  function invest() external payable {... */\n    tag_34:\n        /* \"contracts/transact.sol\":187:194  1 ether */\n      0x0de0b6b3a7640000\n        /* \"contracts/transact.sol\":175:184  msg.value */\n      callvalue\n        /* \"contracts/transact.sol\":175:194  msg.value < 1 ether */\n      lt\n        /* \"contracts/transact.sol\":172:230  if(msg.value < 1 ether){... */\n      iszero\n      tag_56\n      jumpi\n        /* \"contracts/transact.sol\":210:218  revert() */\n      0x00\n      dup1\n      revert\n        /* \"contracts/transact.sol\":172:230  if(msg.value < 1 ether){... */\n    tag_56:\n        /* \"contracts/transact.sol\":126:239  function invest() external payable {... */\n      jump\t// out\n        /* \"contracts/transact.sol\":465:565  function getBalance(address addr) public view returns(uint) {... */\n    tag_38:\n        /* \"contracts/transact.sol\":519:523  uint */\n      0x00\n        /* \"contracts/transact.sol\":543:551  balances */\n      dup1\n        /* \"contracts/transact.sol\":543:557  balances[addr] */\n      0x00\n        /* \"contracts/transact.sol\":552:556  addr */\n      dup4\n        /* \"contracts/transact.sol\":543:557  balances[addr] */\n      0xffffffffffffffffffffffffffffffffffffffff\n      and\n      0xffffffffffffffffffffffffffffffffffffffff\n      and\n      dup2\n      mstore\n      0x20\n      add\n      swap1\n      dup2\n      mstore\n      0x20\n      add\n      0x00\n      keccak256\n      sload\n        /* \"contracts/transact.sol\":536:557  return balances[addr] */\n      swap1\n      pop\n        /* \"contracts/transact.sol\":465:565  function getBalance(address addr) public view returns(uint) {... */\n      swap2\n      swap1\n      pop\n      jump\t// out\n        /* \"#utility.yul\":7:84   */\n    tag_58:\n        /* \"#utility.yul\":44:51   */\n      0x00\n        /* \"#utility.yul\":73:78   */\n      dup2\n        /* \"#utility.yul\":62:78   */\n      swap1\n      pop\n        /* \"#utility.yul\":7:84   */\n      swap2\n      swap1\n      pop\n      jump\t// out\n        /* \"#utility.yul\":90:208   */\n    tag_59:\n        /* \"#utility.yul\":177:201   */\n      tag_96\n        /* \"#utility.yul\":195:200   */\n      dup2\n        /* \"#utility.yul\":177:201   */\n      tag_58\n      jump\t// in\n    tag_96:\n        /* \"#utility.yul\":172:175   */\n      dup3\n        /* \"#utility.yul\":165:202   */\n      mstore\n        /* \"#utility.yul\":90:208   */\n      pop\n      pop\n      jump\t// out\n        /* \"#utility.yul\":214:436   */\n    tag_12:\n        /* \"#utility.yul\":307:311   */\n      0x00\n        /* \"#utility.yul\":345:347   */\n      0x20\n        /* \"#utility.yul\":334:343   */\n      dup3\n        /* \"#utility.yul\":330:348   */\n      add\n        /* \"#utility.yul\":322:348   */\n      swap1\n      pop\n        /* \"#utility.yul\":358:429   */\n      tag_98\n        /* \"#utility.yul\":426:427   */\n      0x00\n        /* \"#utility.yul\":415:424   */\n      dup4\n        /* \"#utility.yul\":411:428   */\n      add\n        /* \"#utility.yul\":402:408   */\n      dup5\n        /* \"#utility.yul\":358:429   */\n      tag_59\n      jump\t// in\n    tag_98:\n        /* \"#utility.yul\":214:436   */\n      swap3\n      swap2\n      pop\n      pop\n      jump\t// out\n        /* \"#utility.yul\":523:640   */\n    tag_61:\n        /* \"#utility.yul\":632:633   */\n      0x00\n        /* \"#utility.yul\":629:630   */\n      dup1\n        /* \"#utility.yul\":622:634   */\n      revert\n        /* \"#utility.yul\":769:895   */\n    tag_63:\n        /* \"#utility.yul\":806:813   */\n      0x00\n        /* \"#utility.yul\":846:888   */\n      0xffffffffffffffffffffffffffffffffffffffff\n        /* \"#utility.yul\":839:844   */\n      dup3\n        /* \"#utility.yul\":835:889   */\n      and\n        /* \"#utility.yul\":824:889   */\n      swap1\n      pop\n        /* \"#utility.yul\":769:895   */\n      swap2\n      swap1\n      pop\n      jump\t// out\n        /* \"#utility.yul\":901:997   */\n    tag_64:\n        /* \"#utility.yul\":938:945   */\n      0x00\n        /* \"#utility.yul\":967:991   */\n      tag_104\n        /* \"#utility.yul\":985:990   */\n      dup3\n        /* \"#utility.yul\":967:991   */\n      tag_63\n      jump\t// in\n    tag_104:\n        /* \"#utility.yul\":956:991   */\n      swap1\n      pop\n        /* \"#utility.yul\":901:997   */\n      swap2\n      swap1\n      pop\n      jump\t// out\n        /* \"#utility.yul\":1003:1125   */\n    tag_65:\n        /* \"#utility.yul\":1076:1100   */\n      tag_106\n        /* \"#utility.yul\":1094:1099   */\n      dup2\n        /* \"#utility.yul\":1076:1100   */\n      tag_64\n      jump\t// in\n    tag_106:\n        /* \"#utility.yul\":1069:1074   */\n      dup2\n        /* \"#utility.yul\":1066:1101   */\n      eq\n        /* \"#utility.yul\":1056:1119   */\n      tag_107\n      jumpi\n        /* \"#utility.yul\":1115:1116   */\n      0x00\n        /* \"#utility.yul\":1112:1113   */\n      dup1\n        /* \"#utility.yul\":1105:1117   */\n      revert\n        /* \"#utility.yul\":1056:1119   */\n    tag_107:\n        /* \"#utility.yul\":1003:1125   */\n      pop\n      jump\t// out\n        /* \"#utility.yul\":1131:1270   */\n    tag_66:\n        /* \"#utility.yul\":1177:1182   */\n      0x00\n        /* \"#utility.yul\":1215:1221   */\n      dup2\n        /* \"#utility.yul\":1202:1222   */\n      calldataload\n        /* \"#utility.yul\":1193:1222   */\n      swap1\n      pop\n        /* \"#utility.yul\":1231:1264   */\n      tag_109\n        /* \"#utility.yul\":1258:1263   */\n      dup2\n        /* \"#utility.yul\":1231:1264   */\n      tag_65\n      jump\t// in\n    tag_109:\n        /* \"#utility.yul\":1131:1270   */\n      swap3\n      swap2\n      pop\n      pop\n      jump\t// out\n        /* \"#utility.yul\":1276:1605   */\n    tag_16:\n        /* \"#utility.yul\":1335:1341   */\n      0x00\n        /* \"#utility.yul\":1384:1386   */\n      0x20\n        /* \"#utility.yul\":1372:1381   */\n      dup3\n        /* \"#utility.yul\":1363:1370   */\n      dup5\n        /* \"#utility.yul\":1359:1382   */\n      sub\n        /* \"#utility.yul\":1355:1387   */\n      slt\n        /* \"#utility.yul\":1352:1471   */\n      iszero\n      tag_111\n      jumpi\n        /* \"#utility.yul\":1390:1469   */\n      tag_112\n      tag_61\n      jump\t// in\n    tag_112:\n        /* \"#utility.yul\":1352:1471   */\n    tag_111:\n        /* \"#utility.yul\":1510:1511   */\n      0x00\n        /* \"#utility.yul\":1535:1588   */\n      tag_113\n        /* \"#utility.yul\":1580:1587   */\n      dup5\n        /* \"#utility.yul\":1571:1577   */\n      dup3\n        /* \"#utility.yul\":1560:1569   */\n      dup6\n        /* \"#utility.yul\":1556:1578   */\n      add\n        /* \"#utility.yul\":1535:1588   */\n      tag_66\n      jump\t// in\n    tag_113:\n        /* \"#utility.yul\":1525:1588   */\n      swap2\n      pop\n        /* \"#utility.yul\":1481:1598   */\n      pop\n        /* \"#utility.yul\":1276:1605   */\n      swap3\n      swap2\n      pop\n      pop\n      jump\t// out\n        /* \"#utility.yul\":1611:1687   */\n    tag_67:\n        /* \"#utility.yul\":1647:1654   */\n      0x00\n        /* \"#utility.yul\":1676:1681   */\n      dup2\n        /* \"#utility.yul\":1665:1681   */\n      swap1\n      pop\n        /* \"#utility.yul\":1611:1687   */\n      swap2\n      swap1\n      pop\n      jump\t// out\n        /* \"#utility.yul\":1693:1813   */\n    tag_68:\n        /* \"#utility.yul\":1765:1788   */\n      tag_116\n        /* \"#utility.yul\":1782:1787   */\n      dup2\n        /* \"#utility.yul\":1765:1788   */\n      tag_67\n      jump\t// in\n    tag_116:\n        /* \"#utility.yul\":1758:1763   */\n      dup2\n        /* \"#utility.yul\":1755:1789   */\n      eq\n        /* \"#utility.yul\":1745:1807   */\n      tag_117\n      jumpi\n        /* \"#utility.yul\":1803:1804   */\n      0x00\n        /* \"#utility.yul\":1800:1801   */\n      dup1\n        /* \"#utility.yul\":1793:1805   */\n      revert\n        /* \"#utility.yul\":1745:1807   */\n    tag_117:\n        /* \"#utility.yul\":1693:1813   */\n      pop\n      jump\t// out\n        /* \"#utility.yul\":1819:1956   */\n    tag_69:\n        /* \"#utility.yul\":1864:1869   */\n      0x00\n        /* \"#utility.yul\":1902:1908   */\n      dup2\n        /* \"#utility.yul\":1889:1909   */\n      calldataload\n        /* \"#utility.yul\":1880:1909   */\n      swap1\n      pop\n        /* \"#utility.yul\":1918:1950   */\n      tag_119\n        /* \"#utility.yul\":1944:1949   */\n      dup2\n        /* \"#utility.yul\":1918:1950   */\n      tag_68\n      jump\t// in\n    tag_119:\n        /* \"#utility.yul\":1819:1956   */\n      swap3\n      swap2\n      pop\n      pop\n      jump\t// out\n        /* \"#utility.yul\":1962:2289   */\n    tag_22:\n        /* \"#utility.yul\":2020:2026   */\n      0x00\n        /* \"#utility.yul\":2069:2071   */\n      0x20\n        /* \"#utility.yul\":2057:2066   */\n      dup3\n        /* \"#utility.yul\":2048:2055   */\n      dup5\n        /* \"#utility.yul\":2044:2067   */\n      sub\n        /* \"#utility.yul\":2040:2072   */\n      slt\n        /* \"#utility.yul\":2037:2156   */\n      iszero\n      tag_121\n      jumpi\n        /* \"#utility.yul\":2075:2154   */\n      tag_122\n      tag_61\n      jump\t// in\n    tag_122:\n        /* \"#utility.yul\":2037:2156   */\n    tag_121:\n        /* \"#utility.yul\":2195:2196   */\n      0x00\n        /* \"#utility.yul\":2220:2272   */\n      tag_123\n        /* \"#utility.yul\":2264:2271   */\n      dup5\n        /* \"#utility.yul\":2255:2261   */\n      dup3\n        /* \"#utility.yul\":2244:2253   */\n      dup6\n        /* \"#utility.yul\":2240:2262   */\n      add\n        /* \"#utility.yul\":2220:2272   */\n      tag_69\n      jump\t// in\n    tag_123:\n        /* \"#utility.yul\":2210:2272   */\n      swap2\n      pop\n        /* \"#utility.yul\":2166:2282   */\n      pop\n        /* \"#utility.yul\":1962:2289   */\n      swap3\n      swap2\n      pop\n      pop\n      jump\t// out\n        /* \"#utility.yul\":2295:2372   */\n    tag_70:\n        /* \"#utility.yul\":2332:2339   */\n      0x00\n        /* \"#utility.yul\":2361:2366   */\n      dup2\n        /* \"#utility.yul\":2350:2366   */\n      swap1\n      pop\n        /* \"#utility.yul\":2295:2372   */\n      swap2\n      swap1\n      pop\n      jump\t// out\n        /* \"#utility.yul\":2378:2496   */\n    tag_71:\n        /* \"#utility.yul\":2465:2489   */\n      tag_126\n        /* \"#utility.yul\":2483:2488   */\n      dup2\n        /* \"#utility.yul\":2465:2489   */\n      tag_70\n      jump\t// in\n    tag_126:\n        /* \"#utility.yul\":2460:2463   */\n      dup3\n        /* \"#utility.yul\":2453:2490   */\n      mstore\n        /* \"#utility.yul\":2378:2496   */\n      pop\n      pop\n      jump\t// out\n        /* \"#utility.yul\":2502:2724   */\n    tag_25:\n        /* \"#utility.yul\":2595:2599   */\n      0x00\n        /* \"#utility.yul\":2633:2635   */\n      0x20\n        /* \"#utility.yul\":2622:2631   */\n      dup3\n        /* \"#utility.yul\":2618:2636   */\n      add\n        /* \"#utility.yul\":2610:2636   */\n      swap1\n      pop\n        /* \"#utility.yul\":2646:2717   */\n      tag_128\n        /* \"#utility.yul\":2714:2715   */\n      0x00\n        /* \"#utility.yul\":2703:2712   */\n      dup4\n        /* \"#utility.yul\":2699:2716   */\n      add\n        /* \"#utility.yul\":2690:2696   */\n      dup5\n        /* \"#utility.yul\":2646:2717   */\n      tag_71\n      jump\t// in\n    tag_128:\n        /* \"#utility.yul\":2502:2724   */\n      swap3\n      swap2\n      pop\n      pop\n      jump\t// out\n        /* \"#utility.yul\":2730:2819   */\n    tag_72:\n        /* \"#utility.yul\":2764:2771   */\n      0x00\n        /* \"#utility.yul\":2807:2812   */\n      dup2\n        /* \"#utility.yul\":2804:2805   */\n      0x00\n        /* \"#utility.yul\":2793:2813   */\n      signextend\n        /* \"#utility.yul\":2782:2813   */\n      swap1\n      pop\n        /* \"#utility.yul\":2730:2819   */\n      swap2\n      swap1\n      pop\n      jump\t// out\n        /* \"#utility.yul\":2825:2941   */\n    tag_73:\n        /* \"#utility.yul\":2895:2916   */\n      tag_131\n        /* \"#utility.yul\":2910:2915   */\n      dup2\n        /* \"#utility.yul\":2895:2916   */\n      tag_72\n      jump\t// in\n    tag_131:\n        /* \"#utility.yul\":2888:2893   */\n      dup2\n        /* \"#utility.yul\":2885:2917   */\n      eq\n        /* \"#utility.yul\":2875:2935   */\n      tag_132\n      jumpi\n        /* \"#utility.yul\":2931:2932   */\n      0x00\n        /* \"#utility.yul\":2928:2929   */\n      dup1\n        /* \"#utility.yul\":2921:2933   */\n      revert\n        /* \"#utility.yul\":2875:2935   */\n    tag_132:\n        /* \"#utility.yul\":2825:2941   */\n      pop\n      jump\t// out\n        /* \"#utility.yul\":2947:3080   */\n    tag_74:\n        /* \"#utility.yul\":2990:2995   */\n      0x00\n        /* \"#utility.yul\":3028:3034   */\n      dup2\n        /* \"#utility.yul\":3015:3035   */\n      calldataload\n        /* \"#utility.yul\":3006:3035   */\n      swap1\n      pop\n        /* \"#utility.yul\":3044:3074   */\n      tag_134\n        /* \"#utility.yul\":3068:3073   */\n      dup2\n        /* \"#utility.yul\":3044:3074   */\n      tag_73\n      jump\t// in\n    tag_134:\n        /* \"#utility.yul\":2947:3080   */\n      swap3\n      swap2\n      pop\n      pop\n      jump\t// out\n        /* \"#utility.yul\":3086:3409   */\n    tag_29:\n        /* \"#utility.yul\":3142:3148   */\n      0x00\n        /* \"#utility.yul\":3191:3193   */\n      0x20\n        /* \"#utility.yul\":3179:3188   */\n      dup3\n        /* \"#utility.yul\":3170:3177   */\n      dup5\n        /* \"#utility.yul\":3166:3189   */\n      sub\n        /* \"#utility.yul\":3162:3194   */\n      slt\n        /* \"#utility.yul\":3159:3278   */\n      iszero\n      tag_136\n      jumpi\n        /* \"#utility.yul\":3197:3276   */\n      tag_137\n      tag_61\n      jump\t// in\n    tag_137:\n        /* \"#utility.yul\":3159:3278   */\n    tag_136:\n        /* \"#utility.yul\":3317:3318   */\n      0x00\n        /* \"#utility.yul\":3342:3392   */\n      tag_138\n        /* \"#utility.yul\":3384:3391   */\n      dup5\n        /* \"#utility.yul\":3375:3381   */\n      dup3\n        /* \"#utility.yul\":3364:3373   */\n      dup6\n        /* \"#utility.yul\":3360:3382   */\n      add\n        /* \"#utility.yul\":3342:3392   */\n      tag_74\n      jump\t// in\n    tag_138:\n        /* \"#utility.yul\":3332:3392   */\n      swap2\n      pop\n        /* \"#utility.yul\":3288:3402   */\n      pop\n        /* \"#utility.yul\":3086:3409   */\n      swap3\n      swap2\n      pop\n      pop\n      jump\t// out\n        /* \"#utility.yul\":3415:3513   */\n    tag_75:\n        /* \"#utility.yul\":3466:3472   */\n      0x00\n        /* \"#utility.yul\":3500:3505   */\n      dup2\n        /* \"#utility.yul\":3494:3506   */\n      mload\n        /* \"#utility.yul\":3484:3506   */\n      swap1\n      pop\n        /* \"#utility.yul\":3415:3513   */\n      swap2\n      swap1\n      pop\n      jump\t// out\n        /* \"#utility.yul\":3519:3687   */\n    tag_76:\n        /* \"#utility.yul\":3602:3613   */\n      0x00\n        /* \"#utility.yul\":3636:3642   */\n      dup3\n        /* \"#utility.yul\":3631:3634   */\n      dup3\n        /* \"#utility.yul\":3624:3643   */\n      mstore\n        /* \"#utility.yul\":3676:3680   */\n      0x20\n        /* \"#utility.yul\":3671:3674   */\n      dup3\n        /* \"#utility.yul\":3667:3681   */\n      add\n        /* \"#utility.yul\":3652:3681   */\n      swap1\n      pop\n        /* \"#utility.yul\":3519:3687   */\n      swap3\n      swap2\n      pop\n      pop\n      jump\t// out\n        /* \"#utility.yul\":3693:4000   */\n    tag_77:\n        /* \"#utility.yul\":3761:3762   */\n      0x00\n        /* \"#utility.yul\":3771:3884   */\n    tag_142:\n        /* \"#utility.yul\":3785:3791   */\n      dup4\n        /* \"#utility.yul\":3782:3783   */\n      dup2\n        /* \"#utility.yul\":3779:3792   */\n      lt\n        /* \"#utility.yul\":3771:3884   */\n      iszero\n      tag_144\n      jumpi\n        /* \"#utility.yul\":3870:3871   */\n      dup1\n        /* \"#utility.yul\":3865:3868   */\n      dup3\n        /* \"#utility.yul\":3861:3872   */\n      add\n        /* \"#utility.yul\":3855:3873   */\n      mload\n        /* \"#utility.yul\":3851:3852   */\n      dup2\n        /* \"#utility.yul\":3846:3849   */\n      dup5\n        /* \"#utility.yul\":3842:3853   */\n      add\n        /* \"#utility.yul\":3835:3874   */\n      mstore\n        /* \"#utility.yul\":3807:3809   */\n      0x20\n        /* \"#utility.yul\":3804:3805   */\n      dup2\n        /* \"#utility.yul\":3800:3810   */\n      add\n        /* \"#utility.yul\":3795:3810   */\n      swap1\n      pop\n        /* \"#utility.yul\":3771:3884   */\n      jump(tag_142)\n    tag_144:\n        /* \"#utility.yul\":3902:3908   */\n      dup4\n        /* \"#utility.yul\":3899:3900   */\n      dup2\n        /* \"#utility.yul\":3896:3909   */\n      gt\n        /* \"#utility.yul\":3893:3994   */\n      iszero\n      tag_145\n      jumpi\n        /* \"#utility.yul\":3982:3983   */\n      0x00\n        /* \"#utility.yul\":3973:3979   */\n      dup5\n        /* \"#utility.yul\":3968:3971   */\n      dup5\n        /* \"#utility.yul\":3964:3980   */\n      add\n        /* \"#utility.yul\":3957:3984   */\n      mstore\n        /* \"#utility.yul\":3893:3994   */\n    tag_145:\n        /* \"#utility.yul\":3742:4000   */\n      pop\n        /* \"#utility.yul\":3693:4000   */\n      pop\n      pop\n      pop\n      jump\t// out\n        /* \"#utility.yul\":4006:4108   */\n    tag_78:\n        /* \"#utility.yul\":4047:4053   */\n      0x00\n        /* \"#utility.yul\":4098:4100   */\n      0x1f\n        /* \"#utility.yul\":4094:4101   */\n      not\n        /* \"#utility.yul\":4089:4091   */\n      0x1f\n        /* \"#utility.yul\":4082:4087   */\n      dup4\n        /* \"#utility.yul\":4078:4092   */\n      add\n        /* \"#utility.yul\":4074:4102   */\n      and\n        /* \"#utility.yul\":4064:4102   */\n      swap1\n      pop\n        /* \"#utility.yul\":4006:4108   */\n      swap2\n      swap1\n      pop\n      jump\t// out\n        /* \"#utility.yul\":4114:4474   */\n    tag_79:\n        /* \"#utility.yul\":4200:4203   */\n      0x00\n        /* \"#utility.yul\":4228:4266   */\n      tag_148\n        /* \"#utility.yul\":4260:4265   */\n      dup3\n        /* \"#utility.yul\":4228:4266   */\n      tag_75\n      jump\t// in\n    tag_148:\n        /* \"#utility.yul\":4282:4352   */\n      tag_149\n        /* \"#utility.yul\":4345:4351   */\n      dup2\n        /* \"#utility.yul\":4340:4343   */\n      dup6\n        /* \"#utility.yul\":4282:4352   */\n      tag_76\n      jump\t// in\n    tag_149:\n        /* \"#utility.yul\":4275:4352   */\n      swap4\n      pop\n        /* \"#utility.yul\":4361:4413   */\n      tag_150\n        /* \"#utility.yul\":4406:4412   */\n      dup2\n        /* \"#utility.yul\":4401:4404   */\n      dup6\n        /* \"#utility.yul\":4394:4398   */\n      0x20\n        /* \"#utility.yul\":4387:4392   */\n      dup7\n        /* \"#utility.yul\":4383:4399   */\n      add\n        /* \"#utility.yul\":4361:4413   */\n      tag_77\n      jump\t// in\n    tag_150:\n        /* \"#utility.yul\":4438:4467   */\n      tag_151\n        /* \"#utility.yul\":4460:4466   */\n      dup2\n        /* \"#utility.yul\":4438:4467   */\n      tag_78\n      jump\t// in\n    tag_151:\n        /* \"#utility.yul\":4433:4436   */\n      dup5\n        /* \"#utility.yul\":4429:4468   */\n      add\n        /* \"#utility.yul\":4422:4468   */\n      swap2\n      pop\n        /* \"#utility.yul\":4204:4474   */\n      pop\n        /* \"#utility.yul\":4114:4474   */\n      swap3\n      swap2\n      pop\n      pop\n      jump\t// out\n        /* \"#utility.yul\":4480:4789   */\n    tag_32:\n        /* \"#utility.yul\":4591:4595   */\n      0x00\n        /* \"#utility.yul\":4629:4631   */\n      0x20\n        /* \"#utility.yul\":4618:4627   */\n      dup3\n        /* \"#utility.yul\":4614:4632   */\n      add\n        /* \"#utility.yul\":4606:4632   */\n      swap1\n      pop\n        /* \"#utility.yul\":4678:4687   */\n      dup2\n        /* \"#utility.yul\":4672:4676   */\n      dup2\n        /* \"#utility.yul\":4668:4688   */\n      sub\n        /* \"#utility.yul\":4664:4665   */\n      0x00\n        /* \"#utility.yul\":4653:4662   */\n      dup4\n        /* \"#utility.yul\":4649:4666   */\n      add\n        /* \"#utility.yul\":4642:4689   */\n      mstore\n        /* \"#utility.yul\":4706:4782   */\n      tag_153\n        /* \"#utility.yul\":4777:4781   */\n      dup2\n        /* \"#utility.yul\":4768:4774   */\n      dup5\n        /* \"#utility.yul\":4706:4782   */\n      tag_79\n      jump\t// in\n    tag_153:\n        /* \"#utility.yul\":4698:4782   */\n      swap1\n      pop\n        /* \"#utility.yul\":4480:4789   */\n      swap3\n      swap2\n      pop\n      pop\n      jump\t// out\n        /* \"#utility.yul\":4795:4874   */\n    tag_80:\n        /* \"#utility.yul\":4834:4841   */\n      0x00\n        /* \"#utility.yul\":4863:4868   */\n      dup2\n        /* \"#utility.yul\":4852:4868   */\n      swap1\n      pop\n        /* \"#utility.yul\":4795:4874   */\n      swap2\n      swap1\n      pop\n      jump\t// out\n        /* \"#utility.yul\":4880:5037   */\n    tag_81:\n        /* \"#utility.yul\":4985:5030   */\n      tag_156\n        /* \"#utility.yul\":5005:5029   */\n      tag_157\n        /* \"#utility.yul\":5023:5028   */\n      dup3\n        /* \"#utility.yul\":5005:5029   */\n      tag_58\n      jump\t// in\n    tag_157:\n        /* \"#utility.yul\":4985:5030   */\n      tag_80\n      jump\t// in\n    tag_156:\n        /* \"#utility.yul\":4980:4983   */\n      dup3\n        /* \"#utility.yul\":4973:5031   */\n      mstore\n        /* \"#utility.yul\":4880:5037   */\n      pop\n      pop\n      jump\t// out\n        /* \"#utility.yul\":5043:5121   */\n    tag_82:\n        /* \"#utility.yul\":5081:5088   */\n      0x00\n        /* \"#utility.yul\":5110:5115   */\n      dup2\n        /* \"#utility.yul\":5099:5115   */\n      swap1\n      pop\n        /* \"#utility.yul\":5043:5121   */\n      swap2\n      swap1\n      pop\n      jump\t// out\n        /* \"#utility.yul\":5127:5280   */\n    tag_83:\n        /* \"#utility.yul\":5230:5273   */\n      tag_160\n        /* \"#utility.yul\":5249:5272   */\n      tag_161\n        /* \"#utility.yul\":5266:5271   */\n      dup3\n        /* \"#utility.yul\":5249:5272   */\n      tag_67\n      jump\t// in\n    tag_161:\n        /* \"#utility.yul\":5230:5273   */\n      tag_82\n      jump\t// in\n    tag_160:\n        /* \"#utility.yul\":5225:5228   */\n      dup3\n        /* \"#utility.yul\":5218:5274   */\n      mstore\n        /* \"#utility.yul\":5127:5280   */\n      pop\n      pop\n      jump\t// out\n        /* \"#utility.yul\":5286:5365   */\n    tag_84:\n        /* \"#utility.yul\":5325:5332   */\n      0x00\n        /* \"#utility.yul\":5354:5359   */\n      dup2\n        /* \"#utility.yul\":5343:5359   */\n      swap1\n      pop\n        /* \"#utility.yul\":5286:5365   */\n      swap2\n      swap1\n      pop\n      jump\t// out\n        /* \"#utility.yul\":5371:5528   */\n    tag_85:\n        /* \"#utility.yul\":5476:5521   */\n      tag_164\n        /* \"#utility.yul\":5496:5520   */\n      tag_165\n        /* \"#utility.yul\":5514:5519   */\n      dup3\n        /* \"#utility.yul\":5496:5520   */\n      tag_70\n      jump\t// in\n    tag_165:\n        /* \"#utility.yul\":5476:5521   */\n      tag_84\n      jump\t// in\n    tag_164:\n        /* \"#utility.yul\":5471:5474   */\n      dup3\n        /* \"#utility.yul\":5464:5522   */\n      mstore\n        /* \"#utility.yul\":5371:5528   */\n      pop\n      pop\n      jump\t// out\n        /* \"#utility.yul\":5534:6205   */\n    tag_45:\n        /* \"#utility.yul\":5726:5729   */\n      0x00\n        /* \"#utility.yul\":5741:5816   */\n      tag_167\n        /* \"#utility.yul\":5812:5815   */\n      dup3\n        /* \"#utility.yul\":5803:5809   */\n      dup8\n        /* \"#utility.yul\":5741:5816   */\n      tag_81\n      jump\t// in\n    tag_167:\n        /* \"#utility.yul\":5841:5843   */\n      0x20\n        /* \"#utility.yul\":5836:5839   */\n      dup3\n        /* \"#utility.yul\":5832:5844   */\n      add\n        /* \"#utility.yul\":5825:5844   */\n      swap2\n      pop\n        /* \"#utility.yul\":5854:5927   */\n      tag_168\n        /* \"#utility.yul\":5923:5926   */\n      dup3\n        /* \"#utility.yul\":5914:5920   */\n      dup7\n        /* \"#utility.yul\":5854:5927   */\n      tag_83\n      jump\t// in\n    tag_168:\n        /* \"#utility.yul\":5952:5954   */\n      0x20\n        /* \"#utility.yul\":5947:5950   */\n      dup3\n        /* \"#utility.yul\":5943:5955   */\n      add\n        /* \"#utility.yul\":5936:5955   */\n      swap2\n      pop\n        /* \"#utility.yul\":5965:6038   */\n      tag_169\n        /* \"#utility.yul\":6034:6037   */\n      dup3\n        /* \"#utility.yul\":6025:6031   */\n      dup6\n        /* \"#utility.yul\":5965:6038   */\n      tag_83\n      jump\t// in\n    tag_169:\n        /* \"#utility.yul\":6063:6065   */\n      0x20\n        /* \"#utility.yul\":6058:6061   */\n      dup3\n        /* \"#utility.yul\":6054:6066   */\n      add\n        /* \"#utility.yul\":6047:6066   */\n      swap2\n      pop\n        /* \"#utility.yul\":6076:6151   */\n      tag_170\n        /* \"#utility.yul\":6147:6150   */\n      dup3\n        /* \"#utility.yul\":6138:6144   */\n      dup5\n        /* \"#utility.yul\":6076:6151   */\n      tag_85\n      jump\t// in\n    tag_170:\n        /* \"#utility.yul\":6176:6178   */\n      0x20\n        /* \"#utility.yul\":6171:6174   */\n      dup3\n        /* \"#utility.yul\":6167:6179   */\n      add\n        /* \"#utility.yul\":6160:6179   */\n      swap2\n      pop\n        /* \"#utility.yul\":6196:6199   */\n      dup2\n        /* \"#utility.yul\":6189:6199   */\n      swap1\n      pop\n        /* \"#utility.yul\":5534:6205   */\n      swap6\n      swap5\n      pop\n      pop\n      pop\n      pop\n      pop\n      jump\t// out\n        /* \"#utility.yul\":6211:6358   */\n    tag_86:\n        /* \"#utility.yul\":6312:6323   */\n      0x00\n        /* \"#utility.yul\":6349:6352   */\n      dup2\n        /* \"#utility.yul\":6334:6352   */\n      swap1\n      pop\n        /* \"#utility.yul\":6211:6358   */\n      swap3\n      swap2\n      pop\n      pop\n      jump\t// out\n        /* \"#utility.yul\":6364:6737   */\n    tag_87:\n        /* \"#utility.yul\":6468:6471   */\n      0x00\n        /* \"#utility.yul\":6496:6534   */\n      tag_173\n        /* \"#utility.yul\":6528:6533   */\n      dup3\n        /* \"#utility.yul\":6496:6534   */\n      tag_75\n      jump\t// in\n    tag_173:\n        /* \"#utility.yul\":6550:6638   */\n      tag_174\n        /* \"#utility.yul\":6631:6637   */\n      dup2\n        /* \"#utility.yul\":6626:6629   */\n      dup6\n        /* \"#utility.yul\":6550:6638   */\n      tag_86\n      jump\t// in\n    tag_174:\n        /* \"#utility.yul\":6543:6638   */\n      swap4\n      pop\n        /* \"#utility.yul\":6647:6699   */\n      tag_175\n        /* \"#utility.yul\":6692:6698   */\n      dup2\n        /* \"#utility.yul\":6687:6690   */\n      dup6\n        /* \"#utility.yul\":6680:6684   */\n      0x20\n        /* \"#utility.yul\":6673:6678   */\n      dup7\n        /* \"#utility.yul\":6669:6685   */\n      add\n        /* \"#utility.yul\":6647:6699   */\n      tag_77\n      jump\t// in\n    tag_175:\n        /* \"#utility.yul\":6724:6730   */\n      dup1\n        /* \"#utility.yul\":6719:6722   */\n      dup5\n        /* \"#utility.yul\":6715:6731   */\n      add\n        /* \"#utility.yul\":6708:6731   */\n      swap2\n      pop\n        /* \"#utility.yul\":6472:6737   */\n      pop\n        /* \"#utility.yul\":6364:6737   */\n      swap3\n      swap2\n      pop\n      pop\n      jump\t// out\n        /* \"#utility.yul\":6743:7014   */\n    tag_47:\n        /* \"#utility.yul\":6873:6876   */\n      0x00\n        /* \"#utility.yul\":6895:6988   */\n      tag_177\n        /* \"#utility.yul\":6984:6987   */\n      dup3\n        /* \"#utility.yul\":6975:6981   */\n      dup5\n        /* \"#utility.yul\":6895:6988   */\n      tag_87\n      jump\t// in\n    tag_177:\n        /* \"#utility.yul\":6888:6988   */\n      swap2\n      pop\n        /* \"#utility.yul\":7005:7008   */\n      dup2\n        /* \"#utility.yul\":6998:7008   */\n      swap1\n      pop\n        /* \"#utility.yul\":6743:7014   */\n      swap3\n      swap2\n      pop\n      pop\n      jump\t// out\n        /* \"#utility.yul\":7020:7142   */\n    tag_88:\n        /* \"#utility.yul\":7093:7117   */\n      tag_179\n        /* \"#utility.yul\":7111:7116   */\n      dup2\n        /* \"#utility.yul\":7093:7117   */\n      tag_70\n      jump\t// in\n    tag_179:\n        /* \"#utility.yul\":7086:7091   */\n      dup2\n        /* \"#utility.yul\":7083:7118   */\n      eq\n        /* \"#utility.yul\":7073:7136   */\n      tag_180\n      jumpi\n        /* \"#utility.yul\":7132:7133   */\n      0x00\n        /* \"#utility.yul\":7129:7130   */\n      dup1\n        /* \"#utility.yul\":7122:7134   */\n      revert\n        /* \"#utility.yul\":7073:7136   */\n    tag_180:\n        /* \"#utility.yul\":7020:7142   */\n      pop\n      jump\t// out\n        /* \"#utility.yul\":7148:7291   */\n    tag_89:\n        /* \"#utility.yul\":7205:7210   */\n      0x00\n        /* \"#utility.yul\":7236:7242   */\n      dup2\n        /* \"#utility.yul\":7230:7243   */\n      mload\n        /* \"#utility.yul\":7221:7243   */\n      swap1\n      pop\n        /* \"#utility.yul\":7252:7285   */\n      tag_182\n        /* \"#utility.yul\":7279:7284   */\n      dup2\n        /* \"#utility.yul\":7252:7285   */\n      tag_88\n      jump\t// in\n    tag_182:\n        /* \"#utility.yul\":7148:7291   */\n      swap3\n      swap2\n      pop\n      pop\n      jump\t// out\n        /* \"#utility.yul\":7297:7648   */\n    tag_51:\n        /* \"#utility.yul\":7367:7373   */\n      0x00\n        /* \"#utility.yul\":7416:7418   */\n      0x20\n        /* \"#utility.yul\":7404:7413   */\n      dup3\n        /* \"#utility.yul\":7395:7402   */\n      dup5\n        /* \"#utility.yul\":7391:7414   */\n      sub\n        /* \"#utility.yul\":7387:7419   */\n      slt\n        /* \"#utility.yul\":7384:7503   */\n      iszero\n      tag_184\n      jumpi\n        /* \"#utility.yul\":7422:7501   */\n      tag_185\n      tag_61\n      jump\t// in\n    tag_185:\n        /* \"#utility.yul\":7384:7503   */\n    tag_184:\n        /* \"#utility.yul\":7542:7543   */\n      0x00\n        /* \"#utility.yul\":7567:7631   */\n      tag_186\n        /* \"#utility.yul\":7623:7630   */\n      dup5\n        /* \"#utility.yul\":7614:7620   */\n      dup3\n        /* \"#utility.yul\":7603:7612   */\n      dup6\n        /* \"#utility.yul\":7599:7621   */\n      add\n        /* \"#utility.yul\":7567:7631   */\n      tag_89\n      jump\t// in\n    tag_186:\n        /* \"#utility.yul\":7557:7631   */\n      swap2\n      pop\n        /* \"#utility.yul\":7513:7641   */\n      pop\n        /* \"#utility.yul\":7297:7648   */\n      swap3\n      swap2\n      pop\n      pop\n      jump\t// out\n        /* \"#utility.yul\":7654:7750   */\n    tag_90:\n        /* \"#utility.yul\":7688:7696   */\n      0x00\n        /* \"#utility.yul\":7737:7742   */\n      dup2\n        /* \"#utility.yul\":7732:7735   */\n      0xf8\n        /* \"#utility.yul\":7728:7743   */\n      shl\n        /* \"#utility.yul\":7707:7743   */\n      swap1\n      pop\n        /* \"#utility.yul\":7654:7750   */\n      swap2\n      swap1\n      pop\n      jump\t// out\n        /* \"#utility.yul\":7756:7848   */\n    tag_91:\n        /* \"#utility.yul\":7792:7799   */\n      0x00\n        /* \"#utility.yul\":7821:7842   */\n      tag_189\n        /* \"#utility.yul\":7836:7841   */\n      dup3\n        /* \"#utility.yul\":7821:7842   */\n      tag_90\n      jump\t// in\n    tag_189:\n        /* \"#utility.yul\":7810:7842   */\n      swap1\n      pop\n        /* \"#utility.yul\":7756:7848   */\n      swap2\n      swap1\n      pop\n      jump\t// out\n        /* \"#utility.yul\":7854:7999   */\n    tag_92:\n        /* \"#utility.yul\":7953:7992   */\n      tag_191\n        /* \"#utility.yul\":7970:7991   */\n      tag_192\n        /* \"#utility.yul\":7985:7990   */\n      dup3\n        /* \"#utility.yul\":7970:7991   */\n      tag_72\n      jump\t// in\n    tag_192:\n        /* \"#utility.yul\":7953:7992   */\n      tag_91\n      jump\t// in\n    tag_191:\n        /* \"#utility.yul\":7948:7951   */\n      dup3\n        /* \"#utility.yul\":7941:7993   */\n      mstore\n        /* \"#utility.yul\":7854:7999   */\n      pop\n      pop\n      jump\t// out\n        /* \"#utility.yul\":8005:8248   */\n    tag_54:\n        /* \"#utility.yul\":8111:8114   */\n      0x00\n        /* \"#utility.yul\":8126:8195   */\n      tag_194\n        /* \"#utility.yul\":8191:8194   */\n      dup3\n        /* \"#utility.yul\":8182:8188   */\n      dup5\n        /* \"#utility.yul\":8126:8195   */\n      tag_92\n      jump\t// in\n    tag_194:\n        /* \"#utility.yul\":8220:8221   */\n      0x01\n        /* \"#utility.yul\":8215:8218   */\n      dup3\n        /* \"#utility.yul\":8211:8222   */\n      add\n        /* \"#utility.yul\":8204:8222   */\n      swap2\n      pop\n        /* \"#utility.yul\":8239:8242   */\n      dup2\n        /* \"#utility.yul\":8232:8242   */\n      swap1\n      pop\n        /* \"#utility.yul\":8005:8248   */\n      swap3\n      swap2\n      pop\n      pop\n      jump\t// out\n\n    auxdata: 0xa26469706673582212203f960dbf1da5a0f716e0ae9d997c7bc7bb6fa1b51bee1a72e988d555a13f9a2664736f6c634300080b0033\n}\n",
				"bytecode": {
					"linkReferences": {},
					"object": "608060405234801561001057600080fd5b50610717806100206000396000f3fe6080604052600436106100555760003560e01c8063722713f71461005a5780637bd703e8146100855780638c6f2e82146100c2578063c47e739a146100ff578063e8b5e51f1461013c578063f8b2cb4f14610146575b600080fd5b34801561006657600080fd5b5061006f610183565b60405161007c91906102d0565b60405180910390f35b34801561009157600080fd5b506100ac60048036038101906100a7919061034e565b61018b565b6040516100b991906102d0565b60405180910390f35b3480156100ce57600080fd5b506100e960048036038101906100e491906103b1565b61019d565b6040516100f691906103f7565b60405180910390f35b34801561010b57600080fd5b506101266004803603810190610121919061044b565b61022f565b6040516101339190610511565b60405180910390f35b610144610258565b005b34801561015257600080fd5b5061016d6004803603810190610168919061034e565b61026f565b60405161017a91906102d0565b60405180910390f35b600047905090565b60006101968261026f565b9050919050565b60008042905060008060001b905060006002838683856040516020016101c69493929190610596565b6040516020818303038152906040526040516101e29190610620565b602060405180830381855afa1580156101ff573d6000803e3d6000fd5b5050506040513d601f19601f820116820180604052508101906102229190610663565b9350839150505050919050565b60608160405160200161024291906106c6565b6040516020818303038152906040529050919050565b670de0b6b3a764000034101561026d57600080fd5b565b60008060008373ffffffffffffffffffffffffffffffffffffffff1673ffffffffffffffffffffffffffffffffffffffff168152602001908152602001600020549050919050565b6000819050919050565b6102ca816102b7565b82525050565b60006020820190506102e560008301846102c1565b92915050565b600080fd5b600073ffffffffffffffffffffffffffffffffffffffff82169050919050565b600061031b826102f0565b9050919050565b61032b81610310565b811461033657600080fd5b50565b60008135905061034881610322565b92915050565b600060208284031215610364576103636102eb565b5b600061037284828501610339565b91505092915050565b6000819050919050565b61038e8161037b565b811461039957600080fd5b50565b6000813590506103ab81610385565b92915050565b6000602082840312156103c7576103c66102eb565b5b60006103d58482850161039c565b91505092915050565b6000819050919050565b6103f1816103de565b82525050565b600060208201905061040c60008301846103e8565b92915050565b60008160000b9050919050565b61042881610412565b811461043357600080fd5b50565b6000813590506104458161041f565b92915050565b600060208284031215610461576104606102eb565b5b600061046f84828501610436565b91505092915050565b600081519050919050565b600082825260208201905092915050565b60005b838110156104b2578082015181840152602081019050610497565b838111156104c1576000848401525b50505050565b6000601f19601f8301169050919050565b60006104e382610478565b6104ed8185610483565b93506104fd818560208601610494565b610506816104c7565b840191505092915050565b6000602082019050818103600083015261052b81846104d8565b905092915050565b6000819050919050565b61054e610549826102b7565b610533565b82525050565b6000819050919050565b61056f61056a8261037b565b610554565b82525050565b6000819050919050565b61059061058b826103de565b610575565b82525050565b60006105a2828761053d565b6020820191506105b2828661055e565b6020820191506105c2828561055e565b6020820191506105d2828461057f565b60208201915081905095945050505050565b600081905092915050565b60006105fa82610478565b61060481856105e4565b9350610614818560208601610494565b80840191505092915050565b600061062c82846105ef565b915081905092915050565b610640816103de565b811461064b57600080fd5b50565b60008151905061065d81610637565b92915050565b600060208284031215610679576106786102eb565b5b60006106878482850161064e565b91505092915050565b60008160f81b9050919050565b60006106a882610690565b9050919050565b6106c06106bb82610412565b61069d565b82525050565b60006106d282846106af565b6001820191508190509291505056fea26469706673582212203f960dbf1da5a0f716e0ae9d997c7bc7bb6fa1b51bee1a72e988d555a13f9a2664736f6c634300080b0033",
					"opcodes": "PUSH1 0x80 PUSH1 0x40 MSTORE CALLVALUE DUP1 ISZERO PUSH2 0x10 JUMPI PUSH1 0x0 DUP1 REVERT JUMPDEST POP PUSH2 0x717 DUP1 PUSH2 0x20 PUSH1 0x0 CODECOPY PUSH1 0x0 RETURN INVALID PUSH1 0x80 PUSH1 0x40 MSTORE PUSH1 0x4 CALLDATASIZE LT PUSH2 0x55 JUMPI PUSH1 0x0 CALLDATALOAD PUSH1 0xE0 SHR DUP1 PUSH4 0x722713F7 EQ PUSH2 0x5A JUMPI DUP1 PUSH4 0x7BD703E8 EQ PUSH2 0x85 JUMPI DUP1 PUSH4 0x8C6F2E82 EQ PUSH2 0xC2 JUMPI DUP1 PUSH4 0xC47E739A EQ PUSH2 0xFF JUMPI DUP1 PUSH4 0xE8B5E51F EQ PUSH2 0x13C JUMPI DUP1 PUSH4 0xF8B2CB4F EQ PUSH2 0x146 JUMPI JUMPDEST PUSH1 0x0 DUP1 REVERT JUMPDEST CALLVALUE DUP1 ISZERO PUSH2 0x66 JUMPI PUSH1 0x0 DUP1 REVERT JUMPDEST POP PUSH2 0x6F PUSH2 0x183 JUMP JUMPDEST PUSH1 0x40 MLOAD PUSH2 0x7C SWAP2 SWAP1 PUSH2 0x2D0 JUMP JUMPDEST PUSH1 0x40 MLOAD DUP1 SWAP2 SUB SWAP1 RETURN JUMPDEST CALLVALUE DUP1 ISZERO PUSH2 0x91 JUMPI PUSH1 0x0 DUP1 REVERT JUMPDEST POP PUSH2 0xAC PUSH1 0x4 DUP1 CALLDATASIZE SUB DUP2 ADD SWAP1 PUSH2 0xA7 SWAP2 SWAP1 PUSH2 0x34E JUMP JUMPDEST PUSH2 0x18B JUMP JUMPDEST PUSH1 0x40 MLOAD PUSH2 0xB9 SWAP2 SWAP1 PUSH2 0x2D0 JUMP JUMPDEST PUSH1 0x40 MLOAD DUP1 SWAP2 SUB SWAP1 RETURN JUMPDEST CALLVALUE DUP1 ISZERO PUSH2 0xCE JUMPI PUSH1 0x0 DUP1 REVERT JUMPDEST POP PUSH2 0xE9 PUSH1 0x4 DUP1 CALLDATASIZE SUB DUP2 ADD SWAP1 PUSH2 0xE4 SWAP2 SWAP1 PUSH2 0x3B1 JUMP JUMPDEST PUSH2 0x19D JUMP JUMPDEST PUSH1 0x40 MLOAD PUSH2 0xF6 SWAP2 SWAP1 PUSH2 0x3F7 JUMP JUMPDEST PUSH1 0x40 MLOAD DUP1 SWAP2 SUB SWAP1 RETURN JUMPDEST CALLVALUE DUP1 ISZERO PUSH2 0x10B JUMPI PUSH1 0x0 DUP1 REVERT JUMPDEST POP PUSH2 0x126 PUSH1 0x4 DUP1 CALLDATASIZE SUB DUP2 ADD SWAP1 PUSH2 0x121 SWAP2 SWAP1 PUSH2 0x44B JUMP JUMPDEST PUSH2 0x22F JUMP JUMPDEST PUSH1 0x40 MLOAD PUSH2 0x133 SWAP2 SWAP1 PUSH2 0x511 JUMP JUMPDEST PUSH1 0x40 MLOAD DUP1 SWAP2 SUB SWAP1 RETURN JUMPDEST PUSH2 0x144 PUSH2 0x258 JUMP JUMPDEST STOP JUMPDEST CALLVALUE DUP1 ISZERO PUSH2 0x152 JUMPI PUSH1 0x0 DUP1 REVERT JUMPDEST POP PUSH2 0x16D PUSH1 0x4 DUP1 CALLDATASIZE SUB DUP2 ADD SWAP1 PUSH2 0x168 SWAP2 SWAP1 PUSH2 0x34E JUMP JUMPDEST PUSH2 0x26F JUMP JUMPDEST PUSH1 0x40 MLOAD PUSH2 0x17A SWAP2 SWAP1 PUSH2 0x2D0 JUMP JUMPDEST PUSH1 0x40 MLOAD DUP1 SWAP2 SUB SWAP1 RETURN JUMPDEST PUSH1 0x0 SELFBALANCE SWAP1 POP SWAP1 JUMP JUMPDEST PUSH1 0x0 PUSH2 0x196 DUP3 PUSH2 0x26F JUMP JUMPDEST SWAP1 POP SWAP2 SWAP1 POP JUMP JUMPDEST PUSH1 0x0 DUP1 TIMESTAMP SWAP1 POP PUSH1 0x0 DUP1 PUSH1 0x0 SHL SWAP1 POP PUSH1 0x0 PUSH1 0x2 DUP4 DUP7 DUP4 DUP6 PUSH1 0x40 MLOAD PUSH1 0x20 ADD PUSH2 0x1C6 SWAP5 SWAP4 SWAP3 SWAP2 SWAP1 PUSH2 0x596 JUMP JUMPDEST PUSH1 0x40 MLOAD PUSH1 0x20 DUP2 DUP4 SUB SUB DUP2 MSTORE SWAP1 PUSH1 0x40 MSTORE PUSH1 0x40 MLOAD PUSH2 0x1E2 SWAP2 SWAP1 PUSH2 0x620 JUMP JUMPDEST PUSH1 0x20 PUSH1 0x40 MLOAD DUP1 DUP4 SUB DUP2 DUP6 GAS STATICCALL ISZERO DUP1 ISZERO PUSH2 0x1FF JUMPI RETURNDATASIZE PUSH1 0x0 DUP1 RETURNDATACOPY RETURNDATASIZE PUSH1 0x0 REVERT JUMPDEST POP POP POP PUSH1 0x40 MLOAD RETURNDATASIZE PUSH1 0x1F NOT PUSH1 0x1F DUP3 ADD AND DUP3 ADD DUP1 PUSH1 0x40 MSTORE POP DUP2 ADD SWAP1 PUSH2 0x222 SWAP2 SWAP1 PUSH2 0x663 JUMP JUMPDEST SWAP4 POP DUP4 SWAP2 POP POP POP POP SWAP2 SWAP1 POP JUMP JUMPDEST PUSH1 0x60 DUP2 PUSH1 0x40 MLOAD PUSH1 0x20 ADD PUSH2 0x242 SWAP2 SWAP1 PUSH2 0x6C6 JUMP JUMPDEST PUSH1 0x40 MLOAD PUSH1 0x20 DUP2 DUP4 SUB SUB DUP2 MSTORE SWAP1 PUSH1 0x40 MSTORE SWAP1 POP SWAP2 SWAP1 POP JUMP JUMPDEST PUSH8 0xDE0B6B3A7640000 CALLVALUE LT ISZERO PUSH2 0x26D JUMPI PUSH1 0x0 DUP1 REVERT JUMPDEST JUMP JUMPDEST PUSH1 0x0 DUP1 PUSH1 0x0 DUP4 PUSH20 0xFFFFFFFFFFFFFFFFFFFFFFFFFFFFFFFFFFFFFFFF AND PUSH20 0xFFFFFFFFFFFFFFFFFFFFFFFFFFFFFFFFFFFFFFFF AND DUP2 MSTORE PUSH1 0x20 ADD SWAP1 DUP2 MSTORE PUSH1 0x20 ADD PUSH1 0x0 KECCAK256 SLOAD SWAP1 POP SWAP2 SWAP1 POP JUMP JUMPDEST PUSH1 0x0 DUP2 SWAP1 POP SWAP2 SWAP1 POP JUMP JUMPDEST PUSH2 0x2CA DUP2 PUSH2 0x2B7 JUMP JUMPDEST DUP3 MSTORE POP POP JUMP JUMPDEST PUSH1 0x0 PUSH1 0x20 DUP3 ADD SWAP1 POP PUSH2 0x2E5 PUSH1 0x0 DUP4 ADD DUP5 PUSH2 0x2C1 JUMP JUMPDEST SWAP3 SWAP2 POP POP JUMP JUMPDEST PUSH1 0x0 DUP1 REVERT JUMPDEST PUSH1 0x0 PUSH20 0xFFFFFFFFFFFFFFFFFFFFFFFFFFFFFFFFFFFFFFFF DUP3 AND SWAP1 POP SWAP2 SWAP1 POP JUMP JUMPDEST PUSH1 0x0 PUSH2 0x31B DUP3 PUSH2 0x2F0 JUMP JUMPDEST SWAP1 POP SWAP2 SWAP1 POP JUMP JUMPDEST PUSH2 0x32B DUP2 PUSH2 0x310 JUMP JUMPDEST DUP2 EQ PUSH2 0x336 JUMPI PUSH1 0x0 DUP1 REVERT JUMPDEST POP JUMP JUMPDEST PUSH1 0x0 DUP2 CALLDATALOAD SWAP1 POP PUSH2 0x348 DUP2 PUSH2 0x322 JUMP JUMPDEST SWAP3 SWAP2 POP POP JUMP JUMPDEST PUSH1 0x0 PUSH1 0x20 DUP3 DUP5 SUB SLT ISZERO PUSH2 0x364 JUMPI PUSH2 0x363 PUSH2 0x2EB JUMP JUMPDEST JUMPDEST PUSH1 0x0 PUSH2 0x372 DUP5 DUP3 DUP6 ADD PUSH2 0x339 JUMP JUMPDEST SWAP2 POP POP SWAP3 SWAP2 POP POP JUMP JUMPDEST PUSH1 0x0 DUP2 SWAP1 POP SWAP2 SWAP1 POP JUMP JUMPDEST PUSH2 0x38E DUP2 PUSH2 0x37B JUMP JUMPDEST DUP2 EQ PUSH2 0x399 JUMPI PUSH1 0x0 DUP1 REVERT JUMPDEST POP JUMP JUMPDEST PUSH1 0x0 DUP2 CALLDATALOAD SWAP1 POP PUSH2 0x3AB DUP2 PUSH2 0x385 JUMP JUMPDEST SWAP3 SWAP2 POP POP JUMP JUMPDEST PUSH1 0x0 PUSH1 0x20 DUP3 DUP5 SUB SLT ISZERO PUSH2 0x3C7 JUMPI PUSH2 0x3C6 PUSH2 0x2EB JUMP JUMPDEST JUMPDEST PUSH1 0x0 PUSH2 0x3D5 DUP5 DUP3 DUP6 ADD PUSH2 0x39C JUMP JUMPDEST SWAP2 POP POP SWAP3 SWAP2 POP POP JUMP JUMPDEST PUSH1 0x0 DUP2 SWAP1 POP SWAP2 SWAP1 POP JUMP JUMPDEST PUSH2 0x3F1 DUP2 PUSH2 0x3DE JUMP JUMPDEST DUP3 MSTORE POP POP JUMP JUMPDEST PUSH1 0x0 PUSH1 0x20 DUP3 ADD SWAP1 POP PUSH2 0x40C PUSH1 0x0 DUP4 ADD DUP5 PUSH2 0x3E8 JUMP JUMPDEST SWAP3 SWAP2 POP POP JUMP JUMPDEST PUSH1 0x0 DUP2 PUSH1 0x0 SIGNEXTEND SWAP1 POP SWAP2 SWAP1 POP JUMP JUMPDEST PUSH2 0x428 DUP2 PUSH2 0x412 JUMP JUMPDEST DUP2 EQ PUSH2 0x433 JUMPI PUSH1 0x0 DUP1 REVERT JUMPDEST POP JUMP JUMPDEST PUSH1 0x0 DUP2 CALLDATALOAD SWAP1 POP PUSH2 0x445 DUP2 PUSH2 0x41F JUMP JUMPDEST SWAP3 SWAP2 POP POP JUMP JUMPDEST PUSH1 0x0 PUSH1 0x20 DUP3 DUP5 SUB SLT ISZERO PUSH2 0x461 JUMPI PUSH2 0x460 PUSH2 0x2EB JUMP JUMPDEST JUMPDEST PUSH1 0x0 PUSH2 0x46F DUP5 DUP3 DUP6 ADD PUSH2 0x436 JUMP JUMPDEST SWAP2 POP POP SWAP3 SWAP2 POP POP JUMP JUMPDEST PUSH1 0x0 DUP2 MLOAD SWAP1 POP SWAP2 SWAP1 POP JUMP JUMPDEST PUSH1 0x0 DUP3 DUP3 MSTORE PUSH1 0x20 DUP3 ADD SWAP1 POP SWAP3 SWAP2 POP POP JUMP JUMPDEST PUSH1 0x0 JUMPDEST DUP4 DUP2 LT ISZERO PUSH2 0x4B2 JUMPI DUP1 DUP3 ADD MLOAD DUP2 DUP5 ADD MSTORE PUSH1 0x20 DUP2 ADD SWAP1 POP PUSH2 0x497 JUMP JUMPDEST DUP4 DUP2 GT ISZERO PUSH2 0x4C1 JUMPI PUSH1 0x0 DUP5 DUP5 ADD MSTORE JUMPDEST POP POP POP POP JUMP JUMPDEST PUSH1 0x0 PUSH1 0x1F NOT PUSH1 0x1F DUP4 ADD AND SWAP1 POP SWAP2 SWAP1 POP JUMP JUMPDEST PUSH1 0x0 PUSH2 0x4E3 DUP3 PUSH2 0x478 JUMP JUMPDEST PUSH2 0x4ED DUP2 DUP6 PUSH2 0x483 JUMP JUMPDEST SWAP4 POP PUSH2 0x4FD DUP2 DUP6 PUSH1 0x20 DUP7 ADD PUSH2 0x494 JUMP JUMPDEST PUSH2 0x506 DUP2 PUSH2 0x4C7 JUMP JUMPDEST DUP5 ADD SWAP2 POP POP SWAP3 SWAP2 POP POP JUMP JUMPDEST PUSH1 0x0 PUSH1 0x20 DUP3 ADD SWAP1 POP DUP2 DUP2 SUB PUSH1 0x0 DUP4 ADD MSTORE PUSH2 0x52B DUP2 DUP5 PUSH2 0x4D8 JUMP JUMPDEST SWAP1 POP SWAP3 SWAP2 POP POP JUMP JUMPDEST PUSH1 0x0 DUP2 SWAP1 POP SWAP2 SWAP1 POP JUMP JUMPDEST PUSH2 0x54E PUSH2 0x549 DUP3 PUSH2 0x2B7 JUMP JUMPDEST PUSH2 0x533 JUMP JUMPDEST DUP3 MSTORE POP POP JUMP JUMPDEST PUSH1 0x0 DUP2 SWAP1 POP SWAP2 SWAP1 POP JUMP JUMPDEST PUSH2 0x56F PUSH2 0x56A DUP3 PUSH2 0x37B JUMP JUMPDEST PUSH2 0x554 JUMP JUMPDEST DUP3 MSTORE POP POP JUMP JUMPDEST PUSH1 0x0 DUP2 SWAP1 POP SWAP2 SWAP1 POP JUMP JUMPDEST PUSH2 0x590 PUSH2 0x58B DUP3 PUSH2 0x3DE JUMP JUMPDEST PUSH2 0x575 JUMP JUMPDEST DUP3 MSTORE POP POP JUMP JUMPDEST PUSH1 0x0 PUSH2 0x5A2 DUP3 DUP8 PUSH2 0x53D JUMP JUMPDEST PUSH1 0x20 DUP3 ADD SWAP2 POP PUSH2 0x5B2 DUP3 DUP7 PUSH2 0x55E JUMP JUMPDEST PUSH1 0x20 DUP3 ADD SWAP2 POP PUSH2 0x5C2 DUP3 DUP6 PUSH2 0x55E JUMP JUMPDEST PUSH1 0x20 DUP3 ADD SWAP2 POP PUSH2 0x5D2 DUP3 DUP5 PUSH2 0x57F JUMP JUMPDEST PUSH1 0x20 DUP3 ADD SWAP2 POP DUP2 SWAP1 POP SWAP6 SWAP5 POP POP POP POP POP JUMP JUMPDEST PUSH1 0x0 DUP2 SWAP1 POP SWAP3 SWAP2 POP POP JUMP JUMPDEST PUSH1 0x0 PUSH2 0x5FA DUP3 PUSH2 0x478 JUMP JUMPDEST PUSH2 0x604 DUP2 DUP6 PUSH2 0x5E4 JUMP JUMPDEST SWAP4 POP PUSH2 0x614 DUP2 DUP6 PUSH1 0x20 DUP7 ADD PUSH2 0x494 JUMP JUMPDEST DUP1 DUP5 ADD SWAP2 POP POP SWAP3 SWAP2 POP POP JUMP JUMPDEST PUSH1 0x0 PUSH2 0x62C DUP3 DUP5 PUSH2 0x5EF JUMP JUMPDEST SWAP2 POP DUP2 SWAP1 POP SWAP3 SWAP2 POP POP JUMP JUMPDEST PUSH2 0x640 DUP2 PUSH2 0x3DE JUMP JUMPDEST DUP2 EQ PUSH2 0x64B JUMPI PUSH1 0x0 DUP1 REVERT JUMPDEST POP JUMP JUMPDEST PUSH1 0x0 DUP2 MLOAD SWAP1 POP PUSH2 0x65D DUP2 PUSH2 0x637 JUMP JUMPDEST SWAP3 SWAP2 POP POP JUMP JUMPDEST PUSH1 0x0 PUSH1 0x20 DUP3 DUP5 SUB SLT ISZERO PUSH2 0x679 JUMPI PUSH2 0x678 PUSH2 0x2EB JUMP JUMPDEST JUMPDEST PUSH1 0x0 PUSH2 0x687 DUP5 DUP3 DUP6 ADD PUSH2 0x64E JUMP JUMPDEST SWAP2 POP POP SWAP3 SWAP2 POP POP JUMP JUMPDEST PUSH1 0x0 DUP2 PUSH1 0xF8 SHL SWAP1 POP SWAP2 SWAP1 POP JUMP JUMPDEST PUSH1 0x0 PUSH2 0x6A8 DUP3 PUSH2 0x690 JUMP JUMPDEST SWAP1 POP SWAP2 SWAP1 POP JUMP JUMPDEST PUSH2 0x6C0 PUSH2 0x6BB DUP3 PUSH2 0x412 JUMP JUMPDEST PUSH2 0x69D JUMP JUMPDEST DUP3 MSTORE POP POP JUMP JUMPDEST PUSH1 0x0 PUSH2 0x6D2 DUP3 DUP5 PUSH2 0x6AF JUMP JUMPDEST PUSH1 0x1 DUP3 ADD SWAP2 POP DUP2 SWAP1 POP SWAP3 SWAP2 POP POP JUMP INVALID LOG2 PUSH5 0x6970667358 0x22 SLT KECCAK256 EXTCODEHASH SWAP7 0xD 0xBF SAR 0xA5 LOG0 0xF7 AND 0xE0 0xAE SWAP14 SWAP10 PUSH29 0x7BC7BB6FA1B51BEE1A72E988D555A13F9A2664736F6C634300080B0033 "
				},
				"gasEstimates": {
					"creation": {
						"codeDepositCost": "363000",
						"executionCost": "399",
						"totalCost": "363399"
					},
					"external": {
						"Block(int256)": "infinite",
						"balanceOf()": "317",
						"encodeInt8(int8)": "infinite",
						"getBalance(address)": "2929",
						"getBalanceInEth(address)": "2884",
						"invest()": "211"
					}
				},
				"methodIdentifiers": {
					"Block(int256)": "8c6f2e82",
					"balanceOf()": "722713f7",
					"encodeInt8(int8)": "c47e739a",
					"getBalance(address)": "f8b2cb4f",
					"getBalanceInEth(address)": "7bd703e8",
					"invest()": "e8b5e51f"
				}
			},
			"storageLayout": {
				"storage": [
					{
						"astId": 5,
						"contract": "contracts/transact.sol:transact",
						"label": "balances",
						"offset": 0,
						"slot": "0",
						"type": "t_mapping(t_address,t_uint256)"
					}
				],
				"types": {
					"t_address": {
						"encoding": "inplace",
						"label": "address",
						"numberOfBytes": "20"
					},
					"t_mapping(t_address,t_uint256)": {
						"encoding": "mapping",
						"key": "t_address",
						"label": "mapping(address => uint256)",
						"numberOfBytes": "32",
						"value": "t_uint256"
					},
					"t_uint256": {
						"encoding": "inplace",
						"label": "uint256",
						"numberOfBytes": "32"
					}
				}
			},
			"userdoc": {
				"kind": "user",
				"methods": {},
				"version": 1
			}
		}
	}
}