{
	"contracts/auction.sol": {
		"Auction": {
			"abi": [
				{
					"inputs": [],
					"stateMutability": "nonpayable",
					"type": "constructor"
				},
				{
					"inputs": [],
					"name": "auctionState",
					"outputs": [
						{
							"internalType": "enum Auction.Auction_State",
							"name": "",
							"type": "uint8"
						}
					],
					"stateMutability": "view",
					"type": "function"
				},
				{
					"inputs": [],
					"name": "auctioneer",
					"outputs": [
						{
							"internalType": "address payable",
							"name": "",
							"type": "address"
						}
					],
					"stateMutability": "view",
					"type": "function"
				},
				{
					"inputs": [],
					"name": "bid",
					"outputs": [],
					"stateMutability": "payable",
					"type": "function"
				},
				{
					"inputs": [],
					"name": "bid_Increment",
					"outputs": [
						{
							"internalType": "uint256",
							"name": "",
							"type": "uint256"
						}
					],
					"stateMutability": "view",
					"type": "function"
				},
				{
					"inputs": [
						{
							"internalType": "address",
							"name": "",
							"type": "address"
						}
					],
					"name": "bids",
					"outputs": [
						{
							"internalType": "uint256",
							"name": "",
							"type": "uint256"
						}
					],
					"stateMutability": "view",
					"type": "function"
				},
				{
					"inputs": [],
					"name": "cancelAuc",
					"outputs": [],
					"stateMutability": "nonpayable",
					"type": "function"
				},
				{
					"inputs": [],
					"name": "endAuc",
					"outputs": [],
					"stateMutability": "nonpayable",
					"type": "function"
				},
				{
					"inputs": [],
					"name": "etblock",
					"outputs": [
						{
							"internalType": "uint256",
							"name": "",
							"type": "uint256"
						}
					],
					"stateMutability": "view",
					"type": "function"
				},
				{
					"inputs": [],
					"name": "finalizeAuc",
					"outputs": [],
					"stateMutability": "nonpayable",
					"type": "function"
				},
				{
					"inputs": [],
					"name": "highestBidder",
					"outputs": [
						{
							"internalType": "address payable",
							"name": "",
							"type": "address"
						}
					],
					"stateMutability": "view",
					"type": "function"
				},
				{
					"inputs": [],
					"name": "highest_payable_bid",
					"outputs": [
						{
							"internalType": "uint256",
							"name": "",
							"type": "uint256"
						}
					],
					"stateMutability": "view",
					"type": "function"
				},
				{
					"inputs": [],
					"name": "stblock",
					"outputs": [
						{
							"internalType": "uint256",
							"name": "",
							"type": "uint256"
						}
					],
					"stateMutability": "view",
					"type": "function"
				}
			],
			"devdoc": {
				"kind": "dev",
				"methods": {},
				"version": 1
			},
			"evm": {
				"assembly": "    /* \"contracts/auction.sol\":62:3105  contract Auction{ ... */\n  mstore(0x40, 0x80)\n    /* \"contracts/auction.sol\":389:390  0 */\n  0x00\n    /* \"contracts/auction.sol\":382:390  int xp=0 */\n  0x06\n  sstore\n    /* \"contracts/auction.sol\":489:701  constructor(){... */\n  callvalue\n  dup1\n  iszero\n  tag_1\n  jumpi\n  0x00\n  dup1\n  revert\ntag_1:\n  pop\n    /* \"contracts/auction.sol\":534:544  msg.sender */\n  caller\n    /* \"contracts/auction.sol\":513:523  auctioneer */\n  0x00\n  dup1\n    /* \"contracts/auction.sol\":513:545  auctioneer = payable(msg.sender) */\n  0x0100\n  exp\n  dup2\n  sload\n  dup2\n  0xffffffffffffffffffffffffffffffffffffffff\n  mul\n  not\n  and\n  swap1\n  dup4\n  0xffffffffffffffffffffffffffffffffffffffff\n  and\n  mul\n  or\n  swap1\n  sstore\n  pop\n    /* \"contracts/auction.sol\":571:592  Auction_State.Running */\n  0x01\n    /* \"contracts/auction.sol\":556:568  auctionState */\n  0x03\n  0x00\n    /* \"contracts/auction.sol\":556:592  auctionState = Auction_State.Running */\n  0x0100\n  exp\n  dup2\n  sload\n  dup2\n  0xff\n  mul\n  not\n  and\n  swap1\n  dup4\n  0x03\n  dup2\n  gt\n  iszero\n  tag_4\n  jumpi\n  tag_5\n  tag_6\n  jump\t// in\ntag_5:\ntag_4:\n  mul\n  or\n  swap1\n  sstore\n  pop\n    /* \"contracts/auction.sol\":613:625  block.number */\n  number\n    /* \"contracts/auction.sol\":603:610  stblock */\n  0x01\n    /* \"contracts/auction.sol\":603:625  stblock = block.number */\n  dup2\n  swap1\n  sstore\n  pop\n    /* \"contracts/auction.sol\":656:659  240 */\n  0xf0\n    /* \"contracts/auction.sol\":646:653  stblock */\n  sload(0x01)\n    /* \"contracts/auction.sol\":646:659  stblock + 240 */\n  tag_7\n  swap2\n  swap1\n  tag_8\n  jump\t// in\ntag_7:\n    /* \"contracts/auction.sol\":636:643  etblock */\n  0x02\n    /* \"contracts/auction.sol\":636:659  etblock = stblock + 240 */\n  dup2\n  swap1\n  sstore\n  pop\n    /* \"contracts/auction.sol\":686:693  1 ether */\n  0x0de0b6b3a7640000\n    /* \"contracts/auction.sol\":670:683  bid_Increment */\n  0x05\n    /* \"contracts/auction.sol\":670:693  bid_Increment = 1 ether */\n  dup2\n  swap1\n  sstore\n  pop\n    /* \"contracts/auction.sol\":62:3105  contract Auction{ ... */\n  jump(tag_9)\n    /* \"#utility.yul\":7:187   */\ntag_6:\n    /* \"#utility.yul\":55:132   */\n  0x4e487b7100000000000000000000000000000000000000000000000000000000\n    /* \"#utility.yul\":52:53   */\n  0x00\n    /* \"#utility.yul\":45:133   */\n  mstore\n    /* \"#utility.yul\":152:156   */\n  0x21\n    /* \"#utility.yul\":149:150   */\n  0x04\n    /* \"#utility.yul\":142:157   */\n  mstore\n    /* \"#utility.yul\":176:180   */\n  0x24\n    /* \"#utility.yul\":173:174   */\n  0x00\n    /* \"#utility.yul\":166:181   */\n  revert\n    /* \"#utility.yul\":193:270   */\ntag_10:\n    /* \"#utility.yul\":230:237   */\n  0x00\n    /* \"#utility.yul\":259:264   */\n  dup2\n    /* \"#utility.yul\":248:264   */\n  swap1\n  pop\n    /* \"#utility.yul\":193:270   */\n  swap2\n  swap1\n  pop\n  jump\t// out\n    /* \"#utility.yul\":276:456   */\ntag_11:\n    /* \"#utility.yul\":324:401   */\n  0x4e487b7100000000000000000000000000000000000000000000000000000000\n    /* \"#utility.yul\":321:322   */\n  0x00\n    /* \"#utility.yul\":314:402   */\n  mstore\n    /* \"#utility.yul\":421:425   */\n  0x11\n    /* \"#utility.yul\":418:419   */\n  0x04\n    /* \"#utility.yul\":411:426   */\n  mstore\n    /* \"#utility.yul\":445:449   */\n  0x24\n    /* \"#utility.yul\":442:443   */\n  0x00\n    /* \"#utility.yul\":435:450   */\n  revert\n    /* \"#utility.yul\":462:767   */\ntag_8:\n    /* \"#utility.yul\":502:505   */\n  0x00\n    /* \"#utility.yul\":521:541   */\n  tag_17\n    /* \"#utility.yul\":539:540   */\n  dup3\n    /* \"#utility.yul\":521:541   */\n  tag_10\n  jump\t// in\ntag_17:\n    /* \"#utility.yul\":516:541   */\n  swap2\n  pop\n    /* \"#utility.yul\":555:575   */\n  tag_18\n    /* \"#utility.yul\":573:574   */\n  dup4\n    /* \"#utility.yul\":555:575   */\n  tag_10\n  jump\t// in\ntag_18:\n    /* \"#utility.yul\":550:575   */\n  swap3\n  pop\n    /* \"#utility.yul\":709:710   */\n  dup3\n    /* \"#utility.yul\":641:707   */\n  0xffffffffffffffffffffffffffffffffffffffffffffffffffffffffffffffff\n    /* \"#utility.yul\":637:711   */\n  sub\n    /* \"#utility.yul\":634:635   */\n  dup3\n    /* \"#utility.yul\":631:712   */\n  gt\n    /* \"#utility.yul\":628:735   */\n  iszero\n  tag_19\n  jumpi\n    /* \"#utility.yul\":715:733   */\n  tag_20\n  tag_11\n  jump\t// in\ntag_20:\n    /* \"#utility.yul\":628:735   */\ntag_19:\n    /* \"#utility.yul\":759:760   */\n  dup3\n    /* \"#utility.yul\":756:757   */\n  dup3\n    /* \"#utility.yul\":752:761   */\n  add\n    /* \"#utility.yul\":745:761   */\n  swap1\n  pop\n    /* \"#utility.yul\":462:767   */\n  swap3\n  swap2\n  pop\n  pop\n  jump\t// out\n    /* \"contracts/auction.sol\":62:3105  contract Auction{ ... */\ntag_9:\n  dataSize(sub_0)\n  dup1\n  dataOffset(sub_0)\n  0x00\n  codecopy\n  0x00\n  return\nstop\n\nsub_0: assembly {\n        /* \"contracts/auction.sol\":62:3105  contract Auction{ ... */\n      mstore(0x40, 0x80)\n      jumpi(tag_1, lt(calldatasize, 0x04))\n      shr(0xe0, calldataload(0x00))\n      dup1\n      0x7fb45099\n      gt\n      tag_14\n      jumpi\n      dup1\n      0x7fb45099\n      eq\n      tag_8\n      jumpi\n      dup1\n      0x91f90157\n      eq\n      tag_9\n      jumpi\n      dup1\n      0x9d957d45\n      eq\n      tag_10\n      jumpi\n      dup1\n      0xa118be02\n      eq\n      tag_11\n      jumpi\n      dup1\n      0xce5bd041\n      eq\n      tag_12\n      jumpi\n      dup1\n      0xe07600bd\n      eq\n      tag_13\n      jumpi\n      jump(tag_1)\n    tag_14:\n      dup1\n      0x1998aeef\n      eq\n      tag_2\n      jumpi\n      dup1\n      0x2352f320\n      eq\n      tag_3\n      jumpi\n      dup1\n      0x3fdceefd\n      eq\n      tag_4\n      jumpi\n      dup1\n      0x5ec2c7bf\n      eq\n      tag_5\n      jumpi\n      dup1\n      0x62ea82db\n      eq\n      tag_6\n      jumpi\n      dup1\n      0x7eb695a1\n      eq\n      tag_7\n      jumpi\n    tag_1:\n      0x00\n      dup1\n      revert\n        /* \"contracts/auction.sol\":1439:2075  function bid() payable public notOwner started beforeEnding{... */\n    tag_2:\n      tag_15\n      tag_16\n      jump\t// in\n    tag_15:\n      stop\n        /* \"contracts/auction.sol\":1101:1191  function cancelAuc() public Owner{... */\n    tag_3:\n      callvalue\n      dup1\n      iszero\n      tag_17\n      jumpi\n      0x00\n      dup1\n      revert\n    tag_17:\n      pop\n      tag_18\n      tag_19\n      jump\t// in\n    tag_18:\n      stop\n        /* \"contracts/auction.sol\":1199:1282  function endAuc() public Owner{... */\n    tag_4:\n      callvalue\n      dup1\n      iszero\n      tag_20\n      jumpi\n      0x00\n      dup1\n      revert\n    tag_20:\n      pop\n      tag_21\n      tag_22\n      jump\t// in\n    tag_21:\n      stop\n        /* \"contracts/auction.sol\":88:121  address payable public auctioneer */\n    tag_5:\n      callvalue\n      dup1\n      iszero\n      tag_23\n      jumpi\n      0x00\n      dup1\n      revert\n    tag_23:\n      pop\n      tag_24\n      tag_25\n      jump\t// in\n    tag_24:\n      mload(0x40)\n      tag_26\n      swap2\n      swap1\n      tag_27\n      jump\t// in\n    tag_26:\n      mload(0x40)\n      dup1\n      swap2\n      sub\n      swap1\n      return\n        /* \"contracts/auction.sol\":444:480  mapping(address => uint) public bids */\n    tag_6:\n      callvalue\n      dup1\n      iszero\n      tag_28\n      jumpi\n      0x00\n      dup1\n      revert\n    tag_28:\n      pop\n      tag_29\n      0x04\n      dup1\n      calldatasize\n      sub\n      dup2\n      add\n      swap1\n      tag_30\n      swap2\n      swap1\n      tag_31\n      jump\t// in\n    tag_30:\n      tag_32\n      jump\t// in\n    tag_29:\n      mload(0x40)\n      tag_33\n      swap2\n      swap1\n      tag_34\n      jump\t// in\n    tag_33:\n      mload(0x40)\n      dup1\n      swap2\n      sub\n      swap1\n      return\n        /* \"contracts/auction.sol\":312:343  uint public highest_payable_bid */\n    tag_7:\n      callvalue\n      dup1\n      iszero\n      tag_35\n      jumpi\n      0x00\n      dup1\n      revert\n    tag_35:\n      pop\n      tag_36\n      tag_37\n      jump\t// in\n    tag_36:\n      mload(0x40)\n      tag_38\n      swap2\n      swap1\n      tag_34\n      jump\t// in\n    tag_38:\n      mload(0x40)\n      dup1\n      swap2\n      sub\n      swap1\n      return\n        /* \"contracts/auction.sol\":270:303  Auction_State public auctionState */\n    tag_8:\n      callvalue\n      dup1\n      iszero\n      tag_39\n      jumpi\n      0x00\n      dup1\n      revert\n    tag_39:\n      pop\n      tag_40\n      tag_41\n      jump\t// in\n    tag_40:\n      mload(0x40)\n      tag_42\n      swap2\n      swap1\n      tag_43\n      jump\t// in\n    tag_42:\n      mload(0x40)\n      dup1\n      swap2\n      sub\n      swap1\n      return\n        /* \"contracts/auction.sol\":399:435  address payable public highestBidder */\n    tag_9:\n      callvalue\n      dup1\n      iszero\n      tag_44\n      jumpi\n      0x00\n      dup1\n      revert\n    tag_44:\n      pop\n      tag_45\n      tag_46\n      jump\t// in\n    tag_45:\n      mload(0x40)\n      tag_47\n      swap2\n      swap1\n      tag_27\n      jump\t// in\n    tag_47:\n      mload(0x40)\n      dup1\n      swap2\n      sub\n      swap1\n      return\n        /* \"contracts/auction.sol\":168:187  uint public etblock */\n    tag_10:\n      callvalue\n      dup1\n      iszero\n      tag_48\n      jumpi\n      0x00\n      dup1\n      revert\n    tag_48:\n      pop\n      tag_49\n      tag_50\n      jump\t// in\n    tag_49:\n      mload(0x40)\n      tag_51\n      swap2\n      swap1\n      tag_34\n      jump\t// in\n    tag_51:\n      mload(0x40)\n      dup1\n      swap2\n      sub\n      swap1\n      return\n        /* \"contracts/auction.sol\":129:148  uint public stblock */\n    tag_11:\n      callvalue\n      dup1\n      iszero\n      tag_52\n      jumpi\n      0x00\n      dup1\n      revert\n    tag_52:\n      pop\n      tag_53\n      tag_54\n      jump\t// in\n    tag_53:\n      mload(0x40)\n      tag_55\n      swap2\n      swap1\n      tag_34\n      jump\t// in\n    tag_55:\n      mload(0x40)\n      dup1\n      swap2\n      sub\n      swap1\n      return\n        /* \"contracts/auction.sol\":350:375  uint public bid_Increment */\n    tag_12:\n      callvalue\n      dup1\n      iszero\n      tag_56\n      jumpi\n      0x00\n      dup1\n      revert\n    tag_56:\n      pop\n      tag_57\n      tag_58\n      jump\t// in\n    tag_57:\n      mload(0x40)\n      tag_59\n      swap2\n      swap1\n      tag_34\n      jump\t// in\n    tag_59:\n      mload(0x40)\n      dup1\n      swap2\n      sub\n      swap1\n      return\n        /* \"contracts/auction.sol\":2081:3102  function finalizeAuc() public{... */\n    tag_13:\n      callvalue\n      dup1\n      iszero\n      tag_60\n      jumpi\n      0x00\n      dup1\n      revert\n    tag_60:\n      pop\n      tag_61\n      tag_62\n      jump\t// in\n    tag_61:\n      stop\n        /* \"contracts/auction.sol\":1439:2075  function bid() payable public notOwner started beforeEnding{... */\n    tag_16:\n        /* \"contracts/auction.sol\":761:771  auctioneer */\n      0x00\n      dup1\n      sload\n      swap1\n      0x0100\n      exp\n      swap1\n      div\n      0xffffffffffffffffffffffffffffffffffffffff\n      and\n        /* \"contracts/auction.sol\":747:771  msg.sender != auctioneer */\n      0xffffffffffffffffffffffffffffffffffffffff\n      and\n        /* \"contracts/auction.sol\":747:757  msg.sender */\n      caller\n        /* \"contracts/auction.sol\":747:771  msg.sender != auctioneer */\n      0xffffffffffffffffffffffffffffffffffffffff\n      and\n      eq\n      iszero\n        /* \"contracts/auction.sol\":739:791  require(msg.sender != auctioneer,\"Owner cannot bid\") */\n      tag_64\n      jumpi\n      mload(0x40)\n      0x08c379a000000000000000000000000000000000000000000000000000000000\n      dup2\n      mstore\n      0x04\n      add\n      tag_65\n      swap1\n      tag_66\n      jump\t// in\n    tag_65:\n      mload(0x40)\n      dup1\n      swap2\n      sub\n      swap1\n      revert\n    tag_64:\n        /* \"contracts/auction.sol\":976:983  stblock */\n      sload(0x01)\n        /* \"contracts/auction.sol\":963:975  block.number */\n      number\n        /* \"contracts/auction.sol\":963:983  block.number>stblock */\n      gt\n        /* \"contracts/auction.sol\":955:984  require(block.number>stblock) */\n      tag_68\n      jumpi\n      0x00\n      dup1\n      revert\n    tag_68:\n        /* \"contracts/auction.sol\":1065:1072  etblock */\n      sload(0x02)\n        /* \"contracts/auction.sol\":1052:1064  block.number */\n      number\n        /* \"contracts/auction.sol\":1052:1072  block.number<etblock */\n      lt\n        /* \"contracts/auction.sol\":1044:1073  require(block.number<etblock) */\n      tag_70\n      jumpi\n      0x00\n      dup1\n      revert\n    tag_70:\n        /* \"contracts/auction.sol\":1535:1556  Auction_State.Running */\n      0x01\n        /* \"contracts/auction.sol\":1519:1556  auctionState == Auction_State.Running */\n      0x03\n      dup2\n      gt\n      iszero\n      tag_72\n      jumpi\n      tag_73\n      tag_74\n      jump\t// in\n    tag_73:\n    tag_72:\n        /* \"contracts/auction.sol\":1519:1531  auctionState */\n      0x03\n      0x00\n      swap1\n      sload\n      swap1\n      0x0100\n      exp\n      swap1\n      div\n      0xff\n      and\n        /* \"contracts/auction.sol\":1519:1556  auctionState == Auction_State.Running */\n      0x03\n      dup2\n      gt\n      iszero\n      tag_75\n      jumpi\n      tag_76\n      tag_74\n      jump\t// in\n    tag_76:\n    tag_75:\n      eq\n        /* \"contracts/auction.sol\":1511:1557  require(auctionState == Auction_State.Running) */\n      tag_77\n      jumpi\n      0x00\n      dup1\n      revert\n    tag_77:\n        /* \"contracts/auction.sol\":1588:1595  1 ether */\n      0x0de0b6b3a7640000\n        /* \"contracts/auction.sol\":1576:1585  msg.value */\n      callvalue\n        /* \"contracts/auction.sol\":1576:1595  msg.value>= 1 ether */\n      lt\n      iszero\n        /* \"contracts/auction.sol\":1568:1596  require(msg.value>= 1 ether) */\n      tag_78\n      jumpi\n      0x00\n      dup1\n      revert\n    tag_78:\n        /* \"contracts/auction.sol\":1609:1624  uint currentBid */\n      0x00\n        /* \"contracts/auction.sol\":1646:1655  msg.value */\n      callvalue\n        /* \"contracts/auction.sol\":1627:1631  bids */\n      0x08\n        /* \"contracts/auction.sol\":1627:1643  bids[msg.sender] */\n      0x00\n        /* \"contracts/auction.sol\":1632:1642  msg.sender */\n      caller\n        /* \"contracts/auction.sol\":1627:1643  bids[msg.sender] */\n      0xffffffffffffffffffffffffffffffffffffffff\n      and\n      0xffffffffffffffffffffffffffffffffffffffff\n      and\n      dup2\n      mstore\n      0x20\n      add\n      swap1\n      dup2\n      mstore\n      0x20\n      add\n      0x00\n      keccak256\n      sload\n        /* \"contracts/auction.sol\":1627:1655  bids[msg.sender] + msg.value */\n      tag_79\n      swap2\n      swap1\n      tag_80\n      jump\t// in\n    tag_79:\n        /* \"contracts/auction.sol\":1609:1655  uint currentBid = bids[msg.sender] + msg.value */\n      swap1\n      pop\n        /* \"contracts/auction.sol\":1686:1705  highest_payable_bid */\n      sload(0x04)\n        /* \"contracts/auction.sol\":1675:1685  currentBid */\n      dup2\n        /* \"contracts/auction.sol\":1675:1705  currentBid>highest_payable_bid */\n      gt\n        /* \"contracts/auction.sol\":1667:1706  require(currentBid>highest_payable_bid) */\n      tag_81\n      jumpi\n      0x00\n      dup1\n      revert\n    tag_81:\n        /* \"contracts/auction.sol\":1736:1746  currentBid */\n      dup1\n        /* \"contracts/auction.sol\":1717:1721  bids */\n      0x08\n        /* \"contracts/auction.sol\":1717:1733  bids[msg.sender] */\n      0x00\n        /* \"contracts/auction.sol\":1722:1732  msg.sender */\n      caller\n        /* \"contracts/auction.sol\":1717:1733  bids[msg.sender] */\n      0xffffffffffffffffffffffffffffffffffffffff\n      and\n      0xffffffffffffffffffffffffffffffffffffffff\n      and\n      dup2\n      mstore\n      0x20\n      add\n      swap1\n      dup2\n      mstore\n      0x20\n      add\n      0x00\n      keccak256\n        /* \"contracts/auction.sol\":1717:1746  bids[msg.sender] = currentBid */\n      dup2\n      swap1\n      sstore\n      pop\n        /* \"contracts/auction.sol\":1773:1777  bids */\n      0x08\n        /* \"contracts/auction.sol\":1773:1792  bids[highestBidder] */\n      0x00\n        /* \"contracts/auction.sol\":1778:1791  highestBidder */\n      0x07\n      0x00\n      swap1\n      sload\n      swap1\n      0x0100\n      exp\n      swap1\n      div\n      0xffffffffffffffffffffffffffffffffffffffff\n      and\n        /* \"contracts/auction.sol\":1773:1792  bids[highestBidder] */\n      0xffffffffffffffffffffffffffffffffffffffff\n      and\n      0xffffffffffffffffffffffffffffffffffffffff\n      and\n      dup2\n      mstore\n      0x20\n      add\n      swap1\n      dup2\n      mstore\n      0x20\n      add\n      0x00\n      keccak256\n      sload\n        /* \"contracts/auction.sol\":1762:1772  currentBid */\n      dup2\n        /* \"contracts/auction.sol\":1762:1792  currentBid<bids[highestBidder] */\n      lt\n        /* \"contracts/auction.sol\":1759:2053  if(currentBid<bids[highestBidder]){... */\n      iszero\n      tag_82\n      jumpi\n        /* \"contracts/auction.sol\":1830:1879  min(currentBid+bid_Increment,bids[highestBidder]) */\n      tag_83\n        /* \"contracts/auction.sol\":1845:1858  bid_Increment */\n      sload(0x05)\n        /* \"contracts/auction.sol\":1834:1844  currentBid */\n      dup3\n        /* \"contracts/auction.sol\":1834:1858  currentBid+bid_Increment */\n      tag_84\n      swap2\n      swap1\n      tag_80\n      jump\t// in\n    tag_84:\n        /* \"contracts/auction.sol\":1859:1863  bids */\n      0x08\n        /* \"contracts/auction.sol\":1859:1878  bids[highestBidder] */\n      0x00\n        /* \"contracts/auction.sol\":1864:1877  highestBidder */\n      0x07\n      0x00\n      swap1\n      sload\n      swap1\n      0x0100\n      exp\n      swap1\n      div\n      0xffffffffffffffffffffffffffffffffffffffff\n      and\n        /* \"contracts/auction.sol\":1859:1878  bids[highestBidder] */\n      0xffffffffffffffffffffffffffffffffffffffff\n      and\n      0xffffffffffffffffffffffffffffffffffffffff\n      and\n      dup2\n      mstore\n      0x20\n      add\n      swap1\n      dup2\n      mstore\n      0x20\n      add\n      0x00\n      keccak256\n      sload\n        /* \"contracts/auction.sol\":1830:1833  min */\n      tag_85\n        /* \"contracts/auction.sol\":1830:1879  min(currentBid+bid_Increment,bids[highestBidder]) */\n      jump\t// in\n    tag_83:\n        /* \"contracts/auction.sol\":1808:1827  highest_payable_bid */\n      0x04\n        /* \"contracts/auction.sol\":1808:1879  highest_payable_bid = min(currentBid+bid_Increment,bids[highestBidder]) */\n      dup2\n      swap1\n      sstore\n      pop\n        /* \"contracts/auction.sol\":1759:2053  if(currentBid<bids[highestBidder]){... */\n      jump(tag_86)\n    tag_82:\n        /* \"contracts/auction.sol\":1942:1991  min(currentBid,bids[highestBidder]+bid_Increment) */\n      tag_87\n        /* \"contracts/auction.sol\":1946:1956  currentBid */\n      dup2\n        /* \"contracts/auction.sol\":1977:1990  bid_Increment */\n      sload(0x05)\n        /* \"contracts/auction.sol\":1957:1961  bids */\n      0x08\n        /* \"contracts/auction.sol\":1957:1976  bids[highestBidder] */\n      0x00\n        /* \"contracts/auction.sol\":1962:1975  highestBidder */\n      0x07\n      0x00\n      swap1\n      sload\n      swap1\n      0x0100\n      exp\n      swap1\n      div\n      0xffffffffffffffffffffffffffffffffffffffff\n      and\n        /* \"contracts/auction.sol\":1957:1976  bids[highestBidder] */\n      0xffffffffffffffffffffffffffffffffffffffff\n      and\n      0xffffffffffffffffffffffffffffffffffffffff\n      and\n      dup2\n      mstore\n      0x20\n      add\n      swap1\n      dup2\n      mstore\n      0x20\n      add\n      0x00\n      keccak256\n      sload\n        /* \"contracts/auction.sol\":1957:1990  bids[highestBidder]+bid_Increment */\n      tag_88\n      swap2\n      swap1\n      tag_80\n      jump\t// in\n    tag_88:\n        /* \"contracts/auction.sol\":1942:1945  min */\n      tag_85\n        /* \"contracts/auction.sol\":1942:1991  min(currentBid,bids[highestBidder]+bid_Increment) */\n      jump\t// in\n    tag_87:\n        /* \"contracts/auction.sol\":1920:1939  highest_payable_bid */\n      0x04\n        /* \"contracts/auction.sol\":1920:1991  highest_payable_bid = min(currentBid,bids[highestBidder]+bid_Increment) */\n      dup2\n      swap1\n      sstore\n      pop\n        /* \"contracts/auction.sol\":2030:2040  msg.sender */\n      caller\n        /* \"contracts/auction.sol\":2006:2019  highestBidder */\n      0x07\n      0x00\n        /* \"contracts/auction.sol\":2006:2041  highestBidder = payable(msg.sender) */\n      0x0100\n      exp\n      dup2\n      sload\n      dup2\n      0xffffffffffffffffffffffffffffffffffffffff\n      mul\n      not\n      and\n      swap1\n      dup4\n      0xffffffffffffffffffffffffffffffffffffffff\n      and\n      mul\n      or\n      swap1\n      sstore\n      pop\n        /* \"contracts/auction.sol\":1759:2053  if(currentBid<bids[highestBidder]){... */\n    tag_86:\n        /* \"contracts/auction.sol\":2063:2065  xp */\n      0x06\n      0x00\n        /* \"contracts/auction.sol\":2063:2067  xp++ */\n      dup2\n      sload\n      dup1\n      swap3\n      swap2\n      swap1\n      tag_89\n      swap1\n      tag_90\n      jump\t// in\n    tag_89:\n      swap2\n      swap1\n      pop\n      sstore\n      pop\n        /* \"contracts/auction.sol\":1498:2075  {... */\n      pop\n        /* \"contracts/auction.sol\":1439:2075  function bid() payable public notOwner started beforeEnding{... */\n      jump\t// out\n        /* \"contracts/auction.sol\":1101:1191  function cancelAuc() public Owner{... */\n    tag_19:\n        /* \"contracts/auction.sol\":868:878  auctioneer */\n      0x00\n      dup1\n      sload\n      swap1\n      0x0100\n      exp\n      swap1\n      div\n      0xffffffffffffffffffffffffffffffffffffffff\n      and\n        /* \"contracts/auction.sol\":854:878  msg.sender == auctioneer */\n      0xffffffffffffffffffffffffffffffffffffffff\n      and\n        /* \"contracts/auction.sol\":854:864  msg.sender */\n      caller\n        /* \"contracts/auction.sol\":854:878  msg.sender == auctioneer */\n      0xffffffffffffffffffffffffffffffffffffffff\n      and\n      eq\n        /* \"contracts/auction.sol\":846:898  require(msg.sender == auctioneer,\"Owner cannot bid\") */\n      tag_92\n      jumpi\n      mload(0x40)\n      0x08c379a000000000000000000000000000000000000000000000000000000000\n      dup2\n      mstore\n      0x04\n      add\n      tag_93\n      swap1\n      tag_66\n      jump\t// in\n    tag_93:\n      mload(0x40)\n      dup1\n      swap2\n      sub\n      swap1\n      revert\n    tag_92:\n        /* \"contracts/auction.sol\":1160:1183  Auction_State.Cancelled */\n      0x03\n        /* \"contracts/auction.sol\":1145:1157  auctionState */\n      dup1\n      0x00\n        /* \"contracts/auction.sol\":1145:1183  auctionState = Auction_State.Cancelled */\n      0x0100\n      exp\n      dup2\n      sload\n      dup2\n      0xff\n      mul\n      not\n      and\n      swap1\n      dup4\n      0x03\n      dup2\n      gt\n      iszero\n      tag_95\n      jumpi\n      tag_96\n      tag_74\n      jump\t// in\n    tag_96:\n    tag_95:\n      mul\n      or\n      swap1\n      sstore\n      pop\n        /* \"contracts/auction.sol\":1101:1191  function cancelAuc() public Owner{... */\n      jump\t// out\n        /* \"contracts/auction.sol\":1199:1282  function endAuc() public Owner{... */\n    tag_22:\n        /* \"contracts/auction.sol\":868:878  auctioneer */\n      0x00\n      dup1\n      sload\n      swap1\n      0x0100\n      exp\n      swap1\n      div\n      0xffffffffffffffffffffffffffffffffffffffff\n      and\n        /* \"contracts/auction.sol\":854:878  msg.sender == auctioneer */\n      0xffffffffffffffffffffffffffffffffffffffff\n      and\n        /* \"contracts/auction.sol\":854:864  msg.sender */\n      caller\n        /* \"contracts/auction.sol\":854:878  msg.sender == auctioneer */\n      0xffffffffffffffffffffffffffffffffffffffff\n      and\n      eq\n        /* \"contracts/auction.sol\":846:898  require(msg.sender == auctioneer,\"Owner cannot bid\") */\n      tag_98\n      jumpi\n      mload(0x40)\n      0x08c379a000000000000000000000000000000000000000000000000000000000\n      dup2\n      mstore\n      0x04\n      add\n      tag_99\n      swap1\n      tag_66\n      jump\t// in\n    tag_99:\n      mload(0x40)\n      dup1\n      swap2\n      sub\n      swap1\n      revert\n    tag_98:\n        /* \"contracts/auction.sol\":1255:1274  Auction_State.Ended */\n      0x02\n        /* \"contracts/auction.sol\":1240:1252  auctionState */\n      0x03\n      0x00\n        /* \"contracts/auction.sol\":1240:1274  auctionState = Auction_State.Ended */\n      0x0100\n      exp\n      dup2\n      sload\n      dup2\n      0xff\n      mul\n      not\n      and\n      swap1\n      dup4\n      0x03\n      dup2\n      gt\n      iszero\n      tag_101\n      jumpi\n      tag_102\n      tag_74\n      jump\t// in\n    tag_102:\n    tag_101:\n      mul\n      or\n      swap1\n      sstore\n      pop\n        /* \"contracts/auction.sol\":1199:1282  function endAuc() public Owner{... */\n      jump\t// out\n        /* \"contracts/auction.sol\":88:121  address payable public auctioneer */\n    tag_25:\n      0x00\n      dup1\n      sload\n      swap1\n      0x0100\n      exp\n      swap1\n      div\n      0xffffffffffffffffffffffffffffffffffffffff\n      and\n      dup2\n      jump\t// out\n        /* \"contracts/auction.sol\":444:480  mapping(address => uint) public bids */\n    tag_32:\n      mstore(0x20, 0x08)\n      dup1\n      0x00\n      mstore\n      keccak256(0x00, 0x40)\n      0x00\n      swap2\n      pop\n      swap1\n      pop\n      sload\n      dup2\n      jump\t// out\n        /* \"contracts/auction.sol\":312:343  uint public highest_payable_bid */\n    tag_37:\n      sload(0x04)\n      dup2\n      jump\t// out\n        /* \"contracts/auction.sol\":270:303  Auction_State public auctionState */\n    tag_41:\n      0x03\n      0x00\n      swap1\n      sload\n      swap1\n      0x0100\n      exp\n      swap1\n      div\n      0xff\n      and\n      dup2\n      jump\t// out\n        /* \"contracts/auction.sol\":399:435  address payable public highestBidder */\n    tag_46:\n      0x07\n      0x00\n      swap1\n      sload\n      swap1\n      0x0100\n      exp\n      swap1\n      div\n      0xffffffffffffffffffffffffffffffffffffffff\n      and\n      dup2\n      jump\t// out\n        /* \"contracts/auction.sol\":168:187  uint public etblock */\n    tag_50:\n      sload(0x02)\n      dup2\n      jump\t// out\n        /* \"contracts/auction.sol\":129:148  uint public stblock */\n    tag_54:\n      sload(0x01)\n      dup2\n      jump\t// out\n        /* \"contracts/auction.sol\":350:375  uint public bid_Increment */\n    tag_58:\n      sload(0x05)\n      dup2\n      jump\t// out\n        /* \"contracts/auction.sol\":2081:3102  function finalizeAuc() public{... */\n    tag_62:\n        /* \"contracts/auction.sol\":2145:2168  Auction_State.Cancelled */\n      0x03\n        /* \"contracts/auction.sol\":2129:2168  auctionState == Auction_State.Cancelled */\n      dup1\n      dup2\n      gt\n      iszero\n      tag_104\n      jumpi\n      tag_105\n      tag_74\n      jump\t// in\n    tag_105:\n    tag_104:\n        /* \"contracts/auction.sol\":2129:2141  auctionState */\n      0x03\n      0x00\n      swap1\n      sload\n      swap1\n      0x0100\n      exp\n      swap1\n      div\n      0xff\n      and\n        /* \"contracts/auction.sol\":2129:2168  auctionState == Auction_State.Cancelled */\n      0x03\n      dup2\n      gt\n      iszero\n      tag_106\n      jumpi\n      tag_107\n      tag_74\n      jump\t// in\n    tag_107:\n    tag_106:\n      eq\n        /* \"contracts/auction.sol\":2129:2207  auctionState == Auction_State.Cancelled || auctionState == Auction_State.Ended */\n      dup1\n      tag_108\n      jumpi\n      pop\n        /* \"contracts/auction.sol\":2188:2207  Auction_State.Ended */\n      0x02\n        /* \"contracts/auction.sol\":2172:2207  auctionState == Auction_State.Ended */\n      0x03\n      dup2\n      gt\n      iszero\n      tag_109\n      jumpi\n      tag_110\n      tag_74\n      jump\t// in\n    tag_110:\n    tag_109:\n        /* \"contracts/auction.sol\":2172:2184  auctionState */\n      0x03\n      0x00\n      swap1\n      sload\n      swap1\n      0x0100\n      exp\n      swap1\n      div\n      0xff\n      and\n        /* \"contracts/auction.sol\":2172:2207  auctionState == Auction_State.Ended */\n      0x03\n      dup2\n      gt\n      iszero\n      tag_111\n      jumpi\n      tag_112\n      tag_74\n      jump\t// in\n    tag_112:\n    tag_111:\n      eq\n        /* \"contracts/auction.sol\":2129:2207  auctionState == Auction_State.Cancelled || auctionState == Auction_State.Ended */\n    tag_108:\n        /* \"contracts/auction.sol\":2129:2231  auctionState == Auction_State.Cancelled || auctionState == Auction_State.Ended || block.number>etblock */\n      dup1\n      tag_113\n      jumpi\n      pop\n        /* \"contracts/auction.sol\":2224:2231  etblock */\n      sload(0x02)\n        /* \"contracts/auction.sol\":2211:2223  block.number */\n      number\n        /* \"contracts/auction.sol\":2211:2231  block.number>etblock */\n      gt\n        /* \"contracts/auction.sol\":2129:2231  auctionState == Auction_State.Cancelled || auctionState == Auction_State.Ended || block.number>etblock */\n    tag_113:\n        /* \"contracts/auction.sol\":2121:2232  require(auctionState == Auction_State.Cancelled || auctionState == Auction_State.Ended || block.number>etblock) */\n      tag_114\n      jumpi\n      0x00\n      dup1\n      revert\n    tag_114:\n        /* \"contracts/auction.sol\":2265:2275  auctioneer */\n      0x00\n      dup1\n      sload\n      swap1\n      0x0100\n      exp\n      swap1\n      div\n      0xffffffffffffffffffffffffffffffffffffffff\n      and\n        /* \"contracts/auction.sol\":2251:2275  msg.sender == auctioneer */\n      0xffffffffffffffffffffffffffffffffffffffff\n      and\n        /* \"contracts/auction.sol\":2251:2261  msg.sender */\n      caller\n        /* \"contracts/auction.sol\":2251:2275  msg.sender == auctioneer */\n      0xffffffffffffffffffffffffffffffffffffffff\n      and\n      eq\n        /* \"contracts/auction.sol\":2251:2297  msg.sender == auctioneer || bids[msg.sender]>0 */\n      dup1\n      tag_115\n      jumpi\n      pop\n        /* \"contracts/auction.sol\":2296:2297  0 */\n      0x00\n        /* \"contracts/auction.sol\":2279:2283  bids */\n      0x08\n        /* \"contracts/auction.sol\":2279:2295  bids[msg.sender] */\n      0x00\n        /* \"contracts/auction.sol\":2284:2294  msg.sender */\n      caller\n        /* \"contracts/auction.sol\":2279:2295  bids[msg.sender] */\n      0xffffffffffffffffffffffffffffffffffffffff\n      and\n      0xffffffffffffffffffffffffffffffffffffffff\n      and\n      dup2\n      mstore\n      0x20\n      add\n      swap1\n      dup2\n      mstore\n      0x20\n      add\n      0x00\n      keccak256\n      sload\n        /* \"contracts/auction.sol\":2279:2297  bids[msg.sender]>0 */\n      gt\n        /* \"contracts/auction.sol\":2251:2297  msg.sender == auctioneer || bids[msg.sender]>0 */\n    tag_115:\n        /* \"contracts/auction.sol\":2243:2298  require(msg.sender == auctioneer || bids[msg.sender]>0) */\n      tag_116\n      jumpi\n      0x00\n      dup1\n      revert\n    tag_116:\n        /* \"contracts/auction.sol\":2311:2333  address payable person */\n      0x00\n        /* \"contracts/auction.sol\":2344:2354  uint value */\n      dup1\n        /* \"contracts/auction.sol\":2386:2409  Auction_State.Cancelled */\n      0x03\n        /* \"contracts/auction.sol\":2370:2409  auctionState == Auction_State.Cancelled */\n      dup1\n      dup2\n      gt\n      iszero\n      tag_117\n      jumpi\n      tag_118\n      tag_74\n      jump\t// in\n    tag_118:\n    tag_117:\n        /* \"contracts/auction.sol\":2370:2382  auctionState */\n      0x03\n      0x00\n      swap1\n      sload\n      swap1\n      0x0100\n      exp\n      swap1\n      div\n      0xff\n      and\n        /* \"contracts/auction.sol\":2370:2409  auctionState == Auction_State.Cancelled */\n      0x03\n      dup2\n      gt\n      iszero\n      tag_119\n      jumpi\n      tag_120\n      tag_74\n      jump\t// in\n    tag_120:\n    tag_119:\n      eq\n        /* \"contracts/auction.sol\":2367:3033  if(auctionState == Auction_State.Cancelled){... */\n      iszero\n      tag_121\n      jumpi\n        /* \"contracts/auction.sol\":2442:2452  msg.sender */\n      caller\n        /* \"contracts/auction.sol\":2425:2453  person = payable(msg.sender) */\n      swap2\n      pop\n        /* \"contracts/auction.sol\":2476:2480  bids */\n      0x08\n        /* \"contracts/auction.sol\":2476:2492  bids[msg.sender] */\n      0x00\n        /* \"contracts/auction.sol\":2481:2491  msg.sender */\n      caller\n        /* \"contracts/auction.sol\":2476:2492  bids[msg.sender] */\n      0xffffffffffffffffffffffffffffffffffffffff\n      and\n      0xffffffffffffffffffffffffffffffffffffffff\n      and\n      dup2\n      mstore\n      0x20\n      add\n      swap1\n      dup2\n      mstore\n      0x20\n      add\n      0x00\n      keccak256\n      sload\n        /* \"contracts/auction.sol\":2468:2492  value = bids[msg.sender] */\n      swap1\n      pop\n        /* \"contracts/auction.sol\":2367:3033  if(auctionState == Auction_State.Cancelled){... */\n      jump(tag_122)\n    tag_121:\n        /* \"contracts/auction.sol\":2550:2560  auctioneer */\n      0x00\n      dup1\n      sload\n      swap1\n      0x0100\n      exp\n      swap1\n      div\n      0xffffffffffffffffffffffffffffffffffffffff\n      and\n        /* \"contracts/auction.sol\":2536:2560  msg.sender == auctioneer */\n      0xffffffffffffffffffffffffffffffffffffffff\n      and\n        /* \"contracts/auction.sol\":2536:2546  msg.sender */\n      caller\n        /* \"contracts/auction.sol\":2536:2560  msg.sender == auctioneer */\n      0xffffffffffffffffffffffffffffffffffffffff\n      and\n      eq\n        /* \"contracts/auction.sol\":2533:3022  if(msg.sender == auctioneer){... */\n      iszero\n      tag_123\n      jumpi\n        /* \"contracts/auction.sol\":2589:2599  auctioneer */\n      0x00\n      dup1\n      sload\n      swap1\n      0x0100\n      exp\n      swap1\n      div\n      0xffffffffffffffffffffffffffffffffffffffff\n      and\n        /* \"contracts/auction.sol\":2580:2599  person = auctioneer */\n      swap2\n      pop\n        /* \"contracts/auction.sol\":2626:2645  highest_payable_bid */\n      sload(0x04)\n        /* \"contracts/auction.sol\":2618:2645  value = highest_payable_bid */\n      swap1\n      pop\n        /* \"contracts/auction.sol\":2533:3022  if(msg.sender == auctioneer){... */\n      jump(tag_124)\n    tag_123:\n        /* \"contracts/auction.sol\":2717:2730  highestBidder */\n      0x07\n      0x00\n      swap1\n      sload\n      swap1\n      0x0100\n      exp\n      swap1\n      div\n      0xffffffffffffffffffffffffffffffffffffffff\n      and\n        /* \"contracts/auction.sol\":2703:2730  msg.sender == highestBidder */\n      0xffffffffffffffffffffffffffffffffffffffff\n      and\n        /* \"contracts/auction.sol\":2703:2713  msg.sender */\n      caller\n        /* \"contracts/auction.sol\":2703:2730  msg.sender == highestBidder */\n      0xffffffffffffffffffffffffffffffffffffffff\n      and\n      eq\n        /* \"contracts/auction.sol\":2700:3007  if(msg.sender == highestBidder){... */\n      iszero\n      tag_125\n      jumpi\n        /* \"contracts/auction.sol\":2764:2777  highestBidder */\n      0x07\n      0x00\n      swap1\n      sload\n      swap1\n      0x0100\n      exp\n      swap1\n      div\n      0xffffffffffffffffffffffffffffffffffffffff\n      and\n        /* \"contracts/auction.sol\":2755:2777  person = highestBidder */\n      swap2\n      pop\n        /* \"contracts/auction.sol\":2828:2847  highest_payable_bid */\n      sload(0x04)\n        /* \"contracts/auction.sol\":2808:2812  bids */\n      0x08\n        /* \"contracts/auction.sol\":2808:2827  bids[highestBidder] */\n      0x00\n        /* \"contracts/auction.sol\":2813:2826  highestBidder */\n      0x07\n      0x00\n      swap1\n      sload\n      swap1\n      0x0100\n      exp\n      swap1\n      div\n      0xffffffffffffffffffffffffffffffffffffffff\n      and\n        /* \"contracts/auction.sol\":2808:2827  bids[highestBidder] */\n      0xffffffffffffffffffffffffffffffffffffffff\n      and\n      0xffffffffffffffffffffffffffffffffffffffff\n      and\n      dup2\n      mstore\n      0x20\n      add\n      swap1\n      dup2\n      mstore\n      0x20\n      add\n      0x00\n      keccak256\n      sload\n        /* \"contracts/auction.sol\":2808:2847  bids[highestBidder]-highest_payable_bid */\n      tag_126\n      swap2\n      swap1\n      tag_127\n      jump\t// in\n    tag_126:\n        /* \"contracts/auction.sol\":2800:2847  value = bids[highestBidder]-highest_payable_bid */\n      swap1\n      pop\n        /* \"contracts/auction.sol\":2700:3007  if(msg.sender == highestBidder){... */\n      jump(tag_128)\n    tag_125:\n        /* \"contracts/auction.sol\":2929:2939  msg.sender */\n      caller\n        /* \"contracts/auction.sol\":2912:2940  person = payable(msg.sender) */\n      swap2\n      pop\n        /* \"contracts/auction.sol\":2971:2975  bids */\n      0x08\n        /* \"contracts/auction.sol\":2971:2987  bids[msg.sender] */\n      0x00\n        /* \"contracts/auction.sol\":2976:2986  msg.sender */\n      caller\n        /* \"contracts/auction.sol\":2971:2987  bids[msg.sender] */\n      0xffffffffffffffffffffffffffffffffffffffff\n      and\n      0xffffffffffffffffffffffffffffffffffffffff\n      and\n      dup2\n      mstore\n      0x20\n      add\n      swap1\n      dup2\n      mstore\n      0x20\n      add\n      0x00\n      keccak256\n      sload\n        /* \"contracts/auction.sol\":2963:2987  value = bids[msg.sender] */\n      swap1\n      pop\n        /* \"contracts/auction.sol\":2700:3007  if(msg.sender == highestBidder){... */\n    tag_128:\n        /* \"contracts/auction.sol\":2533:3022  if(msg.sender == auctioneer){... */\n    tag_124:\n        /* \"contracts/auction.sol\":2367:3033  if(auctionState == Auction_State.Cancelled){... */\n    tag_122:\n        /* \"contracts/auction.sol\":3060:3061  0 */\n      0x00\n        /* \"contracts/auction.sol\":3043:3047  bids */\n      0x08\n        /* \"contracts/auction.sol\":3043:3059  bids[msg.sender] */\n      0x00\n        /* \"contracts/auction.sol\":3048:3058  msg.sender */\n      caller\n        /* \"contracts/auction.sol\":3043:3059  bids[msg.sender] */\n      0xffffffffffffffffffffffffffffffffffffffff\n      and\n      0xffffffffffffffffffffffffffffffffffffffff\n      and\n      dup2\n      mstore\n      0x20\n      add\n      swap1\n      dup2\n      mstore\n      0x20\n      add\n      0x00\n      keccak256\n        /* \"contracts/auction.sol\":3043:3061  bids[msg.sender]=0 */\n      dup2\n      swap1\n      sstore\n      pop\n        /* \"contracts/auction.sol\":3072:3078  person */\n      dup2\n        /* \"contracts/auction.sol\":3072:3087  person.transfer */\n      0xffffffffffffffffffffffffffffffffffffffff\n      and\n        /* \"contracts/auction.sol\":3072:3094  person.transfer(value) */\n      0x08fc\n        /* \"contracts/auction.sol\":3088:3093  value */\n      dup3\n        /* \"contracts/auction.sol\":3072:3094  person.transfer(value) */\n      swap1\n      dup2\n      iszero\n      mul\n      swap1\n      mload(0x40)\n      0x00\n      mload(0x40)\n      dup1\n      dup4\n      sub\n      dup2\n      dup6\n      dup9\n      dup9\n      call\n      swap4\n      pop\n      pop\n      pop\n      pop\n      iszero\n      dup1\n      iszero\n      tag_130\n      jumpi\n      returndatasize\n      0x00\n      dup1\n      returndatacopy\n      revert(0x00, returndatasize)\n    tag_130:\n      pop\n        /* \"contracts/auction.sol\":2110:3102  {... */\n      pop\n      pop\n        /* \"contracts/auction.sol\":2081:3102  function finalizeAuc() public{... */\n      jump\t// out\n        /* \"contracts/auction.sol\":1294:1431  function min(uint a , uint b) pure private returns (uint){... */\n    tag_85:\n        /* \"contracts/auction.sol\":1346:1350  uint */\n      0x00\n        /* \"contracts/auction.sol\":1368:1369  b */\n      dup2\n        /* \"contracts/auction.sol\":1365:1366  a */\n      dup4\n        /* \"contracts/auction.sol\":1365:1369  a<=b */\n      gt\n        /* \"contracts/auction.sol\":1362:1421  if(a<=b)... */\n      tag_132\n      jumpi\n        /* \"contracts/auction.sol\":1387:1388  a */\n      dup3\n        /* \"contracts/auction.sol\":1380:1388  return a */\n      swap1\n      pop\n      jump(tag_131)\n        /* \"contracts/auction.sol\":1362:1421  if(a<=b)... */\n    tag_132:\n        /* \"contracts/auction.sol\":1420:1421  b */\n      dup2\n        /* \"contracts/auction.sol\":1413:1421  return b */\n      swap1\n      pop\n        /* \"contracts/auction.sol\":1294:1431  function min(uint a , uint b) pure private returns (uint){... */\n    tag_131:\n      swap3\n      swap2\n      pop\n      pop\n      jump\t// out\n        /* \"#utility.yul\":7:133   */\n    tag_134:\n        /* \"#utility.yul\":44:51   */\n      0x00\n        /* \"#utility.yul\":84:126   */\n      0xffffffffffffffffffffffffffffffffffffffff\n        /* \"#utility.yul\":77:82   */\n      dup3\n        /* \"#utility.yul\":73:127   */\n      and\n        /* \"#utility.yul\":62:127   */\n      swap1\n      pop\n        /* \"#utility.yul\":7:133   */\n      swap2\n      swap1\n      pop\n      jump\t// out\n        /* \"#utility.yul\":139:243   */\n    tag_135:\n        /* \"#utility.yul\":184:191   */\n      0x00\n        /* \"#utility.yul\":213:237   */\n      tag_157\n        /* \"#utility.yul\":231:236   */\n      dup3\n        /* \"#utility.yul\":213:237   */\n      tag_134\n      jump\t// in\n    tag_157:\n        /* \"#utility.yul\":202:237   */\n      swap1\n      pop\n        /* \"#utility.yul\":139:243   */\n      swap2\n      swap1\n      pop\n      jump\t// out\n        /* \"#utility.yul\":249:391   */\n    tag_136:\n        /* \"#utility.yul\":352:384   */\n      tag_159\n        /* \"#utility.yul\":378:383   */\n      dup2\n        /* \"#utility.yul\":352:384   */\n      tag_135\n      jump\t// in\n    tag_159:\n        /* \"#utility.yul\":347:350   */\n      dup3\n        /* \"#utility.yul\":340:385   */\n      mstore\n        /* \"#utility.yul\":249:391   */\n      pop\n      pop\n      jump\t// out\n        /* \"#utility.yul\":397:651   */\n    tag_27:\n        /* \"#utility.yul\":506:510   */\n      0x00\n        /* \"#utility.yul\":544:546   */\n      0x20\n        /* \"#utility.yul\":533:542   */\n      dup3\n        /* \"#utility.yul\":529:547   */\n      add\n        /* \"#utility.yul\":521:547   */\n      swap1\n      pop\n        /* \"#utility.yul\":557:644   */\n      tag_161\n        /* \"#utility.yul\":641:642   */\n      0x00\n        /* \"#utility.yul\":630:639   */\n      dup4\n        /* \"#utility.yul\":626:643   */\n      add\n        /* \"#utility.yul\":617:623   */\n      dup5\n        /* \"#utility.yul\":557:644   */\n      tag_136\n      jump\t// in\n    tag_161:\n        /* \"#utility.yul\":397:651   */\n      swap3\n      swap2\n      pop\n      pop\n      jump\t// out\n        /* \"#utility.yul\":738:855   */\n    tag_138:\n        /* \"#utility.yul\":847:848   */\n      0x00\n        /* \"#utility.yul\":844:845   */\n      dup1\n        /* \"#utility.yul\":837:849   */\n      revert\n        /* \"#utility.yul\":984:1080   */\n    tag_140:\n        /* \"#utility.yul\":1021:1028   */\n      0x00\n        /* \"#utility.yul\":1050:1074   */\n      tag_166\n        /* \"#utility.yul\":1068:1073   */\n      dup3\n        /* \"#utility.yul\":1050:1074   */\n      tag_134\n      jump\t// in\n    tag_166:\n        /* \"#utility.yul\":1039:1074   */\n      swap1\n      pop\n        /* \"#utility.yul\":984:1080   */\n      swap2\n      swap1\n      pop\n      jump\t// out\n        /* \"#utility.yul\":1086:1208   */\n    tag_141:\n        /* \"#utility.yul\":1159:1183   */\n      tag_168\n        /* \"#utility.yul\":1177:1182   */\n      dup2\n        /* \"#utility.yul\":1159:1183   */\n      tag_140\n      jump\t// in\n    tag_168:\n        /* \"#utility.yul\":1152:1157   */\n      dup2\n        /* \"#utility.yul\":1149:1184   */\n      eq\n        /* \"#utility.yul\":1139:1202   */\n      tag_169\n      jumpi\n        /* \"#utility.yul\":1198:1199   */\n      0x00\n        /* \"#utility.yul\":1195:1196   */\n      dup1\n        /* \"#utility.yul\":1188:1200   */\n      revert\n        /* \"#utility.yul\":1139:1202   */\n    tag_169:\n        /* \"#utility.yul\":1086:1208   */\n      pop\n      jump\t// out\n        /* \"#utility.yul\":1214:1353   */\n    tag_142:\n        /* \"#utility.yul\":1260:1265   */\n      0x00\n        /* \"#utility.yul\":1298:1304   */\n      dup2\n        /* \"#utility.yul\":1285:1305   */\n      calldataload\n        /* \"#utility.yul\":1276:1305   */\n      swap1\n      pop\n        /* \"#utility.yul\":1314:1347   */\n      tag_171\n        /* \"#utility.yul\":1341:1346   */\n      dup2\n        /* \"#utility.yul\":1314:1347   */\n      tag_141\n      jump\t// in\n    tag_171:\n        /* \"#utility.yul\":1214:1353   */\n      swap3\n      swap2\n      pop\n      pop\n      jump\t// out\n        /* \"#utility.yul\":1359:1688   */\n    tag_31:\n        /* \"#utility.yul\":1418:1424   */\n      0x00\n        /* \"#utility.yul\":1467:1469   */\n      0x20\n        /* \"#utility.yul\":1455:1464   */\n      dup3\n        /* \"#utility.yul\":1446:1453   */\n      dup5\n        /* \"#utility.yul\":1442:1465   */\n      sub\n        /* \"#utility.yul\":1438:1470   */\n      slt\n        /* \"#utility.yul\":1435:1554   */\n      iszero\n      tag_173\n      jumpi\n        /* \"#utility.yul\":1473:1552   */\n      tag_174\n      tag_138\n      jump\t// in\n    tag_174:\n        /* \"#utility.yul\":1435:1554   */\n    tag_173:\n        /* \"#utility.yul\":1593:1594   */\n      0x00\n        /* \"#utility.yul\":1618:1671   */\n      tag_175\n        /* \"#utility.yul\":1663:1670   */\n      dup5\n        /* \"#utility.yul\":1654:1660   */\n      dup3\n        /* \"#utility.yul\":1643:1652   */\n      dup6\n        /* \"#utility.yul\":1639:1661   */\n      add\n        /* \"#utility.yul\":1618:1671   */\n      tag_142\n      jump\t// in\n    tag_175:\n        /* \"#utility.yul\":1608:1671   */\n      swap2\n      pop\n        /* \"#utility.yul\":1564:1681   */\n      pop\n        /* \"#utility.yul\":1359:1688   */\n      swap3\n      swap2\n      pop\n      pop\n      jump\t// out\n        /* \"#utility.yul\":1694:1771   */\n    tag_143:\n        /* \"#utility.yul\":1731:1738   */\n      0x00\n        /* \"#utility.yul\":1760:1765   */\n      dup2\n        /* \"#utility.yul\":1749:1765   */\n      swap1\n      pop\n        /* \"#utility.yul\":1694:1771   */\n      swap2\n      swap1\n      pop\n      jump\t// out\n        /* \"#utility.yul\":1777:1895   */\n    tag_144:\n        /* \"#utility.yul\":1864:1888   */\n      tag_178\n        /* \"#utility.yul\":1882:1887   */\n      dup2\n        /* \"#utility.yul\":1864:1888   */\n      tag_143\n      jump\t// in\n    tag_178:\n        /* \"#utility.yul\":1859:1862   */\n      dup3\n        /* \"#utility.yul\":1852:1889   */\n      mstore\n        /* \"#utility.yul\":1777:1895   */\n      pop\n      pop\n      jump\t// out\n        /* \"#utility.yul\":1901:2123   */\n    tag_34:\n        /* \"#utility.yul\":1994:1998   */\n      0x00\n        /* \"#utility.yul\":2032:2034   */\n      0x20\n        /* \"#utility.yul\":2021:2030   */\n      dup3\n        /* \"#utility.yul\":2017:2035   */\n      add\n        /* \"#utility.yul\":2009:2035   */\n      swap1\n      pop\n        /* \"#utility.yul\":2045:2116   */\n      tag_180\n        /* \"#utility.yul\":2113:2114   */\n      0x00\n        /* \"#utility.yul\":2102:2111   */\n      dup4\n        /* \"#utility.yul\":2098:2115   */\n      add\n        /* \"#utility.yul\":2089:2095   */\n      dup5\n        /* \"#utility.yul\":2045:2116   */\n      tag_144\n      jump\t// in\n    tag_180:\n        /* \"#utility.yul\":1901:2123   */\n      swap3\n      swap2\n      pop\n      pop\n      jump\t// out\n        /* \"#utility.yul\":2129:2309   */\n    tag_74:\n        /* \"#utility.yul\":2177:2254   */\n      0x4e487b7100000000000000000000000000000000000000000000000000000000\n        /* \"#utility.yul\":2174:2175   */\n      0x00\n        /* \"#utility.yul\":2167:2255   */\n      mstore\n        /* \"#utility.yul\":2274:2278   */\n      0x21\n        /* \"#utility.yul\":2271:2272   */\n      0x04\n        /* \"#utility.yul\":2264:2279   */\n      mstore\n        /* \"#utility.yul\":2298:2302   */\n      0x24\n        /* \"#utility.yul\":2295:2296   */\n      0x00\n        /* \"#utility.yul\":2288:2303   */\n      revert\n        /* \"#utility.yul\":2315:2436   */\n    tag_145:\n        /* \"#utility.yul\":2404:2405   */\n      0x04\n        /* \"#utility.yul\":2397:2402   */\n      dup2\n        /* \"#utility.yul\":2394:2406   */\n      lt\n        /* \"#utility.yul\":2384:2430   */\n      tag_183\n      jumpi\n        /* \"#utility.yul\":2410:2428   */\n      tag_184\n      tag_74\n      jump\t// in\n    tag_184:\n        /* \"#utility.yul\":2384:2430   */\n    tag_183:\n        /* \"#utility.yul\":2315:2436   */\n      pop\n      jump\t// out\n        /* \"#utility.yul\":2442:2585   */\n    tag_146:\n        /* \"#utility.yul\":2495:2502   */\n      0x00\n        /* \"#utility.yul\":2524:2529   */\n      dup2\n        /* \"#utility.yul\":2513:2529   */\n      swap1\n      pop\n        /* \"#utility.yul\":2530:2579   */\n      tag_186\n        /* \"#utility.yul\":2573:2578   */\n      dup3\n        /* \"#utility.yul\":2530:2579   */\n      tag_145\n      jump\t// in\n    tag_186:\n        /* \"#utility.yul\":2442:2585   */\n      swap2\n      swap1\n      pop\n      jump\t// out\n        /* \"#utility.yul\":2591:2734   */\n    tag_147:\n        /* \"#utility.yul\":2655:2664   */\n      0x00\n        /* \"#utility.yul\":2688:2728   */\n      tag_188\n        /* \"#utility.yul\":2722:2727   */\n      dup3\n        /* \"#utility.yul\":2688:2728   */\n      tag_146\n      jump\t// in\n    tag_188:\n        /* \"#utility.yul\":2675:2728   */\n      swap1\n      pop\n        /* \"#utility.yul\":2591:2734   */\n      swap2\n      swap1\n      pop\n      jump\t// out\n        /* \"#utility.yul\":2740:2899   */\n    tag_148:\n        /* \"#utility.yul\":2841:2892   */\n      tag_190\n        /* \"#utility.yul\":2886:2891   */\n      dup2\n        /* \"#utility.yul\":2841:2892   */\n      tag_147\n      jump\t// in\n    tag_190:\n        /* \"#utility.yul\":2836:2839   */\n      dup3\n        /* \"#utility.yul\":2829:2893   */\n      mstore\n        /* \"#utility.yul\":2740:2899   */\n      pop\n      pop\n      jump\t// out\n        /* \"#utility.yul\":2905:3155   */\n    tag_43:\n        /* \"#utility.yul\":3012:3016   */\n      0x00\n        /* \"#utility.yul\":3050:3052   */\n      0x20\n        /* \"#utility.yul\":3039:3048   */\n      dup3\n        /* \"#utility.yul\":3035:3053   */\n      add\n        /* \"#utility.yul\":3027:3053   */\n      swap1\n      pop\n        /* \"#utility.yul\":3063:3148   */\n      tag_192\n        /* \"#utility.yul\":3145:3146   */\n      0x00\n        /* \"#utility.yul\":3134:3143   */\n      dup4\n        /* \"#utility.yul\":3130:3147   */\n      add\n        /* \"#utility.yul\":3121:3127   */\n      dup5\n        /* \"#utility.yul\":3063:3148   */\n      tag_148\n      jump\t// in\n    tag_192:\n        /* \"#utility.yul\":2905:3155   */\n      swap3\n      swap2\n      pop\n      pop\n      jump\t// out\n        /* \"#utility.yul\":3161:3330   */\n    tag_149:\n        /* \"#utility.yul\":3245:3256   */\n      0x00\n        /* \"#utility.yul\":3279:3285   */\n      dup3\n        /* \"#utility.yul\":3274:3277   */\n      dup3\n        /* \"#utility.yul\":3267:3286   */\n      mstore\n        /* \"#utility.yul\":3319:3323   */\n      0x20\n        /* \"#utility.yul\":3314:3317   */\n      dup3\n        /* \"#utility.yul\":3310:3324   */\n      add\n        /* \"#utility.yul\":3295:3324   */\n      swap1\n      pop\n        /* \"#utility.yul\":3161:3330   */\n      swap3\n      swap2\n      pop\n      pop\n      jump\t// out\n        /* \"#utility.yul\":3336:3502   */\n    tag_150:\n        /* \"#utility.yul\":3476:3494   */\n      0x4f776e65722063616e6e6f742062696400000000000000000000000000000000\n        /* \"#utility.yul\":3472:3473   */\n      0x00\n        /* \"#utility.yul\":3464:3470   */\n      dup3\n        /* \"#utility.yul\":3460:3474   */\n      add\n        /* \"#utility.yul\":3453:3495   */\n      mstore\n        /* \"#utility.yul\":3336:3502   */\n      pop\n      jump\t// out\n        /* \"#utility.yul\":3508:3874   */\n    tag_151:\n        /* \"#utility.yul\":3650:3653   */\n      0x00\n        /* \"#utility.yul\":3671:3738   */\n      tag_196\n        /* \"#utility.yul\":3735:3737   */\n      0x10\n        /* \"#utility.yul\":3730:3733   */\n      dup4\n        /* \"#utility.yul\":3671:3738   */\n      tag_149\n      jump\t// in\n    tag_196:\n        /* \"#utility.yul\":3664:3738   */\n      swap2\n      pop\n        /* \"#utility.yul\":3747:3840   */\n      tag_197\n        /* \"#utility.yul\":3836:3839   */\n      dup3\n        /* \"#utility.yul\":3747:3840   */\n      tag_150\n      jump\t// in\n    tag_197:\n        /* \"#utility.yul\":3865:3867   */\n      0x20\n        /* \"#utility.yul\":3860:3863   */\n      dup3\n        /* \"#utility.yul\":3856:3868   */\n      add\n        /* \"#utility.yul\":3849:3868   */\n      swap1\n      pop\n        /* \"#utility.yul\":3508:3874   */\n      swap2\n      swap1\n      pop\n      jump\t// out\n        /* \"#utility.yul\":3880:4299   */\n    tag_66:\n        /* \"#utility.yul\":4046:4050   */\n      0x00\n        /* \"#utility.yul\":4084:4086   */\n      0x20\n        /* \"#utility.yul\":4073:4082   */\n      dup3\n        /* \"#utility.yul\":4069:4087   */\n      add\n        /* \"#utility.yul\":4061:4087   */\n      swap1\n      pop\n        /* \"#utility.yul\":4133:4142   */\n      dup2\n        /* \"#utility.yul\":4127:4131   */\n      dup2\n        /* \"#utility.yul\":4123:4143   */\n      sub\n        /* \"#utility.yul\":4119:4120   */\n      0x00\n        /* \"#utility.yul\":4108:4117   */\n      dup4\n        /* \"#utility.yul\":4104:4121   */\n      add\n        /* \"#utility.yul\":4097:4144   */\n      mstore\n        /* \"#utility.yul\":4161:4292   */\n      tag_199\n        /* \"#utility.yul\":4287:4291   */\n      dup2\n        /* \"#utility.yul\":4161:4292   */\n      tag_151\n      jump\t// in\n    tag_199:\n        /* \"#utility.yul\":4153:4292   */\n      swap1\n      pop\n        /* \"#utility.yul\":3880:4299   */\n      swap2\n      swap1\n      pop\n      jump\t// out\n        /* \"#utility.yul\":4305:4485   */\n    tag_152:\n        /* \"#utility.yul\":4353:4430   */\n      0x4e487b7100000000000000000000000000000000000000000000000000000000\n        /* \"#utility.yul\":4350:4351   */\n      0x00\n        /* \"#utility.yul\":4343:4431   */\n      mstore\n        /* \"#utility.yul\":4450:4454   */\n      0x11\n        /* \"#utility.yul\":4447:4448   */\n      0x04\n        /* \"#utility.yul\":4440:4455   */\n      mstore\n        /* \"#utility.yul\":4474:4478   */\n      0x24\n        /* \"#utility.yul\":4471:4472   */\n      0x00\n        /* \"#utility.yul\":4464:4479   */\n      revert\n        /* \"#utility.yul\":4491:4796   */\n    tag_80:\n        /* \"#utility.yul\":4531:4534   */\n      0x00\n        /* \"#utility.yul\":4550:4570   */\n      tag_202\n        /* \"#utility.yul\":4568:4569   */\n      dup3\n        /* \"#utility.yul\":4550:4570   */\n      tag_143\n      jump\t// in\n    tag_202:\n        /* \"#utility.yul\":4545:4570   */\n      swap2\n      pop\n        /* \"#utility.yul\":4584:4604   */\n      tag_203\n        /* \"#utility.yul\":4602:4603   */\n      dup4\n        /* \"#utility.yul\":4584:4604   */\n      tag_143\n      jump\t// in\n    tag_203:\n        /* \"#utility.yul\":4579:4604   */\n      swap3\n      pop\n        /* \"#utility.yul\":4738:4739   */\n      dup3\n        /* \"#utility.yul\":4670:4736   */\n      0xffffffffffffffffffffffffffffffffffffffffffffffffffffffffffffffff\n        /* \"#utility.yul\":4666:4740   */\n      sub\n        /* \"#utility.yul\":4663:4664   */\n      dup3\n        /* \"#utility.yul\":4660:4741   */\n      gt\n        /* \"#utility.yul\":4657:4764   */\n      iszero\n      tag_204\n      jumpi\n        /* \"#utility.yul\":4744:4762   */\n      tag_205\n      tag_152\n      jump\t// in\n    tag_205:\n        /* \"#utility.yul\":4657:4764   */\n    tag_204:\n        /* \"#utility.yul\":4788:4789   */\n      dup3\n        /* \"#utility.yul\":4785:4786   */\n      dup3\n        /* \"#utility.yul\":4781:4790   */\n      add\n        /* \"#utility.yul\":4774:4790   */\n      swap1\n      pop\n        /* \"#utility.yul\":4491:4796   */\n      swap3\n      swap2\n      pop\n      pop\n      jump\t// out\n        /* \"#utility.yul\":4802:4878   */\n    tag_153:\n        /* \"#utility.yul\":4838:4845   */\n      0x00\n        /* \"#utility.yul\":4867:4872   */\n      dup2\n        /* \"#utility.yul\":4856:4872   */\n      swap1\n      pop\n        /* \"#utility.yul\":4802:4878   */\n      swap2\n      swap1\n      pop\n      jump\t// out\n        /* \"#utility.yul\":4884:5115   */\n    tag_90:\n        /* \"#utility.yul\":4922:4925   */\n      0x00\n        /* \"#utility.yul\":4945:4968   */\n      tag_208\n        /* \"#utility.yul\":4962:4967   */\n      dup3\n        /* \"#utility.yul\":4945:4968   */\n      tag_153\n      jump\t// in\n    tag_208:\n        /* \"#utility.yul\":4936:4968   */\n      swap2\n      pop\n        /* \"#utility.yul\":4990:5056   */\n      0x7fffffffffffffffffffffffffffffffffffffffffffffffffffffffffffffff\n        /* \"#utility.yul\":4983:4988   */\n      dup3\n        /* \"#utility.yul\":4980:5057   */\n      eq\n        /* \"#utility.yul\":4977:5080   */\n      iszero\n      tag_209\n      jumpi\n        /* \"#utility.yul\":5060:5078   */\n      tag_210\n      tag_152\n      jump\t// in\n    tag_210:\n        /* \"#utility.yul\":4977:5080   */\n    tag_209:\n        /* \"#utility.yul\":5107:5108   */\n      0x01\n        /* \"#utility.yul\":5100:5105   */\n      dup3\n        /* \"#utility.yul\":5096:5109   */\n      add\n        /* \"#utility.yul\":5089:5109   */\n      swap1\n      pop\n        /* \"#utility.yul\":4884:5115   */\n      swap2\n      swap1\n      pop\n      jump\t// out\n        /* \"#utility.yul\":5121:5312   */\n    tag_127:\n        /* \"#utility.yul\":5161:5165   */\n      0x00\n        /* \"#utility.yul\":5181:5201   */\n      tag_212\n        /* \"#utility.yul\":5199:5200   */\n      dup3\n        /* \"#utility.yul\":5181:5201   */\n      tag_143\n      jump\t// in\n    tag_212:\n        /* \"#utility.yul\":5176:5201   */\n      swap2\n      pop\n        /* \"#utility.yul\":5215:5235   */\n      tag_213\n        /* \"#utility.yul\":5233:5234   */\n      dup4\n        /* \"#utility.yul\":5215:5235   */\n      tag_143\n      jump\t// in\n    tag_213:\n        /* \"#utility.yul\":5210:5235   */\n      swap3\n      pop\n        /* \"#utility.yul\":5254:5255   */\n      dup3\n        /* \"#utility.yul\":5251:5252   */\n      dup3\n        /* \"#utility.yul\":5248:5256   */\n      lt\n        /* \"#utility.yul\":5245:5279   */\n      iszero\n      tag_214\n      jumpi\n        /* \"#utility.yul\":5259:5277   */\n      tag_215\n      tag_152\n      jump\t// in\n    tag_215:\n        /* \"#utility.yul\":5245:5279   */\n    tag_214:\n        /* \"#utility.yul\":5304:5305   */\n      dup3\n        /* \"#utility.yul\":5301:5302   */\n      dup3\n        /* \"#utility.yul\":5297:5306   */\n      sub\n        /* \"#utility.yul\":5289:5306   */\n      swap1\n      pop\n        /* \"#utility.yul\":5121:5312   */\n      swap3\n      swap2\n      pop\n      pop\n      jump\t// out\n\n    auxdata: 0xa2646970667358221220315ecd901f0ada652b5203b45ee9c523226ae9c3f1b5f3c4737d92f43a6f68b464736f6c634300080b0033\n}\n",
				"bytecode": {
					"linkReferences": {},
					"object": "6080604052600060065534801561001557600080fd5b50336000806101000a81548173ffffffffffffffffffffffffffffffffffffffff021916908373ffffffffffffffffffffffffffffffffffffffff1602179055506001600360006101000a81548160ff0219169083600381111561007c5761007b6100b1565b5b02179055504360018190555060f06001546100979190610119565b600281905550670de0b6b3a764000060058190555061016f565b7f4e487b7100000000000000000000000000000000000000000000000000000000600052602160045260246000fd5b6000819050919050565b7f4e487b7100000000000000000000000000000000000000000000000000000000600052601160045260246000fd5b6000610124826100e0565b915061012f836100e0565b9250827fffffffffffffffffffffffffffffffffffffffffffffffffffffffffffffffff03821115610164576101636100ea565b5b828201905092915050565b610f388061017e6000396000f3fe6080604052600436106100a75760003560e01c80637fb45099116100645780637fb450991461017757806391f90157146101a25780639d957d45146101cd578063a118be02146101f8578063ce5bd04114610223578063e07600bd1461024e576100a7565b80631998aeef146100ac5780632352f320146100b65780633fdceefd146100cd5780635ec2c7bf146100e457806362ea82db1461010f5780637eb695a11461014c575b600080fd5b6100b4610265565b005b3480156100c257600080fd5b506100cb6105cd565b005b3480156100d957600080fd5b506100e2610687565b005b3480156100f057600080fd5b506100f9610742565b6040516101069190610c28565b60405180910390f35b34801561011b57600080fd5b5061013660048036038101906101319190610c86565b610766565b6040516101439190610ccc565b60405180910390f35b34801561015857600080fd5b5061016161077e565b60405161016e9190610ccc565b60405180910390f35b34801561018357600080fd5b5061018c610784565b6040516101999190610d5e565b60405180910390f35b3480156101ae57600080fd5b506101b7610797565b6040516101c49190610c28565b60405180910390f35b3480156101d957600080fd5b506101e26107bd565b6040516101ef9190610ccc565b60405180910390f35b34801561020457600080fd5b5061020d6107c3565b60405161021a9190610ccc565b60405180910390f35b34801561022f57600080fd5b506102386107c9565b6040516102459190610ccc565b60405180910390f35b34801561025a57600080fd5b506102636107cf565b005b60008054906101000a900473ffffffffffffffffffffffffffffffffffffffff1673ffffffffffffffffffffffffffffffffffffffff163373ffffffffffffffffffffffffffffffffffffffff1614156102f4576040517f08c379a00000000000000000000000000000000000000000000000000000000081526004016102eb90610dd6565b60405180910390fd5b600154431161030257600080fd5b600254431061031057600080fd5b6001600381111561032457610323610ce7565b5b600360009054906101000a900460ff16600381111561034657610345610ce7565b5b1461035057600080fd5b670de0b6b3a764000034101561036557600080fd5b600034600860003373ffffffffffffffffffffffffffffffffffffffff1673ffffffffffffffffffffffffffffffffffffffff168152602001908152602001600020546103b29190610e25565b905060045481116103c257600080fd5b80600860003373ffffffffffffffffffffffffffffffffffffffff1673ffffffffffffffffffffffffffffffffffffffff1681526020019081526020016000208190555060086000600760009054906101000a900473ffffffffffffffffffffffffffffffffffffffff1673ffffffffffffffffffffffffffffffffffffffff1673ffffffffffffffffffffffffffffffffffffffff168152602001908152602001600020548110156104f2576104e7600554826104809190610e25565b60086000600760009054906101000a900473ffffffffffffffffffffffffffffffffffffffff1673ffffffffffffffffffffffffffffffffffffffff1673ffffffffffffffffffffffffffffffffffffffff16815260200190815260200160002054610bcc565b6004819055506105b2565b61056a8160055460086000600760009054906101000a900473ffffffffffffffffffffffffffffffffffffffff1673ffffffffffffffffffffffffffffffffffffffff1673ffffffffffffffffffffffffffffffffffffffff168152602001908152602001600020546105659190610e25565b610bcc565b60048190555033600760006101000a81548173ffffffffffffffffffffffffffffffffffffffff021916908373ffffffffffffffffffffffffffffffffffffffff1602179055505b600660008154809291906105c590610e85565b919050555050565b60008054906101000a900473ffffffffffffffffffffffffffffffffffffffff1673ffffffffffffffffffffffffffffffffffffffff163373ffffffffffffffffffffffffffffffffffffffff161461065b576040517f08c379a000000000000000000000000000000000000000000000000000000000815260040161065290610dd6565b60405180910390fd5b60038060006101000a81548160ff021916908360038111156106805761067f610ce7565b5b0217905550565b60008054906101000a900473ffffffffffffffffffffffffffffffffffffffff1673ffffffffffffffffffffffffffffffffffffffff163373ffffffffffffffffffffffffffffffffffffffff1614610715576040517f08c379a000000000000000000000000000000000000000000000000000000000815260040161070c90610dd6565b60405180910390fd5b6002600360006101000a81548160ff0219169083600381111561073b5761073a610ce7565b5b0217905550565b60008054906101000a900473ffffffffffffffffffffffffffffffffffffffff1681565b60086020528060005260406000206000915090505481565b60045481565b600360009054906101000a900460ff1681565b600760009054906101000a900473ffffffffffffffffffffffffffffffffffffffff1681565b60025481565b60015481565b60055481565b6003808111156107e2576107e1610ce7565b5b600360009054906101000a900460ff16600381111561080457610803610ce7565b5b148061084357506002600381111561081f5761081e610ce7565b5b600360009054906101000a900460ff16600381111561084157610840610ce7565b5b145b8061084f575060025443115b61085857600080fd5b60008054906101000a900473ffffffffffffffffffffffffffffffffffffffff1673ffffffffffffffffffffffffffffffffffffffff163373ffffffffffffffffffffffffffffffffffffffff1614806108f157506000600860003373ffffffffffffffffffffffffffffffffffffffff1673ffffffffffffffffffffffffffffffffffffffff16815260200190815260200160002054115b6108fa57600080fd5b6000806003808111156109105761090f610ce7565b5b600360009054906101000a900460ff16600381111561093257610931610ce7565b5b141561098257339150600860003373ffffffffffffffffffffffffffffffffffffffff1673ffffffffffffffffffffffffffffffffffffffff168152602001908152602001600020549050610b3c565b60008054906101000a900473ffffffffffffffffffffffffffffffffffffffff1673ffffffffffffffffffffffffffffffffffffffff163373ffffffffffffffffffffffffffffffffffffffff161415610a035760008054906101000a900473ffffffffffffffffffffffffffffffffffffffff1691506004549050610b3b565b600760009054906101000a900473ffffffffffffffffffffffffffffffffffffffff1673ffffffffffffffffffffffffffffffffffffffff163373ffffffffffffffffffffffffffffffffffffffff161415610af457600760009054906101000a900473ffffffffffffffffffffffffffffffffffffffff16915060045460086000600760009054906101000a900473ffffffffffffffffffffffffffffffffffffffff1673ffffffffffffffffffffffffffffffffffffffff1673ffffffffffffffffffffffffffffffffffffffff16815260200190815260200160002054610aed9190610ece565b9050610b3a565b339150600860003373ffffffffffffffffffffffffffffffffffffffff1673ffffffffffffffffffffffffffffffffffffffff1681526020019081526020016000205490505b5b5b6000600860003373ffffffffffffffffffffffffffffffffffffffff1673ffffffffffffffffffffffffffffffffffffffff168152602001908152602001600020819055508173ffffffffffffffffffffffffffffffffffffffff166108fc829081150290604051600060405180830381858888f19350505050158015610bc7573d6000803e3d6000fd5b505050565b6000818311610bdd57829050610be1565b8190505b92915050565b600073ffffffffffffffffffffffffffffffffffffffff82169050919050565b6000610c1282610be7565b9050919050565b610c2281610c07565b82525050565b6000602082019050610c3d6000830184610c19565b92915050565b600080fd5b6000610c5382610be7565b9050919050565b610c6381610c48565b8114610c6e57600080fd5b50565b600081359050610c8081610c5a565b92915050565b600060208284031215610c9c57610c9b610c43565b5b6000610caa84828501610c71565b91505092915050565b6000819050919050565b610cc681610cb3565b82525050565b6000602082019050610ce16000830184610cbd565b92915050565b7f4e487b7100000000000000000000000000000000000000000000000000000000600052602160045260246000fd5b60048110610d2757610d26610ce7565b5b50565b6000819050610d3882610d16565b919050565b6000610d4882610d2a565b9050919050565b610d5881610d3d565b82525050565b6000602082019050610d736000830184610d4f565b92915050565b600082825260208201905092915050565b7f4f776e65722063616e6e6f742062696400000000000000000000000000000000600082015250565b6000610dc0601083610d79565b9150610dcb82610d8a565b602082019050919050565b60006020820190508181036000830152610def81610db3565b9050919050565b7f4e487b7100000000000000000000000000000000000000000000000000000000600052601160045260246000fd5b6000610e3082610cb3565b9150610e3b83610cb3565b9250827fffffffffffffffffffffffffffffffffffffffffffffffffffffffffffffffff03821115610e7057610e6f610df6565b5b828201905092915050565b6000819050919050565b6000610e9082610e7b565b91507f7fffffffffffffffffffffffffffffffffffffffffffffffffffffffffffffff821415610ec357610ec2610df6565b5b600182019050919050565b6000610ed982610cb3565b9150610ee483610cb3565b925082821015610ef757610ef6610df6565b5b82820390509291505056fea2646970667358221220315ecd901f0ada652b5203b45ee9c523226ae9c3f1b5f3c4737d92f43a6f68b464736f6c634300080b0033",
					"opcodes": "PUSH1 0x80 PUSH1 0x40 MSTORE PUSH1 0x0 PUSH1 0x6 SSTORE CALLVALUE DUP1 ISZERO PUSH2 0x15 JUMPI PUSH1 0x0 DUP1 REVERT JUMPDEST POP CALLER PUSH1 0x0 DUP1 PUSH2 0x100 EXP DUP2 SLOAD DUP2 PUSH20 0xFFFFFFFFFFFFFFFFFFFFFFFFFFFFFFFFFFFFFFFF MUL NOT AND SWAP1 DUP4 PUSH20 0xFFFFFFFFFFFFFFFFFFFFFFFFFFFFFFFFFFFFFFFF AND MUL OR SWAP1 SSTORE POP PUSH1 0x1 PUSH1 0x3 PUSH1 0x0 PUSH2 0x100 EXP DUP2 SLOAD DUP2 PUSH1 0xFF MUL NOT AND SWAP1 DUP4 PUSH1 0x3 DUP2 GT ISZERO PUSH2 0x7C JUMPI PUSH2 0x7B PUSH2 0xB1 JUMP JUMPDEST JUMPDEST MUL OR SWAP1 SSTORE POP NUMBER PUSH1 0x1 DUP2 SWAP1 SSTORE POP PUSH1 0xF0 PUSH1 0x1 SLOAD PUSH2 0x97 SWAP2 SWAP1 PUSH2 0x119 JUMP JUMPDEST PUSH1 0x2 DUP2 SWAP1 SSTORE POP PUSH8 0xDE0B6B3A7640000 PUSH1 0x5 DUP2 SWAP1 SSTORE POP PUSH2 0x16F JUMP JUMPDEST PUSH32 0x4E487B7100000000000000000000000000000000000000000000000000000000 PUSH1 0x0 MSTORE PUSH1 0x21 PUSH1 0x4 MSTORE PUSH1 0x24 PUSH1 0x0 REVERT JUMPDEST PUSH1 0x0 DUP2 SWAP1 POP SWAP2 SWAP1 POP JUMP JUMPDEST PUSH32 0x4E487B7100000000000000000000000000000000000000000000000000000000 PUSH1 0x0 MSTORE PUSH1 0x11 PUSH1 0x4 MSTORE PUSH1 0x24 PUSH1 0x0 REVERT JUMPDEST PUSH1 0x0 PUSH2 0x124 DUP3 PUSH2 0xE0 JUMP JUMPDEST SWAP2 POP PUSH2 0x12F DUP4 PUSH2 0xE0 JUMP JUMPDEST SWAP3 POP DUP3 PUSH32 0xFFFFFFFFFFFFFFFFFFFFFFFFFFFFFFFFFFFFFFFFFFFFFFFFFFFFFFFFFFFFFFFF SUB DUP3 GT ISZERO PUSH2 0x164 JUMPI PUSH2 0x163 PUSH2 0xEA JUMP JUMPDEST JUMPDEST DUP3 DUP3 ADD SWAP1 POP SWAP3 SWAP2 POP POP JUMP JUMPDEST PUSH2 0xF38 DUP1 PUSH2 0x17E PUSH1 0x0 CODECOPY PUSH1 0x0 RETURN INVALID PUSH1 0x80 PUSH1 0x40 MSTORE PUSH1 0x4 CALLDATASIZE LT PUSH2 0xA7 JUMPI PUSH1 0x0 CALLDATALOAD PUSH1 0xE0 SHR DUP1 PUSH4 0x7FB45099 GT PUSH2 0x64 JUMPI DUP1 PUSH4 0x7FB45099 EQ PUSH2 0x177 JUMPI DUP1 PUSH4 0x91F90157 EQ PUSH2 0x1A2 JUMPI DUP1 PUSH4 0x9D957D45 EQ PUSH2 0x1CD JUMPI DUP1 PUSH4 0xA118BE02 EQ PUSH2 0x1F8 JUMPI DUP1 PUSH4 0xCE5BD041 EQ PUSH2 0x223 JUMPI DUP1 PUSH4 0xE07600BD EQ PUSH2 0x24E JUMPI PUSH2 0xA7 JUMP JUMPDEST DUP1 PUSH4 0x1998AEEF EQ PUSH2 0xAC JUMPI DUP1 PUSH4 0x2352F320 EQ PUSH2 0xB6 JUMPI DUP1 PUSH4 0x3FDCEEFD EQ PUSH2 0xCD JUMPI DUP1 PUSH4 0x5EC2C7BF EQ PUSH2 0xE4 JUMPI DUP1 PUSH4 0x62EA82DB EQ PUSH2 0x10F JUMPI DUP1 PUSH4 0x7EB695A1 EQ PUSH2 0x14C JUMPI JUMPDEST PUSH1 0x0 DUP1 REVERT JUMPDEST PUSH2 0xB4 PUSH2 0x265 JUMP JUMPDEST STOP JUMPDEST CALLVALUE DUP1 ISZERO PUSH2 0xC2 JUMPI PUSH1 0x0 DUP1 REVERT JUMPDEST POP PUSH2 0xCB PUSH2 0x5CD JUMP JUMPDEST STOP JUMPDEST CALLVALUE DUP1 ISZERO PUSH2 0xD9 JUMPI PUSH1 0x0 DUP1 REVERT JUMPDEST POP PUSH2 0xE2 PUSH2 0x687 JUMP JUMPDEST STOP JUMPDEST CALLVALUE DUP1 ISZERO PUSH2 0xF0 JUMPI PUSH1 0x0 DUP1 REVERT JUMPDEST POP PUSH2 0xF9 PUSH2 0x742 JUMP JUMPDEST PUSH1 0x40 MLOAD PUSH2 0x106 SWAP2 SWAP1 PUSH2 0xC28 JUMP JUMPDEST PUSH1 0x40 MLOAD DUP1 SWAP2 SUB SWAP1 RETURN JUMPDEST CALLVALUE DUP1 ISZERO PUSH2 0x11B JUMPI PUSH1 0x0 DUP1 REVERT JUMPDEST POP PUSH2 0x136 PUSH1 0x4 DUP1 CALLDATASIZE SUB DUP2 ADD SWAP1 PUSH2 0x131 SWAP2 SWAP1 PUSH2 0xC86 JUMP JUMPDEST PUSH2 0x766 JUMP JUMPDEST PUSH1 0x40 MLOAD PUSH2 0x143 SWAP2 SWAP1 PUSH2 0xCCC JUMP JUMPDEST PUSH1 0x40 MLOAD DUP1 SWAP2 SUB SWAP1 RETURN JUMPDEST CALLVALUE DUP1 ISZERO PUSH2 0x158 JUMPI PUSH1 0x0 DUP1 REVERT JUMPDEST POP PUSH2 0x161 PUSH2 0x77E JUMP JUMPDEST PUSH1 0x40 MLOAD PUSH2 0x16E SWAP2 SWAP1 PUSH2 0xCCC JUMP JUMPDEST PUSH1 0x40 MLOAD DUP1 SWAP2 SUB SWAP1 RETURN JUMPDEST CALLVALUE DUP1 ISZERO PUSH2 0x183 JUMPI PUSH1 0x0 DUP1 REVERT JUMPDEST POP PUSH2 0x18C PUSH2 0x784 JUMP JUMPDEST PUSH1 0x40 MLOAD PUSH2 0x199 SWAP2 SWAP1 PUSH2 0xD5E JUMP JUMPDEST PUSH1 0x40 MLOAD DUP1 SWAP2 SUB SWAP1 RETURN JUMPDEST CALLVALUE DUP1 ISZERO PUSH2 0x1AE JUMPI PUSH1 0x0 DUP1 REVERT JUMPDEST POP PUSH2 0x1B7 PUSH2 0x797 JUMP JUMPDEST PUSH1 0x40 MLOAD PUSH2 0x1C4 SWAP2 SWAP1 PUSH2 0xC28 JUMP JUMPDEST PUSH1 0x40 MLOAD DUP1 SWAP2 SUB SWAP1 RETURN JUMPDEST CALLVALUE DUP1 ISZERO PUSH2 0x1D9 JUMPI PUSH1 0x0 DUP1 REVERT JUMPDEST POP PUSH2 0x1E2 PUSH2 0x7BD JUMP JUMPDEST PUSH1 0x40 MLOAD PUSH2 0x1EF SWAP2 SWAP1 PUSH2 0xCCC JUMP JUMPDEST PUSH1 0x40 MLOAD DUP1 SWAP2 SUB SWAP1 RETURN JUMPDEST CALLVALUE DUP1 ISZERO PUSH2 0x204 JUMPI PUSH1 0x0 DUP1 REVERT JUMPDEST POP PUSH2 0x20D PUSH2 0x7C3 JUMP JUMPDEST PUSH1 0x40 MLOAD PUSH2 0x21A SWAP2 SWAP1 PUSH2 0xCCC JUMP JUMPDEST PUSH1 0x40 MLOAD DUP1 SWAP2 SUB SWAP1 RETURN JUMPDEST CALLVALUE DUP1 ISZERO PUSH2 0x22F JUMPI PUSH1 0x0 DUP1 REVERT JUMPDEST POP PUSH2 0x238 PUSH2 0x7C9 JUMP JUMPDEST PUSH1 0x40 MLOAD PUSH2 0x245 SWAP2 SWAP1 PUSH2 0xCCC JUMP JUMPDEST PUSH1 0x40 MLOAD DUP1 SWAP2 SUB SWAP1 RETURN JUMPDEST CALLVALUE DUP1 ISZERO PUSH2 0x25A JUMPI PUSH1 0x0 DUP1 REVERT JUMPDEST POP PUSH2 0x263 PUSH2 0x7CF JUMP JUMPDEST STOP JUMPDEST PUSH1 0x0 DUP1 SLOAD SWAP1 PUSH2 0x100 EXP SWAP1 DIV PUSH20 0xFFFFFFFFFFFFFFFFFFFFFFFFFFFFFFFFFFFFFFFF AND PUSH20 0xFFFFFFFFFFFFFFFFFFFFFFFFFFFFFFFFFFFFFFFF AND CALLER PUSH20 0xFFFFFFFFFFFFFFFFFFFFFFFFFFFFFFFFFFFFFFFF AND EQ ISZERO PUSH2 0x2F4 JUMPI PUSH1 0x40 MLOAD PUSH32 0x8C379A000000000000000000000000000000000000000000000000000000000 DUP2 MSTORE PUSH1 0x4 ADD PUSH2 0x2EB SWAP1 PUSH2 0xDD6 JUMP JUMPDEST PUSH1 0x40 MLOAD DUP1 SWAP2 SUB SWAP1 REVERT JUMPDEST PUSH1 0x1 SLOAD NUMBER GT PUSH2 0x302 JUMPI PUSH1 0x0 DUP1 REVERT JUMPDEST PUSH1 0x2 SLOAD NUMBER LT PUSH2 0x310 JUMPI PUSH1 0x0 DUP1 REVERT JUMPDEST PUSH1 0x1 PUSH1 0x3 DUP2 GT ISZERO PUSH2 0x324 JUMPI PUSH2 0x323 PUSH2 0xCE7 JUMP JUMPDEST JUMPDEST PUSH1 0x3 PUSH1 0x0 SWAP1 SLOAD SWAP1 PUSH2 0x100 EXP SWAP1 DIV PUSH1 0xFF AND PUSH1 0x3 DUP2 GT ISZERO PUSH2 0x346 JUMPI PUSH2 0x345 PUSH2 0xCE7 JUMP JUMPDEST JUMPDEST EQ PUSH2 0x350 JUMPI PUSH1 0x0 DUP1 REVERT JUMPDEST PUSH8 0xDE0B6B3A7640000 CALLVALUE LT ISZERO PUSH2 0x365 JUMPI PUSH1 0x0 DUP1 REVERT JUMPDEST PUSH1 0x0 CALLVALUE PUSH1 0x8 PUSH1 0x0 CALLER PUSH20 0xFFFFFFFFFFFFFFFFFFFFFFFFFFFFFFFFFFFFFFFF AND PUSH20 0xFFFFFFFFFFFFFFFFFFFFFFFFFFFFFFFFFFFFFFFF AND DUP2 MSTORE PUSH1 0x20 ADD SWAP1 DUP2 MSTORE PUSH1 0x20 ADD PUSH1 0x0 KECCAK256 SLOAD PUSH2 0x3B2 SWAP2 SWAP1 PUSH2 0xE25 JUMP JUMPDEST SWAP1 POP PUSH1 0x4 SLOAD DUP2 GT PUSH2 0x3C2 JUMPI PUSH1 0x0 DUP1 REVERT JUMPDEST DUP1 PUSH1 0x8 PUSH1 0x0 CALLER PUSH20 0xFFFFFFFFFFFFFFFFFFFFFFFFFFFFFFFFFFFFFFFF AND PUSH20 0xFFFFFFFFFFFFFFFFFFFFFFFFFFFFFFFFFFFFFFFF AND DUP2 MSTORE PUSH1 0x20 ADD SWAP1 DUP2 MSTORE PUSH1 0x20 ADD PUSH1 0x0 KECCAK256 DUP2 SWAP1 SSTORE POP PUSH1 0x8 PUSH1 0x0 PUSH1 0x7 PUSH1 0x0 SWAP1 SLOAD SWAP1 PUSH2 0x100 EXP SWAP1 DIV PUSH20 0xFFFFFFFFFFFFFFFFFFFFFFFFFFFFFFFFFFFFFFFF AND PUSH20 0xFFFFFFFFFFFFFFFFFFFFFFFFFFFFFFFFFFFFFFFF AND PUSH20 0xFFFFFFFFFFFFFFFFFFFFFFFFFFFFFFFFFFFFFFFF AND DUP2 MSTORE PUSH1 0x20 ADD SWAP1 DUP2 MSTORE PUSH1 0x20 ADD PUSH1 0x0 KECCAK256 SLOAD DUP2 LT ISZERO PUSH2 0x4F2 JUMPI PUSH2 0x4E7 PUSH1 0x5 SLOAD DUP3 PUSH2 0x480 SWAP2 SWAP1 PUSH2 0xE25 JUMP JUMPDEST PUSH1 0x8 PUSH1 0x0 PUSH1 0x7 PUSH1 0x0 SWAP1 SLOAD SWAP1 PUSH2 0x100 EXP SWAP1 DIV PUSH20 0xFFFFFFFFFFFFFFFFFFFFFFFFFFFFFFFFFFFFFFFF AND PUSH20 0xFFFFFFFFFFFFFFFFFFFFFFFFFFFFFFFFFFFFFFFF AND PUSH20 0xFFFFFFFFFFFFFFFFFFFFFFFFFFFFFFFFFFFFFFFF AND DUP2 MSTORE PUSH1 0x20 ADD SWAP1 DUP2 MSTORE PUSH1 0x20 ADD PUSH1 0x0 KECCAK256 SLOAD PUSH2 0xBCC JUMP JUMPDEST PUSH1 0x4 DUP2 SWAP1 SSTORE POP PUSH2 0x5B2 JUMP JUMPDEST PUSH2 0x56A DUP2 PUSH1 0x5 SLOAD PUSH1 0x8 PUSH1 0x0 PUSH1 0x7 PUSH1 0x0 SWAP1 SLOAD SWAP1 PUSH2 0x100 EXP SWAP1 DIV PUSH20 0xFFFFFFFFFFFFFFFFFFFFFFFFFFFFFFFFFFFFFFFF AND PUSH20 0xFFFFFFFFFFFFFFFFFFFFFFFFFFFFFFFFFFFFFFFF AND PUSH20 0xFFFFFFFFFFFFFFFFFFFFFFFFFFFFFFFFFFFFFFFF AND DUP2 MSTORE PUSH1 0x20 ADD SWAP1 DUP2 MSTORE PUSH1 0x20 ADD PUSH1 0x0 KECCAK256 SLOAD PUSH2 0x565 SWAP2 SWAP1 PUSH2 0xE25 JUMP JUMPDEST PUSH2 0xBCC JUMP JUMPDEST PUSH1 0x4 DUP2 SWAP1 SSTORE POP CALLER PUSH1 0x7 PUSH1 0x0 PUSH2 0x100 EXP DUP2 SLOAD DUP2 PUSH20 0xFFFFFFFFFFFFFFFFFFFFFFFFFFFFFFFFFFFFFFFF MUL NOT AND SWAP1 DUP4 PUSH20 0xFFFFFFFFFFFFFFFFFFFFFFFFFFFFFFFFFFFFFFFF AND MUL OR SWAP1 SSTORE POP JUMPDEST PUSH1 0x6 PUSH1 0x0 DUP2 SLOAD DUP1 SWAP3 SWAP2 SWAP1 PUSH2 0x5C5 SWAP1 PUSH2 0xE85 JUMP JUMPDEST SWAP2 SWAP1 POP SSTORE POP POP JUMP JUMPDEST PUSH1 0x0 DUP1 SLOAD SWAP1 PUSH2 0x100 EXP SWAP1 DIV PUSH20 0xFFFFFFFFFFFFFFFFFFFFFFFFFFFFFFFFFFFFFFFF AND PUSH20 0xFFFFFFFFFFFFFFFFFFFFFFFFFFFFFFFFFFFFFFFF AND CALLER PUSH20 0xFFFFFFFFFFFFFFFFFFFFFFFFFFFFFFFFFFFFFFFF AND EQ PUSH2 0x65B JUMPI PUSH1 0x40 MLOAD PUSH32 0x8C379A000000000000000000000000000000000000000000000000000000000 DUP2 MSTORE PUSH1 0x4 ADD PUSH2 0x652 SWAP1 PUSH2 0xDD6 JUMP JUMPDEST PUSH1 0x40 MLOAD DUP1 SWAP2 SUB SWAP1 REVERT JUMPDEST PUSH1 0x3 DUP1 PUSH1 0x0 PUSH2 0x100 EXP DUP2 SLOAD DUP2 PUSH1 0xFF MUL NOT AND SWAP1 DUP4 PUSH1 0x3 DUP2 GT ISZERO PUSH2 0x680 JUMPI PUSH2 0x67F PUSH2 0xCE7 JUMP JUMPDEST JUMPDEST MUL OR SWAP1 SSTORE POP JUMP JUMPDEST PUSH1 0x0 DUP1 SLOAD SWAP1 PUSH2 0x100 EXP SWAP1 DIV PUSH20 0xFFFFFFFFFFFFFFFFFFFFFFFFFFFFFFFFFFFFFFFF AND PUSH20 0xFFFFFFFFFFFFFFFFFFFFFFFFFFFFFFFFFFFFFFFF AND CALLER PUSH20 0xFFFFFFFFFFFFFFFFFFFFFFFFFFFFFFFFFFFFFFFF AND EQ PUSH2 0x715 JUMPI PUSH1 0x40 MLOAD PUSH32 0x8C379A000000000000000000000000000000000000000000000000000000000 DUP2 MSTORE PUSH1 0x4 ADD PUSH2 0x70C SWAP1 PUSH2 0xDD6 JUMP JUMPDEST PUSH1 0x40 MLOAD DUP1 SWAP2 SUB SWAP1 REVERT JUMPDEST PUSH1 0x2 PUSH1 0x3 PUSH1 0x0 PUSH2 0x100 EXP DUP2 SLOAD DUP2 PUSH1 0xFF MUL NOT AND SWAP1 DUP4 PUSH1 0x3 DUP2 GT ISZERO PUSH2 0x73B JUMPI PUSH2 0x73A PUSH2 0xCE7 JUMP JUMPDEST JUMPDEST MUL OR SWAP1 SSTORE POP JUMP JUMPDEST PUSH1 0x0 DUP1 SLOAD SWAP1 PUSH2 0x100 EXP SWAP1 DIV PUSH20 0xFFFFFFFFFFFFFFFFFFFFFFFFFFFFFFFFFFFFFFFF AND DUP2 JUMP JUMPDEST PUSH1 0x8 PUSH1 0x20 MSTORE DUP1 PUSH1 0x0 MSTORE PUSH1 0x40 PUSH1 0x0 KECCAK256 PUSH1 0x0 SWAP2 POP SWAP1 POP SLOAD DUP2 JUMP JUMPDEST PUSH1 0x4 SLOAD DUP2 JUMP JUMPDEST PUSH1 0x3 PUSH1 0x0 SWAP1 SLOAD SWAP1 PUSH2 0x100 EXP SWAP1 DIV PUSH1 0xFF AND DUP2 JUMP JUMPDEST PUSH1 0x7 PUSH1 0x0 SWAP1 SLOAD SWAP1 PUSH2 0x100 EXP SWAP1 DIV PUSH20 0xFFFFFFFFFFFFFFFFFFFFFFFFFFFFFFFFFFFFFFFF AND DUP2 JUMP JUMPDEST PUSH1 0x2 SLOAD DUP2 JUMP JUMPDEST PUSH1 0x1 SLOAD DUP2 JUMP JUMPDEST PUSH1 0x5 SLOAD DUP2 JUMP JUMPDEST PUSH1 0x3 DUP1 DUP2 GT ISZERO PUSH2 0x7E2 JUMPI PUSH2 0x7E1 PUSH2 0xCE7 JUMP JUMPDEST JUMPDEST PUSH1 0x3 PUSH1 0x0 SWAP1 SLOAD SWAP1 PUSH2 0x100 EXP SWAP1 DIV PUSH1 0xFF AND PUSH1 0x3 DUP2 GT ISZERO PUSH2 0x804 JUMPI PUSH2 0x803 PUSH2 0xCE7 JUMP JUMPDEST JUMPDEST EQ DUP1 PUSH2 0x843 JUMPI POP PUSH1 0x2 PUSH1 0x3 DUP2 GT ISZERO PUSH2 0x81F JUMPI PUSH2 0x81E PUSH2 0xCE7 JUMP JUMPDEST JUMPDEST PUSH1 0x3 PUSH1 0x0 SWAP1 SLOAD SWAP1 PUSH2 0x100 EXP SWAP1 DIV PUSH1 0xFF AND PUSH1 0x3 DUP2 GT ISZERO PUSH2 0x841 JUMPI PUSH2 0x840 PUSH2 0xCE7 JUMP JUMPDEST JUMPDEST EQ JUMPDEST DUP1 PUSH2 0x84F JUMPI POP PUSH1 0x2 SLOAD NUMBER GT JUMPDEST PUSH2 0x858 JUMPI PUSH1 0x0 DUP1 REVERT JUMPDEST PUSH1 0x0 DUP1 SLOAD SWAP1 PUSH2 0x100 EXP SWAP1 DIV PUSH20 0xFFFFFFFFFFFFFFFFFFFFFFFFFFFFFFFFFFFFFFFF AND PUSH20 0xFFFFFFFFFFFFFFFFFFFFFFFFFFFFFFFFFFFFFFFF AND CALLER PUSH20 0xFFFFFFFFFFFFFFFFFFFFFFFFFFFFFFFFFFFFFFFF AND EQ DUP1 PUSH2 0x8F1 JUMPI POP PUSH1 0x0 PUSH1 0x8 PUSH1 0x0 CALLER PUSH20 0xFFFFFFFFFFFFFFFFFFFFFFFFFFFFFFFFFFFFFFFF AND PUSH20 0xFFFFFFFFFFFFFFFFFFFFFFFFFFFFFFFFFFFFFFFF AND DUP2 MSTORE PUSH1 0x20 ADD SWAP1 DUP2 MSTORE PUSH1 0x20 ADD PUSH1 0x0 KECCAK256 SLOAD GT JUMPDEST PUSH2 0x8FA JUMPI PUSH1 0x0 DUP1 REVERT JUMPDEST PUSH1 0x0 DUP1 PUSH1 0x3 DUP1 DUP2 GT ISZERO PUSH2 0x910 JUMPI PUSH2 0x90F PUSH2 0xCE7 JUMP JUMPDEST JUMPDEST PUSH1 0x3 PUSH1 0x0 SWAP1 SLOAD SWAP1 PUSH2 0x100 EXP SWAP1 DIV PUSH1 0xFF AND PUSH1 0x3 DUP2 GT ISZERO PUSH2 0x932 JUMPI PUSH2 0x931 PUSH2 0xCE7 JUMP JUMPDEST JUMPDEST EQ ISZERO PUSH2 0x982 JUMPI CALLER SWAP2 POP PUSH1 0x8 PUSH1 0x0 CALLER PUSH20 0xFFFFFFFFFFFFFFFFFFFFFFFFFFFFFFFFFFFFFFFF AND PUSH20 0xFFFFFFFFFFFFFFFFFFFFFFFFFFFFFFFFFFFFFFFF AND DUP2 MSTORE PUSH1 0x20 ADD SWAP1 DUP2 MSTORE PUSH1 0x20 ADD PUSH1 0x0 KECCAK256 SLOAD SWAP1 POP PUSH2 0xB3C JUMP JUMPDEST PUSH1 0x0 DUP1 SLOAD SWAP1 PUSH2 0x100 EXP SWAP1 DIV PUSH20 0xFFFFFFFFFFFFFFFFFFFFFFFFFFFFFFFFFFFFFFFF AND PUSH20 0xFFFFFFFFFFFFFFFFFFFFFFFFFFFFFFFFFFFFFFFF AND CALLER PUSH20 0xFFFFFFFFFFFFFFFFFFFFFFFFFFFFFFFFFFFFFFFF AND EQ ISZERO PUSH2 0xA03 JUMPI PUSH1 0x0 DUP1 SLOAD SWAP1 PUSH2 0x100 EXP SWAP1 DIV PUSH20 0xFFFFFFFFFFFFFFFFFFFFFFFFFFFFFFFFFFFFFFFF AND SWAP2 POP PUSH1 0x4 SLOAD SWAP1 POP PUSH2 0xB3B JUMP JUMPDEST PUSH1 0x7 PUSH1 0x0 SWAP1 SLOAD SWAP1 PUSH2 0x100 EXP SWAP1 DIV PUSH20 0xFFFFFFFFFFFFFFFFFFFFFFFFFFFFFFFFFFFFFFFF AND PUSH20 0xFFFFFFFFFFFFFFFFFFFFFFFFFFFFFFFFFFFFFFFF AND CALLER PUSH20 0xFFFFFFFFFFFFFFFFFFFFFFFFFFFFFFFFFFFFFFFF AND EQ ISZERO PUSH2 0xAF4 JUMPI PUSH1 0x7 PUSH1 0x0 SWAP1 SLOAD SWAP1 PUSH2 0x100 EXP SWAP1 DIV PUSH20 0xFFFFFFFFFFFFFFFFFFFFFFFFFFFFFFFFFFFFFFFF AND SWAP2 POP PUSH1 0x4 SLOAD PUSH1 0x8 PUSH1 0x0 PUSH1 0x7 PUSH1 0x0 SWAP1 SLOAD SWAP1 PUSH2 0x100 EXP SWAP1 DIV PUSH20 0xFFFFFFFFFFFFFFFFFFFFFFFFFFFFFFFFFFFFFFFF AND PUSH20 0xFFFFFFFFFFFFFFFFFFFFFFFFFFFFFFFFFFFFFFFF AND PUSH20 0xFFFFFFFFFFFFFFFFFFFFFFFFFFFFFFFFFFFFFFFF AND DUP2 MSTORE PUSH1 0x20 ADD SWAP1 DUP2 MSTORE PUSH1 0x20 ADD PUSH1 0x0 KECCAK256 SLOAD PUSH2 0xAED SWAP2 SWAP1 PUSH2 0xECE JUMP JUMPDEST SWAP1 POP PUSH2 0xB3A JUMP JUMPDEST CALLER SWAP2 POP PUSH1 0x8 PUSH1 0x0 CALLER PUSH20 0xFFFFFFFFFFFFFFFFFFFFFFFFFFFFFFFFFFFFFFFF AND PUSH20 0xFFFFFFFFFFFFFFFFFFFFFFFFFFFFFFFFFFFFFFFF AND DUP2 MSTORE PUSH1 0x20 ADD SWAP1 DUP2 MSTORE PUSH1 0x20 ADD PUSH1 0x0 KECCAK256 SLOAD SWAP1 POP JUMPDEST JUMPDEST JUMPDEST PUSH1 0x0 PUSH1 0x8 PUSH1 0x0 CALLER PUSH20 0xFFFFFFFFFFFFFFFFFFFFFFFFFFFFFFFFFFFFFFFF AND PUSH20 0xFFFFFFFFFFFFFFFFFFFFFFFFFFFFFFFFFFFFFFFF AND DUP2 MSTORE PUSH1 0x20 ADD SWAP1 DUP2 MSTORE PUSH1 0x20 ADD PUSH1 0x0 KECCAK256 DUP2 SWAP1 SSTORE POP DUP2 PUSH20 0xFFFFFFFFFFFFFFFFFFFFFFFFFFFFFFFFFFFFFFFF AND PUSH2 0x8FC DUP3 SWAP1 DUP2 ISZERO MUL SWAP1 PUSH1 0x40 MLOAD PUSH1 0x0 PUSH1 0x40 MLOAD DUP1 DUP4 SUB DUP2 DUP6 DUP9 DUP9 CALL SWAP4 POP POP POP POP ISZERO DUP1 ISZERO PUSH2 0xBC7 JUMPI RETURNDATASIZE PUSH1 0x0 DUP1 RETURNDATACOPY RETURNDATASIZE PUSH1 0x0 REVERT JUMPDEST POP POP POP JUMP JUMPDEST PUSH1 0x0 DUP2 DUP4 GT PUSH2 0xBDD JUMPI DUP3 SWAP1 POP PUSH2 0xBE1 JUMP JUMPDEST DUP2 SWAP1 POP JUMPDEST SWAP3 SWAP2 POP POP JUMP JUMPDEST PUSH1 0x0 PUSH20 0xFFFFFFFFFFFFFFFFFFFFFFFFFFFFFFFFFFFFFFFF DUP3 AND SWAP1 POP SWAP2 SWAP1 POP JUMP JUMPDEST PUSH1 0x0 PUSH2 0xC12 DUP3 PUSH2 0xBE7 JUMP JUMPDEST SWAP1 POP SWAP2 SWAP1 POP JUMP JUMPDEST PUSH2 0xC22 DUP2 PUSH2 0xC07 JUMP JUMPDEST DUP3 MSTORE POP POP JUMP JUMPDEST PUSH1 0x0 PUSH1 0x20 DUP3 ADD SWAP1 POP PUSH2 0xC3D PUSH1 0x0 DUP4 ADD DUP5 PUSH2 0xC19 JUMP JUMPDEST SWAP3 SWAP2 POP POP JUMP JUMPDEST PUSH1 0x0 DUP1 REVERT JUMPDEST PUSH1 0x0 PUSH2 0xC53 DUP3 PUSH2 0xBE7 JUMP JUMPDEST SWAP1 POP SWAP2 SWAP1 POP JUMP JUMPDEST PUSH2 0xC63 DUP2 PUSH2 0xC48 JUMP JUMPDEST DUP2 EQ PUSH2 0xC6E JUMPI PUSH1 0x0 DUP1 REVERT JUMPDEST POP JUMP JUMPDEST PUSH1 0x0 DUP2 CALLDATALOAD SWAP1 POP PUSH2 0xC80 DUP2 PUSH2 0xC5A JUMP JUMPDEST SWAP3 SWAP2 POP POP JUMP JUMPDEST PUSH1 0x0 PUSH1 0x20 DUP3 DUP5 SUB SLT ISZERO PUSH2 0xC9C JUMPI PUSH2 0xC9B PUSH2 0xC43 JUMP JUMPDEST JUMPDEST PUSH1 0x0 PUSH2 0xCAA DUP5 DUP3 DUP6 ADD PUSH2 0xC71 JUMP JUMPDEST SWAP2 POP POP SWAP3 SWAP2 POP POP JUMP JUMPDEST PUSH1 0x0 DUP2 SWAP1 POP SWAP2 SWAP1 POP JUMP JUMPDEST PUSH2 0xCC6 DUP2 PUSH2 0xCB3 JUMP JUMPDEST DUP3 MSTORE POP POP JUMP JUMPDEST PUSH1 0x0 PUSH1 0x20 DUP3 ADD SWAP1 POP PUSH2 0xCE1 PUSH1 0x0 DUP4 ADD DUP5 PUSH2 0xCBD JUMP JUMPDEST SWAP3 SWAP2 POP POP JUMP JUMPDEST PUSH32 0x4E487B7100000000000000000000000000000000000000000000000000000000 PUSH1 0x0 MSTORE PUSH1 0x21 PUSH1 0x4 MSTORE PUSH1 0x24 PUSH1 0x0 REVERT JUMPDEST PUSH1 0x4 DUP2 LT PUSH2 0xD27 JUMPI PUSH2 0xD26 PUSH2 0xCE7 JUMP JUMPDEST JUMPDEST POP JUMP JUMPDEST PUSH1 0x0 DUP2 SWAP1 POP PUSH2 0xD38 DUP3 PUSH2 0xD16 JUMP JUMPDEST SWAP2 SWAP1 POP JUMP JUMPDEST PUSH1 0x0 PUSH2 0xD48 DUP3 PUSH2 0xD2A JUMP JUMPDEST SWAP1 POP SWAP2 SWAP1 POP JUMP JUMPDEST PUSH2 0xD58 DUP2 PUSH2 0xD3D JUMP JUMPDEST DUP3 MSTORE POP POP JUMP JUMPDEST PUSH1 0x0 PUSH1 0x20 DUP3 ADD SWAP1 POP PUSH2 0xD73 PUSH1 0x0 DUP4 ADD DUP5 PUSH2 0xD4F JUMP JUMPDEST SWAP3 SWAP2 POP POP JUMP JUMPDEST PUSH1 0x0 DUP3 DUP3 MSTORE PUSH1 0x20 DUP3 ADD SWAP1 POP SWAP3 SWAP2 POP POP JUMP JUMPDEST PUSH32 0x4F776E65722063616E6E6F742062696400000000000000000000000000000000 PUSH1 0x0 DUP3 ADD MSTORE POP JUMP JUMPDEST PUSH1 0x0 PUSH2 0xDC0 PUSH1 0x10 DUP4 PUSH2 0xD79 JUMP JUMPDEST SWAP2 POP PUSH2 0xDCB DUP3 PUSH2 0xD8A JUMP JUMPDEST PUSH1 0x20 DUP3 ADD SWAP1 POP SWAP2 SWAP1 POP JUMP JUMPDEST PUSH1 0x0 PUSH1 0x20 DUP3 ADD SWAP1 POP DUP2 DUP2 SUB PUSH1 0x0 DUP4 ADD MSTORE PUSH2 0xDEF DUP2 PUSH2 0xDB3 JUMP JUMPDEST SWAP1 POP SWAP2 SWAP1 POP JUMP JUMPDEST PUSH32 0x4E487B7100000000000000000000000000000000000000000000000000000000 PUSH1 0x0 MSTORE PUSH1 0x11 PUSH1 0x4 MSTORE PUSH1 0x24 PUSH1 0x0 REVERT JUMPDEST PUSH1 0x0 PUSH2 0xE30 DUP3 PUSH2 0xCB3 JUMP JUMPDEST SWAP2 POP PUSH2 0xE3B DUP4 PUSH2 0xCB3 JUMP JUMPDEST SWAP3 POP DUP3 PUSH32 0xFFFFFFFFFFFFFFFFFFFFFFFFFFFFFFFFFFFFFFFFFFFFFFFFFFFFFFFFFFFFFFFF SUB DUP3 GT ISZERO PUSH2 0xE70 JUMPI PUSH2 0xE6F PUSH2 0xDF6 JUMP JUMPDEST JUMPDEST DUP3 DUP3 ADD SWAP1 POP SWAP3 SWAP2 POP POP JUMP JUMPDEST PUSH1 0x0 DUP2 SWAP1 POP SWAP2 SWAP1 POP JUMP JUMPDEST PUSH1 0x0 PUSH2 0xE90 DUP3 PUSH2 0xE7B JUMP JUMPDEST SWAP2 POP PUSH32 0x7FFFFFFFFFFFFFFFFFFFFFFFFFFFFFFFFFFFFFFFFFFFFFFFFFFFFFFFFFFFFFFF DUP3 EQ ISZERO PUSH2 0xEC3 JUMPI PUSH2 0xEC2 PUSH2 0xDF6 JUMP JUMPDEST JUMPDEST PUSH1 0x1 DUP3 ADD SWAP1 POP SWAP2 SWAP1 POP JUMP JUMPDEST PUSH1 0x0 PUSH2 0xED9 DUP3 PUSH2 0xCB3 JUMP JUMPDEST SWAP2 POP PUSH2 0xEE4 DUP4 PUSH2 0xCB3 JUMP JUMPDEST SWAP3 POP DUP3 DUP3 LT ISZERO PUSH2 0xEF7 JUMPI PUSH2 0xEF6 PUSH2 0xDF6 JUMP JUMPDEST JUMPDEST DUP3 DUP3 SUB SWAP1 POP SWAP3 SWAP2 POP POP JUMP INVALID LOG2 PUSH5 0x6970667358 0x22 SLT KECCAK256 BALANCE 0x5E 0xCD SWAP1 0x1F EXP 0xDA PUSH6 0x2B5203B45EE9 0xC5 0x23 0x22 PUSH11 0xE9C3F1B5F3C4737D92F43A PUSH16 0x68B464736F6C634300080B0033000000 "
				},
				"gasEstimates": {
					"creation": {
						"codeDepositCost": "779200",
						"executionCost": "infinite",
						"totalCost": "infinite"
					},
					"external": {
						"auctionState()": "2560",
						"auctioneer()": "2578",
						"bid()": "infinite",
						"bid_Increment()": "2517",
						"bids(address)": "2903",
						"cancelAuc()": "26621",
						"endAuc()": "26643",
						"etblock()": "2473",
						"finalizeAuc()": "infinite",
						"highestBidder()": "2536",
						"highest_payable_bid()": "2540",
						"stblock()": "2495"
					},
					"internal": {
						"min(uint256,uint256)": "64"
					}
				},
				"methodIdentifiers": {
					"auctionState()": "7fb45099",
					"auctioneer()": "5ec2c7bf",
					"bid()": "1998aeef",
					"bid_Increment()": "ce5bd041",
					"bids(address)": "62ea82db",
					"cancelAuc()": "2352f320",
					"endAuc()": "3fdceefd",
					"etblock()": "9d957d45",
					"finalizeAuc()": "e07600bd",
					"highestBidder()": "91f90157",
					"highest_payable_bid()": "7eb695a1",
					"stblock()": "a118be02"
				}
			},
			"storageLayout": {
				"storage": [
					{
						"astId": 3,
						"contract": "contracts/auction.sol:Auction",
						"label": "auctioneer",
						"offset": 0,
						"slot": "0",
						"type": "t_address_payable"
					},
					{
						"astId": 5,
						"contract": "contracts/auction.sol:Auction",
						"label": "stblock",
						"offset": 0,
						"slot": "1",
						"type": "t_uint256"
					},
					{
						"astId": 7,
						"contract": "contracts/auction.sol:Auction",
						"label": "etblock",
						"offset": 0,
						"slot": "2",
						"type": "t_uint256"
					},
					{
						"astId": 15,
						"contract": "contracts/auction.sol:Auction",
						"label": "auctionState",
						"offset": 0,
						"slot": "3",
						"type": "t_enum(Auction_State)12"
					},
					{
						"astId": 17,
						"contract": "contracts/auction.sol:Auction",
						"label": "highest_payable_bid",
						"offset": 0,
						"slot": "4",
						"type": "t_uint256"
					},
					{
						"astId": 19,
						"contract": "contracts/auction.sol:Auction",
						"label": "bid_Increment",
						"offset": 0,
						"slot": "5",
						"type": "t_uint256"
					},
					{
						"astId": 22,
						"contract": "contracts/auction.sol:Auction",
						"label": "xp",
						"offset": 0,
						"slot": "6",
						"type": "t_int256"
					},
					{
						"astId": 24,
						"contract": "contracts/auction.sol:Auction",
						"label": "highestBidder",
						"offset": 0,
						"slot": "7",
						"type": "t_address_payable"
					},
					{
						"astId": 28,
						"contract": "contracts/auction.sol:Auction",
						"label": "bids",
						"offset": 0,
						"slot": "8",
						"type": "t_mapping(t_address,t_uint256)"
					}
				],
				"types": {
					"t_address": {
						"encoding": "inplace",
						"label": "address",
						"numberOfBytes": "20"
					},
					"t_address_payable": {
						"encoding": "inplace",
						"label": "address payable",
						"numberOfBytes": "20"
					},
					"t_enum(Auction_State)12": {
						"encoding": "inplace",
						"label": "enum Auction.Auction_State",
						"numberOfBytes": "1"
					},
					"t_int256": {
						"encoding": "inplace",
						"label": "int256",
						"numberOfBytes": "32"
					},
					"t_mapping(t_address,t_uint256)": {
						"encoding": "mapping",
						"key": "t_address",
						"label": "mapping(address => uint256)",
						"numberOfBytes": "32",
						"value": "t_uint256"
					},
					"t_uint256": {
						"encoding": "inplace",
						"label": "uint256",
						"numberOfBytes": "32"
					}
				}
			},
			"userdoc": {
				"kind": "user",
				"methods": {},
				"version": 1
			}
		}
	}
}