{
	"contracts/transact.sol": {
		"transact": {
			"abi": [
				{
					"anonymous": false,
					"inputs": [
						{
							"indexed": true,
							"internalType": "address",
							"name": "_from",
							"type": "address"
						},
						{
							"indexed": true,
							"internalType": "address",
							"name": "_to",
							"type": "address"
						},
						{
							"indexed": false,
							"internalType": "uint256",
							"name": "_value",
							"type": "uint256"
						}
					],
					"name": "Transfer",
					"type": "event"
				},
				{
					"inputs": [
						{
							"internalType": "uint256",
							"name": "time",
							"type": "uint256"
						},
						{
							"internalType": "int256",
							"name": "transactions",
							"type": "int256"
						},
						{
							"internalType": "uint256",
							"name": "hash",
							"type": "uint256"
						},
						{
							"internalType": "bytes32",
							"name": "previousHash",
							"type": "bytes32"
						}
					],
					"name": "Block",
					"outputs": [
						{
							"internalType": "bytes32",
							"name": "hashin",
							"type": "bytes32"
						}
					],
					"stateMutability": "view",
					"type": "function"
				},
				{
					"inputs": [],
					"name": "balanceOf",
					"outputs": [
						{
							"internalType": "uint256",
							"name": "",
							"type": "uint256"
						}
					],
					"stateMutability": "view",
					"type": "function"
				},
				{
					"inputs": [
						{
							"internalType": "int8",
							"name": "time",
							"type": "int8"
						}
					],
					"name": "encodeInt8",
					"outputs": [
						{
							"internalType": "bytes",
							"name": "",
							"type": "bytes"
						}
					],
					"stateMutability": "pure",
					"type": "function"
				},
				{
					"inputs": [
						{
							"internalType": "address",
							"name": "addr",
							"type": "address"
						}
					],
					"name": "getBalance",
					"outputs": [
						{
							"internalType": "uint256",
							"name": "",
							"type": "uint256"
						}
					],
					"stateMutability": "view",
					"type": "function"
				},
				{
					"inputs": [
						{
							"internalType": "address",
							"name": "addr",
							"type": "address"
						}
					],
					"name": "getBalanceInEth",
					"outputs": [
						{
							"internalType": "uint256",
							"name": "",
							"type": "uint256"
						}
					],
					"stateMutability": "view",
					"type": "function"
				},
				{
					"inputs": [],
					"name": "invest",
					"outputs": [],
					"stateMutability": "payable",
					"type": "function"
				}
			],
			"devdoc": {
				"kind": "dev",
				"methods": {},
				"version": 1
			},
			"evm": {
				"assembly": "    /* \"contracts/transact.sol\":60:1371  contract transact {... */\n  mstore(0x40, 0x80)\n    /* \"contracts/transact.sol\":138:139  1 */\n  0x01\n    /* \"contracts/transact.sol\":126:139  int trans = 1 */\n  dup1\n  sstore\n    /* \"contracts/transact.sol\":60:1371  contract transact {... */\n  callvalue\n  dup1\n  iszero\n  tag_1\n  jumpi\n  0x00\n  dup1\n  revert\ntag_1:\n  pop\n  dataSize(sub_0)\n  dup1\n  dataOffset(sub_0)\n  0x00\n  codecopy\n  0x00\n  return\nstop\n\nsub_0: assembly {\n        /* \"contracts/transact.sol\":60:1371  contract transact {... */\n      mstore(0x40, 0x80)\n      jumpi(tag_1, lt(calldatasize, 0x04))\n      shr(0xe0, calldataload(0x00))\n      dup1\n      0x722713f7\n      eq\n      tag_2\n      jumpi\n      dup1\n      0x7bd703e8\n      eq\n      tag_3\n      jumpi\n      dup1\n      0xc21d593e\n      eq\n      tag_4\n      jumpi\n      dup1\n      0xc47e739a\n      eq\n      tag_5\n      jumpi\n      dup1\n      0xe8b5e51f\n      eq\n      tag_6\n      jumpi\n      dup1\n      0xf8b2cb4f\n      eq\n      tag_7\n      jumpi\n    tag_1:\n      0x00\n      dup1\n      revert\n        /* \"contracts/transact.sol\":432:530  function balanceOf() external view returns (uint) {... */\n    tag_2:\n      callvalue\n      dup1\n      iszero\n      tag_8\n      jumpi\n      0x00\n      dup1\n      revert\n    tag_8:\n      pop\n      tag_9\n      tag_10\n      jump\t// in\n    tag_9:\n      mload(0x40)\n      tag_11\n      swap2\n      swap1\n      tag_12\n      jump\t// in\n    tag_11:\n      mload(0x40)\n      dup1\n      swap2\n      sub\n      swap1\n      return\n        /* \"contracts/transact.sol\":538:644  function getBalanceInEth(address addr) public view returns(uint){... */\n    tag_3:\n      callvalue\n      dup1\n      iszero\n      tag_13\n      jumpi\n      0x00\n      dup1\n      revert\n    tag_13:\n      pop\n      tag_14\n      0x04\n      dup1\n      calldatasize\n      sub\n      dup2\n      add\n      swap1\n      tag_15\n      swap2\n      swap1\n      tag_16\n      jump\t// in\n    tag_15:\n      tag_17\n      jump\t// in\n    tag_14:\n      mload(0x40)\n      tag_18\n      swap2\n      swap1\n      tag_12\n      jump\t// in\n    tag_18:\n      mload(0x40)\n      dup1\n      swap2\n      sub\n      swap1\n      return\n        /* \"contracts/transact.sol\":760:1155  function Block(uint time,int transactions,uint hash, bytes32 previousHash )public view returns(bytes32 hashin){... */\n    tag_4:\n      callvalue\n      dup1\n      iszero\n      tag_19\n      jumpi\n      0x00\n      dup1\n      revert\n    tag_19:\n      pop\n      tag_20\n      0x04\n      dup1\n      calldatasize\n      sub\n      dup2\n      add\n      swap1\n      tag_21\n      swap2\n      swap1\n      tag_22\n      jump\t// in\n    tag_21:\n      tag_23\n      jump\t// in\n    tag_20:\n      mload(0x40)\n      tag_24\n      swap2\n      swap1\n      tag_25\n      jump\t// in\n    tag_24:\n      mload(0x40)\n      dup1\n      swap2\n      sub\n      swap1\n      return\n        /* \"contracts/transact.sol\":1162:1276  function encodeInt8(int8 time) public pure returns (bytes memory) {... */\n    tag_5:\n      callvalue\n      dup1\n      iszero\n      tag_26\n      jumpi\n      0x00\n      dup1\n      revert\n    tag_26:\n      pop\n      tag_27\n      0x04\n      dup1\n      calldatasize\n      sub\n      dup2\n      add\n      swap1\n      tag_28\n      swap2\n      swap1\n      tag_29\n      jump\t// in\n    tag_28:\n      tag_30\n      jump\t// in\n    tag_27:\n      mload(0x40)\n      tag_31\n      swap2\n      swap1\n      tag_32\n      jump\t// in\n    tag_31:\n      mload(0x40)\n      dup1\n      swap2\n      sub\n      swap1\n      return\n        /* \"contracts/transact.sol\":313:426  function invest() external payable {... */\n    tag_6:\n      tag_33\n      tag_34\n      jump\t// in\n    tag_33:\n      stop\n        /* \"contracts/transact.sol\":652:752  function getBalance(address addr) public view returns(uint) {... */\n    tag_7:\n      callvalue\n      dup1\n      iszero\n      tag_35\n      jumpi\n      0x00\n      dup1\n      revert\n    tag_35:\n      pop\n      tag_36\n      0x04\n      dup1\n      calldatasize\n      sub\n      dup2\n      add\n      swap1\n      tag_37\n      swap2\n      swap1\n      tag_16\n      jump\t// in\n    tag_37:\n      tag_38\n      jump\t// in\n    tag_36:\n      mload(0x40)\n      tag_39\n      swap2\n      swap1\n      tag_12\n      jump\t// in\n    tag_39:\n      mload(0x40)\n      dup1\n      swap2\n      sub\n      swap1\n      return\n        /* \"contracts/transact.sol\":432:530  function balanceOf() external view returns (uint) {... */\n    tag_10:\n        /* \"contracts/transact.sol\":476:480  uint */\n      0x00\n        /* \"contracts/transact.sol\":500:521  address(this).balance */\n      selfbalance\n        /* \"contracts/transact.sol\":493:521  return address(this).balance */\n      swap1\n      pop\n        /* \"contracts/transact.sol\":432:530  function balanceOf() external view returns (uint) {... */\n      swap1\n      jump\t// out\n        /* \"contracts/transact.sol\":538:644  function getBalanceInEth(address addr) public view returns(uint){... */\n    tag_17:\n        /* \"contracts/transact.sol\":597:601  uint */\n      0x00\n        /* \"contracts/transact.sol\":620:636  getBalance(addr) */\n      tag_42\n        /* \"contracts/transact.sol\":631:635  addr */\n      dup3\n        /* \"contracts/transact.sol\":620:630  getBalance */\n      tag_38\n        /* \"contracts/transact.sol\":620:636  getBalance(addr) */\n      jump\t// in\n    tag_42:\n        /* \"contracts/transact.sol\":613:636  return getBalance(addr) */\n      swap1\n      pop\n        /* \"contracts/transact.sol\":538:644  function getBalanceInEth(address addr) public view returns(uint){... */\n      swap2\n      swap1\n      pop\n      jump\t// out\n        /* \"contracts/transact.sol\":760:1155  function Block(uint time,int transactions,uint hash, bytes32 previousHash )public view returns(bytes32 hashin){... */\n    tag_23:\n        /* \"contracts/transact.sol\":855:869  bytes32 hashin */\n      0x00\n        /* \"contracts/transact.sol\":887:902  block.timestamp */\n      timestamp\n        /* \"contracts/transact.sol\":881:902  time= block.timestamp */\n      swap5\n      pop\n        /* \"contracts/transact.sol\":925:930  trans */\n      sload(0x01)\n        /* \"contracts/transact.sol\":912:930  transactions=trans */\n      swap4\n      pop\n        /* \"contracts/transact.sol\":940:955  previousHash=\"\" */\n      0x00\n      swap2\n      pop\n        /* \"contracts/transact.sol\":965:974  int nonce */\n      0x00\n        /* \"contracts/transact.sol\":988:1005  uint16 diffuculty */\n      dup1\n        /* \"contracts/transact.sol\":1024:1086  sha256(abi.encodePacked(time,transactions,nonce,previousHash)) */\n      0x02\n        /* \"contracts/transact.sol\":1048:1052  time */\n      dup8\n        /* \"contracts/transact.sol\":1053:1065  transactions */\n      dup8\n        /* \"contracts/transact.sol\":1066:1071  nonce */\n      dup5\n        /* \"contracts/transact.sol\":1072:1084  previousHash */\n      dup8\n        /* \"contracts/transact.sol\":1031:1085  abi.encodePacked(time,transactions,nonce,previousHash) */\n      add(0x20, mload(0x40))\n      tag_44\n      swap5\n      swap4\n      swap3\n      swap2\n      swap1\n      tag_45\n      jump\t// in\n    tag_44:\n      mload(0x40)\n      0x20\n      dup2\n      dup4\n      sub\n      sub\n      dup2\n      mstore\n      swap1\n      0x40\n      mstore\n        /* \"contracts/transact.sol\":1024:1086  sha256(abi.encodePacked(time,transactions,nonce,previousHash)) */\n      mload(0x40)\n      tag_46\n      swap2\n      swap1\n      tag_47\n      jump\t// in\n    tag_46:\n      0x20\n      mload(0x40)\n      dup1\n      dup4\n      sub\n      dup2\n      dup6\n      gas\n      staticcall\n      iszero\n      dup1\n      iszero\n      tag_49\n      jumpi\n      returndatasize\n      0x00\n      dup1\n      returndatacopy\n      revert(0x00, returndatasize)\n    tag_49:\n      pop\n      pop\n      pop\n      mload(0x40)\n      returndatasize\n      not(0x1f)\n      0x1f\n      dup3\n      add\n      and\n      dup3\n      add\n      dup1\n      0x40\n      mstore\n      pop\n      dup2\n      add\n      swap1\n      tag_50\n      swap2\n      swap1\n      tag_51\n      jump\t// in\n    tag_50:\n        /* \"contracts/transact.sol\":1016:1086  hashin= sha256(abi.encodePacked(time,transactions,nonce,previousHash)) */\n      swap3\n      pop\n        /* \"contracts/transact.sol\":1110:1116  hashin */\n      dup3\n        /* \"contracts/transact.sol\":1097:1116  previousHash=hashin */\n      swap4\n      pop\n        /* \"contracts/transact.sol\":1127:1141  return(hashin) */\n      pop\n      pop\n        /* \"contracts/transact.sol\":760:1155  function Block(uint time,int transactions,uint hash, bytes32 previousHash )public view returns(bytes32 hashin){... */\n      swap5\n      swap4\n      pop\n      pop\n      pop\n      pop\n      jump\t// out\n        /* \"contracts/transact.sol\":1162:1276  function encodeInt8(int8 time) public pure returns (bytes memory) {... */\n    tag_30:\n        /* \"contracts/transact.sol\":1214:1226  bytes memory */\n      0x60\n        /* \"contracts/transact.sol\":1263:1267  time */\n      dup2\n        /* \"contracts/transact.sol\":1246:1268  abi.encodePacked(time) */\n      add(0x20, mload(0x40))\n      tag_53\n      swap2\n      swap1\n      tag_54\n      jump\t// in\n    tag_53:\n      mload(0x40)\n      0x20\n      dup2\n      dup4\n      sub\n      sub\n      dup2\n      mstore\n      swap1\n      0x40\n      mstore\n        /* \"contracts/transact.sol\":1239:1268  return abi.encodePacked(time) */\n      swap1\n      pop\n        /* \"contracts/transact.sol\":1162:1276  function encodeInt8(int8 time) public pure returns (bytes memory) {... */\n      swap2\n      swap1\n      pop\n      jump\t// out\n        /* \"contracts/transact.sol\":313:426  function invest() external payable {... */\n    tag_34:\n        /* \"contracts/transact.sol\":374:381  1 ether */\n      0x0de0b6b3a7640000\n        /* \"contracts/transact.sol\":362:371  msg.value */\n      callvalue\n        /* \"contracts/transact.sol\":362:381  msg.value < 1 ether */\n      lt\n        /* \"contracts/transact.sol\":359:417  if(msg.value < 1 ether){... */\n      iszero\n      tag_56\n      jumpi\n        /* \"contracts/transact.sol\":397:405  revert() */\n      0x00\n      dup1\n      revert\n        /* \"contracts/transact.sol\":359:417  if(msg.value < 1 ether){... */\n    tag_56:\n        /* \"contracts/transact.sol\":313:426  function invest() external payable {... */\n      jump\t// out\n        /* \"contracts/transact.sol\":652:752  function getBalance(address addr) public view returns(uint) {... */\n    tag_38:\n        /* \"contracts/transact.sol\":706:710  uint */\n      0x00\n        /* \"contracts/transact.sol\":730:738  balances */\n      dup1\n        /* \"contracts/transact.sol\":730:744  balances[addr] */\n      0x00\n        /* \"contracts/transact.sol\":739:743  addr */\n      dup4\n        /* \"contracts/transact.sol\":730:744  balances[addr] */\n      0xffffffffffffffffffffffffffffffffffffffff\n      and\n      0xffffffffffffffffffffffffffffffffffffffff\n      and\n      dup2\n      mstore\n      0x20\n      add\n      swap1\n      dup2\n      mstore\n      0x20\n      add\n      0x00\n      keccak256\n      sload\n        /* \"contracts/transact.sol\":723:744  return balances[addr] */\n      swap1\n      pop\n        /* \"contracts/transact.sol\":652:752  function getBalance(address addr) public view returns(uint) {... */\n      swap2\n      swap1\n      pop\n      jump\t// out\n        /* \"#utility.yul\":7:84   */\n    tag_58:\n        /* \"#utility.yul\":44:51   */\n      0x00\n        /* \"#utility.yul\":73:78   */\n      dup2\n        /* \"#utility.yul\":62:78   */\n      swap1\n      pop\n        /* \"#utility.yul\":7:84   */\n      swap2\n      swap1\n      pop\n      jump\t// out\n        /* \"#utility.yul\":90:208   */\n    tag_59:\n        /* \"#utility.yul\":177:201   */\n      tag_99\n        /* \"#utility.yul\":195:200   */\n      dup2\n        /* \"#utility.yul\":177:201   */\n      tag_58\n      jump\t// in\n    tag_99:\n        /* \"#utility.yul\":172:175   */\n      dup3\n        /* \"#utility.yul\":165:202   */\n      mstore\n        /* \"#utility.yul\":90:208   */\n      pop\n      pop\n      jump\t// out\n        /* \"#utility.yul\":214:436   */\n    tag_12:\n        /* \"#utility.yul\":307:311   */\n      0x00\n        /* \"#utility.yul\":345:347   */\n      0x20\n        /* \"#utility.yul\":334:343   */\n      dup3\n        /* \"#utility.yul\":330:348   */\n      add\n        /* \"#utility.yul\":322:348   */\n      swap1\n      pop\n        /* \"#utility.yul\":358:429   */\n      tag_101\n        /* \"#utility.yul\":426:427   */\n      0x00\n        /* \"#utility.yul\":415:424   */\n      dup4\n        /* \"#utility.yul\":411:428   */\n      add\n        /* \"#utility.yul\":402:408   */\n      dup5\n        /* \"#utility.yul\":358:429   */\n      tag_59\n      jump\t// in\n    tag_101:\n        /* \"#utility.yul\":214:436   */\n      swap3\n      swap2\n      pop\n      pop\n      jump\t// out\n        /* \"#utility.yul\":523:640   */\n    tag_61:\n        /* \"#utility.yul\":632:633   */\n      0x00\n        /* \"#utility.yul\":629:630   */\n      dup1\n        /* \"#utility.yul\":622:634   */\n      revert\n        /* \"#utility.yul\":769:895   */\n    tag_63:\n        /* \"#utility.yul\":806:813   */\n      0x00\n        /* \"#utility.yul\":846:888   */\n      0xffffffffffffffffffffffffffffffffffffffff\n        /* \"#utility.yul\":839:844   */\n      dup3\n        /* \"#utility.yul\":835:889   */\n      and\n        /* \"#utility.yul\":824:889   */\n      swap1\n      pop\n        /* \"#utility.yul\":769:895   */\n      swap2\n      swap1\n      pop\n      jump\t// out\n        /* \"#utility.yul\":901:997   */\n    tag_64:\n        /* \"#utility.yul\":938:945   */\n      0x00\n        /* \"#utility.yul\":967:991   */\n      tag_107\n        /* \"#utility.yul\":985:990   */\n      dup3\n        /* \"#utility.yul\":967:991   */\n      tag_63\n      jump\t// in\n    tag_107:\n        /* \"#utility.yul\":956:991   */\n      swap1\n      pop\n        /* \"#utility.yul\":901:997   */\n      swap2\n      swap1\n      pop\n      jump\t// out\n        /* \"#utility.yul\":1003:1125   */\n    tag_65:\n        /* \"#utility.yul\":1076:1100   */\n      tag_109\n        /* \"#utility.yul\":1094:1099   */\n      dup2\n        /* \"#utility.yul\":1076:1100   */\n      tag_64\n      jump\t// in\n    tag_109:\n        /* \"#utility.yul\":1069:1074   */\n      dup2\n        /* \"#utility.yul\":1066:1101   */\n      eq\n        /* \"#utility.yul\":1056:1119   */\n      tag_110\n      jumpi\n        /* \"#utility.yul\":1115:1116   */\n      0x00\n        /* \"#utility.yul\":1112:1113   */\n      dup1\n        /* \"#utility.yul\":1105:1117   */\n      revert\n        /* \"#utility.yul\":1056:1119   */\n    tag_110:\n        /* \"#utility.yul\":1003:1125   */\n      pop\n      jump\t// out\n        /* \"#utility.yul\":1131:1270   */\n    tag_66:\n        /* \"#utility.yul\":1177:1182   */\n      0x00\n        /* \"#utility.yul\":1215:1221   */\n      dup2\n        /* \"#utility.yul\":1202:1222   */\n      calldataload\n        /* \"#utility.yul\":1193:1222   */\n      swap1\n      pop\n        /* \"#utility.yul\":1231:1264   */\n      tag_112\n        /* \"#utility.yul\":1258:1263   */\n      dup2\n        /* \"#utility.yul\":1231:1264   */\n      tag_65\n      jump\t// in\n    tag_112:\n        /* \"#utility.yul\":1131:1270   */\n      swap3\n      swap2\n      pop\n      pop\n      jump\t// out\n        /* \"#utility.yul\":1276:1605   */\n    tag_16:\n        /* \"#utility.yul\":1335:1341   */\n      0x00\n        /* \"#utility.yul\":1384:1386   */\n      0x20\n        /* \"#utility.yul\":1372:1381   */\n      dup3\n        /* \"#utility.yul\":1363:1370   */\n      dup5\n        /* \"#utility.yul\":1359:1382   */\n      sub\n        /* \"#utility.yul\":1355:1387   */\n      slt\n        /* \"#utility.yul\":1352:1471   */\n      iszero\n      tag_114\n      jumpi\n        /* \"#utility.yul\":1390:1469   */\n      tag_115\n      tag_61\n      jump\t// in\n    tag_115:\n        /* \"#utility.yul\":1352:1471   */\n    tag_114:\n        /* \"#utility.yul\":1510:1511   */\n      0x00\n        /* \"#utility.yul\":1535:1588   */\n      tag_116\n        /* \"#utility.yul\":1580:1587   */\n      dup5\n        /* \"#utility.yul\":1571:1577   */\n      dup3\n        /* \"#utility.yul\":1560:1569   */\n      dup6\n        /* \"#utility.yul\":1556:1578   */\n      add\n        /* \"#utility.yul\":1535:1588   */\n      tag_66\n      jump\t// in\n    tag_116:\n        /* \"#utility.yul\":1525:1588   */\n      swap2\n      pop\n        /* \"#utility.yul\":1481:1598   */\n      pop\n        /* \"#utility.yul\":1276:1605   */\n      swap3\n      swap2\n      pop\n      pop\n      jump\t// out\n        /* \"#utility.yul\":1611:1733   */\n    tag_67:\n        /* \"#utility.yul\":1684:1708   */\n      tag_118\n        /* \"#utility.yul\":1702:1707   */\n      dup2\n        /* \"#utility.yul\":1684:1708   */\n      tag_58\n      jump\t// in\n    tag_118:\n        /* \"#utility.yul\":1677:1682   */\n      dup2\n        /* \"#utility.yul\":1674:1709   */\n      eq\n        /* \"#utility.yul\":1664:1727   */\n      tag_119\n      jumpi\n        /* \"#utility.yul\":1723:1724   */\n      0x00\n        /* \"#utility.yul\":1720:1721   */\n      dup1\n        /* \"#utility.yul\":1713:1725   */\n      revert\n        /* \"#utility.yul\":1664:1727   */\n    tag_119:\n        /* \"#utility.yul\":1611:1733   */\n      pop\n      jump\t// out\n        /* \"#utility.yul\":1739:1878   */\n    tag_68:\n        /* \"#utility.yul\":1785:1790   */\n      0x00\n        /* \"#utility.yul\":1823:1829   */\n      dup2\n        /* \"#utility.yul\":1810:1830   */\n      calldataload\n        /* \"#utility.yul\":1801:1830   */\n      swap1\n      pop\n        /* \"#utility.yul\":1839:1872   */\n      tag_121\n        /* \"#utility.yul\":1866:1871   */\n      dup2\n        /* \"#utility.yul\":1839:1872   */\n      tag_67\n      jump\t// in\n    tag_121:\n        /* \"#utility.yul\":1739:1878   */\n      swap3\n      swap2\n      pop\n      pop\n      jump\t// out\n        /* \"#utility.yul\":1884:1960   */\n    tag_69:\n        /* \"#utility.yul\":1920:1927   */\n      0x00\n        /* \"#utility.yul\":1949:1954   */\n      dup2\n        /* \"#utility.yul\":1938:1954   */\n      swap1\n      pop\n        /* \"#utility.yul\":1884:1960   */\n      swap2\n      swap1\n      pop\n      jump\t// out\n        /* \"#utility.yul\":1966:2086   */\n    tag_70:\n        /* \"#utility.yul\":2038:2061   */\n      tag_124\n        /* \"#utility.yul\":2055:2060   */\n      dup2\n        /* \"#utility.yul\":2038:2061   */\n      tag_69\n      jump\t// in\n    tag_124:\n        /* \"#utility.yul\":2031:2036   */\n      dup2\n        /* \"#utility.yul\":2028:2062   */\n      eq\n        /* \"#utility.yul\":2018:2080   */\n      tag_125\n      jumpi\n        /* \"#utility.yul\":2076:2077   */\n      0x00\n        /* \"#utility.yul\":2073:2074   */\n      dup1\n        /* \"#utility.yul\":2066:2078   */\n      revert\n        /* \"#utility.yul\":2018:2080   */\n    tag_125:\n        /* \"#utility.yul\":1966:2086   */\n      pop\n      jump\t// out\n        /* \"#utility.yul\":2092:2229   */\n    tag_71:\n        /* \"#utility.yul\":2137:2142   */\n      0x00\n        /* \"#utility.yul\":2175:2181   */\n      dup2\n        /* \"#utility.yul\":2162:2182   */\n      calldataload\n        /* \"#utility.yul\":2153:2182   */\n      swap1\n      pop\n        /* \"#utility.yul\":2191:2223   */\n      tag_127\n        /* \"#utility.yul\":2217:2222   */\n      dup2\n        /* \"#utility.yul\":2191:2223   */\n      tag_70\n      jump\t// in\n    tag_127:\n        /* \"#utility.yul\":2092:2229   */\n      swap3\n      swap2\n      pop\n      pop\n      jump\t// out\n        /* \"#utility.yul\":2235:2312   */\n    tag_72:\n        /* \"#utility.yul\":2272:2279   */\n      0x00\n        /* \"#utility.yul\":2301:2306   */\n      dup2\n        /* \"#utility.yul\":2290:2306   */\n      swap1\n      pop\n        /* \"#utility.yul\":2235:2312   */\n      swap2\n      swap1\n      pop\n      jump\t// out\n        /* \"#utility.yul\":2318:2440   */\n    tag_73:\n        /* \"#utility.yul\":2391:2415   */\n      tag_130\n        /* \"#utility.yul\":2409:2414   */\n      dup2\n        /* \"#utility.yul\":2391:2415   */\n      tag_72\n      jump\t// in\n    tag_130:\n        /* \"#utility.yul\":2384:2389   */\n      dup2\n        /* \"#utility.yul\":2381:2416   */\n      eq\n        /* \"#utility.yul\":2371:2434   */\n      tag_131\n      jumpi\n        /* \"#utility.yul\":2430:2431   */\n      0x00\n        /* \"#utility.yul\":2427:2428   */\n      dup1\n        /* \"#utility.yul\":2420:2432   */\n      revert\n        /* \"#utility.yul\":2371:2434   */\n    tag_131:\n        /* \"#utility.yul\":2318:2440   */\n      pop\n      jump\t// out\n        /* \"#utility.yul\":2446:2585   */\n    tag_74:\n        /* \"#utility.yul\":2492:2497   */\n      0x00\n        /* \"#utility.yul\":2530:2536   */\n      dup2\n        /* \"#utility.yul\":2517:2537   */\n      calldataload\n        /* \"#utility.yul\":2508:2537   */\n      swap1\n      pop\n        /* \"#utility.yul\":2546:2579   */\n      tag_133\n        /* \"#utility.yul\":2573:2578   */\n      dup2\n        /* \"#utility.yul\":2546:2579   */\n      tag_73\n      jump\t// in\n    tag_133:\n        /* \"#utility.yul\":2446:2585   */\n      swap3\n      swap2\n      pop\n      pop\n      jump\t// out\n        /* \"#utility.yul\":2591:3354   */\n    tag_22:\n        /* \"#utility.yul\":2676:2682   */\n      0x00\n        /* \"#utility.yul\":2684:2690   */\n      dup1\n        /* \"#utility.yul\":2692:2698   */\n      0x00\n        /* \"#utility.yul\":2700:2706   */\n      dup1\n        /* \"#utility.yul\":2749:2752   */\n      0x80\n        /* \"#utility.yul\":2737:2746   */\n      dup6\n        /* \"#utility.yul\":2728:2735   */\n      dup8\n        /* \"#utility.yul\":2724:2747   */\n      sub\n        /* \"#utility.yul\":2720:2753   */\n      slt\n        /* \"#utility.yul\":2717:2837   */\n      iszero\n      tag_135\n      jumpi\n        /* \"#utility.yul\":2756:2835   */\n      tag_136\n      tag_61\n      jump\t// in\n    tag_136:\n        /* \"#utility.yul\":2717:2837   */\n    tag_135:\n        /* \"#utility.yul\":2876:2877   */\n      0x00\n        /* \"#utility.yul\":2901:2954   */\n      tag_137\n        /* \"#utility.yul\":2946:2953   */\n      dup8\n        /* \"#utility.yul\":2937:2943   */\n      dup3\n        /* \"#utility.yul\":2926:2935   */\n      dup9\n        /* \"#utility.yul\":2922:2944   */\n      add\n        /* \"#utility.yul\":2901:2954   */\n      tag_68\n      jump\t// in\n    tag_137:\n        /* \"#utility.yul\":2891:2954   */\n      swap5\n      pop\n        /* \"#utility.yul\":2847:2964   */\n      pop\n        /* \"#utility.yul\":3003:3005   */\n      0x20\n        /* \"#utility.yul\":3029:3081   */\n      tag_138\n        /* \"#utility.yul\":3073:3080   */\n      dup8\n        /* \"#utility.yul\":3064:3070   */\n      dup3\n        /* \"#utility.yul\":3053:3062   */\n      dup9\n        /* \"#utility.yul\":3049:3071   */\n      add\n        /* \"#utility.yul\":3029:3081   */\n      tag_71\n      jump\t// in\n    tag_138:\n        /* \"#utility.yul\":3019:3081   */\n      swap4\n      pop\n        /* \"#utility.yul\":2974:3091   */\n      pop\n        /* \"#utility.yul\":3130:3132   */\n      0x40\n        /* \"#utility.yul\":3156:3209   */\n      tag_139\n        /* \"#utility.yul\":3201:3208   */\n      dup8\n        /* \"#utility.yul\":3192:3198   */\n      dup3\n        /* \"#utility.yul\":3181:3190   */\n      dup9\n        /* \"#utility.yul\":3177:3199   */\n      add\n        /* \"#utility.yul\":3156:3209   */\n      tag_68\n      jump\t// in\n    tag_139:\n        /* \"#utility.yul\":3146:3209   */\n      swap3\n      pop\n        /* \"#utility.yul\":3101:3219   */\n      pop\n        /* \"#utility.yul\":3258:3260   */\n      0x60\n        /* \"#utility.yul\":3284:3337   */\n      tag_140\n        /* \"#utility.yul\":3329:3336   */\n      dup8\n        /* \"#utility.yul\":3320:3326   */\n      dup3\n        /* \"#utility.yul\":3309:3318   */\n      dup9\n        /* \"#utility.yul\":3305:3327   */\n      add\n        /* \"#utility.yul\":3284:3337   */\n      tag_74\n      jump\t// in\n    tag_140:\n        /* \"#utility.yul\":3274:3337   */\n      swap2\n      pop\n        /* \"#utility.yul\":3229:3347   */\n      pop\n        /* \"#utility.yul\":2591:3354   */\n      swap3\n      swap6\n      swap2\n      swap5\n      pop\n      swap3\n      pop\n      jump\t// out\n        /* \"#utility.yul\":3360:3478   */\n    tag_75:\n        /* \"#utility.yul\":3447:3471   */\n      tag_142\n        /* \"#utility.yul\":3465:3470   */\n      dup2\n        /* \"#utility.yul\":3447:3471   */\n      tag_72\n      jump\t// in\n    tag_142:\n        /* \"#utility.yul\":3442:3445   */\n      dup3\n        /* \"#utility.yul\":3435:3472   */\n      mstore\n        /* \"#utility.yul\":3360:3478   */\n      pop\n      pop\n      jump\t// out\n        /* \"#utility.yul\":3484:3706   */\n    tag_25:\n        /* \"#utility.yul\":3577:3581   */\n      0x00\n        /* \"#utility.yul\":3615:3617   */\n      0x20\n        /* \"#utility.yul\":3604:3613   */\n      dup3\n        /* \"#utility.yul\":3600:3618   */\n      add\n        /* \"#utility.yul\":3592:3618   */\n      swap1\n      pop\n        /* \"#utility.yul\":3628:3699   */\n      tag_144\n        /* \"#utility.yul\":3696:3697   */\n      0x00\n        /* \"#utility.yul\":3685:3694   */\n      dup4\n        /* \"#utility.yul\":3681:3698   */\n      add\n        /* \"#utility.yul\":3672:3678   */\n      dup5\n        /* \"#utility.yul\":3628:3699   */\n      tag_75\n      jump\t// in\n    tag_144:\n        /* \"#utility.yul\":3484:3706   */\n      swap3\n      swap2\n      pop\n      pop\n      jump\t// out\n        /* \"#utility.yul\":3712:3801   */\n    tag_76:\n        /* \"#utility.yul\":3746:3753   */\n      0x00\n        /* \"#utility.yul\":3789:3794   */\n      dup2\n        /* \"#utility.yul\":3786:3787   */\n      0x00\n        /* \"#utility.yul\":3775:3795   */\n      signextend\n        /* \"#utility.yul\":3764:3795   */\n      swap1\n      pop\n        /* \"#utility.yul\":3712:3801   */\n      swap2\n      swap1\n      pop\n      jump\t// out\n        /* \"#utility.yul\":3807:3923   */\n    tag_77:\n        /* \"#utility.yul\":3877:3898   */\n      tag_147\n        /* \"#utility.yul\":3892:3897   */\n      dup2\n        /* \"#utility.yul\":3877:3898   */\n      tag_76\n      jump\t// in\n    tag_147:\n        /* \"#utility.yul\":3870:3875   */\n      dup2\n        /* \"#utility.yul\":3867:3899   */\n      eq\n        /* \"#utility.yul\":3857:3917   */\n      tag_148\n      jumpi\n        /* \"#utility.yul\":3913:3914   */\n      0x00\n        /* \"#utility.yul\":3910:3911   */\n      dup1\n        /* \"#utility.yul\":3903:3915   */\n      revert\n        /* \"#utility.yul\":3857:3917   */\n    tag_148:\n        /* \"#utility.yul\":3807:3923   */\n      pop\n      jump\t// out\n        /* \"#utility.yul\":3929:4062   */\n    tag_78:\n        /* \"#utility.yul\":3972:3977   */\n      0x00\n        /* \"#utility.yul\":4010:4016   */\n      dup2\n        /* \"#utility.yul\":3997:4017   */\n      calldataload\n        /* \"#utility.yul\":3988:4017   */\n      swap1\n      pop\n        /* \"#utility.yul\":4026:4056   */\n      tag_150\n        /* \"#utility.yul\":4050:4055   */\n      dup2\n        /* \"#utility.yul\":4026:4056   */\n      tag_77\n      jump\t// in\n    tag_150:\n        /* \"#utility.yul\":3929:4062   */\n      swap3\n      swap2\n      pop\n      pop\n      jump\t// out\n        /* \"#utility.yul\":4068:4391   */\n    tag_29:\n        /* \"#utility.yul\":4124:4130   */\n      0x00\n        /* \"#utility.yul\":4173:4175   */\n      0x20\n        /* \"#utility.yul\":4161:4170   */\n      dup3\n        /* \"#utility.yul\":4152:4159   */\n      dup5\n        /* \"#utility.yul\":4148:4171   */\n      sub\n        /* \"#utility.yul\":4144:4176   */\n      slt\n        /* \"#utility.yul\":4141:4260   */\n      iszero\n      tag_152\n      jumpi\n        /* \"#utility.yul\":4179:4258   */\n      tag_153\n      tag_61\n      jump\t// in\n    tag_153:\n        /* \"#utility.yul\":4141:4260   */\n    tag_152:\n        /* \"#utility.yul\":4299:4300   */\n      0x00\n        /* \"#utility.yul\":4324:4374   */\n      tag_154\n        /* \"#utility.yul\":4366:4373   */\n      dup5\n        /* \"#utility.yul\":4357:4363   */\n      dup3\n        /* \"#utility.yul\":4346:4355   */\n      dup6\n        /* \"#utility.yul\":4342:4364   */\n      add\n        /* \"#utility.yul\":4324:4374   */\n      tag_78\n      jump\t// in\n    tag_154:\n        /* \"#utility.yul\":4314:4374   */\n      swap2\n      pop\n        /* \"#utility.yul\":4270:4384   */\n      pop\n        /* \"#utility.yul\":4068:4391   */\n      swap3\n      swap2\n      pop\n      pop\n      jump\t// out\n        /* \"#utility.yul\":4397:4495   */\n    tag_79:\n        /* \"#utility.yul\":4448:4454   */\n      0x00\n        /* \"#utility.yul\":4482:4487   */\n      dup2\n        /* \"#utility.yul\":4476:4488   */\n      mload\n        /* \"#utility.yul\":4466:4488   */\n      swap1\n      pop\n        /* \"#utility.yul\":4397:4495   */\n      swap2\n      swap1\n      pop\n      jump\t// out\n        /* \"#utility.yul\":4501:4669   */\n    tag_80:\n        /* \"#utility.yul\":4584:4595   */\n      0x00\n        /* \"#utility.yul\":4618:4624   */\n      dup3\n        /* \"#utility.yul\":4613:4616   */\n      dup3\n        /* \"#utility.yul\":4606:4625   */\n      mstore\n        /* \"#utility.yul\":4658:4662   */\n      0x20\n        /* \"#utility.yul\":4653:4656   */\n      dup3\n        /* \"#utility.yul\":4649:4663   */\n      add\n        /* \"#utility.yul\":4634:4663   */\n      swap1\n      pop\n        /* \"#utility.yul\":4501:4669   */\n      swap3\n      swap2\n      pop\n      pop\n      jump\t// out\n        /* \"#utility.yul\":4675:4982   */\n    tag_81:\n        /* \"#utility.yul\":4743:4744   */\n      0x00\n        /* \"#utility.yul\":4753:4866   */\n    tag_158:\n        /* \"#utility.yul\":4767:4773   */\n      dup4\n        /* \"#utility.yul\":4764:4765   */\n      dup2\n        /* \"#utility.yul\":4761:4774   */\n      lt\n        /* \"#utility.yul\":4753:4866   */\n      iszero\n      tag_160\n      jumpi\n        /* \"#utility.yul\":4852:4853   */\n      dup1\n        /* \"#utility.yul\":4847:4850   */\n      dup3\n        /* \"#utility.yul\":4843:4854   */\n      add\n        /* \"#utility.yul\":4837:4855   */\n      mload\n        /* \"#utility.yul\":4833:4834   */\n      dup2\n        /* \"#utility.yul\":4828:4831   */\n      dup5\n        /* \"#utility.yul\":4824:4835   */\n      add\n        /* \"#utility.yul\":4817:4856   */\n      mstore\n        /* \"#utility.yul\":4789:4791   */\n      0x20\n        /* \"#utility.yul\":4786:4787   */\n      dup2\n        /* \"#utility.yul\":4782:4792   */\n      add\n        /* \"#utility.yul\":4777:4792   */\n      swap1\n      pop\n        /* \"#utility.yul\":4753:4866   */\n      jump(tag_158)\n    tag_160:\n        /* \"#utility.yul\":4884:4890   */\n      dup4\n        /* \"#utility.yul\":4881:4882   */\n      dup2\n        /* \"#utility.yul\":4878:4891   */\n      gt\n        /* \"#utility.yul\":4875:4976   */\n      iszero\n      tag_161\n      jumpi\n        /* \"#utility.yul\":4964:4965   */\n      0x00\n        /* \"#utility.yul\":4955:4961   */\n      dup5\n        /* \"#utility.yul\":4950:4953   */\n      dup5\n        /* \"#utility.yul\":4946:4962   */\n      add\n        /* \"#utility.yul\":4939:4966   */\n      mstore\n        /* \"#utility.yul\":4875:4976   */\n    tag_161:\n        /* \"#utility.yul\":4724:4982   */\n      pop\n        /* \"#utility.yul\":4675:4982   */\n      pop\n      pop\n      pop\n      jump\t// out\n        /* \"#utility.yul\":4988:5090   */\n    tag_82:\n        /* \"#utility.yul\":5029:5035   */\n      0x00\n        /* \"#utility.yul\":5080:5082   */\n      0x1f\n        /* \"#utility.yul\":5076:5083   */\n      not\n        /* \"#utility.yul\":5071:5073   */\n      0x1f\n        /* \"#utility.yul\":5064:5069   */\n      dup4\n        /* \"#utility.yul\":5060:5074   */\n      add\n        /* \"#utility.yul\":5056:5084   */\n      and\n        /* \"#utility.yul\":5046:5084   */\n      swap1\n      pop\n        /* \"#utility.yul\":4988:5090   */\n      swap2\n      swap1\n      pop\n      jump\t// out\n        /* \"#utility.yul\":5096:5456   */\n    tag_83:\n        /* \"#utility.yul\":5182:5185   */\n      0x00\n        /* \"#utility.yul\":5210:5248   */\n      tag_164\n        /* \"#utility.yul\":5242:5247   */\n      dup3\n        /* \"#utility.yul\":5210:5248   */\n      tag_79\n      jump\t// in\n    tag_164:\n        /* \"#utility.yul\":5264:5334   */\n      tag_165\n        /* \"#utility.yul\":5327:5333   */\n      dup2\n        /* \"#utility.yul\":5322:5325   */\n      dup6\n        /* \"#utility.yul\":5264:5334   */\n      tag_80\n      jump\t// in\n    tag_165:\n        /* \"#utility.yul\":5257:5334   */\n      swap4\n      pop\n        /* \"#utility.yul\":5343:5395   */\n      tag_166\n        /* \"#utility.yul\":5388:5394   */\n      dup2\n        /* \"#utility.yul\":5383:5386   */\n      dup6\n        /* \"#utility.yul\":5376:5380   */\n      0x20\n        /* \"#utility.yul\":5369:5374   */\n      dup7\n        /* \"#utility.yul\":5365:5381   */\n      add\n        /* \"#utility.yul\":5343:5395   */\n      tag_81\n      jump\t// in\n    tag_166:\n        /* \"#utility.yul\":5420:5449   */\n      tag_167\n        /* \"#utility.yul\":5442:5448   */\n      dup2\n        /* \"#utility.yul\":5420:5449   */\n      tag_82\n      jump\t// in\n    tag_167:\n        /* \"#utility.yul\":5415:5418   */\n      dup5\n        /* \"#utility.yul\":5411:5450   */\n      add\n        /* \"#utility.yul\":5404:5450   */\n      swap2\n      pop\n        /* \"#utility.yul\":5186:5456   */\n      pop\n        /* \"#utility.yul\":5096:5456   */\n      swap3\n      swap2\n      pop\n      pop\n      jump\t// out\n        /* \"#utility.yul\":5462:5771   */\n    tag_32:\n        /* \"#utility.yul\":5573:5577   */\n      0x00\n        /* \"#utility.yul\":5611:5613   */\n      0x20\n        /* \"#utility.yul\":5600:5609   */\n      dup3\n        /* \"#utility.yul\":5596:5614   */\n      add\n        /* \"#utility.yul\":5588:5614   */\n      swap1\n      pop\n        /* \"#utility.yul\":5660:5669   */\n      dup2\n        /* \"#utility.yul\":5654:5658   */\n      dup2\n        /* \"#utility.yul\":5650:5670   */\n      sub\n        /* \"#utility.yul\":5646:5647   */\n      0x00\n        /* \"#utility.yul\":5635:5644   */\n      dup4\n        /* \"#utility.yul\":5631:5648   */\n      add\n        /* \"#utility.yul\":5624:5671   */\n      mstore\n        /* \"#utility.yul\":5688:5764   */\n      tag_169\n        /* \"#utility.yul\":5759:5763   */\n      dup2\n        /* \"#utility.yul\":5750:5756   */\n      dup5\n        /* \"#utility.yul\":5688:5764   */\n      tag_83\n      jump\t// in\n    tag_169:\n        /* \"#utility.yul\":5680:5764   */\n      swap1\n      pop\n        /* \"#utility.yul\":5462:5771   */\n      swap3\n      swap2\n      pop\n      pop\n      jump\t// out\n        /* \"#utility.yul\":5777:5856   */\n    tag_84:\n        /* \"#utility.yul\":5816:5823   */\n      0x00\n        /* \"#utility.yul\":5845:5850   */\n      dup2\n        /* \"#utility.yul\":5834:5850   */\n      swap1\n      pop\n        /* \"#utility.yul\":5777:5856   */\n      swap2\n      swap1\n      pop\n      jump\t// out\n        /* \"#utility.yul\":5862:6019   */\n    tag_85:\n        /* \"#utility.yul\":5967:6012   */\n      tag_172\n        /* \"#utility.yul\":5987:6011   */\n      tag_173\n        /* \"#utility.yul\":6005:6010   */\n      dup3\n        /* \"#utility.yul\":5987:6011   */\n      tag_58\n      jump\t// in\n    tag_173:\n        /* \"#utility.yul\":5967:6012   */\n      tag_84\n      jump\t// in\n    tag_172:\n        /* \"#utility.yul\":5962:5965   */\n      dup3\n        /* \"#utility.yul\":5955:6013   */\n      mstore\n        /* \"#utility.yul\":5862:6019   */\n      pop\n      pop\n      jump\t// out\n        /* \"#utility.yul\":6025:6103   */\n    tag_86:\n        /* \"#utility.yul\":6063:6070   */\n      0x00\n        /* \"#utility.yul\":6092:6097   */\n      dup2\n        /* \"#utility.yul\":6081:6097   */\n      swap1\n      pop\n        /* \"#utility.yul\":6025:6103   */\n      swap2\n      swap1\n      pop\n      jump\t// out\n        /* \"#utility.yul\":6109:6262   */\n    tag_87:\n        /* \"#utility.yul\":6212:6255   */\n      tag_176\n        /* \"#utility.yul\":6231:6254   */\n      tag_177\n        /* \"#utility.yul\":6248:6253   */\n      dup3\n        /* \"#utility.yul\":6231:6254   */\n      tag_69\n      jump\t// in\n    tag_177:\n        /* \"#utility.yul\":6212:6255   */\n      tag_86\n      jump\t// in\n    tag_176:\n        /* \"#utility.yul\":6207:6210   */\n      dup3\n        /* \"#utility.yul\":6200:6256   */\n      mstore\n        /* \"#utility.yul\":6109:6262   */\n      pop\n      pop\n      jump\t// out\n        /* \"#utility.yul\":6268:6347   */\n    tag_88:\n        /* \"#utility.yul\":6307:6314   */\n      0x00\n        /* \"#utility.yul\":6336:6341   */\n      dup2\n        /* \"#utility.yul\":6325:6341   */\n      swap1\n      pop\n        /* \"#utility.yul\":6268:6347   */\n      swap2\n      swap1\n      pop\n      jump\t// out\n        /* \"#utility.yul\":6353:6510   */\n    tag_89:\n        /* \"#utility.yul\":6458:6503   */\n      tag_180\n        /* \"#utility.yul\":6478:6502   */\n      tag_181\n        /* \"#utility.yul\":6496:6501   */\n      dup3\n        /* \"#utility.yul\":6478:6502   */\n      tag_72\n      jump\t// in\n    tag_181:\n        /* \"#utility.yul\":6458:6503   */\n      tag_88\n      jump\t// in\n    tag_180:\n        /* \"#utility.yul\":6453:6456   */\n      dup3\n        /* \"#utility.yul\":6446:6504   */\n      mstore\n        /* \"#utility.yul\":6353:6510   */\n      pop\n      pop\n      jump\t// out\n        /* \"#utility.yul\":6516:7187   */\n    tag_45:\n        /* \"#utility.yul\":6708:6711   */\n      0x00\n        /* \"#utility.yul\":6723:6798   */\n      tag_183\n        /* \"#utility.yul\":6794:6797   */\n      dup3\n        /* \"#utility.yul\":6785:6791   */\n      dup8\n        /* \"#utility.yul\":6723:6798   */\n      tag_85\n      jump\t// in\n    tag_183:\n        /* \"#utility.yul\":6823:6825   */\n      0x20\n        /* \"#utility.yul\":6818:6821   */\n      dup3\n        /* \"#utility.yul\":6814:6826   */\n      add\n        /* \"#utility.yul\":6807:6826   */\n      swap2\n      pop\n        /* \"#utility.yul\":6836:6909   */\n      tag_184\n        /* \"#utility.yul\":6905:6908   */\n      dup3\n        /* \"#utility.yul\":6896:6902   */\n      dup7\n        /* \"#utility.yul\":6836:6909   */\n      tag_87\n      jump\t// in\n    tag_184:\n        /* \"#utility.yul\":6934:6936   */\n      0x20\n        /* \"#utility.yul\":6929:6932   */\n      dup3\n        /* \"#utility.yul\":6925:6937   */\n      add\n        /* \"#utility.yul\":6918:6937   */\n      swap2\n      pop\n        /* \"#utility.yul\":6947:7020   */\n      tag_185\n        /* \"#utility.yul\":7016:7019   */\n      dup3\n        /* \"#utility.yul\":7007:7013   */\n      dup6\n        /* \"#utility.yul\":6947:7020   */\n      tag_87\n      jump\t// in\n    tag_185:\n        /* \"#utility.yul\":7045:7047   */\n      0x20\n        /* \"#utility.yul\":7040:7043   */\n      dup3\n        /* \"#utility.yul\":7036:7048   */\n      add\n        /* \"#utility.yul\":7029:7048   */\n      swap2\n      pop\n        /* \"#utility.yul\":7058:7133   */\n      tag_186\n        /* \"#utility.yul\":7129:7132   */\n      dup3\n        /* \"#utility.yul\":7120:7126   */\n      dup5\n        /* \"#utility.yul\":7058:7133   */\n      tag_89\n      jump\t// in\n    tag_186:\n        /* \"#utility.yul\":7158:7160   */\n      0x20\n        /* \"#utility.yul\":7153:7156   */\n      dup3\n        /* \"#utility.yul\":7149:7161   */\n      add\n        /* \"#utility.yul\":7142:7161   */\n      swap2\n      pop\n        /* \"#utility.yul\":7178:7181   */\n      dup2\n        /* \"#utility.yul\":7171:7181   */\n      swap1\n      pop\n        /* \"#utility.yul\":6516:7187   */\n      swap6\n      swap5\n      pop\n      pop\n      pop\n      pop\n      pop\n      jump\t// out\n        /* \"#utility.yul\":7193:7340   */\n    tag_90:\n        /* \"#utility.yul\":7294:7305   */\n      0x00\n        /* \"#utility.yul\":7331:7334   */\n      dup2\n        /* \"#utility.yul\":7316:7334   */\n      swap1\n      pop\n        /* \"#utility.yul\":7193:7340   */\n      swap3\n      swap2\n      pop\n      pop\n      jump\t// out\n        /* \"#utility.yul\":7346:7719   */\n    tag_91:\n        /* \"#utility.yul\":7450:7453   */\n      0x00\n        /* \"#utility.yul\":7478:7516   */\n      tag_189\n        /* \"#utility.yul\":7510:7515   */\n      dup3\n        /* \"#utility.yul\":7478:7516   */\n      tag_79\n      jump\t// in\n    tag_189:\n        /* \"#utility.yul\":7532:7620   */\n      tag_190\n        /* \"#utility.yul\":7613:7619   */\n      dup2\n        /* \"#utility.yul\":7608:7611   */\n      dup6\n        /* \"#utility.yul\":7532:7620   */\n      tag_90\n      jump\t// in\n    tag_190:\n        /* \"#utility.yul\":7525:7620   */\n      swap4\n      pop\n        /* \"#utility.yul\":7629:7681   */\n      tag_191\n        /* \"#utility.yul\":7674:7680   */\n      dup2\n        /* \"#utility.yul\":7669:7672   */\n      dup6\n        /* \"#utility.yul\":7662:7666   */\n      0x20\n        /* \"#utility.yul\":7655:7660   */\n      dup7\n        /* \"#utility.yul\":7651:7667   */\n      add\n        /* \"#utility.yul\":7629:7681   */\n      tag_81\n      jump\t// in\n    tag_191:\n        /* \"#utility.yul\":7706:7712   */\n      dup1\n        /* \"#utility.yul\":7701:7704   */\n      dup5\n        /* \"#utility.yul\":7697:7713   */\n      add\n        /* \"#utility.yul\":7690:7713   */\n      swap2\n      pop\n        /* \"#utility.yul\":7454:7719   */\n      pop\n        /* \"#utility.yul\":7346:7719   */\n      swap3\n      swap2\n      pop\n      pop\n      jump\t// out\n        /* \"#utility.yul\":7725:7996   */\n    tag_47:\n        /* \"#utility.yul\":7855:7858   */\n      0x00\n        /* \"#utility.yul\":7877:7970   */\n      tag_193\n        /* \"#utility.yul\":7966:7969   */\n      dup3\n        /* \"#utility.yul\":7957:7963   */\n      dup5\n        /* \"#utility.yul\":7877:7970   */\n      tag_91\n      jump\t// in\n    tag_193:\n        /* \"#utility.yul\":7870:7970   */\n      swap2\n      pop\n        /* \"#utility.yul\":7987:7990   */\n      dup2\n        /* \"#utility.yul\":7980:7990   */\n      swap1\n      pop\n        /* \"#utility.yul\":7725:7996   */\n      swap3\n      swap2\n      pop\n      pop\n      jump\t// out\n        /* \"#utility.yul\":8002:8145   */\n    tag_92:\n        /* \"#utility.yul\":8059:8064   */\n      0x00\n        /* \"#utility.yul\":8090:8096   */\n      dup2\n        /* \"#utility.yul\":8084:8097   */\n      mload\n        /* \"#utility.yul\":8075:8097   */\n      swap1\n      pop\n        /* \"#utility.yul\":8106:8139   */\n      tag_195\n        /* \"#utility.yul\":8133:8138   */\n      dup2\n        /* \"#utility.yul\":8106:8139   */\n      tag_73\n      jump\t// in\n    tag_195:\n        /* \"#utility.yul\":8002:8145   */\n      swap3\n      swap2\n      pop\n      pop\n      jump\t// out\n        /* \"#utility.yul\":8151:8502   */\n    tag_51:\n        /* \"#utility.yul\":8221:8227   */\n      0x00\n        /* \"#utility.yul\":8270:8272   */\n      0x20\n        /* \"#utility.yul\":8258:8267   */\n      dup3\n        /* \"#utility.yul\":8249:8256   */\n      dup5\n        /* \"#utility.yul\":8245:8268   */\n      sub\n        /* \"#utility.yul\":8241:8273   */\n      slt\n        /* \"#utility.yul\":8238:8357   */\n      iszero\n      tag_197\n      jumpi\n        /* \"#utility.yul\":8276:8355   */\n      tag_198\n      tag_61\n      jump\t// in\n    tag_198:\n        /* \"#utility.yul\":8238:8357   */\n    tag_197:\n        /* \"#utility.yul\":8396:8397   */\n      0x00\n        /* \"#utility.yul\":8421:8485   */\n      tag_199\n        /* \"#utility.yul\":8477:8484   */\n      dup5\n        /* \"#utility.yul\":8468:8474   */\n      dup3\n        /* \"#utility.yul\":8457:8466   */\n      dup6\n        /* \"#utility.yul\":8453:8475   */\n      add\n        /* \"#utility.yul\":8421:8485   */\n      tag_92\n      jump\t// in\n    tag_199:\n        /* \"#utility.yul\":8411:8485   */\n      swap2\n      pop\n        /* \"#utility.yul\":8367:8495   */\n      pop\n        /* \"#utility.yul\":8151:8502   */\n      swap3\n      swap2\n      pop\n      pop\n      jump\t// out\n        /* \"#utility.yul\":8508:8604   */\n    tag_93:\n        /* \"#utility.yul\":8542:8550   */\n      0x00\n        /* \"#utility.yul\":8591:8596   */\n      dup2\n        /* \"#utility.yul\":8586:8589   */\n      0xf8\n        /* \"#utility.yul\":8582:8597   */\n      shl\n        /* \"#utility.yul\":8561:8597   */\n      swap1\n      pop\n        /* \"#utility.yul\":8508:8604   */\n      swap2\n      swap1\n      pop\n      jump\t// out\n        /* \"#utility.yul\":8610:8702   */\n    tag_94:\n        /* \"#utility.yul\":8646:8653   */\n      0x00\n        /* \"#utility.yul\":8675:8696   */\n      tag_202\n        /* \"#utility.yul\":8690:8695   */\n      dup3\n        /* \"#utility.yul\":8675:8696   */\n      tag_93\n      jump\t// in\n    tag_202:\n        /* \"#utility.yul\":8664:8696   */\n      swap1\n      pop\n        /* \"#utility.yul\":8610:8702   */\n      swap2\n      swap1\n      pop\n      jump\t// out\n        /* \"#utility.yul\":8708:8853   */\n    tag_95:\n        /* \"#utility.yul\":8807:8846   */\n      tag_204\n        /* \"#utility.yul\":8824:8845   */\n      tag_205\n        /* \"#utility.yul\":8839:8844   */\n      dup3\n        /* \"#utility.yul\":8824:8845   */\n      tag_76\n      jump\t// in\n    tag_205:\n        /* \"#utility.yul\":8807:8846   */\n      tag_94\n      jump\t// in\n    tag_204:\n        /* \"#utility.yul\":8802:8805   */\n      dup3\n        /* \"#utility.yul\":8795:8847   */\n      mstore\n        /* \"#utility.yul\":8708:8853   */\n      pop\n      pop\n      jump\t// out\n        /* \"#utility.yul\":8859:9102   */\n    tag_54:\n        /* \"#utility.yul\":8965:8968   */\n      0x00\n        /* \"#utility.yul\":8980:9049   */\n      tag_207\n        /* \"#utility.yul\":9045:9048   */\n      dup3\n        /* \"#utility.yul\":9036:9042   */\n      dup5\n        /* \"#utility.yul\":8980:9049   */\n      tag_95\n      jump\t// in\n    tag_207:\n        /* \"#utility.yul\":9074:9075   */\n      0x01\n        /* \"#utility.yul\":9069:9072   */\n      dup3\n        /* \"#utility.yul\":9065:9076   */\n      add\n        /* \"#utility.yul\":9058:9076   */\n      swap2\n      pop\n        /* \"#utility.yul\":9093:9096   */\n      dup2\n        /* \"#utility.yul\":9086:9096   */\n      swap1\n      pop\n        /* \"#utility.yul\":8859:9102   */\n      swap3\n      swap2\n      pop\n      pop\n      jump\t// out\n\n    auxdata: 0xa26469706673582212200c844de09d92ede76c30d6f153d4aae0644c8481cb056f17cda583070951314764736f6c634300080b0033\n}\n",
				"bytecode": {
					"linkReferences": {},
					"object": "60806040526001805534801561001457600080fd5b50610795806100246000396000f3fe6080604052600436106100555760003560e01c8063722713f71461005a5780637bd703e814610085578063c21d593e146100c2578063c47e739a146100ff578063e8b5e51f1461013c578063f8b2cb4f14610146575b600080fd5b34801561006657600080fd5b5061006f610183565b60405161007c91906102d3565b60405180910390f35b34801561009157600080fd5b506100ac60048036038101906100a79190610351565b61018b565b6040516100b991906102d3565b60405180910390f35b3480156100ce57600080fd5b506100e960048036038101906100e49190610416565b61019d565b6040516100f6919061048c565b60405180910390f35b34801561010b57600080fd5b50610126600480360381019061012191906104e0565b610232565b60405161013391906105a6565b60405180910390f35b61014461025b565b005b34801561015257600080fd5b5061016d60048036038101906101689190610351565b610272565b60405161017a91906102d3565b60405180910390f35b600047905090565b600061019682610272565b9050919050565b60004294506001549350600091506000806002878784876040516020016101c7949392919061062b565b6040516020818303038152906040526040516101e391906106b5565b602060405180830381855afa158015610200573d6000803e3d6000fd5b5050506040513d601f19601f8201168201806040525081019061022391906106e1565b92508293505050949350505050565b6060816040516020016102459190610744565b6040516020818303038152906040529050919050565b670de0b6b3a764000034101561027057600080fd5b565b60008060008373ffffffffffffffffffffffffffffffffffffffff1673ffffffffffffffffffffffffffffffffffffffff168152602001908152602001600020549050919050565b6000819050919050565b6102cd816102ba565b82525050565b60006020820190506102e860008301846102c4565b92915050565b600080fd5b600073ffffffffffffffffffffffffffffffffffffffff82169050919050565b600061031e826102f3565b9050919050565b61032e81610313565b811461033957600080fd5b50565b60008135905061034b81610325565b92915050565b600060208284031215610367576103666102ee565b5b60006103758482850161033c565b91505092915050565b610387816102ba565b811461039257600080fd5b50565b6000813590506103a48161037e565b92915050565b6000819050919050565b6103bd816103aa565b81146103c857600080fd5b50565b6000813590506103da816103b4565b92915050565b6000819050919050565b6103f3816103e0565b81146103fe57600080fd5b50565b600081359050610410816103ea565b92915050565b600080600080608085870312156104305761042f6102ee565b5b600061043e87828801610395565b945050602061044f878288016103cb565b935050604061046087828801610395565b925050606061047187828801610401565b91505092959194509250565b610486816103e0565b82525050565b60006020820190506104a1600083018461047d565b92915050565b60008160000b9050919050565b6104bd816104a7565b81146104c857600080fd5b50565b6000813590506104da816104b4565b92915050565b6000602082840312156104f6576104f56102ee565b5b6000610504848285016104cb565b91505092915050565b600081519050919050565b600082825260208201905092915050565b60005b8381101561054757808201518184015260208101905061052c565b83811115610556576000848401525b50505050565b6000601f19601f8301169050919050565b60006105788261050d565b6105828185610518565b9350610592818560208601610529565b61059b8161055c565b840191505092915050565b600060208201905081810360008301526105c0818461056d565b905092915050565b6000819050919050565b6105e36105de826102ba565b6105c8565b82525050565b6000819050919050565b6106046105ff826103aa565b6105e9565b82525050565b6000819050919050565b610625610620826103e0565b61060a565b82525050565b600061063782876105d2565b60208201915061064782866105f3565b60208201915061065782856105f3565b6020820191506106678284610614565b60208201915081905095945050505050565b600081905092915050565b600061068f8261050d565b6106998185610679565b93506106a9818560208601610529565b80840191505092915050565b60006106c18284610684565b915081905092915050565b6000815190506106db816103ea565b92915050565b6000602082840312156106f7576106f66102ee565b5b6000610705848285016106cc565b91505092915050565b60008160f81b9050919050565b60006107268261070e565b9050919050565b61073e610739826104a7565b61071b565b82525050565b6000610750828461072d565b6001820191508190509291505056fea26469706673582212200c844de09d92ede76c30d6f153d4aae0644c8481cb056f17cda583070951314764736f6c634300080b0033",
					"opcodes": "PUSH1 0x80 PUSH1 0x40 MSTORE PUSH1 0x1 DUP1 SSTORE CALLVALUE DUP1 ISZERO PUSH2 0x14 JUMPI PUSH1 0x0 DUP1 REVERT JUMPDEST POP PUSH2 0x795 DUP1 PUSH2 0x24 PUSH1 0x0 CODECOPY PUSH1 0x0 RETURN INVALID PUSH1 0x80 PUSH1 0x40 MSTORE PUSH1 0x4 CALLDATASIZE LT PUSH2 0x55 JUMPI PUSH1 0x0 CALLDATALOAD PUSH1 0xE0 SHR DUP1 PUSH4 0x722713F7 EQ PUSH2 0x5A JUMPI DUP1 PUSH4 0x7BD703E8 EQ PUSH2 0x85 JUMPI DUP1 PUSH4 0xC21D593E EQ PUSH2 0xC2 JUMPI DUP1 PUSH4 0xC47E739A EQ PUSH2 0xFF JUMPI DUP1 PUSH4 0xE8B5E51F EQ PUSH2 0x13C JUMPI DUP1 PUSH4 0xF8B2CB4F EQ PUSH2 0x146 JUMPI JUMPDEST PUSH1 0x0 DUP1 REVERT JUMPDEST CALLVALUE DUP1 ISZERO PUSH2 0x66 JUMPI PUSH1 0x0 DUP1 REVERT JUMPDEST POP PUSH2 0x6F PUSH2 0x183 JUMP JUMPDEST PUSH1 0x40 MLOAD PUSH2 0x7C SWAP2 SWAP1 PUSH2 0x2D3 JUMP JUMPDEST PUSH1 0x40 MLOAD DUP1 SWAP2 SUB SWAP1 RETURN JUMPDEST CALLVALUE DUP1 ISZERO PUSH2 0x91 JUMPI PUSH1 0x0 DUP1 REVERT JUMPDEST POP PUSH2 0xAC PUSH1 0x4 DUP1 CALLDATASIZE SUB DUP2 ADD SWAP1 PUSH2 0xA7 SWAP2 SWAP1 PUSH2 0x351 JUMP JUMPDEST PUSH2 0x18B JUMP JUMPDEST PUSH1 0x40 MLOAD PUSH2 0xB9 SWAP2 SWAP1 PUSH2 0x2D3 JUMP JUMPDEST PUSH1 0x40 MLOAD DUP1 SWAP2 SUB SWAP1 RETURN JUMPDEST CALLVALUE DUP1 ISZERO PUSH2 0xCE JUMPI PUSH1 0x0 DUP1 REVERT JUMPDEST POP PUSH2 0xE9 PUSH1 0x4 DUP1 CALLDATASIZE SUB DUP2 ADD SWAP1 PUSH2 0xE4 SWAP2 SWAP1 PUSH2 0x416 JUMP JUMPDEST PUSH2 0x19D JUMP JUMPDEST PUSH1 0x40 MLOAD PUSH2 0xF6 SWAP2 SWAP1 PUSH2 0x48C JUMP JUMPDEST PUSH1 0x40 MLOAD DUP1 SWAP2 SUB SWAP1 RETURN JUMPDEST CALLVALUE DUP1 ISZERO PUSH2 0x10B JUMPI PUSH1 0x0 DUP1 REVERT JUMPDEST POP PUSH2 0x126 PUSH1 0x4 DUP1 CALLDATASIZE SUB DUP2 ADD SWAP1 PUSH2 0x121 SWAP2 SWAP1 PUSH2 0x4E0 JUMP JUMPDEST PUSH2 0x232 JUMP JUMPDEST PUSH1 0x40 MLOAD PUSH2 0x133 SWAP2 SWAP1 PUSH2 0x5A6 JUMP JUMPDEST PUSH1 0x40 MLOAD DUP1 SWAP2 SUB SWAP1 RETURN JUMPDEST PUSH2 0x144 PUSH2 0x25B JUMP JUMPDEST STOP JUMPDEST CALLVALUE DUP1 ISZERO PUSH2 0x152 JUMPI PUSH1 0x0 DUP1 REVERT JUMPDEST POP PUSH2 0x16D PUSH1 0x4 DUP1 CALLDATASIZE SUB DUP2 ADD SWAP1 PUSH2 0x168 SWAP2 SWAP1 PUSH2 0x351 JUMP JUMPDEST PUSH2 0x272 JUMP JUMPDEST PUSH1 0x40 MLOAD PUSH2 0x17A SWAP2 SWAP1 PUSH2 0x2D3 JUMP JUMPDEST PUSH1 0x40 MLOAD DUP1 SWAP2 SUB SWAP1 RETURN JUMPDEST PUSH1 0x0 SELFBALANCE SWAP1 POP SWAP1 JUMP JUMPDEST PUSH1 0x0 PUSH2 0x196 DUP3 PUSH2 0x272 JUMP JUMPDEST SWAP1 POP SWAP2 SWAP1 POP JUMP JUMPDEST PUSH1 0x0 TIMESTAMP SWAP5 POP PUSH1 0x1 SLOAD SWAP4 POP PUSH1 0x0 SWAP2 POP PUSH1 0x0 DUP1 PUSH1 0x2 DUP8 DUP8 DUP5 DUP8 PUSH1 0x40 MLOAD PUSH1 0x20 ADD PUSH2 0x1C7 SWAP5 SWAP4 SWAP3 SWAP2 SWAP1 PUSH2 0x62B JUMP JUMPDEST PUSH1 0x40 MLOAD PUSH1 0x20 DUP2 DUP4 SUB SUB DUP2 MSTORE SWAP1 PUSH1 0x40 MSTORE PUSH1 0x40 MLOAD PUSH2 0x1E3 SWAP2 SWAP1 PUSH2 0x6B5 JUMP JUMPDEST PUSH1 0x20 PUSH1 0x40 MLOAD DUP1 DUP4 SUB DUP2 DUP6 GAS STATICCALL ISZERO DUP1 ISZERO PUSH2 0x200 JUMPI RETURNDATASIZE PUSH1 0x0 DUP1 RETURNDATACOPY RETURNDATASIZE PUSH1 0x0 REVERT JUMPDEST POP POP POP PUSH1 0x40 MLOAD RETURNDATASIZE PUSH1 0x1F NOT PUSH1 0x1F DUP3 ADD AND DUP3 ADD DUP1 PUSH1 0x40 MSTORE POP DUP2 ADD SWAP1 PUSH2 0x223 SWAP2 SWAP1 PUSH2 0x6E1 JUMP JUMPDEST SWAP3 POP DUP3 SWAP4 POP POP POP SWAP5 SWAP4 POP POP POP POP JUMP JUMPDEST PUSH1 0x60 DUP2 PUSH1 0x40 MLOAD PUSH1 0x20 ADD PUSH2 0x245 SWAP2 SWAP1 PUSH2 0x744 JUMP JUMPDEST PUSH1 0x40 MLOAD PUSH1 0x20 DUP2 DUP4 SUB SUB DUP2 MSTORE SWAP1 PUSH1 0x40 MSTORE SWAP1 POP SWAP2 SWAP1 POP JUMP JUMPDEST PUSH8 0xDE0B6B3A7640000 CALLVALUE LT ISZERO PUSH2 0x270 JUMPI PUSH1 0x0 DUP1 REVERT JUMPDEST JUMP JUMPDEST PUSH1 0x0 DUP1 PUSH1 0x0 DUP4 PUSH20 0xFFFFFFFFFFFFFFFFFFFFFFFFFFFFFFFFFFFFFFFF AND PUSH20 0xFFFFFFFFFFFFFFFFFFFFFFFFFFFFFFFFFFFFFFFF AND DUP2 MSTORE PUSH1 0x20 ADD SWAP1 DUP2 MSTORE PUSH1 0x20 ADD PUSH1 0x0 KECCAK256 SLOAD SWAP1 POP SWAP2 SWAP1 POP JUMP JUMPDEST PUSH1 0x0 DUP2 SWAP1 POP SWAP2 SWAP1 POP JUMP JUMPDEST PUSH2 0x2CD DUP2 PUSH2 0x2BA JUMP JUMPDEST DUP3 MSTORE POP POP JUMP JUMPDEST PUSH1 0x0 PUSH1 0x20 DUP3 ADD SWAP1 POP PUSH2 0x2E8 PUSH1 0x0 DUP4 ADD DUP5 PUSH2 0x2C4 JUMP JUMPDEST SWAP3 SWAP2 POP POP JUMP JUMPDEST PUSH1 0x0 DUP1 REVERT JUMPDEST PUSH1 0x0 PUSH20 0xFFFFFFFFFFFFFFFFFFFFFFFFFFFFFFFFFFFFFFFF DUP3 AND SWAP1 POP SWAP2 SWAP1 POP JUMP JUMPDEST PUSH1 0x0 PUSH2 0x31E DUP3 PUSH2 0x2F3 JUMP JUMPDEST SWAP1 POP SWAP2 SWAP1 POP JUMP JUMPDEST PUSH2 0x32E DUP2 PUSH2 0x313 JUMP JUMPDEST DUP2 EQ PUSH2 0x339 JUMPI PUSH1 0x0 DUP1 REVERT JUMPDEST POP JUMP JUMPDEST PUSH1 0x0 DUP2 CALLDATALOAD SWAP1 POP PUSH2 0x34B DUP2 PUSH2 0x325 JUMP JUMPDEST SWAP3 SWAP2 POP POP JUMP JUMPDEST PUSH1 0x0 PUSH1 0x20 DUP3 DUP5 SUB SLT ISZERO PUSH2 0x367 JUMPI PUSH2 0x366 PUSH2 0x2EE JUMP JUMPDEST JUMPDEST PUSH1 0x0 PUSH2 0x375 DUP5 DUP3 DUP6 ADD PUSH2 0x33C JUMP JUMPDEST SWAP2 POP POP SWAP3 SWAP2 POP POP JUMP JUMPDEST PUSH2 0x387 DUP2 PUSH2 0x2BA JUMP JUMPDEST DUP2 EQ PUSH2 0x392 JUMPI PUSH1 0x0 DUP1 REVERT JUMPDEST POP JUMP JUMPDEST PUSH1 0x0 DUP2 CALLDATALOAD SWAP1 POP PUSH2 0x3A4 DUP2 PUSH2 0x37E JUMP JUMPDEST SWAP3 SWAP2 POP POP JUMP JUMPDEST PUSH1 0x0 DUP2 SWAP1 POP SWAP2 SWAP1 POP JUMP JUMPDEST PUSH2 0x3BD DUP2 PUSH2 0x3AA JUMP JUMPDEST DUP2 EQ PUSH2 0x3C8 JUMPI PUSH1 0x0 DUP1 REVERT JUMPDEST POP JUMP JUMPDEST PUSH1 0x0 DUP2 CALLDATALOAD SWAP1 POP PUSH2 0x3DA DUP2 PUSH2 0x3B4 JUMP JUMPDEST SWAP3 SWAP2 POP POP JUMP JUMPDEST PUSH1 0x0 DUP2 SWAP1 POP SWAP2 SWAP1 POP JUMP JUMPDEST PUSH2 0x3F3 DUP2 PUSH2 0x3E0 JUMP JUMPDEST DUP2 EQ PUSH2 0x3FE JUMPI PUSH1 0x0 DUP1 REVERT JUMPDEST POP JUMP JUMPDEST PUSH1 0x0 DUP2 CALLDATALOAD SWAP1 POP PUSH2 0x410 DUP2 PUSH2 0x3EA JUMP JUMPDEST SWAP3 SWAP2 POP POP JUMP JUMPDEST PUSH1 0x0 DUP1 PUSH1 0x0 DUP1 PUSH1 0x80 DUP6 DUP8 SUB SLT ISZERO PUSH2 0x430 JUMPI PUSH2 0x42F PUSH2 0x2EE JUMP JUMPDEST JUMPDEST PUSH1 0x0 PUSH2 0x43E DUP8 DUP3 DUP9 ADD PUSH2 0x395 JUMP JUMPDEST SWAP5 POP POP PUSH1 0x20 PUSH2 0x44F DUP8 DUP3 DUP9 ADD PUSH2 0x3CB JUMP JUMPDEST SWAP4 POP POP PUSH1 0x40 PUSH2 0x460 DUP8 DUP3 DUP9 ADD PUSH2 0x395 JUMP JUMPDEST SWAP3 POP POP PUSH1 0x60 PUSH2 0x471 DUP8 DUP3 DUP9 ADD PUSH2 0x401 JUMP JUMPDEST SWAP2 POP POP SWAP3 SWAP6 SWAP2 SWAP5 POP SWAP3 POP JUMP JUMPDEST PUSH2 0x486 DUP2 PUSH2 0x3E0 JUMP JUMPDEST DUP3 MSTORE POP POP JUMP JUMPDEST PUSH1 0x0 PUSH1 0x20 DUP3 ADD SWAP1 POP PUSH2 0x4A1 PUSH1 0x0 DUP4 ADD DUP5 PUSH2 0x47D JUMP JUMPDEST SWAP3 SWAP2 POP POP JUMP JUMPDEST PUSH1 0x0 DUP2 PUSH1 0x0 SIGNEXTEND SWAP1 POP SWAP2 SWAP1 POP JUMP JUMPDEST PUSH2 0x4BD DUP2 PUSH2 0x4A7 JUMP JUMPDEST DUP2 EQ PUSH2 0x4C8 JUMPI PUSH1 0x0 DUP1 REVERT JUMPDEST POP JUMP JUMPDEST PUSH1 0x0 DUP2 CALLDATALOAD SWAP1 POP PUSH2 0x4DA DUP2 PUSH2 0x4B4 JUMP JUMPDEST SWAP3 SWAP2 POP POP JUMP JUMPDEST PUSH1 0x0 PUSH1 0x20 DUP3 DUP5 SUB SLT ISZERO PUSH2 0x4F6 JUMPI PUSH2 0x4F5 PUSH2 0x2EE JUMP JUMPDEST JUMPDEST PUSH1 0x0 PUSH2 0x504 DUP5 DUP3 DUP6 ADD PUSH2 0x4CB JUMP JUMPDEST SWAP2 POP POP SWAP3 SWAP2 POP POP JUMP JUMPDEST PUSH1 0x0 DUP2 MLOAD SWAP1 POP SWAP2 SWAP1 POP JUMP JUMPDEST PUSH1 0x0 DUP3 DUP3 MSTORE PUSH1 0x20 DUP3 ADD SWAP1 POP SWAP3 SWAP2 POP POP JUMP JUMPDEST PUSH1 0x0 JUMPDEST DUP4 DUP2 LT ISZERO PUSH2 0x547 JUMPI DUP1 DUP3 ADD MLOAD DUP2 DUP5 ADD MSTORE PUSH1 0x20 DUP2 ADD SWAP1 POP PUSH2 0x52C JUMP JUMPDEST DUP4 DUP2 GT ISZERO PUSH2 0x556 JUMPI PUSH1 0x0 DUP5 DUP5 ADD MSTORE JUMPDEST POP POP POP POP JUMP JUMPDEST PUSH1 0x0 PUSH1 0x1F NOT PUSH1 0x1F DUP4 ADD AND SWAP1 POP SWAP2 SWAP1 POP JUMP JUMPDEST PUSH1 0x0 PUSH2 0x578 DUP3 PUSH2 0x50D JUMP JUMPDEST PUSH2 0x582 DUP2 DUP6 PUSH2 0x518 JUMP JUMPDEST SWAP4 POP PUSH2 0x592 DUP2 DUP6 PUSH1 0x20 DUP7 ADD PUSH2 0x529 JUMP JUMPDEST PUSH2 0x59B DUP2 PUSH2 0x55C JUMP JUMPDEST DUP5 ADD SWAP2 POP POP SWAP3 SWAP2 POP POP JUMP JUMPDEST PUSH1 0x0 PUSH1 0x20 DUP3 ADD SWAP1 POP DUP2 DUP2 SUB PUSH1 0x0 DUP4 ADD MSTORE PUSH2 0x5C0 DUP2 DUP5 PUSH2 0x56D JUMP JUMPDEST SWAP1 POP SWAP3 SWAP2 POP POP JUMP JUMPDEST PUSH1 0x0 DUP2 SWAP1 POP SWAP2 SWAP1 POP JUMP JUMPDEST PUSH2 0x5E3 PUSH2 0x5DE DUP3 PUSH2 0x2BA JUMP JUMPDEST PUSH2 0x5C8 JUMP JUMPDEST DUP3 MSTORE POP POP JUMP JUMPDEST PUSH1 0x0 DUP2 SWAP1 POP SWAP2 SWAP1 POP JUMP JUMPDEST PUSH2 0x604 PUSH2 0x5FF DUP3 PUSH2 0x3AA JUMP JUMPDEST PUSH2 0x5E9 JUMP JUMPDEST DUP3 MSTORE POP POP JUMP JUMPDEST PUSH1 0x0 DUP2 SWAP1 POP SWAP2 SWAP1 POP JUMP JUMPDEST PUSH2 0x625 PUSH2 0x620 DUP3 PUSH2 0x3E0 JUMP JUMPDEST PUSH2 0x60A JUMP JUMPDEST DUP3 MSTORE POP POP JUMP JUMPDEST PUSH1 0x0 PUSH2 0x637 DUP3 DUP8 PUSH2 0x5D2 JUMP JUMPDEST PUSH1 0x20 DUP3 ADD SWAP2 POP PUSH2 0x647 DUP3 DUP7 PUSH2 0x5F3 JUMP JUMPDEST PUSH1 0x20 DUP3 ADD SWAP2 POP PUSH2 0x657 DUP3 DUP6 PUSH2 0x5F3 JUMP JUMPDEST PUSH1 0x20 DUP3 ADD SWAP2 POP PUSH2 0x667 DUP3 DUP5 PUSH2 0x614 JUMP JUMPDEST PUSH1 0x20 DUP3 ADD SWAP2 POP DUP2 SWAP1 POP SWAP6 SWAP5 POP POP POP POP POP JUMP JUMPDEST PUSH1 0x0 DUP2 SWAP1 POP SWAP3 SWAP2 POP POP JUMP JUMPDEST PUSH1 0x0 PUSH2 0x68F DUP3 PUSH2 0x50D JUMP JUMPDEST PUSH2 0x699 DUP2 DUP6 PUSH2 0x679 JUMP JUMPDEST SWAP4 POP PUSH2 0x6A9 DUP2 DUP6 PUSH1 0x20 DUP7 ADD PUSH2 0x529 JUMP JUMPDEST DUP1 DUP5 ADD SWAP2 POP POP SWAP3 SWAP2 POP POP JUMP JUMPDEST PUSH1 0x0 PUSH2 0x6C1 DUP3 DUP5 PUSH2 0x684 JUMP JUMPDEST SWAP2 POP DUP2 SWAP1 POP SWAP3 SWAP2 POP POP JUMP JUMPDEST PUSH1 0x0 DUP2 MLOAD SWAP1 POP PUSH2 0x6DB DUP2 PUSH2 0x3EA JUMP JUMPDEST SWAP3 SWAP2 POP POP JUMP JUMPDEST PUSH1 0x0 PUSH1 0x20 DUP3 DUP5 SUB SLT ISZERO PUSH2 0x6F7 JUMPI PUSH2 0x6F6 PUSH2 0x2EE JUMP JUMPDEST JUMPDEST PUSH1 0x0 PUSH2 0x705 DUP5 DUP3 DUP6 ADD PUSH2 0x6CC JUMP JUMPDEST SWAP2 POP POP SWAP3 SWAP2 POP POP JUMP JUMPDEST PUSH1 0x0 DUP2 PUSH1 0xF8 SHL SWAP1 POP SWAP2 SWAP1 POP JUMP JUMPDEST PUSH1 0x0 PUSH2 0x726 DUP3 PUSH2 0x70E JUMP JUMPDEST SWAP1 POP SWAP2 SWAP1 POP JUMP JUMPDEST PUSH2 0x73E PUSH2 0x739 DUP3 PUSH2 0x4A7 JUMP JUMPDEST PUSH2 0x71B JUMP JUMPDEST DUP3 MSTORE POP POP JUMP JUMPDEST PUSH1 0x0 PUSH2 0x750 DUP3 DUP5 PUSH2 0x72D JUMP JUMPDEST PUSH1 0x1 DUP3 ADD SWAP2 POP DUP2 SWAP1 POP SWAP3 SWAP2 POP POP JUMP INVALID LOG2 PUSH5 0x6970667358 0x22 SLT KECCAK256 0xC DUP5 0x4D 0xE0 SWAP14 SWAP3 0xED 0xE7 PUSH13 0x30D6F153D4AAE0644C8481CB05 PUSH16 0x17CDA583070951314764736F6C634300 ADDMOD SIGNEXTEND STOP CALLER "
				},
				"gasEstimates": {
					"creation": {
						"codeDepositCost": "388200",
						"executionCost": "22530",
						"totalCost": "410730"
					},
					"external": {
						"Block(uint256,int256,uint256,bytes32)": "infinite",
						"balanceOf()": "317",
						"encodeInt8(int8)": "infinite",
						"getBalance(address)": "2929",
						"getBalanceInEth(address)": "2884",
						"invest()": "211"
					}
				},
				"methodIdentifiers": {
					"Block(uint256,int256,uint256,bytes32)": "c21d593e",
					"balanceOf()": "722713f7",
					"encodeInt8(int8)": "c47e739a",
					"getBalance(address)": "f8b2cb4f",
					"getBalanceInEth(address)": "7bd703e8",
					"invest()": "e8b5e51f"
				}
			},
			"storageLayout": {
				"storage": [
					{
						"astId": 5,
						"contract": "contracts/transact.sol:transact",
						"label": "balances",
						"offset": 0,
						"slot": "0",
						"type": "t_mapping(t_address,t_uint256)"
					},
					{
						"astId": 8,
						"contract": "contracts/transact.sol:transact",
						"label": "trans",
						"offset": 0,
						"slot": "1",
						"type": "t_int256"
					}
				],
				"types": {
					"t_address": {
						"encoding": "inplace",
						"label": "address",
						"numberOfBytes": "20"
					},
					"t_int256": {
						"encoding": "inplace",
						"label": "int256",
						"numberOfBytes": "32"
					},
					"t_mapping(t_address,t_uint256)": {
						"encoding": "mapping",
						"key": "t_address",
						"label": "mapping(address => uint256)",
						"numberOfBytes": "32",
						"value": "t_uint256"
					},
					"t_uint256": {
						"encoding": "inplace",
						"label": "uint256",
						"numberOfBytes": "32"
					}
				}
			},
			"userdoc": {
				"kind": "user",
				"methods": {},
				"version": 1
			}
		}
	}
}