{
	"contracts/auction.sol": {
		"Auction": {
			"abi": [
				{
					"inputs": [],
					"stateMutability": "nonpayable",
					"type": "constructor"
				},
				{
					"inputs": [
						{
							"internalType": "int256",
							"name": "transactions",
							"type": "int256"
						}
					],
					"name": "Block",
					"outputs": [
						{
							"internalType": "bytes32",
							"name": "hashin",
							"type": "bytes32"
						}
					],
					"stateMutability": "view",
					"type": "function"
				},
				{
					"inputs": [],
					"name": "auctionState",
					"outputs": [
						{
							"internalType": "enum Auction.Auction_State",
							"name": "",
							"type": "uint8"
						}
					],
					"stateMutability": "view",
					"type": "function"
				},
				{
					"inputs": [],
					"name": "auctioneer",
					"outputs": [
						{
							"internalType": "address payable",
							"name": "",
							"type": "address"
						}
					],
					"stateMutability": "view",
					"type": "function"
				},
				{
					"inputs": [],
					"name": "bid",
					"outputs": [],
					"stateMutability": "payable",
					"type": "function"
				},
				{
					"inputs": [],
					"name": "bid_Increment",
					"outputs": [
						{
							"internalType": "uint256",
							"name": "",
							"type": "uint256"
						}
					],
					"stateMutability": "view",
					"type": "function"
				},
				{
					"inputs": [
						{
							"internalType": "address",
							"name": "",
							"type": "address"
						}
					],
					"name": "bids",
					"outputs": [
						{
							"internalType": "uint256",
							"name": "",
							"type": "uint256"
						}
					],
					"stateMutability": "view",
					"type": "function"
				},
				{
					"inputs": [],
					"name": "cancelAuc",
					"outputs": [],
					"stateMutability": "nonpayable",
					"type": "function"
				},
				{
					"inputs": [],
					"name": "endAuc",
					"outputs": [],
					"stateMutability": "nonpayable",
					"type": "function"
				},
				{
					"inputs": [],
					"name": "etblock",
					"outputs": [
						{
							"internalType": "uint256",
							"name": "",
							"type": "uint256"
						}
					],
					"stateMutability": "view",
					"type": "function"
				},
				{
					"inputs": [],
					"name": "finalizeAuc",
					"outputs": [],
					"stateMutability": "nonpayable",
					"type": "function"
				},
				{
					"inputs": [
						{
							"internalType": "address",
							"name": "addr",
							"type": "address"
						}
					],
					"name": "getBalance",
					"outputs": [
						{
							"internalType": "uint256",
							"name": "",
							"type": "uint256"
						}
					],
					"stateMutability": "view",
					"type": "function"
				},
				{
					"inputs": [],
					"name": "highestBidder",
					"outputs": [
						{
							"internalType": "address payable",
							"name": "",
							"type": "address"
						}
					],
					"stateMutability": "view",
					"type": "function"
				},
				{
					"inputs": [],
					"name": "highest_payable_bid",
					"outputs": [
						{
							"internalType": "uint256",
							"name": "",
							"type": "uint256"
						}
					],
					"stateMutability": "view",
					"type": "function"
				},
				{
					"inputs": [],
					"name": "prevHash",
					"outputs": [
						{
							"internalType": "bytes32",
							"name": "hash",
							"type": "bytes32"
						}
					],
					"stateMutability": "view",
					"type": "function"
				},
				{
					"inputs": [],
					"name": "stblock",
					"outputs": [
						{
							"internalType": "uint256",
							"name": "",
							"type": "uint256"
						}
					],
					"stateMutability": "view",
					"type": "function"
				},
				{
					"inputs": [
						{
							"internalType": "address",
							"name": "",
							"type": "address"
						}
					],
					"name": "xp",
					"outputs": [
						{
							"internalType": "uint256",
							"name": "",
							"type": "uint256"
						}
					],
					"stateMutability": "view",
					"type": "function"
				}
			],
			"devdoc": {
				"kind": "dev",
				"methods": {},
				"version": 1
			},
			"evm": {
				"assembly": "    /* \"contracts/auction.sol\":62:3722  contract Auction{ ... */\n  mstore(0x40, 0x80)\n    /* \"contracts/auction.sol\":512:750  constructor(){... */\n  callvalue\n  dup1\n  iszero\n  tag_1\n  jumpi\n  0x00\n  dup1\n  revert\ntag_1:\n  pop\n    /* \"contracts/auction.sol\":557:567  msg.sender */\n  caller\n    /* \"contracts/auction.sol\":536:546  auctioneer */\n  0x00\n  dup1\n    /* \"contracts/auction.sol\":536:568  auctioneer = payable(msg.sender) */\n  0x0100\n  exp\n  dup2\n  sload\n  dup2\n  0xffffffffffffffffffffffffffffffffffffffff\n  mul\n  not\n  and\n  swap1\n  dup4\n  0xffffffffffffffffffffffffffffffffffffffff\n  and\n  mul\n  or\n  swap1\n  sstore\n  pop\n    /* \"contracts/auction.sol\":594:615  Auction_State.Running */\n  0x01\n    /* \"contracts/auction.sol\":579:591  auctionState */\n  0x03\n  0x00\n    /* \"contracts/auction.sol\":579:615  auctionState = Auction_State.Running */\n  0x0100\n  exp\n  dup2\n  sload\n  dup2\n  0xff\n  mul\n  not\n  and\n  swap1\n  dup4\n  0x03\n  dup2\n  gt\n  iszero\n  tag_4\n  jumpi\n  tag_5\n  tag_6\n  jump\t// in\ntag_5:\ntag_4:\n  mul\n  or\n  swap1\n  sstore\n  pop\n    /* \"contracts/auction.sol\":636:648  block.number */\n  number\n    /* \"contracts/auction.sol\":626:633  stblock */\n  0x01\n    /* \"contracts/auction.sol\":626:648  stblock = block.number */\n  dup2\n  swap1\n  sstore\n  pop\n    /* \"contracts/auction.sol\":679:682  240 */\n  0xf0\n    /* \"contracts/auction.sol\":669:676  stblock */\n  sload(0x01)\n    /* \"contracts/auction.sol\":669:682  stblock + 240 */\n  tag_7\n  swap2\n  swap1\n  tag_8\n  jump\t// in\ntag_7:\n    /* \"contracts/auction.sol\":659:666  etblock */\n  0x02\n    /* \"contracts/auction.sol\":659:682  etblock = stblock + 240 */\n  dup2\n  swap1\n  sstore\n  pop\n    /* \"contracts/auction.sol\":709:716  1 ether */\n  0x0de0b6b3a7640000\n    /* \"contracts/auction.sol\":693:706  bid_Increment */\n  0x05\n    /* \"contracts/auction.sol\":693:716  bid_Increment = 1 ether */\n  dup2\n  swap1\n  sstore\n  pop\n    /* \"contracts/auction.sol\":743:744  0 */\n  0x00\n    /* \"contracts/auction.sol\":727:729  xp */\n  0x07\n    /* \"contracts/auction.sol\":727:740  xp[tx.origin] */\n  0x00\n    /* \"contracts/auction.sol\":730:739  tx.origin */\n  origin\n    /* \"contracts/auction.sol\":727:740  xp[tx.origin] */\n  0xffffffffffffffffffffffffffffffffffffffff\n  and\n  0xffffffffffffffffffffffffffffffffffffffff\n  and\n  dup2\n  mstore\n  0x20\n  add\n  swap1\n  dup2\n  mstore\n  0x20\n  add\n  0x00\n  keccak256\n    /* \"contracts/auction.sol\":727:744  xp[tx.origin] = 0 */\n  dup2\n  swap1\n  sstore\n  pop\n    /* \"contracts/auction.sol\":62:3722  contract Auction{ ... */\n  jump(tag_9)\n    /* \"#utility.yul\":7:187   */\ntag_6:\n    /* \"#utility.yul\":55:132   */\n  0x4e487b7100000000000000000000000000000000000000000000000000000000\n    /* \"#utility.yul\":52:53   */\n  0x00\n    /* \"#utility.yul\":45:133   */\n  mstore\n    /* \"#utility.yul\":152:156   */\n  0x21\n    /* \"#utility.yul\":149:150   */\n  0x04\n    /* \"#utility.yul\":142:157   */\n  mstore\n    /* \"#utility.yul\":176:180   */\n  0x24\n    /* \"#utility.yul\":173:174   */\n  0x00\n    /* \"#utility.yul\":166:181   */\n  revert\n    /* \"#utility.yul\":193:270   */\ntag_10:\n    /* \"#utility.yul\":230:237   */\n  0x00\n    /* \"#utility.yul\":259:264   */\n  dup2\n    /* \"#utility.yul\":248:264   */\n  swap1\n  pop\n    /* \"#utility.yul\":193:270   */\n  swap2\n  swap1\n  pop\n  jump\t// out\n    /* \"#utility.yul\":276:456   */\ntag_11:\n    /* \"#utility.yul\":324:401   */\n  0x4e487b7100000000000000000000000000000000000000000000000000000000\n    /* \"#utility.yul\":321:322   */\n  0x00\n    /* \"#utility.yul\":314:402   */\n  mstore\n    /* \"#utility.yul\":421:425   */\n  0x11\n    /* \"#utility.yul\":418:419   */\n  0x04\n    /* \"#utility.yul\":411:426   */\n  mstore\n    /* \"#utility.yul\":445:449   */\n  0x24\n    /* \"#utility.yul\":442:443   */\n  0x00\n    /* \"#utility.yul\":435:450   */\n  revert\n    /* \"#utility.yul\":462:767   */\ntag_8:\n    /* \"#utility.yul\":502:505   */\n  0x00\n    /* \"#utility.yul\":521:541   */\n  tag_17\n    /* \"#utility.yul\":539:540   */\n  dup3\n    /* \"#utility.yul\":521:541   */\n  tag_10\n  jump\t// in\ntag_17:\n    /* \"#utility.yul\":516:541   */\n  swap2\n  pop\n    /* \"#utility.yul\":555:575   */\n  tag_18\n    /* \"#utility.yul\":573:574   */\n  dup4\n    /* \"#utility.yul\":555:575   */\n  tag_10\n  jump\t// in\ntag_18:\n    /* \"#utility.yul\":550:575   */\n  swap3\n  pop\n    /* \"#utility.yul\":709:710   */\n  dup3\n    /* \"#utility.yul\":641:707   */\n  0xffffffffffffffffffffffffffffffffffffffffffffffffffffffffffffffff\n    /* \"#utility.yul\":637:711   */\n  sub\n    /* \"#utility.yul\":634:635   */\n  dup3\n    /* \"#utility.yul\":631:712   */\n  gt\n    /* \"#utility.yul\":628:735   */\n  iszero\n  tag_19\n  jumpi\n    /* \"#utility.yul\":715:733   */\n  tag_20\n  tag_11\n  jump\t// in\ntag_20:\n    /* \"#utility.yul\":628:735   */\ntag_19:\n    /* \"#utility.yul\":759:760   */\n  dup3\n    /* \"#utility.yul\":756:757   */\n  dup3\n    /* \"#utility.yul\":752:761   */\n  add\n    /* \"#utility.yul\":745:761   */\n  swap1\n  pop\n    /* \"#utility.yul\":462:767   */\n  swap3\n  swap2\n  pop\n  pop\n  jump\t// out\n    /* \"contracts/auction.sol\":62:3722  contract Auction{ ... */\ntag_9:\n  dataSize(sub_0)\n  dup1\n  dataOffset(sub_0)\n  0x00\n  codecopy\n  0x00\n  return\nstop\n\nsub_0: assembly {\n        /* \"contracts/auction.sol\":62:3722  contract Auction{ ... */\n      mstore(0x40, 0x80)\n      jumpi(tag_1, lt(calldatasize, 0x04))\n      shr(0xe0, calldataload(0x00))\n      dup1\n      0x7fb45099\n      gt\n      tag_18\n      jumpi\n      dup1\n      0xa118be02\n      gt\n      tag_19\n      jumpi\n      dup1\n      0xa118be02\n      eq\n      tag_14\n      jumpi\n      dup1\n      0xce5bd041\n      eq\n      tag_15\n      jumpi\n      dup1\n      0xe07600bd\n      eq\n      tag_16\n      jumpi\n      dup1\n      0xf8b2cb4f\n      eq\n      tag_17\n      jumpi\n      jump(tag_1)\n    tag_19:\n      dup1\n      0x7fb45099\n      eq\n      tag_10\n      jumpi\n      dup1\n      0x8c6f2e82\n      eq\n      tag_11\n      jumpi\n      dup1\n      0x91f90157\n      eq\n      tag_12\n      jumpi\n      dup1\n      0x9d957d45\n      eq\n      tag_13\n      jumpi\n      jump(tag_1)\n    tag_18:\n      dup1\n      0x5ec2c7bf\n      gt\n      tag_20\n      jumpi\n      dup1\n      0x5ec2c7bf\n      eq\n      tag_6\n      jumpi\n      dup1\n      0x62ea82db\n      eq\n      tag_7\n      jumpi\n      dup1\n      0x69e9c066\n      eq\n      tag_8\n      jumpi\n      dup1\n      0x7eb695a1\n      eq\n      tag_9\n      jumpi\n      jump(tag_1)\n    tag_20:\n      dup1\n      0x0490cb74\n      eq\n      tag_2\n      jumpi\n      dup1\n      0x1998aeef\n      eq\n      tag_3\n      jumpi\n      dup1\n      0x2352f320\n      eq\n      tag_4\n      jumpi\n      dup1\n      0x3fdceefd\n      eq\n      tag_5\n      jumpi\n    tag_1:\n      0x00\n      dup1\n      revert\n        /* \"contracts/auction.sol\":427:462  mapping (address => uint) public xp */\n    tag_2:\n      callvalue\n      dup1\n      iszero\n      tag_21\n      jumpi\n      0x00\n      dup1\n      revert\n    tag_21:\n      pop\n      tag_22\n      0x04\n      dup1\n      calldatasize\n      sub\n      dup2\n      add\n      swap1\n      tag_23\n      swap2\n      swap1\n      tag_24\n      jump\t// in\n    tag_23:\n      tag_25\n      jump\t// in\n    tag_22:\n      mload(0x40)\n      tag_26\n      swap2\n      swap1\n      tag_27\n      jump\t// in\n    tag_26:\n      mload(0x40)\n      dup1\n      swap2\n      sub\n      swap1\n      return\n        /* \"contracts/auction.sol\":1488:2186  function bid() payable public notOwner started beforeEnding {... */\n    tag_3:\n      tag_28\n      tag_29\n      jump\t// in\n    tag_28:\n      stop\n        /* \"contracts/auction.sol\":1150:1240  function cancelAuc() public Owner{... */\n    tag_4:\n      callvalue\n      dup1\n      iszero\n      tag_30\n      jumpi\n      0x00\n      dup1\n      revert\n    tag_30:\n      pop\n      tag_31\n      tag_32\n      jump\t// in\n    tag_31:\n      stop\n        /* \"contracts/auction.sol\":1248:1331  function endAuc() public Owner{... */\n    tag_5:\n      callvalue\n      dup1\n      iszero\n      tag_33\n      jumpi\n      0x00\n      dup1\n      revert\n    tag_33:\n      pop\n      tag_34\n      tag_35\n      jump\t// in\n    tag_34:\n      stop\n        /* \"contracts/auction.sol\":88:121  address payable public auctioneer */\n    tag_6:\n      callvalue\n      dup1\n      iszero\n      tag_36\n      jumpi\n      0x00\n      dup1\n      revert\n    tag_36:\n      pop\n      tag_37\n      tag_38\n      jump\t// in\n    tag_37:\n      mload(0x40)\n      tag_39\n      swap2\n      swap1\n      tag_40\n      jump\t// in\n    tag_39:\n      mload(0x40)\n      dup1\n      swap2\n      sub\n      swap1\n      return\n        /* \"contracts/auction.sol\":469:505  mapping(address => uint) public bids */\n    tag_7:\n      callvalue\n      dup1\n      iszero\n      tag_41\n      jumpi\n      0x00\n      dup1\n      revert\n    tag_41:\n      pop\n      tag_42\n      0x04\n      dup1\n      calldatasize\n      sub\n      dup2\n      add\n      swap1\n      tag_43\n      swap2\n      swap1\n      tag_24\n      jump\t// in\n    tag_43:\n      tag_44\n      jump\t// in\n    tag_42:\n      mload(0x40)\n      tag_45\n      swap2\n      swap1\n      tag_27\n      jump\t// in\n    tag_45:\n      mload(0x40)\n      dup1\n      swap2\n      sub\n      swap1\n      return\n        /* \"contracts/auction.sol\":3649:3719  function prevHash()public view returns(bytes32 hash){... */\n    tag_8:\n      callvalue\n      dup1\n      iszero\n      tag_46\n      jumpi\n      0x00\n      dup1\n      revert\n    tag_46:\n      pop\n      tag_47\n      tag_48\n      jump\t// in\n    tag_47:\n      mload(0x40)\n      tag_49\n      swap2\n      swap1\n      tag_50\n      jump\t// in\n    tag_49:\n      mload(0x40)\n      dup1\n      swap2\n      sub\n      swap1\n      return\n        /* \"contracts/auction.sol\":312:343  uint public highest_payable_bid */\n    tag_9:\n      callvalue\n      dup1\n      iszero\n      tag_51\n      jumpi\n      0x00\n      dup1\n      revert\n    tag_51:\n      pop\n      tag_52\n      tag_53\n      jump\t// in\n    tag_52:\n      mload(0x40)\n      tag_54\n      swap2\n      swap1\n      tag_27\n      jump\t// in\n    tag_54:\n      mload(0x40)\n      dup1\n      swap2\n      sub\n      swap1\n      return\n        /* \"contracts/auction.sol\":270:303  Auction_State public auctionState */\n    tag_10:\n      callvalue\n      dup1\n      iszero\n      tag_55\n      jumpi\n      0x00\n      dup1\n      revert\n    tag_55:\n      pop\n      tag_56\n      tag_57\n      jump\t// in\n    tag_56:\n      mload(0x40)\n      tag_58\n      swap2\n      swap1\n      tag_59\n      jump\t// in\n    tag_58:\n      mload(0x40)\n      dup1\n      swap2\n      sub\n      swap1\n      return\n        /* \"contracts/auction.sol\":3319:3643  function Block(int transactions)public view returns(bytes32 hashin){... */\n    tag_11:\n      callvalue\n      dup1\n      iszero\n      tag_60\n      jumpi\n      0x00\n      dup1\n      revert\n    tag_60:\n      pop\n      tag_61\n      0x04\n      dup1\n      calldatasize\n      sub\n      dup2\n      add\n      swap1\n      tag_62\n      swap2\n      swap1\n      tag_63\n      jump\t// in\n    tag_62:\n      tag_64\n      jump\t// in\n    tag_61:\n      mload(0x40)\n      tag_65\n      swap2\n      swap1\n      tag_50\n      jump\t// in\n    tag_65:\n      mload(0x40)\n      dup1\n      swap2\n      sub\n      swap1\n      return\n        /* \"contracts/auction.sol\":384:420  address payable public highestBidder */\n    tag_12:\n      callvalue\n      dup1\n      iszero\n      tag_66\n      jumpi\n      0x00\n      dup1\n      revert\n    tag_66:\n      pop\n      tag_67\n      tag_68\n      jump\t// in\n    tag_67:\n      mload(0x40)\n      tag_69\n      swap2\n      swap1\n      tag_40\n      jump\t// in\n    tag_69:\n      mload(0x40)\n      dup1\n      swap2\n      sub\n      swap1\n      return\n        /* \"contracts/auction.sol\":168:187  uint public etblock */\n    tag_13:\n      callvalue\n      dup1\n      iszero\n      tag_70\n      jumpi\n      0x00\n      dup1\n      revert\n    tag_70:\n      pop\n      tag_71\n      tag_72\n      jump\t// in\n    tag_71:\n      mload(0x40)\n      tag_73\n      swap2\n      swap1\n      tag_27\n      jump\t// in\n    tag_73:\n      mload(0x40)\n      dup1\n      swap2\n      sub\n      swap1\n      return\n        /* \"contracts/auction.sol\":129:148  uint public stblock */\n    tag_14:\n      callvalue\n      dup1\n      iszero\n      tag_74\n      jumpi\n      0x00\n      dup1\n      revert\n    tag_74:\n      pop\n      tag_75\n      tag_76\n      jump\t// in\n    tag_75:\n      mload(0x40)\n      tag_77\n      swap2\n      swap1\n      tag_27\n      jump\t// in\n    tag_77:\n      mload(0x40)\n      dup1\n      swap2\n      sub\n      swap1\n      return\n        /* \"contracts/auction.sol\":350:375  uint public bid_Increment */\n    tag_15:\n      callvalue\n      dup1\n      iszero\n      tag_78\n      jumpi\n      0x00\n      dup1\n      revert\n    tag_78:\n      pop\n      tag_79\n      tag_80\n      jump\t// in\n    tag_79:\n      mload(0x40)\n      tag_81\n      swap2\n      swap1\n      tag_27\n      jump\t// in\n    tag_81:\n      mload(0x40)\n      dup1\n      swap2\n      sub\n      swap1\n      return\n        /* \"contracts/auction.sol\":2292:3313  function finalizeAuc() public{... */\n    tag_16:\n      callvalue\n      dup1\n      iszero\n      tag_82\n      jumpi\n      0x00\n      dup1\n      revert\n    tag_82:\n      pop\n      tag_83\n      tag_84\n      jump\t// in\n    tag_83:\n      stop\n        /* \"contracts/auction.sol\":2192:2286  function getBalance(address addr) public view returns(uint) {... */\n    tag_17:\n      callvalue\n      dup1\n      iszero\n      tag_85\n      jumpi\n      0x00\n      dup1\n      revert\n    tag_85:\n      pop\n      tag_86\n      0x04\n      dup1\n      calldatasize\n      sub\n      dup2\n      add\n      swap1\n      tag_87\n      swap2\n      swap1\n      tag_24\n      jump\t// in\n    tag_87:\n      tag_88\n      jump\t// in\n    tag_86:\n      mload(0x40)\n      tag_89\n      swap2\n      swap1\n      tag_27\n      jump\t// in\n    tag_89:\n      mload(0x40)\n      dup1\n      swap2\n      sub\n      swap1\n      return\n        /* \"contracts/auction.sol\":427:462  mapping (address => uint) public xp */\n    tag_25:\n      mstore(0x20, 0x07)\n      dup1\n      0x00\n      mstore\n      keccak256(0x00, 0x40)\n      0x00\n      swap2\n      pop\n      swap1\n      pop\n      sload\n      dup2\n      jump\t// out\n        /* \"contracts/auction.sol\":1488:2186  function bid() payable public notOwner started beforeEnding {... */\n    tag_29:\n        /* \"contracts/auction.sol\":810:820  auctioneer */\n      0x00\n      dup1\n      sload\n      swap1\n      0x0100\n      exp\n      swap1\n      div\n      0xffffffffffffffffffffffffffffffffffffffff\n      and\n        /* \"contracts/auction.sol\":796:820  msg.sender != auctioneer */\n      0xffffffffffffffffffffffffffffffffffffffff\n      and\n        /* \"contracts/auction.sol\":796:806  msg.sender */\n      caller\n        /* \"contracts/auction.sol\":796:820  msg.sender != auctioneer */\n      0xffffffffffffffffffffffffffffffffffffffff\n      and\n      eq\n      iszero\n        /* \"contracts/auction.sol\":788:840  require(msg.sender != auctioneer,\"Owner cannot bid\") */\n      tag_91\n      jumpi\n      mload(0x40)\n      0x08c379a000000000000000000000000000000000000000000000000000000000\n      dup2\n      mstore\n      0x04\n      add\n      tag_92\n      swap1\n      tag_93\n      jump\t// in\n    tag_92:\n      mload(0x40)\n      dup1\n      swap2\n      sub\n      swap1\n      revert\n    tag_91:\n        /* \"contracts/auction.sol\":1025:1032  stblock */\n      sload(0x01)\n        /* \"contracts/auction.sol\":1012:1024  block.number */\n      number\n        /* \"contracts/auction.sol\":1012:1032  block.number>stblock */\n      gt\n        /* \"contracts/auction.sol\":1004:1033  require(block.number>stblock) */\n      tag_95\n      jumpi\n      0x00\n      dup1\n      revert\n    tag_95:\n        /* \"contracts/auction.sol\":1114:1121  etblock */\n      sload(0x02)\n        /* \"contracts/auction.sol\":1101:1113  block.number */\n      number\n        /* \"contracts/auction.sol\":1101:1121  block.number<etblock */\n      lt\n        /* \"contracts/auction.sol\":1093:1122  require(block.number<etblock) */\n      tag_97\n      jumpi\n      0x00\n      dup1\n      revert\n    tag_97:\n        /* \"contracts/auction.sol\":1559:1573  address bidder */\n      0x00\n        /* \"contracts/auction.sol\":1592:1602  msg.sender */\n      caller\n        /* \"contracts/auction.sol\":1585:1602  bidder=msg.sender */\n      swap1\n      pop\n        /* \"contracts/auction.sol\":1637:1658  Auction_State.Running */\n      0x01\n        /* \"contracts/auction.sol\":1621:1658  auctionState == Auction_State.Running */\n      0x03\n      dup2\n      gt\n      iszero\n      tag_99\n      jumpi\n      tag_100\n      tag_101\n      jump\t// in\n    tag_100:\n    tag_99:\n        /* \"contracts/auction.sol\":1621:1633  auctionState */\n      0x03\n      0x00\n      swap1\n      sload\n      swap1\n      0x0100\n      exp\n      swap1\n      div\n      0xff\n      and\n        /* \"contracts/auction.sol\":1621:1658  auctionState == Auction_State.Running */\n      0x03\n      dup2\n      gt\n      iszero\n      tag_102\n      jumpi\n      tag_103\n      tag_101\n      jump\t// in\n    tag_103:\n    tag_102:\n      eq\n        /* \"contracts/auction.sol\":1613:1659  require(auctionState == Auction_State.Running) */\n      tag_104\n      jumpi\n      0x00\n      dup1\n      revert\n    tag_104:\n        /* \"contracts/auction.sol\":1690:1697  1 ether */\n      0x0de0b6b3a7640000\n        /* \"contracts/auction.sol\":1678:1687  msg.value */\n      callvalue\n        /* \"contracts/auction.sol\":1678:1697  msg.value>= 1 ether */\n      lt\n      iszero\n        /* \"contracts/auction.sol\":1670:1698  require(msg.value>= 1 ether) */\n      tag_105\n      jumpi\n      0x00\n      dup1\n      revert\n    tag_105:\n        /* \"contracts/auction.sol\":1711:1726  uint currentBid */\n      0x00\n        /* \"contracts/auction.sol\":1748:1757  msg.value */\n      callvalue\n        /* \"contracts/auction.sol\":1729:1733  bids */\n      0x08\n        /* \"contracts/auction.sol\":1729:1745  bids[msg.sender] */\n      0x00\n        /* \"contracts/auction.sol\":1734:1744  msg.sender */\n      caller\n        /* \"contracts/auction.sol\":1729:1745  bids[msg.sender] */\n      0xffffffffffffffffffffffffffffffffffffffff\n      and\n      0xffffffffffffffffffffffffffffffffffffffff\n      and\n      dup2\n      mstore\n      0x20\n      add\n      swap1\n      dup2\n      mstore\n      0x20\n      add\n      0x00\n      keccak256\n      sload\n        /* \"contracts/auction.sol\":1729:1757  bids[msg.sender] + msg.value */\n      tag_106\n      swap2\n      swap1\n      tag_107\n      jump\t// in\n    tag_106:\n        /* \"contracts/auction.sol\":1711:1757  uint currentBid = bids[msg.sender] + msg.value */\n      swap1\n      pop\n        /* \"contracts/auction.sol\":1788:1807  highest_payable_bid */\n      sload(0x04)\n        /* \"contracts/auction.sol\":1777:1787  currentBid */\n      dup2\n        /* \"contracts/auction.sol\":1777:1807  currentBid>highest_payable_bid */\n      gt\n        /* \"contracts/auction.sol\":1769:1808  require(currentBid>highest_payable_bid) */\n      tag_108\n      jumpi\n      0x00\n      dup1\n      revert\n    tag_108:\n        /* \"contracts/auction.sol\":1838:1848  currentBid */\n      dup1\n        /* \"contracts/auction.sol\":1819:1823  bids */\n      0x08\n        /* \"contracts/auction.sol\":1819:1835  bids[msg.sender] */\n      0x00\n        /* \"contracts/auction.sol\":1824:1834  msg.sender */\n      caller\n        /* \"contracts/auction.sol\":1819:1835  bids[msg.sender] */\n      0xffffffffffffffffffffffffffffffffffffffff\n      and\n      0xffffffffffffffffffffffffffffffffffffffff\n      and\n      dup2\n      mstore\n      0x20\n      add\n      swap1\n      dup2\n      mstore\n      0x20\n      add\n      0x00\n      keccak256\n        /* \"contracts/auction.sol\":1819:1848  bids[msg.sender] = currentBid */\n      dup2\n      swap1\n      sstore\n      pop\n        /* \"contracts/auction.sol\":1875:1879  bids */\n      0x08\n        /* \"contracts/auction.sol\":1875:1894  bids[highestBidder] */\n      0x00\n        /* \"contracts/auction.sol\":1880:1893  highestBidder */\n      0x06\n      0x00\n      swap1\n      sload\n      swap1\n      0x0100\n      exp\n      swap1\n      div\n      0xffffffffffffffffffffffffffffffffffffffff\n      and\n        /* \"contracts/auction.sol\":1875:1894  bids[highestBidder] */\n      0xffffffffffffffffffffffffffffffffffffffff\n      and\n      0xffffffffffffffffffffffffffffffffffffffff\n      and\n      dup2\n      mstore\n      0x20\n      add\n      swap1\n      dup2\n      mstore\n      0x20\n      add\n      0x00\n      keccak256\n      sload\n        /* \"contracts/auction.sol\":1864:1874  currentBid */\n      dup2\n        /* \"contracts/auction.sol\":1864:1894  currentBid<bids[highestBidder] */\n      lt\n        /* \"contracts/auction.sol\":1861:2155  if(currentBid<bids[highestBidder]){... */\n      iszero\n      tag_109\n      jumpi\n        /* \"contracts/auction.sol\":1932:1981  min(currentBid+bid_Increment,bids[highestBidder]) */\n      tag_110\n        /* \"contracts/auction.sol\":1947:1960  bid_Increment */\n      sload(0x05)\n        /* \"contracts/auction.sol\":1936:1946  currentBid */\n      dup3\n        /* \"contracts/auction.sol\":1936:1960  currentBid+bid_Increment */\n      tag_111\n      swap2\n      swap1\n      tag_107\n      jump\t// in\n    tag_111:\n        /* \"contracts/auction.sol\":1961:1965  bids */\n      0x08\n        /* \"contracts/auction.sol\":1961:1980  bids[highestBidder] */\n      0x00\n        /* \"contracts/auction.sol\":1966:1979  highestBidder */\n      0x06\n      0x00\n      swap1\n      sload\n      swap1\n      0x0100\n      exp\n      swap1\n      div\n      0xffffffffffffffffffffffffffffffffffffffff\n      and\n        /* \"contracts/auction.sol\":1961:1980  bids[highestBidder] */\n      0xffffffffffffffffffffffffffffffffffffffff\n      and\n      0xffffffffffffffffffffffffffffffffffffffff\n      and\n      dup2\n      mstore\n      0x20\n      add\n      swap1\n      dup2\n      mstore\n      0x20\n      add\n      0x00\n      keccak256\n      sload\n        /* \"contracts/auction.sol\":1932:1935  min */\n      tag_112\n        /* \"contracts/auction.sol\":1932:1981  min(currentBid+bid_Increment,bids[highestBidder]) */\n      jump\t// in\n    tag_110:\n        /* \"contracts/auction.sol\":1910:1929  highest_payable_bid */\n      0x04\n        /* \"contracts/auction.sol\":1910:1981  highest_payable_bid = min(currentBid+bid_Increment,bids[highestBidder]) */\n      dup2\n      swap1\n      sstore\n      pop\n        /* \"contracts/auction.sol\":1861:2155  if(currentBid<bids[highestBidder]){... */\n      jump(tag_113)\n    tag_109:\n        /* \"contracts/auction.sol\":2044:2093  min(currentBid,bids[highestBidder]+bid_Increment) */\n      tag_114\n        /* \"contracts/auction.sol\":2048:2058  currentBid */\n      dup2\n        /* \"contracts/auction.sol\":2079:2092  bid_Increment */\n      sload(0x05)\n        /* \"contracts/auction.sol\":2059:2063  bids */\n      0x08\n        /* \"contracts/auction.sol\":2059:2078  bids[highestBidder] */\n      0x00\n        /* \"contracts/auction.sol\":2064:2077  highestBidder */\n      0x06\n      0x00\n      swap1\n      sload\n      swap1\n      0x0100\n      exp\n      swap1\n      div\n      0xffffffffffffffffffffffffffffffffffffffff\n      and\n        /* \"contracts/auction.sol\":2059:2078  bids[highestBidder] */\n      0xffffffffffffffffffffffffffffffffffffffff\n      and\n      0xffffffffffffffffffffffffffffffffffffffff\n      and\n      dup2\n      mstore\n      0x20\n      add\n      swap1\n      dup2\n      mstore\n      0x20\n      add\n      0x00\n      keccak256\n      sload\n        /* \"contracts/auction.sol\":2059:2092  bids[highestBidder]+bid_Increment */\n      tag_115\n      swap2\n      swap1\n      tag_107\n      jump\t// in\n    tag_115:\n        /* \"contracts/auction.sol\":2044:2047  min */\n      tag_112\n        /* \"contracts/auction.sol\":2044:2093  min(currentBid,bids[highestBidder]+bid_Increment) */\n      jump\t// in\n    tag_114:\n        /* \"contracts/auction.sol\":2022:2041  highest_payable_bid */\n      0x04\n        /* \"contracts/auction.sol\":2022:2093  highest_payable_bid = min(currentBid,bids[highestBidder]+bid_Increment) */\n      dup2\n      swap1\n      sstore\n      pop\n        /* \"contracts/auction.sol\":2132:2142  msg.sender */\n      caller\n        /* \"contracts/auction.sol\":2108:2121  highestBidder */\n      0x06\n      0x00\n        /* \"contracts/auction.sol\":2108:2143  highestBidder = payable(msg.sender) */\n      0x0100\n      exp\n      dup2\n      sload\n      dup2\n      0xffffffffffffffffffffffffffffffffffffffff\n      mul\n      not\n      and\n      swap1\n      dup4\n      0xffffffffffffffffffffffffffffffffffffffff\n      and\n      mul\n      or\n      swap1\n      sstore\n      pop\n        /* \"contracts/auction.sol\":1861:2155  if(currentBid<bids[highestBidder]){... */\n    tag_113:\n        /* \"contracts/auction.sol\":2177:2178  1 */\n      0x01\n        /* \"contracts/auction.sol\":2165:2167  xp */\n      0x07\n        /* \"contracts/auction.sol\":2165:2175  xp[bidder] */\n      0x00\n        /* \"contracts/auction.sol\":2168:2174  bidder */\n      dup5\n        /* \"contracts/auction.sol\":2165:2175  xp[bidder] */\n      0xffffffffffffffffffffffffffffffffffffffff\n      and\n      0xffffffffffffffffffffffffffffffffffffffff\n      and\n      dup2\n      mstore\n      0x20\n      add\n      swap1\n      dup2\n      mstore\n      0x20\n      add\n      0x00\n      keccak256\n      0x00\n        /* \"contracts/auction.sol\":2165:2178  xp[bidder]+=1 */\n      dup3\n      dup3\n      sload\n      tag_116\n      swap2\n      swap1\n      tag_107\n      jump\t// in\n    tag_116:\n      swap3\n      pop\n      pop\n      dup2\n      swap1\n      sstore\n      pop\n        /* \"contracts/auction.sol\":1548:2186  {... */\n      pop\n      pop\n        /* \"contracts/auction.sol\":1488:2186  function bid() payable public notOwner started beforeEnding {... */\n      jump\t// out\n        /* \"contracts/auction.sol\":1150:1240  function cancelAuc() public Owner{... */\n    tag_32:\n        /* \"contracts/auction.sol\":917:927  auctioneer */\n      0x00\n      dup1\n      sload\n      swap1\n      0x0100\n      exp\n      swap1\n      div\n      0xffffffffffffffffffffffffffffffffffffffff\n      and\n        /* \"contracts/auction.sol\":903:927  msg.sender == auctioneer */\n      0xffffffffffffffffffffffffffffffffffffffff\n      and\n        /* \"contracts/auction.sol\":903:913  msg.sender */\n      caller\n        /* \"contracts/auction.sol\":903:927  msg.sender == auctioneer */\n      0xffffffffffffffffffffffffffffffffffffffff\n      and\n      eq\n        /* \"contracts/auction.sol\":895:947  require(msg.sender == auctioneer,\"Owner cannot bid\") */\n      tag_118\n      jumpi\n      mload(0x40)\n      0x08c379a000000000000000000000000000000000000000000000000000000000\n      dup2\n      mstore\n      0x04\n      add\n      tag_119\n      swap1\n      tag_93\n      jump\t// in\n    tag_119:\n      mload(0x40)\n      dup1\n      swap2\n      sub\n      swap1\n      revert\n    tag_118:\n        /* \"contracts/auction.sol\":1209:1232  Auction_State.Cancelled */\n      0x03\n        /* \"contracts/auction.sol\":1194:1206  auctionState */\n      dup1\n      0x00\n        /* \"contracts/auction.sol\":1194:1232  auctionState = Auction_State.Cancelled */\n      0x0100\n      exp\n      dup2\n      sload\n      dup2\n      0xff\n      mul\n      not\n      and\n      swap1\n      dup4\n      0x03\n      dup2\n      gt\n      iszero\n      tag_121\n      jumpi\n      tag_122\n      tag_101\n      jump\t// in\n    tag_122:\n    tag_121:\n      mul\n      or\n      swap1\n      sstore\n      pop\n        /* \"contracts/auction.sol\":1150:1240  function cancelAuc() public Owner{... */\n      jump\t// out\n        /* \"contracts/auction.sol\":1248:1331  function endAuc() public Owner{... */\n    tag_35:\n        /* \"contracts/auction.sol\":917:927  auctioneer */\n      0x00\n      dup1\n      sload\n      swap1\n      0x0100\n      exp\n      swap1\n      div\n      0xffffffffffffffffffffffffffffffffffffffff\n      and\n        /* \"contracts/auction.sol\":903:927  msg.sender == auctioneer */\n      0xffffffffffffffffffffffffffffffffffffffff\n      and\n        /* \"contracts/auction.sol\":903:913  msg.sender */\n      caller\n        /* \"contracts/auction.sol\":903:927  msg.sender == auctioneer */\n      0xffffffffffffffffffffffffffffffffffffffff\n      and\n      eq\n        /* \"contracts/auction.sol\":895:947  require(msg.sender == auctioneer,\"Owner cannot bid\") */\n      tag_124\n      jumpi\n      mload(0x40)\n      0x08c379a000000000000000000000000000000000000000000000000000000000\n      dup2\n      mstore\n      0x04\n      add\n      tag_125\n      swap1\n      tag_93\n      jump\t// in\n    tag_125:\n      mload(0x40)\n      dup1\n      swap2\n      sub\n      swap1\n      revert\n    tag_124:\n        /* \"contracts/auction.sol\":1304:1323  Auction_State.Ended */\n      0x02\n        /* \"contracts/auction.sol\":1289:1301  auctionState */\n      0x03\n      0x00\n        /* \"contracts/auction.sol\":1289:1323  auctionState = Auction_State.Ended */\n      0x0100\n      exp\n      dup2\n      sload\n      dup2\n      0xff\n      mul\n      not\n      and\n      swap1\n      dup4\n      0x03\n      dup2\n      gt\n      iszero\n      tag_127\n      jumpi\n      tag_128\n      tag_101\n      jump\t// in\n    tag_128:\n    tag_127:\n      mul\n      or\n      swap1\n      sstore\n      pop\n        /* \"contracts/auction.sol\":1248:1331  function endAuc() public Owner{... */\n      jump\t// out\n        /* \"contracts/auction.sol\":88:121  address payable public auctioneer */\n    tag_38:\n      0x00\n      dup1\n      sload\n      swap1\n      0x0100\n      exp\n      swap1\n      div\n      0xffffffffffffffffffffffffffffffffffffffff\n      and\n      dup2\n      jump\t// out\n        /* \"contracts/auction.sol\":469:505  mapping(address => uint) public bids */\n    tag_44:\n      mstore(0x20, 0x08)\n      dup1\n      0x00\n      mstore\n      keccak256(0x00, 0x40)\n      0x00\n      swap2\n      pop\n      swap1\n      pop\n      sload\n      dup2\n      jump\t// out\n        /* \"contracts/auction.sol\":3649:3719  function prevHash()public view returns(bytes32 hash){... */\n    tag_48:\n        /* \"contracts/auction.sol\":3688:3700  bytes32 hash */\n      0x00\n        /* \"contracts/auction.sol\":3649:3719  function prevHash()public view returns(bytes32 hash){... */\n      swap1\n      jump\t// out\n        /* \"contracts/auction.sol\":312:343  uint public highest_payable_bid */\n    tag_53:\n      sload(0x04)\n      dup2\n      jump\t// out\n        /* \"contracts/auction.sol\":270:303  Auction_State public auctionState */\n    tag_57:\n      0x03\n      0x00\n      swap1\n      sload\n      swap1\n      0x0100\n      exp\n      swap1\n      div\n      0xff\n      and\n      dup2\n      jump\t// out\n        /* \"contracts/auction.sol\":3319:3643  function Block(int transactions)public view returns(bytes32 hashin){... */\n    tag_64:\n        /* \"contracts/auction.sol\":3371:3385  bytes32 hashin */\n      0x00\n        /* \"contracts/auction.sol\":3417:3430  highestBidder */\n      0x06\n      0x00\n      swap1\n      sload\n      swap1\n      0x0100\n      exp\n      swap1\n      div\n      0xffffffffffffffffffffffffffffffffffffffff\n      and\n        /* \"contracts/auction.sol\":3405:3430  msg.sender==highestBidder */\n      0xffffffffffffffffffffffffffffffffffffffff\n      and\n        /* \"contracts/auction.sol\":3405:3415  msg.sender */\n      caller\n        /* \"contracts/auction.sol\":3405:3430  msg.sender==highestBidder */\n      0xffffffffffffffffffffffffffffffffffffffff\n      and\n      eq\n        /* \"contracts/auction.sol\":3397:3431  require(msg.sender==highestBidder) */\n      tag_131\n      jumpi\n      0x00\n      dup1\n      revert\n    tag_131:\n        /* \"contracts/auction.sol\":3441:3450  uint time */\n      0x00\n        /* \"contracts/auction.sol\":3452:3467  block.timestamp */\n      timestamp\n        /* \"contracts/auction.sol\":3441:3467  uint time= block.timestamp */\n      swap1\n      pop\n        /* \"contracts/auction.sol\":3476:3496  bytes32 previousHash */\n      0x00\n        /* \"contracts/auction.sol\":3498:3499  0 */\n      dup1\n        /* \"contracts/auction.sol\":3476:3499  bytes32 previousHash= 0 */\n      0x00\n      shl\n      swap1\n      pop\n        /* \"contracts/auction.sol\":3518:3574  sha256(abi.encodePacked(time,transactions,previousHash)) */\n      0x02\n        /* \"contracts/auction.sol\":3542:3546  time */\n      dup3\n        /* \"contracts/auction.sol\":3547:3559  transactions */\n      dup6\n        /* \"contracts/auction.sol\":3560:3572  previousHash */\n      dup4\n        /* \"contracts/auction.sol\":3525:3573  abi.encodePacked(time,transactions,previousHash) */\n      add(0x20, mload(0x40))\n      tag_132\n      swap4\n      swap3\n      swap2\n      swap1\n      tag_133\n      jump\t// in\n    tag_132:\n      mload(0x40)\n      0x20\n      dup2\n      dup4\n      sub\n      sub\n      dup2\n      mstore\n      swap1\n      0x40\n      mstore\n        /* \"contracts/auction.sol\":3518:3574  sha256(abi.encodePacked(time,transactions,previousHash)) */\n      mload(0x40)\n      tag_134\n      swap2\n      swap1\n      tag_135\n      jump\t// in\n    tag_134:\n      0x20\n      mload(0x40)\n      dup1\n      dup4\n      sub\n      dup2\n      dup6\n      gas\n      staticcall\n      iszero\n      dup1\n      iszero\n      tag_137\n      jumpi\n      returndatasize\n      0x00\n      dup1\n      returndatacopy\n      revert(0x00, returndatasize)\n    tag_137:\n      pop\n      pop\n      pop\n      mload(0x40)\n      returndatasize\n      not(0x1f)\n      0x1f\n      dup3\n      add\n      and\n      dup3\n      add\n      dup1\n      0x40\n      mstore\n      pop\n      dup2\n      add\n      swap1\n      tag_138\n      swap2\n      swap1\n      tag_139\n      jump\t// in\n    tag_138:\n        /* \"contracts/auction.sol\":3510:3574  hashin= sha256(abi.encodePacked(time,transactions,previousHash)) */\n      swap3\n      pop\n        /* \"contracts/auction.sol\":3598:3604  hashin */\n      dup3\n        /* \"contracts/auction.sol\":3585:3604  previousHash=hashin */\n      swap1\n      pop\n        /* \"contracts/auction.sol\":3615:3629  return(hashin) */\n      pop\n      pop\n        /* \"contracts/auction.sol\":3319:3643  function Block(int transactions)public view returns(bytes32 hashin){... */\n      swap2\n      swap1\n      pop\n      jump\t// out\n        /* \"contracts/auction.sol\":384:420  address payable public highestBidder */\n    tag_68:\n      0x06\n      0x00\n      swap1\n      sload\n      swap1\n      0x0100\n      exp\n      swap1\n      div\n      0xffffffffffffffffffffffffffffffffffffffff\n      and\n      dup2\n      jump\t// out\n        /* \"contracts/auction.sol\":168:187  uint public etblock */\n    tag_72:\n      sload(0x02)\n      dup2\n      jump\t// out\n        /* \"contracts/auction.sol\":129:148  uint public stblock */\n    tag_76:\n      sload(0x01)\n      dup2\n      jump\t// out\n        /* \"contracts/auction.sol\":350:375  uint public bid_Increment */\n    tag_80:\n      sload(0x05)\n      dup2\n      jump\t// out\n        /* \"contracts/auction.sol\":2292:3313  function finalizeAuc() public{... */\n    tag_84:\n        /* \"contracts/auction.sol\":2356:2379  Auction_State.Cancelled */\n      0x03\n        /* \"contracts/auction.sol\":2340:2379  auctionState == Auction_State.Cancelled */\n      dup1\n      dup2\n      gt\n      iszero\n      tag_141\n      jumpi\n      tag_142\n      tag_101\n      jump\t// in\n    tag_142:\n    tag_141:\n        /* \"contracts/auction.sol\":2340:2352  auctionState */\n      0x03\n      0x00\n      swap1\n      sload\n      swap1\n      0x0100\n      exp\n      swap1\n      div\n      0xff\n      and\n        /* \"contracts/auction.sol\":2340:2379  auctionState == Auction_State.Cancelled */\n      0x03\n      dup2\n      gt\n      iszero\n      tag_143\n      jumpi\n      tag_144\n      tag_101\n      jump\t// in\n    tag_144:\n    tag_143:\n      eq\n        /* \"contracts/auction.sol\":2340:2418  auctionState == Auction_State.Cancelled || auctionState == Auction_State.Ended */\n      dup1\n      tag_145\n      jumpi\n      pop\n        /* \"contracts/auction.sol\":2399:2418  Auction_State.Ended */\n      0x02\n        /* \"contracts/auction.sol\":2383:2418  auctionState == Auction_State.Ended */\n      0x03\n      dup2\n      gt\n      iszero\n      tag_146\n      jumpi\n      tag_147\n      tag_101\n      jump\t// in\n    tag_147:\n    tag_146:\n        /* \"contracts/auction.sol\":2383:2395  auctionState */\n      0x03\n      0x00\n      swap1\n      sload\n      swap1\n      0x0100\n      exp\n      swap1\n      div\n      0xff\n      and\n        /* \"contracts/auction.sol\":2383:2418  auctionState == Auction_State.Ended */\n      0x03\n      dup2\n      gt\n      iszero\n      tag_148\n      jumpi\n      tag_149\n      tag_101\n      jump\t// in\n    tag_149:\n    tag_148:\n      eq\n        /* \"contracts/auction.sol\":2340:2418  auctionState == Auction_State.Cancelled || auctionState == Auction_State.Ended */\n    tag_145:\n        /* \"contracts/auction.sol\":2340:2442  auctionState == Auction_State.Cancelled || auctionState == Auction_State.Ended || block.number>etblock */\n      dup1\n      tag_150\n      jumpi\n      pop\n        /* \"contracts/auction.sol\":2435:2442  etblock */\n      sload(0x02)\n        /* \"contracts/auction.sol\":2422:2434  block.number */\n      number\n        /* \"contracts/auction.sol\":2422:2442  block.number>etblock */\n      gt\n        /* \"contracts/auction.sol\":2340:2442  auctionState == Auction_State.Cancelled || auctionState == Auction_State.Ended || block.number>etblock */\n    tag_150:\n        /* \"contracts/auction.sol\":2332:2443  require(auctionState == Auction_State.Cancelled || auctionState == Auction_State.Ended || block.number>etblock) */\n      tag_151\n      jumpi\n      0x00\n      dup1\n      revert\n    tag_151:\n        /* \"contracts/auction.sol\":2476:2486  auctioneer */\n      0x00\n      dup1\n      sload\n      swap1\n      0x0100\n      exp\n      swap1\n      div\n      0xffffffffffffffffffffffffffffffffffffffff\n      and\n        /* \"contracts/auction.sol\":2462:2486  msg.sender == auctioneer */\n      0xffffffffffffffffffffffffffffffffffffffff\n      and\n        /* \"contracts/auction.sol\":2462:2472  msg.sender */\n      caller\n        /* \"contracts/auction.sol\":2462:2486  msg.sender == auctioneer */\n      0xffffffffffffffffffffffffffffffffffffffff\n      and\n      eq\n        /* \"contracts/auction.sol\":2462:2508  msg.sender == auctioneer || bids[msg.sender]>0 */\n      dup1\n      tag_152\n      jumpi\n      pop\n        /* \"contracts/auction.sol\":2507:2508  0 */\n      0x00\n        /* \"contracts/auction.sol\":2490:2494  bids */\n      0x08\n        /* \"contracts/auction.sol\":2490:2506  bids[msg.sender] */\n      0x00\n        /* \"contracts/auction.sol\":2495:2505  msg.sender */\n      caller\n        /* \"contracts/auction.sol\":2490:2506  bids[msg.sender] */\n      0xffffffffffffffffffffffffffffffffffffffff\n      and\n      0xffffffffffffffffffffffffffffffffffffffff\n      and\n      dup2\n      mstore\n      0x20\n      add\n      swap1\n      dup2\n      mstore\n      0x20\n      add\n      0x00\n      keccak256\n      sload\n        /* \"contracts/auction.sol\":2490:2508  bids[msg.sender]>0 */\n      gt\n        /* \"contracts/auction.sol\":2462:2508  msg.sender == auctioneer || bids[msg.sender]>0 */\n    tag_152:\n        /* \"contracts/auction.sol\":2454:2509  require(msg.sender == auctioneer || bids[msg.sender]>0) */\n      tag_153\n      jumpi\n      0x00\n      dup1\n      revert\n    tag_153:\n        /* \"contracts/auction.sol\":2522:2544  address payable person */\n      0x00\n        /* \"contracts/auction.sol\":2555:2565  uint value */\n      dup1\n        /* \"contracts/auction.sol\":2597:2620  Auction_State.Cancelled */\n      0x03\n        /* \"contracts/auction.sol\":2581:2620  auctionState == Auction_State.Cancelled */\n      dup1\n      dup2\n      gt\n      iszero\n      tag_154\n      jumpi\n      tag_155\n      tag_101\n      jump\t// in\n    tag_155:\n    tag_154:\n        /* \"contracts/auction.sol\":2581:2593  auctionState */\n      0x03\n      0x00\n      swap1\n      sload\n      swap1\n      0x0100\n      exp\n      swap1\n      div\n      0xff\n      and\n        /* \"contracts/auction.sol\":2581:2620  auctionState == Auction_State.Cancelled */\n      0x03\n      dup2\n      gt\n      iszero\n      tag_156\n      jumpi\n      tag_157\n      tag_101\n      jump\t// in\n    tag_157:\n    tag_156:\n      eq\n        /* \"contracts/auction.sol\":2578:3244  if(auctionState == Auction_State.Cancelled){... */\n      iszero\n      tag_158\n      jumpi\n        /* \"contracts/auction.sol\":2653:2663  msg.sender */\n      caller\n        /* \"contracts/auction.sol\":2636:2664  person = payable(msg.sender) */\n      swap2\n      pop\n        /* \"contracts/auction.sol\":2687:2691  bids */\n      0x08\n        /* \"contracts/auction.sol\":2687:2703  bids[msg.sender] */\n      0x00\n        /* \"contracts/auction.sol\":2692:2702  msg.sender */\n      caller\n        /* \"contracts/auction.sol\":2687:2703  bids[msg.sender] */\n      0xffffffffffffffffffffffffffffffffffffffff\n      and\n      0xffffffffffffffffffffffffffffffffffffffff\n      and\n      dup2\n      mstore\n      0x20\n      add\n      swap1\n      dup2\n      mstore\n      0x20\n      add\n      0x00\n      keccak256\n      sload\n        /* \"contracts/auction.sol\":2679:2703  value = bids[msg.sender] */\n      swap1\n      pop\n        /* \"contracts/auction.sol\":2578:3244  if(auctionState == Auction_State.Cancelled){... */\n      jump(tag_159)\n    tag_158:\n        /* \"contracts/auction.sol\":2761:2771  auctioneer */\n      0x00\n      dup1\n      sload\n      swap1\n      0x0100\n      exp\n      swap1\n      div\n      0xffffffffffffffffffffffffffffffffffffffff\n      and\n        /* \"contracts/auction.sol\":2747:2771  msg.sender == auctioneer */\n      0xffffffffffffffffffffffffffffffffffffffff\n      and\n        /* \"contracts/auction.sol\":2747:2757  msg.sender */\n      caller\n        /* \"contracts/auction.sol\":2747:2771  msg.sender == auctioneer */\n      0xffffffffffffffffffffffffffffffffffffffff\n      and\n      eq\n        /* \"contracts/auction.sol\":2744:3233  if(msg.sender == auctioneer){... */\n      iszero\n      tag_160\n      jumpi\n        /* \"contracts/auction.sol\":2800:2810  auctioneer */\n      0x00\n      dup1\n      sload\n      swap1\n      0x0100\n      exp\n      swap1\n      div\n      0xffffffffffffffffffffffffffffffffffffffff\n      and\n        /* \"contracts/auction.sol\":2791:2810  person = auctioneer */\n      swap2\n      pop\n        /* \"contracts/auction.sol\":2837:2856  highest_payable_bid */\n      sload(0x04)\n        /* \"contracts/auction.sol\":2829:2856  value = highest_payable_bid */\n      swap1\n      pop\n        /* \"contracts/auction.sol\":2744:3233  if(msg.sender == auctioneer){... */\n      jump(tag_161)\n    tag_160:\n        /* \"contracts/auction.sol\":2928:2941  highestBidder */\n      0x06\n      0x00\n      swap1\n      sload\n      swap1\n      0x0100\n      exp\n      swap1\n      div\n      0xffffffffffffffffffffffffffffffffffffffff\n      and\n        /* \"contracts/auction.sol\":2914:2941  msg.sender == highestBidder */\n      0xffffffffffffffffffffffffffffffffffffffff\n      and\n        /* \"contracts/auction.sol\":2914:2924  msg.sender */\n      caller\n        /* \"contracts/auction.sol\":2914:2941  msg.sender == highestBidder */\n      0xffffffffffffffffffffffffffffffffffffffff\n      and\n      eq\n        /* \"contracts/auction.sol\":2911:3218  if(msg.sender == highestBidder){... */\n      iszero\n      tag_162\n      jumpi\n        /* \"contracts/auction.sol\":2975:2988  highestBidder */\n      0x06\n      0x00\n      swap1\n      sload\n      swap1\n      0x0100\n      exp\n      swap1\n      div\n      0xffffffffffffffffffffffffffffffffffffffff\n      and\n        /* \"contracts/auction.sol\":2966:2988  person = highestBidder */\n      swap2\n      pop\n        /* \"contracts/auction.sol\":3039:3058  highest_payable_bid */\n      sload(0x04)\n        /* \"contracts/auction.sol\":3019:3023  bids */\n      0x08\n        /* \"contracts/auction.sol\":3019:3038  bids[highestBidder] */\n      0x00\n        /* \"contracts/auction.sol\":3024:3037  highestBidder */\n      0x06\n      0x00\n      swap1\n      sload\n      swap1\n      0x0100\n      exp\n      swap1\n      div\n      0xffffffffffffffffffffffffffffffffffffffff\n      and\n        /* \"contracts/auction.sol\":3019:3038  bids[highestBidder] */\n      0xffffffffffffffffffffffffffffffffffffffff\n      and\n      0xffffffffffffffffffffffffffffffffffffffff\n      and\n      dup2\n      mstore\n      0x20\n      add\n      swap1\n      dup2\n      mstore\n      0x20\n      add\n      0x00\n      keccak256\n      sload\n        /* \"contracts/auction.sol\":3019:3058  bids[highestBidder]-highest_payable_bid */\n      tag_163\n      swap2\n      swap1\n      tag_164\n      jump\t// in\n    tag_163:\n        /* \"contracts/auction.sol\":3011:3058  value = bids[highestBidder]-highest_payable_bid */\n      swap1\n      pop\n        /* \"contracts/auction.sol\":2911:3218  if(msg.sender == highestBidder){... */\n      jump(tag_165)\n    tag_162:\n        /* \"contracts/auction.sol\":3140:3150  msg.sender */\n      caller\n        /* \"contracts/auction.sol\":3123:3151  person = payable(msg.sender) */\n      swap2\n      pop\n        /* \"contracts/auction.sol\":3182:3186  bids */\n      0x08\n        /* \"contracts/auction.sol\":3182:3198  bids[msg.sender] */\n      0x00\n        /* \"contracts/auction.sol\":3187:3197  msg.sender */\n      caller\n        /* \"contracts/auction.sol\":3182:3198  bids[msg.sender] */\n      0xffffffffffffffffffffffffffffffffffffffff\n      and\n      0xffffffffffffffffffffffffffffffffffffffff\n      and\n      dup2\n      mstore\n      0x20\n      add\n      swap1\n      dup2\n      mstore\n      0x20\n      add\n      0x00\n      keccak256\n      sload\n        /* \"contracts/auction.sol\":3174:3198  value = bids[msg.sender] */\n      swap1\n      pop\n        /* \"contracts/auction.sol\":2911:3218  if(msg.sender == highestBidder){... */\n    tag_165:\n        /* \"contracts/auction.sol\":2744:3233  if(msg.sender == auctioneer){... */\n    tag_161:\n        /* \"contracts/auction.sol\":2578:3244  if(auctionState == Auction_State.Cancelled){... */\n    tag_159:\n        /* \"contracts/auction.sol\":3271:3272  0 */\n      0x00\n        /* \"contracts/auction.sol\":3254:3258  bids */\n      0x08\n        /* \"contracts/auction.sol\":3254:3270  bids[msg.sender] */\n      0x00\n        /* \"contracts/auction.sol\":3259:3269  msg.sender */\n      caller\n        /* \"contracts/auction.sol\":3254:3270  bids[msg.sender] */\n      0xffffffffffffffffffffffffffffffffffffffff\n      and\n      0xffffffffffffffffffffffffffffffffffffffff\n      and\n      dup2\n      mstore\n      0x20\n      add\n      swap1\n      dup2\n      mstore\n      0x20\n      add\n      0x00\n      keccak256\n        /* \"contracts/auction.sol\":3254:3272  bids[msg.sender]=0 */\n      dup2\n      swap1\n      sstore\n      pop\n        /* \"contracts/auction.sol\":3283:3289  person */\n      dup2\n        /* \"contracts/auction.sol\":3283:3298  person.transfer */\n      0xffffffffffffffffffffffffffffffffffffffff\n      and\n        /* \"contracts/auction.sol\":3283:3305  person.transfer(value) */\n      0x08fc\n        /* \"contracts/auction.sol\":3299:3304  value */\n      dup3\n        /* \"contracts/auction.sol\":3283:3305  person.transfer(value) */\n      swap1\n      dup2\n      iszero\n      mul\n      swap1\n      mload(0x40)\n      0x00\n      mload(0x40)\n      dup1\n      dup4\n      sub\n      dup2\n      dup6\n      dup9\n      dup9\n      call\n      swap4\n      pop\n      pop\n      pop\n      pop\n      iszero\n      dup1\n      iszero\n      tag_167\n      jumpi\n      returndatasize\n      0x00\n      dup1\n      returndatacopy\n      revert(0x00, returndatasize)\n    tag_167:\n      pop\n        /* \"contracts/auction.sol\":2321:3313  {... */\n      pop\n      pop\n        /* \"contracts/auction.sol\":2292:3313  function finalizeAuc() public{... */\n      jump\t// out\n        /* \"contracts/auction.sol\":2192:2286  function getBalance(address addr) public view returns(uint) {... */\n    tag_88:\n        /* \"contracts/auction.sol\":2246:2250  uint */\n      0x00\n        /* \"contracts/auction.sol\":2270:2272  xp */\n      0x07\n        /* \"contracts/auction.sol\":2270:2278  xp[addr] */\n      0x00\n        /* \"contracts/auction.sol\":2273:2277  addr */\n      dup4\n        /* \"contracts/auction.sol\":2270:2278  xp[addr] */\n      0xffffffffffffffffffffffffffffffffffffffff\n      and\n      0xffffffffffffffffffffffffffffffffffffffff\n      and\n      dup2\n      mstore\n      0x20\n      add\n      swap1\n      dup2\n      mstore\n      0x20\n      add\n      0x00\n      keccak256\n      sload\n        /* \"contracts/auction.sol\":2263:2278  return xp[addr] */\n      swap1\n      pop\n        /* \"contracts/auction.sol\":2192:2286  function getBalance(address addr) public view returns(uint) {... */\n      swap2\n      swap1\n      pop\n      jump\t// out\n        /* \"contracts/auction.sol\":1343:1480  function min(uint a , uint b) pure private returns (uint){... */\n    tag_112:\n        /* \"contracts/auction.sol\":1395:1399  uint */\n      0x00\n        /* \"contracts/auction.sol\":1417:1418  b */\n      dup2\n        /* \"contracts/auction.sol\":1414:1415  a */\n      dup4\n        /* \"contracts/auction.sol\":1414:1418  a<=b */\n      gt\n        /* \"contracts/auction.sol\":1411:1470  if(a<=b)... */\n      tag_170\n      jumpi\n        /* \"contracts/auction.sol\":1436:1437  a */\n      dup3\n        /* \"contracts/auction.sol\":1429:1437  return a */\n      swap1\n      pop\n      jump(tag_169)\n        /* \"contracts/auction.sol\":1411:1470  if(a<=b)... */\n    tag_170:\n        /* \"contracts/auction.sol\":1469:1470  b */\n      dup2\n        /* \"contracts/auction.sol\":1462:1470  return b */\n      swap1\n      pop\n        /* \"contracts/auction.sol\":1343:1480  function min(uint a , uint b) pure private returns (uint){... */\n    tag_169:\n      swap3\n      swap2\n      pop\n      pop\n      jump\t// out\n        /* \"#utility.yul\":88:205   */\n    tag_173:\n        /* \"#utility.yul\":197:198   */\n      0x00\n        /* \"#utility.yul\":194:195   */\n      dup1\n        /* \"#utility.yul\":187:199   */\n      revert\n        /* \"#utility.yul\":334:460   */\n    tag_175:\n        /* \"#utility.yul\":371:378   */\n      0x00\n        /* \"#utility.yul\":411:453   */\n      0xffffffffffffffffffffffffffffffffffffffff\n        /* \"#utility.yul\":404:409   */\n      dup3\n        /* \"#utility.yul\":400:454   */\n      and\n        /* \"#utility.yul\":389:454   */\n      swap1\n      pop\n        /* \"#utility.yul\":334:460   */\n      swap2\n      swap1\n      pop\n      jump\t// out\n        /* \"#utility.yul\":466:562   */\n    tag_176:\n        /* \"#utility.yul\":503:510   */\n      0x00\n        /* \"#utility.yul\":532:556   */\n      tag_214\n        /* \"#utility.yul\":550:555   */\n      dup3\n        /* \"#utility.yul\":532:556   */\n      tag_175\n      jump\t// in\n    tag_214:\n        /* \"#utility.yul\":521:556   */\n      swap1\n      pop\n        /* \"#utility.yul\":466:562   */\n      swap2\n      swap1\n      pop\n      jump\t// out\n        /* \"#utility.yul\":568:690   */\n    tag_177:\n        /* \"#utility.yul\":641:665   */\n      tag_216\n        /* \"#utility.yul\":659:664   */\n      dup2\n        /* \"#utility.yul\":641:665   */\n      tag_176\n      jump\t// in\n    tag_216:\n        /* \"#utility.yul\":634:639   */\n      dup2\n        /* \"#utility.yul\":631:666   */\n      eq\n        /* \"#utility.yul\":621:684   */\n      tag_217\n      jumpi\n        /* \"#utility.yul\":680:681   */\n      0x00\n        /* \"#utility.yul\":677:678   */\n      dup1\n        /* \"#utility.yul\":670:682   */\n      revert\n        /* \"#utility.yul\":621:684   */\n    tag_217:\n        /* \"#utility.yul\":568:690   */\n      pop\n      jump\t// out\n        /* \"#utility.yul\":696:835   */\n    tag_178:\n        /* \"#utility.yul\":742:747   */\n      0x00\n        /* \"#utility.yul\":780:786   */\n      dup2\n        /* \"#utility.yul\":767:787   */\n      calldataload\n        /* \"#utility.yul\":758:787   */\n      swap1\n      pop\n        /* \"#utility.yul\":796:829   */\n      tag_219\n        /* \"#utility.yul\":823:828   */\n      dup2\n        /* \"#utility.yul\":796:829   */\n      tag_177\n      jump\t// in\n    tag_219:\n        /* \"#utility.yul\":696:835   */\n      swap3\n      swap2\n      pop\n      pop\n      jump\t// out\n        /* \"#utility.yul\":841:1170   */\n    tag_24:\n        /* \"#utility.yul\":900:906   */\n      0x00\n        /* \"#utility.yul\":949:951   */\n      0x20\n        /* \"#utility.yul\":937:946   */\n      dup3\n        /* \"#utility.yul\":928:935   */\n      dup5\n        /* \"#utility.yul\":924:947   */\n      sub\n        /* \"#utility.yul\":920:952   */\n      slt\n        /* \"#utility.yul\":917:1036   */\n      iszero\n      tag_221\n      jumpi\n        /* \"#utility.yul\":955:1034   */\n      tag_222\n      tag_173\n      jump\t// in\n    tag_222:\n        /* \"#utility.yul\":917:1036   */\n    tag_221:\n        /* \"#utility.yul\":1075:1076   */\n      0x00\n        /* \"#utility.yul\":1100:1153   */\n      tag_223\n        /* \"#utility.yul\":1145:1152   */\n      dup5\n        /* \"#utility.yul\":1136:1142   */\n      dup3\n        /* \"#utility.yul\":1125:1134   */\n      dup6\n        /* \"#utility.yul\":1121:1143   */\n      add\n        /* \"#utility.yul\":1100:1153   */\n      tag_178\n      jump\t// in\n    tag_223:\n        /* \"#utility.yul\":1090:1153   */\n      swap2\n      pop\n        /* \"#utility.yul\":1046:1163   */\n      pop\n        /* \"#utility.yul\":841:1170   */\n      swap3\n      swap2\n      pop\n      pop\n      jump\t// out\n        /* \"#utility.yul\":1176:1253   */\n    tag_179:\n        /* \"#utility.yul\":1213:1220   */\n      0x00\n        /* \"#utility.yul\":1242:1247   */\n      dup2\n        /* \"#utility.yul\":1231:1247   */\n      swap1\n      pop\n        /* \"#utility.yul\":1176:1253   */\n      swap2\n      swap1\n      pop\n      jump\t// out\n        /* \"#utility.yul\":1259:1377   */\n    tag_180:\n        /* \"#utility.yul\":1346:1370   */\n      tag_226\n        /* \"#utility.yul\":1364:1369   */\n      dup2\n        /* \"#utility.yul\":1346:1370   */\n      tag_179\n      jump\t// in\n    tag_226:\n        /* \"#utility.yul\":1341:1344   */\n      dup3\n        /* \"#utility.yul\":1334:1371   */\n      mstore\n        /* \"#utility.yul\":1259:1377   */\n      pop\n      pop\n      jump\t// out\n        /* \"#utility.yul\":1383:1605   */\n    tag_27:\n        /* \"#utility.yul\":1476:1480   */\n      0x00\n        /* \"#utility.yul\":1514:1516   */\n      0x20\n        /* \"#utility.yul\":1503:1512   */\n      dup3\n        /* \"#utility.yul\":1499:1517   */\n      add\n        /* \"#utility.yul\":1491:1517   */\n      swap1\n      pop\n        /* \"#utility.yul\":1527:1598   */\n      tag_228\n        /* \"#utility.yul\":1595:1596   */\n      0x00\n        /* \"#utility.yul\":1584:1593   */\n      dup4\n        /* \"#utility.yul\":1580:1597   */\n      add\n        /* \"#utility.yul\":1571:1577   */\n      dup5\n        /* \"#utility.yul\":1527:1598   */\n      tag_180\n      jump\t// in\n    tag_228:\n        /* \"#utility.yul\":1383:1605   */\n      swap3\n      swap2\n      pop\n      pop\n      jump\t// out\n        /* \"#utility.yul\":1611:1715   */\n    tag_181:\n        /* \"#utility.yul\":1656:1663   */\n      0x00\n        /* \"#utility.yul\":1685:1709   */\n      tag_230\n        /* \"#utility.yul\":1703:1708   */\n      dup3\n        /* \"#utility.yul\":1685:1709   */\n      tag_175\n      jump\t// in\n    tag_230:\n        /* \"#utility.yul\":1674:1709   */\n      swap1\n      pop\n        /* \"#utility.yul\":1611:1715   */\n      swap2\n      swap1\n      pop\n      jump\t// out\n        /* \"#utility.yul\":1721:1863   */\n    tag_182:\n        /* \"#utility.yul\":1824:1856   */\n      tag_232\n        /* \"#utility.yul\":1850:1855   */\n      dup2\n        /* \"#utility.yul\":1824:1856   */\n      tag_181\n      jump\t// in\n    tag_232:\n        /* \"#utility.yul\":1819:1822   */\n      dup3\n        /* \"#utility.yul\":1812:1857   */\n      mstore\n        /* \"#utility.yul\":1721:1863   */\n      pop\n      pop\n      jump\t// out\n        /* \"#utility.yul\":1869:2123   */\n    tag_40:\n        /* \"#utility.yul\":1978:1982   */\n      0x00\n        /* \"#utility.yul\":2016:2018   */\n      0x20\n        /* \"#utility.yul\":2005:2014   */\n      dup3\n        /* \"#utility.yul\":2001:2019   */\n      add\n        /* \"#utility.yul\":1993:2019   */\n      swap1\n      pop\n        /* \"#utility.yul\":2029:2116   */\n      tag_234\n        /* \"#utility.yul\":2113:2114   */\n      0x00\n        /* \"#utility.yul\":2102:2111   */\n      dup4\n        /* \"#utility.yul\":2098:2115   */\n      add\n        /* \"#utility.yul\":2089:2095   */\n      dup5\n        /* \"#utility.yul\":2029:2116   */\n      tag_182\n      jump\t// in\n    tag_234:\n        /* \"#utility.yul\":1869:2123   */\n      swap3\n      swap2\n      pop\n      pop\n      jump\t// out\n        /* \"#utility.yul\":2129:2206   */\n    tag_183:\n        /* \"#utility.yul\":2166:2173   */\n      0x00\n        /* \"#utility.yul\":2195:2200   */\n      dup2\n        /* \"#utility.yul\":2184:2200   */\n      swap1\n      pop\n        /* \"#utility.yul\":2129:2206   */\n      swap2\n      swap1\n      pop\n      jump\t// out\n        /* \"#utility.yul\":2212:2330   */\n    tag_184:\n        /* \"#utility.yul\":2299:2323   */\n      tag_237\n        /* \"#utility.yul\":2317:2322   */\n      dup2\n        /* \"#utility.yul\":2299:2323   */\n      tag_183\n      jump\t// in\n    tag_237:\n        /* \"#utility.yul\":2294:2297   */\n      dup3\n        /* \"#utility.yul\":2287:2324   */\n      mstore\n        /* \"#utility.yul\":2212:2330   */\n      pop\n      pop\n      jump\t// out\n        /* \"#utility.yul\":2336:2558   */\n    tag_50:\n        /* \"#utility.yul\":2429:2433   */\n      0x00\n        /* \"#utility.yul\":2467:2469   */\n      0x20\n        /* \"#utility.yul\":2456:2465   */\n      dup3\n        /* \"#utility.yul\":2452:2470   */\n      add\n        /* \"#utility.yul\":2444:2470   */\n      swap1\n      pop\n        /* \"#utility.yul\":2480:2551   */\n      tag_239\n        /* \"#utility.yul\":2548:2549   */\n      0x00\n        /* \"#utility.yul\":2537:2546   */\n      dup4\n        /* \"#utility.yul\":2533:2550   */\n      add\n        /* \"#utility.yul\":2524:2530   */\n      dup5\n        /* \"#utility.yul\":2480:2551   */\n      tag_184\n      jump\t// in\n    tag_239:\n        /* \"#utility.yul\":2336:2558   */\n      swap3\n      swap2\n      pop\n      pop\n      jump\t// out\n        /* \"#utility.yul\":2564:2744   */\n    tag_101:\n        /* \"#utility.yul\":2612:2689   */\n      0x4e487b7100000000000000000000000000000000000000000000000000000000\n        /* \"#utility.yul\":2609:2610   */\n      0x00\n        /* \"#utility.yul\":2602:2690   */\n      mstore\n        /* \"#utility.yul\":2709:2713   */\n      0x21\n        /* \"#utility.yul\":2706:2707   */\n      0x04\n        /* \"#utility.yul\":2699:2714   */\n      mstore\n        /* \"#utility.yul\":2733:2737   */\n      0x24\n        /* \"#utility.yul\":2730:2731   */\n      0x00\n        /* \"#utility.yul\":2723:2738   */\n      revert\n        /* \"#utility.yul\":2750:2871   */\n    tag_185:\n        /* \"#utility.yul\":2839:2840   */\n      0x04\n        /* \"#utility.yul\":2832:2837   */\n      dup2\n        /* \"#utility.yul\":2829:2841   */\n      lt\n        /* \"#utility.yul\":2819:2865   */\n      tag_242\n      jumpi\n        /* \"#utility.yul\":2845:2863   */\n      tag_243\n      tag_101\n      jump\t// in\n    tag_243:\n        /* \"#utility.yul\":2819:2865   */\n    tag_242:\n        /* \"#utility.yul\":2750:2871   */\n      pop\n      jump\t// out\n        /* \"#utility.yul\":2877:3020   */\n    tag_186:\n        /* \"#utility.yul\":2930:2937   */\n      0x00\n        /* \"#utility.yul\":2959:2964   */\n      dup2\n        /* \"#utility.yul\":2948:2964   */\n      swap1\n      pop\n        /* \"#utility.yul\":2965:3014   */\n      tag_245\n        /* \"#utility.yul\":3008:3013   */\n      dup3\n        /* \"#utility.yul\":2965:3014   */\n      tag_185\n      jump\t// in\n    tag_245:\n        /* \"#utility.yul\":2877:3020   */\n      swap2\n      swap1\n      pop\n      jump\t// out\n        /* \"#utility.yul\":3026:3169   */\n    tag_187:\n        /* \"#utility.yul\":3090:3099   */\n      0x00\n        /* \"#utility.yul\":3123:3163   */\n      tag_247\n        /* \"#utility.yul\":3157:3162   */\n      dup3\n        /* \"#utility.yul\":3123:3163   */\n      tag_186\n      jump\t// in\n    tag_247:\n        /* \"#utility.yul\":3110:3163   */\n      swap1\n      pop\n        /* \"#utility.yul\":3026:3169   */\n      swap2\n      swap1\n      pop\n      jump\t// out\n        /* \"#utility.yul\":3175:3334   */\n    tag_188:\n        /* \"#utility.yul\":3276:3327   */\n      tag_249\n        /* \"#utility.yul\":3321:3326   */\n      dup2\n        /* \"#utility.yul\":3276:3327   */\n      tag_187\n      jump\t// in\n    tag_249:\n        /* \"#utility.yul\":3271:3274   */\n      dup3\n        /* \"#utility.yul\":3264:3328   */\n      mstore\n        /* \"#utility.yul\":3175:3334   */\n      pop\n      pop\n      jump\t// out\n        /* \"#utility.yul\":3340:3590   */\n    tag_59:\n        /* \"#utility.yul\":3447:3451   */\n      0x00\n        /* \"#utility.yul\":3485:3487   */\n      0x20\n        /* \"#utility.yul\":3474:3483   */\n      dup3\n        /* \"#utility.yul\":3470:3488   */\n      add\n        /* \"#utility.yul\":3462:3488   */\n      swap1\n      pop\n        /* \"#utility.yul\":3498:3583   */\n      tag_251\n        /* \"#utility.yul\":3580:3581   */\n      0x00\n        /* \"#utility.yul\":3569:3578   */\n      dup4\n        /* \"#utility.yul\":3565:3582   */\n      add\n        /* \"#utility.yul\":3556:3562   */\n      dup5\n        /* \"#utility.yul\":3498:3583   */\n      tag_188\n      jump\t// in\n    tag_251:\n        /* \"#utility.yul\":3340:3590   */\n      swap3\n      swap2\n      pop\n      pop\n      jump\t// out\n        /* \"#utility.yul\":3596:3672   */\n    tag_189:\n        /* \"#utility.yul\":3632:3639   */\n      0x00\n        /* \"#utility.yul\":3661:3666   */\n      dup2\n        /* \"#utility.yul\":3650:3666   */\n      swap1\n      pop\n        /* \"#utility.yul\":3596:3672   */\n      swap2\n      swap1\n      pop\n      jump\t// out\n        /* \"#utility.yul\":3678:3798   */\n    tag_190:\n        /* \"#utility.yul\":3750:3773   */\n      tag_254\n        /* \"#utility.yul\":3767:3772   */\n      dup2\n        /* \"#utility.yul\":3750:3773   */\n      tag_189\n      jump\t// in\n    tag_254:\n        /* \"#utility.yul\":3743:3748   */\n      dup2\n        /* \"#utility.yul\":3740:3774   */\n      eq\n        /* \"#utility.yul\":3730:3792   */\n      tag_255\n      jumpi\n        /* \"#utility.yul\":3788:3789   */\n      0x00\n        /* \"#utility.yul\":3785:3786   */\n      dup1\n        /* \"#utility.yul\":3778:3790   */\n      revert\n        /* \"#utility.yul\":3730:3792   */\n    tag_255:\n        /* \"#utility.yul\":3678:3798   */\n      pop\n      jump\t// out\n        /* \"#utility.yul\":3804:3941   */\n    tag_191:\n        /* \"#utility.yul\":3849:3854   */\n      0x00\n        /* \"#utility.yul\":3887:3893   */\n      dup2\n        /* \"#utility.yul\":3874:3894   */\n      calldataload\n        /* \"#utility.yul\":3865:3894   */\n      swap1\n      pop\n        /* \"#utility.yul\":3903:3935   */\n      tag_257\n        /* \"#utility.yul\":3929:3934   */\n      dup2\n        /* \"#utility.yul\":3903:3935   */\n      tag_190\n      jump\t// in\n    tag_257:\n        /* \"#utility.yul\":3804:3941   */\n      swap3\n      swap2\n      pop\n      pop\n      jump\t// out\n        /* \"#utility.yul\":3947:4274   */\n    tag_63:\n        /* \"#utility.yul\":4005:4011   */\n      0x00\n        /* \"#utility.yul\":4054:4056   */\n      0x20\n        /* \"#utility.yul\":4042:4051   */\n      dup3\n        /* \"#utility.yul\":4033:4040   */\n      dup5\n        /* \"#utility.yul\":4029:4052   */\n      sub\n        /* \"#utility.yul\":4025:4057   */\n      slt\n        /* \"#utility.yul\":4022:4141   */\n      iszero\n      tag_259\n      jumpi\n        /* \"#utility.yul\":4060:4139   */\n      tag_260\n      tag_173\n      jump\t// in\n    tag_260:\n        /* \"#utility.yul\":4022:4141   */\n    tag_259:\n        /* \"#utility.yul\":4180:4181   */\n      0x00\n        /* \"#utility.yul\":4205:4257   */\n      tag_261\n        /* \"#utility.yul\":4249:4256   */\n      dup5\n        /* \"#utility.yul\":4240:4246   */\n      dup3\n        /* \"#utility.yul\":4229:4238   */\n      dup6\n        /* \"#utility.yul\":4225:4247   */\n      add\n        /* \"#utility.yul\":4205:4257   */\n      tag_191\n      jump\t// in\n    tag_261:\n        /* \"#utility.yul\":4195:4257   */\n      swap2\n      pop\n        /* \"#utility.yul\":4151:4267   */\n      pop\n        /* \"#utility.yul\":3947:4274   */\n      swap3\n      swap2\n      pop\n      pop\n      jump\t// out\n        /* \"#utility.yul\":4280:4449   */\n    tag_192:\n        /* \"#utility.yul\":4364:4375   */\n      0x00\n        /* \"#utility.yul\":4398:4404   */\n      dup3\n        /* \"#utility.yul\":4393:4396   */\n      dup3\n        /* \"#utility.yul\":4386:4405   */\n      mstore\n        /* \"#utility.yul\":4438:4442   */\n      0x20\n        /* \"#utility.yul\":4433:4436   */\n      dup3\n        /* \"#utility.yul\":4429:4443   */\n      add\n        /* \"#utility.yul\":4414:4443   */\n      swap1\n      pop\n        /* \"#utility.yul\":4280:4449   */\n      swap3\n      swap2\n      pop\n      pop\n      jump\t// out\n        /* \"#utility.yul\":4455:4621   */\n    tag_193:\n        /* \"#utility.yul\":4595:4613   */\n      0x4f776e65722063616e6e6f742062696400000000000000000000000000000000\n        /* \"#utility.yul\":4591:4592   */\n      0x00\n        /* \"#utility.yul\":4583:4589   */\n      dup3\n        /* \"#utility.yul\":4579:4593   */\n      add\n        /* \"#utility.yul\":4572:4614   */\n      mstore\n        /* \"#utility.yul\":4455:4621   */\n      pop\n      jump\t// out\n        /* \"#utility.yul\":4627:4993   */\n    tag_194:\n        /* \"#utility.yul\":4769:4772   */\n      0x00\n        /* \"#utility.yul\":4790:4857   */\n      tag_265\n        /* \"#utility.yul\":4854:4856   */\n      0x10\n        /* \"#utility.yul\":4849:4852   */\n      dup4\n        /* \"#utility.yul\":4790:4857   */\n      tag_192\n      jump\t// in\n    tag_265:\n        /* \"#utility.yul\":4783:4857   */\n      swap2\n      pop\n        /* \"#utility.yul\":4866:4959   */\n      tag_266\n        /* \"#utility.yul\":4955:4958   */\n      dup3\n        /* \"#utility.yul\":4866:4959   */\n      tag_193\n      jump\t// in\n    tag_266:\n        /* \"#utility.yul\":4984:4986   */\n      0x20\n        /* \"#utility.yul\":4979:4982   */\n      dup3\n        /* \"#utility.yul\":4975:4987   */\n      add\n        /* \"#utility.yul\":4968:4987   */\n      swap1\n      pop\n        /* \"#utility.yul\":4627:4993   */\n      swap2\n      swap1\n      pop\n      jump\t// out\n        /* \"#utility.yul\":4999:5418   */\n    tag_93:\n        /* \"#utility.yul\":5165:5169   */\n      0x00\n        /* \"#utility.yul\":5203:5205   */\n      0x20\n        /* \"#utility.yul\":5192:5201   */\n      dup3\n        /* \"#utility.yul\":5188:5206   */\n      add\n        /* \"#utility.yul\":5180:5206   */\n      swap1\n      pop\n        /* \"#utility.yul\":5252:5261   */\n      dup2\n        /* \"#utility.yul\":5246:5250   */\n      dup2\n        /* \"#utility.yul\":5242:5262   */\n      sub\n        /* \"#utility.yul\":5238:5239   */\n      0x00\n        /* \"#utility.yul\":5227:5236   */\n      dup4\n        /* \"#utility.yul\":5223:5240   */\n      add\n        /* \"#utility.yul\":5216:5263   */\n      mstore\n        /* \"#utility.yul\":5280:5411   */\n      tag_268\n        /* \"#utility.yul\":5406:5410   */\n      dup2\n        /* \"#utility.yul\":5280:5411   */\n      tag_194\n      jump\t// in\n    tag_268:\n        /* \"#utility.yul\":5272:5411   */\n      swap1\n      pop\n        /* \"#utility.yul\":4999:5418   */\n      swap2\n      swap1\n      pop\n      jump\t// out\n        /* \"#utility.yul\":5424:5604   */\n    tag_195:\n        /* \"#utility.yul\":5472:5549   */\n      0x4e487b7100000000000000000000000000000000000000000000000000000000\n        /* \"#utility.yul\":5469:5470   */\n      0x00\n        /* \"#utility.yul\":5462:5550   */\n      mstore\n        /* \"#utility.yul\":5569:5573   */\n      0x11\n        /* \"#utility.yul\":5566:5567   */\n      0x04\n        /* \"#utility.yul\":5559:5574   */\n      mstore\n        /* \"#utility.yul\":5593:5597   */\n      0x24\n        /* \"#utility.yul\":5590:5591   */\n      0x00\n        /* \"#utility.yul\":5583:5598   */\n      revert\n        /* \"#utility.yul\":5610:5915   */\n    tag_107:\n        /* \"#utility.yul\":5650:5653   */\n      0x00\n        /* \"#utility.yul\":5669:5689   */\n      tag_271\n        /* \"#utility.yul\":5687:5688   */\n      dup3\n        /* \"#utility.yul\":5669:5689   */\n      tag_179\n      jump\t// in\n    tag_271:\n        /* \"#utility.yul\":5664:5689   */\n      swap2\n      pop\n        /* \"#utility.yul\":5703:5723   */\n      tag_272\n        /* \"#utility.yul\":5721:5722   */\n      dup4\n        /* \"#utility.yul\":5703:5723   */\n      tag_179\n      jump\t// in\n    tag_272:\n        /* \"#utility.yul\":5698:5723   */\n      swap3\n      pop\n        /* \"#utility.yul\":5857:5858   */\n      dup3\n        /* \"#utility.yul\":5789:5855   */\n      0xffffffffffffffffffffffffffffffffffffffffffffffffffffffffffffffff\n        /* \"#utility.yul\":5785:5859   */\n      sub\n        /* \"#utility.yul\":5782:5783   */\n      dup3\n        /* \"#utility.yul\":5779:5860   */\n      gt\n        /* \"#utility.yul\":5776:5883   */\n      iszero\n      tag_273\n      jumpi\n        /* \"#utility.yul\":5863:5881   */\n      tag_274\n      tag_195\n      jump\t// in\n    tag_274:\n        /* \"#utility.yul\":5776:5883   */\n    tag_273:\n        /* \"#utility.yul\":5907:5908   */\n      dup3\n        /* \"#utility.yul\":5904:5905   */\n      dup3\n        /* \"#utility.yul\":5900:5909   */\n      add\n        /* \"#utility.yul\":5893:5909   */\n      swap1\n      pop\n        /* \"#utility.yul\":5610:5915   */\n      swap3\n      swap2\n      pop\n      pop\n      jump\t// out\n        /* \"#utility.yul\":5921:6000   */\n    tag_196:\n        /* \"#utility.yul\":5960:5967   */\n      0x00\n        /* \"#utility.yul\":5989:5994   */\n      dup2\n        /* \"#utility.yul\":5978:5994   */\n      swap1\n      pop\n        /* \"#utility.yul\":5921:6000   */\n      swap2\n      swap1\n      pop\n      jump\t// out\n        /* \"#utility.yul\":6006:6163   */\n    tag_197:\n        /* \"#utility.yul\":6111:6156   */\n      tag_277\n        /* \"#utility.yul\":6131:6155   */\n      tag_278\n        /* \"#utility.yul\":6149:6154   */\n      dup3\n        /* \"#utility.yul\":6131:6155   */\n      tag_179\n      jump\t// in\n    tag_278:\n        /* \"#utility.yul\":6111:6156   */\n      tag_196\n      jump\t// in\n    tag_277:\n        /* \"#utility.yul\":6106:6109   */\n      dup3\n        /* \"#utility.yul\":6099:6157   */\n      mstore\n        /* \"#utility.yul\":6006:6163   */\n      pop\n      pop\n      jump\t// out\n        /* \"#utility.yul\":6169:6247   */\n    tag_198:\n        /* \"#utility.yul\":6207:6214   */\n      0x00\n        /* \"#utility.yul\":6236:6241   */\n      dup2\n        /* \"#utility.yul\":6225:6241   */\n      swap1\n      pop\n        /* \"#utility.yul\":6169:6247   */\n      swap2\n      swap1\n      pop\n      jump\t// out\n        /* \"#utility.yul\":6253:6406   */\n    tag_199:\n        /* \"#utility.yul\":6356:6399   */\n      tag_281\n        /* \"#utility.yul\":6375:6398   */\n      tag_282\n        /* \"#utility.yul\":6392:6397   */\n      dup3\n        /* \"#utility.yul\":6375:6398   */\n      tag_189\n      jump\t// in\n    tag_282:\n        /* \"#utility.yul\":6356:6399   */\n      tag_198\n      jump\t// in\n    tag_281:\n        /* \"#utility.yul\":6351:6354   */\n      dup3\n        /* \"#utility.yul\":6344:6400   */\n      mstore\n        /* \"#utility.yul\":6253:6406   */\n      pop\n      pop\n      jump\t// out\n        /* \"#utility.yul\":6412:6491   */\n    tag_200:\n        /* \"#utility.yul\":6451:6458   */\n      0x00\n        /* \"#utility.yul\":6480:6485   */\n      dup2\n        /* \"#utility.yul\":6469:6485   */\n      swap1\n      pop\n        /* \"#utility.yul\":6412:6491   */\n      swap2\n      swap1\n      pop\n      jump\t// out\n        /* \"#utility.yul\":6497:6654   */\n    tag_201:\n        /* \"#utility.yul\":6602:6647   */\n      tag_285\n        /* \"#utility.yul\":6622:6646   */\n      tag_286\n        /* \"#utility.yul\":6640:6645   */\n      dup3\n        /* \"#utility.yul\":6622:6646   */\n      tag_183\n      jump\t// in\n    tag_286:\n        /* \"#utility.yul\":6602:6647   */\n      tag_200\n      jump\t// in\n    tag_285:\n        /* \"#utility.yul\":6597:6600   */\n      dup3\n        /* \"#utility.yul\":6590:6648   */\n      mstore\n        /* \"#utility.yul\":6497:6654   */\n      pop\n      pop\n      jump\t// out\n        /* \"#utility.yul\":6660:7194   */\n    tag_133:\n        /* \"#utility.yul\":6826:6829   */\n      0x00\n        /* \"#utility.yul\":6841:6916   */\n      tag_288\n        /* \"#utility.yul\":6912:6915   */\n      dup3\n        /* \"#utility.yul\":6903:6909   */\n      dup7\n        /* \"#utility.yul\":6841:6916   */\n      tag_197\n      jump\t// in\n    tag_288:\n        /* \"#utility.yul\":6941:6943   */\n      0x20\n        /* \"#utility.yul\":6936:6939   */\n      dup3\n        /* \"#utility.yul\":6932:6944   */\n      add\n        /* \"#utility.yul\":6925:6944   */\n      swap2\n      pop\n        /* \"#utility.yul\":6954:7027   */\n      tag_289\n        /* \"#utility.yul\":7023:7026   */\n      dup3\n        /* \"#utility.yul\":7014:7020   */\n      dup6\n        /* \"#utility.yul\":6954:7027   */\n      tag_199\n      jump\t// in\n    tag_289:\n        /* \"#utility.yul\":7052:7054   */\n      0x20\n        /* \"#utility.yul\":7047:7050   */\n      dup3\n        /* \"#utility.yul\":7043:7055   */\n      add\n        /* \"#utility.yul\":7036:7055   */\n      swap2\n      pop\n        /* \"#utility.yul\":7065:7140   */\n      tag_290\n        /* \"#utility.yul\":7136:7139   */\n      dup3\n        /* \"#utility.yul\":7127:7133   */\n      dup5\n        /* \"#utility.yul\":7065:7140   */\n      tag_201\n      jump\t// in\n    tag_290:\n        /* \"#utility.yul\":7165:7167   */\n      0x20\n        /* \"#utility.yul\":7160:7163   */\n      dup3\n        /* \"#utility.yul\":7156:7168   */\n      add\n        /* \"#utility.yul\":7149:7168   */\n      swap2\n      pop\n        /* \"#utility.yul\":7185:7188   */\n      dup2\n        /* \"#utility.yul\":7178:7188   */\n      swap1\n      pop\n        /* \"#utility.yul\":6660:7194   */\n      swap5\n      swap4\n      pop\n      pop\n      pop\n      pop\n      jump\t// out\n        /* \"#utility.yul\":7200:7298   */\n    tag_202:\n        /* \"#utility.yul\":7251:7257   */\n      0x00\n        /* \"#utility.yul\":7285:7290   */\n      dup2\n        /* \"#utility.yul\":7279:7291   */\n      mload\n        /* \"#utility.yul\":7269:7291   */\n      swap1\n      pop\n        /* \"#utility.yul\":7200:7298   */\n      swap2\n      swap1\n      pop\n      jump\t// out\n        /* \"#utility.yul\":7304:7451   */\n    tag_203:\n        /* \"#utility.yul\":7405:7416   */\n      0x00\n        /* \"#utility.yul\":7442:7445   */\n      dup2\n        /* \"#utility.yul\":7427:7445   */\n      swap1\n      pop\n        /* \"#utility.yul\":7304:7451   */\n      swap3\n      swap2\n      pop\n      pop\n      jump\t// out\n        /* \"#utility.yul\":7457:7764   */\n    tag_204:\n        /* \"#utility.yul\":7525:7526   */\n      0x00\n        /* \"#utility.yul\":7535:7648   */\n    tag_294:\n        /* \"#utility.yul\":7549:7555   */\n      dup4\n        /* \"#utility.yul\":7546:7547   */\n      dup2\n        /* \"#utility.yul\":7543:7556   */\n      lt\n        /* \"#utility.yul\":7535:7648   */\n      iszero\n      tag_296\n      jumpi\n        /* \"#utility.yul\":7634:7635   */\n      dup1\n        /* \"#utility.yul\":7629:7632   */\n      dup3\n        /* \"#utility.yul\":7625:7636   */\n      add\n        /* \"#utility.yul\":7619:7637   */\n      mload\n        /* \"#utility.yul\":7615:7616   */\n      dup2\n        /* \"#utility.yul\":7610:7613   */\n      dup5\n        /* \"#utility.yul\":7606:7617   */\n      add\n        /* \"#utility.yul\":7599:7638   */\n      mstore\n        /* \"#utility.yul\":7571:7573   */\n      0x20\n        /* \"#utility.yul\":7568:7569   */\n      dup2\n        /* \"#utility.yul\":7564:7574   */\n      add\n        /* \"#utility.yul\":7559:7574   */\n      swap1\n      pop\n        /* \"#utility.yul\":7535:7648   */\n      jump(tag_294)\n    tag_296:\n        /* \"#utility.yul\":7666:7672   */\n      dup4\n        /* \"#utility.yul\":7663:7664   */\n      dup2\n        /* \"#utility.yul\":7660:7673   */\n      gt\n        /* \"#utility.yul\":7657:7758   */\n      iszero\n      tag_297\n      jumpi\n        /* \"#utility.yul\":7746:7747   */\n      0x00\n        /* \"#utility.yul\":7737:7743   */\n      dup5\n        /* \"#utility.yul\":7732:7735   */\n      dup5\n        /* \"#utility.yul\":7728:7744   */\n      add\n        /* \"#utility.yul\":7721:7748   */\n      mstore\n        /* \"#utility.yul\":7657:7758   */\n    tag_297:\n        /* \"#utility.yul\":7506:7764   */\n      pop\n        /* \"#utility.yul\":7457:7764   */\n      pop\n      pop\n      pop\n      jump\t// out\n        /* \"#utility.yul\":7770:8143   */\n    tag_205:\n        /* \"#utility.yul\":7874:7877   */\n      0x00\n        /* \"#utility.yul\":7902:7940   */\n      tag_299\n        /* \"#utility.yul\":7934:7939   */\n      dup3\n        /* \"#utility.yul\":7902:7940   */\n      tag_202\n      jump\t// in\n    tag_299:\n        /* \"#utility.yul\":7956:8044   */\n      tag_300\n        /* \"#utility.yul\":8037:8043   */\n      dup2\n        /* \"#utility.yul\":8032:8035   */\n      dup6\n        /* \"#utility.yul\":7956:8044   */\n      tag_203\n      jump\t// in\n    tag_300:\n        /* \"#utility.yul\":7949:8044   */\n      swap4\n      pop\n        /* \"#utility.yul\":8053:8105   */\n      tag_301\n        /* \"#utility.yul\":8098:8104   */\n      dup2\n        /* \"#utility.yul\":8093:8096   */\n      dup6\n        /* \"#utility.yul\":8086:8090   */\n      0x20\n        /* \"#utility.yul\":8079:8084   */\n      dup7\n        /* \"#utility.yul\":8075:8091   */\n      add\n        /* \"#utility.yul\":8053:8105   */\n      tag_204\n      jump\t// in\n    tag_301:\n        /* \"#utility.yul\":8130:8136   */\n      dup1\n        /* \"#utility.yul\":8125:8128   */\n      dup5\n        /* \"#utility.yul\":8121:8137   */\n      add\n        /* \"#utility.yul\":8114:8137   */\n      swap2\n      pop\n        /* \"#utility.yul\":7878:8143   */\n      pop\n        /* \"#utility.yul\":7770:8143   */\n      swap3\n      swap2\n      pop\n      pop\n      jump\t// out\n        /* \"#utility.yul\":8149:8420   */\n    tag_135:\n        /* \"#utility.yul\":8279:8282   */\n      0x00\n        /* \"#utility.yul\":8301:8394   */\n      tag_303\n        /* \"#utility.yul\":8390:8393   */\n      dup3\n        /* \"#utility.yul\":8381:8387   */\n      dup5\n        /* \"#utility.yul\":8301:8394   */\n      tag_205\n      jump\t// in\n    tag_303:\n        /* \"#utility.yul\":8294:8394   */\n      swap2\n      pop\n        /* \"#utility.yul\":8411:8414   */\n      dup2\n        /* \"#utility.yul\":8404:8414   */\n      swap1\n      pop\n        /* \"#utility.yul\":8149:8420   */\n      swap3\n      swap2\n      pop\n      pop\n      jump\t// out\n        /* \"#utility.yul\":8426:8548   */\n    tag_206:\n        /* \"#utility.yul\":8499:8523   */\n      tag_305\n        /* \"#utility.yul\":8517:8522   */\n      dup2\n        /* \"#utility.yul\":8499:8523   */\n      tag_183\n      jump\t// in\n    tag_305:\n        /* \"#utility.yul\":8492:8497   */\n      dup2\n        /* \"#utility.yul\":8489:8524   */\n      eq\n        /* \"#utility.yul\":8479:8542   */\n      tag_306\n      jumpi\n        /* \"#utility.yul\":8538:8539   */\n      0x00\n        /* \"#utility.yul\":8535:8536   */\n      dup1\n        /* \"#utility.yul\":8528:8540   */\n      revert\n        /* \"#utility.yul\":8479:8542   */\n    tag_306:\n        /* \"#utility.yul\":8426:8548   */\n      pop\n      jump\t// out\n        /* \"#utility.yul\":8554:8697   */\n    tag_207:\n        /* \"#utility.yul\":8611:8616   */\n      0x00\n        /* \"#utility.yul\":8642:8648   */\n      dup2\n        /* \"#utility.yul\":8636:8649   */\n      mload\n        /* \"#utility.yul\":8627:8649   */\n      swap1\n      pop\n        /* \"#utility.yul\":8658:8691   */\n      tag_308\n        /* \"#utility.yul\":8685:8690   */\n      dup2\n        /* \"#utility.yul\":8658:8691   */\n      tag_206\n      jump\t// in\n    tag_308:\n        /* \"#utility.yul\":8554:8697   */\n      swap3\n      swap2\n      pop\n      pop\n      jump\t// out\n        /* \"#utility.yul\":8703:9054   */\n    tag_139:\n        /* \"#utility.yul\":8773:8779   */\n      0x00\n        /* \"#utility.yul\":8822:8824   */\n      0x20\n        /* \"#utility.yul\":8810:8819   */\n      dup3\n        /* \"#utility.yul\":8801:8808   */\n      dup5\n        /* \"#utility.yul\":8797:8820   */\n      sub\n        /* \"#utility.yul\":8793:8825   */\n      slt\n        /* \"#utility.yul\":8790:8909   */\n      iszero\n      tag_310\n      jumpi\n        /* \"#utility.yul\":8828:8907   */\n      tag_311\n      tag_173\n      jump\t// in\n    tag_311:\n        /* \"#utility.yul\":8790:8909   */\n    tag_310:\n        /* \"#utility.yul\":8948:8949   */\n      0x00\n        /* \"#utility.yul\":8973:9037   */\n      tag_312\n        /* \"#utility.yul\":9029:9036   */\n      dup5\n        /* \"#utility.yul\":9020:9026   */\n      dup3\n        /* \"#utility.yul\":9009:9018   */\n      dup6\n        /* \"#utility.yul\":9005:9027   */\n      add\n        /* \"#utility.yul\":8973:9037   */\n      tag_207\n      jump\t// in\n    tag_312:\n        /* \"#utility.yul\":8963:9037   */\n      swap2\n      pop\n        /* \"#utility.yul\":8919:9047   */\n      pop\n        /* \"#utility.yul\":8703:9054   */\n      swap3\n      swap2\n      pop\n      pop\n      jump\t// out\n        /* \"#utility.yul\":9060:9251   */\n    tag_164:\n        /* \"#utility.yul\":9100:9104   */\n      0x00\n        /* \"#utility.yul\":9120:9140   */\n      tag_314\n        /* \"#utility.yul\":9138:9139   */\n      dup3\n        /* \"#utility.yul\":9120:9140   */\n      tag_179\n      jump\t// in\n    tag_314:\n        /* \"#utility.yul\":9115:9140   */\n      swap2\n      pop\n        /* \"#utility.yul\":9154:9174   */\n      tag_315\n        /* \"#utility.yul\":9172:9173   */\n      dup4\n        /* \"#utility.yul\":9154:9174   */\n      tag_179\n      jump\t// in\n    tag_315:\n        /* \"#utility.yul\":9149:9174   */\n      swap3\n      pop\n        /* \"#utility.yul\":9193:9194   */\n      dup3\n        /* \"#utility.yul\":9190:9191   */\n      dup3\n        /* \"#utility.yul\":9187:9195   */\n      lt\n        /* \"#utility.yul\":9184:9218   */\n      iszero\n      tag_316\n      jumpi\n        /* \"#utility.yul\":9198:9216   */\n      tag_317\n      tag_195\n      jump\t// in\n    tag_317:\n        /* \"#utility.yul\":9184:9218   */\n    tag_316:\n        /* \"#utility.yul\":9243:9244   */\n      dup3\n        /* \"#utility.yul\":9240:9241   */\n      dup3\n        /* \"#utility.yul\":9236:9245   */\n      sub\n        /* \"#utility.yul\":9228:9245   */\n      swap1\n      pop\n        /* \"#utility.yul\":9060:9251   */\n      swap3\n      swap2\n      pop\n      pop\n      jump\t// out\n\n    auxdata: 0xa2646970667358221220f905c599bfcde22d973dc798a27695c57799ecfc0ddb35926f8af844e0f6cfcd64736f6c634300080b0033\n}\n",
				"bytecode": {
					"linkReferences": {},
					"object": "60806040523480156200001157600080fd5b50336000806101000a81548173ffffffffffffffffffffffffffffffffffffffff021916908373ffffffffffffffffffffffffffffffffffffffff1602179055506001600360006101000a81548160ff021916908360038111156200007b576200007a620000f8565b5b02179055504360018190555060f060015462000098919062000160565b600281905550670de0b6b3a76400006005819055506000600760003273ffffffffffffffffffffffffffffffffffffffff1673ffffffffffffffffffffffffffffffffffffffff16815260200190815260200160002081905550620001bd565b7f4e487b7100000000000000000000000000000000000000000000000000000000600052602160045260246000fd5b6000819050919050565b7f4e487b7100000000000000000000000000000000000000000000000000000000600052601160045260246000fd5b60006200016d8262000127565b91506200017a8362000127565b9250827fffffffffffffffffffffffffffffffffffffffffffffffffffffffffffffffff03821115620001b257620001b162000131565b5b828201905092915050565b6113c780620001cd6000396000f3fe6080604052600436106100f35760003560e01c80637fb450991161008a578063a118be0211610059578063a118be02146102e9578063ce5bd04114610314578063e07600bd1461033f578063f8b2cb4f14610356576100f3565b80637fb450991461022b5780638c6f2e821461025657806391f90157146102935780639d957d45146102be576100f3565b80635ec2c7bf116100c65780635ec2c7bf1461016d57806362ea82db1461019857806369e9c066146101d55780637eb695a114610200576100f3565b80630490cb74146100f85780631998aeef146101355780632352f3201461013f5780633fdceefd14610156575b600080fd5b34801561010457600080fd5b5061011f600480360381019061011a9190610f0b565b610393565b60405161012c9190610f51565b60405180910390f35b61013d6103ab565b005b34801561014b57600080fd5b50610154610758565b005b34801561016257600080fd5b5061016b610812565b005b34801561017957600080fd5b506101826108cd565b60405161018f9190610f8d565b60405180910390f35b3480156101a457600080fd5b506101bf60048036038101906101ba9190610f0b565b6108f1565b6040516101cc9190610f51565b60405180910390f35b3480156101e157600080fd5b506101ea610909565b6040516101f79190610fc1565b60405180910390f35b34801561020c57600080fd5b5061021561090e565b6040516102229190610f51565b60405180910390f35b34801561023757600080fd5b50610240610914565b60405161024d9190611053565b60405180910390f35b34801561026257600080fd5b5061027d600480360381019061027891906110a4565b610927565b60405161028a9190610fc1565b60405180910390f35b34801561029f57600080fd5b506102a8610a0f565b6040516102b59190610f8d565b60405180910390f35b3480156102ca57600080fd5b506102d3610a35565b6040516102e09190610f51565b60405180910390f35b3480156102f557600080fd5b506102fe610a3b565b60405161030b9190610f51565b60405180910390f35b34801561032057600080fd5b50610329610a41565b6040516103369190610f51565b60405180910390f35b34801561034b57600080fd5b50610354610a47565b005b34801561036257600080fd5b5061037d60048036038101906103789190610f0b565b610e44565b60405161038a9190610f51565b60405180910390f35b60076020528060005260406000206000915090505481565b60008054906101000a900473ffffffffffffffffffffffffffffffffffffffff1673ffffffffffffffffffffffffffffffffffffffff163373ffffffffffffffffffffffffffffffffffffffff16141561043a576040517f08c379a00000000000000000000000000000000000000000000000000000000081526004016104319061112e565b60405180910390fd5b600154431161044857600080fd5b600254431061045657600080fd5b60003390506001600381111561046f5761046e610fdc565b5b600360009054906101000a900460ff16600381111561049157610490610fdc565b5b1461049b57600080fd5b670de0b6b3a76400003410156104b057600080fd5b600034600860003373ffffffffffffffffffffffffffffffffffffffff1673ffffffffffffffffffffffffffffffffffffffff168152602001908152602001600020546104fd919061117d565b9050600454811161050d57600080fd5b80600860003373ffffffffffffffffffffffffffffffffffffffff1673ffffffffffffffffffffffffffffffffffffffff1681526020019081526020016000208190555060086000600660009054906101000a900473ffffffffffffffffffffffffffffffffffffffff1673ffffffffffffffffffffffffffffffffffffffff1673ffffffffffffffffffffffffffffffffffffffff1681526020019081526020016000205481101561063d57610632600554826105cb919061117d565b60086000600660009054906101000a900473ffffffffffffffffffffffffffffffffffffffff1673ffffffffffffffffffffffffffffffffffffffff1673ffffffffffffffffffffffffffffffffffffffff16815260200190815260200160002054610e8d565b6004819055506106fd565b6106b58160055460086000600660009054906101000a900473ffffffffffffffffffffffffffffffffffffffff1673ffffffffffffffffffffffffffffffffffffffff1673ffffffffffffffffffffffffffffffffffffffff168152602001908152602001600020546106b0919061117d565b610e8d565b60048190555033600660006101000a81548173ffffffffffffffffffffffffffffffffffffffff021916908373ffffffffffffffffffffffffffffffffffffffff1602179055505b6001600760008473ffffffffffffffffffffffffffffffffffffffff1673ffffffffffffffffffffffffffffffffffffffff168152602001908152602001600020600082825461074d919061117d565b925050819055505050565b60008054906101000a900473ffffffffffffffffffffffffffffffffffffffff1673ffffffffffffffffffffffffffffffffffffffff163373ffffffffffffffffffffffffffffffffffffffff16146107e6576040517f08c379a00000000000000000000000000000000000000000000000000000000081526004016107dd9061112e565b60405180910390fd5b60038060006101000a81548160ff0219169083600381111561080b5761080a610fdc565b5b0217905550565b60008054906101000a900473ffffffffffffffffffffffffffffffffffffffff1673ffffffffffffffffffffffffffffffffffffffff163373ffffffffffffffffffffffffffffffffffffffff16146108a0576040517f08c379a00000000000000000000000000000000000000000000000000000000081526004016108979061112e565b60405180910390fd5b6002600360006101000a81548160ff021916908360038111156108c6576108c5610fdc565b5b0217905550565b60008054906101000a900473ffffffffffffffffffffffffffffffffffffffff1681565b60086020528060005260406000206000915090505481565b600090565b60045481565b600360009054906101000a900460ff1681565b6000600660009054906101000a900473ffffffffffffffffffffffffffffffffffffffff1673ffffffffffffffffffffffffffffffffffffffff163373ffffffffffffffffffffffffffffffffffffffff161461098357600080fd5b600042905060008060001b905060028285836040516020016109a793929190611236565b6040516020818303038152906040526040516109c391906112ed565b602060405180830381855afa1580156109e0573d6000803e3d6000fd5b5050506040513d601f19601f82011682018060405250810190610a039190611330565b92508290505050919050565b600660009054906101000a900473ffffffffffffffffffffffffffffffffffffffff1681565b60025481565b60015481565b60055481565b600380811115610a5a57610a59610fdc565b5b600360009054906101000a900460ff166003811115610a7c57610a7b610fdc565b5b1480610abb575060026003811115610a9757610a96610fdc565b5b600360009054906101000a900460ff166003811115610ab957610ab8610fdc565b5b145b80610ac7575060025443115b610ad057600080fd5b60008054906101000a900473ffffffffffffffffffffffffffffffffffffffff1673ffffffffffffffffffffffffffffffffffffffff163373ffffffffffffffffffffffffffffffffffffffff161480610b6957506000600860003373ffffffffffffffffffffffffffffffffffffffff1673ffffffffffffffffffffffffffffffffffffffff16815260200190815260200160002054115b610b7257600080fd5b600080600380811115610b8857610b87610fdc565b5b600360009054906101000a900460ff166003811115610baa57610ba9610fdc565b5b1415610bfa57339150600860003373ffffffffffffffffffffffffffffffffffffffff1673ffffffffffffffffffffffffffffffffffffffff168152602001908152602001600020549050610db4565b60008054906101000a900473ffffffffffffffffffffffffffffffffffffffff1673ffffffffffffffffffffffffffffffffffffffff163373ffffffffffffffffffffffffffffffffffffffff161415610c7b5760008054906101000a900473ffffffffffffffffffffffffffffffffffffffff1691506004549050610db3565b600660009054906101000a900473ffffffffffffffffffffffffffffffffffffffff1673ffffffffffffffffffffffffffffffffffffffff163373ffffffffffffffffffffffffffffffffffffffff161415610d6c57600660009054906101000a900473ffffffffffffffffffffffffffffffffffffffff16915060045460086000600660009054906101000a900473ffffffffffffffffffffffffffffffffffffffff1673ffffffffffffffffffffffffffffffffffffffff1673ffffffffffffffffffffffffffffffffffffffff16815260200190815260200160002054610d65919061135d565b9050610db2565b339150600860003373ffffffffffffffffffffffffffffffffffffffff1673ffffffffffffffffffffffffffffffffffffffff1681526020019081526020016000205490505b5b5b6000600860003373ffffffffffffffffffffffffffffffffffffffff1673ffffffffffffffffffffffffffffffffffffffff168152602001908152602001600020819055508173ffffffffffffffffffffffffffffffffffffffff166108fc829081150290604051600060405180830381858888f19350505050158015610e3f573d6000803e3d6000fd5b505050565b6000600760008373ffffffffffffffffffffffffffffffffffffffff1673ffffffffffffffffffffffffffffffffffffffff168152602001908152602001600020549050919050565b6000818311610e9e57829050610ea2565b8190505b92915050565b600080fd5b600073ffffffffffffffffffffffffffffffffffffffff82169050919050565b6000610ed882610ead565b9050919050565b610ee881610ecd565b8114610ef357600080fd5b50565b600081359050610f0581610edf565b92915050565b600060208284031215610f2157610f20610ea8565b5b6000610f2f84828501610ef6565b91505092915050565b6000819050919050565b610f4b81610f38565b82525050565b6000602082019050610f666000830184610f42565b92915050565b6000610f7782610ead565b9050919050565b610f8781610f6c565b82525050565b6000602082019050610fa26000830184610f7e565b92915050565b6000819050919050565b610fbb81610fa8565b82525050565b6000602082019050610fd66000830184610fb2565b92915050565b7f4e487b7100000000000000000000000000000000000000000000000000000000600052602160045260246000fd5b6004811061101c5761101b610fdc565b5b50565b600081905061102d8261100b565b919050565b600061103d8261101f565b9050919050565b61104d81611032565b82525050565b60006020820190506110686000830184611044565b92915050565b6000819050919050565b6110818161106e565b811461108c57600080fd5b50565b60008135905061109e81611078565b92915050565b6000602082840312156110ba576110b9610ea8565b5b60006110c88482850161108f565b91505092915050565b600082825260208201905092915050565b7f4f776e65722063616e6e6f742062696400000000000000000000000000000000600082015250565b60006111186010836110d1565b9150611123826110e2565b602082019050919050565b600060208201905081810360008301526111478161110b565b9050919050565b7f4e487b7100000000000000000000000000000000000000000000000000000000600052601160045260246000fd5b600061118882610f38565b915061119383610f38565b9250827fffffffffffffffffffffffffffffffffffffffffffffffffffffffffffffffff038211156111c8576111c761114e565b5b828201905092915050565b6000819050919050565b6111ee6111e982610f38565b6111d3565b82525050565b6000819050919050565b61120f61120a8261106e565b6111f4565b82525050565b6000819050919050565b61123061122b82610fa8565b611215565b82525050565b600061124282866111dd565b60208201915061125282856111fe565b602082019150611262828461121f565b602082019150819050949350505050565b600081519050919050565b600081905092915050565b60005b838110156112a757808201518184015260208101905061128c565b838111156112b6576000848401525b50505050565b60006112c782611273565b6112d1818561127e565b93506112e1818560208601611289565b80840191505092915050565b60006112f982846112bc565b915081905092915050565b61130d81610fa8565b811461131857600080fd5b50565b60008151905061132a81611304565b92915050565b60006020828403121561134657611345610ea8565b5b60006113548482850161131b565b91505092915050565b600061136882610f38565b915061137383610f38565b9250828210156113865761138561114e565b5b82820390509291505056fea2646970667358221220f905c599bfcde22d973dc798a27695c57799ecfc0ddb35926f8af844e0f6cfcd64736f6c634300080b0033",
					"opcodes": "PUSH1 0x80 PUSH1 0x40 MSTORE CALLVALUE DUP1 ISZERO PUSH3 0x11 JUMPI PUSH1 0x0 DUP1 REVERT JUMPDEST POP CALLER PUSH1 0x0 DUP1 PUSH2 0x100 EXP DUP2 SLOAD DUP2 PUSH20 0xFFFFFFFFFFFFFFFFFFFFFFFFFFFFFFFFFFFFFFFF MUL NOT AND SWAP1 DUP4 PUSH20 0xFFFFFFFFFFFFFFFFFFFFFFFFFFFFFFFFFFFFFFFF AND MUL OR SWAP1 SSTORE POP PUSH1 0x1 PUSH1 0x3 PUSH1 0x0 PUSH2 0x100 EXP DUP2 SLOAD DUP2 PUSH1 0xFF MUL NOT AND SWAP1 DUP4 PUSH1 0x3 DUP2 GT ISZERO PUSH3 0x7B JUMPI PUSH3 0x7A PUSH3 0xF8 JUMP JUMPDEST JUMPDEST MUL OR SWAP1 SSTORE POP NUMBER PUSH1 0x1 DUP2 SWAP1 SSTORE POP PUSH1 0xF0 PUSH1 0x1 SLOAD PUSH3 0x98 SWAP2 SWAP1 PUSH3 0x160 JUMP JUMPDEST PUSH1 0x2 DUP2 SWAP1 SSTORE POP PUSH8 0xDE0B6B3A7640000 PUSH1 0x5 DUP2 SWAP1 SSTORE POP PUSH1 0x0 PUSH1 0x7 PUSH1 0x0 ORIGIN PUSH20 0xFFFFFFFFFFFFFFFFFFFFFFFFFFFFFFFFFFFFFFFF AND PUSH20 0xFFFFFFFFFFFFFFFFFFFFFFFFFFFFFFFFFFFFFFFF AND DUP2 MSTORE PUSH1 0x20 ADD SWAP1 DUP2 MSTORE PUSH1 0x20 ADD PUSH1 0x0 KECCAK256 DUP2 SWAP1 SSTORE POP PUSH3 0x1BD JUMP JUMPDEST PUSH32 0x4E487B7100000000000000000000000000000000000000000000000000000000 PUSH1 0x0 MSTORE PUSH1 0x21 PUSH1 0x4 MSTORE PUSH1 0x24 PUSH1 0x0 REVERT JUMPDEST PUSH1 0x0 DUP2 SWAP1 POP SWAP2 SWAP1 POP JUMP JUMPDEST PUSH32 0x4E487B7100000000000000000000000000000000000000000000000000000000 PUSH1 0x0 MSTORE PUSH1 0x11 PUSH1 0x4 MSTORE PUSH1 0x24 PUSH1 0x0 REVERT JUMPDEST PUSH1 0x0 PUSH3 0x16D DUP3 PUSH3 0x127 JUMP JUMPDEST SWAP2 POP PUSH3 0x17A DUP4 PUSH3 0x127 JUMP JUMPDEST SWAP3 POP DUP3 PUSH32 0xFFFFFFFFFFFFFFFFFFFFFFFFFFFFFFFFFFFFFFFFFFFFFFFFFFFFFFFFFFFFFFFF SUB DUP3 GT ISZERO PUSH3 0x1B2 JUMPI PUSH3 0x1B1 PUSH3 0x131 JUMP JUMPDEST JUMPDEST DUP3 DUP3 ADD SWAP1 POP SWAP3 SWAP2 POP POP JUMP JUMPDEST PUSH2 0x13C7 DUP1 PUSH3 0x1CD PUSH1 0x0 CODECOPY PUSH1 0x0 RETURN INVALID PUSH1 0x80 PUSH1 0x40 MSTORE PUSH1 0x4 CALLDATASIZE LT PUSH2 0xF3 JUMPI PUSH1 0x0 CALLDATALOAD PUSH1 0xE0 SHR DUP1 PUSH4 0x7FB45099 GT PUSH2 0x8A JUMPI DUP1 PUSH4 0xA118BE02 GT PUSH2 0x59 JUMPI DUP1 PUSH4 0xA118BE02 EQ PUSH2 0x2E9 JUMPI DUP1 PUSH4 0xCE5BD041 EQ PUSH2 0x314 JUMPI DUP1 PUSH4 0xE07600BD EQ PUSH2 0x33F JUMPI DUP1 PUSH4 0xF8B2CB4F EQ PUSH2 0x356 JUMPI PUSH2 0xF3 JUMP JUMPDEST DUP1 PUSH4 0x7FB45099 EQ PUSH2 0x22B JUMPI DUP1 PUSH4 0x8C6F2E82 EQ PUSH2 0x256 JUMPI DUP1 PUSH4 0x91F90157 EQ PUSH2 0x293 JUMPI DUP1 PUSH4 0x9D957D45 EQ PUSH2 0x2BE JUMPI PUSH2 0xF3 JUMP JUMPDEST DUP1 PUSH4 0x5EC2C7BF GT PUSH2 0xC6 JUMPI DUP1 PUSH4 0x5EC2C7BF EQ PUSH2 0x16D JUMPI DUP1 PUSH4 0x62EA82DB EQ PUSH2 0x198 JUMPI DUP1 PUSH4 0x69E9C066 EQ PUSH2 0x1D5 JUMPI DUP1 PUSH4 0x7EB695A1 EQ PUSH2 0x200 JUMPI PUSH2 0xF3 JUMP JUMPDEST DUP1 PUSH4 0x490CB74 EQ PUSH2 0xF8 JUMPI DUP1 PUSH4 0x1998AEEF EQ PUSH2 0x135 JUMPI DUP1 PUSH4 0x2352F320 EQ PUSH2 0x13F JUMPI DUP1 PUSH4 0x3FDCEEFD EQ PUSH2 0x156 JUMPI JUMPDEST PUSH1 0x0 DUP1 REVERT JUMPDEST CALLVALUE DUP1 ISZERO PUSH2 0x104 JUMPI PUSH1 0x0 DUP1 REVERT JUMPDEST POP PUSH2 0x11F PUSH1 0x4 DUP1 CALLDATASIZE SUB DUP2 ADD SWAP1 PUSH2 0x11A SWAP2 SWAP1 PUSH2 0xF0B JUMP JUMPDEST PUSH2 0x393 JUMP JUMPDEST PUSH1 0x40 MLOAD PUSH2 0x12C SWAP2 SWAP1 PUSH2 0xF51 JUMP JUMPDEST PUSH1 0x40 MLOAD DUP1 SWAP2 SUB SWAP1 RETURN JUMPDEST PUSH2 0x13D PUSH2 0x3AB JUMP JUMPDEST STOP JUMPDEST CALLVALUE DUP1 ISZERO PUSH2 0x14B JUMPI PUSH1 0x0 DUP1 REVERT JUMPDEST POP PUSH2 0x154 PUSH2 0x758 JUMP JUMPDEST STOP JUMPDEST CALLVALUE DUP1 ISZERO PUSH2 0x162 JUMPI PUSH1 0x0 DUP1 REVERT JUMPDEST POP PUSH2 0x16B PUSH2 0x812 JUMP JUMPDEST STOP JUMPDEST CALLVALUE DUP1 ISZERO PUSH2 0x179 JUMPI PUSH1 0x0 DUP1 REVERT JUMPDEST POP PUSH2 0x182 PUSH2 0x8CD JUMP JUMPDEST PUSH1 0x40 MLOAD PUSH2 0x18F SWAP2 SWAP1 PUSH2 0xF8D JUMP JUMPDEST PUSH1 0x40 MLOAD DUP1 SWAP2 SUB SWAP1 RETURN JUMPDEST CALLVALUE DUP1 ISZERO PUSH2 0x1A4 JUMPI PUSH1 0x0 DUP1 REVERT JUMPDEST POP PUSH2 0x1BF PUSH1 0x4 DUP1 CALLDATASIZE SUB DUP2 ADD SWAP1 PUSH2 0x1BA SWAP2 SWAP1 PUSH2 0xF0B JUMP JUMPDEST PUSH2 0x8F1 JUMP JUMPDEST PUSH1 0x40 MLOAD PUSH2 0x1CC SWAP2 SWAP1 PUSH2 0xF51 JUMP JUMPDEST PUSH1 0x40 MLOAD DUP1 SWAP2 SUB SWAP1 RETURN JUMPDEST CALLVALUE DUP1 ISZERO PUSH2 0x1E1 JUMPI PUSH1 0x0 DUP1 REVERT JUMPDEST POP PUSH2 0x1EA PUSH2 0x909 JUMP JUMPDEST PUSH1 0x40 MLOAD PUSH2 0x1F7 SWAP2 SWAP1 PUSH2 0xFC1 JUMP JUMPDEST PUSH1 0x40 MLOAD DUP1 SWAP2 SUB SWAP1 RETURN JUMPDEST CALLVALUE DUP1 ISZERO PUSH2 0x20C JUMPI PUSH1 0x0 DUP1 REVERT JUMPDEST POP PUSH2 0x215 PUSH2 0x90E JUMP JUMPDEST PUSH1 0x40 MLOAD PUSH2 0x222 SWAP2 SWAP1 PUSH2 0xF51 JUMP JUMPDEST PUSH1 0x40 MLOAD DUP1 SWAP2 SUB SWAP1 RETURN JUMPDEST CALLVALUE DUP1 ISZERO PUSH2 0x237 JUMPI PUSH1 0x0 DUP1 REVERT JUMPDEST POP PUSH2 0x240 PUSH2 0x914 JUMP JUMPDEST PUSH1 0x40 MLOAD PUSH2 0x24D SWAP2 SWAP1 PUSH2 0x1053 JUMP JUMPDEST PUSH1 0x40 MLOAD DUP1 SWAP2 SUB SWAP1 RETURN JUMPDEST CALLVALUE DUP1 ISZERO PUSH2 0x262 JUMPI PUSH1 0x0 DUP1 REVERT JUMPDEST POP PUSH2 0x27D PUSH1 0x4 DUP1 CALLDATASIZE SUB DUP2 ADD SWAP1 PUSH2 0x278 SWAP2 SWAP1 PUSH2 0x10A4 JUMP JUMPDEST PUSH2 0x927 JUMP JUMPDEST PUSH1 0x40 MLOAD PUSH2 0x28A SWAP2 SWAP1 PUSH2 0xFC1 JUMP JUMPDEST PUSH1 0x40 MLOAD DUP1 SWAP2 SUB SWAP1 RETURN JUMPDEST CALLVALUE DUP1 ISZERO PUSH2 0x29F JUMPI PUSH1 0x0 DUP1 REVERT JUMPDEST POP PUSH2 0x2A8 PUSH2 0xA0F JUMP JUMPDEST PUSH1 0x40 MLOAD PUSH2 0x2B5 SWAP2 SWAP1 PUSH2 0xF8D JUMP JUMPDEST PUSH1 0x40 MLOAD DUP1 SWAP2 SUB SWAP1 RETURN JUMPDEST CALLVALUE DUP1 ISZERO PUSH2 0x2CA JUMPI PUSH1 0x0 DUP1 REVERT JUMPDEST POP PUSH2 0x2D3 PUSH2 0xA35 JUMP JUMPDEST PUSH1 0x40 MLOAD PUSH2 0x2E0 SWAP2 SWAP1 PUSH2 0xF51 JUMP JUMPDEST PUSH1 0x40 MLOAD DUP1 SWAP2 SUB SWAP1 RETURN JUMPDEST CALLVALUE DUP1 ISZERO PUSH2 0x2F5 JUMPI PUSH1 0x0 DUP1 REVERT JUMPDEST POP PUSH2 0x2FE PUSH2 0xA3B JUMP JUMPDEST PUSH1 0x40 MLOAD PUSH2 0x30B SWAP2 SWAP1 PUSH2 0xF51 JUMP JUMPDEST PUSH1 0x40 MLOAD DUP1 SWAP2 SUB SWAP1 RETURN JUMPDEST CALLVALUE DUP1 ISZERO PUSH2 0x320 JUMPI PUSH1 0x0 DUP1 REVERT JUMPDEST POP PUSH2 0x329 PUSH2 0xA41 JUMP JUMPDEST PUSH1 0x40 MLOAD PUSH2 0x336 SWAP2 SWAP1 PUSH2 0xF51 JUMP JUMPDEST PUSH1 0x40 MLOAD DUP1 SWAP2 SUB SWAP1 RETURN JUMPDEST CALLVALUE DUP1 ISZERO PUSH2 0x34B JUMPI PUSH1 0x0 DUP1 REVERT JUMPDEST POP PUSH2 0x354 PUSH2 0xA47 JUMP JUMPDEST STOP JUMPDEST CALLVALUE DUP1 ISZERO PUSH2 0x362 JUMPI PUSH1 0x0 DUP1 REVERT JUMPDEST POP PUSH2 0x37D PUSH1 0x4 DUP1 CALLDATASIZE SUB DUP2 ADD SWAP1 PUSH2 0x378 SWAP2 SWAP1 PUSH2 0xF0B JUMP JUMPDEST PUSH2 0xE44 JUMP JUMPDEST PUSH1 0x40 MLOAD PUSH2 0x38A SWAP2 SWAP1 PUSH2 0xF51 JUMP JUMPDEST PUSH1 0x40 MLOAD DUP1 SWAP2 SUB SWAP1 RETURN JUMPDEST PUSH1 0x7 PUSH1 0x20 MSTORE DUP1 PUSH1 0x0 MSTORE PUSH1 0x40 PUSH1 0x0 KECCAK256 PUSH1 0x0 SWAP2 POP SWAP1 POP SLOAD DUP2 JUMP JUMPDEST PUSH1 0x0 DUP1 SLOAD SWAP1 PUSH2 0x100 EXP SWAP1 DIV PUSH20 0xFFFFFFFFFFFFFFFFFFFFFFFFFFFFFFFFFFFFFFFF AND PUSH20 0xFFFFFFFFFFFFFFFFFFFFFFFFFFFFFFFFFFFFFFFF AND CALLER PUSH20 0xFFFFFFFFFFFFFFFFFFFFFFFFFFFFFFFFFFFFFFFF AND EQ ISZERO PUSH2 0x43A JUMPI PUSH1 0x40 MLOAD PUSH32 0x8C379A000000000000000000000000000000000000000000000000000000000 DUP2 MSTORE PUSH1 0x4 ADD PUSH2 0x431 SWAP1 PUSH2 0x112E JUMP JUMPDEST PUSH1 0x40 MLOAD DUP1 SWAP2 SUB SWAP1 REVERT JUMPDEST PUSH1 0x1 SLOAD NUMBER GT PUSH2 0x448 JUMPI PUSH1 0x0 DUP1 REVERT JUMPDEST PUSH1 0x2 SLOAD NUMBER LT PUSH2 0x456 JUMPI PUSH1 0x0 DUP1 REVERT JUMPDEST PUSH1 0x0 CALLER SWAP1 POP PUSH1 0x1 PUSH1 0x3 DUP2 GT ISZERO PUSH2 0x46F JUMPI PUSH2 0x46E PUSH2 0xFDC JUMP JUMPDEST JUMPDEST PUSH1 0x3 PUSH1 0x0 SWAP1 SLOAD SWAP1 PUSH2 0x100 EXP SWAP1 DIV PUSH1 0xFF AND PUSH1 0x3 DUP2 GT ISZERO PUSH2 0x491 JUMPI PUSH2 0x490 PUSH2 0xFDC JUMP JUMPDEST JUMPDEST EQ PUSH2 0x49B JUMPI PUSH1 0x0 DUP1 REVERT JUMPDEST PUSH8 0xDE0B6B3A7640000 CALLVALUE LT ISZERO PUSH2 0x4B0 JUMPI PUSH1 0x0 DUP1 REVERT JUMPDEST PUSH1 0x0 CALLVALUE PUSH1 0x8 PUSH1 0x0 CALLER PUSH20 0xFFFFFFFFFFFFFFFFFFFFFFFFFFFFFFFFFFFFFFFF AND PUSH20 0xFFFFFFFFFFFFFFFFFFFFFFFFFFFFFFFFFFFFFFFF AND DUP2 MSTORE PUSH1 0x20 ADD SWAP1 DUP2 MSTORE PUSH1 0x20 ADD PUSH1 0x0 KECCAK256 SLOAD PUSH2 0x4FD SWAP2 SWAP1 PUSH2 0x117D JUMP JUMPDEST SWAP1 POP PUSH1 0x4 SLOAD DUP2 GT PUSH2 0x50D JUMPI PUSH1 0x0 DUP1 REVERT JUMPDEST DUP1 PUSH1 0x8 PUSH1 0x0 CALLER PUSH20 0xFFFFFFFFFFFFFFFFFFFFFFFFFFFFFFFFFFFFFFFF AND PUSH20 0xFFFFFFFFFFFFFFFFFFFFFFFFFFFFFFFFFFFFFFFF AND DUP2 MSTORE PUSH1 0x20 ADD SWAP1 DUP2 MSTORE PUSH1 0x20 ADD PUSH1 0x0 KECCAK256 DUP2 SWAP1 SSTORE POP PUSH1 0x8 PUSH1 0x0 PUSH1 0x6 PUSH1 0x0 SWAP1 SLOAD SWAP1 PUSH2 0x100 EXP SWAP1 DIV PUSH20 0xFFFFFFFFFFFFFFFFFFFFFFFFFFFFFFFFFFFFFFFF AND PUSH20 0xFFFFFFFFFFFFFFFFFFFFFFFFFFFFFFFFFFFFFFFF AND PUSH20 0xFFFFFFFFFFFFFFFFFFFFFFFFFFFFFFFFFFFFFFFF AND DUP2 MSTORE PUSH1 0x20 ADD SWAP1 DUP2 MSTORE PUSH1 0x20 ADD PUSH1 0x0 KECCAK256 SLOAD DUP2 LT ISZERO PUSH2 0x63D JUMPI PUSH2 0x632 PUSH1 0x5 SLOAD DUP3 PUSH2 0x5CB SWAP2 SWAP1 PUSH2 0x117D JUMP JUMPDEST PUSH1 0x8 PUSH1 0x0 PUSH1 0x6 PUSH1 0x0 SWAP1 SLOAD SWAP1 PUSH2 0x100 EXP SWAP1 DIV PUSH20 0xFFFFFFFFFFFFFFFFFFFFFFFFFFFFFFFFFFFFFFFF AND PUSH20 0xFFFFFFFFFFFFFFFFFFFFFFFFFFFFFFFFFFFFFFFF AND PUSH20 0xFFFFFFFFFFFFFFFFFFFFFFFFFFFFFFFFFFFFFFFF AND DUP2 MSTORE PUSH1 0x20 ADD SWAP1 DUP2 MSTORE PUSH1 0x20 ADD PUSH1 0x0 KECCAK256 SLOAD PUSH2 0xE8D JUMP JUMPDEST PUSH1 0x4 DUP2 SWAP1 SSTORE POP PUSH2 0x6FD JUMP JUMPDEST PUSH2 0x6B5 DUP2 PUSH1 0x5 SLOAD PUSH1 0x8 PUSH1 0x0 PUSH1 0x6 PUSH1 0x0 SWAP1 SLOAD SWAP1 PUSH2 0x100 EXP SWAP1 DIV PUSH20 0xFFFFFFFFFFFFFFFFFFFFFFFFFFFFFFFFFFFFFFFF AND PUSH20 0xFFFFFFFFFFFFFFFFFFFFFFFFFFFFFFFFFFFFFFFF AND PUSH20 0xFFFFFFFFFFFFFFFFFFFFFFFFFFFFFFFFFFFFFFFF AND DUP2 MSTORE PUSH1 0x20 ADD SWAP1 DUP2 MSTORE PUSH1 0x20 ADD PUSH1 0x0 KECCAK256 SLOAD PUSH2 0x6B0 SWAP2 SWAP1 PUSH2 0x117D JUMP JUMPDEST PUSH2 0xE8D JUMP JUMPDEST PUSH1 0x4 DUP2 SWAP1 SSTORE POP CALLER PUSH1 0x6 PUSH1 0x0 PUSH2 0x100 EXP DUP2 SLOAD DUP2 PUSH20 0xFFFFFFFFFFFFFFFFFFFFFFFFFFFFFFFFFFFFFFFF MUL NOT AND SWAP1 DUP4 PUSH20 0xFFFFFFFFFFFFFFFFFFFFFFFFFFFFFFFFFFFFFFFF AND MUL OR SWAP1 SSTORE POP JUMPDEST PUSH1 0x1 PUSH1 0x7 PUSH1 0x0 DUP5 PUSH20 0xFFFFFFFFFFFFFFFFFFFFFFFFFFFFFFFFFFFFFFFF AND PUSH20 0xFFFFFFFFFFFFFFFFFFFFFFFFFFFFFFFFFFFFFFFF AND DUP2 MSTORE PUSH1 0x20 ADD SWAP1 DUP2 MSTORE PUSH1 0x20 ADD PUSH1 0x0 KECCAK256 PUSH1 0x0 DUP3 DUP3 SLOAD PUSH2 0x74D SWAP2 SWAP1 PUSH2 0x117D JUMP JUMPDEST SWAP3 POP POP DUP2 SWAP1 SSTORE POP POP POP JUMP JUMPDEST PUSH1 0x0 DUP1 SLOAD SWAP1 PUSH2 0x100 EXP SWAP1 DIV PUSH20 0xFFFFFFFFFFFFFFFFFFFFFFFFFFFFFFFFFFFFFFFF AND PUSH20 0xFFFFFFFFFFFFFFFFFFFFFFFFFFFFFFFFFFFFFFFF AND CALLER PUSH20 0xFFFFFFFFFFFFFFFFFFFFFFFFFFFFFFFFFFFFFFFF AND EQ PUSH2 0x7E6 JUMPI PUSH1 0x40 MLOAD PUSH32 0x8C379A000000000000000000000000000000000000000000000000000000000 DUP2 MSTORE PUSH1 0x4 ADD PUSH2 0x7DD SWAP1 PUSH2 0x112E JUMP JUMPDEST PUSH1 0x40 MLOAD DUP1 SWAP2 SUB SWAP1 REVERT JUMPDEST PUSH1 0x3 DUP1 PUSH1 0x0 PUSH2 0x100 EXP DUP2 SLOAD DUP2 PUSH1 0xFF MUL NOT AND SWAP1 DUP4 PUSH1 0x3 DUP2 GT ISZERO PUSH2 0x80B JUMPI PUSH2 0x80A PUSH2 0xFDC JUMP JUMPDEST JUMPDEST MUL OR SWAP1 SSTORE POP JUMP JUMPDEST PUSH1 0x0 DUP1 SLOAD SWAP1 PUSH2 0x100 EXP SWAP1 DIV PUSH20 0xFFFFFFFFFFFFFFFFFFFFFFFFFFFFFFFFFFFFFFFF AND PUSH20 0xFFFFFFFFFFFFFFFFFFFFFFFFFFFFFFFFFFFFFFFF AND CALLER PUSH20 0xFFFFFFFFFFFFFFFFFFFFFFFFFFFFFFFFFFFFFFFF AND EQ PUSH2 0x8A0 JUMPI PUSH1 0x40 MLOAD PUSH32 0x8C379A000000000000000000000000000000000000000000000000000000000 DUP2 MSTORE PUSH1 0x4 ADD PUSH2 0x897 SWAP1 PUSH2 0x112E JUMP JUMPDEST PUSH1 0x40 MLOAD DUP1 SWAP2 SUB SWAP1 REVERT JUMPDEST PUSH1 0x2 PUSH1 0x3 PUSH1 0x0 PUSH2 0x100 EXP DUP2 SLOAD DUP2 PUSH1 0xFF MUL NOT AND SWAP1 DUP4 PUSH1 0x3 DUP2 GT ISZERO PUSH2 0x8C6 JUMPI PUSH2 0x8C5 PUSH2 0xFDC JUMP JUMPDEST JUMPDEST MUL OR SWAP1 SSTORE POP JUMP JUMPDEST PUSH1 0x0 DUP1 SLOAD SWAP1 PUSH2 0x100 EXP SWAP1 DIV PUSH20 0xFFFFFFFFFFFFFFFFFFFFFFFFFFFFFFFFFFFFFFFF AND DUP2 JUMP JUMPDEST PUSH1 0x8 PUSH1 0x20 MSTORE DUP1 PUSH1 0x0 MSTORE PUSH1 0x40 PUSH1 0x0 KECCAK256 PUSH1 0x0 SWAP2 POP SWAP1 POP SLOAD DUP2 JUMP JUMPDEST PUSH1 0x0 SWAP1 JUMP JUMPDEST PUSH1 0x4 SLOAD DUP2 JUMP JUMPDEST PUSH1 0x3 PUSH1 0x0 SWAP1 SLOAD SWAP1 PUSH2 0x100 EXP SWAP1 DIV PUSH1 0xFF AND DUP2 JUMP JUMPDEST PUSH1 0x0 PUSH1 0x6 PUSH1 0x0 SWAP1 SLOAD SWAP1 PUSH2 0x100 EXP SWAP1 DIV PUSH20 0xFFFFFFFFFFFFFFFFFFFFFFFFFFFFFFFFFFFFFFFF AND PUSH20 0xFFFFFFFFFFFFFFFFFFFFFFFFFFFFFFFFFFFFFFFF AND CALLER PUSH20 0xFFFFFFFFFFFFFFFFFFFFFFFFFFFFFFFFFFFFFFFF AND EQ PUSH2 0x983 JUMPI PUSH1 0x0 DUP1 REVERT JUMPDEST PUSH1 0x0 TIMESTAMP SWAP1 POP PUSH1 0x0 DUP1 PUSH1 0x0 SHL SWAP1 POP PUSH1 0x2 DUP3 DUP6 DUP4 PUSH1 0x40 MLOAD PUSH1 0x20 ADD PUSH2 0x9A7 SWAP4 SWAP3 SWAP2 SWAP1 PUSH2 0x1236 JUMP JUMPDEST PUSH1 0x40 MLOAD PUSH1 0x20 DUP2 DUP4 SUB SUB DUP2 MSTORE SWAP1 PUSH1 0x40 MSTORE PUSH1 0x40 MLOAD PUSH2 0x9C3 SWAP2 SWAP1 PUSH2 0x12ED JUMP JUMPDEST PUSH1 0x20 PUSH1 0x40 MLOAD DUP1 DUP4 SUB DUP2 DUP6 GAS STATICCALL ISZERO DUP1 ISZERO PUSH2 0x9E0 JUMPI RETURNDATASIZE PUSH1 0x0 DUP1 RETURNDATACOPY RETURNDATASIZE PUSH1 0x0 REVERT JUMPDEST POP POP POP PUSH1 0x40 MLOAD RETURNDATASIZE PUSH1 0x1F NOT PUSH1 0x1F DUP3 ADD AND DUP3 ADD DUP1 PUSH1 0x40 MSTORE POP DUP2 ADD SWAP1 PUSH2 0xA03 SWAP2 SWAP1 PUSH2 0x1330 JUMP JUMPDEST SWAP3 POP DUP3 SWAP1 POP POP POP SWAP2 SWAP1 POP JUMP JUMPDEST PUSH1 0x6 PUSH1 0x0 SWAP1 SLOAD SWAP1 PUSH2 0x100 EXP SWAP1 DIV PUSH20 0xFFFFFFFFFFFFFFFFFFFFFFFFFFFFFFFFFFFFFFFF AND DUP2 JUMP JUMPDEST PUSH1 0x2 SLOAD DUP2 JUMP JUMPDEST PUSH1 0x1 SLOAD DUP2 JUMP JUMPDEST PUSH1 0x5 SLOAD DUP2 JUMP JUMPDEST PUSH1 0x3 DUP1 DUP2 GT ISZERO PUSH2 0xA5A JUMPI PUSH2 0xA59 PUSH2 0xFDC JUMP JUMPDEST JUMPDEST PUSH1 0x3 PUSH1 0x0 SWAP1 SLOAD SWAP1 PUSH2 0x100 EXP SWAP1 DIV PUSH1 0xFF AND PUSH1 0x3 DUP2 GT ISZERO PUSH2 0xA7C JUMPI PUSH2 0xA7B PUSH2 0xFDC JUMP JUMPDEST JUMPDEST EQ DUP1 PUSH2 0xABB JUMPI POP PUSH1 0x2 PUSH1 0x3 DUP2 GT ISZERO PUSH2 0xA97 JUMPI PUSH2 0xA96 PUSH2 0xFDC JUMP JUMPDEST JUMPDEST PUSH1 0x3 PUSH1 0x0 SWAP1 SLOAD SWAP1 PUSH2 0x100 EXP SWAP1 DIV PUSH1 0xFF AND PUSH1 0x3 DUP2 GT ISZERO PUSH2 0xAB9 JUMPI PUSH2 0xAB8 PUSH2 0xFDC JUMP JUMPDEST JUMPDEST EQ JUMPDEST DUP1 PUSH2 0xAC7 JUMPI POP PUSH1 0x2 SLOAD NUMBER GT JUMPDEST PUSH2 0xAD0 JUMPI PUSH1 0x0 DUP1 REVERT JUMPDEST PUSH1 0x0 DUP1 SLOAD SWAP1 PUSH2 0x100 EXP SWAP1 DIV PUSH20 0xFFFFFFFFFFFFFFFFFFFFFFFFFFFFFFFFFFFFFFFF AND PUSH20 0xFFFFFFFFFFFFFFFFFFFFFFFFFFFFFFFFFFFFFFFF AND CALLER PUSH20 0xFFFFFFFFFFFFFFFFFFFFFFFFFFFFFFFFFFFFFFFF AND EQ DUP1 PUSH2 0xB69 JUMPI POP PUSH1 0x0 PUSH1 0x8 PUSH1 0x0 CALLER PUSH20 0xFFFFFFFFFFFFFFFFFFFFFFFFFFFFFFFFFFFFFFFF AND PUSH20 0xFFFFFFFFFFFFFFFFFFFFFFFFFFFFFFFFFFFFFFFF AND DUP2 MSTORE PUSH1 0x20 ADD SWAP1 DUP2 MSTORE PUSH1 0x20 ADD PUSH1 0x0 KECCAK256 SLOAD GT JUMPDEST PUSH2 0xB72 JUMPI PUSH1 0x0 DUP1 REVERT JUMPDEST PUSH1 0x0 DUP1 PUSH1 0x3 DUP1 DUP2 GT ISZERO PUSH2 0xB88 JUMPI PUSH2 0xB87 PUSH2 0xFDC JUMP JUMPDEST JUMPDEST PUSH1 0x3 PUSH1 0x0 SWAP1 SLOAD SWAP1 PUSH2 0x100 EXP SWAP1 DIV PUSH1 0xFF AND PUSH1 0x3 DUP2 GT ISZERO PUSH2 0xBAA JUMPI PUSH2 0xBA9 PUSH2 0xFDC JUMP JUMPDEST JUMPDEST EQ ISZERO PUSH2 0xBFA JUMPI CALLER SWAP2 POP PUSH1 0x8 PUSH1 0x0 CALLER PUSH20 0xFFFFFFFFFFFFFFFFFFFFFFFFFFFFFFFFFFFFFFFF AND PUSH20 0xFFFFFFFFFFFFFFFFFFFFFFFFFFFFFFFFFFFFFFFF AND DUP2 MSTORE PUSH1 0x20 ADD SWAP1 DUP2 MSTORE PUSH1 0x20 ADD PUSH1 0x0 KECCAK256 SLOAD SWAP1 POP PUSH2 0xDB4 JUMP JUMPDEST PUSH1 0x0 DUP1 SLOAD SWAP1 PUSH2 0x100 EXP SWAP1 DIV PUSH20 0xFFFFFFFFFFFFFFFFFFFFFFFFFFFFFFFFFFFFFFFF AND PUSH20 0xFFFFFFFFFFFFFFFFFFFFFFFFFFFFFFFFFFFFFFFF AND CALLER PUSH20 0xFFFFFFFFFFFFFFFFFFFFFFFFFFFFFFFFFFFFFFFF AND EQ ISZERO PUSH2 0xC7B JUMPI PUSH1 0x0 DUP1 SLOAD SWAP1 PUSH2 0x100 EXP SWAP1 DIV PUSH20 0xFFFFFFFFFFFFFFFFFFFFFFFFFFFFFFFFFFFFFFFF AND SWAP2 POP PUSH1 0x4 SLOAD SWAP1 POP PUSH2 0xDB3 JUMP JUMPDEST PUSH1 0x6 PUSH1 0x0 SWAP1 SLOAD SWAP1 PUSH2 0x100 EXP SWAP1 DIV PUSH20 0xFFFFFFFFFFFFFFFFFFFFFFFFFFFFFFFFFFFFFFFF AND PUSH20 0xFFFFFFFFFFFFFFFFFFFFFFFFFFFFFFFFFFFFFFFF AND CALLER PUSH20 0xFFFFFFFFFFFFFFFFFFFFFFFFFFFFFFFFFFFFFFFF AND EQ ISZERO PUSH2 0xD6C JUMPI PUSH1 0x6 PUSH1 0x0 SWAP1 SLOAD SWAP1 PUSH2 0x100 EXP SWAP1 DIV PUSH20 0xFFFFFFFFFFFFFFFFFFFFFFFFFFFFFFFFFFFFFFFF AND SWAP2 POP PUSH1 0x4 SLOAD PUSH1 0x8 PUSH1 0x0 PUSH1 0x6 PUSH1 0x0 SWAP1 SLOAD SWAP1 PUSH2 0x100 EXP SWAP1 DIV PUSH20 0xFFFFFFFFFFFFFFFFFFFFFFFFFFFFFFFFFFFFFFFF AND PUSH20 0xFFFFFFFFFFFFFFFFFFFFFFFFFFFFFFFFFFFFFFFF AND PUSH20 0xFFFFFFFFFFFFFFFFFFFFFFFFFFFFFFFFFFFFFFFF AND DUP2 MSTORE PUSH1 0x20 ADD SWAP1 DUP2 MSTORE PUSH1 0x20 ADD PUSH1 0x0 KECCAK256 SLOAD PUSH2 0xD65 SWAP2 SWAP1 PUSH2 0x135D JUMP JUMPDEST SWAP1 POP PUSH2 0xDB2 JUMP JUMPDEST CALLER SWAP2 POP PUSH1 0x8 PUSH1 0x0 CALLER PUSH20 0xFFFFFFFFFFFFFFFFFFFFFFFFFFFFFFFFFFFFFFFF AND PUSH20 0xFFFFFFFFFFFFFFFFFFFFFFFFFFFFFFFFFFFFFFFF AND DUP2 MSTORE PUSH1 0x20 ADD SWAP1 DUP2 MSTORE PUSH1 0x20 ADD PUSH1 0x0 KECCAK256 SLOAD SWAP1 POP JUMPDEST JUMPDEST JUMPDEST PUSH1 0x0 PUSH1 0x8 PUSH1 0x0 CALLER PUSH20 0xFFFFFFFFFFFFFFFFFFFFFFFFFFFFFFFFFFFFFFFF AND PUSH20 0xFFFFFFFFFFFFFFFFFFFFFFFFFFFFFFFFFFFFFFFF AND DUP2 MSTORE PUSH1 0x20 ADD SWAP1 DUP2 MSTORE PUSH1 0x20 ADD PUSH1 0x0 KECCAK256 DUP2 SWAP1 SSTORE POP DUP2 PUSH20 0xFFFFFFFFFFFFFFFFFFFFFFFFFFFFFFFFFFFFFFFF AND PUSH2 0x8FC DUP3 SWAP1 DUP2 ISZERO MUL SWAP1 PUSH1 0x40 MLOAD PUSH1 0x0 PUSH1 0x40 MLOAD DUP1 DUP4 SUB DUP2 DUP6 DUP9 DUP9 CALL SWAP4 POP POP POP POP ISZERO DUP1 ISZERO PUSH2 0xE3F JUMPI RETURNDATASIZE PUSH1 0x0 DUP1 RETURNDATACOPY RETURNDATASIZE PUSH1 0x0 REVERT JUMPDEST POP POP POP JUMP JUMPDEST PUSH1 0x0 PUSH1 0x7 PUSH1 0x0 DUP4 PUSH20 0xFFFFFFFFFFFFFFFFFFFFFFFFFFFFFFFFFFFFFFFF AND PUSH20 0xFFFFFFFFFFFFFFFFFFFFFFFFFFFFFFFFFFFFFFFF AND DUP2 MSTORE PUSH1 0x20 ADD SWAP1 DUP2 MSTORE PUSH1 0x20 ADD PUSH1 0x0 KECCAK256 SLOAD SWAP1 POP SWAP2 SWAP1 POP JUMP JUMPDEST PUSH1 0x0 DUP2 DUP4 GT PUSH2 0xE9E JUMPI DUP3 SWAP1 POP PUSH2 0xEA2 JUMP JUMPDEST DUP2 SWAP1 POP JUMPDEST SWAP3 SWAP2 POP POP JUMP JUMPDEST PUSH1 0x0 DUP1 REVERT JUMPDEST PUSH1 0x0 PUSH20 0xFFFFFFFFFFFFFFFFFFFFFFFFFFFFFFFFFFFFFFFF DUP3 AND SWAP1 POP SWAP2 SWAP1 POP JUMP JUMPDEST PUSH1 0x0 PUSH2 0xED8 DUP3 PUSH2 0xEAD JUMP JUMPDEST SWAP1 POP SWAP2 SWAP1 POP JUMP JUMPDEST PUSH2 0xEE8 DUP2 PUSH2 0xECD JUMP JUMPDEST DUP2 EQ PUSH2 0xEF3 JUMPI PUSH1 0x0 DUP1 REVERT JUMPDEST POP JUMP JUMPDEST PUSH1 0x0 DUP2 CALLDATALOAD SWAP1 POP PUSH2 0xF05 DUP2 PUSH2 0xEDF JUMP JUMPDEST SWAP3 SWAP2 POP POP JUMP JUMPDEST PUSH1 0x0 PUSH1 0x20 DUP3 DUP5 SUB SLT ISZERO PUSH2 0xF21 JUMPI PUSH2 0xF20 PUSH2 0xEA8 JUMP JUMPDEST JUMPDEST PUSH1 0x0 PUSH2 0xF2F DUP5 DUP3 DUP6 ADD PUSH2 0xEF6 JUMP JUMPDEST SWAP2 POP POP SWAP3 SWAP2 POP POP JUMP JUMPDEST PUSH1 0x0 DUP2 SWAP1 POP SWAP2 SWAP1 POP JUMP JUMPDEST PUSH2 0xF4B DUP2 PUSH2 0xF38 JUMP JUMPDEST DUP3 MSTORE POP POP JUMP JUMPDEST PUSH1 0x0 PUSH1 0x20 DUP3 ADD SWAP1 POP PUSH2 0xF66 PUSH1 0x0 DUP4 ADD DUP5 PUSH2 0xF42 JUMP JUMPDEST SWAP3 SWAP2 POP POP JUMP JUMPDEST PUSH1 0x0 PUSH2 0xF77 DUP3 PUSH2 0xEAD JUMP JUMPDEST SWAP1 POP SWAP2 SWAP1 POP JUMP JUMPDEST PUSH2 0xF87 DUP2 PUSH2 0xF6C JUMP JUMPDEST DUP3 MSTORE POP POP JUMP JUMPDEST PUSH1 0x0 PUSH1 0x20 DUP3 ADD SWAP1 POP PUSH2 0xFA2 PUSH1 0x0 DUP4 ADD DUP5 PUSH2 0xF7E JUMP JUMPDEST SWAP3 SWAP2 POP POP JUMP JUMPDEST PUSH1 0x0 DUP2 SWAP1 POP SWAP2 SWAP1 POP JUMP JUMPDEST PUSH2 0xFBB DUP2 PUSH2 0xFA8 JUMP JUMPDEST DUP3 MSTORE POP POP JUMP JUMPDEST PUSH1 0x0 PUSH1 0x20 DUP3 ADD SWAP1 POP PUSH2 0xFD6 PUSH1 0x0 DUP4 ADD DUP5 PUSH2 0xFB2 JUMP JUMPDEST SWAP3 SWAP2 POP POP JUMP JUMPDEST PUSH32 0x4E487B7100000000000000000000000000000000000000000000000000000000 PUSH1 0x0 MSTORE PUSH1 0x21 PUSH1 0x4 MSTORE PUSH1 0x24 PUSH1 0x0 REVERT JUMPDEST PUSH1 0x4 DUP2 LT PUSH2 0x101C JUMPI PUSH2 0x101B PUSH2 0xFDC JUMP JUMPDEST JUMPDEST POP JUMP JUMPDEST PUSH1 0x0 DUP2 SWAP1 POP PUSH2 0x102D DUP3 PUSH2 0x100B JUMP JUMPDEST SWAP2 SWAP1 POP JUMP JUMPDEST PUSH1 0x0 PUSH2 0x103D DUP3 PUSH2 0x101F JUMP JUMPDEST SWAP1 POP SWAP2 SWAP1 POP JUMP JUMPDEST PUSH2 0x104D DUP2 PUSH2 0x1032 JUMP JUMPDEST DUP3 MSTORE POP POP JUMP JUMPDEST PUSH1 0x0 PUSH1 0x20 DUP3 ADD SWAP1 POP PUSH2 0x1068 PUSH1 0x0 DUP4 ADD DUP5 PUSH2 0x1044 JUMP JUMPDEST SWAP3 SWAP2 POP POP JUMP JUMPDEST PUSH1 0x0 DUP2 SWAP1 POP SWAP2 SWAP1 POP JUMP JUMPDEST PUSH2 0x1081 DUP2 PUSH2 0x106E JUMP JUMPDEST DUP2 EQ PUSH2 0x108C JUMPI PUSH1 0x0 DUP1 REVERT JUMPDEST POP JUMP JUMPDEST PUSH1 0x0 DUP2 CALLDATALOAD SWAP1 POP PUSH2 0x109E DUP2 PUSH2 0x1078 JUMP JUMPDEST SWAP3 SWAP2 POP POP JUMP JUMPDEST PUSH1 0x0 PUSH1 0x20 DUP3 DUP5 SUB SLT ISZERO PUSH2 0x10BA JUMPI PUSH2 0x10B9 PUSH2 0xEA8 JUMP JUMPDEST JUMPDEST PUSH1 0x0 PUSH2 0x10C8 DUP5 DUP3 DUP6 ADD PUSH2 0x108F JUMP JUMPDEST SWAP2 POP POP SWAP3 SWAP2 POP POP JUMP JUMPDEST PUSH1 0x0 DUP3 DUP3 MSTORE PUSH1 0x20 DUP3 ADD SWAP1 POP SWAP3 SWAP2 POP POP JUMP JUMPDEST PUSH32 0x4F776E65722063616E6E6F742062696400000000000000000000000000000000 PUSH1 0x0 DUP3 ADD MSTORE POP JUMP JUMPDEST PUSH1 0x0 PUSH2 0x1118 PUSH1 0x10 DUP4 PUSH2 0x10D1 JUMP JUMPDEST SWAP2 POP PUSH2 0x1123 DUP3 PUSH2 0x10E2 JUMP JUMPDEST PUSH1 0x20 DUP3 ADD SWAP1 POP SWAP2 SWAP1 POP JUMP JUMPDEST PUSH1 0x0 PUSH1 0x20 DUP3 ADD SWAP1 POP DUP2 DUP2 SUB PUSH1 0x0 DUP4 ADD MSTORE PUSH2 0x1147 DUP2 PUSH2 0x110B JUMP JUMPDEST SWAP1 POP SWAP2 SWAP1 POP JUMP JUMPDEST PUSH32 0x4E487B7100000000000000000000000000000000000000000000000000000000 PUSH1 0x0 MSTORE PUSH1 0x11 PUSH1 0x4 MSTORE PUSH1 0x24 PUSH1 0x0 REVERT JUMPDEST PUSH1 0x0 PUSH2 0x1188 DUP3 PUSH2 0xF38 JUMP JUMPDEST SWAP2 POP PUSH2 0x1193 DUP4 PUSH2 0xF38 JUMP JUMPDEST SWAP3 POP DUP3 PUSH32 0xFFFFFFFFFFFFFFFFFFFFFFFFFFFFFFFFFFFFFFFFFFFFFFFFFFFFFFFFFFFFFFFF SUB DUP3 GT ISZERO PUSH2 0x11C8 JUMPI PUSH2 0x11C7 PUSH2 0x114E JUMP JUMPDEST JUMPDEST DUP3 DUP3 ADD SWAP1 POP SWAP3 SWAP2 POP POP JUMP JUMPDEST PUSH1 0x0 DUP2 SWAP1 POP SWAP2 SWAP1 POP JUMP JUMPDEST PUSH2 0x11EE PUSH2 0x11E9 DUP3 PUSH2 0xF38 JUMP JUMPDEST PUSH2 0x11D3 JUMP JUMPDEST DUP3 MSTORE POP POP JUMP JUMPDEST PUSH1 0x0 DUP2 SWAP1 POP SWAP2 SWAP1 POP JUMP JUMPDEST PUSH2 0x120F PUSH2 0x120A DUP3 PUSH2 0x106E JUMP JUMPDEST PUSH2 0x11F4 JUMP JUMPDEST DUP3 MSTORE POP POP JUMP JUMPDEST PUSH1 0x0 DUP2 SWAP1 POP SWAP2 SWAP1 POP JUMP JUMPDEST PUSH2 0x1230 PUSH2 0x122B DUP3 PUSH2 0xFA8 JUMP JUMPDEST PUSH2 0x1215 JUMP JUMPDEST DUP3 MSTORE POP POP JUMP JUMPDEST PUSH1 0x0 PUSH2 0x1242 DUP3 DUP7 PUSH2 0x11DD JUMP JUMPDEST PUSH1 0x20 DUP3 ADD SWAP2 POP PUSH2 0x1252 DUP3 DUP6 PUSH2 0x11FE JUMP JUMPDEST PUSH1 0x20 DUP3 ADD SWAP2 POP PUSH2 0x1262 DUP3 DUP5 PUSH2 0x121F JUMP JUMPDEST PUSH1 0x20 DUP3 ADD SWAP2 POP DUP2 SWAP1 POP SWAP5 SWAP4 POP POP POP POP JUMP JUMPDEST PUSH1 0x0 DUP2 MLOAD SWAP1 POP SWAP2 SWAP1 POP JUMP JUMPDEST PUSH1 0x0 DUP2 SWAP1 POP SWAP3 SWAP2 POP POP JUMP JUMPDEST PUSH1 0x0 JUMPDEST DUP4 DUP2 LT ISZERO PUSH2 0x12A7 JUMPI DUP1 DUP3 ADD MLOAD DUP2 DUP5 ADD MSTORE PUSH1 0x20 DUP2 ADD SWAP1 POP PUSH2 0x128C JUMP JUMPDEST DUP4 DUP2 GT ISZERO PUSH2 0x12B6 JUMPI PUSH1 0x0 DUP5 DUP5 ADD MSTORE JUMPDEST POP POP POP POP JUMP JUMPDEST PUSH1 0x0 PUSH2 0x12C7 DUP3 PUSH2 0x1273 JUMP JUMPDEST PUSH2 0x12D1 DUP2 DUP6 PUSH2 0x127E JUMP JUMPDEST SWAP4 POP PUSH2 0x12E1 DUP2 DUP6 PUSH1 0x20 DUP7 ADD PUSH2 0x1289 JUMP JUMPDEST DUP1 DUP5 ADD SWAP2 POP POP SWAP3 SWAP2 POP POP JUMP JUMPDEST PUSH1 0x0 PUSH2 0x12F9 DUP3 DUP5 PUSH2 0x12BC JUMP JUMPDEST SWAP2 POP DUP2 SWAP1 POP SWAP3 SWAP2 POP POP JUMP JUMPDEST PUSH2 0x130D DUP2 PUSH2 0xFA8 JUMP JUMPDEST DUP2 EQ PUSH2 0x1318 JUMPI PUSH1 0x0 DUP1 REVERT JUMPDEST POP JUMP JUMPDEST PUSH1 0x0 DUP2 MLOAD SWAP1 POP PUSH2 0x132A DUP2 PUSH2 0x1304 JUMP JUMPDEST SWAP3 SWAP2 POP POP JUMP JUMPDEST PUSH1 0x0 PUSH1 0x20 DUP3 DUP5 SUB SLT ISZERO PUSH2 0x1346 JUMPI PUSH2 0x1345 PUSH2 0xEA8 JUMP JUMPDEST JUMPDEST PUSH1 0x0 PUSH2 0x1354 DUP5 DUP3 DUP6 ADD PUSH2 0x131B JUMP JUMPDEST SWAP2 POP POP SWAP3 SWAP2 POP POP JUMP JUMPDEST PUSH1 0x0 PUSH2 0x1368 DUP3 PUSH2 0xF38 JUMP JUMPDEST SWAP2 POP PUSH2 0x1373 DUP4 PUSH2 0xF38 JUMP JUMPDEST SWAP3 POP DUP3 DUP3 LT ISZERO PUSH2 0x1386 JUMPI PUSH2 0x1385 PUSH2 0x114E JUMP JUMPDEST JUMPDEST DUP3 DUP3 SUB SWAP1 POP SWAP3 SWAP2 POP POP JUMP INVALID LOG2 PUSH5 0x6970667358 0x22 SLT KECCAK256 0xF9 SDIV 0xC5 SWAP10 0xBF 0xCD 0xE2 0x2D SWAP8 RETURNDATASIZE 0xC7 SWAP9 LOG2 PUSH23 0x95C57799ECFC0DDB35926F8AF844E0F6CFCD64736F6C63 NUMBER STOP ADDMOD SIGNEXTEND STOP CALLER "
				},
				"gasEstimates": {
					"creation": {
						"codeDepositCost": "1012600",
						"executionCost": "infinite",
						"totalCost": "infinite"
					},
					"external": {
						"Block(int256)": "infinite",
						"auctionState()": "2583",
						"auctioneer()": "2534",
						"bid()": "infinite",
						"bid_Increment()": "2473",
						"bids(address)": "2859",
						"cancelAuc()": "26666",
						"endAuc()": "26688",
						"etblock()": "2518",
						"finalizeAuc()": "infinite",
						"getBalance(address)": "2929",
						"highestBidder()": "2581",
						"highest_payable_bid()": "2518",
						"prevHash()": "396",
						"stblock()": "2451",
						"xp(address)": "2838"
					},
					"internal": {
						"min(uint256,uint256)": "64"
					}
				},
				"methodIdentifiers": {
					"Block(int256)": "8c6f2e82",
					"auctionState()": "7fb45099",
					"auctioneer()": "5ec2c7bf",
					"bid()": "1998aeef",
					"bid_Increment()": "ce5bd041",
					"bids(address)": "62ea82db",
					"cancelAuc()": "2352f320",
					"endAuc()": "3fdceefd",
					"etblock()": "9d957d45",
					"finalizeAuc()": "e07600bd",
					"getBalance(address)": "f8b2cb4f",
					"highestBidder()": "91f90157",
					"highest_payable_bid()": "7eb695a1",
					"prevHash()": "69e9c066",
					"stblock()": "a118be02",
					"xp(address)": "0490cb74"
				}
			},
			"storageLayout": {
				"storage": [
					{
						"astId": 3,
						"contract": "contracts/auction.sol:Auction",
						"label": "auctioneer",
						"offset": 0,
						"slot": "0",
						"type": "t_address_payable"
					},
					{
						"astId": 5,
						"contract": "contracts/auction.sol:Auction",
						"label": "stblock",
						"offset": 0,
						"slot": "1",
						"type": "t_uint256"
					},
					{
						"astId": 7,
						"contract": "contracts/auction.sol:Auction",
						"label": "etblock",
						"offset": 0,
						"slot": "2",
						"type": "t_uint256"
					},
					{
						"astId": 15,
						"contract": "contracts/auction.sol:Auction",
						"label": "auctionState",
						"offset": 0,
						"slot": "3",
						"type": "t_enum(Auction_State)12"
					},
					{
						"astId": 17,
						"contract": "contracts/auction.sol:Auction",
						"label": "highest_payable_bid",
						"offset": 0,
						"slot": "4",
						"type": "t_uint256"
					},
					{
						"astId": 19,
						"contract": "contracts/auction.sol:Auction",
						"label": "bid_Increment",
						"offset": 0,
						"slot": "5",
						"type": "t_uint256"
					},
					{
						"astId": 21,
						"contract": "contracts/auction.sol:Auction",
						"label": "highestBidder",
						"offset": 0,
						"slot": "6",
						"type": "t_address_payable"
					},
					{
						"astId": 25,
						"contract": "contracts/auction.sol:Auction",
						"label": "xp",
						"offset": 0,
						"slot": "7",
						"type": "t_mapping(t_address,t_uint256)"
					},
					{
						"astId": 29,
						"contract": "contracts/auction.sol:Auction",
						"label": "bids",
						"offset": 0,
						"slot": "8",
						"type": "t_mapping(t_address,t_uint256)"
					}
				],
				"types": {
					"t_address": {
						"encoding": "inplace",
						"label": "address",
						"numberOfBytes": "20"
					},
					"t_address_payable": {
						"encoding": "inplace",
						"label": "address payable",
						"numberOfBytes": "20"
					},
					"t_enum(Auction_State)12": {
						"encoding": "inplace",
						"label": "enum Auction.Auction_State",
						"numberOfBytes": "1"
					},
					"t_mapping(t_address,t_uint256)": {
						"encoding": "mapping",
						"key": "t_address",
						"label": "mapping(address => uint256)",
						"numberOfBytes": "32",
						"value": "t_uint256"
					},
					"t_uint256": {
						"encoding": "inplace",
						"label": "uint256",
						"numberOfBytes": "32"
					}
				}
			},
			"userdoc": {
				"kind": "user",
				"methods": {},
				"version": 1
			}
		}
	}
}