{
	"contracts/trial2.sol": {
		"transaction": {
			"abi": [
				{
					"inputs": [
						{
							"internalType": "address",
							"name": "",
							"type": "address"
						}
					],
					"name": "balance",
					"outputs": [
						{
							"internalType": "uint256",
							"name": "",
							"type": "uint256"
						}
					],
					"stateMutability": "view",
					"type": "function"
				},
				{
					"inputs": [],
					"name": "callsha256",
					"outputs": [
						{
							"internalType": "bytes32",
							"name": "result",
							"type": "bytes32"
						}
					],
					"stateMutability": "payable",
					"type": "function"
				},
				{
					"inputs": [],
					"name": "getBalance",
					"outputs": [
						{
							"internalType": "uint256",
							"name": "",
							"type": "uint256"
						}
					],
					"stateMutability": "view",
					"type": "function"
				},
				{
					"inputs": [],
					"name": "transactions",
					"outputs": [
						{
							"internalType": "uint256",
							"name": "",
							"type": "uint256"
						}
					],
					"stateMutability": "view",
					"type": "function"
				},
				{
					"inputs": [
						{
							"internalType": "uint256",
							"name": "amount",
							"type": "uint256"
						}
					],
					"name": "withdraw",
					"outputs": [],
					"stateMutability": "payable",
					"type": "function"
				}
			],
			"devdoc": {
				"kind": "dev",
				"methods": {},
				"version": 1
			},
			"evm": {
				"assembly": "    /* \"contracts/trial2.sol\":60:830  contract transaction{... */\n  mstore(0x40, 0x80)\n    /* \"contracts/trial2.sol\":232:233  0 */\n  0x00\n    /* \"contracts/trial2.sol\":211:233  bytes32 previousHash=0 */\n  dup1\n  shl\n  0x04\n  sstore\n    /* \"contracts/trial2.sol\":60:830  contract transaction{... */\n  callvalue\n  dup1\n  iszero\n  tag_1\n  jumpi\n  0x00\n  dup1\n  revert\ntag_1:\n  pop\n  dataSize(sub_0)\n  dup1\n  dataOffset(sub_0)\n  0x00\n  codecopy\n  0x00\n  return\nstop\n\nsub_0: assembly {\n        /* \"contracts/trial2.sol\":60:830  contract transaction{... */\n      mstore(0x40, 0x80)\n      jumpi(tag_1, lt(calldatasize, 0x04))\n      shr(0xe0, calldataload(0x00))\n      dup1\n      0x12065fe0\n      eq\n      tag_2\n      jumpi\n      dup1\n      0x18015191\n      eq\n      tag_3\n      jumpi\n      dup1\n      0x2e1a7d4d\n      eq\n      tag_4\n      jumpi\n      dup1\n      0x91e67502\n      eq\n      tag_5\n      jumpi\n      dup1\n      0xe3d670d7\n      eq\n      tag_6\n      jumpi\n    tag_1:\n      0x00\n      dup1\n      revert\n        /* \"contracts/trial2.sol\":508:603  function getBalance() public view returns (uint) {... */\n    tag_2:\n      callvalue\n      dup1\n      iszero\n      tag_7\n      jumpi\n      0x00\n      dup1\n      revert\n    tag_7:\n      pop\n      tag_8\n      tag_9\n      jump\t// in\n    tag_8:\n      mload(0x40)\n      tag_10\n      swap2\n      swap1\n      tag_11\n      jump\t// in\n    tag_10:\n      mload(0x40)\n      dup1\n      swap2\n      sub\n      swap1\n      return\n        /* \"contracts/trial2.sol\":437:461  uint public transactions */\n    tag_3:\n      callvalue\n      dup1\n      iszero\n      tag_12\n      jumpi\n      0x00\n      dup1\n      revert\n    tag_12:\n      pop\n      tag_13\n      tag_14\n      jump\t// in\n    tag_13:\n      mload(0x40)\n      tag_15\n      swap2\n      swap1\n      tag_11\n      jump\t// in\n    tag_15:\n      mload(0x40)\n      dup1\n      swap2\n      sub\n      swap1\n      return\n        /* \"contracts/trial2.sol\":611:827  function withdraw(uint amount) public payable{... */\n    tag_4:\n      tag_16\n      0x04\n      dup1\n      calldatasize\n      sub\n      dup2\n      add\n      swap1\n      tag_17\n      swap2\n      swap1\n      tag_18\n      jump\t// in\n    tag_17:\n      tag_19\n      jump\t// in\n    tag_16:\n      stop\n        /* \"contracts/trial2.sol\":256:429  function callsha256() public payable returns(bytes32 result){... */\n    tag_5:\n      tag_20\n      tag_21\n      jump\t// in\n    tag_20:\n      mload(0x40)\n      tag_22\n      swap2\n      swap1\n      tag_23\n      jump\t// in\n    tag_22:\n      mload(0x40)\n      dup1\n      swap2\n      sub\n      swap1\n      return\n        /* \"contracts/trial2.sol\":165:204  mapping(address => uint) public balance */\n    tag_6:\n      callvalue\n      dup1\n      iszero\n      tag_24\n      jumpi\n      0x00\n      dup1\n      revert\n    tag_24:\n      pop\n      tag_25\n      0x04\n      dup1\n      calldatasize\n      sub\n      dup2\n      add\n      swap1\n      tag_26\n      swap2\n      swap1\n      tag_27\n      jump\t// in\n    tag_26:\n      tag_28\n      jump\t// in\n    tag_25:\n      mload(0x40)\n      tag_29\n      swap2\n      swap1\n      tag_11\n      jump\t// in\n    tag_29:\n      mload(0x40)\n      dup1\n      swap2\n      sub\n      swap1\n      return\n        /* \"contracts/trial2.sol\":508:603  function getBalance() public view returns (uint) {... */\n    tag_9:\n        /* \"contracts/trial2.sol\":551:555  uint */\n      0x00\n        /* \"contracts/trial2.sol\":575:583  balances */\n      0x07\n        /* \"contracts/trial2.sol\":575:595  balances[msg.sender] */\n      0x00\n        /* \"contracts/trial2.sol\":584:594  msg.sender */\n      caller\n        /* \"contracts/trial2.sol\":575:595  balances[msg.sender] */\n      0xffffffffffffffffffffffffffffffffffffffff\n      and\n      0xffffffffffffffffffffffffffffffffffffffff\n      and\n      dup2\n      mstore\n      0x20\n      add\n      swap1\n      dup2\n      mstore\n      0x20\n      add\n      0x00\n      keccak256\n      sload\n        /* \"contracts/trial2.sol\":568:595  return balances[msg.sender] */\n      swap1\n      pop\n        /* \"contracts/trial2.sol\":508:603  function getBalance() public view returns (uint) {... */\n      swap1\n      jump\t// out\n        /* \"contracts/trial2.sol\":437:461  uint public transactions */\n    tag_14:\n      sload(0x06)\n      dup2\n      jump\t// out\n        /* \"contracts/trial2.sol\":611:827  function withdraw(uint amount) public payable{... */\n    tag_19:\n        /* \"contracts/trial2.sol\":699:705  amount */\n      dup1\n        /* \"contracts/trial2.sol\":675:683  balances */\n      0x07\n        /* \"contracts/trial2.sol\":675:695  balances[msg.sender] */\n      0x00\n        /* \"contracts/trial2.sol\":684:694  msg.sender */\n      caller\n        /* \"contracts/trial2.sol\":675:695  balances[msg.sender] */\n      0xffffffffffffffffffffffffffffffffffffffff\n      and\n      0xffffffffffffffffffffffffffffffffffffffff\n      and\n      dup2\n      mstore\n      0x20\n      add\n      swap1\n      dup2\n      mstore\n      0x20\n      add\n      0x00\n      keccak256\n      sload\n        /* \"contracts/trial2.sol\":675:705  balances[msg.sender] >= amount */\n      lt\n      iszero\n        /* \"contracts/trial2.sol\":667:706  require(balances[msg.sender] >= amount) */\n      tag_32\n      jumpi\n      0x00\n      dup1\n      revert\n    tag_32:\n        /* \"contracts/trial2.sol\":741:747  amount */\n      dup1\n        /* \"contracts/trial2.sol\":717:725  balances */\n      0x07\n        /* \"contracts/trial2.sol\":717:737  balances[msg.sender] */\n      0x00\n        /* \"contracts/trial2.sol\":726:736  msg.sender */\n      caller\n        /* \"contracts/trial2.sol\":717:737  balances[msg.sender] */\n      0xffffffffffffffffffffffffffffffffffffffff\n      and\n      0xffffffffffffffffffffffffffffffffffffffff\n      and\n      dup2\n      mstore\n      0x20\n      add\n      swap1\n      dup2\n      mstore\n      0x20\n      add\n      0x00\n      keccak256\n      0x00\n        /* \"contracts/trial2.sol\":717:747  balances[msg.sender] -= amount */\n      dup3\n      dup3\n      sload\n      tag_33\n      swap2\n      swap1\n      tag_34\n      jump\t// in\n    tag_33:\n      swap3\n      pop\n      pop\n      dup2\n      swap1\n      sstore\n      pop\n        /* \"contracts/trial2.sol\":766:776  msg.sender */\n      caller\n        /* \"contracts/trial2.sol\":758:786  payable(msg.sender).transfer */\n      0xffffffffffffffffffffffffffffffffffffffff\n      and\n        /* \"contracts/trial2.sol\":758:794  payable(msg.sender).transfer(amount) */\n      0x08fc\n        /* \"contracts/trial2.sol\":787:793  amount */\n      dup3\n        /* \"contracts/trial2.sol\":758:794  payable(msg.sender).transfer(amount) */\n      swap1\n      dup2\n      iszero\n      mul\n      swap1\n      mload(0x40)\n      0x00\n      mload(0x40)\n      dup1\n      dup4\n      sub\n      dup2\n      dup6\n      dup9\n      dup9\n      call\n      swap4\n      pop\n      pop\n      pop\n      pop\n      iszero\n      dup1\n      iszero\n      tag_36\n      jumpi\n      returndatasize\n      0x00\n      dup1\n      returndatacopy\n      revert(0x00, returndatasize)\n    tag_36:\n      pop\n        /* \"contracts/trial2.sol\":805:817  transactions */\n      0x06\n      0x00\n        /* \"contracts/trial2.sol\":805:819  transactions++ */\n      dup2\n      sload\n      dup1\n      swap3\n      swap2\n      swap1\n      tag_37\n      swap1\n      tag_38\n      jump\t// in\n    tag_37:\n      swap2\n      swap1\n      pop\n      sstore\n      pop\n        /* \"contracts/trial2.sol\":611:827  function withdraw(uint amount) public payable{... */\n      pop\n      jump\t// out\n        /* \"contracts/trial2.sol\":256:429  function callsha256() public payable returns(bytes32 result){... */\n    tag_21:\n        /* \"contracts/trial2.sol\":301:315  bytes32 result */\n      0x00\n        /* \"contracts/trial2.sol\":334:349  block.timestamp */\n      timestamp\n        /* \"contracts/trial2.sol\":327:331  time */\n      0x05\n        /* \"contracts/trial2.sol\":327:349  time = block.timestamp */\n      dup2\n      swap1\n      sstore\n      pop\n        /* \"contracts/trial2.sol\":365:422  sha256 (abi.encode(\"ABC\",previousHash,transactions,time)) */\n      0x02\n        /* \"contracts/trial2.sol\":390:402  previousHash */\n      sload(0x04)\n        /* \"contracts/trial2.sol\":403:415  transactions */\n      sload(0x06)\n        /* \"contracts/trial2.sol\":416:420  time */\n      sload(0x05)\n        /* \"contracts/trial2.sol\":373:421  abi.encode(\"ABC\",previousHash,transactions,time) */\n      add(0x20, mload(0x40))\n      tag_40\n      swap4\n      swap3\n      swap2\n      swap1\n      tag_41\n      jump\t// in\n    tag_40:\n      mload(0x40)\n      0x20\n      dup2\n      dup4\n      sub\n      sub\n      dup2\n      mstore\n      swap1\n      0x40\n      mstore\n        /* \"contracts/trial2.sol\":365:422  sha256 (abi.encode(\"ABC\",previousHash,transactions,time)) */\n      mload(0x40)\n      tag_42\n      swap2\n      swap1\n      tag_43\n      jump\t// in\n    tag_42:\n      0x20\n      mload(0x40)\n      dup1\n      dup4\n      sub\n      dup2\n      dup6\n      gas\n      staticcall\n      iszero\n      dup1\n      iszero\n      tag_45\n      jumpi\n      returndatasize\n      0x00\n      dup1\n      returndatacopy\n      revert(0x00, returndatasize)\n    tag_45:\n      pop\n      pop\n      pop\n      mload(0x40)\n      returndatasize\n      not(0x1f)\n      0x1f\n      dup3\n      add\n      and\n      dup3\n      add\n      dup1\n      0x40\n      mstore\n      pop\n      dup2\n      add\n      swap1\n      tag_46\n      swap2\n      swap1\n      tag_47\n      jump\t// in\n    tag_46:\n        /* \"contracts/trial2.sol\":358:422  return sha256 (abi.encode(\"ABC\",previousHash,transactions,time)) */\n      swap1\n      pop\n        /* \"contracts/trial2.sol\":256:429  function callsha256() public payable returns(bytes32 result){... */\n      swap1\n      jump\t// out\n        /* \"contracts/trial2.sol\":165:204  mapping(address => uint) public balance */\n    tag_28:\n      mstore(0x20, 0x03)\n      dup1\n      0x00\n      mstore\n      keccak256(0x00, 0x40)\n      0x00\n      swap2\n      pop\n      swap1\n      pop\n      sload\n      dup2\n      jump\t// out\n        /* \"#utility.yul\":7:84   */\n    tag_48:\n        /* \"#utility.yul\":44:51   */\n      0x00\n        /* \"#utility.yul\":73:78   */\n      dup2\n        /* \"#utility.yul\":62:78   */\n      swap1\n      pop\n        /* \"#utility.yul\":7:84   */\n      swap2\n      swap1\n      pop\n      jump\t// out\n        /* \"#utility.yul\":90:208   */\n    tag_49:\n        /* \"#utility.yul\":177:201   */\n      tag_74\n        /* \"#utility.yul\":195:200   */\n      dup2\n        /* \"#utility.yul\":177:201   */\n      tag_48\n      jump\t// in\n    tag_74:\n        /* \"#utility.yul\":172:175   */\n      dup3\n        /* \"#utility.yul\":165:202   */\n      mstore\n        /* \"#utility.yul\":90:208   */\n      pop\n      pop\n      jump\t// out\n        /* \"#utility.yul\":214:436   */\n    tag_11:\n        /* \"#utility.yul\":307:311   */\n      0x00\n        /* \"#utility.yul\":345:347   */\n      0x20\n        /* \"#utility.yul\":334:343   */\n      dup3\n        /* \"#utility.yul\":330:348   */\n      add\n        /* \"#utility.yul\":322:348   */\n      swap1\n      pop\n        /* \"#utility.yul\":358:429   */\n      tag_76\n        /* \"#utility.yul\":426:427   */\n      0x00\n        /* \"#utility.yul\":415:424   */\n      dup4\n        /* \"#utility.yul\":411:428   */\n      add\n        /* \"#utility.yul\":402:408   */\n      dup5\n        /* \"#utility.yul\":358:429   */\n      tag_49\n      jump\t// in\n    tag_76:\n        /* \"#utility.yul\":214:436   */\n      swap3\n      swap2\n      pop\n      pop\n      jump\t// out\n        /* \"#utility.yul\":523:640   */\n    tag_51:\n        /* \"#utility.yul\":632:633   */\n      0x00\n        /* \"#utility.yul\":629:630   */\n      dup1\n        /* \"#utility.yul\":622:634   */\n      revert\n        /* \"#utility.yul\":769:891   */\n    tag_53:\n        /* \"#utility.yul\":842:866   */\n      tag_81\n        /* \"#utility.yul\":860:865   */\n      dup2\n        /* \"#utility.yul\":842:866   */\n      tag_48\n      jump\t// in\n    tag_81:\n        /* \"#utility.yul\":835:840   */\n      dup2\n        /* \"#utility.yul\":832:867   */\n      eq\n        /* \"#utility.yul\":822:885   */\n      tag_82\n      jumpi\n        /* \"#utility.yul\":881:882   */\n      0x00\n        /* \"#utility.yul\":878:879   */\n      dup1\n        /* \"#utility.yul\":871:883   */\n      revert\n        /* \"#utility.yul\":822:885   */\n    tag_82:\n        /* \"#utility.yul\":769:891   */\n      pop\n      jump\t// out\n        /* \"#utility.yul\":897:1036   */\n    tag_54:\n        /* \"#utility.yul\":943:948   */\n      0x00\n        /* \"#utility.yul\":981:987   */\n      dup2\n        /* \"#utility.yul\":968:988   */\n      calldataload\n        /* \"#utility.yul\":959:988   */\n      swap1\n      pop\n        /* \"#utility.yul\":997:1030   */\n      tag_84\n        /* \"#utility.yul\":1024:1029   */\n      dup2\n        /* \"#utility.yul\":997:1030   */\n      tag_53\n      jump\t// in\n    tag_84:\n        /* \"#utility.yul\":897:1036   */\n      swap3\n      swap2\n      pop\n      pop\n      jump\t// out\n        /* \"#utility.yul\":1042:1371   */\n    tag_18:\n        /* \"#utility.yul\":1101:1107   */\n      0x00\n        /* \"#utility.yul\":1150:1152   */\n      0x20\n        /* \"#utility.yul\":1138:1147   */\n      dup3\n        /* \"#utility.yul\":1129:1136   */\n      dup5\n        /* \"#utility.yul\":1125:1148   */\n      sub\n        /* \"#utility.yul\":1121:1153   */\n      slt\n        /* \"#utility.yul\":1118:1237   */\n      iszero\n      tag_86\n      jumpi\n        /* \"#utility.yul\":1156:1235   */\n      tag_87\n      tag_51\n      jump\t// in\n    tag_87:\n        /* \"#utility.yul\":1118:1237   */\n    tag_86:\n        /* \"#utility.yul\":1276:1277   */\n      0x00\n        /* \"#utility.yul\":1301:1354   */\n      tag_88\n        /* \"#utility.yul\":1346:1353   */\n      dup5\n        /* \"#utility.yul\":1337:1343   */\n      dup3\n        /* \"#utility.yul\":1326:1335   */\n      dup6\n        /* \"#utility.yul\":1322:1344   */\n      add\n        /* \"#utility.yul\":1301:1354   */\n      tag_54\n      jump\t// in\n    tag_88:\n        /* \"#utility.yul\":1291:1354   */\n      swap2\n      pop\n        /* \"#utility.yul\":1247:1364   */\n      pop\n        /* \"#utility.yul\":1042:1371   */\n      swap3\n      swap2\n      pop\n      pop\n      jump\t// out\n        /* \"#utility.yul\":1377:1454   */\n    tag_55:\n        /* \"#utility.yul\":1414:1421   */\n      0x00\n        /* \"#utility.yul\":1443:1448   */\n      dup2\n        /* \"#utility.yul\":1432:1448   */\n      swap1\n      pop\n        /* \"#utility.yul\":1377:1454   */\n      swap2\n      swap1\n      pop\n      jump\t// out\n        /* \"#utility.yul\":1460:1578   */\n    tag_56:\n        /* \"#utility.yul\":1547:1571   */\n      tag_91\n        /* \"#utility.yul\":1565:1570   */\n      dup2\n        /* \"#utility.yul\":1547:1571   */\n      tag_55\n      jump\t// in\n    tag_91:\n        /* \"#utility.yul\":1542:1545   */\n      dup3\n        /* \"#utility.yul\":1535:1572   */\n      mstore\n        /* \"#utility.yul\":1460:1578   */\n      pop\n      pop\n      jump\t// out\n        /* \"#utility.yul\":1584:1806   */\n    tag_23:\n        /* \"#utility.yul\":1677:1681   */\n      0x00\n        /* \"#utility.yul\":1715:1717   */\n      0x20\n        /* \"#utility.yul\":1704:1713   */\n      dup3\n        /* \"#utility.yul\":1700:1718   */\n      add\n        /* \"#utility.yul\":1692:1718   */\n      swap1\n      pop\n        /* \"#utility.yul\":1728:1799   */\n      tag_93\n        /* \"#utility.yul\":1796:1797   */\n      0x00\n        /* \"#utility.yul\":1785:1794   */\n      dup4\n        /* \"#utility.yul\":1781:1798   */\n      add\n        /* \"#utility.yul\":1772:1778   */\n      dup5\n        /* \"#utility.yul\":1728:1799   */\n      tag_56\n      jump\t// in\n    tag_93:\n        /* \"#utility.yul\":1584:1806   */\n      swap3\n      swap2\n      pop\n      pop\n      jump\t// out\n        /* \"#utility.yul\":1812:1938   */\n    tag_57:\n        /* \"#utility.yul\":1849:1856   */\n      0x00\n        /* \"#utility.yul\":1889:1931   */\n      0xffffffffffffffffffffffffffffffffffffffff\n        /* \"#utility.yul\":1882:1887   */\n      dup3\n        /* \"#utility.yul\":1878:1932   */\n      and\n        /* \"#utility.yul\":1867:1932   */\n      swap1\n      pop\n        /* \"#utility.yul\":1812:1938   */\n      swap2\n      swap1\n      pop\n      jump\t// out\n        /* \"#utility.yul\":1944:2040   */\n    tag_58:\n        /* \"#utility.yul\":1981:1988   */\n      0x00\n        /* \"#utility.yul\":2010:2034   */\n      tag_96\n        /* \"#utility.yul\":2028:2033   */\n      dup3\n        /* \"#utility.yul\":2010:2034   */\n      tag_57\n      jump\t// in\n    tag_96:\n        /* \"#utility.yul\":1999:2034   */\n      swap1\n      pop\n        /* \"#utility.yul\":1944:2040   */\n      swap2\n      swap1\n      pop\n      jump\t// out\n        /* \"#utility.yul\":2046:2168   */\n    tag_59:\n        /* \"#utility.yul\":2119:2143   */\n      tag_98\n        /* \"#utility.yul\":2137:2142   */\n      dup2\n        /* \"#utility.yul\":2119:2143   */\n      tag_58\n      jump\t// in\n    tag_98:\n        /* \"#utility.yul\":2112:2117   */\n      dup2\n        /* \"#utility.yul\":2109:2144   */\n      eq\n        /* \"#utility.yul\":2099:2162   */\n      tag_99\n      jumpi\n        /* \"#utility.yul\":2158:2159   */\n      0x00\n        /* \"#utility.yul\":2155:2156   */\n      dup1\n        /* \"#utility.yul\":2148:2160   */\n      revert\n        /* \"#utility.yul\":2099:2162   */\n    tag_99:\n        /* \"#utility.yul\":2046:2168   */\n      pop\n      jump\t// out\n        /* \"#utility.yul\":2174:2313   */\n    tag_60:\n        /* \"#utility.yul\":2220:2225   */\n      0x00\n        /* \"#utility.yul\":2258:2264   */\n      dup2\n        /* \"#utility.yul\":2245:2265   */\n      calldataload\n        /* \"#utility.yul\":2236:2265   */\n      swap1\n      pop\n        /* \"#utility.yul\":2274:2307   */\n      tag_101\n        /* \"#utility.yul\":2301:2306   */\n      dup2\n        /* \"#utility.yul\":2274:2307   */\n      tag_59\n      jump\t// in\n    tag_101:\n        /* \"#utility.yul\":2174:2313   */\n      swap3\n      swap2\n      pop\n      pop\n      jump\t// out\n        /* \"#utility.yul\":2319:2648   */\n    tag_27:\n        /* \"#utility.yul\":2378:2384   */\n      0x00\n        /* \"#utility.yul\":2427:2429   */\n      0x20\n        /* \"#utility.yul\":2415:2424   */\n      dup3\n        /* \"#utility.yul\":2406:2413   */\n      dup5\n        /* \"#utility.yul\":2402:2425   */\n      sub\n        /* \"#utility.yul\":2398:2430   */\n      slt\n        /* \"#utility.yul\":2395:2514   */\n      iszero\n      tag_103\n      jumpi\n        /* \"#utility.yul\":2433:2512   */\n      tag_104\n      tag_51\n      jump\t// in\n    tag_104:\n        /* \"#utility.yul\":2395:2514   */\n    tag_103:\n        /* \"#utility.yul\":2553:2554   */\n      0x00\n        /* \"#utility.yul\":2578:2631   */\n      tag_105\n        /* \"#utility.yul\":2623:2630   */\n      dup5\n        /* \"#utility.yul\":2614:2620   */\n      dup3\n        /* \"#utility.yul\":2603:2612   */\n      dup6\n        /* \"#utility.yul\":2599:2621   */\n      add\n        /* \"#utility.yul\":2578:2631   */\n      tag_60\n      jump\t// in\n    tag_105:\n        /* \"#utility.yul\":2568:2631   */\n      swap2\n      pop\n        /* \"#utility.yul\":2524:2641   */\n      pop\n        /* \"#utility.yul\":2319:2648   */\n      swap3\n      swap2\n      pop\n      pop\n      jump\t// out\n        /* \"#utility.yul\":2654:2834   */\n    tag_61:\n        /* \"#utility.yul\":2702:2779   */\n      0x4e487b7100000000000000000000000000000000000000000000000000000000\n        /* \"#utility.yul\":2699:2700   */\n      0x00\n        /* \"#utility.yul\":2692:2780   */\n      mstore\n        /* \"#utility.yul\":2799:2803   */\n      0x11\n        /* \"#utility.yul\":2796:2797   */\n      0x04\n        /* \"#utility.yul\":2789:2804   */\n      mstore\n        /* \"#utility.yul\":2823:2827   */\n      0x24\n        /* \"#utility.yul\":2820:2821   */\n      0x00\n        /* \"#utility.yul\":2813:2828   */\n      revert\n        /* \"#utility.yul\":2840:3031   */\n    tag_34:\n        /* \"#utility.yul\":2880:2884   */\n      0x00\n        /* \"#utility.yul\":2900:2920   */\n      tag_108\n        /* \"#utility.yul\":2918:2919   */\n      dup3\n        /* \"#utility.yul\":2900:2920   */\n      tag_48\n      jump\t// in\n    tag_108:\n        /* \"#utility.yul\":2895:2920   */\n      swap2\n      pop\n        /* \"#utility.yul\":2934:2954   */\n      tag_109\n        /* \"#utility.yul\":2952:2953   */\n      dup4\n        /* \"#utility.yul\":2934:2954   */\n      tag_48\n      jump\t// in\n    tag_109:\n        /* \"#utility.yul\":2929:2954   */\n      swap3\n      pop\n        /* \"#utility.yul\":2973:2974   */\n      dup3\n        /* \"#utility.yul\":2970:2971   */\n      dup3\n        /* \"#utility.yul\":2967:2975   */\n      lt\n        /* \"#utility.yul\":2964:2998   */\n      iszero\n      tag_110\n      jumpi\n        /* \"#utility.yul\":2978:2996   */\n      tag_111\n      tag_61\n      jump\t// in\n    tag_111:\n        /* \"#utility.yul\":2964:2998   */\n    tag_110:\n        /* \"#utility.yul\":3023:3024   */\n      dup3\n        /* \"#utility.yul\":3020:3021   */\n      dup3\n        /* \"#utility.yul\":3016:3025   */\n      sub\n        /* \"#utility.yul\":3008:3025   */\n      swap1\n      pop\n        /* \"#utility.yul\":2840:3031   */\n      swap3\n      swap2\n      pop\n      pop\n      jump\t// out\n        /* \"#utility.yul\":3037:3270   */\n    tag_38:\n        /* \"#utility.yul\":3076:3079   */\n      0x00\n        /* \"#utility.yul\":3099:3123   */\n      tag_113\n        /* \"#utility.yul\":3117:3122   */\n      dup3\n        /* \"#utility.yul\":3099:3123   */\n      tag_48\n      jump\t// in\n    tag_113:\n        /* \"#utility.yul\":3090:3123   */\n      swap2\n      pop\n        /* \"#utility.yul\":3145:3211   */\n      0xffffffffffffffffffffffffffffffffffffffffffffffffffffffffffffffff\n        /* \"#utility.yul\":3138:3143   */\n      dup3\n        /* \"#utility.yul\":3135:3212   */\n      eq\n        /* \"#utility.yul\":3132:3235   */\n      iszero\n      tag_114\n      jumpi\n        /* \"#utility.yul\":3215:3233   */\n      tag_115\n      tag_61\n      jump\t// in\n    tag_115:\n        /* \"#utility.yul\":3132:3235   */\n    tag_114:\n        /* \"#utility.yul\":3262:3263   */\n      0x01\n        /* \"#utility.yul\":3255:3260   */\n      dup3\n        /* \"#utility.yul\":3251:3264   */\n      add\n        /* \"#utility.yul\":3244:3264   */\n      swap1\n      pop\n        /* \"#utility.yul\":3037:3270   */\n      swap2\n      swap1\n      pop\n      jump\t// out\n        /* \"#utility.yul\":3276:3445   */\n    tag_62:\n        /* \"#utility.yul\":3360:3371   */\n      0x00\n        /* \"#utility.yul\":3394:3400   */\n      dup3\n        /* \"#utility.yul\":3389:3392   */\n      dup3\n        /* \"#utility.yul\":3382:3401   */\n      mstore\n        /* \"#utility.yul\":3434:3438   */\n      0x20\n        /* \"#utility.yul\":3429:3432   */\n      dup3\n        /* \"#utility.yul\":3425:3439   */\n      add\n        /* \"#utility.yul\":3410:3439   */\n      swap1\n      pop\n        /* \"#utility.yul\":3276:3445   */\n      swap3\n      swap2\n      pop\n      pop\n      jump\t// out\n        /* \"#utility.yul\":3451:3604   */\n    tag_63:\n        /* \"#utility.yul\":3591:3596   */\n      0x4142430000000000000000000000000000000000000000000000000000000000\n        /* \"#utility.yul\":3587:3588   */\n      0x00\n        /* \"#utility.yul\":3579:3585   */\n      dup3\n        /* \"#utility.yul\":3575:3589   */\n      add\n        /* \"#utility.yul\":3568:3597   */\n      mstore\n        /* \"#utility.yul\":3451:3604   */\n      pop\n      jump\t// out\n        /* \"#utility.yul\":3610:3975   */\n    tag_64:\n        /* \"#utility.yul\":3752:3755   */\n      0x00\n        /* \"#utility.yul\":3773:3839   */\n      tag_119\n        /* \"#utility.yul\":3837:3838   */\n      0x03\n        /* \"#utility.yul\":3832:3835   */\n      dup4\n        /* \"#utility.yul\":3773:3839   */\n      tag_62\n      jump\t// in\n    tag_119:\n        /* \"#utility.yul\":3766:3839   */\n      swap2\n      pop\n        /* \"#utility.yul\":3848:3941   */\n      tag_120\n        /* \"#utility.yul\":3937:3940   */\n      dup3\n        /* \"#utility.yul\":3848:3941   */\n      tag_63\n      jump\t// in\n    tag_120:\n        /* \"#utility.yul\":3966:3968   */\n      0x20\n        /* \"#utility.yul\":3961:3964   */\n      dup3\n        /* \"#utility.yul\":3957:3969   */\n      add\n        /* \"#utility.yul\":3950:3969   */\n      swap1\n      pop\n        /* \"#utility.yul\":3610:3975   */\n      swap2\n      swap1\n      pop\n      jump\t// out\n        /* \"#utility.yul\":3981:4731   */\n    tag_41:\n        /* \"#utility.yul\":4231:4235   */\n      0x00\n        /* \"#utility.yul\":4269:4272   */\n      0x80\n        /* \"#utility.yul\":4258:4267   */\n      dup3\n        /* \"#utility.yul\":4254:4273   */\n      add\n        /* \"#utility.yul\":4246:4273   */\n      swap1\n      pop\n        /* \"#utility.yul\":4319:4328   */\n      dup2\n        /* \"#utility.yul\":4313:4317   */\n      dup2\n        /* \"#utility.yul\":4309:4329   */\n      sub\n        /* \"#utility.yul\":4305:4306   */\n      0x00\n        /* \"#utility.yul\":4294:4303   */\n      dup4\n        /* \"#utility.yul\":4290:4307   */\n      add\n        /* \"#utility.yul\":4283:4330   */\n      mstore\n        /* \"#utility.yul\":4347:4478   */\n      tag_122\n        /* \"#utility.yul\":4473:4477   */\n      dup2\n        /* \"#utility.yul\":4347:4478   */\n      tag_64\n      jump\t// in\n    tag_122:\n        /* \"#utility.yul\":4339:4478   */\n      swap1\n      pop\n        /* \"#utility.yul\":4488:4560   */\n      tag_123\n        /* \"#utility.yul\":4556:4558   */\n      0x20\n        /* \"#utility.yul\":4545:4554   */\n      dup4\n        /* \"#utility.yul\":4541:4559   */\n      add\n        /* \"#utility.yul\":4532:4538   */\n      dup7\n        /* \"#utility.yul\":4488:4560   */\n      tag_56\n      jump\t// in\n    tag_123:\n        /* \"#utility.yul\":4570:4642   */\n      tag_124\n        /* \"#utility.yul\":4638:4640   */\n      0x40\n        /* \"#utility.yul\":4627:4636   */\n      dup4\n        /* \"#utility.yul\":4623:4641   */\n      add\n        /* \"#utility.yul\":4614:4620   */\n      dup6\n        /* \"#utility.yul\":4570:4642   */\n      tag_49\n      jump\t// in\n    tag_124:\n        /* \"#utility.yul\":4652:4724   */\n      tag_125\n        /* \"#utility.yul\":4720:4722   */\n      0x60\n        /* \"#utility.yul\":4709:4718   */\n      dup4\n        /* \"#utility.yul\":4705:4723   */\n      add\n        /* \"#utility.yul\":4696:4702   */\n      dup5\n        /* \"#utility.yul\":4652:4724   */\n      tag_49\n      jump\t// in\n    tag_125:\n        /* \"#utility.yul\":3981:4731   */\n      swap5\n      swap4\n      pop\n      pop\n      pop\n      pop\n      jump\t// out\n        /* \"#utility.yul\":4737:4835   */\n    tag_65:\n        /* \"#utility.yul\":4788:4794   */\n      0x00\n        /* \"#utility.yul\":4822:4827   */\n      dup2\n        /* \"#utility.yul\":4816:4828   */\n      mload\n        /* \"#utility.yul\":4806:4828   */\n      swap1\n      pop\n        /* \"#utility.yul\":4737:4835   */\n      swap2\n      swap1\n      pop\n      jump\t// out\n        /* \"#utility.yul\":4841:4988   */\n    tag_66:\n        /* \"#utility.yul\":4942:4953   */\n      0x00\n        /* \"#utility.yul\":4979:4982   */\n      dup2\n        /* \"#utility.yul\":4964:4982   */\n      swap1\n      pop\n        /* \"#utility.yul\":4841:4988   */\n      swap3\n      swap2\n      pop\n      pop\n      jump\t// out\n        /* \"#utility.yul\":4994:5301   */\n    tag_67:\n        /* \"#utility.yul\":5062:5063   */\n      0x00\n        /* \"#utility.yul\":5072:5185   */\n    tag_129:\n        /* \"#utility.yul\":5086:5092   */\n      dup4\n        /* \"#utility.yul\":5083:5084   */\n      dup2\n        /* \"#utility.yul\":5080:5093   */\n      lt\n        /* \"#utility.yul\":5072:5185   */\n      iszero\n      tag_131\n      jumpi\n        /* \"#utility.yul\":5171:5172   */\n      dup1\n        /* \"#utility.yul\":5166:5169   */\n      dup3\n        /* \"#utility.yul\":5162:5173   */\n      add\n        /* \"#utility.yul\":5156:5174   */\n      mload\n        /* \"#utility.yul\":5152:5153   */\n      dup2\n        /* \"#utility.yul\":5147:5150   */\n      dup5\n        /* \"#utility.yul\":5143:5154   */\n      add\n        /* \"#utility.yul\":5136:5175   */\n      mstore\n        /* \"#utility.yul\":5108:5110   */\n      0x20\n        /* \"#utility.yul\":5105:5106   */\n      dup2\n        /* \"#utility.yul\":5101:5111   */\n      add\n        /* \"#utility.yul\":5096:5111   */\n      swap1\n      pop\n        /* \"#utility.yul\":5072:5185   */\n      jump(tag_129)\n    tag_131:\n        /* \"#utility.yul\":5203:5209   */\n      dup4\n        /* \"#utility.yul\":5200:5201   */\n      dup2\n        /* \"#utility.yul\":5197:5210   */\n      gt\n        /* \"#utility.yul\":5194:5295   */\n      iszero\n      tag_132\n      jumpi\n        /* \"#utility.yul\":5283:5284   */\n      0x00\n        /* \"#utility.yul\":5274:5280   */\n      dup5\n        /* \"#utility.yul\":5269:5272   */\n      dup5\n        /* \"#utility.yul\":5265:5281   */\n      add\n        /* \"#utility.yul\":5258:5285   */\n      mstore\n        /* \"#utility.yul\":5194:5295   */\n    tag_132:\n        /* \"#utility.yul\":5043:5301   */\n      pop\n        /* \"#utility.yul\":4994:5301   */\n      pop\n      pop\n      pop\n      jump\t// out\n        /* \"#utility.yul\":5307:5680   */\n    tag_68:\n        /* \"#utility.yul\":5411:5414   */\n      0x00\n        /* \"#utility.yul\":5439:5477   */\n      tag_134\n        /* \"#utility.yul\":5471:5476   */\n      dup3\n        /* \"#utility.yul\":5439:5477   */\n      tag_65\n      jump\t// in\n    tag_134:\n        /* \"#utility.yul\":5493:5581   */\n      tag_135\n        /* \"#utility.yul\":5574:5580   */\n      dup2\n        /* \"#utility.yul\":5569:5572   */\n      dup6\n        /* \"#utility.yul\":5493:5581   */\n      tag_66\n      jump\t// in\n    tag_135:\n        /* \"#utility.yul\":5486:5581   */\n      swap4\n      pop\n        /* \"#utility.yul\":5590:5642   */\n      tag_136\n        /* \"#utility.yul\":5635:5641   */\n      dup2\n        /* \"#utility.yul\":5630:5633   */\n      dup6\n        /* \"#utility.yul\":5623:5627   */\n      0x20\n        /* \"#utility.yul\":5616:5621   */\n      dup7\n        /* \"#utility.yul\":5612:5628   */\n      add\n        /* \"#utility.yul\":5590:5642   */\n      tag_67\n      jump\t// in\n    tag_136:\n        /* \"#utility.yul\":5667:5673   */\n      dup1\n        /* \"#utility.yul\":5662:5665   */\n      dup5\n        /* \"#utility.yul\":5658:5674   */\n      add\n        /* \"#utility.yul\":5651:5674   */\n      swap2\n      pop\n        /* \"#utility.yul\":5415:5680   */\n      pop\n        /* \"#utility.yul\":5307:5680   */\n      swap3\n      swap2\n      pop\n      pop\n      jump\t// out\n        /* \"#utility.yul\":5686:5957   */\n    tag_43:\n        /* \"#utility.yul\":5816:5819   */\n      0x00\n        /* \"#utility.yul\":5838:5931   */\n      tag_138\n        /* \"#utility.yul\":5927:5930   */\n      dup3\n        /* \"#utility.yul\":5918:5924   */\n      dup5\n        /* \"#utility.yul\":5838:5931   */\n      tag_68\n      jump\t// in\n    tag_138:\n        /* \"#utility.yul\":5831:5931   */\n      swap2\n      pop\n        /* \"#utility.yul\":5948:5951   */\n      dup2\n        /* \"#utility.yul\":5941:5951   */\n      swap1\n      pop\n        /* \"#utility.yul\":5686:5957   */\n      swap3\n      swap2\n      pop\n      pop\n      jump\t// out\n        /* \"#utility.yul\":5963:6085   */\n    tag_69:\n        /* \"#utility.yul\":6036:6060   */\n      tag_140\n        /* \"#utility.yul\":6054:6059   */\n      dup2\n        /* \"#utility.yul\":6036:6060   */\n      tag_55\n      jump\t// in\n    tag_140:\n        /* \"#utility.yul\":6029:6034   */\n      dup2\n        /* \"#utility.yul\":6026:6061   */\n      eq\n        /* \"#utility.yul\":6016:6079   */\n      tag_141\n      jumpi\n        /* \"#utility.yul\":6075:6076   */\n      0x00\n        /* \"#utility.yul\":6072:6073   */\n      dup1\n        /* \"#utility.yul\":6065:6077   */\n      revert\n        /* \"#utility.yul\":6016:6079   */\n    tag_141:\n        /* \"#utility.yul\":5963:6085   */\n      pop\n      jump\t// out\n        /* \"#utility.yul\":6091:6234   */\n    tag_70:\n        /* \"#utility.yul\":6148:6153   */\n      0x00\n        /* \"#utility.yul\":6179:6185   */\n      dup2\n        /* \"#utility.yul\":6173:6186   */\n      mload\n        /* \"#utility.yul\":6164:6186   */\n      swap1\n      pop\n        /* \"#utility.yul\":6195:6228   */\n      tag_143\n        /* \"#utility.yul\":6222:6227   */\n      dup2\n        /* \"#utility.yul\":6195:6228   */\n      tag_69\n      jump\t// in\n    tag_143:\n        /* \"#utility.yul\":6091:6234   */\n      swap3\n      swap2\n      pop\n      pop\n      jump\t// out\n        /* \"#utility.yul\":6240:6591   */\n    tag_47:\n        /* \"#utility.yul\":6310:6316   */\n      0x00\n        /* \"#utility.yul\":6359:6361   */\n      0x20\n        /* \"#utility.yul\":6347:6356   */\n      dup3\n        /* \"#utility.yul\":6338:6345   */\n      dup5\n        /* \"#utility.yul\":6334:6357   */\n      sub\n        /* \"#utility.yul\":6330:6362   */\n      slt\n        /* \"#utility.yul\":6327:6446   */\n      iszero\n      tag_145\n      jumpi\n        /* \"#utility.yul\":6365:6444   */\n      tag_146\n      tag_51\n      jump\t// in\n    tag_146:\n        /* \"#utility.yul\":6327:6446   */\n    tag_145:\n        /* \"#utility.yul\":6485:6486   */\n      0x00\n        /* \"#utility.yul\":6510:6574   */\n      tag_147\n        /* \"#utility.yul\":6566:6573   */\n      dup5\n        /* \"#utility.yul\":6557:6563   */\n      dup3\n        /* \"#utility.yul\":6546:6555   */\n      dup6\n        /* \"#utility.yul\":6542:6564   */\n      add\n        /* \"#utility.yul\":6510:6574   */\n      tag_70\n      jump\t// in\n    tag_147:\n        /* \"#utility.yul\":6500:6574   */\n      swap2\n      pop\n        /* \"#utility.yul\":6456:6584   */\n      pop\n        /* \"#utility.yul\":6240:6591   */\n      swap3\n      swap2\n      pop\n      pop\n      jump\t// out\n\n    auxdata: 0xa26469706673582212202a78e5848645621f41134c4d383bb64b5cee15a40d8db390d86a763a24a4732a64736f6c634300080b0033\n}\n",
				"bytecode": {
					"linkReferences": {},
					"object": "60806040526000801b60045534801561001757600080fd5b506106d0806100276000396000f3fe60806040526004361061004a5760003560e01c806312065fe01461004f578063180151911461007a5780632e1a7d4d146100a557806391e67502146100c1578063e3d670d7146100df575b600080fd5b34801561005b57600080fd5b5061006461011c565b6040516100719190610325565b60405180910390f35b34801561008657600080fd5b5061008f610163565b60405161009c9190610325565b60405180910390f35b6100bf60048036038101906100ba9190610371565b610169565b005b6100c961026d565b6040516100d691906103b7565b60405180910390f35b3480156100eb57600080fd5b5061010660048036038101906101019190610430565b6102f4565b6040516101139190610325565b60405180910390f35b6000600760003373ffffffffffffffffffffffffffffffffffffffff1673ffffffffffffffffffffffffffffffffffffffff16815260200190815260200160002054905090565b60065481565b80600760003373ffffffffffffffffffffffffffffffffffffffff1673ffffffffffffffffffffffffffffffffffffffff1681526020019081526020016000205410156101b557600080fd5b80600760003373ffffffffffffffffffffffffffffffffffffffff1673ffffffffffffffffffffffffffffffffffffffff1681526020019081526020016000206000828254610204919061048c565b925050819055503373ffffffffffffffffffffffffffffffffffffffff166108fc829081150290604051600060405180830381858888f19350505050158015610251573d6000803e3d6000fd5b5060066000815480929190610265906104c0565b919050555050565b600042600581905550600260045460065460055460405160200161029393929190610566565b6040516020818303038152906040526040516102af919061062a565b602060405180830381855afa1580156102cc573d6000803e3d6000fd5b5050506040513d601f19601f820116820180604052508101906102ef919061066d565b905090565b60036020528060005260406000206000915090505481565b6000819050919050565b61031f8161030c565b82525050565b600060208201905061033a6000830184610316565b92915050565b600080fd5b61034e8161030c565b811461035957600080fd5b50565b60008135905061036b81610345565b92915050565b60006020828403121561038757610386610340565b5b60006103958482850161035c565b91505092915050565b6000819050919050565b6103b18161039e565b82525050565b60006020820190506103cc60008301846103a8565b92915050565b600073ffffffffffffffffffffffffffffffffffffffff82169050919050565b60006103fd826103d2565b9050919050565b61040d816103f2565b811461041857600080fd5b50565b60008135905061042a81610404565b92915050565b60006020828403121561044657610445610340565b5b60006104548482850161041b565b91505092915050565b7f4e487b7100000000000000000000000000000000000000000000000000000000600052601160045260246000fd5b60006104978261030c565b91506104a28361030c565b9250828210156104b5576104b461045d565b5b828203905092915050565b60006104cb8261030c565b91507fffffffffffffffffffffffffffffffffffffffffffffffffffffffffffffffff8214156104fe576104fd61045d565b5b600182019050919050565b600082825260208201905092915050565b7f4142430000000000000000000000000000000000000000000000000000000000600082015250565b6000610550600383610509565b915061055b8261051a565b602082019050919050565b6000608082019050818103600083015261057f81610543565b905061058e60208301866103a8565b61059b6040830185610316565b6105a86060830184610316565b949350505050565b600081519050919050565b600081905092915050565b60005b838110156105e45780820151818401526020810190506105c9565b838111156105f3576000848401525b50505050565b6000610604826105b0565b61060e81856105bb565b935061061e8185602086016105c6565b80840191505092915050565b600061063682846105f9565b915081905092915050565b61064a8161039e565b811461065557600080fd5b50565b60008151905061066781610641565b92915050565b60006020828403121561068357610682610340565b5b600061069184828501610658565b9150509291505056fea26469706673582212202a78e5848645621f41134c4d383bb64b5cee15a40d8db390d86a763a24a4732a64736f6c634300080b0033",
					"opcodes": "PUSH1 0x80 PUSH1 0x40 MSTORE PUSH1 0x0 DUP1 SHL PUSH1 0x4 SSTORE CALLVALUE DUP1 ISZERO PUSH2 0x17 JUMPI PUSH1 0x0 DUP1 REVERT JUMPDEST POP PUSH2 0x6D0 DUP1 PUSH2 0x27 PUSH1 0x0 CODECOPY PUSH1 0x0 RETURN INVALID PUSH1 0x80 PUSH1 0x40 MSTORE PUSH1 0x4 CALLDATASIZE LT PUSH2 0x4A JUMPI PUSH1 0x0 CALLDATALOAD PUSH1 0xE0 SHR DUP1 PUSH4 0x12065FE0 EQ PUSH2 0x4F JUMPI DUP1 PUSH4 0x18015191 EQ PUSH2 0x7A JUMPI DUP1 PUSH4 0x2E1A7D4D EQ PUSH2 0xA5 JUMPI DUP1 PUSH4 0x91E67502 EQ PUSH2 0xC1 JUMPI DUP1 PUSH4 0xE3D670D7 EQ PUSH2 0xDF JUMPI JUMPDEST PUSH1 0x0 DUP1 REVERT JUMPDEST CALLVALUE DUP1 ISZERO PUSH2 0x5B JUMPI PUSH1 0x0 DUP1 REVERT JUMPDEST POP PUSH2 0x64 PUSH2 0x11C JUMP JUMPDEST PUSH1 0x40 MLOAD PUSH2 0x71 SWAP2 SWAP1 PUSH2 0x325 JUMP JUMPDEST PUSH1 0x40 MLOAD DUP1 SWAP2 SUB SWAP1 RETURN JUMPDEST CALLVALUE DUP1 ISZERO PUSH2 0x86 JUMPI PUSH1 0x0 DUP1 REVERT JUMPDEST POP PUSH2 0x8F PUSH2 0x163 JUMP JUMPDEST PUSH1 0x40 MLOAD PUSH2 0x9C SWAP2 SWAP1 PUSH2 0x325 JUMP JUMPDEST PUSH1 0x40 MLOAD DUP1 SWAP2 SUB SWAP1 RETURN JUMPDEST PUSH2 0xBF PUSH1 0x4 DUP1 CALLDATASIZE SUB DUP2 ADD SWAP1 PUSH2 0xBA SWAP2 SWAP1 PUSH2 0x371 JUMP JUMPDEST PUSH2 0x169 JUMP JUMPDEST STOP JUMPDEST PUSH2 0xC9 PUSH2 0x26D JUMP JUMPDEST PUSH1 0x40 MLOAD PUSH2 0xD6 SWAP2 SWAP1 PUSH2 0x3B7 JUMP JUMPDEST PUSH1 0x40 MLOAD DUP1 SWAP2 SUB SWAP1 RETURN JUMPDEST CALLVALUE DUP1 ISZERO PUSH2 0xEB JUMPI PUSH1 0x0 DUP1 REVERT JUMPDEST POP PUSH2 0x106 PUSH1 0x4 DUP1 CALLDATASIZE SUB DUP2 ADD SWAP1 PUSH2 0x101 SWAP2 SWAP1 PUSH2 0x430 JUMP JUMPDEST PUSH2 0x2F4 JUMP JUMPDEST PUSH1 0x40 MLOAD PUSH2 0x113 SWAP2 SWAP1 PUSH2 0x325 JUMP JUMPDEST PUSH1 0x40 MLOAD DUP1 SWAP2 SUB SWAP1 RETURN JUMPDEST PUSH1 0x0 PUSH1 0x7 PUSH1 0x0 CALLER PUSH20 0xFFFFFFFFFFFFFFFFFFFFFFFFFFFFFFFFFFFFFFFF AND PUSH20 0xFFFFFFFFFFFFFFFFFFFFFFFFFFFFFFFFFFFFFFFF AND DUP2 MSTORE PUSH1 0x20 ADD SWAP1 DUP2 MSTORE PUSH1 0x20 ADD PUSH1 0x0 KECCAK256 SLOAD SWAP1 POP SWAP1 JUMP JUMPDEST PUSH1 0x6 SLOAD DUP2 JUMP JUMPDEST DUP1 PUSH1 0x7 PUSH1 0x0 CALLER PUSH20 0xFFFFFFFFFFFFFFFFFFFFFFFFFFFFFFFFFFFFFFFF AND PUSH20 0xFFFFFFFFFFFFFFFFFFFFFFFFFFFFFFFFFFFFFFFF AND DUP2 MSTORE PUSH1 0x20 ADD SWAP1 DUP2 MSTORE PUSH1 0x20 ADD PUSH1 0x0 KECCAK256 SLOAD LT ISZERO PUSH2 0x1B5 JUMPI PUSH1 0x0 DUP1 REVERT JUMPDEST DUP1 PUSH1 0x7 PUSH1 0x0 CALLER PUSH20 0xFFFFFFFFFFFFFFFFFFFFFFFFFFFFFFFFFFFFFFFF AND PUSH20 0xFFFFFFFFFFFFFFFFFFFFFFFFFFFFFFFFFFFFFFFF AND DUP2 MSTORE PUSH1 0x20 ADD SWAP1 DUP2 MSTORE PUSH1 0x20 ADD PUSH1 0x0 KECCAK256 PUSH1 0x0 DUP3 DUP3 SLOAD PUSH2 0x204 SWAP2 SWAP1 PUSH2 0x48C JUMP JUMPDEST SWAP3 POP POP DUP2 SWAP1 SSTORE POP CALLER PUSH20 0xFFFFFFFFFFFFFFFFFFFFFFFFFFFFFFFFFFFFFFFF AND PUSH2 0x8FC DUP3 SWAP1 DUP2 ISZERO MUL SWAP1 PUSH1 0x40 MLOAD PUSH1 0x0 PUSH1 0x40 MLOAD DUP1 DUP4 SUB DUP2 DUP6 DUP9 DUP9 CALL SWAP4 POP POP POP POP ISZERO DUP1 ISZERO PUSH2 0x251 JUMPI RETURNDATASIZE PUSH1 0x0 DUP1 RETURNDATACOPY RETURNDATASIZE PUSH1 0x0 REVERT JUMPDEST POP PUSH1 0x6 PUSH1 0x0 DUP2 SLOAD DUP1 SWAP3 SWAP2 SWAP1 PUSH2 0x265 SWAP1 PUSH2 0x4C0 JUMP JUMPDEST SWAP2 SWAP1 POP SSTORE POP POP JUMP JUMPDEST PUSH1 0x0 TIMESTAMP PUSH1 0x5 DUP2 SWAP1 SSTORE POP PUSH1 0x2 PUSH1 0x4 SLOAD PUSH1 0x6 SLOAD PUSH1 0x5 SLOAD PUSH1 0x40 MLOAD PUSH1 0x20 ADD PUSH2 0x293 SWAP4 SWAP3 SWAP2 SWAP1 PUSH2 0x566 JUMP JUMPDEST PUSH1 0x40 MLOAD PUSH1 0x20 DUP2 DUP4 SUB SUB DUP2 MSTORE SWAP1 PUSH1 0x40 MSTORE PUSH1 0x40 MLOAD PUSH2 0x2AF SWAP2 SWAP1 PUSH2 0x62A JUMP JUMPDEST PUSH1 0x20 PUSH1 0x40 MLOAD DUP1 DUP4 SUB DUP2 DUP6 GAS STATICCALL ISZERO DUP1 ISZERO PUSH2 0x2CC JUMPI RETURNDATASIZE PUSH1 0x0 DUP1 RETURNDATACOPY RETURNDATASIZE PUSH1 0x0 REVERT JUMPDEST POP POP POP PUSH1 0x40 MLOAD RETURNDATASIZE PUSH1 0x1F NOT PUSH1 0x1F DUP3 ADD AND DUP3 ADD DUP1 PUSH1 0x40 MSTORE POP DUP2 ADD SWAP1 PUSH2 0x2EF SWAP2 SWAP1 PUSH2 0x66D JUMP JUMPDEST SWAP1 POP SWAP1 JUMP JUMPDEST PUSH1 0x3 PUSH1 0x20 MSTORE DUP1 PUSH1 0x0 MSTORE PUSH1 0x40 PUSH1 0x0 KECCAK256 PUSH1 0x0 SWAP2 POP SWAP1 POP SLOAD DUP2 JUMP JUMPDEST PUSH1 0x0 DUP2 SWAP1 POP SWAP2 SWAP1 POP JUMP JUMPDEST PUSH2 0x31F DUP2 PUSH2 0x30C JUMP JUMPDEST DUP3 MSTORE POP POP JUMP JUMPDEST PUSH1 0x0 PUSH1 0x20 DUP3 ADD SWAP1 POP PUSH2 0x33A PUSH1 0x0 DUP4 ADD DUP5 PUSH2 0x316 JUMP JUMPDEST SWAP3 SWAP2 POP POP JUMP JUMPDEST PUSH1 0x0 DUP1 REVERT JUMPDEST PUSH2 0x34E DUP2 PUSH2 0x30C JUMP JUMPDEST DUP2 EQ PUSH2 0x359 JUMPI PUSH1 0x0 DUP1 REVERT JUMPDEST POP JUMP JUMPDEST PUSH1 0x0 DUP2 CALLDATALOAD SWAP1 POP PUSH2 0x36B DUP2 PUSH2 0x345 JUMP JUMPDEST SWAP3 SWAP2 POP POP JUMP JUMPDEST PUSH1 0x0 PUSH1 0x20 DUP3 DUP5 SUB SLT ISZERO PUSH2 0x387 JUMPI PUSH2 0x386 PUSH2 0x340 JUMP JUMPDEST JUMPDEST PUSH1 0x0 PUSH2 0x395 DUP5 DUP3 DUP6 ADD PUSH2 0x35C JUMP JUMPDEST SWAP2 POP POP SWAP3 SWAP2 POP POP JUMP JUMPDEST PUSH1 0x0 DUP2 SWAP1 POP SWAP2 SWAP1 POP JUMP JUMPDEST PUSH2 0x3B1 DUP2 PUSH2 0x39E JUMP JUMPDEST DUP3 MSTORE POP POP JUMP JUMPDEST PUSH1 0x0 PUSH1 0x20 DUP3 ADD SWAP1 POP PUSH2 0x3CC PUSH1 0x0 DUP4 ADD DUP5 PUSH2 0x3A8 JUMP JUMPDEST SWAP3 SWAP2 POP POP JUMP JUMPDEST PUSH1 0x0 PUSH20 0xFFFFFFFFFFFFFFFFFFFFFFFFFFFFFFFFFFFFFFFF DUP3 AND SWAP1 POP SWAP2 SWAP1 POP JUMP JUMPDEST PUSH1 0x0 PUSH2 0x3FD DUP3 PUSH2 0x3D2 JUMP JUMPDEST SWAP1 POP SWAP2 SWAP1 POP JUMP JUMPDEST PUSH2 0x40D DUP2 PUSH2 0x3F2 JUMP JUMPDEST DUP2 EQ PUSH2 0x418 JUMPI PUSH1 0x0 DUP1 REVERT JUMPDEST POP JUMP JUMPDEST PUSH1 0x0 DUP2 CALLDATALOAD SWAP1 POP PUSH2 0x42A DUP2 PUSH2 0x404 JUMP JUMPDEST SWAP3 SWAP2 POP POP JUMP JUMPDEST PUSH1 0x0 PUSH1 0x20 DUP3 DUP5 SUB SLT ISZERO PUSH2 0x446 JUMPI PUSH2 0x445 PUSH2 0x340 JUMP JUMPDEST JUMPDEST PUSH1 0x0 PUSH2 0x454 DUP5 DUP3 DUP6 ADD PUSH2 0x41B JUMP JUMPDEST SWAP2 POP POP SWAP3 SWAP2 POP POP JUMP JUMPDEST PUSH32 0x4E487B7100000000000000000000000000000000000000000000000000000000 PUSH1 0x0 MSTORE PUSH1 0x11 PUSH1 0x4 MSTORE PUSH1 0x24 PUSH1 0x0 REVERT JUMPDEST PUSH1 0x0 PUSH2 0x497 DUP3 PUSH2 0x30C JUMP JUMPDEST SWAP2 POP PUSH2 0x4A2 DUP4 PUSH2 0x30C JUMP JUMPDEST SWAP3 POP DUP3 DUP3 LT ISZERO PUSH2 0x4B5 JUMPI PUSH2 0x4B4 PUSH2 0x45D JUMP JUMPDEST JUMPDEST DUP3 DUP3 SUB SWAP1 POP SWAP3 SWAP2 POP POP JUMP JUMPDEST PUSH1 0x0 PUSH2 0x4CB DUP3 PUSH2 0x30C JUMP JUMPDEST SWAP2 POP PUSH32 0xFFFFFFFFFFFFFFFFFFFFFFFFFFFFFFFFFFFFFFFFFFFFFFFFFFFFFFFFFFFFFFFF DUP3 EQ ISZERO PUSH2 0x4FE JUMPI PUSH2 0x4FD PUSH2 0x45D JUMP JUMPDEST JUMPDEST PUSH1 0x1 DUP3 ADD SWAP1 POP SWAP2 SWAP1 POP JUMP JUMPDEST PUSH1 0x0 DUP3 DUP3 MSTORE PUSH1 0x20 DUP3 ADD SWAP1 POP SWAP3 SWAP2 POP POP JUMP JUMPDEST PUSH32 0x4142430000000000000000000000000000000000000000000000000000000000 PUSH1 0x0 DUP3 ADD MSTORE POP JUMP JUMPDEST PUSH1 0x0 PUSH2 0x550 PUSH1 0x3 DUP4 PUSH2 0x509 JUMP JUMPDEST SWAP2 POP PUSH2 0x55B DUP3 PUSH2 0x51A JUMP JUMPDEST PUSH1 0x20 DUP3 ADD SWAP1 POP SWAP2 SWAP1 POP JUMP JUMPDEST PUSH1 0x0 PUSH1 0x80 DUP3 ADD SWAP1 POP DUP2 DUP2 SUB PUSH1 0x0 DUP4 ADD MSTORE PUSH2 0x57F DUP2 PUSH2 0x543 JUMP JUMPDEST SWAP1 POP PUSH2 0x58E PUSH1 0x20 DUP4 ADD DUP7 PUSH2 0x3A8 JUMP JUMPDEST PUSH2 0x59B PUSH1 0x40 DUP4 ADD DUP6 PUSH2 0x316 JUMP JUMPDEST PUSH2 0x5A8 PUSH1 0x60 DUP4 ADD DUP5 PUSH2 0x316 JUMP JUMPDEST SWAP5 SWAP4 POP POP POP POP JUMP JUMPDEST PUSH1 0x0 DUP2 MLOAD SWAP1 POP SWAP2 SWAP1 POP JUMP JUMPDEST PUSH1 0x0 DUP2 SWAP1 POP SWAP3 SWAP2 POP POP JUMP JUMPDEST PUSH1 0x0 JUMPDEST DUP4 DUP2 LT ISZERO PUSH2 0x5E4 JUMPI DUP1 DUP3 ADD MLOAD DUP2 DUP5 ADD MSTORE PUSH1 0x20 DUP2 ADD SWAP1 POP PUSH2 0x5C9 JUMP JUMPDEST DUP4 DUP2 GT ISZERO PUSH2 0x5F3 JUMPI PUSH1 0x0 DUP5 DUP5 ADD MSTORE JUMPDEST POP POP POP POP JUMP JUMPDEST PUSH1 0x0 PUSH2 0x604 DUP3 PUSH2 0x5B0 JUMP JUMPDEST PUSH2 0x60E DUP2 DUP6 PUSH2 0x5BB JUMP JUMPDEST SWAP4 POP PUSH2 0x61E DUP2 DUP6 PUSH1 0x20 DUP7 ADD PUSH2 0x5C6 JUMP JUMPDEST DUP1 DUP5 ADD SWAP2 POP POP SWAP3 SWAP2 POP POP JUMP JUMPDEST PUSH1 0x0 PUSH2 0x636 DUP3 DUP5 PUSH2 0x5F9 JUMP JUMPDEST SWAP2 POP DUP2 SWAP1 POP SWAP3 SWAP2 POP POP JUMP JUMPDEST PUSH2 0x64A DUP2 PUSH2 0x39E JUMP JUMPDEST DUP2 EQ PUSH2 0x655 JUMPI PUSH1 0x0 DUP1 REVERT JUMPDEST POP JUMP JUMPDEST PUSH1 0x0 DUP2 MLOAD SWAP1 POP PUSH2 0x667 DUP2 PUSH2 0x641 JUMP JUMPDEST SWAP3 SWAP2 POP POP JUMP JUMPDEST PUSH1 0x0 PUSH1 0x20 DUP3 DUP5 SUB SLT ISZERO PUSH2 0x683 JUMPI PUSH2 0x682 PUSH2 0x340 JUMP JUMPDEST JUMPDEST PUSH1 0x0 PUSH2 0x691 DUP5 DUP3 DUP6 ADD PUSH2 0x658 JUMP JUMPDEST SWAP2 POP POP SWAP3 SWAP2 POP POP JUMP INVALID LOG2 PUSH5 0x6970667358 0x22 SLT KECCAK256 0x2A PUSH25 0xE5848645621F41134C4D383BB64B5CEE15A40D8DB390D86A76 GASPRICE 0x24 LOG4 PUSH20 0x2A64736F6C634300080B00330000000000000000 "
				},
				"gasEstimates": {
					"creation": {
						"codeDepositCost": "348800",
						"executionCost": "5398",
						"totalCost": "354198"
					},
					"external": {
						"balance(address)": "2880",
						"callsha256()": "infinite",
						"getBalance()": "2504",
						"transactions()": "2429",
						"withdraw(uint256)": "infinite"
					}
				},
				"methodIdentifiers": {
					"balance(address)": "e3d670d7",
					"callsha256()": "91e67502",
					"getBalance()": "12065fe0",
					"transactions()": "18015191",
					"withdraw(uint256)": "2e1a7d4d"
				}
			},
			"storageLayout": {
				"storage": [
					{
						"astId": 3,
						"contract": "contracts/trial2.sol:transaction",
						"label": "reciever",
						"offset": 0,
						"slot": "0",
						"type": "t_address_payable"
					},
					{
						"astId": 5,
						"contract": "contracts/trial2.sol:transaction",
						"label": "sender",
						"offset": 0,
						"slot": "1",
						"type": "t_address_payable"
					},
					{
						"astId": 7,
						"contract": "contracts/trial2.sol:transaction",
						"label": "amount",
						"offset": 0,
						"slot": "2",
						"type": "t_uint256"
					},
					{
						"astId": 11,
						"contract": "contracts/trial2.sol:transaction",
						"label": "balance",
						"offset": 0,
						"slot": "3",
						"type": "t_mapping(t_address,t_uint256)"
					},
					{
						"astId": 14,
						"contract": "contracts/trial2.sol:transaction",
						"label": "previousHash",
						"offset": 0,
						"slot": "4",
						"type": "t_bytes32"
					},
					{
						"astId": 16,
						"contract": "contracts/trial2.sol:transaction",
						"label": "time",
						"offset": 0,
						"slot": "5",
						"type": "t_uint256"
					},
					{
						"astId": 39,
						"contract": "contracts/trial2.sol:transaction",
						"label": "transactions",
						"offset": 0,
						"slot": "6",
						"type": "t_uint256"
					},
					{
						"astId": 43,
						"contract": "contracts/trial2.sol:transaction",
						"label": "balances",
						"offset": 0,
						"slot": "7",
						"type": "t_mapping(t_address,t_uint256)"
					}
				],
				"types": {
					"t_address": {
						"encoding": "inplace",
						"label": "address",
						"numberOfBytes": "20"
					},
					"t_address_payable": {
						"encoding": "inplace",
						"label": "address payable",
						"numberOfBytes": "20"
					},
					"t_bytes32": {
						"encoding": "inplace",
						"label": "bytes32",
						"numberOfBytes": "32"
					},
					"t_mapping(t_address,t_uint256)": {
						"encoding": "mapping",
						"key": "t_address",
						"label": "mapping(address => uint256)",
						"numberOfBytes": "32",
						"value": "t_uint256"
					},
					"t_uint256": {
						"encoding": "inplace",
						"label": "uint256",
						"numberOfBytes": "32"
					}
				}
			},
			"userdoc": {
				"kind": "user",
				"methods": {},
				"version": 1
			}
		}
	}
}