{
	"contracts/auction.sol": {
		"Auction": {
			"abi": [
				{
					"inputs": [],
					"stateMutability": "nonpayable",
					"type": "constructor"
				},
				{
					"inputs": [],
					"name": "auctionState",
					"outputs": [
						{
							"internalType": "enum Auction.Auction_State",
							"name": "",
							"type": "uint8"
						}
					],
					"stateMutability": "view",
					"type": "function"
				},
				{
					"inputs": [],
					"name": "auctioneer",
					"outputs": [
						{
							"internalType": "address payable",
							"name": "",
							"type": "address"
						}
					],
					"stateMutability": "view",
					"type": "function"
				},
				{
					"inputs": [],
					"name": "bid",
					"outputs": [
						{
							"internalType": "int256",
							"name": "",
							"type": "int256"
						}
					],
					"stateMutability": "payable",
					"type": "function"
				},
				{
					"inputs": [],
					"name": "bid_Increment",
					"outputs": [
						{
							"internalType": "uint256",
							"name": "",
							"type": "uint256"
						}
					],
					"stateMutability": "view",
					"type": "function"
				},
				{
					"inputs": [
						{
							"internalType": "address",
							"name": "",
							"type": "address"
						}
					],
					"name": "bids",
					"outputs": [
						{
							"internalType": "uint256",
							"name": "",
							"type": "uint256"
						}
					],
					"stateMutability": "view",
					"type": "function"
				},
				{
					"inputs": [],
					"name": "cancelAuc",
					"outputs": [],
					"stateMutability": "nonpayable",
					"type": "function"
				},
				{
					"inputs": [],
					"name": "endAuc",
					"outputs": [],
					"stateMutability": "nonpayable",
					"type": "function"
				},
				{
					"inputs": [],
					"name": "etblock",
					"outputs": [
						{
							"internalType": "uint256",
							"name": "",
							"type": "uint256"
						}
					],
					"stateMutability": "view",
					"type": "function"
				},
				{
					"inputs": [],
					"name": "finalizeAuc",
					"outputs": [],
					"stateMutability": "nonpayable",
					"type": "function"
				},
				{
					"inputs": [],
					"name": "highestBidder",
					"outputs": [
						{
							"internalType": "address payable",
							"name": "",
							"type": "address"
						}
					],
					"stateMutability": "view",
					"type": "function"
				},
				{
					"inputs": [],
					"name": "highest_payable_bid",
					"outputs": [
						{
							"internalType": "uint256",
							"name": "",
							"type": "uint256"
						}
					],
					"stateMutability": "view",
					"type": "function"
				},
				{
					"inputs": [],
					"name": "stblock",
					"outputs": [
						{
							"internalType": "uint256",
							"name": "",
							"type": "uint256"
						}
					],
					"stateMutability": "view",
					"type": "function"
				}
			],
			"devdoc": {
				"kind": "dev",
				"methods": {},
				"version": 1
			},
			"evm": {
				"assembly": "    /* \"contracts/auction.sol\":739:3827  contract Auction{ ... */\n  mstore(0x40, 0x80)\n    /* \"contracts/auction.sol\":1162:1389  constructor(){... */\n  callvalue\n  dup1\n  iszero\n  tag_1\n  jumpi\n  0x00\n  dup1\n  revert\ntag_1:\n  pop\n    /* \"contracts/auction.sol\":1207:1217  msg.sender */\n  caller\n    /* \"contracts/auction.sol\":1186:1196  auctioneer */\n  0x00\n  dup1\n    /* \"contracts/auction.sol\":1186:1218  auctioneer = payable(msg.sender) */\n  0x0100\n  exp\n  dup2\n  sload\n  dup2\n  0xffffffffffffffffffffffffffffffffffffffff\n  mul\n  not\n  and\n  swap1\n  dup4\n  0xffffffffffffffffffffffffffffffffffffffff\n  and\n  mul\n  or\n  swap1\n  sstore\n  pop\n    /* \"contracts/auction.sol\":1244:1265  Auction_State.Running */\n  0x01\n    /* \"contracts/auction.sol\":1229:1241  auctionState */\n  0x03\n  0x00\n    /* \"contracts/auction.sol\":1229:1265  auctionState = Auction_State.Running */\n  0x0100\n  exp\n  dup2\n  sload\n  dup2\n  0xff\n  mul\n  not\n  and\n  swap1\n  dup4\n  0x03\n  dup2\n  gt\n  iszero\n  tag_4\n  jumpi\n  tag_5\n  tag_6\n  jump\t// in\ntag_5:\ntag_4:\n  mul\n  or\n  swap1\n  sstore\n  pop\n    /* \"contracts/auction.sol\":1286:1298  block.number */\n  number\n    /* \"contracts/auction.sol\":1276:1283  stblock */\n  0x01\n    /* \"contracts/auction.sol\":1276:1298  stblock = block.number */\n  dup2\n  swap1\n  sstore\n  pop\n    /* \"contracts/auction.sol\":1329:1332  240 */\n  0xf0\n    /* \"contracts/auction.sol\":1319:1326  stblock */\n  sload(0x01)\n    /* \"contracts/auction.sol\":1319:1332  stblock + 240 */\n  tag_7\n  swap2\n  swap1\n  tag_8\n  jump\t// in\ntag_7:\n    /* \"contracts/auction.sol\":1309:1316  etblock */\n  0x02\n    /* \"contracts/auction.sol\":1309:1332  etblock = stblock + 240 */\n  dup2\n  swap1\n  sstore\n  pop\n    /* \"contracts/auction.sol\":1359:1366  1 ether */\n  0x0de0b6b3a7640000\n    /* \"contracts/auction.sol\":1343:1356  bid_Increment */\n  0x05\n    /* \"contracts/auction.sol\":1343:1366  bid_Increment = 1 ether */\n  dup2\n  swap1\n  sstore\n  pop\n    /* \"contracts/auction.sol\":1380:1381  0 */\n  0x00\n    /* \"contracts/auction.sol\":1377:1379  xp */\n  0x06\n    /* \"contracts/auction.sol\":1377:1381  xp=0 */\n  dup2\n  swap1\n  sstore\n  pop\n    /* \"contracts/auction.sol\":739:3827  contract Auction{ ... */\n  jump(tag_9)\n    /* \"#utility.yul\":7:187   */\ntag_6:\n    /* \"#utility.yul\":55:132   */\n  0x4e487b7100000000000000000000000000000000000000000000000000000000\n    /* \"#utility.yul\":52:53   */\n  0x00\n    /* \"#utility.yul\":45:133   */\n  mstore\n    /* \"#utility.yul\":152:156   */\n  0x21\n    /* \"#utility.yul\":149:150   */\n  0x04\n    /* \"#utility.yul\":142:157   */\n  mstore\n    /* \"#utility.yul\":176:180   */\n  0x24\n    /* \"#utility.yul\":173:174   */\n  0x00\n    /* \"#utility.yul\":166:181   */\n  revert\n    /* \"#utility.yul\":193:270   */\ntag_10:\n    /* \"#utility.yul\":230:237   */\n  0x00\n    /* \"#utility.yul\":259:264   */\n  dup2\n    /* \"#utility.yul\":248:264   */\n  swap1\n  pop\n    /* \"#utility.yul\":193:270   */\n  swap2\n  swap1\n  pop\n  jump\t// out\n    /* \"#utility.yul\":276:456   */\ntag_11:\n    /* \"#utility.yul\":324:401   */\n  0x4e487b7100000000000000000000000000000000000000000000000000000000\n    /* \"#utility.yul\":321:322   */\n  0x00\n    /* \"#utility.yul\":314:402   */\n  mstore\n    /* \"#utility.yul\":421:425   */\n  0x11\n    /* \"#utility.yul\":418:419   */\n  0x04\n    /* \"#utility.yul\":411:426   */\n  mstore\n    /* \"#utility.yul\":445:449   */\n  0x24\n    /* \"#utility.yul\":442:443   */\n  0x00\n    /* \"#utility.yul\":435:450   */\n  revert\n    /* \"#utility.yul\":462:767   */\ntag_8:\n    /* \"#utility.yul\":502:505   */\n  0x00\n    /* \"#utility.yul\":521:541   */\n  tag_17\n    /* \"#utility.yul\":539:540   */\n  dup3\n    /* \"#utility.yul\":521:541   */\n  tag_10\n  jump\t// in\ntag_17:\n    /* \"#utility.yul\":516:541   */\n  swap2\n  pop\n    /* \"#utility.yul\":555:575   */\n  tag_18\n    /* \"#utility.yul\":573:574   */\n  dup4\n    /* \"#utility.yul\":555:575   */\n  tag_10\n  jump\t// in\ntag_18:\n    /* \"#utility.yul\":550:575   */\n  swap3\n  pop\n    /* \"#utility.yul\":709:710   */\n  dup3\n    /* \"#utility.yul\":641:707   */\n  0xffffffffffffffffffffffffffffffffffffffffffffffffffffffffffffffff\n    /* \"#utility.yul\":637:711   */\n  sub\n    /* \"#utility.yul\":634:635   */\n  dup3\n    /* \"#utility.yul\":631:712   */\n  gt\n    /* \"#utility.yul\":628:735   */\n  iszero\n  tag_19\n  jumpi\n    /* \"#utility.yul\":715:733   */\n  tag_20\n  tag_11\n  jump\t// in\ntag_20:\n    /* \"#utility.yul\":628:735   */\ntag_19:\n    /* \"#utility.yul\":759:760   */\n  dup3\n    /* \"#utility.yul\":756:757   */\n  dup3\n    /* \"#utility.yul\":752:761   */\n  add\n    /* \"#utility.yul\":745:761   */\n  swap1\n  pop\n    /* \"#utility.yul\":462:767   */\n  swap3\n  swap2\n  pop\n  pop\n  jump\t// out\n    /* \"contracts/auction.sol\":739:3827  contract Auction{ ... */\ntag_9:\n  dataSize(sub_0)\n  dup1\n  dataOffset(sub_0)\n  0x00\n  codecopy\n  0x00\n  return\nstop\n\nsub_0: assembly {\n        /* \"contracts/auction.sol\":739:3827  contract Auction{ ... */\n      mstore(0x40, 0x80)\n      jumpi(tag_1, lt(calldatasize, 0x04))\n      shr(0xe0, calldataload(0x00))\n      dup1\n      0x7fb45099\n      gt\n      tag_14\n      jumpi\n      dup1\n      0x7fb45099\n      eq\n      tag_8\n      jumpi\n      dup1\n      0x91f90157\n      eq\n      tag_9\n      jumpi\n      dup1\n      0x9d957d45\n      eq\n      tag_10\n      jumpi\n      dup1\n      0xa118be02\n      eq\n      tag_11\n      jumpi\n      dup1\n      0xce5bd041\n      eq\n      tag_12\n      jumpi\n      dup1\n      0xe07600bd\n      eq\n      tag_13\n      jumpi\n      jump(tag_1)\n    tag_14:\n      dup1\n      0x1998aeef\n      eq\n      tag_2\n      jumpi\n      dup1\n      0x2352f320\n      eq\n      tag_3\n      jumpi\n      dup1\n      0x3fdceefd\n      eq\n      tag_4\n      jumpi\n      dup1\n      0x5ec2c7bf\n      eq\n      tag_5\n      jumpi\n      dup1\n      0x62ea82db\n      eq\n      tag_6\n      jumpi\n      dup1\n      0x7eb695a1\n      eq\n      tag_7\n      jumpi\n    tag_1:\n      0x00\n      dup1\n      revert\n        /* \"contracts/auction.sol\":2127:2797  function bid() payable public notOwner started beforeEnding returns(int) {... */\n    tag_2:\n      tag_15\n      tag_16\n      jump\t// in\n    tag_15:\n      mload(0x40)\n      tag_17\n      swap2\n      swap1\n      tag_18\n      jump\t// in\n    tag_17:\n      mload(0x40)\n      dup1\n      swap2\n      sub\n      swap1\n      return\n        /* \"contracts/auction.sol\":1789:1879  function cancelAuc() public Owner{... */\n    tag_3:\n      callvalue\n      dup1\n      iszero\n      tag_19\n      jumpi\n      0x00\n      dup1\n      revert\n    tag_19:\n      pop\n      tag_20\n      tag_21\n      jump\t// in\n    tag_20:\n      stop\n        /* \"contracts/auction.sol\":1887:1970  function endAuc() public Owner{... */\n    tag_4:\n      callvalue\n      dup1\n      iszero\n      tag_22\n      jumpi\n      0x00\n      dup1\n      revert\n    tag_22:\n      pop\n      tag_23\n      tag_24\n      jump\t// in\n    tag_23:\n      stop\n        /* \"contracts/auction.sol\":765:798  address payable public auctioneer */\n    tag_5:\n      callvalue\n      dup1\n      iszero\n      tag_25\n      jumpi\n      0x00\n      dup1\n      revert\n    tag_25:\n      pop\n      tag_26\n      tag_27\n      jump\t// in\n    tag_26:\n      mload(0x40)\n      tag_28\n      swap2\n      swap1\n      tag_29\n      jump\t// in\n    tag_28:\n      mload(0x40)\n      dup1\n      swap2\n      sub\n      swap1\n      return\n        /* \"contracts/auction.sol\":1119:1155  mapping(address => uint) public bids */\n    tag_6:\n      callvalue\n      dup1\n      iszero\n      tag_30\n      jumpi\n      0x00\n      dup1\n      revert\n    tag_30:\n      pop\n      tag_31\n      0x04\n      dup1\n      calldatasize\n      sub\n      dup2\n      add\n      swap1\n      tag_32\n      swap2\n      swap1\n      tag_33\n      jump\t// in\n    tag_32:\n      tag_34\n      jump\t// in\n    tag_31:\n      mload(0x40)\n      tag_35\n      swap2\n      swap1\n      tag_36\n      jump\t// in\n    tag_35:\n      mload(0x40)\n      dup1\n      swap2\n      sub\n      swap1\n      return\n        /* \"contracts/auction.sol\":989:1020  uint public highest_payable_bid */\n    tag_7:\n      callvalue\n      dup1\n      iszero\n      tag_37\n      jumpi\n      0x00\n      dup1\n      revert\n    tag_37:\n      pop\n      tag_38\n      tag_39\n      jump\t// in\n    tag_38:\n      mload(0x40)\n      tag_40\n      swap2\n      swap1\n      tag_36\n      jump\t// in\n    tag_40:\n      mload(0x40)\n      dup1\n      swap2\n      sub\n      swap1\n      return\n        /* \"contracts/auction.sol\":947:980  Auction_State public auctionState */\n    tag_8:\n      callvalue\n      dup1\n      iszero\n      tag_41\n      jumpi\n      0x00\n      dup1\n      revert\n    tag_41:\n      pop\n      tag_42\n      tag_43\n      jump\t// in\n    tag_42:\n      mload(0x40)\n      tag_44\n      swap2\n      swap1\n      tag_45\n      jump\t// in\n    tag_44:\n      mload(0x40)\n      dup1\n      swap2\n      sub\n      swap1\n      return\n        /* \"contracts/auction.sol\":1074:1110  address payable public highestBidder */\n    tag_9:\n      callvalue\n      dup1\n      iszero\n      tag_46\n      jumpi\n      0x00\n      dup1\n      revert\n    tag_46:\n      pop\n      tag_47\n      tag_48\n      jump\t// in\n    tag_47:\n      mload(0x40)\n      tag_49\n      swap2\n      swap1\n      tag_29\n      jump\t// in\n    tag_49:\n      mload(0x40)\n      dup1\n      swap2\n      sub\n      swap1\n      return\n        /* \"contracts/auction.sol\":845:864  uint public etblock */\n    tag_10:\n      callvalue\n      dup1\n      iszero\n      tag_50\n      jumpi\n      0x00\n      dup1\n      revert\n    tag_50:\n      pop\n      tag_51\n      tag_52\n      jump\t// in\n    tag_51:\n      mload(0x40)\n      tag_53\n      swap2\n      swap1\n      tag_36\n      jump\t// in\n    tag_53:\n      mload(0x40)\n      dup1\n      swap2\n      sub\n      swap1\n      return\n        /* \"contracts/auction.sol\":806:825  uint public stblock */\n    tag_11:\n      callvalue\n      dup1\n      iszero\n      tag_54\n      jumpi\n      0x00\n      dup1\n      revert\n    tag_54:\n      pop\n      tag_55\n      tag_56\n      jump\t// in\n    tag_55:\n      mload(0x40)\n      tag_57\n      swap2\n      swap1\n      tag_36\n      jump\t// in\n    tag_57:\n      mload(0x40)\n      dup1\n      swap2\n      sub\n      swap1\n      return\n        /* \"contracts/auction.sol\":1027:1052  uint public bid_Increment */\n    tag_12:\n      callvalue\n      dup1\n      iszero\n      tag_58\n      jumpi\n      0x00\n      dup1\n      revert\n    tag_58:\n      pop\n      tag_59\n      tag_60\n      jump\t// in\n    tag_59:\n      mload(0x40)\n      tag_61\n      swap2\n      swap1\n      tag_36\n      jump\t// in\n    tag_61:\n      mload(0x40)\n      dup1\n      swap2\n      sub\n      swap1\n      return\n        /* \"contracts/auction.sol\":2803:3824  function finalizeAuc() public{... */\n    tag_13:\n      callvalue\n      dup1\n      iszero\n      tag_62\n      jumpi\n      0x00\n      dup1\n      revert\n    tag_62:\n      pop\n      tag_63\n      tag_64\n      jump\t// in\n    tag_63:\n      stop\n        /* \"contracts/auction.sol\":2127:2797  function bid() payable public notOwner started beforeEnding returns(int) {... */\n    tag_16:\n        /* \"contracts/auction.sol\":2195:2198  int */\n      0x00\n        /* \"contracts/auction.sol\":1449:1459  auctioneer */\n      dup1\n      0x00\n      swap1\n      sload\n      swap1\n      0x0100\n      exp\n      swap1\n      div\n      0xffffffffffffffffffffffffffffffffffffffff\n      and\n        /* \"contracts/auction.sol\":1435:1459  msg.sender != auctioneer */\n      0xffffffffffffffffffffffffffffffffffffffff\n      and\n        /* \"contracts/auction.sol\":1435:1445  msg.sender */\n      caller\n        /* \"contracts/auction.sol\":1435:1459  msg.sender != auctioneer */\n      0xffffffffffffffffffffffffffffffffffffffff\n      and\n      eq\n      iszero\n        /* \"contracts/auction.sol\":1427:1479  require(msg.sender != auctioneer,\"Owner cannot bid\") */\n      tag_66\n      jumpi\n      mload(0x40)\n      0x08c379a000000000000000000000000000000000000000000000000000000000\n      dup2\n      mstore\n      0x04\n      add\n      tag_67\n      swap1\n      tag_68\n      jump\t// in\n    tag_67:\n      mload(0x40)\n      dup1\n      swap2\n      sub\n      swap1\n      revert\n    tag_66:\n        /* \"contracts/auction.sol\":1664:1671  stblock */\n      sload(0x01)\n        /* \"contracts/auction.sol\":1651:1663  block.number */\n      number\n        /* \"contracts/auction.sol\":1651:1671  block.number>stblock */\n      gt\n        /* \"contracts/auction.sol\":1643:1672  require(block.number>stblock) */\n      tag_70\n      jumpi\n      0x00\n      dup1\n      revert\n    tag_70:\n        /* \"contracts/auction.sol\":1753:1760  etblock */\n      sload(0x02)\n        /* \"contracts/auction.sol\":1740:1752  block.number */\n      number\n        /* \"contracts/auction.sol\":1740:1760  block.number<etblock */\n      lt\n        /* \"contracts/auction.sol\":1732:1761  require(block.number<etblock) */\n      tag_72\n      jumpi\n      0x00\n      dup1\n      revert\n    tag_72:\n        /* \"contracts/auction.sol\":2237:2258  Auction_State.Running */\n      0x01\n        /* \"contracts/auction.sol\":2221:2258  auctionState == Auction_State.Running */\n      0x03\n      dup2\n      gt\n      iszero\n      tag_74\n      jumpi\n      tag_75\n      tag_76\n      jump\t// in\n    tag_75:\n    tag_74:\n        /* \"contracts/auction.sol\":2221:2233  auctionState */\n      0x03\n      0x00\n      swap1\n      sload\n      swap1\n      0x0100\n      exp\n      swap1\n      div\n      0xff\n      and\n        /* \"contracts/auction.sol\":2221:2258  auctionState == Auction_State.Running */\n      0x03\n      dup2\n      gt\n      iszero\n      tag_77\n      jumpi\n      tag_78\n      tag_76\n      jump\t// in\n    tag_78:\n    tag_77:\n      eq\n        /* \"contracts/auction.sol\":2213:2259  require(auctionState == Auction_State.Running) */\n      tag_79\n      jumpi\n      0x00\n      dup1\n      revert\n    tag_79:\n        /* \"contracts/auction.sol\":2290:2297  1 ether */\n      0x0de0b6b3a7640000\n        /* \"contracts/auction.sol\":2278:2287  msg.value */\n      callvalue\n        /* \"contracts/auction.sol\":2278:2297  msg.value>= 1 ether */\n      lt\n      iszero\n        /* \"contracts/auction.sol\":2270:2298  require(msg.value>= 1 ether) */\n      tag_80\n      jumpi\n      0x00\n      dup1\n      revert\n    tag_80:\n        /* \"contracts/auction.sol\":2311:2326  uint currentBid */\n      0x00\n        /* \"contracts/auction.sol\":2348:2357  msg.value */\n      callvalue\n        /* \"contracts/auction.sol\":2329:2333  bids */\n      0x08\n        /* \"contracts/auction.sol\":2329:2345  bids[msg.sender] */\n      0x00\n        /* \"contracts/auction.sol\":2334:2344  msg.sender */\n      caller\n        /* \"contracts/auction.sol\":2329:2345  bids[msg.sender] */\n      0xffffffffffffffffffffffffffffffffffffffff\n      and\n      0xffffffffffffffffffffffffffffffffffffffff\n      and\n      dup2\n      mstore\n      0x20\n      add\n      swap1\n      dup2\n      mstore\n      0x20\n      add\n      0x00\n      keccak256\n      sload\n        /* \"contracts/auction.sol\":2329:2357  bids[msg.sender] + msg.value */\n      tag_81\n      swap2\n      swap1\n      tag_82\n      jump\t// in\n    tag_81:\n        /* \"contracts/auction.sol\":2311:2357  uint currentBid = bids[msg.sender] + msg.value */\n      swap1\n      pop\n        /* \"contracts/auction.sol\":2388:2407  highest_payable_bid */\n      sload(0x04)\n        /* \"contracts/auction.sol\":2377:2387  currentBid */\n      dup2\n        /* \"contracts/auction.sol\":2377:2407  currentBid>highest_payable_bid */\n      gt\n        /* \"contracts/auction.sol\":2369:2408  require(currentBid>highest_payable_bid) */\n      tag_83\n      jumpi\n      0x00\n      dup1\n      revert\n    tag_83:\n        /* \"contracts/auction.sol\":2438:2448  currentBid */\n      dup1\n        /* \"contracts/auction.sol\":2419:2423  bids */\n      0x08\n        /* \"contracts/auction.sol\":2419:2435  bids[msg.sender] */\n      0x00\n        /* \"contracts/auction.sol\":2424:2434  msg.sender */\n      caller\n        /* \"contracts/auction.sol\":2419:2435  bids[msg.sender] */\n      0xffffffffffffffffffffffffffffffffffffffff\n      and\n      0xffffffffffffffffffffffffffffffffffffffff\n      and\n      dup2\n      mstore\n      0x20\n      add\n      swap1\n      dup2\n      mstore\n      0x20\n      add\n      0x00\n      keccak256\n        /* \"contracts/auction.sol\":2419:2448  bids[msg.sender] = currentBid */\n      dup2\n      swap1\n      sstore\n      pop\n        /* \"contracts/auction.sol\":2475:2479  bids */\n      0x08\n        /* \"contracts/auction.sol\":2475:2494  bids[highestBidder] */\n      0x00\n        /* \"contracts/auction.sol\":2480:2493  highestBidder */\n      0x07\n      0x00\n      swap1\n      sload\n      swap1\n      0x0100\n      exp\n      swap1\n      div\n      0xffffffffffffffffffffffffffffffffffffffff\n      and\n        /* \"contracts/auction.sol\":2475:2494  bids[highestBidder] */\n      0xffffffffffffffffffffffffffffffffffffffff\n      and\n      0xffffffffffffffffffffffffffffffffffffffff\n      and\n      dup2\n      mstore\n      0x20\n      add\n      swap1\n      dup2\n      mstore\n      0x20\n      add\n      0x00\n      keccak256\n      sload\n        /* \"contracts/auction.sol\":2464:2474  currentBid */\n      dup2\n        /* \"contracts/auction.sol\":2464:2494  currentBid<bids[highestBidder] */\n      lt\n        /* \"contracts/auction.sol\":2461:2755  if(currentBid<bids[highestBidder]){... */\n      iszero\n      tag_84\n      jumpi\n        /* \"contracts/auction.sol\":2532:2581  min(currentBid+bid_Increment,bids[highestBidder]) */\n      tag_85\n        /* \"contracts/auction.sol\":2547:2560  bid_Increment */\n      sload(0x05)\n        /* \"contracts/auction.sol\":2536:2546  currentBid */\n      dup3\n        /* \"contracts/auction.sol\":2536:2560  currentBid+bid_Increment */\n      tag_86\n      swap2\n      swap1\n      tag_82\n      jump\t// in\n    tag_86:\n        /* \"contracts/auction.sol\":2561:2565  bids */\n      0x08\n        /* \"contracts/auction.sol\":2561:2580  bids[highestBidder] */\n      0x00\n        /* \"contracts/auction.sol\":2566:2579  highestBidder */\n      0x07\n      0x00\n      swap1\n      sload\n      swap1\n      0x0100\n      exp\n      swap1\n      div\n      0xffffffffffffffffffffffffffffffffffffffff\n      and\n        /* \"contracts/auction.sol\":2561:2580  bids[highestBidder] */\n      0xffffffffffffffffffffffffffffffffffffffff\n      and\n      0xffffffffffffffffffffffffffffffffffffffff\n      and\n      dup2\n      mstore\n      0x20\n      add\n      swap1\n      dup2\n      mstore\n      0x20\n      add\n      0x00\n      keccak256\n      sload\n        /* \"contracts/auction.sol\":2532:2535  min */\n      tag_87\n        /* \"contracts/auction.sol\":2532:2581  min(currentBid+bid_Increment,bids[highestBidder]) */\n      jump\t// in\n    tag_85:\n        /* \"contracts/auction.sol\":2510:2529  highest_payable_bid */\n      0x04\n        /* \"contracts/auction.sol\":2510:2581  highest_payable_bid = min(currentBid+bid_Increment,bids[highestBidder]) */\n      dup2\n      swap1\n      sstore\n      pop\n        /* \"contracts/auction.sol\":2461:2755  if(currentBid<bids[highestBidder]){... */\n      jump(tag_88)\n    tag_84:\n        /* \"contracts/auction.sol\":2644:2693  min(currentBid,bids[highestBidder]+bid_Increment) */\n      tag_89\n        /* \"contracts/auction.sol\":2648:2658  currentBid */\n      dup2\n        /* \"contracts/auction.sol\":2679:2692  bid_Increment */\n      sload(0x05)\n        /* \"contracts/auction.sol\":2659:2663  bids */\n      0x08\n        /* \"contracts/auction.sol\":2659:2678  bids[highestBidder] */\n      0x00\n        /* \"contracts/auction.sol\":2664:2677  highestBidder */\n      0x07\n      0x00\n      swap1\n      sload\n      swap1\n      0x0100\n      exp\n      swap1\n      div\n      0xffffffffffffffffffffffffffffffffffffffff\n      and\n        /* \"contracts/auction.sol\":2659:2678  bids[highestBidder] */\n      0xffffffffffffffffffffffffffffffffffffffff\n      and\n      0xffffffffffffffffffffffffffffffffffffffff\n      and\n      dup2\n      mstore\n      0x20\n      add\n      swap1\n      dup2\n      mstore\n      0x20\n      add\n      0x00\n      keccak256\n      sload\n        /* \"contracts/auction.sol\":2659:2692  bids[highestBidder]+bid_Increment */\n      tag_90\n      swap2\n      swap1\n      tag_82\n      jump\t// in\n    tag_90:\n        /* \"contracts/auction.sol\":2644:2647  min */\n      tag_87\n        /* \"contracts/auction.sol\":2644:2693  min(currentBid,bids[highestBidder]+bid_Increment) */\n      jump\t// in\n    tag_89:\n        /* \"contracts/auction.sol\":2622:2641  highest_payable_bid */\n      0x04\n        /* \"contracts/auction.sol\":2622:2693  highest_payable_bid = min(currentBid,bids[highestBidder]+bid_Increment) */\n      dup2\n      swap1\n      sstore\n      pop\n        /* \"contracts/auction.sol\":2732:2742  msg.sender */\n      caller\n        /* \"contracts/auction.sol\":2708:2721  highestBidder */\n      0x07\n      0x00\n        /* \"contracts/auction.sol\":2708:2743  highestBidder = payable(msg.sender) */\n      0x0100\n      exp\n      dup2\n      sload\n      dup2\n      0xffffffffffffffffffffffffffffffffffffffff\n      mul\n      not\n      and\n      swap1\n      dup4\n      0xffffffffffffffffffffffffffffffffffffffff\n      and\n      mul\n      or\n      swap1\n      sstore\n      pop\n        /* \"contracts/auction.sol\":2461:2755  if(currentBid<bids[highestBidder]){... */\n    tag_88:\n        /* \"contracts/auction.sol\":2765:2767  xp */\n      0x06\n      0x00\n        /* \"contracts/auction.sol\":2765:2769  xp++ */\n      dup2\n      sload\n      dup1\n      swap3\n      swap2\n      swap1\n      tag_91\n      swap1\n      tag_92\n      jump\t// in\n    tag_91:\n      swap2\n      swap1\n      pop\n      sstore\n      pop\n        /* \"contracts/auction.sol\":2787:2789  xp */\n      sload(0x06)\n        /* \"contracts/auction.sol\":2780:2789  return xp */\n      swap2\n      pop\n      pop\n        /* \"contracts/auction.sol\":2127:2797  function bid() payable public notOwner started beforeEnding returns(int) {... */\n      swap1\n      jump\t// out\n        /* \"contracts/auction.sol\":1789:1879  function cancelAuc() public Owner{... */\n    tag_21:\n        /* \"contracts/auction.sol\":1556:1566  auctioneer */\n      0x00\n      dup1\n      sload\n      swap1\n      0x0100\n      exp\n      swap1\n      div\n      0xffffffffffffffffffffffffffffffffffffffff\n      and\n        /* \"contracts/auction.sol\":1542:1566  msg.sender == auctioneer */\n      0xffffffffffffffffffffffffffffffffffffffff\n      and\n        /* \"contracts/auction.sol\":1542:1552  msg.sender */\n      caller\n        /* \"contracts/auction.sol\":1542:1566  msg.sender == auctioneer */\n      0xffffffffffffffffffffffffffffffffffffffff\n      and\n      eq\n        /* \"contracts/auction.sol\":1534:1586  require(msg.sender == auctioneer,\"Owner cannot bid\") */\n      tag_94\n      jumpi\n      mload(0x40)\n      0x08c379a000000000000000000000000000000000000000000000000000000000\n      dup2\n      mstore\n      0x04\n      add\n      tag_95\n      swap1\n      tag_68\n      jump\t// in\n    tag_95:\n      mload(0x40)\n      dup1\n      swap2\n      sub\n      swap1\n      revert\n    tag_94:\n        /* \"contracts/auction.sol\":1848:1871  Auction_State.Cancelled */\n      0x03\n        /* \"contracts/auction.sol\":1833:1845  auctionState */\n      dup1\n      0x00\n        /* \"contracts/auction.sol\":1833:1871  auctionState = Auction_State.Cancelled */\n      0x0100\n      exp\n      dup2\n      sload\n      dup2\n      0xff\n      mul\n      not\n      and\n      swap1\n      dup4\n      0x03\n      dup2\n      gt\n      iszero\n      tag_97\n      jumpi\n      tag_98\n      tag_76\n      jump\t// in\n    tag_98:\n    tag_97:\n      mul\n      or\n      swap1\n      sstore\n      pop\n        /* \"contracts/auction.sol\":1789:1879  function cancelAuc() public Owner{... */\n      jump\t// out\n        /* \"contracts/auction.sol\":1887:1970  function endAuc() public Owner{... */\n    tag_24:\n        /* \"contracts/auction.sol\":1556:1566  auctioneer */\n      0x00\n      dup1\n      sload\n      swap1\n      0x0100\n      exp\n      swap1\n      div\n      0xffffffffffffffffffffffffffffffffffffffff\n      and\n        /* \"contracts/auction.sol\":1542:1566  msg.sender == auctioneer */\n      0xffffffffffffffffffffffffffffffffffffffff\n      and\n        /* \"contracts/auction.sol\":1542:1552  msg.sender */\n      caller\n        /* \"contracts/auction.sol\":1542:1566  msg.sender == auctioneer */\n      0xffffffffffffffffffffffffffffffffffffffff\n      and\n      eq\n        /* \"contracts/auction.sol\":1534:1586  require(msg.sender == auctioneer,\"Owner cannot bid\") */\n      tag_100\n      jumpi\n      mload(0x40)\n      0x08c379a000000000000000000000000000000000000000000000000000000000\n      dup2\n      mstore\n      0x04\n      add\n      tag_101\n      swap1\n      tag_68\n      jump\t// in\n    tag_101:\n      mload(0x40)\n      dup1\n      swap2\n      sub\n      swap1\n      revert\n    tag_100:\n        /* \"contracts/auction.sol\":1943:1962  Auction_State.Ended */\n      0x02\n        /* \"contracts/auction.sol\":1928:1940  auctionState */\n      0x03\n      0x00\n        /* \"contracts/auction.sol\":1928:1962  auctionState = Auction_State.Ended */\n      0x0100\n      exp\n      dup2\n      sload\n      dup2\n      0xff\n      mul\n      not\n      and\n      swap1\n      dup4\n      0x03\n      dup2\n      gt\n      iszero\n      tag_103\n      jumpi\n      tag_104\n      tag_76\n      jump\t// in\n    tag_104:\n    tag_103:\n      mul\n      or\n      swap1\n      sstore\n      pop\n        /* \"contracts/auction.sol\":1887:1970  function endAuc() public Owner{... */\n      jump\t// out\n        /* \"contracts/auction.sol\":765:798  address payable public auctioneer */\n    tag_27:\n      0x00\n      dup1\n      sload\n      swap1\n      0x0100\n      exp\n      swap1\n      div\n      0xffffffffffffffffffffffffffffffffffffffff\n      and\n      dup2\n      jump\t// out\n        /* \"contracts/auction.sol\":1119:1155  mapping(address => uint) public bids */\n    tag_34:\n      mstore(0x20, 0x08)\n      dup1\n      0x00\n      mstore\n      keccak256(0x00, 0x40)\n      0x00\n      swap2\n      pop\n      swap1\n      pop\n      sload\n      dup2\n      jump\t// out\n        /* \"contracts/auction.sol\":989:1020  uint public highest_payable_bid */\n    tag_39:\n      sload(0x04)\n      dup2\n      jump\t// out\n        /* \"contracts/auction.sol\":947:980  Auction_State public auctionState */\n    tag_43:\n      0x03\n      0x00\n      swap1\n      sload\n      swap1\n      0x0100\n      exp\n      swap1\n      div\n      0xff\n      and\n      dup2\n      jump\t// out\n        /* \"contracts/auction.sol\":1074:1110  address payable public highestBidder */\n    tag_48:\n      0x07\n      0x00\n      swap1\n      sload\n      swap1\n      0x0100\n      exp\n      swap1\n      div\n      0xffffffffffffffffffffffffffffffffffffffff\n      and\n      dup2\n      jump\t// out\n        /* \"contracts/auction.sol\":845:864  uint public etblock */\n    tag_52:\n      sload(0x02)\n      dup2\n      jump\t// out\n        /* \"contracts/auction.sol\":806:825  uint public stblock */\n    tag_56:\n      sload(0x01)\n      dup2\n      jump\t// out\n        /* \"contracts/auction.sol\":1027:1052  uint public bid_Increment */\n    tag_60:\n      sload(0x05)\n      dup2\n      jump\t// out\n        /* \"contracts/auction.sol\":2803:3824  function finalizeAuc() public{... */\n    tag_64:\n        /* \"contracts/auction.sol\":2867:2890  Auction_State.Cancelled */\n      0x03\n        /* \"contracts/auction.sol\":2851:2890  auctionState == Auction_State.Cancelled */\n      dup1\n      dup2\n      gt\n      iszero\n      tag_106\n      jumpi\n      tag_107\n      tag_76\n      jump\t// in\n    tag_107:\n    tag_106:\n        /* \"contracts/auction.sol\":2851:2863  auctionState */\n      0x03\n      0x00\n      swap1\n      sload\n      swap1\n      0x0100\n      exp\n      swap1\n      div\n      0xff\n      and\n        /* \"contracts/auction.sol\":2851:2890  auctionState == Auction_State.Cancelled */\n      0x03\n      dup2\n      gt\n      iszero\n      tag_108\n      jumpi\n      tag_109\n      tag_76\n      jump\t// in\n    tag_109:\n    tag_108:\n      eq\n        /* \"contracts/auction.sol\":2851:2929  auctionState == Auction_State.Cancelled || auctionState == Auction_State.Ended */\n      dup1\n      tag_110\n      jumpi\n      pop\n        /* \"contracts/auction.sol\":2910:2929  Auction_State.Ended */\n      0x02\n        /* \"contracts/auction.sol\":2894:2929  auctionState == Auction_State.Ended */\n      0x03\n      dup2\n      gt\n      iszero\n      tag_111\n      jumpi\n      tag_112\n      tag_76\n      jump\t// in\n    tag_112:\n    tag_111:\n        /* \"contracts/auction.sol\":2894:2906  auctionState */\n      0x03\n      0x00\n      swap1\n      sload\n      swap1\n      0x0100\n      exp\n      swap1\n      div\n      0xff\n      and\n        /* \"contracts/auction.sol\":2894:2929  auctionState == Auction_State.Ended */\n      0x03\n      dup2\n      gt\n      iszero\n      tag_113\n      jumpi\n      tag_114\n      tag_76\n      jump\t// in\n    tag_114:\n    tag_113:\n      eq\n        /* \"contracts/auction.sol\":2851:2929  auctionState == Auction_State.Cancelled || auctionState == Auction_State.Ended */\n    tag_110:\n        /* \"contracts/auction.sol\":2851:2953  auctionState == Auction_State.Cancelled || auctionState == Auction_State.Ended || block.number>etblock */\n      dup1\n      tag_115\n      jumpi\n      pop\n        /* \"contracts/auction.sol\":2946:2953  etblock */\n      sload(0x02)\n        /* \"contracts/auction.sol\":2933:2945  block.number */\n      number\n        /* \"contracts/auction.sol\":2933:2953  block.number>etblock */\n      gt\n        /* \"contracts/auction.sol\":2851:2953  auctionState == Auction_State.Cancelled || auctionState == Auction_State.Ended || block.number>etblock */\n    tag_115:\n        /* \"contracts/auction.sol\":2843:2954  require(auctionState == Auction_State.Cancelled || auctionState == Auction_State.Ended || block.number>etblock) */\n      tag_116\n      jumpi\n      0x00\n      dup1\n      revert\n    tag_116:\n        /* \"contracts/auction.sol\":2987:2997  auctioneer */\n      0x00\n      dup1\n      sload\n      swap1\n      0x0100\n      exp\n      swap1\n      div\n      0xffffffffffffffffffffffffffffffffffffffff\n      and\n        /* \"contracts/auction.sol\":2973:2997  msg.sender == auctioneer */\n      0xffffffffffffffffffffffffffffffffffffffff\n      and\n        /* \"contracts/auction.sol\":2973:2983  msg.sender */\n      caller\n        /* \"contracts/auction.sol\":2973:2997  msg.sender == auctioneer */\n      0xffffffffffffffffffffffffffffffffffffffff\n      and\n      eq\n        /* \"contracts/auction.sol\":2973:3019  msg.sender == auctioneer || bids[msg.sender]>0 */\n      dup1\n      tag_117\n      jumpi\n      pop\n        /* \"contracts/auction.sol\":3018:3019  0 */\n      0x00\n        /* \"contracts/auction.sol\":3001:3005  bids */\n      0x08\n        /* \"contracts/auction.sol\":3001:3017  bids[msg.sender] */\n      0x00\n        /* \"contracts/auction.sol\":3006:3016  msg.sender */\n      caller\n        /* \"contracts/auction.sol\":3001:3017  bids[msg.sender] */\n      0xffffffffffffffffffffffffffffffffffffffff\n      and\n      0xffffffffffffffffffffffffffffffffffffffff\n      and\n      dup2\n      mstore\n      0x20\n      add\n      swap1\n      dup2\n      mstore\n      0x20\n      add\n      0x00\n      keccak256\n      sload\n        /* \"contracts/auction.sol\":3001:3019  bids[msg.sender]>0 */\n      gt\n        /* \"contracts/auction.sol\":2973:3019  msg.sender == auctioneer || bids[msg.sender]>0 */\n    tag_117:\n        /* \"contracts/auction.sol\":2965:3020  require(msg.sender == auctioneer || bids[msg.sender]>0) */\n      tag_118\n      jumpi\n      0x00\n      dup1\n      revert\n    tag_118:\n        /* \"contracts/auction.sol\":3033:3055  address payable person */\n      0x00\n        /* \"contracts/auction.sol\":3066:3076  uint value */\n      dup1\n        /* \"contracts/auction.sol\":3108:3131  Auction_State.Cancelled */\n      0x03\n        /* \"contracts/auction.sol\":3092:3131  auctionState == Auction_State.Cancelled */\n      dup1\n      dup2\n      gt\n      iszero\n      tag_119\n      jumpi\n      tag_120\n      tag_76\n      jump\t// in\n    tag_120:\n    tag_119:\n        /* \"contracts/auction.sol\":3092:3104  auctionState */\n      0x03\n      0x00\n      swap1\n      sload\n      swap1\n      0x0100\n      exp\n      swap1\n      div\n      0xff\n      and\n        /* \"contracts/auction.sol\":3092:3131  auctionState == Auction_State.Cancelled */\n      0x03\n      dup2\n      gt\n      iszero\n      tag_121\n      jumpi\n      tag_122\n      tag_76\n      jump\t// in\n    tag_122:\n    tag_121:\n      eq\n        /* \"contracts/auction.sol\":3089:3755  if(auctionState == Auction_State.Cancelled){... */\n      iszero\n      tag_123\n      jumpi\n        /* \"contracts/auction.sol\":3164:3174  msg.sender */\n      caller\n        /* \"contracts/auction.sol\":3147:3175  person = payable(msg.sender) */\n      swap2\n      pop\n        /* \"contracts/auction.sol\":3198:3202  bids */\n      0x08\n        /* \"contracts/auction.sol\":3198:3214  bids[msg.sender] */\n      0x00\n        /* \"contracts/auction.sol\":3203:3213  msg.sender */\n      caller\n        /* \"contracts/auction.sol\":3198:3214  bids[msg.sender] */\n      0xffffffffffffffffffffffffffffffffffffffff\n      and\n      0xffffffffffffffffffffffffffffffffffffffff\n      and\n      dup2\n      mstore\n      0x20\n      add\n      swap1\n      dup2\n      mstore\n      0x20\n      add\n      0x00\n      keccak256\n      sload\n        /* \"contracts/auction.sol\":3190:3214  value = bids[msg.sender] */\n      swap1\n      pop\n        /* \"contracts/auction.sol\":3089:3755  if(auctionState == Auction_State.Cancelled){... */\n      jump(tag_124)\n    tag_123:\n        /* \"contracts/auction.sol\":3272:3282  auctioneer */\n      0x00\n      dup1\n      sload\n      swap1\n      0x0100\n      exp\n      swap1\n      div\n      0xffffffffffffffffffffffffffffffffffffffff\n      and\n        /* \"contracts/auction.sol\":3258:3282  msg.sender == auctioneer */\n      0xffffffffffffffffffffffffffffffffffffffff\n      and\n        /* \"contracts/auction.sol\":3258:3268  msg.sender */\n      caller\n        /* \"contracts/auction.sol\":3258:3282  msg.sender == auctioneer */\n      0xffffffffffffffffffffffffffffffffffffffff\n      and\n      eq\n        /* \"contracts/auction.sol\":3255:3744  if(msg.sender == auctioneer){... */\n      iszero\n      tag_125\n      jumpi\n        /* \"contracts/auction.sol\":3311:3321  auctioneer */\n      0x00\n      dup1\n      sload\n      swap1\n      0x0100\n      exp\n      swap1\n      div\n      0xffffffffffffffffffffffffffffffffffffffff\n      and\n        /* \"contracts/auction.sol\":3302:3321  person = auctioneer */\n      swap2\n      pop\n        /* \"contracts/auction.sol\":3348:3367  highest_payable_bid */\n      sload(0x04)\n        /* \"contracts/auction.sol\":3340:3367  value = highest_payable_bid */\n      swap1\n      pop\n        /* \"contracts/auction.sol\":3255:3744  if(msg.sender == auctioneer){... */\n      jump(tag_126)\n    tag_125:\n        /* \"contracts/auction.sol\":3439:3452  highestBidder */\n      0x07\n      0x00\n      swap1\n      sload\n      swap1\n      0x0100\n      exp\n      swap1\n      div\n      0xffffffffffffffffffffffffffffffffffffffff\n      and\n        /* \"contracts/auction.sol\":3425:3452  msg.sender == highestBidder */\n      0xffffffffffffffffffffffffffffffffffffffff\n      and\n        /* \"contracts/auction.sol\":3425:3435  msg.sender */\n      caller\n        /* \"contracts/auction.sol\":3425:3452  msg.sender == highestBidder */\n      0xffffffffffffffffffffffffffffffffffffffff\n      and\n      eq\n        /* \"contracts/auction.sol\":3422:3729  if(msg.sender == highestBidder){... */\n      iszero\n      tag_127\n      jumpi\n        /* \"contracts/auction.sol\":3486:3499  highestBidder */\n      0x07\n      0x00\n      swap1\n      sload\n      swap1\n      0x0100\n      exp\n      swap1\n      div\n      0xffffffffffffffffffffffffffffffffffffffff\n      and\n        /* \"contracts/auction.sol\":3477:3499  person = highestBidder */\n      swap2\n      pop\n        /* \"contracts/auction.sol\":3550:3569  highest_payable_bid */\n      sload(0x04)\n        /* \"contracts/auction.sol\":3530:3534  bids */\n      0x08\n        /* \"contracts/auction.sol\":3530:3549  bids[highestBidder] */\n      0x00\n        /* \"contracts/auction.sol\":3535:3548  highestBidder */\n      0x07\n      0x00\n      swap1\n      sload\n      swap1\n      0x0100\n      exp\n      swap1\n      div\n      0xffffffffffffffffffffffffffffffffffffffff\n      and\n        /* \"contracts/auction.sol\":3530:3549  bids[highestBidder] */\n      0xffffffffffffffffffffffffffffffffffffffff\n      and\n      0xffffffffffffffffffffffffffffffffffffffff\n      and\n      dup2\n      mstore\n      0x20\n      add\n      swap1\n      dup2\n      mstore\n      0x20\n      add\n      0x00\n      keccak256\n      sload\n        /* \"contracts/auction.sol\":3530:3569  bids[highestBidder]-highest_payable_bid */\n      tag_128\n      swap2\n      swap1\n      tag_129\n      jump\t// in\n    tag_128:\n        /* \"contracts/auction.sol\":3522:3569  value = bids[highestBidder]-highest_payable_bid */\n      swap1\n      pop\n        /* \"contracts/auction.sol\":3422:3729  if(msg.sender == highestBidder){... */\n      jump(tag_130)\n    tag_127:\n        /* \"contracts/auction.sol\":3651:3661  msg.sender */\n      caller\n        /* \"contracts/auction.sol\":3634:3662  person = payable(msg.sender) */\n      swap2\n      pop\n        /* \"contracts/auction.sol\":3693:3697  bids */\n      0x08\n        /* \"contracts/auction.sol\":3693:3709  bids[msg.sender] */\n      0x00\n        /* \"contracts/auction.sol\":3698:3708  msg.sender */\n      caller\n        /* \"contracts/auction.sol\":3693:3709  bids[msg.sender] */\n      0xffffffffffffffffffffffffffffffffffffffff\n      and\n      0xffffffffffffffffffffffffffffffffffffffff\n      and\n      dup2\n      mstore\n      0x20\n      add\n      swap1\n      dup2\n      mstore\n      0x20\n      add\n      0x00\n      keccak256\n      sload\n        /* \"contracts/auction.sol\":3685:3709  value = bids[msg.sender] */\n      swap1\n      pop\n        /* \"contracts/auction.sol\":3422:3729  if(msg.sender == highestBidder){... */\n    tag_130:\n        /* \"contracts/auction.sol\":3255:3744  if(msg.sender == auctioneer){... */\n    tag_126:\n        /* \"contracts/auction.sol\":3089:3755  if(auctionState == Auction_State.Cancelled){... */\n    tag_124:\n        /* \"contracts/auction.sol\":3782:3783  0 */\n      0x00\n        /* \"contracts/auction.sol\":3765:3769  bids */\n      0x08\n        /* \"contracts/auction.sol\":3765:3781  bids[msg.sender] */\n      0x00\n        /* \"contracts/auction.sol\":3770:3780  msg.sender */\n      caller\n        /* \"contracts/auction.sol\":3765:3781  bids[msg.sender] */\n      0xffffffffffffffffffffffffffffffffffffffff\n      and\n      0xffffffffffffffffffffffffffffffffffffffff\n      and\n      dup2\n      mstore\n      0x20\n      add\n      swap1\n      dup2\n      mstore\n      0x20\n      add\n      0x00\n      keccak256\n        /* \"contracts/auction.sol\":3765:3783  bids[msg.sender]=0 */\n      dup2\n      swap1\n      sstore\n      pop\n        /* \"contracts/auction.sol\":3794:3800  person */\n      dup2\n        /* \"contracts/auction.sol\":3794:3809  person.transfer */\n      0xffffffffffffffffffffffffffffffffffffffff\n      and\n        /* \"contracts/auction.sol\":3794:3816  person.transfer(value) */\n      0x08fc\n        /* \"contracts/auction.sol\":3810:3815  value */\n      dup3\n        /* \"contracts/auction.sol\":3794:3816  person.transfer(value) */\n      swap1\n      dup2\n      iszero\n      mul\n      swap1\n      mload(0x40)\n      0x00\n      mload(0x40)\n      dup1\n      dup4\n      sub\n      dup2\n      dup6\n      dup9\n      dup9\n      call\n      swap4\n      pop\n      pop\n      pop\n      pop\n      iszero\n      dup1\n      iszero\n      tag_132\n      jumpi\n      returndatasize\n      0x00\n      dup1\n      returndatacopy\n      revert(0x00, returndatasize)\n    tag_132:\n      pop\n        /* \"contracts/auction.sol\":2832:3824  {... */\n      pop\n      pop\n        /* \"contracts/auction.sol\":2803:3824  function finalizeAuc() public{... */\n      jump\t// out\n        /* \"contracts/auction.sol\":1982:2119  function min(uint a , uint b) pure private returns (uint){... */\n    tag_87:\n        /* \"contracts/auction.sol\":2034:2038  uint */\n      0x00\n        /* \"contracts/auction.sol\":2056:2057  b */\n      dup2\n        /* \"contracts/auction.sol\":2053:2054  a */\n      dup4\n        /* \"contracts/auction.sol\":2053:2057  a<=b */\n      gt\n        /* \"contracts/auction.sol\":2050:2109  if(a<=b)... */\n      tag_134\n      jumpi\n        /* \"contracts/auction.sol\":2075:2076  a */\n      dup3\n        /* \"contracts/auction.sol\":2068:2076  return a */\n      swap1\n      pop\n      jump(tag_133)\n        /* \"contracts/auction.sol\":2050:2109  if(a<=b)... */\n    tag_134:\n        /* \"contracts/auction.sol\":2108:2109  b */\n      dup2\n        /* \"contracts/auction.sol\":2101:2109  return b */\n      swap1\n      pop\n        /* \"contracts/auction.sol\":1982:2119  function min(uint a , uint b) pure private returns (uint){... */\n    tag_133:\n      swap3\n      swap2\n      pop\n      pop\n      jump\t// out\n        /* \"#utility.yul\":7:83   */\n    tag_136:\n        /* \"#utility.yul\":43:50   */\n      0x00\n        /* \"#utility.yul\":72:77   */\n      dup2\n        /* \"#utility.yul\":61:77   */\n      swap1\n      pop\n        /* \"#utility.yul\":7:83   */\n      swap2\n      swap1\n      pop\n      jump\t// out\n        /* \"#utility.yul\":89:204   */\n    tag_137:\n        /* \"#utility.yul\":174:197   */\n      tag_160\n        /* \"#utility.yul\":191:196   */\n      dup2\n        /* \"#utility.yul\":174:197   */\n      tag_136\n      jump\t// in\n    tag_160:\n        /* \"#utility.yul\":169:172   */\n      dup3\n        /* \"#utility.yul\":162:198   */\n      mstore\n        /* \"#utility.yul\":89:204   */\n      pop\n      pop\n      jump\t// out\n        /* \"#utility.yul\":210:428   */\n    tag_18:\n        /* \"#utility.yul\":301:305   */\n      0x00\n        /* \"#utility.yul\":339:341   */\n      0x20\n        /* \"#utility.yul\":328:337   */\n      dup3\n        /* \"#utility.yul\":324:342   */\n      add\n        /* \"#utility.yul\":316:342   */\n      swap1\n      pop\n        /* \"#utility.yul\":352:421   */\n      tag_162\n        /* \"#utility.yul\":418:419   */\n      0x00\n        /* \"#utility.yul\":407:416   */\n      dup4\n        /* \"#utility.yul\":403:420   */\n      add\n        /* \"#utility.yul\":394:400   */\n      dup5\n        /* \"#utility.yul\":352:421   */\n      tag_137\n      jump\t// in\n    tag_162:\n        /* \"#utility.yul\":210:428   */\n      swap3\n      swap2\n      pop\n      pop\n      jump\t// out\n        /* \"#utility.yul\":434:560   */\n    tag_138:\n        /* \"#utility.yul\":471:478   */\n      0x00\n        /* \"#utility.yul\":511:553   */\n      0xffffffffffffffffffffffffffffffffffffffff\n        /* \"#utility.yul\":504:509   */\n      dup3\n        /* \"#utility.yul\":500:554   */\n      and\n        /* \"#utility.yul\":489:554   */\n      swap1\n      pop\n        /* \"#utility.yul\":434:560   */\n      swap2\n      swap1\n      pop\n      jump\t// out\n        /* \"#utility.yul\":566:670   */\n    tag_139:\n        /* \"#utility.yul\":611:618   */\n      0x00\n        /* \"#utility.yul\":640:664   */\n      tag_165\n        /* \"#utility.yul\":658:663   */\n      dup3\n        /* \"#utility.yul\":640:664   */\n      tag_138\n      jump\t// in\n    tag_165:\n        /* \"#utility.yul\":629:664   */\n      swap1\n      pop\n        /* \"#utility.yul\":566:670   */\n      swap2\n      swap1\n      pop\n      jump\t// out\n        /* \"#utility.yul\":676:818   */\n    tag_140:\n        /* \"#utility.yul\":779:811   */\n      tag_167\n        /* \"#utility.yul\":805:810   */\n      dup2\n        /* \"#utility.yul\":779:811   */\n      tag_139\n      jump\t// in\n    tag_167:\n        /* \"#utility.yul\":774:777   */\n      dup3\n        /* \"#utility.yul\":767:812   */\n      mstore\n        /* \"#utility.yul\":676:818   */\n      pop\n      pop\n      jump\t// out\n        /* \"#utility.yul\":824:1078   */\n    tag_29:\n        /* \"#utility.yul\":933:937   */\n      0x00\n        /* \"#utility.yul\":971:973   */\n      0x20\n        /* \"#utility.yul\":960:969   */\n      dup3\n        /* \"#utility.yul\":956:974   */\n      add\n        /* \"#utility.yul\":948:974   */\n      swap1\n      pop\n        /* \"#utility.yul\":984:1071   */\n      tag_169\n        /* \"#utility.yul\":1068:1069   */\n      0x00\n        /* \"#utility.yul\":1057:1066   */\n      dup4\n        /* \"#utility.yul\":1053:1070   */\n      add\n        /* \"#utility.yul\":1044:1050   */\n      dup5\n        /* \"#utility.yul\":984:1071   */\n      tag_140\n      jump\t// in\n    tag_169:\n        /* \"#utility.yul\":824:1078   */\n      swap3\n      swap2\n      pop\n      pop\n      jump\t// out\n        /* \"#utility.yul\":1165:1282   */\n    tag_142:\n        /* \"#utility.yul\":1274:1275   */\n      0x00\n        /* \"#utility.yul\":1271:1272   */\n      dup1\n        /* \"#utility.yul\":1264:1276   */\n      revert\n        /* \"#utility.yul\":1411:1507   */\n    tag_144:\n        /* \"#utility.yul\":1448:1455   */\n      0x00\n        /* \"#utility.yul\":1477:1501   */\n      tag_174\n        /* \"#utility.yul\":1495:1500   */\n      dup3\n        /* \"#utility.yul\":1477:1501   */\n      tag_138\n      jump\t// in\n    tag_174:\n        /* \"#utility.yul\":1466:1501   */\n      swap1\n      pop\n        /* \"#utility.yul\":1411:1507   */\n      swap2\n      swap1\n      pop\n      jump\t// out\n        /* \"#utility.yul\":1513:1635   */\n    tag_145:\n        /* \"#utility.yul\":1586:1610   */\n      tag_176\n        /* \"#utility.yul\":1604:1609   */\n      dup2\n        /* \"#utility.yul\":1586:1610   */\n      tag_144\n      jump\t// in\n    tag_176:\n        /* \"#utility.yul\":1579:1584   */\n      dup2\n        /* \"#utility.yul\":1576:1611   */\n      eq\n        /* \"#utility.yul\":1566:1629   */\n      tag_177\n      jumpi\n        /* \"#utility.yul\":1625:1626   */\n      0x00\n        /* \"#utility.yul\":1622:1623   */\n      dup1\n        /* \"#utility.yul\":1615:1627   */\n      revert\n        /* \"#utility.yul\":1566:1629   */\n    tag_177:\n        /* \"#utility.yul\":1513:1635   */\n      pop\n      jump\t// out\n        /* \"#utility.yul\":1641:1780   */\n    tag_146:\n        /* \"#utility.yul\":1687:1692   */\n      0x00\n        /* \"#utility.yul\":1725:1731   */\n      dup2\n        /* \"#utility.yul\":1712:1732   */\n      calldataload\n        /* \"#utility.yul\":1703:1732   */\n      swap1\n      pop\n        /* \"#utility.yul\":1741:1774   */\n      tag_179\n        /* \"#utility.yul\":1768:1773   */\n      dup2\n        /* \"#utility.yul\":1741:1774   */\n      tag_145\n      jump\t// in\n    tag_179:\n        /* \"#utility.yul\":1641:1780   */\n      swap3\n      swap2\n      pop\n      pop\n      jump\t// out\n        /* \"#utility.yul\":1786:2115   */\n    tag_33:\n        /* \"#utility.yul\":1845:1851   */\n      0x00\n        /* \"#utility.yul\":1894:1896   */\n      0x20\n        /* \"#utility.yul\":1882:1891   */\n      dup3\n        /* \"#utility.yul\":1873:1880   */\n      dup5\n        /* \"#utility.yul\":1869:1892   */\n      sub\n        /* \"#utility.yul\":1865:1897   */\n      slt\n        /* \"#utility.yul\":1862:1981   */\n      iszero\n      tag_181\n      jumpi\n        /* \"#utility.yul\":1900:1979   */\n      tag_182\n      tag_142\n      jump\t// in\n    tag_182:\n        /* \"#utility.yul\":1862:1981   */\n    tag_181:\n        /* \"#utility.yul\":2020:2021   */\n      0x00\n        /* \"#utility.yul\":2045:2098   */\n      tag_183\n        /* \"#utility.yul\":2090:2097   */\n      dup5\n        /* \"#utility.yul\":2081:2087   */\n      dup3\n        /* \"#utility.yul\":2070:2079   */\n      dup6\n        /* \"#utility.yul\":2066:2088   */\n      add\n        /* \"#utility.yul\":2045:2098   */\n      tag_146\n      jump\t// in\n    tag_183:\n        /* \"#utility.yul\":2035:2098   */\n      swap2\n      pop\n        /* \"#utility.yul\":1991:2108   */\n      pop\n        /* \"#utility.yul\":1786:2115   */\n      swap3\n      swap2\n      pop\n      pop\n      jump\t// out\n        /* \"#utility.yul\":2121:2198   */\n    tag_147:\n        /* \"#utility.yul\":2158:2165   */\n      0x00\n        /* \"#utility.yul\":2187:2192   */\n      dup2\n        /* \"#utility.yul\":2176:2192   */\n      swap1\n      pop\n        /* \"#utility.yul\":2121:2198   */\n      swap2\n      swap1\n      pop\n      jump\t// out\n        /* \"#utility.yul\":2204:2322   */\n    tag_148:\n        /* \"#utility.yul\":2291:2315   */\n      tag_186\n        /* \"#utility.yul\":2309:2314   */\n      dup2\n        /* \"#utility.yul\":2291:2315   */\n      tag_147\n      jump\t// in\n    tag_186:\n        /* \"#utility.yul\":2286:2289   */\n      dup3\n        /* \"#utility.yul\":2279:2316   */\n      mstore\n        /* \"#utility.yul\":2204:2322   */\n      pop\n      pop\n      jump\t// out\n        /* \"#utility.yul\":2328:2550   */\n    tag_36:\n        /* \"#utility.yul\":2421:2425   */\n      0x00\n        /* \"#utility.yul\":2459:2461   */\n      0x20\n        /* \"#utility.yul\":2448:2457   */\n      dup3\n        /* \"#utility.yul\":2444:2462   */\n      add\n        /* \"#utility.yul\":2436:2462   */\n      swap1\n      pop\n        /* \"#utility.yul\":2472:2543   */\n      tag_188\n        /* \"#utility.yul\":2540:2541   */\n      0x00\n        /* \"#utility.yul\":2529:2538   */\n      dup4\n        /* \"#utility.yul\":2525:2542   */\n      add\n        /* \"#utility.yul\":2516:2522   */\n      dup5\n        /* \"#utility.yul\":2472:2543   */\n      tag_148\n      jump\t// in\n    tag_188:\n        /* \"#utility.yul\":2328:2550   */\n      swap3\n      swap2\n      pop\n      pop\n      jump\t// out\n        /* \"#utility.yul\":2556:2736   */\n    tag_76:\n        /* \"#utility.yul\":2604:2681   */\n      0x4e487b7100000000000000000000000000000000000000000000000000000000\n        /* \"#utility.yul\":2601:2602   */\n      0x00\n        /* \"#utility.yul\":2594:2682   */\n      mstore\n        /* \"#utility.yul\":2701:2705   */\n      0x21\n        /* \"#utility.yul\":2698:2699   */\n      0x04\n        /* \"#utility.yul\":2691:2706   */\n      mstore\n        /* \"#utility.yul\":2725:2729   */\n      0x24\n        /* \"#utility.yul\":2722:2723   */\n      0x00\n        /* \"#utility.yul\":2715:2730   */\n      revert\n        /* \"#utility.yul\":2742:2863   */\n    tag_149:\n        /* \"#utility.yul\":2831:2832   */\n      0x04\n        /* \"#utility.yul\":2824:2829   */\n      dup2\n        /* \"#utility.yul\":2821:2833   */\n      lt\n        /* \"#utility.yul\":2811:2857   */\n      tag_191\n      jumpi\n        /* \"#utility.yul\":2837:2855   */\n      tag_192\n      tag_76\n      jump\t// in\n    tag_192:\n        /* \"#utility.yul\":2811:2857   */\n    tag_191:\n        /* \"#utility.yul\":2742:2863   */\n      pop\n      jump\t// out\n        /* \"#utility.yul\":2869:3012   */\n    tag_150:\n        /* \"#utility.yul\":2922:2929   */\n      0x00\n        /* \"#utility.yul\":2951:2956   */\n      dup2\n        /* \"#utility.yul\":2940:2956   */\n      swap1\n      pop\n        /* \"#utility.yul\":2957:3006   */\n      tag_194\n        /* \"#utility.yul\":3000:3005   */\n      dup3\n        /* \"#utility.yul\":2957:3006   */\n      tag_149\n      jump\t// in\n    tag_194:\n        /* \"#utility.yul\":2869:3012   */\n      swap2\n      swap1\n      pop\n      jump\t// out\n        /* \"#utility.yul\":3018:3161   */\n    tag_151:\n        /* \"#utility.yul\":3082:3091   */\n      0x00\n        /* \"#utility.yul\":3115:3155   */\n      tag_196\n        /* \"#utility.yul\":3149:3154   */\n      dup3\n        /* \"#utility.yul\":3115:3155   */\n      tag_150\n      jump\t// in\n    tag_196:\n        /* \"#utility.yul\":3102:3155   */\n      swap1\n      pop\n        /* \"#utility.yul\":3018:3161   */\n      swap2\n      swap1\n      pop\n      jump\t// out\n        /* \"#utility.yul\":3167:3326   */\n    tag_152:\n        /* \"#utility.yul\":3268:3319   */\n      tag_198\n        /* \"#utility.yul\":3313:3318   */\n      dup2\n        /* \"#utility.yul\":3268:3319   */\n      tag_151\n      jump\t// in\n    tag_198:\n        /* \"#utility.yul\":3263:3266   */\n      dup3\n        /* \"#utility.yul\":3256:3320   */\n      mstore\n        /* \"#utility.yul\":3167:3326   */\n      pop\n      pop\n      jump\t// out\n        /* \"#utility.yul\":3332:3582   */\n    tag_45:\n        /* \"#utility.yul\":3439:3443   */\n      0x00\n        /* \"#utility.yul\":3477:3479   */\n      0x20\n        /* \"#utility.yul\":3466:3475   */\n      dup3\n        /* \"#utility.yul\":3462:3480   */\n      add\n        /* \"#utility.yul\":3454:3480   */\n      swap1\n      pop\n        /* \"#utility.yul\":3490:3575   */\n      tag_200\n        /* \"#utility.yul\":3572:3573   */\n      0x00\n        /* \"#utility.yul\":3561:3570   */\n      dup4\n        /* \"#utility.yul\":3557:3574   */\n      add\n        /* \"#utility.yul\":3548:3554   */\n      dup5\n        /* \"#utility.yul\":3490:3575   */\n      tag_152\n      jump\t// in\n    tag_200:\n        /* \"#utility.yul\":3332:3582   */\n      swap3\n      swap2\n      pop\n      pop\n      jump\t// out\n        /* \"#utility.yul\":3588:3757   */\n    tag_153:\n        /* \"#utility.yul\":3672:3683   */\n      0x00\n        /* \"#utility.yul\":3706:3712   */\n      dup3\n        /* \"#utility.yul\":3701:3704   */\n      dup3\n        /* \"#utility.yul\":3694:3713   */\n      mstore\n        /* \"#utility.yul\":3746:3750   */\n      0x20\n        /* \"#utility.yul\":3741:3744   */\n      dup3\n        /* \"#utility.yul\":3737:3751   */\n      add\n        /* \"#utility.yul\":3722:3751   */\n      swap1\n      pop\n        /* \"#utility.yul\":3588:3757   */\n      swap3\n      swap2\n      pop\n      pop\n      jump\t// out\n        /* \"#utility.yul\":3763:3929   */\n    tag_154:\n        /* \"#utility.yul\":3903:3921   */\n      0x4f776e65722063616e6e6f742062696400000000000000000000000000000000\n        /* \"#utility.yul\":3899:3900   */\n      0x00\n        /* \"#utility.yul\":3891:3897   */\n      dup3\n        /* \"#utility.yul\":3887:3901   */\n      add\n        /* \"#utility.yul\":3880:3922   */\n      mstore\n        /* \"#utility.yul\":3763:3929   */\n      pop\n      jump\t// out\n        /* \"#utility.yul\":3935:4301   */\n    tag_155:\n        /* \"#utility.yul\":4077:4080   */\n      0x00\n        /* \"#utility.yul\":4098:4165   */\n      tag_204\n        /* \"#utility.yul\":4162:4164   */\n      0x10\n        /* \"#utility.yul\":4157:4160   */\n      dup4\n        /* \"#utility.yul\":4098:4165   */\n      tag_153\n      jump\t// in\n    tag_204:\n        /* \"#utility.yul\":4091:4165   */\n      swap2\n      pop\n        /* \"#utility.yul\":4174:4267   */\n      tag_205\n        /* \"#utility.yul\":4263:4266   */\n      dup3\n        /* \"#utility.yul\":4174:4267   */\n      tag_154\n      jump\t// in\n    tag_205:\n        /* \"#utility.yul\":4292:4294   */\n      0x20\n        /* \"#utility.yul\":4287:4290   */\n      dup3\n        /* \"#utility.yul\":4283:4295   */\n      add\n        /* \"#utility.yul\":4276:4295   */\n      swap1\n      pop\n        /* \"#utility.yul\":3935:4301   */\n      swap2\n      swap1\n      pop\n      jump\t// out\n        /* \"#utility.yul\":4307:4726   */\n    tag_68:\n        /* \"#utility.yul\":4473:4477   */\n      0x00\n        /* \"#utility.yul\":4511:4513   */\n      0x20\n        /* \"#utility.yul\":4500:4509   */\n      dup3\n        /* \"#utility.yul\":4496:4514   */\n      add\n        /* \"#utility.yul\":4488:4514   */\n      swap1\n      pop\n        /* \"#utility.yul\":4560:4569   */\n      dup2\n        /* \"#utility.yul\":4554:4558   */\n      dup2\n        /* \"#utility.yul\":4550:4570   */\n      sub\n        /* \"#utility.yul\":4546:4547   */\n      0x00\n        /* \"#utility.yul\":4535:4544   */\n      dup4\n        /* \"#utility.yul\":4531:4548   */\n      add\n        /* \"#utility.yul\":4524:4571   */\n      mstore\n        /* \"#utility.yul\":4588:4719   */\n      tag_207\n        /* \"#utility.yul\":4714:4718   */\n      dup2\n        /* \"#utility.yul\":4588:4719   */\n      tag_155\n      jump\t// in\n    tag_207:\n        /* \"#utility.yul\":4580:4719   */\n      swap1\n      pop\n        /* \"#utility.yul\":4307:4726   */\n      swap2\n      swap1\n      pop\n      jump\t// out\n        /* \"#utility.yul\":4732:4912   */\n    tag_156:\n        /* \"#utility.yul\":4780:4857   */\n      0x4e487b7100000000000000000000000000000000000000000000000000000000\n        /* \"#utility.yul\":4777:4778   */\n      0x00\n        /* \"#utility.yul\":4770:4858   */\n      mstore\n        /* \"#utility.yul\":4877:4881   */\n      0x11\n        /* \"#utility.yul\":4874:4875   */\n      0x04\n        /* \"#utility.yul\":4867:4882   */\n      mstore\n        /* \"#utility.yul\":4901:4905   */\n      0x24\n        /* \"#utility.yul\":4898:4899   */\n      0x00\n        /* \"#utility.yul\":4891:4906   */\n      revert\n        /* \"#utility.yul\":4918:5223   */\n    tag_82:\n        /* \"#utility.yul\":4958:4961   */\n      0x00\n        /* \"#utility.yul\":4977:4997   */\n      tag_210\n        /* \"#utility.yul\":4995:4996   */\n      dup3\n        /* \"#utility.yul\":4977:4997   */\n      tag_147\n      jump\t// in\n    tag_210:\n        /* \"#utility.yul\":4972:4997   */\n      swap2\n      pop\n        /* \"#utility.yul\":5011:5031   */\n      tag_211\n        /* \"#utility.yul\":5029:5030   */\n      dup4\n        /* \"#utility.yul\":5011:5031   */\n      tag_147\n      jump\t// in\n    tag_211:\n        /* \"#utility.yul\":5006:5031   */\n      swap3\n      pop\n        /* \"#utility.yul\":5165:5166   */\n      dup3\n        /* \"#utility.yul\":5097:5163   */\n      0xffffffffffffffffffffffffffffffffffffffffffffffffffffffffffffffff\n        /* \"#utility.yul\":5093:5167   */\n      sub\n        /* \"#utility.yul\":5090:5091   */\n      dup3\n        /* \"#utility.yul\":5087:5168   */\n      gt\n        /* \"#utility.yul\":5084:5191   */\n      iszero\n      tag_212\n      jumpi\n        /* \"#utility.yul\":5171:5189   */\n      tag_213\n      tag_156\n      jump\t// in\n    tag_213:\n        /* \"#utility.yul\":5084:5191   */\n    tag_212:\n        /* \"#utility.yul\":5215:5216   */\n      dup3\n        /* \"#utility.yul\":5212:5213   */\n      dup3\n        /* \"#utility.yul\":5208:5217   */\n      add\n        /* \"#utility.yul\":5201:5217   */\n      swap1\n      pop\n        /* \"#utility.yul\":4918:5223   */\n      swap3\n      swap2\n      pop\n      pop\n      jump\t// out\n        /* \"#utility.yul\":5229:5460   */\n    tag_92:\n        /* \"#utility.yul\":5267:5270   */\n      0x00\n        /* \"#utility.yul\":5290:5313   */\n      tag_215\n        /* \"#utility.yul\":5307:5312   */\n      dup3\n        /* \"#utility.yul\":5290:5313   */\n      tag_136\n      jump\t// in\n    tag_215:\n        /* \"#utility.yul\":5281:5313   */\n      swap2\n      pop\n        /* \"#utility.yul\":5335:5401   */\n      0x7fffffffffffffffffffffffffffffffffffffffffffffffffffffffffffffff\n        /* \"#utility.yul\":5328:5333   */\n      dup3\n        /* \"#utility.yul\":5325:5402   */\n      eq\n        /* \"#utility.yul\":5322:5425   */\n      iszero\n      tag_216\n      jumpi\n        /* \"#utility.yul\":5405:5423   */\n      tag_217\n      tag_156\n      jump\t// in\n    tag_217:\n        /* \"#utility.yul\":5322:5425   */\n    tag_216:\n        /* \"#utility.yul\":5452:5453   */\n      0x01\n        /* \"#utility.yul\":5445:5450   */\n      dup3\n        /* \"#utility.yul\":5441:5454   */\n      add\n        /* \"#utility.yul\":5434:5454   */\n      swap1\n      pop\n        /* \"#utility.yul\":5229:5460   */\n      swap2\n      swap1\n      pop\n      jump\t// out\n        /* \"#utility.yul\":5466:5657   */\n    tag_129:\n        /* \"#utility.yul\":5506:5510   */\n      0x00\n        /* \"#utility.yul\":5526:5546   */\n      tag_219\n        /* \"#utility.yul\":5544:5545   */\n      dup3\n        /* \"#utility.yul\":5526:5546   */\n      tag_147\n      jump\t// in\n    tag_219:\n        /* \"#utility.yul\":5521:5546   */\n      swap2\n      pop\n        /* \"#utility.yul\":5560:5580   */\n      tag_220\n        /* \"#utility.yul\":5578:5579   */\n      dup4\n        /* \"#utility.yul\":5560:5580   */\n      tag_147\n      jump\t// in\n    tag_220:\n        /* \"#utility.yul\":5555:5580   */\n      swap3\n      pop\n        /* \"#utility.yul\":5599:5600   */\n      dup3\n        /* \"#utility.yul\":5596:5597   */\n      dup3\n        /* \"#utility.yul\":5593:5601   */\n      lt\n        /* \"#utility.yul\":5590:5624   */\n      iszero\n      tag_221\n      jumpi\n        /* \"#utility.yul\":5604:5622   */\n      tag_222\n      tag_156\n      jump\t// in\n    tag_222:\n        /* \"#utility.yul\":5590:5624   */\n    tag_221:\n        /* \"#utility.yul\":5649:5650   */\n      dup3\n        /* \"#utility.yul\":5646:5647   */\n      dup3\n        /* \"#utility.yul\":5642:5651   */\n      sub\n        /* \"#utility.yul\":5634:5651   */\n      swap1\n      pop\n        /* \"#utility.yul\":5466:5657   */\n      swap3\n      swap2\n      pop\n      pop\n      jump\t// out\n\n    auxdata: 0xa26469706673582212206ebef0833f104c20bdb4b59c601ab7b36aaa42956b0f8787212acf4b552d06da64736f6c634300080b0033\n}\n",
				"bytecode": {
					"linkReferences": {},
					"object": "608060405234801561001057600080fd5b50336000806101000a81548173ffffffffffffffffffffffffffffffffffffffff021916908373ffffffffffffffffffffffffffffffffffffffff1602179055506001600360006101000a81548160ff02191690836003811115610077576100766100b4565b5b02179055504360018190555060f0600154610092919061011c565b600281905550670de0b6b3a76400006005819055506000600681905550610172565b7f4e487b7100000000000000000000000000000000000000000000000000000000600052602160045260246000fd5b6000819050919050565b7f4e487b7100000000000000000000000000000000000000000000000000000000600052601160045260246000fd5b6000610127826100e3565b9150610132836100e3565b9250827fffffffffffffffffffffffffffffffffffffffffffffffffffffffffffffffff03821115610167576101666100ed565b5b828201905092915050565b610f7f806101816000396000f3fe6080604052600436106100a75760003560e01c80637fb45099116100645780637fb450991461018b57806391f90157146101b65780639d957d45146101e1578063a118be021461020c578063ce5bd04114610237578063e07600bd14610262576100a7565b80631998aeef146100ac5780632352f320146100ca5780633fdceefd146100e15780635ec2c7bf146100f857806362ea82db146101235780637eb695a114610160575b600080fd5b6100b4610279565b6040516100c19190610c1d565b60405180910390f35b3480156100d657600080fd5b506100df6105ea565b005b3480156100ed57600080fd5b506100f66106a4565b005b34801561010457600080fd5b5061010d61075f565b60405161011a9190610c79565b60405180910390f35b34801561012f57600080fd5b5061014a60048036038101906101459190610cd7565b610783565b6040516101579190610d1d565b60405180910390f35b34801561016c57600080fd5b5061017561079b565b6040516101829190610d1d565b60405180910390f35b34801561019757600080fd5b506101a06107a1565b6040516101ad9190610daf565b60405180910390f35b3480156101c257600080fd5b506101cb6107b4565b6040516101d89190610c79565b60405180910390f35b3480156101ed57600080fd5b506101f66107da565b6040516102039190610d1d565b60405180910390f35b34801561021857600080fd5b506102216107e0565b60405161022e9190610d1d565b60405180910390f35b34801561024357600080fd5b5061024c6107e6565b6040516102599190610d1d565b60405180910390f35b34801561026e57600080fd5b506102776107ec565b005b60008060009054906101000a900473ffffffffffffffffffffffffffffffffffffffff1673ffffffffffffffffffffffffffffffffffffffff163373ffffffffffffffffffffffffffffffffffffffff16141561030b576040517f08c379a000000000000000000000000000000000000000000000000000000000815260040161030290610e27565b60405180910390fd5b600154431161031957600080fd5b600254431061032757600080fd5b6001600381111561033b5761033a610d38565b5b600360009054906101000a900460ff16600381111561035d5761035c610d38565b5b1461036757600080fd5b670de0b6b3a764000034101561037c57600080fd5b600034600860003373ffffffffffffffffffffffffffffffffffffffff1673ffffffffffffffffffffffffffffffffffffffff168152602001908152602001600020546103c99190610e76565b905060045481116103d957600080fd5b80600860003373ffffffffffffffffffffffffffffffffffffffff1673ffffffffffffffffffffffffffffffffffffffff1681526020019081526020016000208190555060086000600760009054906101000a900473ffffffffffffffffffffffffffffffffffffffff1673ffffffffffffffffffffffffffffffffffffffff1673ffffffffffffffffffffffffffffffffffffffff16815260200190815260200160002054811015610509576104fe600554826104979190610e76565b60086000600760009054906101000a900473ffffffffffffffffffffffffffffffffffffffff1673ffffffffffffffffffffffffffffffffffffffff1673ffffffffffffffffffffffffffffffffffffffff16815260200190815260200160002054610be9565b6004819055506105c9565b6105818160055460086000600760009054906101000a900473ffffffffffffffffffffffffffffffffffffffff1673ffffffffffffffffffffffffffffffffffffffff1673ffffffffffffffffffffffffffffffffffffffff1681526020019081526020016000205461057c9190610e76565b610be9565b60048190555033600760006101000a81548173ffffffffffffffffffffffffffffffffffffffff021916908373ffffffffffffffffffffffffffffffffffffffff1602179055505b600660008154809291906105dc90610ecc565b919050555060065491505090565b60008054906101000a900473ffffffffffffffffffffffffffffffffffffffff1673ffffffffffffffffffffffffffffffffffffffff163373ffffffffffffffffffffffffffffffffffffffff1614610678576040517f08c379a000000000000000000000000000000000000000000000000000000000815260040161066f90610e27565b60405180910390fd5b60038060006101000a81548160ff0219169083600381111561069d5761069c610d38565b5b0217905550565b60008054906101000a900473ffffffffffffffffffffffffffffffffffffffff1673ffffffffffffffffffffffffffffffffffffffff163373ffffffffffffffffffffffffffffffffffffffff1614610732576040517f08c379a000000000000000000000000000000000000000000000000000000000815260040161072990610e27565b60405180910390fd5b6002600360006101000a81548160ff0219169083600381111561075857610757610d38565b5b0217905550565b60008054906101000a900473ffffffffffffffffffffffffffffffffffffffff1681565b60086020528060005260406000206000915090505481565b60045481565b600360009054906101000a900460ff1681565b600760009054906101000a900473ffffffffffffffffffffffffffffffffffffffff1681565b60025481565b60015481565b60055481565b6003808111156107ff576107fe610d38565b5b600360009054906101000a900460ff16600381111561082157610820610d38565b5b148061086057506002600381111561083c5761083b610d38565b5b600360009054906101000a900460ff16600381111561085e5761085d610d38565b5b145b8061086c575060025443115b61087557600080fd5b60008054906101000a900473ffffffffffffffffffffffffffffffffffffffff1673ffffffffffffffffffffffffffffffffffffffff163373ffffffffffffffffffffffffffffffffffffffff16148061090e57506000600860003373ffffffffffffffffffffffffffffffffffffffff1673ffffffffffffffffffffffffffffffffffffffff16815260200190815260200160002054115b61091757600080fd5b60008060038081111561092d5761092c610d38565b5b600360009054906101000a900460ff16600381111561094f5761094e610d38565b5b141561099f57339150600860003373ffffffffffffffffffffffffffffffffffffffff1673ffffffffffffffffffffffffffffffffffffffff168152602001908152602001600020549050610b59565b60008054906101000a900473ffffffffffffffffffffffffffffffffffffffff1673ffffffffffffffffffffffffffffffffffffffff163373ffffffffffffffffffffffffffffffffffffffff161415610a205760008054906101000a900473ffffffffffffffffffffffffffffffffffffffff1691506004549050610b58565b600760009054906101000a900473ffffffffffffffffffffffffffffffffffffffff1673ffffffffffffffffffffffffffffffffffffffff163373ffffffffffffffffffffffffffffffffffffffff161415610b1157600760009054906101000a900473ffffffffffffffffffffffffffffffffffffffff16915060045460086000600760009054906101000a900473ffffffffffffffffffffffffffffffffffffffff1673ffffffffffffffffffffffffffffffffffffffff1673ffffffffffffffffffffffffffffffffffffffff16815260200190815260200160002054610b0a9190610f15565b9050610b57565b339150600860003373ffffffffffffffffffffffffffffffffffffffff1673ffffffffffffffffffffffffffffffffffffffff1681526020019081526020016000205490505b5b5b6000600860003373ffffffffffffffffffffffffffffffffffffffff1673ffffffffffffffffffffffffffffffffffffffff168152602001908152602001600020819055508173ffffffffffffffffffffffffffffffffffffffff166108fc829081150290604051600060405180830381858888f19350505050158015610be4573d6000803e3d6000fd5b505050565b6000818311610bfa57829050610bfe565b8190505b92915050565b6000819050919050565b610c1781610c04565b82525050565b6000602082019050610c326000830184610c0e565b92915050565b600073ffffffffffffffffffffffffffffffffffffffff82169050919050565b6000610c6382610c38565b9050919050565b610c7381610c58565b82525050565b6000602082019050610c8e6000830184610c6a565b92915050565b600080fd5b6000610ca482610c38565b9050919050565b610cb481610c99565b8114610cbf57600080fd5b50565b600081359050610cd181610cab565b92915050565b600060208284031215610ced57610cec610c94565b5b6000610cfb84828501610cc2565b91505092915050565b6000819050919050565b610d1781610d04565b82525050565b6000602082019050610d326000830184610d0e565b92915050565b7f4e487b7100000000000000000000000000000000000000000000000000000000600052602160045260246000fd5b60048110610d7857610d77610d38565b5b50565b6000819050610d8982610d67565b919050565b6000610d9982610d7b565b9050919050565b610da981610d8e565b82525050565b6000602082019050610dc46000830184610da0565b92915050565b600082825260208201905092915050565b7f4f776e65722063616e6e6f742062696400000000000000000000000000000000600082015250565b6000610e11601083610dca565b9150610e1c82610ddb565b602082019050919050565b60006020820190508181036000830152610e4081610e04565b9050919050565b7f4e487b7100000000000000000000000000000000000000000000000000000000600052601160045260246000fd5b6000610e8182610d04565b9150610e8c83610d04565b9250827fffffffffffffffffffffffffffffffffffffffffffffffffffffffffffffffff03821115610ec157610ec0610e47565b5b828201905092915050565b6000610ed782610c04565b91507f7fffffffffffffffffffffffffffffffffffffffffffffffffffffffffffffff821415610f0a57610f09610e47565b5b600182019050919050565b6000610f2082610d04565b9150610f2b83610d04565b925082821015610f3e57610f3d610e47565b5b82820390509291505056fea26469706673582212206ebef0833f104c20bdb4b59c601ab7b36aaa42956b0f8787212acf4b552d06da64736f6c634300080b0033",
					"opcodes": "PUSH1 0x80 PUSH1 0x40 MSTORE CALLVALUE DUP1 ISZERO PUSH2 0x10 JUMPI PUSH1 0x0 DUP1 REVERT JUMPDEST POP CALLER PUSH1 0x0 DUP1 PUSH2 0x100 EXP DUP2 SLOAD DUP2 PUSH20 0xFFFFFFFFFFFFFFFFFFFFFFFFFFFFFFFFFFFFFFFF MUL NOT AND SWAP1 DUP4 PUSH20 0xFFFFFFFFFFFFFFFFFFFFFFFFFFFFFFFFFFFFFFFF AND MUL OR SWAP1 SSTORE POP PUSH1 0x1 PUSH1 0x3 PUSH1 0x0 PUSH2 0x100 EXP DUP2 SLOAD DUP2 PUSH1 0xFF MUL NOT AND SWAP1 DUP4 PUSH1 0x3 DUP2 GT ISZERO PUSH2 0x77 JUMPI PUSH2 0x76 PUSH2 0xB4 JUMP JUMPDEST JUMPDEST MUL OR SWAP1 SSTORE POP NUMBER PUSH1 0x1 DUP2 SWAP1 SSTORE POP PUSH1 0xF0 PUSH1 0x1 SLOAD PUSH2 0x92 SWAP2 SWAP1 PUSH2 0x11C JUMP JUMPDEST PUSH1 0x2 DUP2 SWAP1 SSTORE POP PUSH8 0xDE0B6B3A7640000 PUSH1 0x5 DUP2 SWAP1 SSTORE POP PUSH1 0x0 PUSH1 0x6 DUP2 SWAP1 SSTORE POP PUSH2 0x172 JUMP JUMPDEST PUSH32 0x4E487B7100000000000000000000000000000000000000000000000000000000 PUSH1 0x0 MSTORE PUSH1 0x21 PUSH1 0x4 MSTORE PUSH1 0x24 PUSH1 0x0 REVERT JUMPDEST PUSH1 0x0 DUP2 SWAP1 POP SWAP2 SWAP1 POP JUMP JUMPDEST PUSH32 0x4E487B7100000000000000000000000000000000000000000000000000000000 PUSH1 0x0 MSTORE PUSH1 0x11 PUSH1 0x4 MSTORE PUSH1 0x24 PUSH1 0x0 REVERT JUMPDEST PUSH1 0x0 PUSH2 0x127 DUP3 PUSH2 0xE3 JUMP JUMPDEST SWAP2 POP PUSH2 0x132 DUP4 PUSH2 0xE3 JUMP JUMPDEST SWAP3 POP DUP3 PUSH32 0xFFFFFFFFFFFFFFFFFFFFFFFFFFFFFFFFFFFFFFFFFFFFFFFFFFFFFFFFFFFFFFFF SUB DUP3 GT ISZERO PUSH2 0x167 JUMPI PUSH2 0x166 PUSH2 0xED JUMP JUMPDEST JUMPDEST DUP3 DUP3 ADD SWAP1 POP SWAP3 SWAP2 POP POP JUMP JUMPDEST PUSH2 0xF7F DUP1 PUSH2 0x181 PUSH1 0x0 CODECOPY PUSH1 0x0 RETURN INVALID PUSH1 0x80 PUSH1 0x40 MSTORE PUSH1 0x4 CALLDATASIZE LT PUSH2 0xA7 JUMPI PUSH1 0x0 CALLDATALOAD PUSH1 0xE0 SHR DUP1 PUSH4 0x7FB45099 GT PUSH2 0x64 JUMPI DUP1 PUSH4 0x7FB45099 EQ PUSH2 0x18B JUMPI DUP1 PUSH4 0x91F90157 EQ PUSH2 0x1B6 JUMPI DUP1 PUSH4 0x9D957D45 EQ PUSH2 0x1E1 JUMPI DUP1 PUSH4 0xA118BE02 EQ PUSH2 0x20C JUMPI DUP1 PUSH4 0xCE5BD041 EQ PUSH2 0x237 JUMPI DUP1 PUSH4 0xE07600BD EQ PUSH2 0x262 JUMPI PUSH2 0xA7 JUMP JUMPDEST DUP1 PUSH4 0x1998AEEF EQ PUSH2 0xAC JUMPI DUP1 PUSH4 0x2352F320 EQ PUSH2 0xCA JUMPI DUP1 PUSH4 0x3FDCEEFD EQ PUSH2 0xE1 JUMPI DUP1 PUSH4 0x5EC2C7BF EQ PUSH2 0xF8 JUMPI DUP1 PUSH4 0x62EA82DB EQ PUSH2 0x123 JUMPI DUP1 PUSH4 0x7EB695A1 EQ PUSH2 0x160 JUMPI JUMPDEST PUSH1 0x0 DUP1 REVERT JUMPDEST PUSH2 0xB4 PUSH2 0x279 JUMP JUMPDEST PUSH1 0x40 MLOAD PUSH2 0xC1 SWAP2 SWAP1 PUSH2 0xC1D JUMP JUMPDEST PUSH1 0x40 MLOAD DUP1 SWAP2 SUB SWAP1 RETURN JUMPDEST CALLVALUE DUP1 ISZERO PUSH2 0xD6 JUMPI PUSH1 0x0 DUP1 REVERT JUMPDEST POP PUSH2 0xDF PUSH2 0x5EA JUMP JUMPDEST STOP JUMPDEST CALLVALUE DUP1 ISZERO PUSH2 0xED JUMPI PUSH1 0x0 DUP1 REVERT JUMPDEST POP PUSH2 0xF6 PUSH2 0x6A4 JUMP JUMPDEST STOP JUMPDEST CALLVALUE DUP1 ISZERO PUSH2 0x104 JUMPI PUSH1 0x0 DUP1 REVERT JUMPDEST POP PUSH2 0x10D PUSH2 0x75F JUMP JUMPDEST PUSH1 0x40 MLOAD PUSH2 0x11A SWAP2 SWAP1 PUSH2 0xC79 JUMP JUMPDEST PUSH1 0x40 MLOAD DUP1 SWAP2 SUB SWAP1 RETURN JUMPDEST CALLVALUE DUP1 ISZERO PUSH2 0x12F JUMPI PUSH1 0x0 DUP1 REVERT JUMPDEST POP PUSH2 0x14A PUSH1 0x4 DUP1 CALLDATASIZE SUB DUP2 ADD SWAP1 PUSH2 0x145 SWAP2 SWAP1 PUSH2 0xCD7 JUMP JUMPDEST PUSH2 0x783 JUMP JUMPDEST PUSH1 0x40 MLOAD PUSH2 0x157 SWAP2 SWAP1 PUSH2 0xD1D JUMP JUMPDEST PUSH1 0x40 MLOAD DUP1 SWAP2 SUB SWAP1 RETURN JUMPDEST CALLVALUE DUP1 ISZERO PUSH2 0x16C JUMPI PUSH1 0x0 DUP1 REVERT JUMPDEST POP PUSH2 0x175 PUSH2 0x79B JUMP JUMPDEST PUSH1 0x40 MLOAD PUSH2 0x182 SWAP2 SWAP1 PUSH2 0xD1D JUMP JUMPDEST PUSH1 0x40 MLOAD DUP1 SWAP2 SUB SWAP1 RETURN JUMPDEST CALLVALUE DUP1 ISZERO PUSH2 0x197 JUMPI PUSH1 0x0 DUP1 REVERT JUMPDEST POP PUSH2 0x1A0 PUSH2 0x7A1 JUMP JUMPDEST PUSH1 0x40 MLOAD PUSH2 0x1AD SWAP2 SWAP1 PUSH2 0xDAF JUMP JUMPDEST PUSH1 0x40 MLOAD DUP1 SWAP2 SUB SWAP1 RETURN JUMPDEST CALLVALUE DUP1 ISZERO PUSH2 0x1C2 JUMPI PUSH1 0x0 DUP1 REVERT JUMPDEST POP PUSH2 0x1CB PUSH2 0x7B4 JUMP JUMPDEST PUSH1 0x40 MLOAD PUSH2 0x1D8 SWAP2 SWAP1 PUSH2 0xC79 JUMP JUMPDEST PUSH1 0x40 MLOAD DUP1 SWAP2 SUB SWAP1 RETURN JUMPDEST CALLVALUE DUP1 ISZERO PUSH2 0x1ED JUMPI PUSH1 0x0 DUP1 REVERT JUMPDEST POP PUSH2 0x1F6 PUSH2 0x7DA JUMP JUMPDEST PUSH1 0x40 MLOAD PUSH2 0x203 SWAP2 SWAP1 PUSH2 0xD1D JUMP JUMPDEST PUSH1 0x40 MLOAD DUP1 SWAP2 SUB SWAP1 RETURN JUMPDEST CALLVALUE DUP1 ISZERO PUSH2 0x218 JUMPI PUSH1 0x0 DUP1 REVERT JUMPDEST POP PUSH2 0x221 PUSH2 0x7E0 JUMP JUMPDEST PUSH1 0x40 MLOAD PUSH2 0x22E SWAP2 SWAP1 PUSH2 0xD1D JUMP JUMPDEST PUSH1 0x40 MLOAD DUP1 SWAP2 SUB SWAP1 RETURN JUMPDEST CALLVALUE DUP1 ISZERO PUSH2 0x243 JUMPI PUSH1 0x0 DUP1 REVERT JUMPDEST POP PUSH2 0x24C PUSH2 0x7E6 JUMP JUMPDEST PUSH1 0x40 MLOAD PUSH2 0x259 SWAP2 SWAP1 PUSH2 0xD1D JUMP JUMPDEST PUSH1 0x40 MLOAD DUP1 SWAP2 SUB SWAP1 RETURN JUMPDEST CALLVALUE DUP1 ISZERO PUSH2 0x26E JUMPI PUSH1 0x0 DUP1 REVERT JUMPDEST POP PUSH2 0x277 PUSH2 0x7EC JUMP JUMPDEST STOP JUMPDEST PUSH1 0x0 DUP1 PUSH1 0x0 SWAP1 SLOAD SWAP1 PUSH2 0x100 EXP SWAP1 DIV PUSH20 0xFFFFFFFFFFFFFFFFFFFFFFFFFFFFFFFFFFFFFFFF AND PUSH20 0xFFFFFFFFFFFFFFFFFFFFFFFFFFFFFFFFFFFFFFFF AND CALLER PUSH20 0xFFFFFFFFFFFFFFFFFFFFFFFFFFFFFFFFFFFFFFFF AND EQ ISZERO PUSH2 0x30B JUMPI PUSH1 0x40 MLOAD PUSH32 0x8C379A000000000000000000000000000000000000000000000000000000000 DUP2 MSTORE PUSH1 0x4 ADD PUSH2 0x302 SWAP1 PUSH2 0xE27 JUMP JUMPDEST PUSH1 0x40 MLOAD DUP1 SWAP2 SUB SWAP1 REVERT JUMPDEST PUSH1 0x1 SLOAD NUMBER GT PUSH2 0x319 JUMPI PUSH1 0x0 DUP1 REVERT JUMPDEST PUSH1 0x2 SLOAD NUMBER LT PUSH2 0x327 JUMPI PUSH1 0x0 DUP1 REVERT JUMPDEST PUSH1 0x1 PUSH1 0x3 DUP2 GT ISZERO PUSH2 0x33B JUMPI PUSH2 0x33A PUSH2 0xD38 JUMP JUMPDEST JUMPDEST PUSH1 0x3 PUSH1 0x0 SWAP1 SLOAD SWAP1 PUSH2 0x100 EXP SWAP1 DIV PUSH1 0xFF AND PUSH1 0x3 DUP2 GT ISZERO PUSH2 0x35D JUMPI PUSH2 0x35C PUSH2 0xD38 JUMP JUMPDEST JUMPDEST EQ PUSH2 0x367 JUMPI PUSH1 0x0 DUP1 REVERT JUMPDEST PUSH8 0xDE0B6B3A7640000 CALLVALUE LT ISZERO PUSH2 0x37C JUMPI PUSH1 0x0 DUP1 REVERT JUMPDEST PUSH1 0x0 CALLVALUE PUSH1 0x8 PUSH1 0x0 CALLER PUSH20 0xFFFFFFFFFFFFFFFFFFFFFFFFFFFFFFFFFFFFFFFF AND PUSH20 0xFFFFFFFFFFFFFFFFFFFFFFFFFFFFFFFFFFFFFFFF AND DUP2 MSTORE PUSH1 0x20 ADD SWAP1 DUP2 MSTORE PUSH1 0x20 ADD PUSH1 0x0 KECCAK256 SLOAD PUSH2 0x3C9 SWAP2 SWAP1 PUSH2 0xE76 JUMP JUMPDEST SWAP1 POP PUSH1 0x4 SLOAD DUP2 GT PUSH2 0x3D9 JUMPI PUSH1 0x0 DUP1 REVERT JUMPDEST DUP1 PUSH1 0x8 PUSH1 0x0 CALLER PUSH20 0xFFFFFFFFFFFFFFFFFFFFFFFFFFFFFFFFFFFFFFFF AND PUSH20 0xFFFFFFFFFFFFFFFFFFFFFFFFFFFFFFFFFFFFFFFF AND DUP2 MSTORE PUSH1 0x20 ADD SWAP1 DUP2 MSTORE PUSH1 0x20 ADD PUSH1 0x0 KECCAK256 DUP2 SWAP1 SSTORE POP PUSH1 0x8 PUSH1 0x0 PUSH1 0x7 PUSH1 0x0 SWAP1 SLOAD SWAP1 PUSH2 0x100 EXP SWAP1 DIV PUSH20 0xFFFFFFFFFFFFFFFFFFFFFFFFFFFFFFFFFFFFFFFF AND PUSH20 0xFFFFFFFFFFFFFFFFFFFFFFFFFFFFFFFFFFFFFFFF AND PUSH20 0xFFFFFFFFFFFFFFFFFFFFFFFFFFFFFFFFFFFFFFFF AND DUP2 MSTORE PUSH1 0x20 ADD SWAP1 DUP2 MSTORE PUSH1 0x20 ADD PUSH1 0x0 KECCAK256 SLOAD DUP2 LT ISZERO PUSH2 0x509 JUMPI PUSH2 0x4FE PUSH1 0x5 SLOAD DUP3 PUSH2 0x497 SWAP2 SWAP1 PUSH2 0xE76 JUMP JUMPDEST PUSH1 0x8 PUSH1 0x0 PUSH1 0x7 PUSH1 0x0 SWAP1 SLOAD SWAP1 PUSH2 0x100 EXP SWAP1 DIV PUSH20 0xFFFFFFFFFFFFFFFFFFFFFFFFFFFFFFFFFFFFFFFF AND PUSH20 0xFFFFFFFFFFFFFFFFFFFFFFFFFFFFFFFFFFFFFFFF AND PUSH20 0xFFFFFFFFFFFFFFFFFFFFFFFFFFFFFFFFFFFFFFFF AND DUP2 MSTORE PUSH1 0x20 ADD SWAP1 DUP2 MSTORE PUSH1 0x20 ADD PUSH1 0x0 KECCAK256 SLOAD PUSH2 0xBE9 JUMP JUMPDEST PUSH1 0x4 DUP2 SWAP1 SSTORE POP PUSH2 0x5C9 JUMP JUMPDEST PUSH2 0x581 DUP2 PUSH1 0x5 SLOAD PUSH1 0x8 PUSH1 0x0 PUSH1 0x7 PUSH1 0x0 SWAP1 SLOAD SWAP1 PUSH2 0x100 EXP SWAP1 DIV PUSH20 0xFFFFFFFFFFFFFFFFFFFFFFFFFFFFFFFFFFFFFFFF AND PUSH20 0xFFFFFFFFFFFFFFFFFFFFFFFFFFFFFFFFFFFFFFFF AND PUSH20 0xFFFFFFFFFFFFFFFFFFFFFFFFFFFFFFFFFFFFFFFF AND DUP2 MSTORE PUSH1 0x20 ADD SWAP1 DUP2 MSTORE PUSH1 0x20 ADD PUSH1 0x0 KECCAK256 SLOAD PUSH2 0x57C SWAP2 SWAP1 PUSH2 0xE76 JUMP JUMPDEST PUSH2 0xBE9 JUMP JUMPDEST PUSH1 0x4 DUP2 SWAP1 SSTORE POP CALLER PUSH1 0x7 PUSH1 0x0 PUSH2 0x100 EXP DUP2 SLOAD DUP2 PUSH20 0xFFFFFFFFFFFFFFFFFFFFFFFFFFFFFFFFFFFFFFFF MUL NOT AND SWAP1 DUP4 PUSH20 0xFFFFFFFFFFFFFFFFFFFFFFFFFFFFFFFFFFFFFFFF AND MUL OR SWAP1 SSTORE POP JUMPDEST PUSH1 0x6 PUSH1 0x0 DUP2 SLOAD DUP1 SWAP3 SWAP2 SWAP1 PUSH2 0x5DC SWAP1 PUSH2 0xECC JUMP JUMPDEST SWAP2 SWAP1 POP SSTORE POP PUSH1 0x6 SLOAD SWAP2 POP POP SWAP1 JUMP JUMPDEST PUSH1 0x0 DUP1 SLOAD SWAP1 PUSH2 0x100 EXP SWAP1 DIV PUSH20 0xFFFFFFFFFFFFFFFFFFFFFFFFFFFFFFFFFFFFFFFF AND PUSH20 0xFFFFFFFFFFFFFFFFFFFFFFFFFFFFFFFFFFFFFFFF AND CALLER PUSH20 0xFFFFFFFFFFFFFFFFFFFFFFFFFFFFFFFFFFFFFFFF AND EQ PUSH2 0x678 JUMPI PUSH1 0x40 MLOAD PUSH32 0x8C379A000000000000000000000000000000000000000000000000000000000 DUP2 MSTORE PUSH1 0x4 ADD PUSH2 0x66F SWAP1 PUSH2 0xE27 JUMP JUMPDEST PUSH1 0x40 MLOAD DUP1 SWAP2 SUB SWAP1 REVERT JUMPDEST PUSH1 0x3 DUP1 PUSH1 0x0 PUSH2 0x100 EXP DUP2 SLOAD DUP2 PUSH1 0xFF MUL NOT AND SWAP1 DUP4 PUSH1 0x3 DUP2 GT ISZERO PUSH2 0x69D JUMPI PUSH2 0x69C PUSH2 0xD38 JUMP JUMPDEST JUMPDEST MUL OR SWAP1 SSTORE POP JUMP JUMPDEST PUSH1 0x0 DUP1 SLOAD SWAP1 PUSH2 0x100 EXP SWAP1 DIV PUSH20 0xFFFFFFFFFFFFFFFFFFFFFFFFFFFFFFFFFFFFFFFF AND PUSH20 0xFFFFFFFFFFFFFFFFFFFFFFFFFFFFFFFFFFFFFFFF AND CALLER PUSH20 0xFFFFFFFFFFFFFFFFFFFFFFFFFFFFFFFFFFFFFFFF AND EQ PUSH2 0x732 JUMPI PUSH1 0x40 MLOAD PUSH32 0x8C379A000000000000000000000000000000000000000000000000000000000 DUP2 MSTORE PUSH1 0x4 ADD PUSH2 0x729 SWAP1 PUSH2 0xE27 JUMP JUMPDEST PUSH1 0x40 MLOAD DUP1 SWAP2 SUB SWAP1 REVERT JUMPDEST PUSH1 0x2 PUSH1 0x3 PUSH1 0x0 PUSH2 0x100 EXP DUP2 SLOAD DUP2 PUSH1 0xFF MUL NOT AND SWAP1 DUP4 PUSH1 0x3 DUP2 GT ISZERO PUSH2 0x758 JUMPI PUSH2 0x757 PUSH2 0xD38 JUMP JUMPDEST JUMPDEST MUL OR SWAP1 SSTORE POP JUMP JUMPDEST PUSH1 0x0 DUP1 SLOAD SWAP1 PUSH2 0x100 EXP SWAP1 DIV PUSH20 0xFFFFFFFFFFFFFFFFFFFFFFFFFFFFFFFFFFFFFFFF AND DUP2 JUMP JUMPDEST PUSH1 0x8 PUSH1 0x20 MSTORE DUP1 PUSH1 0x0 MSTORE PUSH1 0x40 PUSH1 0x0 KECCAK256 PUSH1 0x0 SWAP2 POP SWAP1 POP SLOAD DUP2 JUMP JUMPDEST PUSH1 0x4 SLOAD DUP2 JUMP JUMPDEST PUSH1 0x3 PUSH1 0x0 SWAP1 SLOAD SWAP1 PUSH2 0x100 EXP SWAP1 DIV PUSH1 0xFF AND DUP2 JUMP JUMPDEST PUSH1 0x7 PUSH1 0x0 SWAP1 SLOAD SWAP1 PUSH2 0x100 EXP SWAP1 DIV PUSH20 0xFFFFFFFFFFFFFFFFFFFFFFFFFFFFFFFFFFFFFFFF AND DUP2 JUMP JUMPDEST PUSH1 0x2 SLOAD DUP2 JUMP JUMPDEST PUSH1 0x1 SLOAD DUP2 JUMP JUMPDEST PUSH1 0x5 SLOAD DUP2 JUMP JUMPDEST PUSH1 0x3 DUP1 DUP2 GT ISZERO PUSH2 0x7FF JUMPI PUSH2 0x7FE PUSH2 0xD38 JUMP JUMPDEST JUMPDEST PUSH1 0x3 PUSH1 0x0 SWAP1 SLOAD SWAP1 PUSH2 0x100 EXP SWAP1 DIV PUSH1 0xFF AND PUSH1 0x3 DUP2 GT ISZERO PUSH2 0x821 JUMPI PUSH2 0x820 PUSH2 0xD38 JUMP JUMPDEST JUMPDEST EQ DUP1 PUSH2 0x860 JUMPI POP PUSH1 0x2 PUSH1 0x3 DUP2 GT ISZERO PUSH2 0x83C JUMPI PUSH2 0x83B PUSH2 0xD38 JUMP JUMPDEST JUMPDEST PUSH1 0x3 PUSH1 0x0 SWAP1 SLOAD SWAP1 PUSH2 0x100 EXP SWAP1 DIV PUSH1 0xFF AND PUSH1 0x3 DUP2 GT ISZERO PUSH2 0x85E JUMPI PUSH2 0x85D PUSH2 0xD38 JUMP JUMPDEST JUMPDEST EQ JUMPDEST DUP1 PUSH2 0x86C JUMPI POP PUSH1 0x2 SLOAD NUMBER GT JUMPDEST PUSH2 0x875 JUMPI PUSH1 0x0 DUP1 REVERT JUMPDEST PUSH1 0x0 DUP1 SLOAD SWAP1 PUSH2 0x100 EXP SWAP1 DIV PUSH20 0xFFFFFFFFFFFFFFFFFFFFFFFFFFFFFFFFFFFFFFFF AND PUSH20 0xFFFFFFFFFFFFFFFFFFFFFFFFFFFFFFFFFFFFFFFF AND CALLER PUSH20 0xFFFFFFFFFFFFFFFFFFFFFFFFFFFFFFFFFFFFFFFF AND EQ DUP1 PUSH2 0x90E JUMPI POP PUSH1 0x0 PUSH1 0x8 PUSH1 0x0 CALLER PUSH20 0xFFFFFFFFFFFFFFFFFFFFFFFFFFFFFFFFFFFFFFFF AND PUSH20 0xFFFFFFFFFFFFFFFFFFFFFFFFFFFFFFFFFFFFFFFF AND DUP2 MSTORE PUSH1 0x20 ADD SWAP1 DUP2 MSTORE PUSH1 0x20 ADD PUSH1 0x0 KECCAK256 SLOAD GT JUMPDEST PUSH2 0x917 JUMPI PUSH1 0x0 DUP1 REVERT JUMPDEST PUSH1 0x0 DUP1 PUSH1 0x3 DUP1 DUP2 GT ISZERO PUSH2 0x92D JUMPI PUSH2 0x92C PUSH2 0xD38 JUMP JUMPDEST JUMPDEST PUSH1 0x3 PUSH1 0x0 SWAP1 SLOAD SWAP1 PUSH2 0x100 EXP SWAP1 DIV PUSH1 0xFF AND PUSH1 0x3 DUP2 GT ISZERO PUSH2 0x94F JUMPI PUSH2 0x94E PUSH2 0xD38 JUMP JUMPDEST JUMPDEST EQ ISZERO PUSH2 0x99F JUMPI CALLER SWAP2 POP PUSH1 0x8 PUSH1 0x0 CALLER PUSH20 0xFFFFFFFFFFFFFFFFFFFFFFFFFFFFFFFFFFFFFFFF AND PUSH20 0xFFFFFFFFFFFFFFFFFFFFFFFFFFFFFFFFFFFFFFFF AND DUP2 MSTORE PUSH1 0x20 ADD SWAP1 DUP2 MSTORE PUSH1 0x20 ADD PUSH1 0x0 KECCAK256 SLOAD SWAP1 POP PUSH2 0xB59 JUMP JUMPDEST PUSH1 0x0 DUP1 SLOAD SWAP1 PUSH2 0x100 EXP SWAP1 DIV PUSH20 0xFFFFFFFFFFFFFFFFFFFFFFFFFFFFFFFFFFFFFFFF AND PUSH20 0xFFFFFFFFFFFFFFFFFFFFFFFFFFFFFFFFFFFFFFFF AND CALLER PUSH20 0xFFFFFFFFFFFFFFFFFFFFFFFFFFFFFFFFFFFFFFFF AND EQ ISZERO PUSH2 0xA20 JUMPI PUSH1 0x0 DUP1 SLOAD SWAP1 PUSH2 0x100 EXP SWAP1 DIV PUSH20 0xFFFFFFFFFFFFFFFFFFFFFFFFFFFFFFFFFFFFFFFF AND SWAP2 POP PUSH1 0x4 SLOAD SWAP1 POP PUSH2 0xB58 JUMP JUMPDEST PUSH1 0x7 PUSH1 0x0 SWAP1 SLOAD SWAP1 PUSH2 0x100 EXP SWAP1 DIV PUSH20 0xFFFFFFFFFFFFFFFFFFFFFFFFFFFFFFFFFFFFFFFF AND PUSH20 0xFFFFFFFFFFFFFFFFFFFFFFFFFFFFFFFFFFFFFFFF AND CALLER PUSH20 0xFFFFFFFFFFFFFFFFFFFFFFFFFFFFFFFFFFFFFFFF AND EQ ISZERO PUSH2 0xB11 JUMPI PUSH1 0x7 PUSH1 0x0 SWAP1 SLOAD SWAP1 PUSH2 0x100 EXP SWAP1 DIV PUSH20 0xFFFFFFFFFFFFFFFFFFFFFFFFFFFFFFFFFFFFFFFF AND SWAP2 POP PUSH1 0x4 SLOAD PUSH1 0x8 PUSH1 0x0 PUSH1 0x7 PUSH1 0x0 SWAP1 SLOAD SWAP1 PUSH2 0x100 EXP SWAP1 DIV PUSH20 0xFFFFFFFFFFFFFFFFFFFFFFFFFFFFFFFFFFFFFFFF AND PUSH20 0xFFFFFFFFFFFFFFFFFFFFFFFFFFFFFFFFFFFFFFFF AND PUSH20 0xFFFFFFFFFFFFFFFFFFFFFFFFFFFFFFFFFFFFFFFF AND DUP2 MSTORE PUSH1 0x20 ADD SWAP1 DUP2 MSTORE PUSH1 0x20 ADD PUSH1 0x0 KECCAK256 SLOAD PUSH2 0xB0A SWAP2 SWAP1 PUSH2 0xF15 JUMP JUMPDEST SWAP1 POP PUSH2 0xB57 JUMP JUMPDEST CALLER SWAP2 POP PUSH1 0x8 PUSH1 0x0 CALLER PUSH20 0xFFFFFFFFFFFFFFFFFFFFFFFFFFFFFFFFFFFFFFFF AND PUSH20 0xFFFFFFFFFFFFFFFFFFFFFFFFFFFFFFFFFFFFFFFF AND DUP2 MSTORE PUSH1 0x20 ADD SWAP1 DUP2 MSTORE PUSH1 0x20 ADD PUSH1 0x0 KECCAK256 SLOAD SWAP1 POP JUMPDEST JUMPDEST JUMPDEST PUSH1 0x0 PUSH1 0x8 PUSH1 0x0 CALLER PUSH20 0xFFFFFFFFFFFFFFFFFFFFFFFFFFFFFFFFFFFFFFFF AND PUSH20 0xFFFFFFFFFFFFFFFFFFFFFFFFFFFFFFFFFFFFFFFF AND DUP2 MSTORE PUSH1 0x20 ADD SWAP1 DUP2 MSTORE PUSH1 0x20 ADD PUSH1 0x0 KECCAK256 DUP2 SWAP1 SSTORE POP DUP2 PUSH20 0xFFFFFFFFFFFFFFFFFFFFFFFFFFFFFFFFFFFFFFFF AND PUSH2 0x8FC DUP3 SWAP1 DUP2 ISZERO MUL SWAP1 PUSH1 0x40 MLOAD PUSH1 0x0 PUSH1 0x40 MLOAD DUP1 DUP4 SUB DUP2 DUP6 DUP9 DUP9 CALL SWAP4 POP POP POP POP ISZERO DUP1 ISZERO PUSH2 0xBE4 JUMPI RETURNDATASIZE PUSH1 0x0 DUP1 RETURNDATACOPY RETURNDATASIZE PUSH1 0x0 REVERT JUMPDEST POP POP POP JUMP JUMPDEST PUSH1 0x0 DUP2 DUP4 GT PUSH2 0xBFA JUMPI DUP3 SWAP1 POP PUSH2 0xBFE JUMP JUMPDEST DUP2 SWAP1 POP JUMPDEST SWAP3 SWAP2 POP POP JUMP JUMPDEST PUSH1 0x0 DUP2 SWAP1 POP SWAP2 SWAP1 POP JUMP JUMPDEST PUSH2 0xC17 DUP2 PUSH2 0xC04 JUMP JUMPDEST DUP3 MSTORE POP POP JUMP JUMPDEST PUSH1 0x0 PUSH1 0x20 DUP3 ADD SWAP1 POP PUSH2 0xC32 PUSH1 0x0 DUP4 ADD DUP5 PUSH2 0xC0E JUMP JUMPDEST SWAP3 SWAP2 POP POP JUMP JUMPDEST PUSH1 0x0 PUSH20 0xFFFFFFFFFFFFFFFFFFFFFFFFFFFFFFFFFFFFFFFF DUP3 AND SWAP1 POP SWAP2 SWAP1 POP JUMP JUMPDEST PUSH1 0x0 PUSH2 0xC63 DUP3 PUSH2 0xC38 JUMP JUMPDEST SWAP1 POP SWAP2 SWAP1 POP JUMP JUMPDEST PUSH2 0xC73 DUP2 PUSH2 0xC58 JUMP JUMPDEST DUP3 MSTORE POP POP JUMP JUMPDEST PUSH1 0x0 PUSH1 0x20 DUP3 ADD SWAP1 POP PUSH2 0xC8E PUSH1 0x0 DUP4 ADD DUP5 PUSH2 0xC6A JUMP JUMPDEST SWAP3 SWAP2 POP POP JUMP JUMPDEST PUSH1 0x0 DUP1 REVERT JUMPDEST PUSH1 0x0 PUSH2 0xCA4 DUP3 PUSH2 0xC38 JUMP JUMPDEST SWAP1 POP SWAP2 SWAP1 POP JUMP JUMPDEST PUSH2 0xCB4 DUP2 PUSH2 0xC99 JUMP JUMPDEST DUP2 EQ PUSH2 0xCBF JUMPI PUSH1 0x0 DUP1 REVERT JUMPDEST POP JUMP JUMPDEST PUSH1 0x0 DUP2 CALLDATALOAD SWAP1 POP PUSH2 0xCD1 DUP2 PUSH2 0xCAB JUMP JUMPDEST SWAP3 SWAP2 POP POP JUMP JUMPDEST PUSH1 0x0 PUSH1 0x20 DUP3 DUP5 SUB SLT ISZERO PUSH2 0xCED JUMPI PUSH2 0xCEC PUSH2 0xC94 JUMP JUMPDEST JUMPDEST PUSH1 0x0 PUSH2 0xCFB DUP5 DUP3 DUP6 ADD PUSH2 0xCC2 JUMP JUMPDEST SWAP2 POP POP SWAP3 SWAP2 POP POP JUMP JUMPDEST PUSH1 0x0 DUP2 SWAP1 POP SWAP2 SWAP1 POP JUMP JUMPDEST PUSH2 0xD17 DUP2 PUSH2 0xD04 JUMP JUMPDEST DUP3 MSTORE POP POP JUMP JUMPDEST PUSH1 0x0 PUSH1 0x20 DUP3 ADD SWAP1 POP PUSH2 0xD32 PUSH1 0x0 DUP4 ADD DUP5 PUSH2 0xD0E JUMP JUMPDEST SWAP3 SWAP2 POP POP JUMP JUMPDEST PUSH32 0x4E487B7100000000000000000000000000000000000000000000000000000000 PUSH1 0x0 MSTORE PUSH1 0x21 PUSH1 0x4 MSTORE PUSH1 0x24 PUSH1 0x0 REVERT JUMPDEST PUSH1 0x4 DUP2 LT PUSH2 0xD78 JUMPI PUSH2 0xD77 PUSH2 0xD38 JUMP JUMPDEST JUMPDEST POP JUMP JUMPDEST PUSH1 0x0 DUP2 SWAP1 POP PUSH2 0xD89 DUP3 PUSH2 0xD67 JUMP JUMPDEST SWAP2 SWAP1 POP JUMP JUMPDEST PUSH1 0x0 PUSH2 0xD99 DUP3 PUSH2 0xD7B JUMP JUMPDEST SWAP1 POP SWAP2 SWAP1 POP JUMP JUMPDEST PUSH2 0xDA9 DUP2 PUSH2 0xD8E JUMP JUMPDEST DUP3 MSTORE POP POP JUMP JUMPDEST PUSH1 0x0 PUSH1 0x20 DUP3 ADD SWAP1 POP PUSH2 0xDC4 PUSH1 0x0 DUP4 ADD DUP5 PUSH2 0xDA0 JUMP JUMPDEST SWAP3 SWAP2 POP POP JUMP JUMPDEST PUSH1 0x0 DUP3 DUP3 MSTORE PUSH1 0x20 DUP3 ADD SWAP1 POP SWAP3 SWAP2 POP POP JUMP JUMPDEST PUSH32 0x4F776E65722063616E6E6F742062696400000000000000000000000000000000 PUSH1 0x0 DUP3 ADD MSTORE POP JUMP JUMPDEST PUSH1 0x0 PUSH2 0xE11 PUSH1 0x10 DUP4 PUSH2 0xDCA JUMP JUMPDEST SWAP2 POP PUSH2 0xE1C DUP3 PUSH2 0xDDB JUMP JUMPDEST PUSH1 0x20 DUP3 ADD SWAP1 POP SWAP2 SWAP1 POP JUMP JUMPDEST PUSH1 0x0 PUSH1 0x20 DUP3 ADD SWAP1 POP DUP2 DUP2 SUB PUSH1 0x0 DUP4 ADD MSTORE PUSH2 0xE40 DUP2 PUSH2 0xE04 JUMP JUMPDEST SWAP1 POP SWAP2 SWAP1 POP JUMP JUMPDEST PUSH32 0x4E487B7100000000000000000000000000000000000000000000000000000000 PUSH1 0x0 MSTORE PUSH1 0x11 PUSH1 0x4 MSTORE PUSH1 0x24 PUSH1 0x0 REVERT JUMPDEST PUSH1 0x0 PUSH2 0xE81 DUP3 PUSH2 0xD04 JUMP JUMPDEST SWAP2 POP PUSH2 0xE8C DUP4 PUSH2 0xD04 JUMP JUMPDEST SWAP3 POP DUP3 PUSH32 0xFFFFFFFFFFFFFFFFFFFFFFFFFFFFFFFFFFFFFFFFFFFFFFFFFFFFFFFFFFFFFFFF SUB DUP3 GT ISZERO PUSH2 0xEC1 JUMPI PUSH2 0xEC0 PUSH2 0xE47 JUMP JUMPDEST JUMPDEST DUP3 DUP3 ADD SWAP1 POP SWAP3 SWAP2 POP POP JUMP JUMPDEST PUSH1 0x0 PUSH2 0xED7 DUP3 PUSH2 0xC04 JUMP JUMPDEST SWAP2 POP PUSH32 0x7FFFFFFFFFFFFFFFFFFFFFFFFFFFFFFFFFFFFFFFFFFFFFFFFFFFFFFFFFFFFFFF DUP3 EQ ISZERO PUSH2 0xF0A JUMPI PUSH2 0xF09 PUSH2 0xE47 JUMP JUMPDEST JUMPDEST PUSH1 0x1 DUP3 ADD SWAP1 POP SWAP2 SWAP1 POP JUMP JUMPDEST PUSH1 0x0 PUSH2 0xF20 DUP3 PUSH2 0xD04 JUMP JUMPDEST SWAP2 POP PUSH2 0xF2B DUP4 PUSH2 0xD04 JUMP JUMPDEST SWAP3 POP DUP3 DUP3 LT ISZERO PUSH2 0xF3E JUMPI PUSH2 0xF3D PUSH2 0xE47 JUMP JUMPDEST JUMPDEST DUP3 DUP3 SUB SWAP1 POP SWAP3 SWAP2 POP POP JUMP INVALID LOG2 PUSH5 0x6970667358 0x22 SLT KECCAK256 PUSH15 0xBEF0833F104C20BDB4B59C601AB7B3 PUSH11 0xAA42956B0F8787212ACF4B SSTORE 0x2D MOD 0xDA PUSH5 0x736F6C6343 STOP ADDMOD SIGNEXTEND STOP CALLER "
				},
				"gasEstimates": {
					"creation": {
						"codeDepositCost": "793400",
						"executionCost": "infinite",
						"totalCost": "infinite"
					},
					"external": {
						"auctionState()": "2560",
						"auctioneer()": "2578",
						"bid()": "infinite",
						"bid_Increment()": "2517",
						"bids(address)": "2903",
						"cancelAuc()": "26621",
						"endAuc()": "26643",
						"etblock()": "2473",
						"finalizeAuc()": "infinite",
						"highestBidder()": "2536",
						"highest_payable_bid()": "2540",
						"stblock()": "2495"
					},
					"internal": {
						"min(uint256,uint256)": "64"
					}
				},
				"methodIdentifiers": {
					"auctionState()": "7fb45099",
					"auctioneer()": "5ec2c7bf",
					"bid()": "1998aeef",
					"bid_Increment()": "ce5bd041",
					"bids(address)": "62ea82db",
					"cancelAuc()": "2352f320",
					"endAuc()": "3fdceefd",
					"etblock()": "9d957d45",
					"finalizeAuc()": "e07600bd",
					"highestBidder()": "91f90157",
					"highest_payable_bid()": "7eb695a1",
					"stblock()": "a118be02"
				}
			},
			"storageLayout": {
				"storage": [
					{
						"astId": 83,
						"contract": "contracts/auction.sol:Auction",
						"label": "auctioneer",
						"offset": 0,
						"slot": "0",
						"type": "t_address_payable"
					},
					{
						"astId": 85,
						"contract": "contracts/auction.sol:Auction",
						"label": "stblock",
						"offset": 0,
						"slot": "1",
						"type": "t_uint256"
					},
					{
						"astId": 87,
						"contract": "contracts/auction.sol:Auction",
						"label": "etblock",
						"offset": 0,
						"slot": "2",
						"type": "t_uint256"
					},
					{
						"astId": 95,
						"contract": "contracts/auction.sol:Auction",
						"label": "auctionState",
						"offset": 0,
						"slot": "3",
						"type": "t_enum(Auction_State)92"
					},
					{
						"astId": 97,
						"contract": "contracts/auction.sol:Auction",
						"label": "highest_payable_bid",
						"offset": 0,
						"slot": "4",
						"type": "t_uint256"
					},
					{
						"astId": 99,
						"contract": "contracts/auction.sol:Auction",
						"label": "bid_Increment",
						"offset": 0,
						"slot": "5",
						"type": "t_uint256"
					},
					{
						"astId": 101,
						"contract": "contracts/auction.sol:Auction",
						"label": "xp",
						"offset": 0,
						"slot": "6",
						"type": "t_int256"
					},
					{
						"astId": 103,
						"contract": "contracts/auction.sol:Auction",
						"label": "highestBidder",
						"offset": 0,
						"slot": "7",
						"type": "t_address_payable"
					},
					{
						"astId": 107,
						"contract": "contracts/auction.sol:Auction",
						"label": "bids",
						"offset": 0,
						"slot": "8",
						"type": "t_mapping(t_address,t_uint256)"
					}
				],
				"types": {
					"t_address": {
						"encoding": "inplace",
						"label": "address",
						"numberOfBytes": "20"
					},
					"t_address_payable": {
						"encoding": "inplace",
						"label": "address payable",
						"numberOfBytes": "20"
					},
					"t_enum(Auction_State)92": {
						"encoding": "inplace",
						"label": "enum Auction.Auction_State",
						"numberOfBytes": "1"
					},
					"t_int256": {
						"encoding": "inplace",
						"label": "int256",
						"numberOfBytes": "32"
					},
					"t_mapping(t_address,t_uint256)": {
						"encoding": "mapping",
						"key": "t_address",
						"label": "mapping(address => uint256)",
						"numberOfBytes": "32",
						"value": "t_uint256"
					},
					"t_uint256": {
						"encoding": "inplace",
						"label": "uint256",
						"numberOfBytes": "32"
					}
				}
			},
			"userdoc": {
				"kind": "user",
				"methods": {},
				"version": 1
			}
		}
	}
}