{
	"contracts/auction.sol": {
		"Auction": {
			"abi": [
				{
					"inputs": [],
					"stateMutability": "nonpayable",
					"type": "constructor"
				},
				{
					"inputs": [
						{
							"internalType": "int256",
							"name": "transactions",
							"type": "int256"
						}
					],
					"name": "Block",
					"outputs": [
						{
							"internalType": "bytes32",
							"name": "hashin",
							"type": "bytes32"
						},
						{
							"internalType": "bytes32",
							"name": "previousHash",
							"type": "bytes32"
						}
					],
					"stateMutability": "view",
					"type": "function"
				},
				{
					"inputs": [],
					"name": "auctionState",
					"outputs": [
						{
							"internalType": "enum Auction.Auction_State",
							"name": "",
							"type": "uint8"
						}
					],
					"stateMutability": "view",
					"type": "function"
				},
				{
					"inputs": [],
					"name": "auctioneer",
					"outputs": [
						{
							"internalType": "address payable",
							"name": "",
							"type": "address"
						}
					],
					"stateMutability": "view",
					"type": "function"
				},
				{
					"inputs": [],
					"name": "bid",
					"outputs": [],
					"stateMutability": "payable",
					"type": "function"
				},
				{
					"inputs": [],
					"name": "bid_Increment",
					"outputs": [
						{
							"internalType": "uint256",
							"name": "",
							"type": "uint256"
						}
					],
					"stateMutability": "view",
					"type": "function"
				},
				{
					"inputs": [
						{
							"internalType": "address",
							"name": "",
							"type": "address"
						}
					],
					"name": "bids",
					"outputs": [
						{
							"internalType": "uint256",
							"name": "",
							"type": "uint256"
						}
					],
					"stateMutability": "view",
					"type": "function"
				},
				{
					"inputs": [],
					"name": "cancelAuc",
					"outputs": [],
					"stateMutability": "nonpayable",
					"type": "function"
				},
				{
					"inputs": [],
					"name": "endAuc",
					"outputs": [],
					"stateMutability": "nonpayable",
					"type": "function"
				},
				{
					"inputs": [],
					"name": "etblock",
					"outputs": [
						{
							"internalType": "uint256",
							"name": "",
							"type": "uint256"
						}
					],
					"stateMutability": "view",
					"type": "function"
				},
				{
					"inputs": [],
					"name": "finalizeAuc",
					"outputs": [],
					"stateMutability": "nonpayable",
					"type": "function"
				},
				{
					"inputs": [
						{
							"internalType": "address",
							"name": "addr",
							"type": "address"
						}
					],
					"name": "getBalance",
					"outputs": [
						{
							"internalType": "uint256",
							"name": "",
							"type": "uint256"
						}
					],
					"stateMutability": "view",
					"type": "function"
				},
				{
					"inputs": [],
					"name": "highestBidder",
					"outputs": [
						{
							"internalType": "address payable",
							"name": "",
							"type": "address"
						}
					],
					"stateMutability": "view",
					"type": "function"
				},
				{
					"inputs": [],
					"name": "highest_payable_bid",
					"outputs": [
						{
							"internalType": "uint256",
							"name": "",
							"type": "uint256"
						}
					],
					"stateMutability": "view",
					"type": "function"
				},
				{
					"inputs": [],
					"name": "previousHash",
					"outputs": [
						{
							"internalType": "bytes32",
							"name": "",
							"type": "bytes32"
						}
					],
					"stateMutability": "view",
					"type": "function"
				},
				{
					"inputs": [],
					"name": "stblock",
					"outputs": [
						{
							"internalType": "uint256",
							"name": "",
							"type": "uint256"
						}
					],
					"stateMutability": "view",
					"type": "function"
				},
				{
					"inputs": [
						{
							"internalType": "address",
							"name": "",
							"type": "address"
						}
					],
					"name": "xp",
					"outputs": [
						{
							"internalType": "uint256",
							"name": "",
							"type": "uint256"
						}
					],
					"stateMutability": "view",
					"type": "function"
				}
			],
			"devdoc": {
				"kind": "dev",
				"methods": {},
				"version": 1
			},
			"evm": {
				"assembly": "    /* \"contracts/auction.sol\":62:3666  contract Auction{ ... */\n  mstore(0x40, 0x80)\n    /* \"contracts/auction.sol\":544:807  constructor(){... */\n  callvalue\n  dup1\n  iszero\n  tag_1\n  jumpi\n  0x00\n  dup1\n  revert\ntag_1:\n  pop\n    /* \"contracts/auction.sol\":589:599  msg.sender */\n  caller\n    /* \"contracts/auction.sol\":568:578  auctioneer */\n  0x00\n  dup1\n    /* \"contracts/auction.sol\":568:600  auctioneer = payable(msg.sender) */\n  0x0100\n  exp\n  dup2\n  sload\n  dup2\n  0xffffffffffffffffffffffffffffffffffffffff\n  mul\n  not\n  and\n  swap1\n  dup4\n  0xffffffffffffffffffffffffffffffffffffffff\n  and\n  mul\n  or\n  swap1\n  sstore\n  pop\n    /* \"contracts/auction.sol\":626:647  Auction_State.Running */\n  0x01\n    /* \"contracts/auction.sol\":611:623  auctionState */\n  0x04\n  0x00\n    /* \"contracts/auction.sol\":611:647  auctionState = Auction_State.Running */\n  0x0100\n  exp\n  dup2\n  sload\n  dup2\n  0xff\n  mul\n  not\n  and\n  swap1\n  dup4\n  0x03\n  dup2\n  gt\n  iszero\n  tag_4\n  jumpi\n  tag_5\n  tag_6\n  jump\t// in\ntag_5:\ntag_4:\n  mul\n  or\n  swap1\n  sstore\n  pop\n    /* \"contracts/auction.sol\":668:680  block.number */\n  number\n    /* \"contracts/auction.sol\":658:665  stblock */\n  0x01\n    /* \"contracts/auction.sol\":658:680  stblock = block.number */\n  dup2\n  swap1\n  sstore\n  pop\n    /* \"contracts/auction.sol\":711:714  240 */\n  0xf0\n    /* \"contracts/auction.sol\":701:708  stblock */\n  sload(0x01)\n    /* \"contracts/auction.sol\":701:714  stblock + 240 */\n  tag_7\n  swap2\n  swap1\n  tag_8\n  jump\t// in\ntag_7:\n    /* \"contracts/auction.sol\":691:698  etblock */\n  0x02\n    /* \"contracts/auction.sol\":691:714  etblock = stblock + 240 */\n  dup2\n  swap1\n  sstore\n  pop\n    /* \"contracts/auction.sol\":741:748  1 ether */\n  0x0de0b6b3a7640000\n    /* \"contracts/auction.sol\":725:738  bid_Increment */\n  0x06\n    /* \"contracts/auction.sol\":725:748  bid_Increment = 1 ether */\n  dup2\n  swap1\n  sstore\n  pop\n    /* \"contracts/auction.sol\":775:776  0 */\n  0x00\n    /* \"contracts/auction.sol\":759:761  xp */\n  0x08\n    /* \"contracts/auction.sol\":759:772  xp[tx.origin] */\n  0x00\n    /* \"contracts/auction.sol\":762:771  tx.origin */\n  origin\n    /* \"contracts/auction.sol\":759:772  xp[tx.origin] */\n  0xffffffffffffffffffffffffffffffffffffffff\n  and\n  0xffffffffffffffffffffffffffffffffffffffff\n  and\n  dup2\n  mstore\n  0x20\n  add\n  swap1\n  dup2\n  mstore\n  0x20\n  add\n  0x00\n  keccak256\n    /* \"contracts/auction.sol\":759:776  xp[tx.origin] = 0 */\n  dup2\n  swap1\n  sstore\n  pop\n    /* \"contracts/auction.sol\":801:802  0 */\n  0x00\n    /* \"contracts/auction.sol\":788:802  previousHash=0 */\n  dup1\n  shl\n    /* \"contracts/auction.sol\":788:800  previousHash */\n  0x03\n    /* \"contracts/auction.sol\":788:802  previousHash=0 */\n  dup2\n  swap1\n  sstore\n  pop\n    /* \"contracts/auction.sol\":62:3666  contract Auction{ ... */\n  jump(tag_9)\n    /* \"#utility.yul\":7:187   */\ntag_6:\n    /* \"#utility.yul\":55:132   */\n  0x4e487b7100000000000000000000000000000000000000000000000000000000\n    /* \"#utility.yul\":52:53   */\n  0x00\n    /* \"#utility.yul\":45:133   */\n  mstore\n    /* \"#utility.yul\":152:156   */\n  0x21\n    /* \"#utility.yul\":149:150   */\n  0x04\n    /* \"#utility.yul\":142:157   */\n  mstore\n    /* \"#utility.yul\":176:180   */\n  0x24\n    /* \"#utility.yul\":173:174   */\n  0x00\n    /* \"#utility.yul\":166:181   */\n  revert\n    /* \"#utility.yul\":193:270   */\ntag_10:\n    /* \"#utility.yul\":230:237   */\n  0x00\n    /* \"#utility.yul\":259:264   */\n  dup2\n    /* \"#utility.yul\":248:264   */\n  swap1\n  pop\n    /* \"#utility.yul\":193:270   */\n  swap2\n  swap1\n  pop\n  jump\t// out\n    /* \"#utility.yul\":276:456   */\ntag_11:\n    /* \"#utility.yul\":324:401   */\n  0x4e487b7100000000000000000000000000000000000000000000000000000000\n    /* \"#utility.yul\":321:322   */\n  0x00\n    /* \"#utility.yul\":314:402   */\n  mstore\n    /* \"#utility.yul\":421:425   */\n  0x11\n    /* \"#utility.yul\":418:419   */\n  0x04\n    /* \"#utility.yul\":411:426   */\n  mstore\n    /* \"#utility.yul\":445:449   */\n  0x24\n    /* \"#utility.yul\":442:443   */\n  0x00\n    /* \"#utility.yul\":435:450   */\n  revert\n    /* \"#utility.yul\":462:767   */\ntag_8:\n    /* \"#utility.yul\":502:505   */\n  0x00\n    /* \"#utility.yul\":521:541   */\n  tag_17\n    /* \"#utility.yul\":539:540   */\n  dup3\n    /* \"#utility.yul\":521:541   */\n  tag_10\n  jump\t// in\ntag_17:\n    /* \"#utility.yul\":516:541   */\n  swap2\n  pop\n    /* \"#utility.yul\":555:575   */\n  tag_18\n    /* \"#utility.yul\":573:574   */\n  dup4\n    /* \"#utility.yul\":555:575   */\n  tag_10\n  jump\t// in\ntag_18:\n    /* \"#utility.yul\":550:575   */\n  swap3\n  pop\n    /* \"#utility.yul\":709:710   */\n  dup3\n    /* \"#utility.yul\":641:707   */\n  0xffffffffffffffffffffffffffffffffffffffffffffffffffffffffffffffff\n    /* \"#utility.yul\":637:711   */\n  sub\n    /* \"#utility.yul\":634:635   */\n  dup3\n    /* \"#utility.yul\":631:712   */\n  gt\n    /* \"#utility.yul\":628:735   */\n  iszero\n  tag_19\n  jumpi\n    /* \"#utility.yul\":715:733   */\n  tag_20\n  tag_11\n  jump\t// in\ntag_20:\n    /* \"#utility.yul\":628:735   */\ntag_19:\n    /* \"#utility.yul\":759:760   */\n  dup3\n    /* \"#utility.yul\":756:757   */\n  dup3\n    /* \"#utility.yul\":752:761   */\n  add\n    /* \"#utility.yul\":745:761   */\n  swap1\n  pop\n    /* \"#utility.yul\":462:767   */\n  swap3\n  swap2\n  pop\n  pop\n  jump\t// out\n    /* \"contracts/auction.sol\":62:3666  contract Auction{ ... */\ntag_9:\n  dataSize(sub_0)\n  dup1\n  dataOffset(sub_0)\n  0x00\n  codecopy\n  0x00\n  return\nstop\n\nsub_0: assembly {\n        /* \"contracts/auction.sol\":62:3666  contract Auction{ ... */\n      mstore(0x40, 0x80)\n      jumpi(tag_1, lt(calldatasize, 0x04))\n      shr(0xe0, calldataload(0x00))\n      dup1\n      0x8c6f2e82\n      gt\n      tag_18\n      jumpi\n      dup1\n      0xce5bd041\n      gt\n      tag_19\n      jumpi\n      dup1\n      0xce5bd041\n      eq\n      tag_14\n      jumpi\n      dup1\n      0xd4d52df4\n      eq\n      tag_15\n      jumpi\n      dup1\n      0xe07600bd\n      eq\n      tag_16\n      jumpi\n      dup1\n      0xf8b2cb4f\n      eq\n      tag_17\n      jumpi\n      jump(tag_1)\n    tag_19:\n      dup1\n      0x8c6f2e82\n      eq\n      tag_10\n      jumpi\n      dup1\n      0x91f90157\n      eq\n      tag_11\n      jumpi\n      dup1\n      0x9d957d45\n      eq\n      tag_12\n      jumpi\n      dup1\n      0xa118be02\n      eq\n      tag_13\n      jumpi\n      jump(tag_1)\n    tag_18:\n      dup1\n      0x5ec2c7bf\n      gt\n      tag_20\n      jumpi\n      dup1\n      0x5ec2c7bf\n      eq\n      tag_6\n      jumpi\n      dup1\n      0x62ea82db\n      eq\n      tag_7\n      jumpi\n      dup1\n      0x7eb695a1\n      eq\n      tag_8\n      jumpi\n      dup1\n      0x7fb45099\n      eq\n      tag_9\n      jumpi\n      jump(tag_1)\n    tag_20:\n      dup1\n      0x0490cb74\n      eq\n      tag_2\n      jumpi\n      dup1\n      0x1998aeef\n      eq\n      tag_3\n      jumpi\n      dup1\n      0x2352f320\n      eq\n      tag_4\n      jumpi\n      dup1\n      0x3fdceefd\n      eq\n      tag_5\n      jumpi\n    tag_1:\n      0x00\n      dup1\n      revert\n        /* \"contracts/auction.sol\":459:494  mapping (address => uint) public xp */\n    tag_2:\n      callvalue\n      dup1\n      iszero\n      tag_21\n      jumpi\n      0x00\n      dup1\n      revert\n    tag_21:\n      pop\n      tag_22\n      0x04\n      dup1\n      calldatasize\n      sub\n      dup2\n      add\n      swap1\n      tag_23\n      swap2\n      swap1\n      tag_24\n      jump\t// in\n    tag_23:\n      tag_25\n      jump\t// in\n    tag_22:\n      mload(0x40)\n      tag_26\n      swap2\n      swap1\n      tag_27\n      jump\t// in\n    tag_26:\n      mload(0x40)\n      dup1\n      swap2\n      sub\n      swap1\n      return\n        /* \"contracts/auction.sol\":1545:2243  function bid() payable public notOwner started beforeEnding {... */\n    tag_3:\n      tag_28\n      tag_29\n      jump\t// in\n    tag_28:\n      stop\n        /* \"contracts/auction.sol\":1207:1297  function cancelAuc() public Owner{... */\n    tag_4:\n      callvalue\n      dup1\n      iszero\n      tag_30\n      jumpi\n      0x00\n      dup1\n      revert\n    tag_30:\n      pop\n      tag_31\n      tag_32\n      jump\t// in\n    tag_31:\n      stop\n        /* \"contracts/auction.sol\":1305:1388  function endAuc() public Owner{... */\n    tag_5:\n      callvalue\n      dup1\n      iszero\n      tag_33\n      jumpi\n      0x00\n      dup1\n      revert\n    tag_33:\n      pop\n      tag_34\n      tag_35\n      jump\t// in\n    tag_34:\n      stop\n        /* \"contracts/auction.sol\":88:121  address payable public auctioneer */\n    tag_6:\n      callvalue\n      dup1\n      iszero\n      tag_36\n      jumpi\n      0x00\n      dup1\n      revert\n    tag_36:\n      pop\n      tag_37\n      tag_38\n      jump\t// in\n    tag_37:\n      mload(0x40)\n      tag_39\n      swap2\n      swap1\n      tag_40\n      jump\t// in\n    tag_39:\n      mload(0x40)\n      dup1\n      swap2\n      sub\n      swap1\n      return\n        /* \"contracts/auction.sol\":501:537  mapping(address => uint) public bids */\n    tag_7:\n      callvalue\n      dup1\n      iszero\n      tag_41\n      jumpi\n      0x00\n      dup1\n      revert\n    tag_41:\n      pop\n      tag_42\n      0x04\n      dup1\n      calldatasize\n      sub\n      dup2\n      add\n      swap1\n      tag_43\n      swap2\n      swap1\n      tag_24\n      jump\t// in\n    tag_43:\n      tag_44\n      jump\t// in\n    tag_42:\n      mload(0x40)\n      tag_45\n      swap2\n      swap1\n      tag_27\n      jump\t// in\n    tag_45:\n      mload(0x40)\n      dup1\n      swap2\n      sub\n      swap1\n      return\n        /* \"contracts/auction.sol\":344:375  uint public highest_payable_bid */\n    tag_8:\n      callvalue\n      dup1\n      iszero\n      tag_46\n      jumpi\n      0x00\n      dup1\n      revert\n    tag_46:\n      pop\n      tag_47\n      tag_48\n      jump\t// in\n    tag_47:\n      mload(0x40)\n      tag_49\n      swap2\n      swap1\n      tag_27\n      jump\t// in\n    tag_49:\n      mload(0x40)\n      dup1\n      swap2\n      sub\n      swap1\n      return\n        /* \"contracts/auction.sol\":302:335  Auction_State public auctionState */\n    tag_9:\n      callvalue\n      dup1\n      iszero\n      tag_50\n      jumpi\n      0x00\n      dup1\n      revert\n    tag_50:\n      pop\n      tag_51\n      tag_52\n      jump\t// in\n    tag_51:\n      mload(0x40)\n      tag_53\n      swap2\n      swap1\n      tag_54\n      jump\t// in\n    tag_53:\n      mload(0x40)\n      dup1\n      swap2\n      sub\n      swap1\n      return\n        /* \"contracts/auction.sol\":3376:3663  function Block(int transactions)public view returns(bytes32 hashin, bytes32 previousHash){... */\n    tag_10:\n      callvalue\n      dup1\n      iszero\n      tag_55\n      jumpi\n      0x00\n      dup1\n      revert\n    tag_55:\n      pop\n      tag_56\n      0x04\n      dup1\n      calldatasize\n      sub\n      dup2\n      add\n      swap1\n      tag_57\n      swap2\n      swap1\n      tag_58\n      jump\t// in\n    tag_57:\n      tag_59\n      jump\t// in\n    tag_56:\n      mload(0x40)\n      tag_60\n      swap3\n      swap2\n      swap1\n      tag_61\n      jump\t// in\n    tag_60:\n      mload(0x40)\n      dup1\n      swap2\n      sub\n      swap1\n      return\n        /* \"contracts/auction.sol\":416:452  address payable public highestBidder */\n    tag_11:\n      callvalue\n      dup1\n      iszero\n      tag_62\n      jumpi\n      0x00\n      dup1\n      revert\n    tag_62:\n      pop\n      tag_63\n      tag_64\n      jump\t// in\n    tag_63:\n      mload(0x40)\n      tag_65\n      swap2\n      swap1\n      tag_40\n      jump\t// in\n    tag_65:\n      mload(0x40)\n      dup1\n      swap2\n      sub\n      swap1\n      return\n        /* \"contracts/auction.sol\":168:187  uint public etblock */\n    tag_12:\n      callvalue\n      dup1\n      iszero\n      tag_66\n      jumpi\n      0x00\n      dup1\n      revert\n    tag_66:\n      pop\n      tag_67\n      tag_68\n      jump\t// in\n    tag_67:\n      mload(0x40)\n      tag_69\n      swap2\n      swap1\n      tag_27\n      jump\t// in\n    tag_69:\n      mload(0x40)\n      dup1\n      swap2\n      sub\n      swap1\n      return\n        /* \"contracts/auction.sol\":129:148  uint public stblock */\n    tag_13:\n      callvalue\n      dup1\n      iszero\n      tag_70\n      jumpi\n      0x00\n      dup1\n      revert\n    tag_70:\n      pop\n      tag_71\n      tag_72\n      jump\t// in\n    tag_71:\n      mload(0x40)\n      tag_73\n      swap2\n      swap1\n      tag_27\n      jump\t// in\n    tag_73:\n      mload(0x40)\n      dup1\n      swap2\n      sub\n      swap1\n      return\n        /* \"contracts/auction.sol\":382:407  uint public bid_Increment */\n    tag_14:\n      callvalue\n      dup1\n      iszero\n      tag_74\n      jumpi\n      0x00\n      dup1\n      revert\n    tag_74:\n      pop\n      tag_75\n      tag_76\n      jump\t// in\n    tag_75:\n      mload(0x40)\n      tag_77\n      swap2\n      swap1\n      tag_27\n      jump\t// in\n    tag_77:\n      mload(0x40)\n      dup1\n      swap2\n      sub\n      swap1\n      return\n        /* \"contracts/auction.sol\":206:233  bytes32 public previousHash */\n    tag_15:\n      callvalue\n      dup1\n      iszero\n      tag_78\n      jumpi\n      0x00\n      dup1\n      revert\n    tag_78:\n      pop\n      tag_79\n      tag_80\n      jump\t// in\n    tag_79:\n      mload(0x40)\n      tag_81\n      swap2\n      swap1\n      tag_82\n      jump\t// in\n    tag_81:\n      mload(0x40)\n      dup1\n      swap2\n      sub\n      swap1\n      return\n        /* \"contracts/auction.sol\":2349:3370  function finalizeAuc() public{... */\n    tag_16:\n      callvalue\n      dup1\n      iszero\n      tag_83\n      jumpi\n      0x00\n      dup1\n      revert\n    tag_83:\n      pop\n      tag_84\n      tag_85\n      jump\t// in\n    tag_84:\n      stop\n        /* \"contracts/auction.sol\":2249:2343  function getBalance(address addr) public view returns(uint) {... */\n    tag_17:\n      callvalue\n      dup1\n      iszero\n      tag_86\n      jumpi\n      0x00\n      dup1\n      revert\n    tag_86:\n      pop\n      tag_87\n      0x04\n      dup1\n      calldatasize\n      sub\n      dup2\n      add\n      swap1\n      tag_88\n      swap2\n      swap1\n      tag_24\n      jump\t// in\n    tag_88:\n      tag_89\n      jump\t// in\n    tag_87:\n      mload(0x40)\n      tag_90\n      swap2\n      swap1\n      tag_27\n      jump\t// in\n    tag_90:\n      mload(0x40)\n      dup1\n      swap2\n      sub\n      swap1\n      return\n        /* \"contracts/auction.sol\":459:494  mapping (address => uint) public xp */\n    tag_25:\n      mstore(0x20, 0x08)\n      dup1\n      0x00\n      mstore\n      keccak256(0x00, 0x40)\n      0x00\n      swap2\n      pop\n      swap1\n      pop\n      sload\n      dup2\n      jump\t// out\n        /* \"contracts/auction.sol\":1545:2243  function bid() payable public notOwner started beforeEnding {... */\n    tag_29:\n        /* \"contracts/auction.sol\":867:877  auctioneer */\n      0x00\n      dup1\n      sload\n      swap1\n      0x0100\n      exp\n      swap1\n      div\n      0xffffffffffffffffffffffffffffffffffffffff\n      and\n        /* \"contracts/auction.sol\":853:877  msg.sender != auctioneer */\n      0xffffffffffffffffffffffffffffffffffffffff\n      and\n        /* \"contracts/auction.sol\":853:863  msg.sender */\n      caller\n        /* \"contracts/auction.sol\":853:877  msg.sender != auctioneer */\n      0xffffffffffffffffffffffffffffffffffffffff\n      and\n      eq\n      iszero\n        /* \"contracts/auction.sol\":845:897  require(msg.sender != auctioneer,\"Owner cannot bid\") */\n      tag_92\n      jumpi\n      mload(0x40)\n      0x08c379a000000000000000000000000000000000000000000000000000000000\n      dup2\n      mstore\n      0x04\n      add\n      tag_93\n      swap1\n      tag_94\n      jump\t// in\n    tag_93:\n      mload(0x40)\n      dup1\n      swap2\n      sub\n      swap1\n      revert\n    tag_92:\n        /* \"contracts/auction.sol\":1082:1089  stblock */\n      sload(0x01)\n        /* \"contracts/auction.sol\":1069:1081  block.number */\n      number\n        /* \"contracts/auction.sol\":1069:1089  block.number>stblock */\n      gt\n        /* \"contracts/auction.sol\":1061:1090  require(block.number>stblock) */\n      tag_96\n      jumpi\n      0x00\n      dup1\n      revert\n    tag_96:\n        /* \"contracts/auction.sol\":1171:1178  etblock */\n      sload(0x02)\n        /* \"contracts/auction.sol\":1158:1170  block.number */\n      number\n        /* \"contracts/auction.sol\":1158:1178  block.number<etblock */\n      lt\n        /* \"contracts/auction.sol\":1150:1179  require(block.number<etblock) */\n      tag_98\n      jumpi\n      0x00\n      dup1\n      revert\n    tag_98:\n        /* \"contracts/auction.sol\":1616:1630  address bidder */\n      0x00\n        /* \"contracts/auction.sol\":1649:1659  msg.sender */\n      caller\n        /* \"contracts/auction.sol\":1642:1659  bidder=msg.sender */\n      swap1\n      pop\n        /* \"contracts/auction.sol\":1694:1715  Auction_State.Running */\n      0x01\n        /* \"contracts/auction.sol\":1678:1715  auctionState == Auction_State.Running */\n      0x03\n      dup2\n      gt\n      iszero\n      tag_100\n      jumpi\n      tag_101\n      tag_102\n      jump\t// in\n    tag_101:\n    tag_100:\n        /* \"contracts/auction.sol\":1678:1690  auctionState */\n      0x04\n      0x00\n      swap1\n      sload\n      swap1\n      0x0100\n      exp\n      swap1\n      div\n      0xff\n      and\n        /* \"contracts/auction.sol\":1678:1715  auctionState == Auction_State.Running */\n      0x03\n      dup2\n      gt\n      iszero\n      tag_103\n      jumpi\n      tag_104\n      tag_102\n      jump\t// in\n    tag_104:\n    tag_103:\n      eq\n        /* \"contracts/auction.sol\":1670:1716  require(auctionState == Auction_State.Running) */\n      tag_105\n      jumpi\n      0x00\n      dup1\n      revert\n    tag_105:\n        /* \"contracts/auction.sol\":1747:1754  1 ether */\n      0x0de0b6b3a7640000\n        /* \"contracts/auction.sol\":1735:1744  msg.value */\n      callvalue\n        /* \"contracts/auction.sol\":1735:1754  msg.value>= 1 ether */\n      lt\n      iszero\n        /* \"contracts/auction.sol\":1727:1755  require(msg.value>= 1 ether) */\n      tag_106\n      jumpi\n      0x00\n      dup1\n      revert\n    tag_106:\n        /* \"contracts/auction.sol\":1768:1783  uint currentBid */\n      0x00\n        /* \"contracts/auction.sol\":1805:1814  msg.value */\n      callvalue\n        /* \"contracts/auction.sol\":1786:1790  bids */\n      0x09\n        /* \"contracts/auction.sol\":1786:1802  bids[msg.sender] */\n      0x00\n        /* \"contracts/auction.sol\":1791:1801  msg.sender */\n      caller\n        /* \"contracts/auction.sol\":1786:1802  bids[msg.sender] */\n      0xffffffffffffffffffffffffffffffffffffffff\n      and\n      0xffffffffffffffffffffffffffffffffffffffff\n      and\n      dup2\n      mstore\n      0x20\n      add\n      swap1\n      dup2\n      mstore\n      0x20\n      add\n      0x00\n      keccak256\n      sload\n        /* \"contracts/auction.sol\":1786:1814  bids[msg.sender] + msg.value */\n      tag_107\n      swap2\n      swap1\n      tag_108\n      jump\t// in\n    tag_107:\n        /* \"contracts/auction.sol\":1768:1814  uint currentBid = bids[msg.sender] + msg.value */\n      swap1\n      pop\n        /* \"contracts/auction.sol\":1845:1864  highest_payable_bid */\n      sload(0x05)\n        /* \"contracts/auction.sol\":1834:1844  currentBid */\n      dup2\n        /* \"contracts/auction.sol\":1834:1864  currentBid>highest_payable_bid */\n      gt\n        /* \"contracts/auction.sol\":1826:1865  require(currentBid>highest_payable_bid) */\n      tag_109\n      jumpi\n      0x00\n      dup1\n      revert\n    tag_109:\n        /* \"contracts/auction.sol\":1895:1905  currentBid */\n      dup1\n        /* \"contracts/auction.sol\":1876:1880  bids */\n      0x09\n        /* \"contracts/auction.sol\":1876:1892  bids[msg.sender] */\n      0x00\n        /* \"contracts/auction.sol\":1881:1891  msg.sender */\n      caller\n        /* \"contracts/auction.sol\":1876:1892  bids[msg.sender] */\n      0xffffffffffffffffffffffffffffffffffffffff\n      and\n      0xffffffffffffffffffffffffffffffffffffffff\n      and\n      dup2\n      mstore\n      0x20\n      add\n      swap1\n      dup2\n      mstore\n      0x20\n      add\n      0x00\n      keccak256\n        /* \"contracts/auction.sol\":1876:1905  bids[msg.sender] = currentBid */\n      dup2\n      swap1\n      sstore\n      pop\n        /* \"contracts/auction.sol\":1932:1936  bids */\n      0x09\n        /* \"contracts/auction.sol\":1932:1951  bids[highestBidder] */\n      0x00\n        /* \"contracts/auction.sol\":1937:1950  highestBidder */\n      0x07\n      0x00\n      swap1\n      sload\n      swap1\n      0x0100\n      exp\n      swap1\n      div\n      0xffffffffffffffffffffffffffffffffffffffff\n      and\n        /* \"contracts/auction.sol\":1932:1951  bids[highestBidder] */\n      0xffffffffffffffffffffffffffffffffffffffff\n      and\n      0xffffffffffffffffffffffffffffffffffffffff\n      and\n      dup2\n      mstore\n      0x20\n      add\n      swap1\n      dup2\n      mstore\n      0x20\n      add\n      0x00\n      keccak256\n      sload\n        /* \"contracts/auction.sol\":1921:1931  currentBid */\n      dup2\n        /* \"contracts/auction.sol\":1921:1951  currentBid<bids[highestBidder] */\n      lt\n        /* \"contracts/auction.sol\":1918:2212  if(currentBid<bids[highestBidder]){... */\n      iszero\n      tag_110\n      jumpi\n        /* \"contracts/auction.sol\":1989:2038  min(currentBid+bid_Increment,bids[highestBidder]) */\n      tag_111\n        /* \"contracts/auction.sol\":2004:2017  bid_Increment */\n      sload(0x06)\n        /* \"contracts/auction.sol\":1993:2003  currentBid */\n      dup3\n        /* \"contracts/auction.sol\":1993:2017  currentBid+bid_Increment */\n      tag_112\n      swap2\n      swap1\n      tag_108\n      jump\t// in\n    tag_112:\n        /* \"contracts/auction.sol\":2018:2022  bids */\n      0x09\n        /* \"contracts/auction.sol\":2018:2037  bids[highestBidder] */\n      0x00\n        /* \"contracts/auction.sol\":2023:2036  highestBidder */\n      0x07\n      0x00\n      swap1\n      sload\n      swap1\n      0x0100\n      exp\n      swap1\n      div\n      0xffffffffffffffffffffffffffffffffffffffff\n      and\n        /* \"contracts/auction.sol\":2018:2037  bids[highestBidder] */\n      0xffffffffffffffffffffffffffffffffffffffff\n      and\n      0xffffffffffffffffffffffffffffffffffffffff\n      and\n      dup2\n      mstore\n      0x20\n      add\n      swap1\n      dup2\n      mstore\n      0x20\n      add\n      0x00\n      keccak256\n      sload\n        /* \"contracts/auction.sol\":1989:1992  min */\n      tag_113\n        /* \"contracts/auction.sol\":1989:2038  min(currentBid+bid_Increment,bids[highestBidder]) */\n      jump\t// in\n    tag_111:\n        /* \"contracts/auction.sol\":1967:1986  highest_payable_bid */\n      0x05\n        /* \"contracts/auction.sol\":1967:2038  highest_payable_bid = min(currentBid+bid_Increment,bids[highestBidder]) */\n      dup2\n      swap1\n      sstore\n      pop\n        /* \"contracts/auction.sol\":1918:2212  if(currentBid<bids[highestBidder]){... */\n      jump(tag_114)\n    tag_110:\n        /* \"contracts/auction.sol\":2101:2150  min(currentBid,bids[highestBidder]+bid_Increment) */\n      tag_115\n        /* \"contracts/auction.sol\":2105:2115  currentBid */\n      dup2\n        /* \"contracts/auction.sol\":2136:2149  bid_Increment */\n      sload(0x06)\n        /* \"contracts/auction.sol\":2116:2120  bids */\n      0x09\n        /* \"contracts/auction.sol\":2116:2135  bids[highestBidder] */\n      0x00\n        /* \"contracts/auction.sol\":2121:2134  highestBidder */\n      0x07\n      0x00\n      swap1\n      sload\n      swap1\n      0x0100\n      exp\n      swap1\n      div\n      0xffffffffffffffffffffffffffffffffffffffff\n      and\n        /* \"contracts/auction.sol\":2116:2135  bids[highestBidder] */\n      0xffffffffffffffffffffffffffffffffffffffff\n      and\n      0xffffffffffffffffffffffffffffffffffffffff\n      and\n      dup2\n      mstore\n      0x20\n      add\n      swap1\n      dup2\n      mstore\n      0x20\n      add\n      0x00\n      keccak256\n      sload\n        /* \"contracts/auction.sol\":2116:2149  bids[highestBidder]+bid_Increment */\n      tag_116\n      swap2\n      swap1\n      tag_108\n      jump\t// in\n    tag_116:\n        /* \"contracts/auction.sol\":2101:2104  min */\n      tag_113\n        /* \"contracts/auction.sol\":2101:2150  min(currentBid,bids[highestBidder]+bid_Increment) */\n      jump\t// in\n    tag_115:\n        /* \"contracts/auction.sol\":2079:2098  highest_payable_bid */\n      0x05\n        /* \"contracts/auction.sol\":2079:2150  highest_payable_bid = min(currentBid,bids[highestBidder]+bid_Increment) */\n      dup2\n      swap1\n      sstore\n      pop\n        /* \"contracts/auction.sol\":2189:2199  msg.sender */\n      caller\n        /* \"contracts/auction.sol\":2165:2178  highestBidder */\n      0x07\n      0x00\n        /* \"contracts/auction.sol\":2165:2200  highestBidder = payable(msg.sender) */\n      0x0100\n      exp\n      dup2\n      sload\n      dup2\n      0xffffffffffffffffffffffffffffffffffffffff\n      mul\n      not\n      and\n      swap1\n      dup4\n      0xffffffffffffffffffffffffffffffffffffffff\n      and\n      mul\n      or\n      swap1\n      sstore\n      pop\n        /* \"contracts/auction.sol\":1918:2212  if(currentBid<bids[highestBidder]){... */\n    tag_114:\n        /* \"contracts/auction.sol\":2234:2235  1 */\n      0x01\n        /* \"contracts/auction.sol\":2222:2224  xp */\n      0x08\n        /* \"contracts/auction.sol\":2222:2232  xp[bidder] */\n      0x00\n        /* \"contracts/auction.sol\":2225:2231  bidder */\n      dup5\n        /* \"contracts/auction.sol\":2222:2232  xp[bidder] */\n      0xffffffffffffffffffffffffffffffffffffffff\n      and\n      0xffffffffffffffffffffffffffffffffffffffff\n      and\n      dup2\n      mstore\n      0x20\n      add\n      swap1\n      dup2\n      mstore\n      0x20\n      add\n      0x00\n      keccak256\n      0x00\n        /* \"contracts/auction.sol\":2222:2235  xp[bidder]+=1 */\n      dup3\n      dup3\n      sload\n      tag_117\n      swap2\n      swap1\n      tag_108\n      jump\t// in\n    tag_117:\n      swap3\n      pop\n      pop\n      dup2\n      swap1\n      sstore\n      pop\n        /* \"contracts/auction.sol\":1605:2243  {... */\n      pop\n      pop\n        /* \"contracts/auction.sol\":1545:2243  function bid() payable public notOwner started beforeEnding {... */\n      jump\t// out\n        /* \"contracts/auction.sol\":1207:1297  function cancelAuc() public Owner{... */\n    tag_32:\n        /* \"contracts/auction.sol\":974:984  auctioneer */\n      0x00\n      dup1\n      sload\n      swap1\n      0x0100\n      exp\n      swap1\n      div\n      0xffffffffffffffffffffffffffffffffffffffff\n      and\n        /* \"contracts/auction.sol\":960:984  msg.sender == auctioneer */\n      0xffffffffffffffffffffffffffffffffffffffff\n      and\n        /* \"contracts/auction.sol\":960:970  msg.sender */\n      caller\n        /* \"contracts/auction.sol\":960:984  msg.sender == auctioneer */\n      0xffffffffffffffffffffffffffffffffffffffff\n      and\n      eq\n        /* \"contracts/auction.sol\":952:1004  require(msg.sender == auctioneer,\"Owner cannot bid\") */\n      tag_119\n      jumpi\n      mload(0x40)\n      0x08c379a000000000000000000000000000000000000000000000000000000000\n      dup2\n      mstore\n      0x04\n      add\n      tag_120\n      swap1\n      tag_94\n      jump\t// in\n    tag_120:\n      mload(0x40)\n      dup1\n      swap2\n      sub\n      swap1\n      revert\n    tag_119:\n        /* \"contracts/auction.sol\":1266:1289  Auction_State.Cancelled */\n      0x03\n        /* \"contracts/auction.sol\":1251:1263  auctionState */\n      0x04\n      0x00\n        /* \"contracts/auction.sol\":1251:1289  auctionState = Auction_State.Cancelled */\n      0x0100\n      exp\n      dup2\n      sload\n      dup2\n      0xff\n      mul\n      not\n      and\n      swap1\n      dup4\n      0x03\n      dup2\n      gt\n      iszero\n      tag_122\n      jumpi\n      tag_123\n      tag_102\n      jump\t// in\n    tag_123:\n    tag_122:\n      mul\n      or\n      swap1\n      sstore\n      pop\n        /* \"contracts/auction.sol\":1207:1297  function cancelAuc() public Owner{... */\n      jump\t// out\n        /* \"contracts/auction.sol\":1305:1388  function endAuc() public Owner{... */\n    tag_35:\n        /* \"contracts/auction.sol\":974:984  auctioneer */\n      0x00\n      dup1\n      sload\n      swap1\n      0x0100\n      exp\n      swap1\n      div\n      0xffffffffffffffffffffffffffffffffffffffff\n      and\n        /* \"contracts/auction.sol\":960:984  msg.sender == auctioneer */\n      0xffffffffffffffffffffffffffffffffffffffff\n      and\n        /* \"contracts/auction.sol\":960:970  msg.sender */\n      caller\n        /* \"contracts/auction.sol\":960:984  msg.sender == auctioneer */\n      0xffffffffffffffffffffffffffffffffffffffff\n      and\n      eq\n        /* \"contracts/auction.sol\":952:1004  require(msg.sender == auctioneer,\"Owner cannot bid\") */\n      tag_125\n      jumpi\n      mload(0x40)\n      0x08c379a000000000000000000000000000000000000000000000000000000000\n      dup2\n      mstore\n      0x04\n      add\n      tag_126\n      swap1\n      tag_94\n      jump\t// in\n    tag_126:\n      mload(0x40)\n      dup1\n      swap2\n      sub\n      swap1\n      revert\n    tag_125:\n        /* \"contracts/auction.sol\":1361:1380  Auction_State.Ended */\n      0x02\n        /* \"contracts/auction.sol\":1346:1358  auctionState */\n      0x04\n      0x00\n        /* \"contracts/auction.sol\":1346:1380  auctionState = Auction_State.Ended */\n      0x0100\n      exp\n      dup2\n      sload\n      dup2\n      0xff\n      mul\n      not\n      and\n      swap1\n      dup4\n      0x03\n      dup2\n      gt\n      iszero\n      tag_128\n      jumpi\n      tag_129\n      tag_102\n      jump\t// in\n    tag_129:\n    tag_128:\n      mul\n      or\n      swap1\n      sstore\n      pop\n        /* \"contracts/auction.sol\":1305:1388  function endAuc() public Owner{... */\n      jump\t// out\n        /* \"contracts/auction.sol\":88:121  address payable public auctioneer */\n    tag_38:\n      0x00\n      dup1\n      sload\n      swap1\n      0x0100\n      exp\n      swap1\n      div\n      0xffffffffffffffffffffffffffffffffffffffff\n      and\n      dup2\n      jump\t// out\n        /* \"contracts/auction.sol\":501:537  mapping(address => uint) public bids */\n    tag_44:\n      mstore(0x20, 0x09)\n      dup1\n      0x00\n      mstore\n      keccak256(0x00, 0x40)\n      0x00\n      swap2\n      pop\n      swap1\n      pop\n      sload\n      dup2\n      jump\t// out\n        /* \"contracts/auction.sol\":344:375  uint public highest_payable_bid */\n    tag_48:\n      sload(0x05)\n      dup2\n      jump\t// out\n        /* \"contracts/auction.sol\":302:335  Auction_State public auctionState */\n    tag_52:\n      0x04\n      0x00\n      swap1\n      sload\n      swap1\n      0x0100\n      exp\n      swap1\n      div\n      0xff\n      and\n      dup2\n      jump\t// out\n        /* \"contracts/auction.sol\":3376:3663  function Block(int transactions)public view returns(bytes32 hashin, bytes32 previousHash){... */\n    tag_59:\n        /* \"contracts/auction.sol\":3428:3442  bytes32 hashin */\n      0x00\n        /* \"contracts/auction.sol\":3444:3464  bytes32 previousHash */\n      dup1\n        /* \"contracts/auction.sol\":3496:3509  highestBidder */\n      0x07\n      0x00\n      swap1\n      sload\n      swap1\n      0x0100\n      exp\n      swap1\n      div\n      0xffffffffffffffffffffffffffffffffffffffff\n      and\n        /* \"contracts/auction.sol\":3484:3509  msg.sender==highestBidder */\n      0xffffffffffffffffffffffffffffffffffffffff\n      and\n        /* \"contracts/auction.sol\":3484:3494  msg.sender */\n      caller\n        /* \"contracts/auction.sol\":3484:3509  msg.sender==highestBidder */\n      0xffffffffffffffffffffffffffffffffffffffff\n      and\n      eq\n        /* \"contracts/auction.sol\":3476:3510  require(msg.sender==highestBidder) */\n      tag_131\n      jumpi\n      0x00\n      dup1\n      revert\n    tag_131:\n        /* \"contracts/auction.sol\":3520:3529  uint time */\n      0x00\n        /* \"contracts/auction.sol\":3531:3546  block.timestamp */\n      timestamp\n        /* \"contracts/auction.sol\":3520:3546  uint time= block.timestamp */\n      swap1\n      pop\n        /* \"contracts/auction.sol\":3565:3621  sha256(abi.encodePacked(time,transactions,previousHash)) */\n      0x02\n        /* \"contracts/auction.sol\":3589:3593  time */\n      dup2\n        /* \"contracts/auction.sol\":3594:3606  transactions */\n      dup6\n        /* \"contracts/auction.sol\":3607:3619  previousHash */\n      dup5\n        /* \"contracts/auction.sol\":3572:3620  abi.encodePacked(time,transactions,previousHash) */\n      add(0x20, mload(0x40))\n      tag_132\n      swap4\n      swap3\n      swap2\n      swap1\n      tag_133\n      jump\t// in\n    tag_132:\n      mload(0x40)\n      0x20\n      dup2\n      dup4\n      sub\n      sub\n      dup2\n      mstore\n      swap1\n      0x40\n      mstore\n        /* \"contracts/auction.sol\":3565:3621  sha256(abi.encodePacked(time,transactions,previousHash)) */\n      mload(0x40)\n      tag_134\n      swap2\n      swap1\n      tag_135\n      jump\t// in\n    tag_134:\n      0x20\n      mload(0x40)\n      dup1\n      dup4\n      sub\n      dup2\n      dup6\n      gas\n      staticcall\n      iszero\n      dup1\n      iszero\n      tag_137\n      jumpi\n      returndatasize\n      0x00\n      dup1\n      returndatacopy\n      revert(0x00, returndatasize)\n    tag_137:\n      pop\n      pop\n      pop\n      mload(0x40)\n      returndatasize\n      not(0x1f)\n      0x1f\n      dup3\n      add\n      and\n      dup3\n      add\n      dup1\n      0x40\n      mstore\n      pop\n      dup2\n      add\n      swap1\n      tag_138\n      swap2\n      swap1\n      tag_139\n      jump\t// in\n    tag_138:\n        /* \"contracts/auction.sol\":3557:3621  hashin= sha256(abi.encodePacked(time,transactions,previousHash)) */\n      swap3\n      pop\n        /* \"contracts/auction.sol\":3645:3651  hashin */\n      dup3\n        /* \"contracts/auction.sol\":3632:3651  previousHash=hashin */\n      swap2\n      pop\n        /* \"contracts/auction.sol\":3465:3663  {... */\n      pop\n        /* \"contracts/auction.sol\":3376:3663  function Block(int transactions)public view returns(bytes32 hashin, bytes32 previousHash){... */\n      swap2\n      pop\n      swap2\n      jump\t// out\n        /* \"contracts/auction.sol\":416:452  address payable public highestBidder */\n    tag_64:\n      0x07\n      0x00\n      swap1\n      sload\n      swap1\n      0x0100\n      exp\n      swap1\n      div\n      0xffffffffffffffffffffffffffffffffffffffff\n      and\n      dup2\n      jump\t// out\n        /* \"contracts/auction.sol\":168:187  uint public etblock */\n    tag_68:\n      sload(0x02)\n      dup2\n      jump\t// out\n        /* \"contracts/auction.sol\":129:148  uint public stblock */\n    tag_72:\n      sload(0x01)\n      dup2\n      jump\t// out\n        /* \"contracts/auction.sol\":382:407  uint public bid_Increment */\n    tag_76:\n      sload(0x06)\n      dup2\n      jump\t// out\n        /* \"contracts/auction.sol\":206:233  bytes32 public previousHash */\n    tag_80:\n      sload(0x03)\n      dup2\n      jump\t// out\n        /* \"contracts/auction.sol\":2349:3370  function finalizeAuc() public{... */\n    tag_85:\n        /* \"contracts/auction.sol\":2413:2436  Auction_State.Cancelled */\n      0x03\n        /* \"contracts/auction.sol\":2397:2436  auctionState == Auction_State.Cancelled */\n      dup1\n      dup2\n      gt\n      iszero\n      tag_141\n      jumpi\n      tag_142\n      tag_102\n      jump\t// in\n    tag_142:\n    tag_141:\n        /* \"contracts/auction.sol\":2397:2409  auctionState */\n      0x04\n      0x00\n      swap1\n      sload\n      swap1\n      0x0100\n      exp\n      swap1\n      div\n      0xff\n      and\n        /* \"contracts/auction.sol\":2397:2436  auctionState == Auction_State.Cancelled */\n      0x03\n      dup2\n      gt\n      iszero\n      tag_143\n      jumpi\n      tag_144\n      tag_102\n      jump\t// in\n    tag_144:\n    tag_143:\n      eq\n        /* \"contracts/auction.sol\":2397:2475  auctionState == Auction_State.Cancelled || auctionState == Auction_State.Ended */\n      dup1\n      tag_145\n      jumpi\n      pop\n        /* \"contracts/auction.sol\":2456:2475  Auction_State.Ended */\n      0x02\n        /* \"contracts/auction.sol\":2440:2475  auctionState == Auction_State.Ended */\n      0x03\n      dup2\n      gt\n      iszero\n      tag_146\n      jumpi\n      tag_147\n      tag_102\n      jump\t// in\n    tag_147:\n    tag_146:\n        /* \"contracts/auction.sol\":2440:2452  auctionState */\n      0x04\n      0x00\n      swap1\n      sload\n      swap1\n      0x0100\n      exp\n      swap1\n      div\n      0xff\n      and\n        /* \"contracts/auction.sol\":2440:2475  auctionState == Auction_State.Ended */\n      0x03\n      dup2\n      gt\n      iszero\n      tag_148\n      jumpi\n      tag_149\n      tag_102\n      jump\t// in\n    tag_149:\n    tag_148:\n      eq\n        /* \"contracts/auction.sol\":2397:2475  auctionState == Auction_State.Cancelled || auctionState == Auction_State.Ended */\n    tag_145:\n        /* \"contracts/auction.sol\":2397:2499  auctionState == Auction_State.Cancelled || auctionState == Auction_State.Ended || block.number>etblock */\n      dup1\n      tag_150\n      jumpi\n      pop\n        /* \"contracts/auction.sol\":2492:2499  etblock */\n      sload(0x02)\n        /* \"contracts/auction.sol\":2479:2491  block.number */\n      number\n        /* \"contracts/auction.sol\":2479:2499  block.number>etblock */\n      gt\n        /* \"contracts/auction.sol\":2397:2499  auctionState == Auction_State.Cancelled || auctionState == Auction_State.Ended || block.number>etblock */\n    tag_150:\n        /* \"contracts/auction.sol\":2389:2500  require(auctionState == Auction_State.Cancelled || auctionState == Auction_State.Ended || block.number>etblock) */\n      tag_151\n      jumpi\n      0x00\n      dup1\n      revert\n    tag_151:\n        /* \"contracts/auction.sol\":2533:2543  auctioneer */\n      0x00\n      dup1\n      sload\n      swap1\n      0x0100\n      exp\n      swap1\n      div\n      0xffffffffffffffffffffffffffffffffffffffff\n      and\n        /* \"contracts/auction.sol\":2519:2543  msg.sender == auctioneer */\n      0xffffffffffffffffffffffffffffffffffffffff\n      and\n        /* \"contracts/auction.sol\":2519:2529  msg.sender */\n      caller\n        /* \"contracts/auction.sol\":2519:2543  msg.sender == auctioneer */\n      0xffffffffffffffffffffffffffffffffffffffff\n      and\n      eq\n        /* \"contracts/auction.sol\":2519:2565  msg.sender == auctioneer || bids[msg.sender]>0 */\n      dup1\n      tag_152\n      jumpi\n      pop\n        /* \"contracts/auction.sol\":2564:2565  0 */\n      0x00\n        /* \"contracts/auction.sol\":2547:2551  bids */\n      0x09\n        /* \"contracts/auction.sol\":2547:2563  bids[msg.sender] */\n      0x00\n        /* \"contracts/auction.sol\":2552:2562  msg.sender */\n      caller\n        /* \"contracts/auction.sol\":2547:2563  bids[msg.sender] */\n      0xffffffffffffffffffffffffffffffffffffffff\n      and\n      0xffffffffffffffffffffffffffffffffffffffff\n      and\n      dup2\n      mstore\n      0x20\n      add\n      swap1\n      dup2\n      mstore\n      0x20\n      add\n      0x00\n      keccak256\n      sload\n        /* \"contracts/auction.sol\":2547:2565  bids[msg.sender]>0 */\n      gt\n        /* \"contracts/auction.sol\":2519:2565  msg.sender == auctioneer || bids[msg.sender]>0 */\n    tag_152:\n        /* \"contracts/auction.sol\":2511:2566  require(msg.sender == auctioneer || bids[msg.sender]>0) */\n      tag_153\n      jumpi\n      0x00\n      dup1\n      revert\n    tag_153:\n        /* \"contracts/auction.sol\":2579:2601  address payable person */\n      0x00\n        /* \"contracts/auction.sol\":2612:2622  uint value */\n      dup1\n        /* \"contracts/auction.sol\":2654:2677  Auction_State.Cancelled */\n      0x03\n        /* \"contracts/auction.sol\":2638:2677  auctionState == Auction_State.Cancelled */\n      dup1\n      dup2\n      gt\n      iszero\n      tag_154\n      jumpi\n      tag_155\n      tag_102\n      jump\t// in\n    tag_155:\n    tag_154:\n        /* \"contracts/auction.sol\":2638:2650  auctionState */\n      0x04\n      0x00\n      swap1\n      sload\n      swap1\n      0x0100\n      exp\n      swap1\n      div\n      0xff\n      and\n        /* \"contracts/auction.sol\":2638:2677  auctionState == Auction_State.Cancelled */\n      0x03\n      dup2\n      gt\n      iszero\n      tag_156\n      jumpi\n      tag_157\n      tag_102\n      jump\t// in\n    tag_157:\n    tag_156:\n      eq\n        /* \"contracts/auction.sol\":2635:3301  if(auctionState == Auction_State.Cancelled){... */\n      iszero\n      tag_158\n      jumpi\n        /* \"contracts/auction.sol\":2710:2720  msg.sender */\n      caller\n        /* \"contracts/auction.sol\":2693:2721  person = payable(msg.sender) */\n      swap2\n      pop\n        /* \"contracts/auction.sol\":2744:2748  bids */\n      0x09\n        /* \"contracts/auction.sol\":2744:2760  bids[msg.sender] */\n      0x00\n        /* \"contracts/auction.sol\":2749:2759  msg.sender */\n      caller\n        /* \"contracts/auction.sol\":2744:2760  bids[msg.sender] */\n      0xffffffffffffffffffffffffffffffffffffffff\n      and\n      0xffffffffffffffffffffffffffffffffffffffff\n      and\n      dup2\n      mstore\n      0x20\n      add\n      swap1\n      dup2\n      mstore\n      0x20\n      add\n      0x00\n      keccak256\n      sload\n        /* \"contracts/auction.sol\":2736:2760  value = bids[msg.sender] */\n      swap1\n      pop\n        /* \"contracts/auction.sol\":2635:3301  if(auctionState == Auction_State.Cancelled){... */\n      jump(tag_159)\n    tag_158:\n        /* \"contracts/auction.sol\":2818:2828  auctioneer */\n      0x00\n      dup1\n      sload\n      swap1\n      0x0100\n      exp\n      swap1\n      div\n      0xffffffffffffffffffffffffffffffffffffffff\n      and\n        /* \"contracts/auction.sol\":2804:2828  msg.sender == auctioneer */\n      0xffffffffffffffffffffffffffffffffffffffff\n      and\n        /* \"contracts/auction.sol\":2804:2814  msg.sender */\n      caller\n        /* \"contracts/auction.sol\":2804:2828  msg.sender == auctioneer */\n      0xffffffffffffffffffffffffffffffffffffffff\n      and\n      eq\n        /* \"contracts/auction.sol\":2801:3290  if(msg.sender == auctioneer){... */\n      iszero\n      tag_160\n      jumpi\n        /* \"contracts/auction.sol\":2857:2867  auctioneer */\n      0x00\n      dup1\n      sload\n      swap1\n      0x0100\n      exp\n      swap1\n      div\n      0xffffffffffffffffffffffffffffffffffffffff\n      and\n        /* \"contracts/auction.sol\":2848:2867  person = auctioneer */\n      swap2\n      pop\n        /* \"contracts/auction.sol\":2894:2913  highest_payable_bid */\n      sload(0x05)\n        /* \"contracts/auction.sol\":2886:2913  value = highest_payable_bid */\n      swap1\n      pop\n        /* \"contracts/auction.sol\":2801:3290  if(msg.sender == auctioneer){... */\n      jump(tag_161)\n    tag_160:\n        /* \"contracts/auction.sol\":2985:2998  highestBidder */\n      0x07\n      0x00\n      swap1\n      sload\n      swap1\n      0x0100\n      exp\n      swap1\n      div\n      0xffffffffffffffffffffffffffffffffffffffff\n      and\n        /* \"contracts/auction.sol\":2971:2998  msg.sender == highestBidder */\n      0xffffffffffffffffffffffffffffffffffffffff\n      and\n        /* \"contracts/auction.sol\":2971:2981  msg.sender */\n      caller\n        /* \"contracts/auction.sol\":2971:2998  msg.sender == highestBidder */\n      0xffffffffffffffffffffffffffffffffffffffff\n      and\n      eq\n        /* \"contracts/auction.sol\":2968:3275  if(msg.sender == highestBidder){... */\n      iszero\n      tag_162\n      jumpi\n        /* \"contracts/auction.sol\":3032:3045  highestBidder */\n      0x07\n      0x00\n      swap1\n      sload\n      swap1\n      0x0100\n      exp\n      swap1\n      div\n      0xffffffffffffffffffffffffffffffffffffffff\n      and\n        /* \"contracts/auction.sol\":3023:3045  person = highestBidder */\n      swap2\n      pop\n        /* \"contracts/auction.sol\":3096:3115  highest_payable_bid */\n      sload(0x05)\n        /* \"contracts/auction.sol\":3076:3080  bids */\n      0x09\n        /* \"contracts/auction.sol\":3076:3095  bids[highestBidder] */\n      0x00\n        /* \"contracts/auction.sol\":3081:3094  highestBidder */\n      0x07\n      0x00\n      swap1\n      sload\n      swap1\n      0x0100\n      exp\n      swap1\n      div\n      0xffffffffffffffffffffffffffffffffffffffff\n      and\n        /* \"contracts/auction.sol\":3076:3095  bids[highestBidder] */\n      0xffffffffffffffffffffffffffffffffffffffff\n      and\n      0xffffffffffffffffffffffffffffffffffffffff\n      and\n      dup2\n      mstore\n      0x20\n      add\n      swap1\n      dup2\n      mstore\n      0x20\n      add\n      0x00\n      keccak256\n      sload\n        /* \"contracts/auction.sol\":3076:3115  bids[highestBidder]-highest_payable_bid */\n      tag_163\n      swap2\n      swap1\n      tag_164\n      jump\t// in\n    tag_163:\n        /* \"contracts/auction.sol\":3068:3115  value = bids[highestBidder]-highest_payable_bid */\n      swap1\n      pop\n        /* \"contracts/auction.sol\":2968:3275  if(msg.sender == highestBidder){... */\n      jump(tag_165)\n    tag_162:\n        /* \"contracts/auction.sol\":3197:3207  msg.sender */\n      caller\n        /* \"contracts/auction.sol\":3180:3208  person = payable(msg.sender) */\n      swap2\n      pop\n        /* \"contracts/auction.sol\":3239:3243  bids */\n      0x09\n        /* \"contracts/auction.sol\":3239:3255  bids[msg.sender] */\n      0x00\n        /* \"contracts/auction.sol\":3244:3254  msg.sender */\n      caller\n        /* \"contracts/auction.sol\":3239:3255  bids[msg.sender] */\n      0xffffffffffffffffffffffffffffffffffffffff\n      and\n      0xffffffffffffffffffffffffffffffffffffffff\n      and\n      dup2\n      mstore\n      0x20\n      add\n      swap1\n      dup2\n      mstore\n      0x20\n      add\n      0x00\n      keccak256\n      sload\n        /* \"contracts/auction.sol\":3231:3255  value = bids[msg.sender] */\n      swap1\n      pop\n        /* \"contracts/auction.sol\":2968:3275  if(msg.sender == highestBidder){... */\n    tag_165:\n        /* \"contracts/auction.sol\":2801:3290  if(msg.sender == auctioneer){... */\n    tag_161:\n        /* \"contracts/auction.sol\":2635:3301  if(auctionState == Auction_State.Cancelled){... */\n    tag_159:\n        /* \"contracts/auction.sol\":3328:3329  0 */\n      0x00\n        /* \"contracts/auction.sol\":3311:3315  bids */\n      0x09\n        /* \"contracts/auction.sol\":3311:3327  bids[msg.sender] */\n      0x00\n        /* \"contracts/auction.sol\":3316:3326  msg.sender */\n      caller\n        /* \"contracts/auction.sol\":3311:3327  bids[msg.sender] */\n      0xffffffffffffffffffffffffffffffffffffffff\n      and\n      0xffffffffffffffffffffffffffffffffffffffff\n      and\n      dup2\n      mstore\n      0x20\n      add\n      swap1\n      dup2\n      mstore\n      0x20\n      add\n      0x00\n      keccak256\n        /* \"contracts/auction.sol\":3311:3329  bids[msg.sender]=0 */\n      dup2\n      swap1\n      sstore\n      pop\n        /* \"contracts/auction.sol\":3340:3346  person */\n      dup2\n        /* \"contracts/auction.sol\":3340:3355  person.transfer */\n      0xffffffffffffffffffffffffffffffffffffffff\n      and\n        /* \"contracts/auction.sol\":3340:3362  person.transfer(value) */\n      0x08fc\n        /* \"contracts/auction.sol\":3356:3361  value */\n      dup3\n        /* \"contracts/auction.sol\":3340:3362  person.transfer(value) */\n      swap1\n      dup2\n      iszero\n      mul\n      swap1\n      mload(0x40)\n      0x00\n      mload(0x40)\n      dup1\n      dup4\n      sub\n      dup2\n      dup6\n      dup9\n      dup9\n      call\n      swap4\n      pop\n      pop\n      pop\n      pop\n      iszero\n      dup1\n      iszero\n      tag_167\n      jumpi\n      returndatasize\n      0x00\n      dup1\n      returndatacopy\n      revert(0x00, returndatasize)\n    tag_167:\n      pop\n        /* \"contracts/auction.sol\":2378:3370  {... */\n      pop\n      pop\n        /* \"contracts/auction.sol\":2349:3370  function finalizeAuc() public{... */\n      jump\t// out\n        /* \"contracts/auction.sol\":2249:2343  function getBalance(address addr) public view returns(uint) {... */\n    tag_89:\n        /* \"contracts/auction.sol\":2303:2307  uint */\n      0x00\n        /* \"contracts/auction.sol\":2327:2329  xp */\n      0x08\n        /* \"contracts/auction.sol\":2327:2335  xp[addr] */\n      0x00\n        /* \"contracts/auction.sol\":2330:2334  addr */\n      dup4\n        /* \"contracts/auction.sol\":2327:2335  xp[addr] */\n      0xffffffffffffffffffffffffffffffffffffffff\n      and\n      0xffffffffffffffffffffffffffffffffffffffff\n      and\n      dup2\n      mstore\n      0x20\n      add\n      swap1\n      dup2\n      mstore\n      0x20\n      add\n      0x00\n      keccak256\n      sload\n        /* \"contracts/auction.sol\":2320:2335  return xp[addr] */\n      swap1\n      pop\n        /* \"contracts/auction.sol\":2249:2343  function getBalance(address addr) public view returns(uint) {... */\n      swap2\n      swap1\n      pop\n      jump\t// out\n        /* \"contracts/auction.sol\":1400:1537  function min(uint a , uint b) pure private returns (uint){... */\n    tag_113:\n        /* \"contracts/auction.sol\":1452:1456  uint */\n      0x00\n        /* \"contracts/auction.sol\":1474:1475  b */\n      dup2\n        /* \"contracts/auction.sol\":1471:1472  a */\n      dup4\n        /* \"contracts/auction.sol\":1471:1475  a<=b */\n      gt\n        /* \"contracts/auction.sol\":1468:1527  if(a<=b)... */\n      tag_170\n      jumpi\n        /* \"contracts/auction.sol\":1493:1494  a */\n      dup3\n        /* \"contracts/auction.sol\":1486:1494  return a */\n      swap1\n      pop\n      jump(tag_169)\n        /* \"contracts/auction.sol\":1468:1527  if(a<=b)... */\n    tag_170:\n        /* \"contracts/auction.sol\":1526:1527  b */\n      dup2\n        /* \"contracts/auction.sol\":1519:1527  return b */\n      swap1\n      pop\n        /* \"contracts/auction.sol\":1400:1537  function min(uint a , uint b) pure private returns (uint){... */\n    tag_169:\n      swap3\n      swap2\n      pop\n      pop\n      jump\t// out\n        /* \"#utility.yul\":88:205   */\n    tag_173:\n        /* \"#utility.yul\":197:198   */\n      0x00\n        /* \"#utility.yul\":194:195   */\n      dup1\n        /* \"#utility.yul\":187:199   */\n      revert\n        /* \"#utility.yul\":334:460   */\n    tag_175:\n        /* \"#utility.yul\":371:378   */\n      0x00\n        /* \"#utility.yul\":411:453   */\n      0xffffffffffffffffffffffffffffffffffffffff\n        /* \"#utility.yul\":404:409   */\n      dup3\n        /* \"#utility.yul\":400:454   */\n      and\n        /* \"#utility.yul\":389:454   */\n      swap1\n      pop\n        /* \"#utility.yul\":334:460   */\n      swap2\n      swap1\n      pop\n      jump\t// out\n        /* \"#utility.yul\":466:562   */\n    tag_176:\n        /* \"#utility.yul\":503:510   */\n      0x00\n        /* \"#utility.yul\":532:556   */\n      tag_214\n        /* \"#utility.yul\":550:555   */\n      dup3\n        /* \"#utility.yul\":532:556   */\n      tag_175\n      jump\t// in\n    tag_214:\n        /* \"#utility.yul\":521:556   */\n      swap1\n      pop\n        /* \"#utility.yul\":466:562   */\n      swap2\n      swap1\n      pop\n      jump\t// out\n        /* \"#utility.yul\":568:690   */\n    tag_177:\n        /* \"#utility.yul\":641:665   */\n      tag_216\n        /* \"#utility.yul\":659:664   */\n      dup2\n        /* \"#utility.yul\":641:665   */\n      tag_176\n      jump\t// in\n    tag_216:\n        /* \"#utility.yul\":634:639   */\n      dup2\n        /* \"#utility.yul\":631:666   */\n      eq\n        /* \"#utility.yul\":621:684   */\n      tag_217\n      jumpi\n        /* \"#utility.yul\":680:681   */\n      0x00\n        /* \"#utility.yul\":677:678   */\n      dup1\n        /* \"#utility.yul\":670:682   */\n      revert\n        /* \"#utility.yul\":621:684   */\n    tag_217:\n        /* \"#utility.yul\":568:690   */\n      pop\n      jump\t// out\n        /* \"#utility.yul\":696:835   */\n    tag_178:\n        /* \"#utility.yul\":742:747   */\n      0x00\n        /* \"#utility.yul\":780:786   */\n      dup2\n        /* \"#utility.yul\":767:787   */\n      calldataload\n        /* \"#utility.yul\":758:787   */\n      swap1\n      pop\n        /* \"#utility.yul\":796:829   */\n      tag_219\n        /* \"#utility.yul\":823:828   */\n      dup2\n        /* \"#utility.yul\":796:829   */\n      tag_177\n      jump\t// in\n    tag_219:\n        /* \"#utility.yul\":696:835   */\n      swap3\n      swap2\n      pop\n      pop\n      jump\t// out\n        /* \"#utility.yul\":841:1170   */\n    tag_24:\n        /* \"#utility.yul\":900:906   */\n      0x00\n        /* \"#utility.yul\":949:951   */\n      0x20\n        /* \"#utility.yul\":937:946   */\n      dup3\n        /* \"#utility.yul\":928:935   */\n      dup5\n        /* \"#utility.yul\":924:947   */\n      sub\n        /* \"#utility.yul\":920:952   */\n      slt\n        /* \"#utility.yul\":917:1036   */\n      iszero\n      tag_221\n      jumpi\n        /* \"#utility.yul\":955:1034   */\n      tag_222\n      tag_173\n      jump\t// in\n    tag_222:\n        /* \"#utility.yul\":917:1036   */\n    tag_221:\n        /* \"#utility.yul\":1075:1076   */\n      0x00\n        /* \"#utility.yul\":1100:1153   */\n      tag_223\n        /* \"#utility.yul\":1145:1152   */\n      dup5\n        /* \"#utility.yul\":1136:1142   */\n      dup3\n        /* \"#utility.yul\":1125:1134   */\n      dup6\n        /* \"#utility.yul\":1121:1143   */\n      add\n        /* \"#utility.yul\":1100:1153   */\n      tag_178\n      jump\t// in\n    tag_223:\n        /* \"#utility.yul\":1090:1153   */\n      swap2\n      pop\n        /* \"#utility.yul\":1046:1163   */\n      pop\n        /* \"#utility.yul\":841:1170   */\n      swap3\n      swap2\n      pop\n      pop\n      jump\t// out\n        /* \"#utility.yul\":1176:1253   */\n    tag_179:\n        /* \"#utility.yul\":1213:1220   */\n      0x00\n        /* \"#utility.yul\":1242:1247   */\n      dup2\n        /* \"#utility.yul\":1231:1247   */\n      swap1\n      pop\n        /* \"#utility.yul\":1176:1253   */\n      swap2\n      swap1\n      pop\n      jump\t// out\n        /* \"#utility.yul\":1259:1377   */\n    tag_180:\n        /* \"#utility.yul\":1346:1370   */\n      tag_226\n        /* \"#utility.yul\":1364:1369   */\n      dup2\n        /* \"#utility.yul\":1346:1370   */\n      tag_179\n      jump\t// in\n    tag_226:\n        /* \"#utility.yul\":1341:1344   */\n      dup3\n        /* \"#utility.yul\":1334:1371   */\n      mstore\n        /* \"#utility.yul\":1259:1377   */\n      pop\n      pop\n      jump\t// out\n        /* \"#utility.yul\":1383:1605   */\n    tag_27:\n        /* \"#utility.yul\":1476:1480   */\n      0x00\n        /* \"#utility.yul\":1514:1516   */\n      0x20\n        /* \"#utility.yul\":1503:1512   */\n      dup3\n        /* \"#utility.yul\":1499:1517   */\n      add\n        /* \"#utility.yul\":1491:1517   */\n      swap1\n      pop\n        /* \"#utility.yul\":1527:1598   */\n      tag_228\n        /* \"#utility.yul\":1595:1596   */\n      0x00\n        /* \"#utility.yul\":1584:1593   */\n      dup4\n        /* \"#utility.yul\":1580:1597   */\n      add\n        /* \"#utility.yul\":1571:1577   */\n      dup5\n        /* \"#utility.yul\":1527:1598   */\n      tag_180\n      jump\t// in\n    tag_228:\n        /* \"#utility.yul\":1383:1605   */\n      swap3\n      swap2\n      pop\n      pop\n      jump\t// out\n        /* \"#utility.yul\":1611:1715   */\n    tag_181:\n        /* \"#utility.yul\":1656:1663   */\n      0x00\n        /* \"#utility.yul\":1685:1709   */\n      tag_230\n        /* \"#utility.yul\":1703:1708   */\n      dup3\n        /* \"#utility.yul\":1685:1709   */\n      tag_175\n      jump\t// in\n    tag_230:\n        /* \"#utility.yul\":1674:1709   */\n      swap1\n      pop\n        /* \"#utility.yul\":1611:1715   */\n      swap2\n      swap1\n      pop\n      jump\t// out\n        /* \"#utility.yul\":1721:1863   */\n    tag_182:\n        /* \"#utility.yul\":1824:1856   */\n      tag_232\n        /* \"#utility.yul\":1850:1855   */\n      dup2\n        /* \"#utility.yul\":1824:1856   */\n      tag_181\n      jump\t// in\n    tag_232:\n        /* \"#utility.yul\":1819:1822   */\n      dup3\n        /* \"#utility.yul\":1812:1857   */\n      mstore\n        /* \"#utility.yul\":1721:1863   */\n      pop\n      pop\n      jump\t// out\n        /* \"#utility.yul\":1869:2123   */\n    tag_40:\n        /* \"#utility.yul\":1978:1982   */\n      0x00\n        /* \"#utility.yul\":2016:2018   */\n      0x20\n        /* \"#utility.yul\":2005:2014   */\n      dup3\n        /* \"#utility.yul\":2001:2019   */\n      add\n        /* \"#utility.yul\":1993:2019   */\n      swap1\n      pop\n        /* \"#utility.yul\":2029:2116   */\n      tag_234\n        /* \"#utility.yul\":2113:2114   */\n      0x00\n        /* \"#utility.yul\":2102:2111   */\n      dup4\n        /* \"#utility.yul\":2098:2115   */\n      add\n        /* \"#utility.yul\":2089:2095   */\n      dup5\n        /* \"#utility.yul\":2029:2116   */\n      tag_182\n      jump\t// in\n    tag_234:\n        /* \"#utility.yul\":1869:2123   */\n      swap3\n      swap2\n      pop\n      pop\n      jump\t// out\n        /* \"#utility.yul\":2129:2309   */\n    tag_102:\n        /* \"#utility.yul\":2177:2254   */\n      0x4e487b7100000000000000000000000000000000000000000000000000000000\n        /* \"#utility.yul\":2174:2175   */\n      0x00\n        /* \"#utility.yul\":2167:2255   */\n      mstore\n        /* \"#utility.yul\":2274:2278   */\n      0x21\n        /* \"#utility.yul\":2271:2272   */\n      0x04\n        /* \"#utility.yul\":2264:2279   */\n      mstore\n        /* \"#utility.yul\":2298:2302   */\n      0x24\n        /* \"#utility.yul\":2295:2296   */\n      0x00\n        /* \"#utility.yul\":2288:2303   */\n      revert\n        /* \"#utility.yul\":2315:2436   */\n    tag_183:\n        /* \"#utility.yul\":2404:2405   */\n      0x04\n        /* \"#utility.yul\":2397:2402   */\n      dup2\n        /* \"#utility.yul\":2394:2406   */\n      lt\n        /* \"#utility.yul\":2384:2430   */\n      tag_237\n      jumpi\n        /* \"#utility.yul\":2410:2428   */\n      tag_238\n      tag_102\n      jump\t// in\n    tag_238:\n        /* \"#utility.yul\":2384:2430   */\n    tag_237:\n        /* \"#utility.yul\":2315:2436   */\n      pop\n      jump\t// out\n        /* \"#utility.yul\":2442:2585   */\n    tag_184:\n        /* \"#utility.yul\":2495:2502   */\n      0x00\n        /* \"#utility.yul\":2524:2529   */\n      dup2\n        /* \"#utility.yul\":2513:2529   */\n      swap1\n      pop\n        /* \"#utility.yul\":2530:2579   */\n      tag_240\n        /* \"#utility.yul\":2573:2578   */\n      dup3\n        /* \"#utility.yul\":2530:2579   */\n      tag_183\n      jump\t// in\n    tag_240:\n        /* \"#utility.yul\":2442:2585   */\n      swap2\n      swap1\n      pop\n      jump\t// out\n        /* \"#utility.yul\":2591:2734   */\n    tag_185:\n        /* \"#utility.yul\":2655:2664   */\n      0x00\n        /* \"#utility.yul\":2688:2728   */\n      tag_242\n        /* \"#utility.yul\":2722:2727   */\n      dup3\n        /* \"#utility.yul\":2688:2728   */\n      tag_184\n      jump\t// in\n    tag_242:\n        /* \"#utility.yul\":2675:2728   */\n      swap1\n      pop\n        /* \"#utility.yul\":2591:2734   */\n      swap2\n      swap1\n      pop\n      jump\t// out\n        /* \"#utility.yul\":2740:2899   */\n    tag_186:\n        /* \"#utility.yul\":2841:2892   */\n      tag_244\n        /* \"#utility.yul\":2886:2891   */\n      dup2\n        /* \"#utility.yul\":2841:2892   */\n      tag_185\n      jump\t// in\n    tag_244:\n        /* \"#utility.yul\":2836:2839   */\n      dup3\n        /* \"#utility.yul\":2829:2893   */\n      mstore\n        /* \"#utility.yul\":2740:2899   */\n      pop\n      pop\n      jump\t// out\n        /* \"#utility.yul\":2905:3155   */\n    tag_54:\n        /* \"#utility.yul\":3012:3016   */\n      0x00\n        /* \"#utility.yul\":3050:3052   */\n      0x20\n        /* \"#utility.yul\":3039:3048   */\n      dup3\n        /* \"#utility.yul\":3035:3053   */\n      add\n        /* \"#utility.yul\":3027:3053   */\n      swap1\n      pop\n        /* \"#utility.yul\":3063:3148   */\n      tag_246\n        /* \"#utility.yul\":3145:3146   */\n      0x00\n        /* \"#utility.yul\":3134:3143   */\n      dup4\n        /* \"#utility.yul\":3130:3147   */\n      add\n        /* \"#utility.yul\":3121:3127   */\n      dup5\n        /* \"#utility.yul\":3063:3148   */\n      tag_186\n      jump\t// in\n    tag_246:\n        /* \"#utility.yul\":2905:3155   */\n      swap3\n      swap2\n      pop\n      pop\n      jump\t// out\n        /* \"#utility.yul\":3161:3237   */\n    tag_187:\n        /* \"#utility.yul\":3197:3204   */\n      0x00\n        /* \"#utility.yul\":3226:3231   */\n      dup2\n        /* \"#utility.yul\":3215:3231   */\n      swap1\n      pop\n        /* \"#utility.yul\":3161:3237   */\n      swap2\n      swap1\n      pop\n      jump\t// out\n        /* \"#utility.yul\":3243:3363   */\n    tag_188:\n        /* \"#utility.yul\":3315:3338   */\n      tag_249\n        /* \"#utility.yul\":3332:3337   */\n      dup2\n        /* \"#utility.yul\":3315:3338   */\n      tag_187\n      jump\t// in\n    tag_249:\n        /* \"#utility.yul\":3308:3313   */\n      dup2\n        /* \"#utility.yul\":3305:3339   */\n      eq\n        /* \"#utility.yul\":3295:3357   */\n      tag_250\n      jumpi\n        /* \"#utility.yul\":3353:3354   */\n      0x00\n        /* \"#utility.yul\":3350:3351   */\n      dup1\n        /* \"#utility.yul\":3343:3355   */\n      revert\n        /* \"#utility.yul\":3295:3357   */\n    tag_250:\n        /* \"#utility.yul\":3243:3363   */\n      pop\n      jump\t// out\n        /* \"#utility.yul\":3369:3506   */\n    tag_189:\n        /* \"#utility.yul\":3414:3419   */\n      0x00\n        /* \"#utility.yul\":3452:3458   */\n      dup2\n        /* \"#utility.yul\":3439:3459   */\n      calldataload\n        /* \"#utility.yul\":3430:3459   */\n      swap1\n      pop\n        /* \"#utility.yul\":3468:3500   */\n      tag_252\n        /* \"#utility.yul\":3494:3499   */\n      dup2\n        /* \"#utility.yul\":3468:3500   */\n      tag_188\n      jump\t// in\n    tag_252:\n        /* \"#utility.yul\":3369:3506   */\n      swap3\n      swap2\n      pop\n      pop\n      jump\t// out\n        /* \"#utility.yul\":3512:3839   */\n    tag_58:\n        /* \"#utility.yul\":3570:3576   */\n      0x00\n        /* \"#utility.yul\":3619:3621   */\n      0x20\n        /* \"#utility.yul\":3607:3616   */\n      dup3\n        /* \"#utility.yul\":3598:3605   */\n      dup5\n        /* \"#utility.yul\":3594:3617   */\n      sub\n        /* \"#utility.yul\":3590:3622   */\n      slt\n        /* \"#utility.yul\":3587:3706   */\n      iszero\n      tag_254\n      jumpi\n        /* \"#utility.yul\":3625:3704   */\n      tag_255\n      tag_173\n      jump\t// in\n    tag_255:\n        /* \"#utility.yul\":3587:3706   */\n    tag_254:\n        /* \"#utility.yul\":3745:3746   */\n      0x00\n        /* \"#utility.yul\":3770:3822   */\n      tag_256\n        /* \"#utility.yul\":3814:3821   */\n      dup5\n        /* \"#utility.yul\":3805:3811   */\n      dup3\n        /* \"#utility.yul\":3794:3803   */\n      dup6\n        /* \"#utility.yul\":3790:3812   */\n      add\n        /* \"#utility.yul\":3770:3822   */\n      tag_189\n      jump\t// in\n    tag_256:\n        /* \"#utility.yul\":3760:3822   */\n      swap2\n      pop\n        /* \"#utility.yul\":3716:3832   */\n      pop\n        /* \"#utility.yul\":3512:3839   */\n      swap3\n      swap2\n      pop\n      pop\n      jump\t// out\n        /* \"#utility.yul\":3845:3922   */\n    tag_190:\n        /* \"#utility.yul\":3882:3889   */\n      0x00\n        /* \"#utility.yul\":3911:3916   */\n      dup2\n        /* \"#utility.yul\":3900:3916   */\n      swap1\n      pop\n        /* \"#utility.yul\":3845:3922   */\n      swap2\n      swap1\n      pop\n      jump\t// out\n        /* \"#utility.yul\":3928:4046   */\n    tag_191:\n        /* \"#utility.yul\":4015:4039   */\n      tag_259\n        /* \"#utility.yul\":4033:4038   */\n      dup2\n        /* \"#utility.yul\":4015:4039   */\n      tag_190\n      jump\t// in\n    tag_259:\n        /* \"#utility.yul\":4010:4013   */\n      dup3\n        /* \"#utility.yul\":4003:4040   */\n      mstore\n        /* \"#utility.yul\":3928:4046   */\n      pop\n      pop\n      jump\t// out\n        /* \"#utility.yul\":4052:4384   */\n    tag_61:\n        /* \"#utility.yul\":4173:4177   */\n      0x00\n        /* \"#utility.yul\":4211:4213   */\n      0x40\n        /* \"#utility.yul\":4200:4209   */\n      dup3\n        /* \"#utility.yul\":4196:4214   */\n      add\n        /* \"#utility.yul\":4188:4214   */\n      swap1\n      pop\n        /* \"#utility.yul\":4224:4295   */\n      tag_261\n        /* \"#utility.yul\":4292:4293   */\n      0x00\n        /* \"#utility.yul\":4281:4290   */\n      dup4\n        /* \"#utility.yul\":4277:4294   */\n      add\n        /* \"#utility.yul\":4268:4274   */\n      dup6\n        /* \"#utility.yul\":4224:4295   */\n      tag_191\n      jump\t// in\n    tag_261:\n        /* \"#utility.yul\":4305:4377   */\n      tag_262\n        /* \"#utility.yul\":4373:4375   */\n      0x20\n        /* \"#utility.yul\":4362:4371   */\n      dup4\n        /* \"#utility.yul\":4358:4376   */\n      add\n        /* \"#utility.yul\":4349:4355   */\n      dup5\n        /* \"#utility.yul\":4305:4377   */\n      tag_191\n      jump\t// in\n    tag_262:\n        /* \"#utility.yul\":4052:4384   */\n      swap4\n      swap3\n      pop\n      pop\n      pop\n      jump\t// out\n        /* \"#utility.yul\":4390:4612   */\n    tag_82:\n        /* \"#utility.yul\":4483:4487   */\n      0x00\n        /* \"#utility.yul\":4521:4523   */\n      0x20\n        /* \"#utility.yul\":4510:4519   */\n      dup3\n        /* \"#utility.yul\":4506:4524   */\n      add\n        /* \"#utility.yul\":4498:4524   */\n      swap1\n      pop\n        /* \"#utility.yul\":4534:4605   */\n      tag_264\n        /* \"#utility.yul\":4602:4603   */\n      0x00\n        /* \"#utility.yul\":4591:4600   */\n      dup4\n        /* \"#utility.yul\":4587:4604   */\n      add\n        /* \"#utility.yul\":4578:4584   */\n      dup5\n        /* \"#utility.yul\":4534:4605   */\n      tag_191\n      jump\t// in\n    tag_264:\n        /* \"#utility.yul\":4390:4612   */\n      swap3\n      swap2\n      pop\n      pop\n      jump\t// out\n        /* \"#utility.yul\":4618:4787   */\n    tag_192:\n        /* \"#utility.yul\":4702:4713   */\n      0x00\n        /* \"#utility.yul\":4736:4742   */\n      dup3\n        /* \"#utility.yul\":4731:4734   */\n      dup3\n        /* \"#utility.yul\":4724:4743   */\n      mstore\n        /* \"#utility.yul\":4776:4780   */\n      0x20\n        /* \"#utility.yul\":4771:4774   */\n      dup3\n        /* \"#utility.yul\":4767:4781   */\n      add\n        /* \"#utility.yul\":4752:4781   */\n      swap1\n      pop\n        /* \"#utility.yul\":4618:4787   */\n      swap3\n      swap2\n      pop\n      pop\n      jump\t// out\n        /* \"#utility.yul\":4793:4959   */\n    tag_193:\n        /* \"#utility.yul\":4933:4951   */\n      0x4f776e65722063616e6e6f742062696400000000000000000000000000000000\n        /* \"#utility.yul\":4929:4930   */\n      0x00\n        /* \"#utility.yul\":4921:4927   */\n      dup3\n        /* \"#utility.yul\":4917:4931   */\n      add\n        /* \"#utility.yul\":4910:4952   */\n      mstore\n        /* \"#utility.yul\":4793:4959   */\n      pop\n      jump\t// out\n        /* \"#utility.yul\":4965:5331   */\n    tag_194:\n        /* \"#utility.yul\":5107:5110   */\n      0x00\n        /* \"#utility.yul\":5128:5195   */\n      tag_268\n        /* \"#utility.yul\":5192:5194   */\n      0x10\n        /* \"#utility.yul\":5187:5190   */\n      dup4\n        /* \"#utility.yul\":5128:5195   */\n      tag_192\n      jump\t// in\n    tag_268:\n        /* \"#utility.yul\":5121:5195   */\n      swap2\n      pop\n        /* \"#utility.yul\":5204:5297   */\n      tag_269\n        /* \"#utility.yul\":5293:5296   */\n      dup3\n        /* \"#utility.yul\":5204:5297   */\n      tag_193\n      jump\t// in\n    tag_269:\n        /* \"#utility.yul\":5322:5324   */\n      0x20\n        /* \"#utility.yul\":5317:5320   */\n      dup3\n        /* \"#utility.yul\":5313:5325   */\n      add\n        /* \"#utility.yul\":5306:5325   */\n      swap1\n      pop\n        /* \"#utility.yul\":4965:5331   */\n      swap2\n      swap1\n      pop\n      jump\t// out\n        /* \"#utility.yul\":5337:5756   */\n    tag_94:\n        /* \"#utility.yul\":5503:5507   */\n      0x00\n        /* \"#utility.yul\":5541:5543   */\n      0x20\n        /* \"#utility.yul\":5530:5539   */\n      dup3\n        /* \"#utility.yul\":5526:5544   */\n      add\n        /* \"#utility.yul\":5518:5544   */\n      swap1\n      pop\n        /* \"#utility.yul\":5590:5599   */\n      dup2\n        /* \"#utility.yul\":5584:5588   */\n      dup2\n        /* \"#utility.yul\":5580:5600   */\n      sub\n        /* \"#utility.yul\":5576:5577   */\n      0x00\n        /* \"#utility.yul\":5565:5574   */\n      dup4\n        /* \"#utility.yul\":5561:5578   */\n      add\n        /* \"#utility.yul\":5554:5601   */\n      mstore\n        /* \"#utility.yul\":5618:5749   */\n      tag_271\n        /* \"#utility.yul\":5744:5748   */\n      dup2\n        /* \"#utility.yul\":5618:5749   */\n      tag_194\n      jump\t// in\n    tag_271:\n        /* \"#utility.yul\":5610:5749   */\n      swap1\n      pop\n        /* \"#utility.yul\":5337:5756   */\n      swap2\n      swap1\n      pop\n      jump\t// out\n        /* \"#utility.yul\":5762:5942   */\n    tag_195:\n        /* \"#utility.yul\":5810:5887   */\n      0x4e487b7100000000000000000000000000000000000000000000000000000000\n        /* \"#utility.yul\":5807:5808   */\n      0x00\n        /* \"#utility.yul\":5800:5888   */\n      mstore\n        /* \"#utility.yul\":5907:5911   */\n      0x11\n        /* \"#utility.yul\":5904:5905   */\n      0x04\n        /* \"#utility.yul\":5897:5912   */\n      mstore\n        /* \"#utility.yul\":5931:5935   */\n      0x24\n        /* \"#utility.yul\":5928:5929   */\n      0x00\n        /* \"#utility.yul\":5921:5936   */\n      revert\n        /* \"#utility.yul\":5948:6253   */\n    tag_108:\n        /* \"#utility.yul\":5988:5991   */\n      0x00\n        /* \"#utility.yul\":6007:6027   */\n      tag_274\n        /* \"#utility.yul\":6025:6026   */\n      dup3\n        /* \"#utility.yul\":6007:6027   */\n      tag_179\n      jump\t// in\n    tag_274:\n        /* \"#utility.yul\":6002:6027   */\n      swap2\n      pop\n        /* \"#utility.yul\":6041:6061   */\n      tag_275\n        /* \"#utility.yul\":6059:6060   */\n      dup4\n        /* \"#utility.yul\":6041:6061   */\n      tag_179\n      jump\t// in\n    tag_275:\n        /* \"#utility.yul\":6036:6061   */\n      swap3\n      pop\n        /* \"#utility.yul\":6195:6196   */\n      dup3\n        /* \"#utility.yul\":6127:6193   */\n      0xffffffffffffffffffffffffffffffffffffffffffffffffffffffffffffffff\n        /* \"#utility.yul\":6123:6197   */\n      sub\n        /* \"#utility.yul\":6120:6121   */\n      dup3\n        /* \"#utility.yul\":6117:6198   */\n      gt\n        /* \"#utility.yul\":6114:6221   */\n      iszero\n      tag_276\n      jumpi\n        /* \"#utility.yul\":6201:6219   */\n      tag_277\n      tag_195\n      jump\t// in\n    tag_277:\n        /* \"#utility.yul\":6114:6221   */\n    tag_276:\n        /* \"#utility.yul\":6245:6246   */\n      dup3\n        /* \"#utility.yul\":6242:6243   */\n      dup3\n        /* \"#utility.yul\":6238:6247   */\n      add\n        /* \"#utility.yul\":6231:6247   */\n      swap1\n      pop\n        /* \"#utility.yul\":5948:6253   */\n      swap3\n      swap2\n      pop\n      pop\n      jump\t// out\n        /* \"#utility.yul\":6259:6338   */\n    tag_196:\n        /* \"#utility.yul\":6298:6305   */\n      0x00\n        /* \"#utility.yul\":6327:6332   */\n      dup2\n        /* \"#utility.yul\":6316:6332   */\n      swap1\n      pop\n        /* \"#utility.yul\":6259:6338   */\n      swap2\n      swap1\n      pop\n      jump\t// out\n        /* \"#utility.yul\":6344:6501   */\n    tag_197:\n        /* \"#utility.yul\":6449:6494   */\n      tag_280\n        /* \"#utility.yul\":6469:6493   */\n      tag_281\n        /* \"#utility.yul\":6487:6492   */\n      dup3\n        /* \"#utility.yul\":6469:6493   */\n      tag_179\n      jump\t// in\n    tag_281:\n        /* \"#utility.yul\":6449:6494   */\n      tag_196\n      jump\t// in\n    tag_280:\n        /* \"#utility.yul\":6444:6447   */\n      dup3\n        /* \"#utility.yul\":6437:6495   */\n      mstore\n        /* \"#utility.yul\":6344:6501   */\n      pop\n      pop\n      jump\t// out\n        /* \"#utility.yul\":6507:6585   */\n    tag_198:\n        /* \"#utility.yul\":6545:6552   */\n      0x00\n        /* \"#utility.yul\":6574:6579   */\n      dup2\n        /* \"#utility.yul\":6563:6579   */\n      swap1\n      pop\n        /* \"#utility.yul\":6507:6585   */\n      swap2\n      swap1\n      pop\n      jump\t// out\n        /* \"#utility.yul\":6591:6744   */\n    tag_199:\n        /* \"#utility.yul\":6694:6737   */\n      tag_284\n        /* \"#utility.yul\":6713:6736   */\n      tag_285\n        /* \"#utility.yul\":6730:6735   */\n      dup3\n        /* \"#utility.yul\":6713:6736   */\n      tag_187\n      jump\t// in\n    tag_285:\n        /* \"#utility.yul\":6694:6737   */\n      tag_198\n      jump\t// in\n    tag_284:\n        /* \"#utility.yul\":6689:6692   */\n      dup3\n        /* \"#utility.yul\":6682:6738   */\n      mstore\n        /* \"#utility.yul\":6591:6744   */\n      pop\n      pop\n      jump\t// out\n        /* \"#utility.yul\":6750:6829   */\n    tag_200:\n        /* \"#utility.yul\":6789:6796   */\n      0x00\n        /* \"#utility.yul\":6818:6823   */\n      dup2\n        /* \"#utility.yul\":6807:6823   */\n      swap1\n      pop\n        /* \"#utility.yul\":6750:6829   */\n      swap2\n      swap1\n      pop\n      jump\t// out\n        /* \"#utility.yul\":6835:6992   */\n    tag_201:\n        /* \"#utility.yul\":6940:6985   */\n      tag_288\n        /* \"#utility.yul\":6960:6984   */\n      tag_289\n        /* \"#utility.yul\":6978:6983   */\n      dup3\n        /* \"#utility.yul\":6960:6984   */\n      tag_190\n      jump\t// in\n    tag_289:\n        /* \"#utility.yul\":6940:6985   */\n      tag_200\n      jump\t// in\n    tag_288:\n        /* \"#utility.yul\":6935:6938   */\n      dup3\n        /* \"#utility.yul\":6928:6986   */\n      mstore\n        /* \"#utility.yul\":6835:6992   */\n      pop\n      pop\n      jump\t// out\n        /* \"#utility.yul\":6998:7532   */\n    tag_133:\n        /* \"#utility.yul\":7164:7167   */\n      0x00\n        /* \"#utility.yul\":7179:7254   */\n      tag_291\n        /* \"#utility.yul\":7250:7253   */\n      dup3\n        /* \"#utility.yul\":7241:7247   */\n      dup7\n        /* \"#utility.yul\":7179:7254   */\n      tag_197\n      jump\t// in\n    tag_291:\n        /* \"#utility.yul\":7279:7281   */\n      0x20\n        /* \"#utility.yul\":7274:7277   */\n      dup3\n        /* \"#utility.yul\":7270:7282   */\n      add\n        /* \"#utility.yul\":7263:7282   */\n      swap2\n      pop\n        /* \"#utility.yul\":7292:7365   */\n      tag_292\n        /* \"#utility.yul\":7361:7364   */\n      dup3\n        /* \"#utility.yul\":7352:7358   */\n      dup6\n        /* \"#utility.yul\":7292:7365   */\n      tag_199\n      jump\t// in\n    tag_292:\n        /* \"#utility.yul\":7390:7392   */\n      0x20\n        /* \"#utility.yul\":7385:7388   */\n      dup3\n        /* \"#utility.yul\":7381:7393   */\n      add\n        /* \"#utility.yul\":7374:7393   */\n      swap2\n      pop\n        /* \"#utility.yul\":7403:7478   */\n      tag_293\n        /* \"#utility.yul\":7474:7477   */\n      dup3\n        /* \"#utility.yul\":7465:7471   */\n      dup5\n        /* \"#utility.yul\":7403:7478   */\n      tag_201\n      jump\t// in\n    tag_293:\n        /* \"#utility.yul\":7503:7505   */\n      0x20\n        /* \"#utility.yul\":7498:7501   */\n      dup3\n        /* \"#utility.yul\":7494:7506   */\n      add\n        /* \"#utility.yul\":7487:7506   */\n      swap2\n      pop\n        /* \"#utility.yul\":7523:7526   */\n      dup2\n        /* \"#utility.yul\":7516:7526   */\n      swap1\n      pop\n        /* \"#utility.yul\":6998:7532   */\n      swap5\n      swap4\n      pop\n      pop\n      pop\n      pop\n      jump\t// out\n        /* \"#utility.yul\":7538:7636   */\n    tag_202:\n        /* \"#utility.yul\":7589:7595   */\n      0x00\n        /* \"#utility.yul\":7623:7628   */\n      dup2\n        /* \"#utility.yul\":7617:7629   */\n      mload\n        /* \"#utility.yul\":7607:7629   */\n      swap1\n      pop\n        /* \"#utility.yul\":7538:7636   */\n      swap2\n      swap1\n      pop\n      jump\t// out\n        /* \"#utility.yul\":7642:7789   */\n    tag_203:\n        /* \"#utility.yul\":7743:7754   */\n      0x00\n        /* \"#utility.yul\":7780:7783   */\n      dup2\n        /* \"#utility.yul\":7765:7783   */\n      swap1\n      pop\n        /* \"#utility.yul\":7642:7789   */\n      swap3\n      swap2\n      pop\n      pop\n      jump\t// out\n        /* \"#utility.yul\":7795:8102   */\n    tag_204:\n        /* \"#utility.yul\":7863:7864   */\n      0x00\n        /* \"#utility.yul\":7873:7986   */\n    tag_297:\n        /* \"#utility.yul\":7887:7893   */\n      dup4\n        /* \"#utility.yul\":7884:7885   */\n      dup2\n        /* \"#utility.yul\":7881:7894   */\n      lt\n        /* \"#utility.yul\":7873:7986   */\n      iszero\n      tag_299\n      jumpi\n        /* \"#utility.yul\":7972:7973   */\n      dup1\n        /* \"#utility.yul\":7967:7970   */\n      dup3\n        /* \"#utility.yul\":7963:7974   */\n      add\n        /* \"#utility.yul\":7957:7975   */\n      mload\n        /* \"#utility.yul\":7953:7954   */\n      dup2\n        /* \"#utility.yul\":7948:7951   */\n      dup5\n        /* \"#utility.yul\":7944:7955   */\n      add\n        /* \"#utility.yul\":7937:7976   */\n      mstore\n        /* \"#utility.yul\":7909:7911   */\n      0x20\n        /* \"#utility.yul\":7906:7907   */\n      dup2\n        /* \"#utility.yul\":7902:7912   */\n      add\n        /* \"#utility.yul\":7897:7912   */\n      swap1\n      pop\n        /* \"#utility.yul\":7873:7986   */\n      jump(tag_297)\n    tag_299:\n        /* \"#utility.yul\":8004:8010   */\n      dup4\n        /* \"#utility.yul\":8001:8002   */\n      dup2\n        /* \"#utility.yul\":7998:8011   */\n      gt\n        /* \"#utility.yul\":7995:8096   */\n      iszero\n      tag_300\n      jumpi\n        /* \"#utility.yul\":8084:8085   */\n      0x00\n        /* \"#utility.yul\":8075:8081   */\n      dup5\n        /* \"#utility.yul\":8070:8073   */\n      dup5\n        /* \"#utility.yul\":8066:8082   */\n      add\n        /* \"#utility.yul\":8059:8086   */\n      mstore\n        /* \"#utility.yul\":7995:8096   */\n    tag_300:\n        /* \"#utility.yul\":7844:8102   */\n      pop\n        /* \"#utility.yul\":7795:8102   */\n      pop\n      pop\n      pop\n      jump\t// out\n        /* \"#utility.yul\":8108:8481   */\n    tag_205:\n        /* \"#utility.yul\":8212:8215   */\n      0x00\n        /* \"#utility.yul\":8240:8278   */\n      tag_302\n        /* \"#utility.yul\":8272:8277   */\n      dup3\n        /* \"#utility.yul\":8240:8278   */\n      tag_202\n      jump\t// in\n    tag_302:\n        /* \"#utility.yul\":8294:8382   */\n      tag_303\n        /* \"#utility.yul\":8375:8381   */\n      dup2\n        /* \"#utility.yul\":8370:8373   */\n      dup6\n        /* \"#utility.yul\":8294:8382   */\n      tag_203\n      jump\t// in\n    tag_303:\n        /* \"#utility.yul\":8287:8382   */\n      swap4\n      pop\n        /* \"#utility.yul\":8391:8443   */\n      tag_304\n        /* \"#utility.yul\":8436:8442   */\n      dup2\n        /* \"#utility.yul\":8431:8434   */\n      dup6\n        /* \"#utility.yul\":8424:8428   */\n      0x20\n        /* \"#utility.yul\":8417:8422   */\n      dup7\n        /* \"#utility.yul\":8413:8429   */\n      add\n        /* \"#utility.yul\":8391:8443   */\n      tag_204\n      jump\t// in\n    tag_304:\n        /* \"#utility.yul\":8468:8474   */\n      dup1\n        /* \"#utility.yul\":8463:8466   */\n      dup5\n        /* \"#utility.yul\":8459:8475   */\n      add\n        /* \"#utility.yul\":8452:8475   */\n      swap2\n      pop\n        /* \"#utility.yul\":8216:8481   */\n      pop\n        /* \"#utility.yul\":8108:8481   */\n      swap3\n      swap2\n      pop\n      pop\n      jump\t// out\n        /* \"#utility.yul\":8487:8758   */\n    tag_135:\n        /* \"#utility.yul\":8617:8620   */\n      0x00\n        /* \"#utility.yul\":8639:8732   */\n      tag_306\n        /* \"#utility.yul\":8728:8731   */\n      dup3\n        /* \"#utility.yul\":8719:8725   */\n      dup5\n        /* \"#utility.yul\":8639:8732   */\n      tag_205\n      jump\t// in\n    tag_306:\n        /* \"#utility.yul\":8632:8732   */\n      swap2\n      pop\n        /* \"#utility.yul\":8749:8752   */\n      dup2\n        /* \"#utility.yul\":8742:8752   */\n      swap1\n      pop\n        /* \"#utility.yul\":8487:8758   */\n      swap3\n      swap2\n      pop\n      pop\n      jump\t// out\n        /* \"#utility.yul\":8764:8886   */\n    tag_206:\n        /* \"#utility.yul\":8837:8861   */\n      tag_308\n        /* \"#utility.yul\":8855:8860   */\n      dup2\n        /* \"#utility.yul\":8837:8861   */\n      tag_190\n      jump\t// in\n    tag_308:\n        /* \"#utility.yul\":8830:8835   */\n      dup2\n        /* \"#utility.yul\":8827:8862   */\n      eq\n        /* \"#utility.yul\":8817:8880   */\n      tag_309\n      jumpi\n        /* \"#utility.yul\":8876:8877   */\n      0x00\n        /* \"#utility.yul\":8873:8874   */\n      dup1\n        /* \"#utility.yul\":8866:8878   */\n      revert\n        /* \"#utility.yul\":8817:8880   */\n    tag_309:\n        /* \"#utility.yul\":8764:8886   */\n      pop\n      jump\t// out\n        /* \"#utility.yul\":8892:9035   */\n    tag_207:\n        /* \"#utility.yul\":8949:8954   */\n      0x00\n        /* \"#utility.yul\":8980:8986   */\n      dup2\n        /* \"#utility.yul\":8974:8987   */\n      mload\n        /* \"#utility.yul\":8965:8987   */\n      swap1\n      pop\n        /* \"#utility.yul\":8996:9029   */\n      tag_311\n        /* \"#utility.yul\":9023:9028   */\n      dup2\n        /* \"#utility.yul\":8996:9029   */\n      tag_206\n      jump\t// in\n    tag_311:\n        /* \"#utility.yul\":8892:9035   */\n      swap3\n      swap2\n      pop\n      pop\n      jump\t// out\n        /* \"#utility.yul\":9041:9392   */\n    tag_139:\n        /* \"#utility.yul\":9111:9117   */\n      0x00\n        /* \"#utility.yul\":9160:9162   */\n      0x20\n        /* \"#utility.yul\":9148:9157   */\n      dup3\n        /* \"#utility.yul\":9139:9146   */\n      dup5\n        /* \"#utility.yul\":9135:9158   */\n      sub\n        /* \"#utility.yul\":9131:9163   */\n      slt\n        /* \"#utility.yul\":9128:9247   */\n      iszero\n      tag_313\n      jumpi\n        /* \"#utility.yul\":9166:9245   */\n      tag_314\n      tag_173\n      jump\t// in\n    tag_314:\n        /* \"#utility.yul\":9128:9247   */\n    tag_313:\n        /* \"#utility.yul\":9286:9287   */\n      0x00\n        /* \"#utility.yul\":9311:9375   */\n      tag_315\n        /* \"#utility.yul\":9367:9374   */\n      dup5\n        /* \"#utility.yul\":9358:9364   */\n      dup3\n        /* \"#utility.yul\":9347:9356   */\n      dup6\n        /* \"#utility.yul\":9343:9365   */\n      add\n        /* \"#utility.yul\":9311:9375   */\n      tag_207\n      jump\t// in\n    tag_315:\n        /* \"#utility.yul\":9301:9375   */\n      swap2\n      pop\n        /* \"#utility.yul\":9257:9385   */\n      pop\n        /* \"#utility.yul\":9041:9392   */\n      swap3\n      swap2\n      pop\n      pop\n      jump\t// out\n        /* \"#utility.yul\":9398:9589   */\n    tag_164:\n        /* \"#utility.yul\":9438:9442   */\n      0x00\n        /* \"#utility.yul\":9458:9478   */\n      tag_317\n        /* \"#utility.yul\":9476:9477   */\n      dup3\n        /* \"#utility.yul\":9458:9478   */\n      tag_179\n      jump\t// in\n    tag_317:\n        /* \"#utility.yul\":9453:9478   */\n      swap2\n      pop\n        /* \"#utility.yul\":9492:9512   */\n      tag_318\n        /* \"#utility.yul\":9510:9511   */\n      dup4\n        /* \"#utility.yul\":9492:9512   */\n      tag_179\n      jump\t// in\n    tag_318:\n        /* \"#utility.yul\":9487:9512   */\n      swap3\n      pop\n        /* \"#utility.yul\":9531:9532   */\n      dup3\n        /* \"#utility.yul\":9528:9529   */\n      dup3\n        /* \"#utility.yul\":9525:9533   */\n      lt\n        /* \"#utility.yul\":9522:9556   */\n      iszero\n      tag_319\n      jumpi\n        /* \"#utility.yul\":9536:9554   */\n      tag_320\n      tag_195\n      jump\t// in\n    tag_320:\n        /* \"#utility.yul\":9522:9556   */\n    tag_319:\n        /* \"#utility.yul\":9581:9582   */\n      dup3\n        /* \"#utility.yul\":9578:9579   */\n      dup3\n        /* \"#utility.yul\":9574:9583   */\n      sub\n        /* \"#utility.yul\":9566:9583   */\n      swap1\n      pop\n        /* \"#utility.yul\":9398:9589   */\n      swap3\n      swap2\n      pop\n      pop\n      jump\t// out\n\n    auxdata: 0xa264697066735822122051bebeab4c8abfecdd2aded75c34f35d7bcc1e8e92dc073cb74b5548de08d17a64736f6c634300080b0033\n}\n",
				"bytecode": {
					"linkReferences": {},
					"object": "60806040523480156200001157600080fd5b50336000806101000a81548173ffffffffffffffffffffffffffffffffffffffff021916908373ffffffffffffffffffffffffffffffffffffffff1602179055506001600460006101000a81548160ff021916908360038111156200007b576200007a62000102565b5b02179055504360018190555060f06001546200009891906200016a565b600281905550670de0b6b3a76400006006819055506000600860003273ffffffffffffffffffffffffffffffffffffffff1673ffffffffffffffffffffffffffffffffffffffff168152602001908152602001600020819055506000801b600381905550620001c7565b7f4e487b7100000000000000000000000000000000000000000000000000000000600052602160045260246000fd5b6000819050919050565b7f4e487b7100000000000000000000000000000000000000000000000000000000600052601160045260246000fd5b6000620001778262000131565b9150620001848362000131565b9250827fffffffffffffffffffffffffffffffffffffffffffffffffffffffffffffffff03821115620001bc57620001bb6200013b565b5b828201905092915050565b6113eb80620001d76000396000f3fe6080604052600436106100f35760003560e01c80638c6f2e821161008a578063ce5bd04111610059578063ce5bd041146102ea578063d4d52df414610315578063e07600bd14610340578063f8b2cb4f14610357576100f3565b80638c6f2e821461022b57806391f90157146102695780639d957d4514610294578063a118be02146102bf576100f3565b80635ec2c7bf116100c65780635ec2c7bf1461016d57806362ea82db146101985780637eb695a1146101d55780637fb4509914610200576100f3565b80630490cb74146100f85780631998aeef146101355780632352f3201461013f5780633fdceefd14610156575b600080fd5b34801561010457600080fd5b5061011f600480360381019061011a9190610f06565b610394565b60405161012c9190610f4c565b60405180910390f35b61013d6103ac565b005b34801561014b57600080fd5b50610154610759565b005b34801561016257600080fd5b5061016b610814565b005b34801561017957600080fd5b506101826108cf565b60405161018f9190610f88565b60405180910390f35b3480156101a457600080fd5b506101bf60048036038101906101ba9190610f06565b6108f3565b6040516101cc9190610f4c565b60405180910390f35b3480156101e157600080fd5b506101ea61090b565b6040516101f79190610f4c565b60405180910390f35b34801561020c57600080fd5b50610215610911565b604051610222919061101a565b60405180910390f35b34801561023757600080fd5b50610252600480360381019061024d919061106b565b610924565b6040516102609291906110b1565b60405180910390f35b34801561027557600080fd5b5061027e610a04565b60405161028b9190610f88565b60405180910390f35b3480156102a057600080fd5b506102a9610a2a565b6040516102b69190610f4c565b60405180910390f35b3480156102cb57600080fd5b506102d4610a30565b6040516102e19190610f4c565b60405180910390f35b3480156102f657600080fd5b506102ff610a36565b60405161030c9190610f4c565b60405180910390f35b34801561032157600080fd5b5061032a610a3c565b60405161033791906110da565b60405180910390f35b34801561034c57600080fd5b50610355610a42565b005b34801561036357600080fd5b5061037e60048036038101906103799190610f06565b610e3f565b60405161038b9190610f4c565b60405180910390f35b60086020528060005260406000206000915090505481565b60008054906101000a900473ffffffffffffffffffffffffffffffffffffffff1673ffffffffffffffffffffffffffffffffffffffff163373ffffffffffffffffffffffffffffffffffffffff16141561043b576040517f08c379a000000000000000000000000000000000000000000000000000000000815260040161043290611152565b60405180910390fd5b600154431161044957600080fd5b600254431061045757600080fd5b6000339050600160038111156104705761046f610fa3565b5b600460009054906101000a900460ff16600381111561049257610491610fa3565b5b1461049c57600080fd5b670de0b6b3a76400003410156104b157600080fd5b600034600960003373ffffffffffffffffffffffffffffffffffffffff1673ffffffffffffffffffffffffffffffffffffffff168152602001908152602001600020546104fe91906111a1565b9050600554811161050e57600080fd5b80600960003373ffffffffffffffffffffffffffffffffffffffff1673ffffffffffffffffffffffffffffffffffffffff1681526020019081526020016000208190555060096000600760009054906101000a900473ffffffffffffffffffffffffffffffffffffffff1673ffffffffffffffffffffffffffffffffffffffff1673ffffffffffffffffffffffffffffffffffffffff1681526020019081526020016000205481101561063e57610633600654826105cc91906111a1565b60096000600760009054906101000a900473ffffffffffffffffffffffffffffffffffffffff1673ffffffffffffffffffffffffffffffffffffffff1673ffffffffffffffffffffffffffffffffffffffff16815260200190815260200160002054610e88565b6005819055506106fe565b6106b68160065460096000600760009054906101000a900473ffffffffffffffffffffffffffffffffffffffff1673ffffffffffffffffffffffffffffffffffffffff1673ffffffffffffffffffffffffffffffffffffffff168152602001908152602001600020546106b191906111a1565b610e88565b60058190555033600760006101000a81548173ffffffffffffffffffffffffffffffffffffffff021916908373ffffffffffffffffffffffffffffffffffffffff1602179055505b6001600860008473ffffffffffffffffffffffffffffffffffffffff1673ffffffffffffffffffffffffffffffffffffffff168152602001908152602001600020600082825461074e91906111a1565b925050819055505050565b60008054906101000a900473ffffffffffffffffffffffffffffffffffffffff1673ffffffffffffffffffffffffffffffffffffffff163373ffffffffffffffffffffffffffffffffffffffff16146107e7576040517f08c379a00000000000000000000000000000000000000000000000000000000081526004016107de90611152565b60405180910390fd5b6003600460006101000a81548160ff0219169083600381111561080d5761080c610fa3565b5b0217905550565b60008054906101000a900473ffffffffffffffffffffffffffffffffffffffff1673ffffffffffffffffffffffffffffffffffffffff163373ffffffffffffffffffffffffffffffffffffffff16146108a2576040517f08c379a000000000000000000000000000000000000000000000000000000000815260040161089990611152565b60405180910390fd5b6002600460006101000a81548160ff021916908360038111156108c8576108c7610fa3565b5b0217905550565b60008054906101000a900473ffffffffffffffffffffffffffffffffffffffff1681565b60096020528060005260406000206000915090505481565b60055481565b600460009054906101000a900460ff1681565b600080600760009054906101000a900473ffffffffffffffffffffffffffffffffffffffff1673ffffffffffffffffffffffffffffffffffffffff163373ffffffffffffffffffffffffffffffffffffffff161461098157600080fd5b6000429050600281858460405160200161099d9392919061125a565b6040516020818303038152906040526040516109b99190611311565b602060405180830381855afa1580156109d6573d6000803e3d6000fd5b5050506040513d601f19601f820116820180604052508101906109f99190611354565b925082915050915091565b600760009054906101000a900473ffffffffffffffffffffffffffffffffffffffff1681565b60025481565b60015481565b60065481565b60035481565b600380811115610a5557610a54610fa3565b5b600460009054906101000a900460ff166003811115610a7757610a76610fa3565b5b1480610ab6575060026003811115610a9257610a91610fa3565b5b600460009054906101000a900460ff166003811115610ab457610ab3610fa3565b5b145b80610ac2575060025443115b610acb57600080fd5b60008054906101000a900473ffffffffffffffffffffffffffffffffffffffff1673ffffffffffffffffffffffffffffffffffffffff163373ffffffffffffffffffffffffffffffffffffffff161480610b6457506000600960003373ffffffffffffffffffffffffffffffffffffffff1673ffffffffffffffffffffffffffffffffffffffff16815260200190815260200160002054115b610b6d57600080fd5b600080600380811115610b8357610b82610fa3565b5b600460009054906101000a900460ff166003811115610ba557610ba4610fa3565b5b1415610bf557339150600960003373ffffffffffffffffffffffffffffffffffffffff1673ffffffffffffffffffffffffffffffffffffffff168152602001908152602001600020549050610daf565b60008054906101000a900473ffffffffffffffffffffffffffffffffffffffff1673ffffffffffffffffffffffffffffffffffffffff163373ffffffffffffffffffffffffffffffffffffffff161415610c765760008054906101000a900473ffffffffffffffffffffffffffffffffffffffff1691506005549050610dae565b600760009054906101000a900473ffffffffffffffffffffffffffffffffffffffff1673ffffffffffffffffffffffffffffffffffffffff163373ffffffffffffffffffffffffffffffffffffffff161415610d6757600760009054906101000a900473ffffffffffffffffffffffffffffffffffffffff16915060055460096000600760009054906101000a900473ffffffffffffffffffffffffffffffffffffffff1673ffffffffffffffffffffffffffffffffffffffff1673ffffffffffffffffffffffffffffffffffffffff16815260200190815260200160002054610d609190611381565b9050610dad565b339150600960003373ffffffffffffffffffffffffffffffffffffffff1673ffffffffffffffffffffffffffffffffffffffff1681526020019081526020016000205490505b5b5b6000600960003373ffffffffffffffffffffffffffffffffffffffff1673ffffffffffffffffffffffffffffffffffffffff168152602001908152602001600020819055508173ffffffffffffffffffffffffffffffffffffffff166108fc829081150290604051600060405180830381858888f19350505050158015610e3a573d6000803e3d6000fd5b505050565b6000600860008373ffffffffffffffffffffffffffffffffffffffff1673ffffffffffffffffffffffffffffffffffffffff168152602001908152602001600020549050919050565b6000818311610e9957829050610e9d565b8190505b92915050565b600080fd5b600073ffffffffffffffffffffffffffffffffffffffff82169050919050565b6000610ed382610ea8565b9050919050565b610ee381610ec8565b8114610eee57600080fd5b50565b600081359050610f0081610eda565b92915050565b600060208284031215610f1c57610f1b610ea3565b5b6000610f2a84828501610ef1565b91505092915050565b6000819050919050565b610f4681610f33565b82525050565b6000602082019050610f616000830184610f3d565b92915050565b6000610f7282610ea8565b9050919050565b610f8281610f67565b82525050565b6000602082019050610f9d6000830184610f79565b92915050565b7f4e487b7100000000000000000000000000000000000000000000000000000000600052602160045260246000fd5b60048110610fe357610fe2610fa3565b5b50565b6000819050610ff482610fd2565b919050565b600061100482610fe6565b9050919050565b61101481610ff9565b82525050565b600060208201905061102f600083018461100b565b92915050565b6000819050919050565b61104881611035565b811461105357600080fd5b50565b6000813590506110658161103f565b92915050565b60006020828403121561108157611080610ea3565b5b600061108f84828501611056565b91505092915050565b6000819050919050565b6110ab81611098565b82525050565b60006040820190506110c660008301856110a2565b6110d360208301846110a2565b9392505050565b60006020820190506110ef60008301846110a2565b92915050565b600082825260208201905092915050565b7f4f776e65722063616e6e6f742062696400000000000000000000000000000000600082015250565b600061113c6010836110f5565b915061114782611106565b602082019050919050565b6000602082019050818103600083015261116b8161112f565b9050919050565b7f4e487b7100000000000000000000000000000000000000000000000000000000600052601160045260246000fd5b60006111ac82610f33565b91506111b783610f33565b9250827fffffffffffffffffffffffffffffffffffffffffffffffffffffffffffffffff038211156111ec576111eb611172565b5b828201905092915050565b6000819050919050565b61121261120d82610f33565b6111f7565b82525050565b6000819050919050565b61123361122e82611035565b611218565b82525050565b6000819050919050565b61125461124f82611098565b611239565b82525050565b60006112668286611201565b6020820191506112768285611222565b6020820191506112868284611243565b602082019150819050949350505050565b600081519050919050565b600081905092915050565b60005b838110156112cb5780820151818401526020810190506112b0565b838111156112da576000848401525b50505050565b60006112eb82611297565b6112f581856112a2565b93506113058185602086016112ad565b80840191505092915050565b600061131d82846112e0565b915081905092915050565b61133181611098565b811461133c57600080fd5b50565b60008151905061134e81611328565b92915050565b60006020828403121561136a57611369610ea3565b5b60006113788482850161133f565b91505092915050565b600061138c82610f33565b915061139783610f33565b9250828210156113aa576113a9611172565b5b82820390509291505056fea264697066735822122051bebeab4c8abfecdd2aded75c34f35d7bcc1e8e92dc073cb74b5548de08d17a64736f6c634300080b0033",
					"opcodes": "PUSH1 0x80 PUSH1 0x40 MSTORE CALLVALUE DUP1 ISZERO PUSH3 0x11 JUMPI PUSH1 0x0 DUP1 REVERT JUMPDEST POP CALLER PUSH1 0x0 DUP1 PUSH2 0x100 EXP DUP2 SLOAD DUP2 PUSH20 0xFFFFFFFFFFFFFFFFFFFFFFFFFFFFFFFFFFFFFFFF MUL NOT AND SWAP1 DUP4 PUSH20 0xFFFFFFFFFFFFFFFFFFFFFFFFFFFFFFFFFFFFFFFF AND MUL OR SWAP1 SSTORE POP PUSH1 0x1 PUSH1 0x4 PUSH1 0x0 PUSH2 0x100 EXP DUP2 SLOAD DUP2 PUSH1 0xFF MUL NOT AND SWAP1 DUP4 PUSH1 0x3 DUP2 GT ISZERO PUSH3 0x7B JUMPI PUSH3 0x7A PUSH3 0x102 JUMP JUMPDEST JUMPDEST MUL OR SWAP1 SSTORE POP NUMBER PUSH1 0x1 DUP2 SWAP1 SSTORE POP PUSH1 0xF0 PUSH1 0x1 SLOAD PUSH3 0x98 SWAP2 SWAP1 PUSH3 0x16A JUMP JUMPDEST PUSH1 0x2 DUP2 SWAP1 SSTORE POP PUSH8 0xDE0B6B3A7640000 PUSH1 0x6 DUP2 SWAP1 SSTORE POP PUSH1 0x0 PUSH1 0x8 PUSH1 0x0 ORIGIN PUSH20 0xFFFFFFFFFFFFFFFFFFFFFFFFFFFFFFFFFFFFFFFF AND PUSH20 0xFFFFFFFFFFFFFFFFFFFFFFFFFFFFFFFFFFFFFFFF AND DUP2 MSTORE PUSH1 0x20 ADD SWAP1 DUP2 MSTORE PUSH1 0x20 ADD PUSH1 0x0 KECCAK256 DUP2 SWAP1 SSTORE POP PUSH1 0x0 DUP1 SHL PUSH1 0x3 DUP2 SWAP1 SSTORE POP PUSH3 0x1C7 JUMP JUMPDEST PUSH32 0x4E487B7100000000000000000000000000000000000000000000000000000000 PUSH1 0x0 MSTORE PUSH1 0x21 PUSH1 0x4 MSTORE PUSH1 0x24 PUSH1 0x0 REVERT JUMPDEST PUSH1 0x0 DUP2 SWAP1 POP SWAP2 SWAP1 POP JUMP JUMPDEST PUSH32 0x4E487B7100000000000000000000000000000000000000000000000000000000 PUSH1 0x0 MSTORE PUSH1 0x11 PUSH1 0x4 MSTORE PUSH1 0x24 PUSH1 0x0 REVERT JUMPDEST PUSH1 0x0 PUSH3 0x177 DUP3 PUSH3 0x131 JUMP JUMPDEST SWAP2 POP PUSH3 0x184 DUP4 PUSH3 0x131 JUMP JUMPDEST SWAP3 POP DUP3 PUSH32 0xFFFFFFFFFFFFFFFFFFFFFFFFFFFFFFFFFFFFFFFFFFFFFFFFFFFFFFFFFFFFFFFF SUB DUP3 GT ISZERO PUSH3 0x1BC JUMPI PUSH3 0x1BB PUSH3 0x13B JUMP JUMPDEST JUMPDEST DUP3 DUP3 ADD SWAP1 POP SWAP3 SWAP2 POP POP JUMP JUMPDEST PUSH2 0x13EB DUP1 PUSH3 0x1D7 PUSH1 0x0 CODECOPY PUSH1 0x0 RETURN INVALID PUSH1 0x80 PUSH1 0x40 MSTORE PUSH1 0x4 CALLDATASIZE LT PUSH2 0xF3 JUMPI PUSH1 0x0 CALLDATALOAD PUSH1 0xE0 SHR DUP1 PUSH4 0x8C6F2E82 GT PUSH2 0x8A JUMPI DUP1 PUSH4 0xCE5BD041 GT PUSH2 0x59 JUMPI DUP1 PUSH4 0xCE5BD041 EQ PUSH2 0x2EA JUMPI DUP1 PUSH4 0xD4D52DF4 EQ PUSH2 0x315 JUMPI DUP1 PUSH4 0xE07600BD EQ PUSH2 0x340 JUMPI DUP1 PUSH4 0xF8B2CB4F EQ PUSH2 0x357 JUMPI PUSH2 0xF3 JUMP JUMPDEST DUP1 PUSH4 0x8C6F2E82 EQ PUSH2 0x22B JUMPI DUP1 PUSH4 0x91F90157 EQ PUSH2 0x269 JUMPI DUP1 PUSH4 0x9D957D45 EQ PUSH2 0x294 JUMPI DUP1 PUSH4 0xA118BE02 EQ PUSH2 0x2BF JUMPI PUSH2 0xF3 JUMP JUMPDEST DUP1 PUSH4 0x5EC2C7BF GT PUSH2 0xC6 JUMPI DUP1 PUSH4 0x5EC2C7BF EQ PUSH2 0x16D JUMPI DUP1 PUSH4 0x62EA82DB EQ PUSH2 0x198 JUMPI DUP1 PUSH4 0x7EB695A1 EQ PUSH2 0x1D5 JUMPI DUP1 PUSH4 0x7FB45099 EQ PUSH2 0x200 JUMPI PUSH2 0xF3 JUMP JUMPDEST DUP1 PUSH4 0x490CB74 EQ PUSH2 0xF8 JUMPI DUP1 PUSH4 0x1998AEEF EQ PUSH2 0x135 JUMPI DUP1 PUSH4 0x2352F320 EQ PUSH2 0x13F JUMPI DUP1 PUSH4 0x3FDCEEFD EQ PUSH2 0x156 JUMPI JUMPDEST PUSH1 0x0 DUP1 REVERT JUMPDEST CALLVALUE DUP1 ISZERO PUSH2 0x104 JUMPI PUSH1 0x0 DUP1 REVERT JUMPDEST POP PUSH2 0x11F PUSH1 0x4 DUP1 CALLDATASIZE SUB DUP2 ADD SWAP1 PUSH2 0x11A SWAP2 SWAP1 PUSH2 0xF06 JUMP JUMPDEST PUSH2 0x394 JUMP JUMPDEST PUSH1 0x40 MLOAD PUSH2 0x12C SWAP2 SWAP1 PUSH2 0xF4C JUMP JUMPDEST PUSH1 0x40 MLOAD DUP1 SWAP2 SUB SWAP1 RETURN JUMPDEST PUSH2 0x13D PUSH2 0x3AC JUMP JUMPDEST STOP JUMPDEST CALLVALUE DUP1 ISZERO PUSH2 0x14B JUMPI PUSH1 0x0 DUP1 REVERT JUMPDEST POP PUSH2 0x154 PUSH2 0x759 JUMP JUMPDEST STOP JUMPDEST CALLVALUE DUP1 ISZERO PUSH2 0x162 JUMPI PUSH1 0x0 DUP1 REVERT JUMPDEST POP PUSH2 0x16B PUSH2 0x814 JUMP JUMPDEST STOP JUMPDEST CALLVALUE DUP1 ISZERO PUSH2 0x179 JUMPI PUSH1 0x0 DUP1 REVERT JUMPDEST POP PUSH2 0x182 PUSH2 0x8CF JUMP JUMPDEST PUSH1 0x40 MLOAD PUSH2 0x18F SWAP2 SWAP1 PUSH2 0xF88 JUMP JUMPDEST PUSH1 0x40 MLOAD DUP1 SWAP2 SUB SWAP1 RETURN JUMPDEST CALLVALUE DUP1 ISZERO PUSH2 0x1A4 JUMPI PUSH1 0x0 DUP1 REVERT JUMPDEST POP PUSH2 0x1BF PUSH1 0x4 DUP1 CALLDATASIZE SUB DUP2 ADD SWAP1 PUSH2 0x1BA SWAP2 SWAP1 PUSH2 0xF06 JUMP JUMPDEST PUSH2 0x8F3 JUMP JUMPDEST PUSH1 0x40 MLOAD PUSH2 0x1CC SWAP2 SWAP1 PUSH2 0xF4C JUMP JUMPDEST PUSH1 0x40 MLOAD DUP1 SWAP2 SUB SWAP1 RETURN JUMPDEST CALLVALUE DUP1 ISZERO PUSH2 0x1E1 JUMPI PUSH1 0x0 DUP1 REVERT JUMPDEST POP PUSH2 0x1EA PUSH2 0x90B JUMP JUMPDEST PUSH1 0x40 MLOAD PUSH2 0x1F7 SWAP2 SWAP1 PUSH2 0xF4C JUMP JUMPDEST PUSH1 0x40 MLOAD DUP1 SWAP2 SUB SWAP1 RETURN JUMPDEST CALLVALUE DUP1 ISZERO PUSH2 0x20C JUMPI PUSH1 0x0 DUP1 REVERT JUMPDEST POP PUSH2 0x215 PUSH2 0x911 JUMP JUMPDEST PUSH1 0x40 MLOAD PUSH2 0x222 SWAP2 SWAP1 PUSH2 0x101A JUMP JUMPDEST PUSH1 0x40 MLOAD DUP1 SWAP2 SUB SWAP1 RETURN JUMPDEST CALLVALUE DUP1 ISZERO PUSH2 0x237 JUMPI PUSH1 0x0 DUP1 REVERT JUMPDEST POP PUSH2 0x252 PUSH1 0x4 DUP1 CALLDATASIZE SUB DUP2 ADD SWAP1 PUSH2 0x24D SWAP2 SWAP1 PUSH2 0x106B JUMP JUMPDEST PUSH2 0x924 JUMP JUMPDEST PUSH1 0x40 MLOAD PUSH2 0x260 SWAP3 SWAP2 SWAP1 PUSH2 0x10B1 JUMP JUMPDEST PUSH1 0x40 MLOAD DUP1 SWAP2 SUB SWAP1 RETURN JUMPDEST CALLVALUE DUP1 ISZERO PUSH2 0x275 JUMPI PUSH1 0x0 DUP1 REVERT JUMPDEST POP PUSH2 0x27E PUSH2 0xA04 JUMP JUMPDEST PUSH1 0x40 MLOAD PUSH2 0x28B SWAP2 SWAP1 PUSH2 0xF88 JUMP JUMPDEST PUSH1 0x40 MLOAD DUP1 SWAP2 SUB SWAP1 RETURN JUMPDEST CALLVALUE DUP1 ISZERO PUSH2 0x2A0 JUMPI PUSH1 0x0 DUP1 REVERT JUMPDEST POP PUSH2 0x2A9 PUSH2 0xA2A JUMP JUMPDEST PUSH1 0x40 MLOAD PUSH2 0x2B6 SWAP2 SWAP1 PUSH2 0xF4C JUMP JUMPDEST PUSH1 0x40 MLOAD DUP1 SWAP2 SUB SWAP1 RETURN JUMPDEST CALLVALUE DUP1 ISZERO PUSH2 0x2CB JUMPI PUSH1 0x0 DUP1 REVERT JUMPDEST POP PUSH2 0x2D4 PUSH2 0xA30 JUMP JUMPDEST PUSH1 0x40 MLOAD PUSH2 0x2E1 SWAP2 SWAP1 PUSH2 0xF4C JUMP JUMPDEST PUSH1 0x40 MLOAD DUP1 SWAP2 SUB SWAP1 RETURN JUMPDEST CALLVALUE DUP1 ISZERO PUSH2 0x2F6 JUMPI PUSH1 0x0 DUP1 REVERT JUMPDEST POP PUSH2 0x2FF PUSH2 0xA36 JUMP JUMPDEST PUSH1 0x40 MLOAD PUSH2 0x30C SWAP2 SWAP1 PUSH2 0xF4C JUMP JUMPDEST PUSH1 0x40 MLOAD DUP1 SWAP2 SUB SWAP1 RETURN JUMPDEST CALLVALUE DUP1 ISZERO PUSH2 0x321 JUMPI PUSH1 0x0 DUP1 REVERT JUMPDEST POP PUSH2 0x32A PUSH2 0xA3C JUMP JUMPDEST PUSH1 0x40 MLOAD PUSH2 0x337 SWAP2 SWAP1 PUSH2 0x10DA JUMP JUMPDEST PUSH1 0x40 MLOAD DUP1 SWAP2 SUB SWAP1 RETURN JUMPDEST CALLVALUE DUP1 ISZERO PUSH2 0x34C JUMPI PUSH1 0x0 DUP1 REVERT JUMPDEST POP PUSH2 0x355 PUSH2 0xA42 JUMP JUMPDEST STOP JUMPDEST CALLVALUE DUP1 ISZERO PUSH2 0x363 JUMPI PUSH1 0x0 DUP1 REVERT JUMPDEST POP PUSH2 0x37E PUSH1 0x4 DUP1 CALLDATASIZE SUB DUP2 ADD SWAP1 PUSH2 0x379 SWAP2 SWAP1 PUSH2 0xF06 JUMP JUMPDEST PUSH2 0xE3F JUMP JUMPDEST PUSH1 0x40 MLOAD PUSH2 0x38B SWAP2 SWAP1 PUSH2 0xF4C JUMP JUMPDEST PUSH1 0x40 MLOAD DUP1 SWAP2 SUB SWAP1 RETURN JUMPDEST PUSH1 0x8 PUSH1 0x20 MSTORE DUP1 PUSH1 0x0 MSTORE PUSH1 0x40 PUSH1 0x0 KECCAK256 PUSH1 0x0 SWAP2 POP SWAP1 POP SLOAD DUP2 JUMP JUMPDEST PUSH1 0x0 DUP1 SLOAD SWAP1 PUSH2 0x100 EXP SWAP1 DIV PUSH20 0xFFFFFFFFFFFFFFFFFFFFFFFFFFFFFFFFFFFFFFFF AND PUSH20 0xFFFFFFFFFFFFFFFFFFFFFFFFFFFFFFFFFFFFFFFF AND CALLER PUSH20 0xFFFFFFFFFFFFFFFFFFFFFFFFFFFFFFFFFFFFFFFF AND EQ ISZERO PUSH2 0x43B JUMPI PUSH1 0x40 MLOAD PUSH32 0x8C379A000000000000000000000000000000000000000000000000000000000 DUP2 MSTORE PUSH1 0x4 ADD PUSH2 0x432 SWAP1 PUSH2 0x1152 JUMP JUMPDEST PUSH1 0x40 MLOAD DUP1 SWAP2 SUB SWAP1 REVERT JUMPDEST PUSH1 0x1 SLOAD NUMBER GT PUSH2 0x449 JUMPI PUSH1 0x0 DUP1 REVERT JUMPDEST PUSH1 0x2 SLOAD NUMBER LT PUSH2 0x457 JUMPI PUSH1 0x0 DUP1 REVERT JUMPDEST PUSH1 0x0 CALLER SWAP1 POP PUSH1 0x1 PUSH1 0x3 DUP2 GT ISZERO PUSH2 0x470 JUMPI PUSH2 0x46F PUSH2 0xFA3 JUMP JUMPDEST JUMPDEST PUSH1 0x4 PUSH1 0x0 SWAP1 SLOAD SWAP1 PUSH2 0x100 EXP SWAP1 DIV PUSH1 0xFF AND PUSH1 0x3 DUP2 GT ISZERO PUSH2 0x492 JUMPI PUSH2 0x491 PUSH2 0xFA3 JUMP JUMPDEST JUMPDEST EQ PUSH2 0x49C JUMPI PUSH1 0x0 DUP1 REVERT JUMPDEST PUSH8 0xDE0B6B3A7640000 CALLVALUE LT ISZERO PUSH2 0x4B1 JUMPI PUSH1 0x0 DUP1 REVERT JUMPDEST PUSH1 0x0 CALLVALUE PUSH1 0x9 PUSH1 0x0 CALLER PUSH20 0xFFFFFFFFFFFFFFFFFFFFFFFFFFFFFFFFFFFFFFFF AND PUSH20 0xFFFFFFFFFFFFFFFFFFFFFFFFFFFFFFFFFFFFFFFF AND DUP2 MSTORE PUSH1 0x20 ADD SWAP1 DUP2 MSTORE PUSH1 0x20 ADD PUSH1 0x0 KECCAK256 SLOAD PUSH2 0x4FE SWAP2 SWAP1 PUSH2 0x11A1 JUMP JUMPDEST SWAP1 POP PUSH1 0x5 SLOAD DUP2 GT PUSH2 0x50E JUMPI PUSH1 0x0 DUP1 REVERT JUMPDEST DUP1 PUSH1 0x9 PUSH1 0x0 CALLER PUSH20 0xFFFFFFFFFFFFFFFFFFFFFFFFFFFFFFFFFFFFFFFF AND PUSH20 0xFFFFFFFFFFFFFFFFFFFFFFFFFFFFFFFFFFFFFFFF AND DUP2 MSTORE PUSH1 0x20 ADD SWAP1 DUP2 MSTORE PUSH1 0x20 ADD PUSH1 0x0 KECCAK256 DUP2 SWAP1 SSTORE POP PUSH1 0x9 PUSH1 0x0 PUSH1 0x7 PUSH1 0x0 SWAP1 SLOAD SWAP1 PUSH2 0x100 EXP SWAP1 DIV PUSH20 0xFFFFFFFFFFFFFFFFFFFFFFFFFFFFFFFFFFFFFFFF AND PUSH20 0xFFFFFFFFFFFFFFFFFFFFFFFFFFFFFFFFFFFFFFFF AND PUSH20 0xFFFFFFFFFFFFFFFFFFFFFFFFFFFFFFFFFFFFFFFF AND DUP2 MSTORE PUSH1 0x20 ADD SWAP1 DUP2 MSTORE PUSH1 0x20 ADD PUSH1 0x0 KECCAK256 SLOAD DUP2 LT ISZERO PUSH2 0x63E JUMPI PUSH2 0x633 PUSH1 0x6 SLOAD DUP3 PUSH2 0x5CC SWAP2 SWAP1 PUSH2 0x11A1 JUMP JUMPDEST PUSH1 0x9 PUSH1 0x0 PUSH1 0x7 PUSH1 0x0 SWAP1 SLOAD SWAP1 PUSH2 0x100 EXP SWAP1 DIV PUSH20 0xFFFFFFFFFFFFFFFFFFFFFFFFFFFFFFFFFFFFFFFF AND PUSH20 0xFFFFFFFFFFFFFFFFFFFFFFFFFFFFFFFFFFFFFFFF AND PUSH20 0xFFFFFFFFFFFFFFFFFFFFFFFFFFFFFFFFFFFFFFFF AND DUP2 MSTORE PUSH1 0x20 ADD SWAP1 DUP2 MSTORE PUSH1 0x20 ADD PUSH1 0x0 KECCAK256 SLOAD PUSH2 0xE88 JUMP JUMPDEST PUSH1 0x5 DUP2 SWAP1 SSTORE POP PUSH2 0x6FE JUMP JUMPDEST PUSH2 0x6B6 DUP2 PUSH1 0x6 SLOAD PUSH1 0x9 PUSH1 0x0 PUSH1 0x7 PUSH1 0x0 SWAP1 SLOAD SWAP1 PUSH2 0x100 EXP SWAP1 DIV PUSH20 0xFFFFFFFFFFFFFFFFFFFFFFFFFFFFFFFFFFFFFFFF AND PUSH20 0xFFFFFFFFFFFFFFFFFFFFFFFFFFFFFFFFFFFFFFFF AND PUSH20 0xFFFFFFFFFFFFFFFFFFFFFFFFFFFFFFFFFFFFFFFF AND DUP2 MSTORE PUSH1 0x20 ADD SWAP1 DUP2 MSTORE PUSH1 0x20 ADD PUSH1 0x0 KECCAK256 SLOAD PUSH2 0x6B1 SWAP2 SWAP1 PUSH2 0x11A1 JUMP JUMPDEST PUSH2 0xE88 JUMP JUMPDEST PUSH1 0x5 DUP2 SWAP1 SSTORE POP CALLER PUSH1 0x7 PUSH1 0x0 PUSH2 0x100 EXP DUP2 SLOAD DUP2 PUSH20 0xFFFFFFFFFFFFFFFFFFFFFFFFFFFFFFFFFFFFFFFF MUL NOT AND SWAP1 DUP4 PUSH20 0xFFFFFFFFFFFFFFFFFFFFFFFFFFFFFFFFFFFFFFFF AND MUL OR SWAP1 SSTORE POP JUMPDEST PUSH1 0x1 PUSH1 0x8 PUSH1 0x0 DUP5 PUSH20 0xFFFFFFFFFFFFFFFFFFFFFFFFFFFFFFFFFFFFFFFF AND PUSH20 0xFFFFFFFFFFFFFFFFFFFFFFFFFFFFFFFFFFFFFFFF AND DUP2 MSTORE PUSH1 0x20 ADD SWAP1 DUP2 MSTORE PUSH1 0x20 ADD PUSH1 0x0 KECCAK256 PUSH1 0x0 DUP3 DUP3 SLOAD PUSH2 0x74E SWAP2 SWAP1 PUSH2 0x11A1 JUMP JUMPDEST SWAP3 POP POP DUP2 SWAP1 SSTORE POP POP POP JUMP JUMPDEST PUSH1 0x0 DUP1 SLOAD SWAP1 PUSH2 0x100 EXP SWAP1 DIV PUSH20 0xFFFFFFFFFFFFFFFFFFFFFFFFFFFFFFFFFFFFFFFF AND PUSH20 0xFFFFFFFFFFFFFFFFFFFFFFFFFFFFFFFFFFFFFFFF AND CALLER PUSH20 0xFFFFFFFFFFFFFFFFFFFFFFFFFFFFFFFFFFFFFFFF AND EQ PUSH2 0x7E7 JUMPI PUSH1 0x40 MLOAD PUSH32 0x8C379A000000000000000000000000000000000000000000000000000000000 DUP2 MSTORE PUSH1 0x4 ADD PUSH2 0x7DE SWAP1 PUSH2 0x1152 JUMP JUMPDEST PUSH1 0x40 MLOAD DUP1 SWAP2 SUB SWAP1 REVERT JUMPDEST PUSH1 0x3 PUSH1 0x4 PUSH1 0x0 PUSH2 0x100 EXP DUP2 SLOAD DUP2 PUSH1 0xFF MUL NOT AND SWAP1 DUP4 PUSH1 0x3 DUP2 GT ISZERO PUSH2 0x80D JUMPI PUSH2 0x80C PUSH2 0xFA3 JUMP JUMPDEST JUMPDEST MUL OR SWAP1 SSTORE POP JUMP JUMPDEST PUSH1 0x0 DUP1 SLOAD SWAP1 PUSH2 0x100 EXP SWAP1 DIV PUSH20 0xFFFFFFFFFFFFFFFFFFFFFFFFFFFFFFFFFFFFFFFF AND PUSH20 0xFFFFFFFFFFFFFFFFFFFFFFFFFFFFFFFFFFFFFFFF AND CALLER PUSH20 0xFFFFFFFFFFFFFFFFFFFFFFFFFFFFFFFFFFFFFFFF AND EQ PUSH2 0x8A2 JUMPI PUSH1 0x40 MLOAD PUSH32 0x8C379A000000000000000000000000000000000000000000000000000000000 DUP2 MSTORE PUSH1 0x4 ADD PUSH2 0x899 SWAP1 PUSH2 0x1152 JUMP JUMPDEST PUSH1 0x40 MLOAD DUP1 SWAP2 SUB SWAP1 REVERT JUMPDEST PUSH1 0x2 PUSH1 0x4 PUSH1 0x0 PUSH2 0x100 EXP DUP2 SLOAD DUP2 PUSH1 0xFF MUL NOT AND SWAP1 DUP4 PUSH1 0x3 DUP2 GT ISZERO PUSH2 0x8C8 JUMPI PUSH2 0x8C7 PUSH2 0xFA3 JUMP JUMPDEST JUMPDEST MUL OR SWAP1 SSTORE POP JUMP JUMPDEST PUSH1 0x0 DUP1 SLOAD SWAP1 PUSH2 0x100 EXP SWAP1 DIV PUSH20 0xFFFFFFFFFFFFFFFFFFFFFFFFFFFFFFFFFFFFFFFF AND DUP2 JUMP JUMPDEST PUSH1 0x9 PUSH1 0x20 MSTORE DUP1 PUSH1 0x0 MSTORE PUSH1 0x40 PUSH1 0x0 KECCAK256 PUSH1 0x0 SWAP2 POP SWAP1 POP SLOAD DUP2 JUMP JUMPDEST PUSH1 0x5 SLOAD DUP2 JUMP JUMPDEST PUSH1 0x4 PUSH1 0x0 SWAP1 SLOAD SWAP1 PUSH2 0x100 EXP SWAP1 DIV PUSH1 0xFF AND DUP2 JUMP JUMPDEST PUSH1 0x0 DUP1 PUSH1 0x7 PUSH1 0x0 SWAP1 SLOAD SWAP1 PUSH2 0x100 EXP SWAP1 DIV PUSH20 0xFFFFFFFFFFFFFFFFFFFFFFFFFFFFFFFFFFFFFFFF AND PUSH20 0xFFFFFFFFFFFFFFFFFFFFFFFFFFFFFFFFFFFFFFFF AND CALLER PUSH20 0xFFFFFFFFFFFFFFFFFFFFFFFFFFFFFFFFFFFFFFFF AND EQ PUSH2 0x981 JUMPI PUSH1 0x0 DUP1 REVERT JUMPDEST PUSH1 0x0 TIMESTAMP SWAP1 POP PUSH1 0x2 DUP2 DUP6 DUP5 PUSH1 0x40 MLOAD PUSH1 0x20 ADD PUSH2 0x99D SWAP4 SWAP3 SWAP2 SWAP1 PUSH2 0x125A JUMP JUMPDEST PUSH1 0x40 MLOAD PUSH1 0x20 DUP2 DUP4 SUB SUB DUP2 MSTORE SWAP1 PUSH1 0x40 MSTORE PUSH1 0x40 MLOAD PUSH2 0x9B9 SWAP2 SWAP1 PUSH2 0x1311 JUMP JUMPDEST PUSH1 0x20 PUSH1 0x40 MLOAD DUP1 DUP4 SUB DUP2 DUP6 GAS STATICCALL ISZERO DUP1 ISZERO PUSH2 0x9D6 JUMPI RETURNDATASIZE PUSH1 0x0 DUP1 RETURNDATACOPY RETURNDATASIZE PUSH1 0x0 REVERT JUMPDEST POP POP POP PUSH1 0x40 MLOAD RETURNDATASIZE PUSH1 0x1F NOT PUSH1 0x1F DUP3 ADD AND DUP3 ADD DUP1 PUSH1 0x40 MSTORE POP DUP2 ADD SWAP1 PUSH2 0x9F9 SWAP2 SWAP1 PUSH2 0x1354 JUMP JUMPDEST SWAP3 POP DUP3 SWAP2 POP POP SWAP2 POP SWAP2 JUMP JUMPDEST PUSH1 0x7 PUSH1 0x0 SWAP1 SLOAD SWAP1 PUSH2 0x100 EXP SWAP1 DIV PUSH20 0xFFFFFFFFFFFFFFFFFFFFFFFFFFFFFFFFFFFFFFFF AND DUP2 JUMP JUMPDEST PUSH1 0x2 SLOAD DUP2 JUMP JUMPDEST PUSH1 0x1 SLOAD DUP2 JUMP JUMPDEST PUSH1 0x6 SLOAD DUP2 JUMP JUMPDEST PUSH1 0x3 SLOAD DUP2 JUMP JUMPDEST PUSH1 0x3 DUP1 DUP2 GT ISZERO PUSH2 0xA55 JUMPI PUSH2 0xA54 PUSH2 0xFA3 JUMP JUMPDEST JUMPDEST PUSH1 0x4 PUSH1 0x0 SWAP1 SLOAD SWAP1 PUSH2 0x100 EXP SWAP1 DIV PUSH1 0xFF AND PUSH1 0x3 DUP2 GT ISZERO PUSH2 0xA77 JUMPI PUSH2 0xA76 PUSH2 0xFA3 JUMP JUMPDEST JUMPDEST EQ DUP1 PUSH2 0xAB6 JUMPI POP PUSH1 0x2 PUSH1 0x3 DUP2 GT ISZERO PUSH2 0xA92 JUMPI PUSH2 0xA91 PUSH2 0xFA3 JUMP JUMPDEST JUMPDEST PUSH1 0x4 PUSH1 0x0 SWAP1 SLOAD SWAP1 PUSH2 0x100 EXP SWAP1 DIV PUSH1 0xFF AND PUSH1 0x3 DUP2 GT ISZERO PUSH2 0xAB4 JUMPI PUSH2 0xAB3 PUSH2 0xFA3 JUMP JUMPDEST JUMPDEST EQ JUMPDEST DUP1 PUSH2 0xAC2 JUMPI POP PUSH1 0x2 SLOAD NUMBER GT JUMPDEST PUSH2 0xACB JUMPI PUSH1 0x0 DUP1 REVERT JUMPDEST PUSH1 0x0 DUP1 SLOAD SWAP1 PUSH2 0x100 EXP SWAP1 DIV PUSH20 0xFFFFFFFFFFFFFFFFFFFFFFFFFFFFFFFFFFFFFFFF AND PUSH20 0xFFFFFFFFFFFFFFFFFFFFFFFFFFFFFFFFFFFFFFFF AND CALLER PUSH20 0xFFFFFFFFFFFFFFFFFFFFFFFFFFFFFFFFFFFFFFFF AND EQ DUP1 PUSH2 0xB64 JUMPI POP PUSH1 0x0 PUSH1 0x9 PUSH1 0x0 CALLER PUSH20 0xFFFFFFFFFFFFFFFFFFFFFFFFFFFFFFFFFFFFFFFF AND PUSH20 0xFFFFFFFFFFFFFFFFFFFFFFFFFFFFFFFFFFFFFFFF AND DUP2 MSTORE PUSH1 0x20 ADD SWAP1 DUP2 MSTORE PUSH1 0x20 ADD PUSH1 0x0 KECCAK256 SLOAD GT JUMPDEST PUSH2 0xB6D JUMPI PUSH1 0x0 DUP1 REVERT JUMPDEST PUSH1 0x0 DUP1 PUSH1 0x3 DUP1 DUP2 GT ISZERO PUSH2 0xB83 JUMPI PUSH2 0xB82 PUSH2 0xFA3 JUMP JUMPDEST JUMPDEST PUSH1 0x4 PUSH1 0x0 SWAP1 SLOAD SWAP1 PUSH2 0x100 EXP SWAP1 DIV PUSH1 0xFF AND PUSH1 0x3 DUP2 GT ISZERO PUSH2 0xBA5 JUMPI PUSH2 0xBA4 PUSH2 0xFA3 JUMP JUMPDEST JUMPDEST EQ ISZERO PUSH2 0xBF5 JUMPI CALLER SWAP2 POP PUSH1 0x9 PUSH1 0x0 CALLER PUSH20 0xFFFFFFFFFFFFFFFFFFFFFFFFFFFFFFFFFFFFFFFF AND PUSH20 0xFFFFFFFFFFFFFFFFFFFFFFFFFFFFFFFFFFFFFFFF AND DUP2 MSTORE PUSH1 0x20 ADD SWAP1 DUP2 MSTORE PUSH1 0x20 ADD PUSH1 0x0 KECCAK256 SLOAD SWAP1 POP PUSH2 0xDAF JUMP JUMPDEST PUSH1 0x0 DUP1 SLOAD SWAP1 PUSH2 0x100 EXP SWAP1 DIV PUSH20 0xFFFFFFFFFFFFFFFFFFFFFFFFFFFFFFFFFFFFFFFF AND PUSH20 0xFFFFFFFFFFFFFFFFFFFFFFFFFFFFFFFFFFFFFFFF AND CALLER PUSH20 0xFFFFFFFFFFFFFFFFFFFFFFFFFFFFFFFFFFFFFFFF AND EQ ISZERO PUSH2 0xC76 JUMPI PUSH1 0x0 DUP1 SLOAD SWAP1 PUSH2 0x100 EXP SWAP1 DIV PUSH20 0xFFFFFFFFFFFFFFFFFFFFFFFFFFFFFFFFFFFFFFFF AND SWAP2 POP PUSH1 0x5 SLOAD SWAP1 POP PUSH2 0xDAE JUMP JUMPDEST PUSH1 0x7 PUSH1 0x0 SWAP1 SLOAD SWAP1 PUSH2 0x100 EXP SWAP1 DIV PUSH20 0xFFFFFFFFFFFFFFFFFFFFFFFFFFFFFFFFFFFFFFFF AND PUSH20 0xFFFFFFFFFFFFFFFFFFFFFFFFFFFFFFFFFFFFFFFF AND CALLER PUSH20 0xFFFFFFFFFFFFFFFFFFFFFFFFFFFFFFFFFFFFFFFF AND EQ ISZERO PUSH2 0xD67 JUMPI PUSH1 0x7 PUSH1 0x0 SWAP1 SLOAD SWAP1 PUSH2 0x100 EXP SWAP1 DIV PUSH20 0xFFFFFFFFFFFFFFFFFFFFFFFFFFFFFFFFFFFFFFFF AND SWAP2 POP PUSH1 0x5 SLOAD PUSH1 0x9 PUSH1 0x0 PUSH1 0x7 PUSH1 0x0 SWAP1 SLOAD SWAP1 PUSH2 0x100 EXP SWAP1 DIV PUSH20 0xFFFFFFFFFFFFFFFFFFFFFFFFFFFFFFFFFFFFFFFF AND PUSH20 0xFFFFFFFFFFFFFFFFFFFFFFFFFFFFFFFFFFFFFFFF AND PUSH20 0xFFFFFFFFFFFFFFFFFFFFFFFFFFFFFFFFFFFFFFFF AND DUP2 MSTORE PUSH1 0x20 ADD SWAP1 DUP2 MSTORE PUSH1 0x20 ADD PUSH1 0x0 KECCAK256 SLOAD PUSH2 0xD60 SWAP2 SWAP1 PUSH2 0x1381 JUMP JUMPDEST SWAP1 POP PUSH2 0xDAD JUMP JUMPDEST CALLER SWAP2 POP PUSH1 0x9 PUSH1 0x0 CALLER PUSH20 0xFFFFFFFFFFFFFFFFFFFFFFFFFFFFFFFFFFFFFFFF AND PUSH20 0xFFFFFFFFFFFFFFFFFFFFFFFFFFFFFFFFFFFFFFFF AND DUP2 MSTORE PUSH1 0x20 ADD SWAP1 DUP2 MSTORE PUSH1 0x20 ADD PUSH1 0x0 KECCAK256 SLOAD SWAP1 POP JUMPDEST JUMPDEST JUMPDEST PUSH1 0x0 PUSH1 0x9 PUSH1 0x0 CALLER PUSH20 0xFFFFFFFFFFFFFFFFFFFFFFFFFFFFFFFFFFFFFFFF AND PUSH20 0xFFFFFFFFFFFFFFFFFFFFFFFFFFFFFFFFFFFFFFFF AND DUP2 MSTORE PUSH1 0x20 ADD SWAP1 DUP2 MSTORE PUSH1 0x20 ADD PUSH1 0x0 KECCAK256 DUP2 SWAP1 SSTORE POP DUP2 PUSH20 0xFFFFFFFFFFFFFFFFFFFFFFFFFFFFFFFFFFFFFFFF AND PUSH2 0x8FC DUP3 SWAP1 DUP2 ISZERO MUL SWAP1 PUSH1 0x40 MLOAD PUSH1 0x0 PUSH1 0x40 MLOAD DUP1 DUP4 SUB DUP2 DUP6 DUP9 DUP9 CALL SWAP4 POP POP POP POP ISZERO DUP1 ISZERO PUSH2 0xE3A JUMPI RETURNDATASIZE PUSH1 0x0 DUP1 RETURNDATACOPY RETURNDATASIZE PUSH1 0x0 REVERT JUMPDEST POP POP POP JUMP JUMPDEST PUSH1 0x0 PUSH1 0x8 PUSH1 0x0 DUP4 PUSH20 0xFFFFFFFFFFFFFFFFFFFFFFFFFFFFFFFFFFFFFFFF AND PUSH20 0xFFFFFFFFFFFFFFFFFFFFFFFFFFFFFFFFFFFFFFFF AND DUP2 MSTORE PUSH1 0x20 ADD SWAP1 DUP2 MSTORE PUSH1 0x20 ADD PUSH1 0x0 KECCAK256 SLOAD SWAP1 POP SWAP2 SWAP1 POP JUMP JUMPDEST PUSH1 0x0 DUP2 DUP4 GT PUSH2 0xE99 JUMPI DUP3 SWAP1 POP PUSH2 0xE9D JUMP JUMPDEST DUP2 SWAP1 POP JUMPDEST SWAP3 SWAP2 POP POP JUMP JUMPDEST PUSH1 0x0 DUP1 REVERT JUMPDEST PUSH1 0x0 PUSH20 0xFFFFFFFFFFFFFFFFFFFFFFFFFFFFFFFFFFFFFFFF DUP3 AND SWAP1 POP SWAP2 SWAP1 POP JUMP JUMPDEST PUSH1 0x0 PUSH2 0xED3 DUP3 PUSH2 0xEA8 JUMP JUMPDEST SWAP1 POP SWAP2 SWAP1 POP JUMP JUMPDEST PUSH2 0xEE3 DUP2 PUSH2 0xEC8 JUMP JUMPDEST DUP2 EQ PUSH2 0xEEE JUMPI PUSH1 0x0 DUP1 REVERT JUMPDEST POP JUMP JUMPDEST PUSH1 0x0 DUP2 CALLDATALOAD SWAP1 POP PUSH2 0xF00 DUP2 PUSH2 0xEDA JUMP JUMPDEST SWAP3 SWAP2 POP POP JUMP JUMPDEST PUSH1 0x0 PUSH1 0x20 DUP3 DUP5 SUB SLT ISZERO PUSH2 0xF1C JUMPI PUSH2 0xF1B PUSH2 0xEA3 JUMP JUMPDEST JUMPDEST PUSH1 0x0 PUSH2 0xF2A DUP5 DUP3 DUP6 ADD PUSH2 0xEF1 JUMP JUMPDEST SWAP2 POP POP SWAP3 SWAP2 POP POP JUMP JUMPDEST PUSH1 0x0 DUP2 SWAP1 POP SWAP2 SWAP1 POP JUMP JUMPDEST PUSH2 0xF46 DUP2 PUSH2 0xF33 JUMP JUMPDEST DUP3 MSTORE POP POP JUMP JUMPDEST PUSH1 0x0 PUSH1 0x20 DUP3 ADD SWAP1 POP PUSH2 0xF61 PUSH1 0x0 DUP4 ADD DUP5 PUSH2 0xF3D JUMP JUMPDEST SWAP3 SWAP2 POP POP JUMP JUMPDEST PUSH1 0x0 PUSH2 0xF72 DUP3 PUSH2 0xEA8 JUMP JUMPDEST SWAP1 POP SWAP2 SWAP1 POP JUMP JUMPDEST PUSH2 0xF82 DUP2 PUSH2 0xF67 JUMP JUMPDEST DUP3 MSTORE POP POP JUMP JUMPDEST PUSH1 0x0 PUSH1 0x20 DUP3 ADD SWAP1 POP PUSH2 0xF9D PUSH1 0x0 DUP4 ADD DUP5 PUSH2 0xF79 JUMP JUMPDEST SWAP3 SWAP2 POP POP JUMP JUMPDEST PUSH32 0x4E487B7100000000000000000000000000000000000000000000000000000000 PUSH1 0x0 MSTORE PUSH1 0x21 PUSH1 0x4 MSTORE PUSH1 0x24 PUSH1 0x0 REVERT JUMPDEST PUSH1 0x4 DUP2 LT PUSH2 0xFE3 JUMPI PUSH2 0xFE2 PUSH2 0xFA3 JUMP JUMPDEST JUMPDEST POP JUMP JUMPDEST PUSH1 0x0 DUP2 SWAP1 POP PUSH2 0xFF4 DUP3 PUSH2 0xFD2 JUMP JUMPDEST SWAP2 SWAP1 POP JUMP JUMPDEST PUSH1 0x0 PUSH2 0x1004 DUP3 PUSH2 0xFE6 JUMP JUMPDEST SWAP1 POP SWAP2 SWAP1 POP JUMP JUMPDEST PUSH2 0x1014 DUP2 PUSH2 0xFF9 JUMP JUMPDEST DUP3 MSTORE POP POP JUMP JUMPDEST PUSH1 0x0 PUSH1 0x20 DUP3 ADD SWAP1 POP PUSH2 0x102F PUSH1 0x0 DUP4 ADD DUP5 PUSH2 0x100B JUMP JUMPDEST SWAP3 SWAP2 POP POP JUMP JUMPDEST PUSH1 0x0 DUP2 SWAP1 POP SWAP2 SWAP1 POP JUMP JUMPDEST PUSH2 0x1048 DUP2 PUSH2 0x1035 JUMP JUMPDEST DUP2 EQ PUSH2 0x1053 JUMPI PUSH1 0x0 DUP1 REVERT JUMPDEST POP JUMP JUMPDEST PUSH1 0x0 DUP2 CALLDATALOAD SWAP1 POP PUSH2 0x1065 DUP2 PUSH2 0x103F JUMP JUMPDEST SWAP3 SWAP2 POP POP JUMP JUMPDEST PUSH1 0x0 PUSH1 0x20 DUP3 DUP5 SUB SLT ISZERO PUSH2 0x1081 JUMPI PUSH2 0x1080 PUSH2 0xEA3 JUMP JUMPDEST JUMPDEST PUSH1 0x0 PUSH2 0x108F DUP5 DUP3 DUP6 ADD PUSH2 0x1056 JUMP JUMPDEST SWAP2 POP POP SWAP3 SWAP2 POP POP JUMP JUMPDEST PUSH1 0x0 DUP2 SWAP1 POP SWAP2 SWAP1 POP JUMP JUMPDEST PUSH2 0x10AB DUP2 PUSH2 0x1098 JUMP JUMPDEST DUP3 MSTORE POP POP JUMP JUMPDEST PUSH1 0x0 PUSH1 0x40 DUP3 ADD SWAP1 POP PUSH2 0x10C6 PUSH1 0x0 DUP4 ADD DUP6 PUSH2 0x10A2 JUMP JUMPDEST PUSH2 0x10D3 PUSH1 0x20 DUP4 ADD DUP5 PUSH2 0x10A2 JUMP JUMPDEST SWAP4 SWAP3 POP POP POP JUMP JUMPDEST PUSH1 0x0 PUSH1 0x20 DUP3 ADD SWAP1 POP PUSH2 0x10EF PUSH1 0x0 DUP4 ADD DUP5 PUSH2 0x10A2 JUMP JUMPDEST SWAP3 SWAP2 POP POP JUMP JUMPDEST PUSH1 0x0 DUP3 DUP3 MSTORE PUSH1 0x20 DUP3 ADD SWAP1 POP SWAP3 SWAP2 POP POP JUMP JUMPDEST PUSH32 0x4F776E65722063616E6E6F742062696400000000000000000000000000000000 PUSH1 0x0 DUP3 ADD MSTORE POP JUMP JUMPDEST PUSH1 0x0 PUSH2 0x113C PUSH1 0x10 DUP4 PUSH2 0x10F5 JUMP JUMPDEST SWAP2 POP PUSH2 0x1147 DUP3 PUSH2 0x1106 JUMP JUMPDEST PUSH1 0x20 DUP3 ADD SWAP1 POP SWAP2 SWAP1 POP JUMP JUMPDEST PUSH1 0x0 PUSH1 0x20 DUP3 ADD SWAP1 POP DUP2 DUP2 SUB PUSH1 0x0 DUP4 ADD MSTORE PUSH2 0x116B DUP2 PUSH2 0x112F JUMP JUMPDEST SWAP1 POP SWAP2 SWAP1 POP JUMP JUMPDEST PUSH32 0x4E487B7100000000000000000000000000000000000000000000000000000000 PUSH1 0x0 MSTORE PUSH1 0x11 PUSH1 0x4 MSTORE PUSH1 0x24 PUSH1 0x0 REVERT JUMPDEST PUSH1 0x0 PUSH2 0x11AC DUP3 PUSH2 0xF33 JUMP JUMPDEST SWAP2 POP PUSH2 0x11B7 DUP4 PUSH2 0xF33 JUMP JUMPDEST SWAP3 POP DUP3 PUSH32 0xFFFFFFFFFFFFFFFFFFFFFFFFFFFFFFFFFFFFFFFFFFFFFFFFFFFFFFFFFFFFFFFF SUB DUP3 GT ISZERO PUSH2 0x11EC JUMPI PUSH2 0x11EB PUSH2 0x1172 JUMP JUMPDEST JUMPDEST DUP3 DUP3 ADD SWAP1 POP SWAP3 SWAP2 POP POP JUMP JUMPDEST PUSH1 0x0 DUP2 SWAP1 POP SWAP2 SWAP1 POP JUMP JUMPDEST PUSH2 0x1212 PUSH2 0x120D DUP3 PUSH2 0xF33 JUMP JUMPDEST PUSH2 0x11F7 JUMP JUMPDEST DUP3 MSTORE POP POP JUMP JUMPDEST PUSH1 0x0 DUP2 SWAP1 POP SWAP2 SWAP1 POP JUMP JUMPDEST PUSH2 0x1233 PUSH2 0x122E DUP3 PUSH2 0x1035 JUMP JUMPDEST PUSH2 0x1218 JUMP JUMPDEST DUP3 MSTORE POP POP JUMP JUMPDEST PUSH1 0x0 DUP2 SWAP1 POP SWAP2 SWAP1 POP JUMP JUMPDEST PUSH2 0x1254 PUSH2 0x124F DUP3 PUSH2 0x1098 JUMP JUMPDEST PUSH2 0x1239 JUMP JUMPDEST DUP3 MSTORE POP POP JUMP JUMPDEST PUSH1 0x0 PUSH2 0x1266 DUP3 DUP7 PUSH2 0x1201 JUMP JUMPDEST PUSH1 0x20 DUP3 ADD SWAP2 POP PUSH2 0x1276 DUP3 DUP6 PUSH2 0x1222 JUMP JUMPDEST PUSH1 0x20 DUP3 ADD SWAP2 POP PUSH2 0x1286 DUP3 DUP5 PUSH2 0x1243 JUMP JUMPDEST PUSH1 0x20 DUP3 ADD SWAP2 POP DUP2 SWAP1 POP SWAP5 SWAP4 POP POP POP POP JUMP JUMPDEST PUSH1 0x0 DUP2 MLOAD SWAP1 POP SWAP2 SWAP1 POP JUMP JUMPDEST PUSH1 0x0 DUP2 SWAP1 POP SWAP3 SWAP2 POP POP JUMP JUMPDEST PUSH1 0x0 JUMPDEST DUP4 DUP2 LT ISZERO PUSH2 0x12CB JUMPI DUP1 DUP3 ADD MLOAD DUP2 DUP5 ADD MSTORE PUSH1 0x20 DUP2 ADD SWAP1 POP PUSH2 0x12B0 JUMP JUMPDEST DUP4 DUP2 GT ISZERO PUSH2 0x12DA JUMPI PUSH1 0x0 DUP5 DUP5 ADD MSTORE JUMPDEST POP POP POP POP JUMP JUMPDEST PUSH1 0x0 PUSH2 0x12EB DUP3 PUSH2 0x1297 JUMP JUMPDEST PUSH2 0x12F5 DUP2 DUP6 PUSH2 0x12A2 JUMP JUMPDEST SWAP4 POP PUSH2 0x1305 DUP2 DUP6 PUSH1 0x20 DUP7 ADD PUSH2 0x12AD JUMP JUMPDEST DUP1 DUP5 ADD SWAP2 POP POP SWAP3 SWAP2 POP POP JUMP JUMPDEST PUSH1 0x0 PUSH2 0x131D DUP3 DUP5 PUSH2 0x12E0 JUMP JUMPDEST SWAP2 POP DUP2 SWAP1 POP SWAP3 SWAP2 POP POP JUMP JUMPDEST PUSH2 0x1331 DUP2 PUSH2 0x1098 JUMP JUMPDEST DUP2 EQ PUSH2 0x133C JUMPI PUSH1 0x0 DUP1 REVERT JUMPDEST POP JUMP JUMPDEST PUSH1 0x0 DUP2 MLOAD SWAP1 POP PUSH2 0x134E DUP2 PUSH2 0x1328 JUMP JUMPDEST SWAP3 SWAP2 POP POP JUMP JUMPDEST PUSH1 0x0 PUSH1 0x20 DUP3 DUP5 SUB SLT ISZERO PUSH2 0x136A JUMPI PUSH2 0x1369 PUSH2 0xEA3 JUMP JUMPDEST JUMPDEST PUSH1 0x0 PUSH2 0x1378 DUP5 DUP3 DUP6 ADD PUSH2 0x133F JUMP JUMPDEST SWAP2 POP POP SWAP3 SWAP2 POP POP JUMP JUMPDEST PUSH1 0x0 PUSH2 0x138C DUP3 PUSH2 0xF33 JUMP JUMPDEST SWAP2 POP PUSH2 0x1397 DUP4 PUSH2 0xF33 JUMP JUMPDEST SWAP3 POP DUP3 DUP3 LT ISZERO PUSH2 0x13AA JUMPI PUSH2 0x13A9 PUSH2 0x1172 JUMP JUMPDEST JUMPDEST DUP3 DUP3 SUB SWAP1 POP SWAP3 SWAP2 POP POP JUMP INVALID LOG2 PUSH5 0x6970667358 0x22 SLT KECCAK256 MLOAD 0xBE 0xBE 0xAB 0x4C DUP11 0xBF 0xEC 0xDD 0x2A 0xDE 0xD7 0x5C CALLVALUE RETURN 0x5D PUSH28 0xCC1E8E92DC073CB74B5548DE08D17A64736F6C634300080B00330000 "
				},
				"gasEstimates": {
					"creation": {
						"codeDepositCost": "1019800",
						"executionCost": "infinite",
						"totalCost": "infinite"
					},
					"external": {
						"Block(int256)": "infinite",
						"auctionState()": "2649",
						"auctioneer()": "2534",
						"bid()": "infinite",
						"bid_Increment()": "2451",
						"bids(address)": "2859",
						"cancelAuc()": "26666",
						"endAuc()": "26688",
						"etblock()": "2496",
						"finalizeAuc()": "infinite",
						"getBalance(address)": "2929",
						"highestBidder()": "2559",
						"highest_payable_bid()": "2496",
						"previousHash()": "2473",
						"stblock()": "2518",
						"xp(address)": "2838"
					},
					"internal": {
						"min(uint256,uint256)": "64"
					}
				},
				"methodIdentifiers": {
					"Block(int256)": "8c6f2e82",
					"auctionState()": "7fb45099",
					"auctioneer()": "5ec2c7bf",
					"bid()": "1998aeef",
					"bid_Increment()": "ce5bd041",
					"bids(address)": "62ea82db",
					"cancelAuc()": "2352f320",
					"endAuc()": "3fdceefd",
					"etblock()": "9d957d45",
					"finalizeAuc()": "e07600bd",
					"getBalance(address)": "f8b2cb4f",
					"highestBidder()": "91f90157",
					"highest_payable_bid()": "7eb695a1",
					"previousHash()": "d4d52df4",
					"stblock()": "a118be02",
					"xp(address)": "0490cb74"
				}
			},
			"storageLayout": {
				"storage": [
					{
						"astId": 3,
						"contract": "contracts/auction.sol:Auction",
						"label": "auctioneer",
						"offset": 0,
						"slot": "0",
						"type": "t_address_payable"
					},
					{
						"astId": 5,
						"contract": "contracts/auction.sol:Auction",
						"label": "stblock",
						"offset": 0,
						"slot": "1",
						"type": "t_uint256"
					},
					{
						"astId": 7,
						"contract": "contracts/auction.sol:Auction",
						"label": "etblock",
						"offset": 0,
						"slot": "2",
						"type": "t_uint256"
					},
					{
						"astId": 9,
						"contract": "contracts/auction.sol:Auction",
						"label": "previousHash",
						"offset": 0,
						"slot": "3",
						"type": "t_bytes32"
					},
					{
						"astId": 17,
						"contract": "contracts/auction.sol:Auction",
						"label": "auctionState",
						"offset": 0,
						"slot": "4",
						"type": "t_enum(Auction_State)14"
					},
					{
						"astId": 19,
						"contract": "contracts/auction.sol:Auction",
						"label": "highest_payable_bid",
						"offset": 0,
						"slot": "5",
						"type": "t_uint256"
					},
					{
						"astId": 21,
						"contract": "contracts/auction.sol:Auction",
						"label": "bid_Increment",
						"offset": 0,
						"slot": "6",
						"type": "t_uint256"
					},
					{
						"astId": 23,
						"contract": "contracts/auction.sol:Auction",
						"label": "highestBidder",
						"offset": 0,
						"slot": "7",
						"type": "t_address_payable"
					},
					{
						"astId": 27,
						"contract": "contracts/auction.sol:Auction",
						"label": "xp",
						"offset": 0,
						"slot": "8",
						"type": "t_mapping(t_address,t_uint256)"
					},
					{
						"astId": 31,
						"contract": "contracts/auction.sol:Auction",
						"label": "bids",
						"offset": 0,
						"slot": "9",
						"type": "t_mapping(t_address,t_uint256)"
					}
				],
				"types": {
					"t_address": {
						"encoding": "inplace",
						"label": "address",
						"numberOfBytes": "20"
					},
					"t_address_payable": {
						"encoding": "inplace",
						"label": "address payable",
						"numberOfBytes": "20"
					},
					"t_bytes32": {
						"encoding": "inplace",
						"label": "bytes32",
						"numberOfBytes": "32"
					},
					"t_enum(Auction_State)14": {
						"encoding": "inplace",
						"label": "enum Auction.Auction_State",
						"numberOfBytes": "1"
					},
					"t_mapping(t_address,t_uint256)": {
						"encoding": "mapping",
						"key": "t_address",
						"label": "mapping(address => uint256)",
						"numberOfBytes": "32",
						"value": "t_uint256"
					},
					"t_uint256": {
						"encoding": "inplace",
						"label": "uint256",
						"numberOfBytes": "32"
					}
				}
			},
			"userdoc": {
				"kind": "user",
				"methods": {},
				"version": 1
			}
		}
	}
}