{
	"contracts/transact.sol": {
		"transact": {
			"abi": [
				{
					"inputs": [
						{
							"internalType": "int256",
							"name": "transactions",
							"type": "int256"
						}
					],
					"name": "Block",
					"outputs": [
						{
							"internalType": "bytes32",
							"name": "hashin",
							"type": "bytes32"
						}
					],
					"stateMutability": "view",
					"type": "function"
				},
				{
					"inputs": [],
					"name": "balanceOf",
					"outputs": [
						{
							"internalType": "uint256",
							"name": "",
							"type": "uint256"
						}
					],
					"stateMutability": "view",
					"type": "function"
				},
				{
					"inputs": [
						{
							"internalType": "address",
							"name": "addr",
							"type": "address"
						}
					],
					"name": "getBalance",
					"outputs": [
						{
							"internalType": "uint256",
							"name": "",
							"type": "uint256"
						}
					],
					"stateMutability": "view",
					"type": "function"
				},
				{
					"inputs": [
						{
							"internalType": "address",
							"name": "addr",
							"type": "address"
						}
					],
					"name": "getBalanceInEth",
					"outputs": [
						{
							"internalType": "uint256",
							"name": "",
							"type": "uint256"
						}
					],
					"stateMutability": "view",
					"type": "function"
				},
				{
					"inputs": [],
					"name": "invest",
					"outputs": [],
					"stateMutability": "payable",
					"type": "function"
				},
				{
					"inputs": [],
					"name": "prevHash",
					"outputs": [
						{
							"internalType": "bytes32",
							"name": "",
							"type": "bytes32"
						}
					],
					"stateMutability": "view",
					"type": "function"
				},
				{
					"inputs": [],
					"name": "previousHash",
					"outputs": [
						{
							"internalType": "bytes32",
							"name": "",
							"type": "bytes32"
						}
					],
					"stateMutability": "view",
					"type": "function"
				}
			],
			"devdoc": {
				"kind": "dev",
				"methods": {},
				"version": 1
			},
			"evm": {
				"assembly": "    /* \"contracts/transact.sol\":60:992  contract transact {... */\n  mstore(0x40, 0x80)\n    /* \"contracts/transact.sol\":114:115  0 */\n  0x00\n    /* \"contracts/transact.sol\":85:115  bytes32 public previousHash= 0 */\n  dup1\n  shl\n  0x00\n  sstore\n    /* \"contracts/transact.sol\":60:992  contract transact {... */\n  callvalue\n  dup1\n  iszero\n  tag_1\n  jumpi\n  0x00\n  dup1\n  revert\ntag_1:\n  pop\n  dataSize(sub_0)\n  dup1\n  dataOffset(sub_0)\n  0x00\n  codecopy\n  0x00\n  return\nstop\n\nsub_0: assembly {\n        /* \"contracts/transact.sol\":60:992  contract transact {... */\n      mstore(0x40, 0x80)\n      jumpi(tag_1, lt(calldatasize, 0x04))\n      shr(0xe0, calldataload(0x00))\n      dup1\n      0x8c6f2e82\n      gt\n      tag_9\n      jumpi\n      dup1\n      0x8c6f2e82\n      eq\n      tag_5\n      jumpi\n      dup1\n      0xd4d52df4\n      eq\n      tag_6\n      jumpi\n      dup1\n      0xe8b5e51f\n      eq\n      tag_7\n      jumpi\n      dup1\n      0xf8b2cb4f\n      eq\n      tag_8\n      jumpi\n      jump(tag_1)\n    tag_9:\n      dup1\n      0x69e9c066\n      eq\n      tag_2\n      jumpi\n      dup1\n      0x722713f7\n      eq\n      tag_3\n      jumpi\n      dup1\n      0x7bd703e8\n      eq\n      tag_4\n      jumpi\n    tag_1:\n      0x00\n      dup1\n      revert\n        /* \"contracts/transact.sol\":897:983  function prevHash() public view returns(bytes32){... */\n    tag_2:\n      callvalue\n      dup1\n      iszero\n      tag_10\n      jumpi\n      0x00\n      dup1\n      revert\n    tag_10:\n      pop\n      tag_11\n      tag_12\n      jump\t// in\n    tag_11:\n      mload(0x40)\n      tag_13\n      swap2\n      swap1\n      tag_14\n      jump\t// in\n    tag_13:\n      mload(0x40)\n      dup1\n      swap2\n      sub\n      swap1\n      return\n        /* \"contracts/transact.sol\":282:380  function balanceOf() external view returns (uint) {... */\n    tag_3:\n      callvalue\n      dup1\n      iszero\n      tag_15\n      jumpi\n      0x00\n      dup1\n      revert\n    tag_15:\n      pop\n      tag_16\n      tag_17\n      jump\t// in\n    tag_16:\n      mload(0x40)\n      tag_18\n      swap2\n      swap1\n      tag_19\n      jump\t// in\n    tag_18:\n      mload(0x40)\n      dup1\n      swap2\n      sub\n      swap1\n      return\n        /* \"contracts/transact.sol\":388:494  function getBalanceInEth(address addr) public view returns(uint){... */\n    tag_4:\n      callvalue\n      dup1\n      iszero\n      tag_20\n      jumpi\n      0x00\n      dup1\n      revert\n    tag_20:\n      pop\n      tag_21\n      0x04\n      dup1\n      calldatasize\n      sub\n      dup2\n      add\n      swap1\n      tag_22\n      swap2\n      swap1\n      tag_23\n      jump\t// in\n    tag_22:\n      tag_24\n      jump\t// in\n    tag_21:\n      mload(0x40)\n      tag_25\n      swap2\n      swap1\n      tag_19\n      jump\t// in\n    tag_25:\n      mload(0x40)\n      dup1\n      swap2\n      sub\n      swap1\n      return\n        /* \"contracts/transact.sol\":610:889  function Block(int transactions)public view returns(bytes32 hashin){... */\n    tag_5:\n      callvalue\n      dup1\n      iszero\n      tag_26\n      jumpi\n      0x00\n      dup1\n      revert\n    tag_26:\n      pop\n      tag_27\n      0x04\n      dup1\n      calldatasize\n      sub\n      dup2\n      add\n      swap1\n      tag_28\n      swap2\n      swap1\n      tag_29\n      jump\t// in\n    tag_28:\n      tag_30\n      jump\t// in\n    tag_27:\n      mload(0x40)\n      tag_31\n      swap2\n      swap1\n      tag_14\n      jump\t// in\n    tag_31:\n      mload(0x40)\n      dup1\n      swap2\n      sub\n      swap1\n      return\n        /* \"contracts/transact.sol\":85:115  bytes32 public previousHash= 0 */\n    tag_6:\n      callvalue\n      dup1\n      iszero\n      tag_32\n      jumpi\n      0x00\n      dup1\n      revert\n    tag_32:\n      pop\n      tag_33\n      tag_34\n      jump\t// in\n    tag_33:\n      mload(0x40)\n      tag_35\n      swap2\n      swap1\n      tag_14\n      jump\t// in\n    tag_35:\n      mload(0x40)\n      dup1\n      swap2\n      sub\n      swap1\n      return\n        /* \"contracts/transact.sol\":163:276  function invest() external payable {... */\n    tag_7:\n      tag_36\n      tag_37\n      jump\t// in\n    tag_36:\n      stop\n        /* \"contracts/transact.sol\":502:602  function getBalance(address addr) public view returns(uint) {... */\n    tag_8:\n      callvalue\n      dup1\n      iszero\n      tag_38\n      jumpi\n      0x00\n      dup1\n      revert\n    tag_38:\n      pop\n      tag_39\n      0x04\n      dup1\n      calldatasize\n      sub\n      dup2\n      add\n      swap1\n      tag_40\n      swap2\n      swap1\n      tag_23\n      jump\t// in\n    tag_40:\n      tag_41\n      jump\t// in\n    tag_39:\n      mload(0x40)\n      tag_42\n      swap2\n      swap1\n      tag_19\n      jump\t// in\n    tag_42:\n      mload(0x40)\n      dup1\n      swap2\n      sub\n      swap1\n      return\n        /* \"contracts/transact.sol\":897:983  function prevHash() public view returns(bytes32){... */\n    tag_12:\n        /* \"contracts/transact.sol\":937:944  bytes32 */\n      0x00\n        /* \"contracts/transact.sol\":963:975  previousHash */\n      dup1\n      sload\n        /* \"contracts/transact.sol\":956:975  return previousHash */\n      swap1\n      pop\n        /* \"contracts/transact.sol\":897:983  function prevHash() public view returns(bytes32){... */\n      swap1\n      jump\t// out\n        /* \"contracts/transact.sol\":282:380  function balanceOf() external view returns (uint) {... */\n    tag_17:\n        /* \"contracts/transact.sol\":326:330  uint */\n      0x00\n        /* \"contracts/transact.sol\":350:371  address(this).balance */\n      selfbalance\n        /* \"contracts/transact.sol\":343:371  return address(this).balance */\n      swap1\n      pop\n        /* \"contracts/transact.sol\":282:380  function balanceOf() external view returns (uint) {... */\n      swap1\n      jump\t// out\n        /* \"contracts/transact.sol\":388:494  function getBalanceInEth(address addr) public view returns(uint){... */\n    tag_24:\n        /* \"contracts/transact.sol\":447:451  uint */\n      0x00\n        /* \"contracts/transact.sol\":470:486  getBalance(addr) */\n      tag_46\n        /* \"contracts/transact.sol\":481:485  addr */\n      dup3\n        /* \"contracts/transact.sol\":470:480  getBalance */\n      tag_41\n        /* \"contracts/transact.sol\":470:486  getBalance(addr) */\n      jump\t// in\n    tag_46:\n        /* \"contracts/transact.sol\":463:486  return getBalance(addr) */\n      swap1\n      pop\n        /* \"contracts/transact.sol\":388:494  function getBalanceInEth(address addr) public view returns(uint){... */\n      swap2\n      swap1\n      pop\n      jump\t// out\n        /* \"contracts/transact.sol\":610:889  function Block(int transactions)public view returns(bytes32 hashin){... */\n    tag_30:\n        /* \"contracts/transact.sol\":662:676  bytes32 hashin */\n      0x00\n        /* \"contracts/transact.sol\":687:696  uint time */\n      dup1\n        /* \"contracts/transact.sol\":698:713  block.timestamp */\n      timestamp\n        /* \"contracts/transact.sol\":687:713  uint time= block.timestamp */\n      swap1\n      pop\n        /* \"contracts/transact.sol\":722:742  bytes32 previousHash */\n      0x00\n        /* \"contracts/transact.sol\":744:745  0 */\n      dup1\n        /* \"contracts/transact.sol\":722:745  bytes32 previousHash= 0 */\n      0x00\n      shl\n      swap1\n      pop\n        /* \"contracts/transact.sol\":764:820  sha256(abi.encodePacked(time,transactions,previousHash)) */\n      0x02\n        /* \"contracts/transact.sol\":788:792  time */\n      dup3\n        /* \"contracts/transact.sol\":793:805  transactions */\n      dup6\n        /* \"contracts/transact.sol\":806:818  previousHash */\n      dup4\n        /* \"contracts/transact.sol\":771:819  abi.encodePacked(time,transactions,previousHash) */\n      add(0x20, mload(0x40))\n      tag_48\n      swap4\n      swap3\n      swap2\n      swap1\n      tag_49\n      jump\t// in\n    tag_48:\n      mload(0x40)\n      0x20\n      dup2\n      dup4\n      sub\n      sub\n      dup2\n      mstore\n      swap1\n      0x40\n      mstore\n        /* \"contracts/transact.sol\":764:820  sha256(abi.encodePacked(time,transactions,previousHash)) */\n      mload(0x40)\n      tag_50\n      swap2\n      swap1\n      tag_51\n      jump\t// in\n    tag_50:\n      0x20\n      mload(0x40)\n      dup1\n      dup4\n      sub\n      dup2\n      dup6\n      gas\n      staticcall\n      iszero\n      dup1\n      iszero\n      tag_53\n      jumpi\n      returndatasize\n      0x00\n      dup1\n      returndatacopy\n      revert(0x00, returndatasize)\n    tag_53:\n      pop\n      pop\n      pop\n      mload(0x40)\n      returndatasize\n      not(0x1f)\n      0x1f\n      dup3\n      add\n      and\n      dup3\n      add\n      dup1\n      0x40\n      mstore\n      pop\n      dup2\n      add\n      swap1\n      tag_54\n      swap2\n      swap1\n      tag_55\n      jump\t// in\n    tag_54:\n        /* \"contracts/transact.sol\":756:820  hashin= sha256(abi.encodePacked(time,transactions,previousHash)) */\n      swap3\n      pop\n        /* \"contracts/transact.sol\":844:850  hashin */\n      dup3\n        /* \"contracts/transact.sol\":831:850  previousHash=hashin */\n      swap1\n      pop\n        /* \"contracts/transact.sol\":861:874  return hashin */\n      pop\n      pop\n        /* \"contracts/transact.sol\":610:889  function Block(int transactions)public view returns(bytes32 hashin){... */\n      swap2\n      swap1\n      pop\n      jump\t// out\n        /* \"contracts/transact.sol\":85:115  bytes32 public previousHash= 0 */\n    tag_34:\n      sload(0x00)\n      dup2\n      jump\t// out\n        /* \"contracts/transact.sol\":163:276  function invest() external payable {... */\n    tag_37:\n        /* \"contracts/transact.sol\":224:231  1 ether */\n      0x0de0b6b3a7640000\n        /* \"contracts/transact.sol\":212:221  msg.value */\n      callvalue\n        /* \"contracts/transact.sol\":212:231  msg.value < 1 ether */\n      lt\n        /* \"contracts/transact.sol\":209:267  if(msg.value < 1 ether){... */\n      iszero\n      tag_57\n      jumpi\n        /* \"contracts/transact.sol\":247:255  revert() */\n      0x00\n      dup1\n      revert\n        /* \"contracts/transact.sol\":209:267  if(msg.value < 1 ether){... */\n    tag_57:\n        /* \"contracts/transact.sol\":163:276  function invest() external payable {... */\n      jump\t// out\n        /* \"contracts/transact.sol\":502:602  function getBalance(address addr) public view returns(uint) {... */\n    tag_41:\n        /* \"contracts/transact.sol\":556:560  uint */\n      0x00\n        /* \"contracts/transact.sol\":580:588  balances */\n      0x01\n        /* \"contracts/transact.sol\":580:594  balances[addr] */\n      0x00\n        /* \"contracts/transact.sol\":589:593  addr */\n      dup4\n        /* \"contracts/transact.sol\":580:594  balances[addr] */\n      0xffffffffffffffffffffffffffffffffffffffff\n      and\n      0xffffffffffffffffffffffffffffffffffffffff\n      and\n      dup2\n      mstore\n      0x20\n      add\n      swap1\n      dup2\n      mstore\n      0x20\n      add\n      0x00\n      keccak256\n      sload\n        /* \"contracts/transact.sol\":573:594  return balances[addr] */\n      swap1\n      pop\n        /* \"contracts/transact.sol\":502:602  function getBalance(address addr) public view returns(uint) {... */\n      swap2\n      swap1\n      pop\n      jump\t// out\n        /* \"#utility.yul\":7:84   */\n    tag_59:\n        /* \"#utility.yul\":44:51   */\n      0x00\n        /* \"#utility.yul\":73:78   */\n      dup2\n        /* \"#utility.yul\":62:78   */\n      swap1\n      pop\n        /* \"#utility.yul\":7:84   */\n      swap2\n      swap1\n      pop\n      jump\t// out\n        /* \"#utility.yul\":90:208   */\n    tag_60:\n        /* \"#utility.yul\":177:201   */\n      tag_88\n        /* \"#utility.yul\":195:200   */\n      dup2\n        /* \"#utility.yul\":177:201   */\n      tag_59\n      jump\t// in\n    tag_88:\n        /* \"#utility.yul\":172:175   */\n      dup3\n        /* \"#utility.yul\":165:202   */\n      mstore\n        /* \"#utility.yul\":90:208   */\n      pop\n      pop\n      jump\t// out\n        /* \"#utility.yul\":214:436   */\n    tag_14:\n        /* \"#utility.yul\":307:311   */\n      0x00\n        /* \"#utility.yul\":345:347   */\n      0x20\n        /* \"#utility.yul\":334:343   */\n      dup3\n        /* \"#utility.yul\":330:348   */\n      add\n        /* \"#utility.yul\":322:348   */\n      swap1\n      pop\n        /* \"#utility.yul\":358:429   */\n      tag_90\n        /* \"#utility.yul\":426:427   */\n      0x00\n        /* \"#utility.yul\":415:424   */\n      dup4\n        /* \"#utility.yul\":411:428   */\n      add\n        /* \"#utility.yul\":402:408   */\n      dup5\n        /* \"#utility.yul\":358:429   */\n      tag_60\n      jump\t// in\n    tag_90:\n        /* \"#utility.yul\":214:436   */\n      swap3\n      swap2\n      pop\n      pop\n      jump\t// out\n        /* \"#utility.yul\":442:519   */\n    tag_61:\n        /* \"#utility.yul\":479:486   */\n      0x00\n        /* \"#utility.yul\":508:513   */\n      dup2\n        /* \"#utility.yul\":497:513   */\n      swap1\n      pop\n        /* \"#utility.yul\":442:519   */\n      swap2\n      swap1\n      pop\n      jump\t// out\n        /* \"#utility.yul\":525:643   */\n    tag_62:\n        /* \"#utility.yul\":612:636   */\n      tag_93\n        /* \"#utility.yul\":630:635   */\n      dup2\n        /* \"#utility.yul\":612:636   */\n      tag_61\n      jump\t// in\n    tag_93:\n        /* \"#utility.yul\":607:610   */\n      dup3\n        /* \"#utility.yul\":600:637   */\n      mstore\n        /* \"#utility.yul\":525:643   */\n      pop\n      pop\n      jump\t// out\n        /* \"#utility.yul\":649:871   */\n    tag_19:\n        /* \"#utility.yul\":742:746   */\n      0x00\n        /* \"#utility.yul\":780:782   */\n      0x20\n        /* \"#utility.yul\":769:778   */\n      dup3\n        /* \"#utility.yul\":765:783   */\n      add\n        /* \"#utility.yul\":757:783   */\n      swap1\n      pop\n        /* \"#utility.yul\":793:864   */\n      tag_95\n        /* \"#utility.yul\":861:862   */\n      0x00\n        /* \"#utility.yul\":850:859   */\n      dup4\n        /* \"#utility.yul\":846:863   */\n      add\n        /* \"#utility.yul\":837:843   */\n      dup5\n        /* \"#utility.yul\":793:864   */\n      tag_62\n      jump\t// in\n    tag_95:\n        /* \"#utility.yul\":649:871   */\n      swap3\n      swap2\n      pop\n      pop\n      jump\t// out\n        /* \"#utility.yul\":958:1075   */\n    tag_64:\n        /* \"#utility.yul\":1067:1068   */\n      0x00\n        /* \"#utility.yul\":1064:1065   */\n      dup1\n        /* \"#utility.yul\":1057:1069   */\n      revert\n        /* \"#utility.yul\":1204:1330   */\n    tag_66:\n        /* \"#utility.yul\":1241:1248   */\n      0x00\n        /* \"#utility.yul\":1281:1323   */\n      0xffffffffffffffffffffffffffffffffffffffff\n        /* \"#utility.yul\":1274:1279   */\n      dup3\n        /* \"#utility.yul\":1270:1324   */\n      and\n        /* \"#utility.yul\":1259:1324   */\n      swap1\n      pop\n        /* \"#utility.yul\":1204:1330   */\n      swap2\n      swap1\n      pop\n      jump\t// out\n        /* \"#utility.yul\":1336:1432   */\n    tag_67:\n        /* \"#utility.yul\":1373:1380   */\n      0x00\n        /* \"#utility.yul\":1402:1426   */\n      tag_101\n        /* \"#utility.yul\":1420:1425   */\n      dup3\n        /* \"#utility.yul\":1402:1426   */\n      tag_66\n      jump\t// in\n    tag_101:\n        /* \"#utility.yul\":1391:1426   */\n      swap1\n      pop\n        /* \"#utility.yul\":1336:1432   */\n      swap2\n      swap1\n      pop\n      jump\t// out\n        /* \"#utility.yul\":1438:1560   */\n    tag_68:\n        /* \"#utility.yul\":1511:1535   */\n      tag_103\n        /* \"#utility.yul\":1529:1534   */\n      dup2\n        /* \"#utility.yul\":1511:1535   */\n      tag_67\n      jump\t// in\n    tag_103:\n        /* \"#utility.yul\":1504:1509   */\n      dup2\n        /* \"#utility.yul\":1501:1536   */\n      eq\n        /* \"#utility.yul\":1491:1554   */\n      tag_104\n      jumpi\n        /* \"#utility.yul\":1550:1551   */\n      0x00\n        /* \"#utility.yul\":1547:1548   */\n      dup1\n        /* \"#utility.yul\":1540:1552   */\n      revert\n        /* \"#utility.yul\":1491:1554   */\n    tag_104:\n        /* \"#utility.yul\":1438:1560   */\n      pop\n      jump\t// out\n        /* \"#utility.yul\":1566:1705   */\n    tag_69:\n        /* \"#utility.yul\":1612:1617   */\n      0x00\n        /* \"#utility.yul\":1650:1656   */\n      dup2\n        /* \"#utility.yul\":1637:1657   */\n      calldataload\n        /* \"#utility.yul\":1628:1657   */\n      swap1\n      pop\n        /* \"#utility.yul\":1666:1699   */\n      tag_106\n        /* \"#utility.yul\":1693:1698   */\n      dup2\n        /* \"#utility.yul\":1666:1699   */\n      tag_68\n      jump\t// in\n    tag_106:\n        /* \"#utility.yul\":1566:1705   */\n      swap3\n      swap2\n      pop\n      pop\n      jump\t// out\n        /* \"#utility.yul\":1711:2040   */\n    tag_23:\n        /* \"#utility.yul\":1770:1776   */\n      0x00\n        /* \"#utility.yul\":1819:1821   */\n      0x20\n        /* \"#utility.yul\":1807:1816   */\n      dup3\n        /* \"#utility.yul\":1798:1805   */\n      dup5\n        /* \"#utility.yul\":1794:1817   */\n      sub\n        /* \"#utility.yul\":1790:1822   */\n      slt\n        /* \"#utility.yul\":1787:1906   */\n      iszero\n      tag_108\n      jumpi\n        /* \"#utility.yul\":1825:1904   */\n      tag_109\n      tag_64\n      jump\t// in\n    tag_109:\n        /* \"#utility.yul\":1787:1906   */\n    tag_108:\n        /* \"#utility.yul\":1945:1946   */\n      0x00\n        /* \"#utility.yul\":1970:2023   */\n      tag_110\n        /* \"#utility.yul\":2015:2022   */\n      dup5\n        /* \"#utility.yul\":2006:2012   */\n      dup3\n        /* \"#utility.yul\":1995:2004   */\n      dup6\n        /* \"#utility.yul\":1991:2013   */\n      add\n        /* \"#utility.yul\":1970:2023   */\n      tag_69\n      jump\t// in\n    tag_110:\n        /* \"#utility.yul\":1960:2023   */\n      swap2\n      pop\n        /* \"#utility.yul\":1916:2033   */\n      pop\n        /* \"#utility.yul\":1711:2040   */\n      swap3\n      swap2\n      pop\n      pop\n      jump\t// out\n        /* \"#utility.yul\":2046:2122   */\n    tag_70:\n        /* \"#utility.yul\":2082:2089   */\n      0x00\n        /* \"#utility.yul\":2111:2116   */\n      dup2\n        /* \"#utility.yul\":2100:2116   */\n      swap1\n      pop\n        /* \"#utility.yul\":2046:2122   */\n      swap2\n      swap1\n      pop\n      jump\t// out\n        /* \"#utility.yul\":2128:2248   */\n    tag_71:\n        /* \"#utility.yul\":2200:2223   */\n      tag_113\n        /* \"#utility.yul\":2217:2222   */\n      dup2\n        /* \"#utility.yul\":2200:2223   */\n      tag_70\n      jump\t// in\n    tag_113:\n        /* \"#utility.yul\":2193:2198   */\n      dup2\n        /* \"#utility.yul\":2190:2224   */\n      eq\n        /* \"#utility.yul\":2180:2242   */\n      tag_114\n      jumpi\n        /* \"#utility.yul\":2238:2239   */\n      0x00\n        /* \"#utility.yul\":2235:2236   */\n      dup1\n        /* \"#utility.yul\":2228:2240   */\n      revert\n        /* \"#utility.yul\":2180:2242   */\n    tag_114:\n        /* \"#utility.yul\":2128:2248   */\n      pop\n      jump\t// out\n        /* \"#utility.yul\":2254:2391   */\n    tag_72:\n        /* \"#utility.yul\":2299:2304   */\n      0x00\n        /* \"#utility.yul\":2337:2343   */\n      dup2\n        /* \"#utility.yul\":2324:2344   */\n      calldataload\n        /* \"#utility.yul\":2315:2344   */\n      swap1\n      pop\n        /* \"#utility.yul\":2353:2385   */\n      tag_116\n        /* \"#utility.yul\":2379:2384   */\n      dup2\n        /* \"#utility.yul\":2353:2385   */\n      tag_71\n      jump\t// in\n    tag_116:\n        /* \"#utility.yul\":2254:2391   */\n      swap3\n      swap2\n      pop\n      pop\n      jump\t// out\n        /* \"#utility.yul\":2397:2724   */\n    tag_29:\n        /* \"#utility.yul\":2455:2461   */\n      0x00\n        /* \"#utility.yul\":2504:2506   */\n      0x20\n        /* \"#utility.yul\":2492:2501   */\n      dup3\n        /* \"#utility.yul\":2483:2490   */\n      dup5\n        /* \"#utility.yul\":2479:2502   */\n      sub\n        /* \"#utility.yul\":2475:2507   */\n      slt\n        /* \"#utility.yul\":2472:2591   */\n      iszero\n      tag_118\n      jumpi\n        /* \"#utility.yul\":2510:2589   */\n      tag_119\n      tag_64\n      jump\t// in\n    tag_119:\n        /* \"#utility.yul\":2472:2591   */\n    tag_118:\n        /* \"#utility.yul\":2630:2631   */\n      0x00\n        /* \"#utility.yul\":2655:2707   */\n      tag_120\n        /* \"#utility.yul\":2699:2706   */\n      dup5\n        /* \"#utility.yul\":2690:2696   */\n      dup3\n        /* \"#utility.yul\":2679:2688   */\n      dup6\n        /* \"#utility.yul\":2675:2697   */\n      add\n        /* \"#utility.yul\":2655:2707   */\n      tag_72\n      jump\t// in\n    tag_120:\n        /* \"#utility.yul\":2645:2707   */\n      swap2\n      pop\n        /* \"#utility.yul\":2601:2717   */\n      pop\n        /* \"#utility.yul\":2397:2724   */\n      swap3\n      swap2\n      pop\n      pop\n      jump\t// out\n        /* \"#utility.yul\":2730:2809   */\n    tag_73:\n        /* \"#utility.yul\":2769:2776   */\n      0x00\n        /* \"#utility.yul\":2798:2803   */\n      dup2\n        /* \"#utility.yul\":2787:2803   */\n      swap1\n      pop\n        /* \"#utility.yul\":2730:2809   */\n      swap2\n      swap1\n      pop\n      jump\t// out\n        /* \"#utility.yul\":2815:2972   */\n    tag_74:\n        /* \"#utility.yul\":2920:2965   */\n      tag_123\n        /* \"#utility.yul\":2940:2964   */\n      tag_124\n        /* \"#utility.yul\":2958:2963   */\n      dup3\n        /* \"#utility.yul\":2940:2964   */\n      tag_61\n      jump\t// in\n    tag_124:\n        /* \"#utility.yul\":2920:2965   */\n      tag_73\n      jump\t// in\n    tag_123:\n        /* \"#utility.yul\":2915:2918   */\n      dup3\n        /* \"#utility.yul\":2908:2966   */\n      mstore\n        /* \"#utility.yul\":2815:2972   */\n      pop\n      pop\n      jump\t// out\n        /* \"#utility.yul\":2978:3056   */\n    tag_75:\n        /* \"#utility.yul\":3016:3023   */\n      0x00\n        /* \"#utility.yul\":3045:3050   */\n      dup2\n        /* \"#utility.yul\":3034:3050   */\n      swap1\n      pop\n        /* \"#utility.yul\":2978:3056   */\n      swap2\n      swap1\n      pop\n      jump\t// out\n        /* \"#utility.yul\":3062:3215   */\n    tag_76:\n        /* \"#utility.yul\":3165:3208   */\n      tag_127\n        /* \"#utility.yul\":3184:3207   */\n      tag_128\n        /* \"#utility.yul\":3201:3206   */\n      dup3\n        /* \"#utility.yul\":3184:3207   */\n      tag_70\n      jump\t// in\n    tag_128:\n        /* \"#utility.yul\":3165:3208   */\n      tag_75\n      jump\t// in\n    tag_127:\n        /* \"#utility.yul\":3160:3163   */\n      dup3\n        /* \"#utility.yul\":3153:3209   */\n      mstore\n        /* \"#utility.yul\":3062:3215   */\n      pop\n      pop\n      jump\t// out\n        /* \"#utility.yul\":3221:3300   */\n    tag_77:\n        /* \"#utility.yul\":3260:3267   */\n      0x00\n        /* \"#utility.yul\":3289:3294   */\n      dup2\n        /* \"#utility.yul\":3278:3294   */\n      swap1\n      pop\n        /* \"#utility.yul\":3221:3300   */\n      swap2\n      swap1\n      pop\n      jump\t// out\n        /* \"#utility.yul\":3306:3463   */\n    tag_78:\n        /* \"#utility.yul\":3411:3456   */\n      tag_131\n        /* \"#utility.yul\":3431:3455   */\n      tag_132\n        /* \"#utility.yul\":3449:3454   */\n      dup3\n        /* \"#utility.yul\":3431:3455   */\n      tag_59\n      jump\t// in\n    tag_132:\n        /* \"#utility.yul\":3411:3456   */\n      tag_77\n      jump\t// in\n    tag_131:\n        /* \"#utility.yul\":3406:3409   */\n      dup3\n        /* \"#utility.yul\":3399:3457   */\n      mstore\n        /* \"#utility.yul\":3306:3463   */\n      pop\n      pop\n      jump\t// out\n        /* \"#utility.yul\":3469:4003   */\n    tag_49:\n        /* \"#utility.yul\":3635:3638   */\n      0x00\n        /* \"#utility.yul\":3650:3725   */\n      tag_134\n        /* \"#utility.yul\":3721:3724   */\n      dup3\n        /* \"#utility.yul\":3712:3718   */\n      dup7\n        /* \"#utility.yul\":3650:3725   */\n      tag_74\n      jump\t// in\n    tag_134:\n        /* \"#utility.yul\":3750:3752   */\n      0x20\n        /* \"#utility.yul\":3745:3748   */\n      dup3\n        /* \"#utility.yul\":3741:3753   */\n      add\n        /* \"#utility.yul\":3734:3753   */\n      swap2\n      pop\n        /* \"#utility.yul\":3763:3836   */\n      tag_135\n        /* \"#utility.yul\":3832:3835   */\n      dup3\n        /* \"#utility.yul\":3823:3829   */\n      dup6\n        /* \"#utility.yul\":3763:3836   */\n      tag_76\n      jump\t// in\n    tag_135:\n        /* \"#utility.yul\":3861:3863   */\n      0x20\n        /* \"#utility.yul\":3856:3859   */\n      dup3\n        /* \"#utility.yul\":3852:3864   */\n      add\n        /* \"#utility.yul\":3845:3864   */\n      swap2\n      pop\n        /* \"#utility.yul\":3874:3949   */\n      tag_136\n        /* \"#utility.yul\":3945:3948   */\n      dup3\n        /* \"#utility.yul\":3936:3942   */\n      dup5\n        /* \"#utility.yul\":3874:3949   */\n      tag_78\n      jump\t// in\n    tag_136:\n        /* \"#utility.yul\":3974:3976   */\n      0x20\n        /* \"#utility.yul\":3969:3972   */\n      dup3\n        /* \"#utility.yul\":3965:3977   */\n      add\n        /* \"#utility.yul\":3958:3977   */\n      swap2\n      pop\n        /* \"#utility.yul\":3994:3997   */\n      dup2\n        /* \"#utility.yul\":3987:3997   */\n      swap1\n      pop\n        /* \"#utility.yul\":3469:4003   */\n      swap5\n      swap4\n      pop\n      pop\n      pop\n      pop\n      jump\t// out\n        /* \"#utility.yul\":4009:4107   */\n    tag_79:\n        /* \"#utility.yul\":4060:4066   */\n      0x00\n        /* \"#utility.yul\":4094:4099   */\n      dup2\n        /* \"#utility.yul\":4088:4100   */\n      mload\n        /* \"#utility.yul\":4078:4100   */\n      swap1\n      pop\n        /* \"#utility.yul\":4009:4107   */\n      swap2\n      swap1\n      pop\n      jump\t// out\n        /* \"#utility.yul\":4113:4260   */\n    tag_80:\n        /* \"#utility.yul\":4214:4225   */\n      0x00\n        /* \"#utility.yul\":4251:4254   */\n      dup2\n        /* \"#utility.yul\":4236:4254   */\n      swap1\n      pop\n        /* \"#utility.yul\":4113:4260   */\n      swap3\n      swap2\n      pop\n      pop\n      jump\t// out\n        /* \"#utility.yul\":4266:4573   */\n    tag_81:\n        /* \"#utility.yul\":4334:4335   */\n      0x00\n        /* \"#utility.yul\":4344:4457   */\n    tag_140:\n        /* \"#utility.yul\":4358:4364   */\n      dup4\n        /* \"#utility.yul\":4355:4356   */\n      dup2\n        /* \"#utility.yul\":4352:4365   */\n      lt\n        /* \"#utility.yul\":4344:4457   */\n      iszero\n      tag_142\n      jumpi\n        /* \"#utility.yul\":4443:4444   */\n      dup1\n        /* \"#utility.yul\":4438:4441   */\n      dup3\n        /* \"#utility.yul\":4434:4445   */\n      add\n        /* \"#utility.yul\":4428:4446   */\n      mload\n        /* \"#utility.yul\":4424:4425   */\n      dup2\n        /* \"#utility.yul\":4419:4422   */\n      dup5\n        /* \"#utility.yul\":4415:4426   */\n      add\n        /* \"#utility.yul\":4408:4447   */\n      mstore\n        /* \"#utility.yul\":4380:4382   */\n      0x20\n        /* \"#utility.yul\":4377:4378   */\n      dup2\n        /* \"#utility.yul\":4373:4383   */\n      add\n        /* \"#utility.yul\":4368:4383   */\n      swap1\n      pop\n        /* \"#utility.yul\":4344:4457   */\n      jump(tag_140)\n    tag_142:\n        /* \"#utility.yul\":4475:4481   */\n      dup4\n        /* \"#utility.yul\":4472:4473   */\n      dup2\n        /* \"#utility.yul\":4469:4482   */\n      gt\n        /* \"#utility.yul\":4466:4567   */\n      iszero\n      tag_143\n      jumpi\n        /* \"#utility.yul\":4555:4556   */\n      0x00\n        /* \"#utility.yul\":4546:4552   */\n      dup5\n        /* \"#utility.yul\":4541:4544   */\n      dup5\n        /* \"#utility.yul\":4537:4553   */\n      add\n        /* \"#utility.yul\":4530:4557   */\n      mstore\n        /* \"#utility.yul\":4466:4567   */\n    tag_143:\n        /* \"#utility.yul\":4315:4573   */\n      pop\n        /* \"#utility.yul\":4266:4573   */\n      pop\n      pop\n      pop\n      jump\t// out\n        /* \"#utility.yul\":4579:4952   */\n    tag_82:\n        /* \"#utility.yul\":4683:4686   */\n      0x00\n        /* \"#utility.yul\":4711:4749   */\n      tag_145\n        /* \"#utility.yul\":4743:4748   */\n      dup3\n        /* \"#utility.yul\":4711:4749   */\n      tag_79\n      jump\t// in\n    tag_145:\n        /* \"#utility.yul\":4765:4853   */\n      tag_146\n        /* \"#utility.yul\":4846:4852   */\n      dup2\n        /* \"#utility.yul\":4841:4844   */\n      dup6\n        /* \"#utility.yul\":4765:4853   */\n      tag_80\n      jump\t// in\n    tag_146:\n        /* \"#utility.yul\":4758:4853   */\n      swap4\n      pop\n        /* \"#utility.yul\":4862:4914   */\n      tag_147\n        /* \"#utility.yul\":4907:4913   */\n      dup2\n        /* \"#utility.yul\":4902:4905   */\n      dup6\n        /* \"#utility.yul\":4895:4899   */\n      0x20\n        /* \"#utility.yul\":4888:4893   */\n      dup7\n        /* \"#utility.yul\":4884:4900   */\n      add\n        /* \"#utility.yul\":4862:4914   */\n      tag_81\n      jump\t// in\n    tag_147:\n        /* \"#utility.yul\":4939:4945   */\n      dup1\n        /* \"#utility.yul\":4934:4937   */\n      dup5\n        /* \"#utility.yul\":4930:4946   */\n      add\n        /* \"#utility.yul\":4923:4946   */\n      swap2\n      pop\n        /* \"#utility.yul\":4687:4952   */\n      pop\n        /* \"#utility.yul\":4579:4952   */\n      swap3\n      swap2\n      pop\n      pop\n      jump\t// out\n        /* \"#utility.yul\":4958:5229   */\n    tag_51:\n        /* \"#utility.yul\":5088:5091   */\n      0x00\n        /* \"#utility.yul\":5110:5203   */\n      tag_149\n        /* \"#utility.yul\":5199:5202   */\n      dup3\n        /* \"#utility.yul\":5190:5196   */\n      dup5\n        /* \"#utility.yul\":5110:5203   */\n      tag_82\n      jump\t// in\n    tag_149:\n        /* \"#utility.yul\":5103:5203   */\n      swap2\n      pop\n        /* \"#utility.yul\":5220:5223   */\n      dup2\n        /* \"#utility.yul\":5213:5223   */\n      swap1\n      pop\n        /* \"#utility.yul\":4958:5229   */\n      swap3\n      swap2\n      pop\n      pop\n      jump\t// out\n        /* \"#utility.yul\":5235:5357   */\n    tag_83:\n        /* \"#utility.yul\":5308:5332   */\n      tag_151\n        /* \"#utility.yul\":5326:5331   */\n      dup2\n        /* \"#utility.yul\":5308:5332   */\n      tag_59\n      jump\t// in\n    tag_151:\n        /* \"#utility.yul\":5301:5306   */\n      dup2\n        /* \"#utility.yul\":5298:5333   */\n      eq\n        /* \"#utility.yul\":5288:5351   */\n      tag_152\n      jumpi\n        /* \"#utility.yul\":5347:5348   */\n      0x00\n        /* \"#utility.yul\":5344:5345   */\n      dup1\n        /* \"#utility.yul\":5337:5349   */\n      revert\n        /* \"#utility.yul\":5288:5351   */\n    tag_152:\n        /* \"#utility.yul\":5235:5357   */\n      pop\n      jump\t// out\n        /* \"#utility.yul\":5363:5506   */\n    tag_84:\n        /* \"#utility.yul\":5420:5425   */\n      0x00\n        /* \"#utility.yul\":5451:5457   */\n      dup2\n        /* \"#utility.yul\":5445:5458   */\n      mload\n        /* \"#utility.yul\":5436:5458   */\n      swap1\n      pop\n        /* \"#utility.yul\":5467:5500   */\n      tag_154\n        /* \"#utility.yul\":5494:5499   */\n      dup2\n        /* \"#utility.yul\":5467:5500   */\n      tag_83\n      jump\t// in\n    tag_154:\n        /* \"#utility.yul\":5363:5506   */\n      swap3\n      swap2\n      pop\n      pop\n      jump\t// out\n        /* \"#utility.yul\":5512:5863   */\n    tag_55:\n        /* \"#utility.yul\":5582:5588   */\n      0x00\n        /* \"#utility.yul\":5631:5633   */\n      0x20\n        /* \"#utility.yul\":5619:5628   */\n      dup3\n        /* \"#utility.yul\":5610:5617   */\n      dup5\n        /* \"#utility.yul\":5606:5629   */\n      sub\n        /* \"#utility.yul\":5602:5634   */\n      slt\n        /* \"#utility.yul\":5599:5718   */\n      iszero\n      tag_156\n      jumpi\n        /* \"#utility.yul\":5637:5716   */\n      tag_157\n      tag_64\n      jump\t// in\n    tag_157:\n        /* \"#utility.yul\":5599:5718   */\n    tag_156:\n        /* \"#utility.yul\":5757:5758   */\n      0x00\n        /* \"#utility.yul\":5782:5846   */\n      tag_158\n        /* \"#utility.yul\":5838:5845   */\n      dup5\n        /* \"#utility.yul\":5829:5835   */\n      dup3\n        /* \"#utility.yul\":5818:5827   */\n      dup6\n        /* \"#utility.yul\":5814:5836   */\n      add\n        /* \"#utility.yul\":5782:5846   */\n      tag_84\n      jump\t// in\n    tag_158:\n        /* \"#utility.yul\":5772:5846   */\n      swap2\n      pop\n        /* \"#utility.yul\":5728:5856   */\n      pop\n        /* \"#utility.yul\":5512:5863   */\n      swap3\n      swap2\n      pop\n      pop\n      jump\t// out\n\n    auxdata: 0xa264697066735822122068c5e862a512ecfbfad6fda5b67cef3ff5d4b8092e556f9f0705a548a4d48f6c64736f6c634300080b0033\n}\n",
				"bytecode": {
					"linkReferences": {},
					"object": "60806040526000801b60005534801561001757600080fd5b506105e8806100276000396000f3fe6080604052600436106100705760003560e01c80638c6f2e821161004e5780638c6f2e8214610108578063d4d52df414610145578063e8b5e51f14610170578063f8b2cb4f1461017a57610070565b806369e9c06614610075578063722713f7146100a05780637bd703e8146100cb575b600080fd5b34801561008157600080fd5b5061008a6101b7565b60405161009791906102e6565b60405180910390f35b3480156100ac57600080fd5b506100b56101c0565b6040516100c2919061031a565b60405180910390f35b3480156100d757600080fd5b506100f260048036038101906100ed9190610398565b6101c8565b6040516100ff919061031a565b60405180910390f35b34801561011457600080fd5b5061012f600480360381019061012a91906103fb565b6101da565b60405161013c91906102e6565b60405180910390f35b34801561015157600080fd5b5061015a610267565b60405161016791906102e6565b60405180910390f35b61017861026d565b005b34801561018657600080fd5b506101a1600480360381019061019c9190610398565b610284565b6040516101ae919061031a565b60405180910390f35b60008054905090565b600047905090565b60006101d382610284565b9050919050565b60008042905060008060001b905060028285836040516020016101ff9392919061048b565b60405160208183030381529060405260405161021b9190610542565b602060405180830381855afa158015610238573d6000803e3d6000fd5b5050506040513d601f19601f8201168201806040525081019061025b9190610585565b92508290505050919050565b60005481565b670de0b6b3a764000034101561028257600080fd5b565b6000600160008373ffffffffffffffffffffffffffffffffffffffff1673ffffffffffffffffffffffffffffffffffffffff168152602001908152602001600020549050919050565b6000819050919050565b6102e0816102cd565b82525050565b60006020820190506102fb60008301846102d7565b92915050565b6000819050919050565b61031481610301565b82525050565b600060208201905061032f600083018461030b565b92915050565b600080fd5b600073ffffffffffffffffffffffffffffffffffffffff82169050919050565b60006103658261033a565b9050919050565b6103758161035a565b811461038057600080fd5b50565b6000813590506103928161036c565b92915050565b6000602082840312156103ae576103ad610335565b5b60006103bc84828501610383565b91505092915050565b6000819050919050565b6103d8816103c5565b81146103e357600080fd5b50565b6000813590506103f5816103cf565b92915050565b60006020828403121561041157610410610335565b5b600061041f848285016103e6565b91505092915050565b6000819050919050565b61044361043e82610301565b610428565b82525050565b6000819050919050565b61046461045f826103c5565b610449565b82525050565b6000819050919050565b610485610480826102cd565b61046a565b82525050565b60006104978286610432565b6020820191506104a78285610453565b6020820191506104b78284610474565b602082019150819050949350505050565b600081519050919050565b600081905092915050565b60005b838110156104fc5780820151818401526020810190506104e1565b8381111561050b576000848401525b50505050565b600061051c826104c8565b61052681856104d3565b93506105368185602086016104de565b80840191505092915050565b600061054e8284610511565b915081905092915050565b610562816102cd565b811461056d57600080fd5b50565b60008151905061057f81610559565b92915050565b60006020828403121561059b5761059a610335565b5b60006105a984828501610570565b9150509291505056fea264697066735822122068c5e862a512ecfbfad6fda5b67cef3ff5d4b8092e556f9f0705a548a4d48f6c64736f6c634300080b0033",
					"opcodes": "PUSH1 0x80 PUSH1 0x40 MSTORE PUSH1 0x0 DUP1 SHL PUSH1 0x0 SSTORE CALLVALUE DUP1 ISZERO PUSH2 0x17 JUMPI PUSH1 0x0 DUP1 REVERT JUMPDEST POP PUSH2 0x5E8 DUP1 PUSH2 0x27 PUSH1 0x0 CODECOPY PUSH1 0x0 RETURN INVALID PUSH1 0x80 PUSH1 0x40 MSTORE PUSH1 0x4 CALLDATASIZE LT PUSH2 0x70 JUMPI PUSH1 0x0 CALLDATALOAD PUSH1 0xE0 SHR DUP1 PUSH4 0x8C6F2E82 GT PUSH2 0x4E JUMPI DUP1 PUSH4 0x8C6F2E82 EQ PUSH2 0x108 JUMPI DUP1 PUSH4 0xD4D52DF4 EQ PUSH2 0x145 JUMPI DUP1 PUSH4 0xE8B5E51F EQ PUSH2 0x170 JUMPI DUP1 PUSH4 0xF8B2CB4F EQ PUSH2 0x17A JUMPI PUSH2 0x70 JUMP JUMPDEST DUP1 PUSH4 0x69E9C066 EQ PUSH2 0x75 JUMPI DUP1 PUSH4 0x722713F7 EQ PUSH2 0xA0 JUMPI DUP1 PUSH4 0x7BD703E8 EQ PUSH2 0xCB JUMPI JUMPDEST PUSH1 0x0 DUP1 REVERT JUMPDEST CALLVALUE DUP1 ISZERO PUSH2 0x81 JUMPI PUSH1 0x0 DUP1 REVERT JUMPDEST POP PUSH2 0x8A PUSH2 0x1B7 JUMP JUMPDEST PUSH1 0x40 MLOAD PUSH2 0x97 SWAP2 SWAP1 PUSH2 0x2E6 JUMP JUMPDEST PUSH1 0x40 MLOAD DUP1 SWAP2 SUB SWAP1 RETURN JUMPDEST CALLVALUE DUP1 ISZERO PUSH2 0xAC JUMPI PUSH1 0x0 DUP1 REVERT JUMPDEST POP PUSH2 0xB5 PUSH2 0x1C0 JUMP JUMPDEST PUSH1 0x40 MLOAD PUSH2 0xC2 SWAP2 SWAP1 PUSH2 0x31A JUMP JUMPDEST PUSH1 0x40 MLOAD DUP1 SWAP2 SUB SWAP1 RETURN JUMPDEST CALLVALUE DUP1 ISZERO PUSH2 0xD7 JUMPI PUSH1 0x0 DUP1 REVERT JUMPDEST POP PUSH2 0xF2 PUSH1 0x4 DUP1 CALLDATASIZE SUB DUP2 ADD SWAP1 PUSH2 0xED SWAP2 SWAP1 PUSH2 0x398 JUMP JUMPDEST PUSH2 0x1C8 JUMP JUMPDEST PUSH1 0x40 MLOAD PUSH2 0xFF SWAP2 SWAP1 PUSH2 0x31A JUMP JUMPDEST PUSH1 0x40 MLOAD DUP1 SWAP2 SUB SWAP1 RETURN JUMPDEST CALLVALUE DUP1 ISZERO PUSH2 0x114 JUMPI PUSH1 0x0 DUP1 REVERT JUMPDEST POP PUSH2 0x12F PUSH1 0x4 DUP1 CALLDATASIZE SUB DUP2 ADD SWAP1 PUSH2 0x12A SWAP2 SWAP1 PUSH2 0x3FB JUMP JUMPDEST PUSH2 0x1DA JUMP JUMPDEST PUSH1 0x40 MLOAD PUSH2 0x13C SWAP2 SWAP1 PUSH2 0x2E6 JUMP JUMPDEST PUSH1 0x40 MLOAD DUP1 SWAP2 SUB SWAP1 RETURN JUMPDEST CALLVALUE DUP1 ISZERO PUSH2 0x151 JUMPI PUSH1 0x0 DUP1 REVERT JUMPDEST POP PUSH2 0x15A PUSH2 0x267 JUMP JUMPDEST PUSH1 0x40 MLOAD PUSH2 0x167 SWAP2 SWAP1 PUSH2 0x2E6 JUMP JUMPDEST PUSH1 0x40 MLOAD DUP1 SWAP2 SUB SWAP1 RETURN JUMPDEST PUSH2 0x178 PUSH2 0x26D JUMP JUMPDEST STOP JUMPDEST CALLVALUE DUP1 ISZERO PUSH2 0x186 JUMPI PUSH1 0x0 DUP1 REVERT JUMPDEST POP PUSH2 0x1A1 PUSH1 0x4 DUP1 CALLDATASIZE SUB DUP2 ADD SWAP1 PUSH2 0x19C SWAP2 SWAP1 PUSH2 0x398 JUMP JUMPDEST PUSH2 0x284 JUMP JUMPDEST PUSH1 0x40 MLOAD PUSH2 0x1AE SWAP2 SWAP1 PUSH2 0x31A JUMP JUMPDEST PUSH1 0x40 MLOAD DUP1 SWAP2 SUB SWAP1 RETURN JUMPDEST PUSH1 0x0 DUP1 SLOAD SWAP1 POP SWAP1 JUMP JUMPDEST PUSH1 0x0 SELFBALANCE SWAP1 POP SWAP1 JUMP JUMPDEST PUSH1 0x0 PUSH2 0x1D3 DUP3 PUSH2 0x284 JUMP JUMPDEST SWAP1 POP SWAP2 SWAP1 POP JUMP JUMPDEST PUSH1 0x0 DUP1 TIMESTAMP SWAP1 POP PUSH1 0x0 DUP1 PUSH1 0x0 SHL SWAP1 POP PUSH1 0x2 DUP3 DUP6 DUP4 PUSH1 0x40 MLOAD PUSH1 0x20 ADD PUSH2 0x1FF SWAP4 SWAP3 SWAP2 SWAP1 PUSH2 0x48B JUMP JUMPDEST PUSH1 0x40 MLOAD PUSH1 0x20 DUP2 DUP4 SUB SUB DUP2 MSTORE SWAP1 PUSH1 0x40 MSTORE PUSH1 0x40 MLOAD PUSH2 0x21B SWAP2 SWAP1 PUSH2 0x542 JUMP JUMPDEST PUSH1 0x20 PUSH1 0x40 MLOAD DUP1 DUP4 SUB DUP2 DUP6 GAS STATICCALL ISZERO DUP1 ISZERO PUSH2 0x238 JUMPI RETURNDATASIZE PUSH1 0x0 DUP1 RETURNDATACOPY RETURNDATASIZE PUSH1 0x0 REVERT JUMPDEST POP POP POP PUSH1 0x40 MLOAD RETURNDATASIZE PUSH1 0x1F NOT PUSH1 0x1F DUP3 ADD AND DUP3 ADD DUP1 PUSH1 0x40 MSTORE POP DUP2 ADD SWAP1 PUSH2 0x25B SWAP2 SWAP1 PUSH2 0x585 JUMP JUMPDEST SWAP3 POP DUP3 SWAP1 POP POP POP SWAP2 SWAP1 POP JUMP JUMPDEST PUSH1 0x0 SLOAD DUP2 JUMP JUMPDEST PUSH8 0xDE0B6B3A7640000 CALLVALUE LT ISZERO PUSH2 0x282 JUMPI PUSH1 0x0 DUP1 REVERT JUMPDEST JUMP JUMPDEST PUSH1 0x0 PUSH1 0x1 PUSH1 0x0 DUP4 PUSH20 0xFFFFFFFFFFFFFFFFFFFFFFFFFFFFFFFFFFFFFFFF AND PUSH20 0xFFFFFFFFFFFFFFFFFFFFFFFFFFFFFFFFFFFFFFFF AND DUP2 MSTORE PUSH1 0x20 ADD SWAP1 DUP2 MSTORE PUSH1 0x20 ADD PUSH1 0x0 KECCAK256 SLOAD SWAP1 POP SWAP2 SWAP1 POP JUMP JUMPDEST PUSH1 0x0 DUP2 SWAP1 POP SWAP2 SWAP1 POP JUMP JUMPDEST PUSH2 0x2E0 DUP2 PUSH2 0x2CD JUMP JUMPDEST DUP3 MSTORE POP POP JUMP JUMPDEST PUSH1 0x0 PUSH1 0x20 DUP3 ADD SWAP1 POP PUSH2 0x2FB PUSH1 0x0 DUP4 ADD DUP5 PUSH2 0x2D7 JUMP JUMPDEST SWAP3 SWAP2 POP POP JUMP JUMPDEST PUSH1 0x0 DUP2 SWAP1 POP SWAP2 SWAP1 POP JUMP JUMPDEST PUSH2 0x314 DUP2 PUSH2 0x301 JUMP JUMPDEST DUP3 MSTORE POP POP JUMP JUMPDEST PUSH1 0x0 PUSH1 0x20 DUP3 ADD SWAP1 POP PUSH2 0x32F PUSH1 0x0 DUP4 ADD DUP5 PUSH2 0x30B JUMP JUMPDEST SWAP3 SWAP2 POP POP JUMP JUMPDEST PUSH1 0x0 DUP1 REVERT JUMPDEST PUSH1 0x0 PUSH20 0xFFFFFFFFFFFFFFFFFFFFFFFFFFFFFFFFFFFFFFFF DUP3 AND SWAP1 POP SWAP2 SWAP1 POP JUMP JUMPDEST PUSH1 0x0 PUSH2 0x365 DUP3 PUSH2 0x33A JUMP JUMPDEST SWAP1 POP SWAP2 SWAP1 POP JUMP JUMPDEST PUSH2 0x375 DUP2 PUSH2 0x35A JUMP JUMPDEST DUP2 EQ PUSH2 0x380 JUMPI PUSH1 0x0 DUP1 REVERT JUMPDEST POP JUMP JUMPDEST PUSH1 0x0 DUP2 CALLDATALOAD SWAP1 POP PUSH2 0x392 DUP2 PUSH2 0x36C JUMP JUMPDEST SWAP3 SWAP2 POP POP JUMP JUMPDEST PUSH1 0x0 PUSH1 0x20 DUP3 DUP5 SUB SLT ISZERO PUSH2 0x3AE JUMPI PUSH2 0x3AD PUSH2 0x335 JUMP JUMPDEST JUMPDEST PUSH1 0x0 PUSH2 0x3BC DUP5 DUP3 DUP6 ADD PUSH2 0x383 JUMP JUMPDEST SWAP2 POP POP SWAP3 SWAP2 POP POP JUMP JUMPDEST PUSH1 0x0 DUP2 SWAP1 POP SWAP2 SWAP1 POP JUMP JUMPDEST PUSH2 0x3D8 DUP2 PUSH2 0x3C5 JUMP JUMPDEST DUP2 EQ PUSH2 0x3E3 JUMPI PUSH1 0x0 DUP1 REVERT JUMPDEST POP JUMP JUMPDEST PUSH1 0x0 DUP2 CALLDATALOAD SWAP1 POP PUSH2 0x3F5 DUP2 PUSH2 0x3CF JUMP JUMPDEST SWAP3 SWAP2 POP POP JUMP JUMPDEST PUSH1 0x0 PUSH1 0x20 DUP3 DUP5 SUB SLT ISZERO PUSH2 0x411 JUMPI PUSH2 0x410 PUSH2 0x335 JUMP JUMPDEST JUMPDEST PUSH1 0x0 PUSH2 0x41F DUP5 DUP3 DUP6 ADD PUSH2 0x3E6 JUMP JUMPDEST SWAP2 POP POP SWAP3 SWAP2 POP POP JUMP JUMPDEST PUSH1 0x0 DUP2 SWAP1 POP SWAP2 SWAP1 POP JUMP JUMPDEST PUSH2 0x443 PUSH2 0x43E DUP3 PUSH2 0x301 JUMP JUMPDEST PUSH2 0x428 JUMP JUMPDEST DUP3 MSTORE POP POP JUMP JUMPDEST PUSH1 0x0 DUP2 SWAP1 POP SWAP2 SWAP1 POP JUMP JUMPDEST PUSH2 0x464 PUSH2 0x45F DUP3 PUSH2 0x3C5 JUMP JUMPDEST PUSH2 0x449 JUMP JUMPDEST DUP3 MSTORE POP POP JUMP JUMPDEST PUSH1 0x0 DUP2 SWAP1 POP SWAP2 SWAP1 POP JUMP JUMPDEST PUSH2 0x485 PUSH2 0x480 DUP3 PUSH2 0x2CD JUMP JUMPDEST PUSH2 0x46A JUMP JUMPDEST DUP3 MSTORE POP POP JUMP JUMPDEST PUSH1 0x0 PUSH2 0x497 DUP3 DUP7 PUSH2 0x432 JUMP JUMPDEST PUSH1 0x20 DUP3 ADD SWAP2 POP PUSH2 0x4A7 DUP3 DUP6 PUSH2 0x453 JUMP JUMPDEST PUSH1 0x20 DUP3 ADD SWAP2 POP PUSH2 0x4B7 DUP3 DUP5 PUSH2 0x474 JUMP JUMPDEST PUSH1 0x20 DUP3 ADD SWAP2 POP DUP2 SWAP1 POP SWAP5 SWAP4 POP POP POP POP JUMP JUMPDEST PUSH1 0x0 DUP2 MLOAD SWAP1 POP SWAP2 SWAP1 POP JUMP JUMPDEST PUSH1 0x0 DUP2 SWAP1 POP SWAP3 SWAP2 POP POP JUMP JUMPDEST PUSH1 0x0 JUMPDEST DUP4 DUP2 LT ISZERO PUSH2 0x4FC JUMPI DUP1 DUP3 ADD MLOAD DUP2 DUP5 ADD MSTORE PUSH1 0x20 DUP2 ADD SWAP1 POP PUSH2 0x4E1 JUMP JUMPDEST DUP4 DUP2 GT ISZERO PUSH2 0x50B JUMPI PUSH1 0x0 DUP5 DUP5 ADD MSTORE JUMPDEST POP POP POP POP JUMP JUMPDEST PUSH1 0x0 PUSH2 0x51C DUP3 PUSH2 0x4C8 JUMP JUMPDEST PUSH2 0x526 DUP2 DUP6 PUSH2 0x4D3 JUMP JUMPDEST SWAP4 POP PUSH2 0x536 DUP2 DUP6 PUSH1 0x20 DUP7 ADD PUSH2 0x4DE JUMP JUMPDEST DUP1 DUP5 ADD SWAP2 POP POP SWAP3 SWAP2 POP POP JUMP JUMPDEST PUSH1 0x0 PUSH2 0x54E DUP3 DUP5 PUSH2 0x511 JUMP JUMPDEST SWAP2 POP DUP2 SWAP1 POP SWAP3 SWAP2 POP POP JUMP JUMPDEST PUSH2 0x562 DUP2 PUSH2 0x2CD JUMP JUMPDEST DUP2 EQ PUSH2 0x56D JUMPI PUSH1 0x0 DUP1 REVERT JUMPDEST POP JUMP JUMPDEST PUSH1 0x0 DUP2 MLOAD SWAP1 POP PUSH2 0x57F DUP2 PUSH2 0x559 JUMP JUMPDEST SWAP3 SWAP2 POP POP JUMP JUMPDEST PUSH1 0x0 PUSH1 0x20 DUP3 DUP5 SUB SLT ISZERO PUSH2 0x59B JUMPI PUSH2 0x59A PUSH2 0x335 JUMP JUMPDEST JUMPDEST PUSH1 0x0 PUSH2 0x5A9 DUP5 DUP3 DUP6 ADD PUSH2 0x570 JUMP JUMPDEST SWAP2 POP POP SWAP3 SWAP2 POP POP JUMP INVALID LOG2 PUSH5 0x6970667358 0x22 SLT KECCAK256 PUSH9 0xC5E862A512ECFBFAD6 REVERT 0xA5 0xB6 PUSH29 0xEF3FF5D4B8092E556F9F0705A548A4D48F6C64736F6C634300080B0033 "
				},
				"gasEstimates": {
					"creation": {
						"codeDepositCost": "302400",
						"executionCost": "5355",
						"totalCost": "307755"
					},
					"external": {
						"Block(int256)": "infinite",
						"balanceOf()": "362",
						"getBalance(address)": "2907",
						"getBalanceInEth(address)": "2929",
						"invest()": "189",
						"prevHash()": "2438",
						"previousHash()": "2451"
					}
				},
				"methodIdentifiers": {
					"Block(int256)": "8c6f2e82",
					"balanceOf()": "722713f7",
					"getBalance(address)": "f8b2cb4f",
					"getBalanceInEth(address)": "7bd703e8",
					"invest()": "e8b5e51f",
					"prevHash()": "69e9c066",
					"previousHash()": "d4d52df4"
				}
			},
			"storageLayout": {
				"storage": [
					{
						"astId": 4,
						"contract": "contracts/transact.sol:transact",
						"label": "previousHash",
						"offset": 0,
						"slot": "0",
						"type": "t_bytes32"
					},
					{
						"astId": 8,
						"contract": "contracts/transact.sol:transact",
						"label": "balances",
						"offset": 0,
						"slot": "1",
						"type": "t_mapping(t_address,t_uint256)"
					}
				],
				"types": {
					"t_address": {
						"encoding": "inplace",
						"label": "address",
						"numberOfBytes": "20"
					},
					"t_bytes32": {
						"encoding": "inplace",
						"label": "bytes32",
						"numberOfBytes": "32"
					},
					"t_mapping(t_address,t_uint256)": {
						"encoding": "mapping",
						"key": "t_address",
						"label": "mapping(address => uint256)",
						"numberOfBytes": "32",
						"value": "t_uint256"
					},
					"t_uint256": {
						"encoding": "inplace",
						"label": "uint256",
						"numberOfBytes": "32"
					}
				}
			},
			"userdoc": {
				"kind": "user",
				"methods": {},
				"version": 1
			}
		}
	}
}