{
	"contracts/auction.sol": {
		"Auction": {
			"abi": [
				{
					"inputs": [],
					"stateMutability": "nonpayable",
					"type": "constructor"
				},
				{
					"inputs": [
						{
							"internalType": "int256",
							"name": "transactions",
							"type": "int256"
						}
					],
					"name": "Block",
					"outputs": [
						{
							"internalType": "bytes32",
							"name": "hashin",
							"type": "bytes32"
						}
					],
					"stateMutability": "nonpayable",
					"type": "function"
				},
				{
					"inputs": [],
					"name": "auctionState",
					"outputs": [
						{
							"internalType": "enum Auction.Auction_State",
							"name": "",
							"type": "uint8"
						}
					],
					"stateMutability": "view",
					"type": "function"
				},
				{
					"inputs": [],
					"name": "auctioneer",
					"outputs": [
						{
							"internalType": "address payable",
							"name": "",
							"type": "address"
						}
					],
					"stateMutability": "view",
					"type": "function"
				},
				{
					"inputs": [],
					"name": "bid",
					"outputs": [],
					"stateMutability": "payable",
					"type": "function"
				},
				{
					"inputs": [],
					"name": "bid_Increment",
					"outputs": [
						{
							"internalType": "uint256",
							"name": "",
							"type": "uint256"
						}
					],
					"stateMutability": "view",
					"type": "function"
				},
				{
					"inputs": [
						{
							"internalType": "address",
							"name": "",
							"type": "address"
						}
					],
					"name": "bids",
					"outputs": [
						{
							"internalType": "uint256",
							"name": "",
							"type": "uint256"
						}
					],
					"stateMutability": "view",
					"type": "function"
				},
				{
					"inputs": [],
					"name": "cancelAuc",
					"outputs": [],
					"stateMutability": "nonpayable",
					"type": "function"
				},
				{
					"inputs": [],
					"name": "endAuc",
					"outputs": [],
					"stateMutability": "nonpayable",
					"type": "function"
				},
				{
					"inputs": [],
					"name": "etblock",
					"outputs": [
						{
							"internalType": "uint256",
							"name": "",
							"type": "uint256"
						}
					],
					"stateMutability": "view",
					"type": "function"
				},
				{
					"inputs": [],
					"name": "finalizeAuc",
					"outputs": [],
					"stateMutability": "nonpayable",
					"type": "function"
				},
				{
					"inputs": [
						{
							"internalType": "address",
							"name": "addr",
							"type": "address"
						}
					],
					"name": "getBalance",
					"outputs": [
						{
							"internalType": "uint256",
							"name": "",
							"type": "uint256"
						}
					],
					"stateMutability": "view",
					"type": "function"
				},
				{
					"inputs": [],
					"name": "highestBidder",
					"outputs": [
						{
							"internalType": "address payable",
							"name": "",
							"type": "address"
						}
					],
					"stateMutability": "view",
					"type": "function"
				},
				{
					"inputs": [],
					"name": "highest_payable_bid",
					"outputs": [
						{
							"internalType": "uint256",
							"name": "",
							"type": "uint256"
						}
					],
					"stateMutability": "view",
					"type": "function"
				},
				{
					"inputs": [],
					"name": "prevHash",
					"outputs": [
						{
							"internalType": "bytes32",
							"name": "hash",
							"type": "bytes32"
						}
					],
					"stateMutability": "view",
					"type": "function"
				},
				{
					"inputs": [],
					"name": "stblock",
					"outputs": [
						{
							"internalType": "uint256",
							"name": "",
							"type": "uint256"
						}
					],
					"stateMutability": "view",
					"type": "function"
				},
				{
					"inputs": [
						{
							"internalType": "address",
							"name": "",
							"type": "address"
						}
					],
					"name": "xp",
					"outputs": [
						{
							"internalType": "uint256",
							"name": "",
							"type": "uint256"
						}
					],
					"stateMutability": "view",
					"type": "function"
				}
			],
			"devdoc": {
				"kind": "dev",
				"methods": {},
				"version": 1
			},
			"evm": {
				"assembly": "    /* \"contracts/auction.sol\":62:3742  contract Auction{ ... */\n  mstore(0x40, 0x80)\n    /* \"contracts/auction.sol\":228:229  0 */\n  0x00\n    /* \"contracts/auction.sol\":206:229  bytes32 previousHash= 0 */\n  dup1\n  shl\n  0x03\n  sstore\n    /* \"contracts/auction.sol\":540:778  constructor(){... */\n  callvalue\n  dup1\n  iszero\n  tag_1\n  jumpi\n  0x00\n  dup1\n  revert\ntag_1:\n  pop\n    /* \"contracts/auction.sol\":585:595  msg.sender */\n  caller\n    /* \"contracts/auction.sol\":564:574  auctioneer */\n  0x00\n  dup1\n    /* \"contracts/auction.sol\":564:596  auctioneer = payable(msg.sender) */\n  0x0100\n  exp\n  dup2\n  sload\n  dup2\n  0xffffffffffffffffffffffffffffffffffffffff\n  mul\n  not\n  and\n  swap1\n  dup4\n  0xffffffffffffffffffffffffffffffffffffffff\n  and\n  mul\n  or\n  swap1\n  sstore\n  pop\n    /* \"contracts/auction.sol\":622:643  Auction_State.Running */\n  0x01\n    /* \"contracts/auction.sol\":607:619  auctionState */\n  0x04\n  0x00\n    /* \"contracts/auction.sol\":607:643  auctionState = Auction_State.Running */\n  0x0100\n  exp\n  dup2\n  sload\n  dup2\n  0xff\n  mul\n  not\n  and\n  swap1\n  dup4\n  0x03\n  dup2\n  gt\n  iszero\n  tag_4\n  jumpi\n  tag_5\n  tag_6\n  jump\t// in\ntag_5:\ntag_4:\n  mul\n  or\n  swap1\n  sstore\n  pop\n    /* \"contracts/auction.sol\":664:676  block.number */\n  number\n    /* \"contracts/auction.sol\":654:661  stblock */\n  0x01\n    /* \"contracts/auction.sol\":654:676  stblock = block.number */\n  dup2\n  swap1\n  sstore\n  pop\n    /* \"contracts/auction.sol\":707:710  240 */\n  0xf0\n    /* \"contracts/auction.sol\":697:704  stblock */\n  sload(0x01)\n    /* \"contracts/auction.sol\":697:710  stblock + 240 */\n  tag_7\n  swap2\n  swap1\n  tag_8\n  jump\t// in\ntag_7:\n    /* \"contracts/auction.sol\":687:694  etblock */\n  0x02\n    /* \"contracts/auction.sol\":687:710  etblock = stblock + 240 */\n  dup2\n  swap1\n  sstore\n  pop\n    /* \"contracts/auction.sol\":737:744  1 ether */\n  0x0de0b6b3a7640000\n    /* \"contracts/auction.sol\":721:734  bid_Increment */\n  0x06\n    /* \"contracts/auction.sol\":721:744  bid_Increment = 1 ether */\n  dup2\n  swap1\n  sstore\n  pop\n    /* \"contracts/auction.sol\":771:772  0 */\n  0x00\n    /* \"contracts/auction.sol\":755:757  xp */\n  0x08\n    /* \"contracts/auction.sol\":755:768  xp[tx.origin] */\n  0x00\n    /* \"contracts/auction.sol\":758:767  tx.origin */\n  origin\n    /* \"contracts/auction.sol\":755:768  xp[tx.origin] */\n  0xffffffffffffffffffffffffffffffffffffffff\n  and\n  0xffffffffffffffffffffffffffffffffffffffff\n  and\n  dup2\n  mstore\n  0x20\n  add\n  swap1\n  dup2\n  mstore\n  0x20\n  add\n  0x00\n  keccak256\n    /* \"contracts/auction.sol\":755:772  xp[tx.origin] = 0 */\n  dup2\n  swap1\n  sstore\n  pop\n    /* \"contracts/auction.sol\":62:3742  contract Auction{ ... */\n  jump(tag_9)\n    /* \"#utility.yul\":7:187   */\ntag_6:\n    /* \"#utility.yul\":55:132   */\n  0x4e487b7100000000000000000000000000000000000000000000000000000000\n    /* \"#utility.yul\":52:53   */\n  0x00\n    /* \"#utility.yul\":45:133   */\n  mstore\n    /* \"#utility.yul\":152:156   */\n  0x21\n    /* \"#utility.yul\":149:150   */\n  0x04\n    /* \"#utility.yul\":142:157   */\n  mstore\n    /* \"#utility.yul\":176:180   */\n  0x24\n    /* \"#utility.yul\":173:174   */\n  0x00\n    /* \"#utility.yul\":166:181   */\n  revert\n    /* \"#utility.yul\":193:270   */\ntag_10:\n    /* \"#utility.yul\":230:237   */\n  0x00\n    /* \"#utility.yul\":259:264   */\n  dup2\n    /* \"#utility.yul\":248:264   */\n  swap1\n  pop\n    /* \"#utility.yul\":193:270   */\n  swap2\n  swap1\n  pop\n  jump\t// out\n    /* \"#utility.yul\":276:456   */\ntag_11:\n    /* \"#utility.yul\":324:401   */\n  0x4e487b7100000000000000000000000000000000000000000000000000000000\n    /* \"#utility.yul\":321:322   */\n  0x00\n    /* \"#utility.yul\":314:402   */\n  mstore\n    /* \"#utility.yul\":421:425   */\n  0x11\n    /* \"#utility.yul\":418:419   */\n  0x04\n    /* \"#utility.yul\":411:426   */\n  mstore\n    /* \"#utility.yul\":445:449   */\n  0x24\n    /* \"#utility.yul\":442:443   */\n  0x00\n    /* \"#utility.yul\":435:450   */\n  revert\n    /* \"#utility.yul\":462:767   */\ntag_8:\n    /* \"#utility.yul\":502:505   */\n  0x00\n    /* \"#utility.yul\":521:541   */\n  tag_17\n    /* \"#utility.yul\":539:540   */\n  dup3\n    /* \"#utility.yul\":521:541   */\n  tag_10\n  jump\t// in\ntag_17:\n    /* \"#utility.yul\":516:541   */\n  swap2\n  pop\n    /* \"#utility.yul\":555:575   */\n  tag_18\n    /* \"#utility.yul\":573:574   */\n  dup4\n    /* \"#utility.yul\":555:575   */\n  tag_10\n  jump\t// in\ntag_18:\n    /* \"#utility.yul\":550:575   */\n  swap3\n  pop\n    /* \"#utility.yul\":709:710   */\n  dup3\n    /* \"#utility.yul\":641:707   */\n  0xffffffffffffffffffffffffffffffffffffffffffffffffffffffffffffffff\n    /* \"#utility.yul\":637:711   */\n  sub\n    /* \"#utility.yul\":634:635   */\n  dup3\n    /* \"#utility.yul\":631:712   */\n  gt\n    /* \"#utility.yul\":628:735   */\n  iszero\n  tag_19\n  jumpi\n    /* \"#utility.yul\":715:733   */\n  tag_20\n  tag_11\n  jump\t// in\ntag_20:\n    /* \"#utility.yul\":628:735   */\ntag_19:\n    /* \"#utility.yul\":759:760   */\n  dup3\n    /* \"#utility.yul\":756:757   */\n  dup3\n    /* \"#utility.yul\":752:761   */\n  add\n    /* \"#utility.yul\":745:761   */\n  swap1\n  pop\n    /* \"#utility.yul\":462:767   */\n  swap3\n  swap2\n  pop\n  pop\n  jump\t// out\n    /* \"contracts/auction.sol\":62:3742  contract Auction{ ... */\ntag_9:\n  dataSize(sub_0)\n  dup1\n  dataOffset(sub_0)\n  0x00\n  codecopy\n  0x00\n  return\nstop\n\nsub_0: assembly {\n        /* \"contracts/auction.sol\":62:3742  contract Auction{ ... */\n      mstore(0x40, 0x80)\n      jumpi(tag_1, lt(calldatasize, 0x04))\n      shr(0xe0, calldataload(0x00))\n      dup1\n      0x7fb45099\n      gt\n      tag_18\n      jumpi\n      dup1\n      0xa118be02\n      gt\n      tag_19\n      jumpi\n      dup1\n      0xa118be02\n      eq\n      tag_14\n      jumpi\n      dup1\n      0xce5bd041\n      eq\n      tag_15\n      jumpi\n      dup1\n      0xe07600bd\n      eq\n      tag_16\n      jumpi\n      dup1\n      0xf8b2cb4f\n      eq\n      tag_17\n      jumpi\n      jump(tag_1)\n    tag_19:\n      dup1\n      0x7fb45099\n      eq\n      tag_10\n      jumpi\n      dup1\n      0x8c6f2e82\n      eq\n      tag_11\n      jumpi\n      dup1\n      0x91f90157\n      eq\n      tag_12\n      jumpi\n      dup1\n      0x9d957d45\n      eq\n      tag_13\n      jumpi\n      jump(tag_1)\n    tag_18:\n      dup1\n      0x5ec2c7bf\n      gt\n      tag_20\n      jumpi\n      dup1\n      0x5ec2c7bf\n      eq\n      tag_6\n      jumpi\n      dup1\n      0x62ea82db\n      eq\n      tag_7\n      jumpi\n      dup1\n      0x69e9c066\n      eq\n      tag_8\n      jumpi\n      dup1\n      0x7eb695a1\n      eq\n      tag_9\n      jumpi\n      jump(tag_1)\n    tag_20:\n      dup1\n      0x0490cb74\n      eq\n      tag_2\n      jumpi\n      dup1\n      0x1998aeef\n      eq\n      tag_3\n      jumpi\n      dup1\n      0x2352f320\n      eq\n      tag_4\n      jumpi\n      dup1\n      0x3fdceefd\n      eq\n      tag_5\n      jumpi\n    tag_1:\n      0x00\n      dup1\n      revert\n        /* \"contracts/auction.sol\":455:490  mapping (address => uint) public xp */\n    tag_2:\n      callvalue\n      dup1\n      iszero\n      tag_21\n      jumpi\n      0x00\n      dup1\n      revert\n    tag_21:\n      pop\n      tag_22\n      0x04\n      dup1\n      calldatasize\n      sub\n      dup2\n      add\n      swap1\n      tag_23\n      swap2\n      swap1\n      tag_24\n      jump\t// in\n    tag_23:\n      tag_25\n      jump\t// in\n    tag_22:\n      mload(0x40)\n      tag_26\n      swap2\n      swap1\n      tag_27\n      jump\t// in\n    tag_26:\n      mload(0x40)\n      dup1\n      swap2\n      sub\n      swap1\n      return\n        /* \"contracts/auction.sol\":1516:2214  function bid() payable public notOwner started beforeEnding {... */\n    tag_3:\n      tag_28\n      tag_29\n      jump\t// in\n    tag_28:\n      stop\n        /* \"contracts/auction.sol\":1178:1268  function cancelAuc() public Owner{... */\n    tag_4:\n      callvalue\n      dup1\n      iszero\n      tag_30\n      jumpi\n      0x00\n      dup1\n      revert\n    tag_30:\n      pop\n      tag_31\n      tag_32\n      jump\t// in\n    tag_31:\n      stop\n        /* \"contracts/auction.sol\":1276:1359  function endAuc() public Owner{... */\n    tag_5:\n      callvalue\n      dup1\n      iszero\n      tag_33\n      jumpi\n      0x00\n      dup1\n      revert\n    tag_33:\n      pop\n      tag_34\n      tag_35\n      jump\t// in\n    tag_34:\n      stop\n        /* \"contracts/auction.sol\":88:121  address payable public auctioneer */\n    tag_6:\n      callvalue\n      dup1\n      iszero\n      tag_36\n      jumpi\n      0x00\n      dup1\n      revert\n    tag_36:\n      pop\n      tag_37\n      tag_38\n      jump\t// in\n    tag_37:\n      mload(0x40)\n      tag_39\n      swap2\n      swap1\n      tag_40\n      jump\t// in\n    tag_39:\n      mload(0x40)\n      dup1\n      swap2\n      sub\n      swap1\n      return\n        /* \"contracts/auction.sol\":497:533  mapping(address => uint) public bids */\n    tag_7:\n      callvalue\n      dup1\n      iszero\n      tag_41\n      jumpi\n      0x00\n      dup1\n      revert\n    tag_41:\n      pop\n      tag_42\n      0x04\n      dup1\n      calldatasize\n      sub\n      dup2\n      add\n      swap1\n      tag_43\n      swap2\n      swap1\n      tag_24\n      jump\t// in\n    tag_43:\n      tag_44\n      jump\t// in\n    tag_42:\n      mload(0x40)\n      tag_45\n      swap2\n      swap1\n      tag_27\n      jump\t// in\n    tag_45:\n      mload(0x40)\n      dup1\n      swap2\n      sub\n      swap1\n      return\n        /* \"contracts/auction.sol\":3649:3739  function prevHash()public view returns(bytes32 hash){... */\n    tag_8:\n      callvalue\n      dup1\n      iszero\n      tag_46\n      jumpi\n      0x00\n      dup1\n      revert\n    tag_46:\n      pop\n      tag_47\n      tag_48\n      jump\t// in\n    tag_47:\n      mload(0x40)\n      tag_49\n      swap2\n      swap1\n      tag_50\n      jump\t// in\n    tag_49:\n      mload(0x40)\n      dup1\n      swap2\n      sub\n      swap1\n      return\n        /* \"contracts/auction.sol\":340:371  uint public highest_payable_bid */\n    tag_9:\n      callvalue\n      dup1\n      iszero\n      tag_51\n      jumpi\n      0x00\n      dup1\n      revert\n    tag_51:\n      pop\n      tag_52\n      tag_53\n      jump\t// in\n    tag_52:\n      mload(0x40)\n      tag_54\n      swap2\n      swap1\n      tag_27\n      jump\t// in\n    tag_54:\n      mload(0x40)\n      dup1\n      swap2\n      sub\n      swap1\n      return\n        /* \"contracts/auction.sol\":298:331  Auction_State public auctionState */\n    tag_10:\n      callvalue\n      dup1\n      iszero\n      tag_55\n      jumpi\n      0x00\n      dup1\n      revert\n    tag_55:\n      pop\n      tag_56\n      tag_57\n      jump\t// in\n    tag_56:\n      mload(0x40)\n      tag_58\n      swap2\n      swap1\n      tag_59\n      jump\t// in\n    tag_58:\n      mload(0x40)\n      dup1\n      swap2\n      sub\n      swap1\n      return\n        /* \"contracts/auction.sol\":3347:3643  function Block(int transactions)public  returns(bytes32 hashin){... */\n    tag_11:\n      callvalue\n      dup1\n      iszero\n      tag_60\n      jumpi\n      0x00\n      dup1\n      revert\n    tag_60:\n      pop\n      tag_61\n      0x04\n      dup1\n      calldatasize\n      sub\n      dup2\n      add\n      swap1\n      tag_62\n      swap2\n      swap1\n      tag_63\n      jump\t// in\n    tag_62:\n      tag_64\n      jump\t// in\n    tag_61:\n      mload(0x40)\n      tag_65\n      swap2\n      swap1\n      tag_50\n      jump\t// in\n    tag_65:\n      mload(0x40)\n      dup1\n      swap2\n      sub\n      swap1\n      return\n        /* \"contracts/auction.sol\":412:448  address payable public highestBidder */\n    tag_12:\n      callvalue\n      dup1\n      iszero\n      tag_66\n      jumpi\n      0x00\n      dup1\n      revert\n    tag_66:\n      pop\n      tag_67\n      tag_68\n      jump\t// in\n    tag_67:\n      mload(0x40)\n      tag_69\n      swap2\n      swap1\n      tag_40\n      jump\t// in\n    tag_69:\n      mload(0x40)\n      dup1\n      swap2\n      sub\n      swap1\n      return\n        /* \"contracts/auction.sol\":168:187  uint public etblock */\n    tag_13:\n      callvalue\n      dup1\n      iszero\n      tag_70\n      jumpi\n      0x00\n      dup1\n      revert\n    tag_70:\n      pop\n      tag_71\n      tag_72\n      jump\t// in\n    tag_71:\n      mload(0x40)\n      tag_73\n      swap2\n      swap1\n      tag_27\n      jump\t// in\n    tag_73:\n      mload(0x40)\n      dup1\n      swap2\n      sub\n      swap1\n      return\n        /* \"contracts/auction.sol\":129:148  uint public stblock */\n    tag_14:\n      callvalue\n      dup1\n      iszero\n      tag_74\n      jumpi\n      0x00\n      dup1\n      revert\n    tag_74:\n      pop\n      tag_75\n      tag_76\n      jump\t// in\n    tag_75:\n      mload(0x40)\n      tag_77\n      swap2\n      swap1\n      tag_27\n      jump\t// in\n    tag_77:\n      mload(0x40)\n      dup1\n      swap2\n      sub\n      swap1\n      return\n        /* \"contracts/auction.sol\":378:403  uint public bid_Increment */\n    tag_15:\n      callvalue\n      dup1\n      iszero\n      tag_78\n      jumpi\n      0x00\n      dup1\n      revert\n    tag_78:\n      pop\n      tag_79\n      tag_80\n      jump\t// in\n    tag_79:\n      mload(0x40)\n      tag_81\n      swap2\n      swap1\n      tag_27\n      jump\t// in\n    tag_81:\n      mload(0x40)\n      dup1\n      swap2\n      sub\n      swap1\n      return\n        /* \"contracts/auction.sol\":2320:3341  function finalizeAuc() public{... */\n    tag_16:\n      callvalue\n      dup1\n      iszero\n      tag_82\n      jumpi\n      0x00\n      dup1\n      revert\n    tag_82:\n      pop\n      tag_83\n      tag_84\n      jump\t// in\n    tag_83:\n      stop\n        /* \"contracts/auction.sol\":2220:2314  function getBalance(address addr) public view returns(uint) {... */\n    tag_17:\n      callvalue\n      dup1\n      iszero\n      tag_85\n      jumpi\n      0x00\n      dup1\n      revert\n    tag_85:\n      pop\n      tag_86\n      0x04\n      dup1\n      calldatasize\n      sub\n      dup2\n      add\n      swap1\n      tag_87\n      swap2\n      swap1\n      tag_24\n      jump\t// in\n    tag_87:\n      tag_88\n      jump\t// in\n    tag_86:\n      mload(0x40)\n      tag_89\n      swap2\n      swap1\n      tag_27\n      jump\t// in\n    tag_89:\n      mload(0x40)\n      dup1\n      swap2\n      sub\n      swap1\n      return\n        /* \"contracts/auction.sol\":455:490  mapping (address => uint) public xp */\n    tag_25:\n      mstore(0x20, 0x08)\n      dup1\n      0x00\n      mstore\n      keccak256(0x00, 0x40)\n      0x00\n      swap2\n      pop\n      swap1\n      pop\n      sload\n      dup2\n      jump\t// out\n        /* \"contracts/auction.sol\":1516:2214  function bid() payable public notOwner started beforeEnding {... */\n    tag_29:\n        /* \"contracts/auction.sol\":838:848  auctioneer */\n      0x00\n      dup1\n      sload\n      swap1\n      0x0100\n      exp\n      swap1\n      div\n      0xffffffffffffffffffffffffffffffffffffffff\n      and\n        /* \"contracts/auction.sol\":824:848  msg.sender != auctioneer */\n      0xffffffffffffffffffffffffffffffffffffffff\n      and\n        /* \"contracts/auction.sol\":824:834  msg.sender */\n      caller\n        /* \"contracts/auction.sol\":824:848  msg.sender != auctioneer */\n      0xffffffffffffffffffffffffffffffffffffffff\n      and\n      eq\n      iszero\n        /* \"contracts/auction.sol\":816:868  require(msg.sender != auctioneer,\"Owner cannot bid\") */\n      tag_91\n      jumpi\n      mload(0x40)\n      0x08c379a000000000000000000000000000000000000000000000000000000000\n      dup2\n      mstore\n      0x04\n      add\n      tag_92\n      swap1\n      tag_93\n      jump\t// in\n    tag_92:\n      mload(0x40)\n      dup1\n      swap2\n      sub\n      swap1\n      revert\n    tag_91:\n        /* \"contracts/auction.sol\":1053:1060  stblock */\n      sload(0x01)\n        /* \"contracts/auction.sol\":1040:1052  block.number */\n      number\n        /* \"contracts/auction.sol\":1040:1060  block.number>stblock */\n      gt\n        /* \"contracts/auction.sol\":1032:1061  require(block.number>stblock) */\n      tag_95\n      jumpi\n      0x00\n      dup1\n      revert\n    tag_95:\n        /* \"contracts/auction.sol\":1142:1149  etblock */\n      sload(0x02)\n        /* \"contracts/auction.sol\":1129:1141  block.number */\n      number\n        /* \"contracts/auction.sol\":1129:1149  block.number<etblock */\n      lt\n        /* \"contracts/auction.sol\":1121:1150  require(block.number<etblock) */\n      tag_97\n      jumpi\n      0x00\n      dup1\n      revert\n    tag_97:\n        /* \"contracts/auction.sol\":1587:1601  address bidder */\n      0x00\n        /* \"contracts/auction.sol\":1620:1630  msg.sender */\n      caller\n        /* \"contracts/auction.sol\":1613:1630  bidder=msg.sender */\n      swap1\n      pop\n        /* \"contracts/auction.sol\":1665:1686  Auction_State.Running */\n      0x01\n        /* \"contracts/auction.sol\":1649:1686  auctionState == Auction_State.Running */\n      0x03\n      dup2\n      gt\n      iszero\n      tag_99\n      jumpi\n      tag_100\n      tag_101\n      jump\t// in\n    tag_100:\n    tag_99:\n        /* \"contracts/auction.sol\":1649:1661  auctionState */\n      0x04\n      0x00\n      swap1\n      sload\n      swap1\n      0x0100\n      exp\n      swap1\n      div\n      0xff\n      and\n        /* \"contracts/auction.sol\":1649:1686  auctionState == Auction_State.Running */\n      0x03\n      dup2\n      gt\n      iszero\n      tag_102\n      jumpi\n      tag_103\n      tag_101\n      jump\t// in\n    tag_103:\n    tag_102:\n      eq\n        /* \"contracts/auction.sol\":1641:1687  require(auctionState == Auction_State.Running) */\n      tag_104\n      jumpi\n      0x00\n      dup1\n      revert\n    tag_104:\n        /* \"contracts/auction.sol\":1718:1725  1 ether */\n      0x0de0b6b3a7640000\n        /* \"contracts/auction.sol\":1706:1715  msg.value */\n      callvalue\n        /* \"contracts/auction.sol\":1706:1725  msg.value>= 1 ether */\n      lt\n      iszero\n        /* \"contracts/auction.sol\":1698:1726  require(msg.value>= 1 ether) */\n      tag_105\n      jumpi\n      0x00\n      dup1\n      revert\n    tag_105:\n        /* \"contracts/auction.sol\":1739:1754  uint currentBid */\n      0x00\n        /* \"contracts/auction.sol\":1776:1785  msg.value */\n      callvalue\n        /* \"contracts/auction.sol\":1757:1761  bids */\n      0x09\n        /* \"contracts/auction.sol\":1757:1773  bids[msg.sender] */\n      0x00\n        /* \"contracts/auction.sol\":1762:1772  msg.sender */\n      caller\n        /* \"contracts/auction.sol\":1757:1773  bids[msg.sender] */\n      0xffffffffffffffffffffffffffffffffffffffff\n      and\n      0xffffffffffffffffffffffffffffffffffffffff\n      and\n      dup2\n      mstore\n      0x20\n      add\n      swap1\n      dup2\n      mstore\n      0x20\n      add\n      0x00\n      keccak256\n      sload\n        /* \"contracts/auction.sol\":1757:1785  bids[msg.sender] + msg.value */\n      tag_106\n      swap2\n      swap1\n      tag_107\n      jump\t// in\n    tag_106:\n        /* \"contracts/auction.sol\":1739:1785  uint currentBid = bids[msg.sender] + msg.value */\n      swap1\n      pop\n        /* \"contracts/auction.sol\":1816:1835  highest_payable_bid */\n      sload(0x05)\n        /* \"contracts/auction.sol\":1805:1815  currentBid */\n      dup2\n        /* \"contracts/auction.sol\":1805:1835  currentBid>highest_payable_bid */\n      gt\n        /* \"contracts/auction.sol\":1797:1836  require(currentBid>highest_payable_bid) */\n      tag_108\n      jumpi\n      0x00\n      dup1\n      revert\n    tag_108:\n        /* \"contracts/auction.sol\":1866:1876  currentBid */\n      dup1\n        /* \"contracts/auction.sol\":1847:1851  bids */\n      0x09\n        /* \"contracts/auction.sol\":1847:1863  bids[msg.sender] */\n      0x00\n        /* \"contracts/auction.sol\":1852:1862  msg.sender */\n      caller\n        /* \"contracts/auction.sol\":1847:1863  bids[msg.sender] */\n      0xffffffffffffffffffffffffffffffffffffffff\n      and\n      0xffffffffffffffffffffffffffffffffffffffff\n      and\n      dup2\n      mstore\n      0x20\n      add\n      swap1\n      dup2\n      mstore\n      0x20\n      add\n      0x00\n      keccak256\n        /* \"contracts/auction.sol\":1847:1876  bids[msg.sender] = currentBid */\n      dup2\n      swap1\n      sstore\n      pop\n        /* \"contracts/auction.sol\":1903:1907  bids */\n      0x09\n        /* \"contracts/auction.sol\":1903:1922  bids[highestBidder] */\n      0x00\n        /* \"contracts/auction.sol\":1908:1921  highestBidder */\n      0x07\n      0x00\n      swap1\n      sload\n      swap1\n      0x0100\n      exp\n      swap1\n      div\n      0xffffffffffffffffffffffffffffffffffffffff\n      and\n        /* \"contracts/auction.sol\":1903:1922  bids[highestBidder] */\n      0xffffffffffffffffffffffffffffffffffffffff\n      and\n      0xffffffffffffffffffffffffffffffffffffffff\n      and\n      dup2\n      mstore\n      0x20\n      add\n      swap1\n      dup2\n      mstore\n      0x20\n      add\n      0x00\n      keccak256\n      sload\n        /* \"contracts/auction.sol\":1892:1902  currentBid */\n      dup2\n        /* \"contracts/auction.sol\":1892:1922  currentBid<bids[highestBidder] */\n      lt\n        /* \"contracts/auction.sol\":1889:2183  if(currentBid<bids[highestBidder]){... */\n      iszero\n      tag_109\n      jumpi\n        /* \"contracts/auction.sol\":1960:2009  min(currentBid+bid_Increment,bids[highestBidder]) */\n      tag_110\n        /* \"contracts/auction.sol\":1975:1988  bid_Increment */\n      sload(0x06)\n        /* \"contracts/auction.sol\":1964:1974  currentBid */\n      dup3\n        /* \"contracts/auction.sol\":1964:1988  currentBid+bid_Increment */\n      tag_111\n      swap2\n      swap1\n      tag_107\n      jump\t// in\n    tag_111:\n        /* \"contracts/auction.sol\":1989:1993  bids */\n      0x09\n        /* \"contracts/auction.sol\":1989:2008  bids[highestBidder] */\n      0x00\n        /* \"contracts/auction.sol\":1994:2007  highestBidder */\n      0x07\n      0x00\n      swap1\n      sload\n      swap1\n      0x0100\n      exp\n      swap1\n      div\n      0xffffffffffffffffffffffffffffffffffffffff\n      and\n        /* \"contracts/auction.sol\":1989:2008  bids[highestBidder] */\n      0xffffffffffffffffffffffffffffffffffffffff\n      and\n      0xffffffffffffffffffffffffffffffffffffffff\n      and\n      dup2\n      mstore\n      0x20\n      add\n      swap1\n      dup2\n      mstore\n      0x20\n      add\n      0x00\n      keccak256\n      sload\n        /* \"contracts/auction.sol\":1960:1963  min */\n      tag_112\n        /* \"contracts/auction.sol\":1960:2009  min(currentBid+bid_Increment,bids[highestBidder]) */\n      jump\t// in\n    tag_110:\n        /* \"contracts/auction.sol\":1938:1957  highest_payable_bid */\n      0x05\n        /* \"contracts/auction.sol\":1938:2009  highest_payable_bid = min(currentBid+bid_Increment,bids[highestBidder]) */\n      dup2\n      swap1\n      sstore\n      pop\n        /* \"contracts/auction.sol\":1889:2183  if(currentBid<bids[highestBidder]){... */\n      jump(tag_113)\n    tag_109:\n        /* \"contracts/auction.sol\":2072:2121  min(currentBid,bids[highestBidder]+bid_Increment) */\n      tag_114\n        /* \"contracts/auction.sol\":2076:2086  currentBid */\n      dup2\n        /* \"contracts/auction.sol\":2107:2120  bid_Increment */\n      sload(0x06)\n        /* \"contracts/auction.sol\":2087:2091  bids */\n      0x09\n        /* \"contracts/auction.sol\":2087:2106  bids[highestBidder] */\n      0x00\n        /* \"contracts/auction.sol\":2092:2105  highestBidder */\n      0x07\n      0x00\n      swap1\n      sload\n      swap1\n      0x0100\n      exp\n      swap1\n      div\n      0xffffffffffffffffffffffffffffffffffffffff\n      and\n        /* \"contracts/auction.sol\":2087:2106  bids[highestBidder] */\n      0xffffffffffffffffffffffffffffffffffffffff\n      and\n      0xffffffffffffffffffffffffffffffffffffffff\n      and\n      dup2\n      mstore\n      0x20\n      add\n      swap1\n      dup2\n      mstore\n      0x20\n      add\n      0x00\n      keccak256\n      sload\n        /* \"contracts/auction.sol\":2087:2120  bids[highestBidder]+bid_Increment */\n      tag_115\n      swap2\n      swap1\n      tag_107\n      jump\t// in\n    tag_115:\n        /* \"contracts/auction.sol\":2072:2075  min */\n      tag_112\n        /* \"contracts/auction.sol\":2072:2121  min(currentBid,bids[highestBidder]+bid_Increment) */\n      jump\t// in\n    tag_114:\n        /* \"contracts/auction.sol\":2050:2069  highest_payable_bid */\n      0x05\n        /* \"contracts/auction.sol\":2050:2121  highest_payable_bid = min(currentBid,bids[highestBidder]+bid_Increment) */\n      dup2\n      swap1\n      sstore\n      pop\n        /* \"contracts/auction.sol\":2160:2170  msg.sender */\n      caller\n        /* \"contracts/auction.sol\":2136:2149  highestBidder */\n      0x07\n      0x00\n        /* \"contracts/auction.sol\":2136:2171  highestBidder = payable(msg.sender) */\n      0x0100\n      exp\n      dup2\n      sload\n      dup2\n      0xffffffffffffffffffffffffffffffffffffffff\n      mul\n      not\n      and\n      swap1\n      dup4\n      0xffffffffffffffffffffffffffffffffffffffff\n      and\n      mul\n      or\n      swap1\n      sstore\n      pop\n        /* \"contracts/auction.sol\":1889:2183  if(currentBid<bids[highestBidder]){... */\n    tag_113:\n        /* \"contracts/auction.sol\":2205:2206  1 */\n      0x01\n        /* \"contracts/auction.sol\":2193:2195  xp */\n      0x08\n        /* \"contracts/auction.sol\":2193:2203  xp[bidder] */\n      0x00\n        /* \"contracts/auction.sol\":2196:2202  bidder */\n      dup5\n        /* \"contracts/auction.sol\":2193:2203  xp[bidder] */\n      0xffffffffffffffffffffffffffffffffffffffff\n      and\n      0xffffffffffffffffffffffffffffffffffffffff\n      and\n      dup2\n      mstore\n      0x20\n      add\n      swap1\n      dup2\n      mstore\n      0x20\n      add\n      0x00\n      keccak256\n      0x00\n        /* \"contracts/auction.sol\":2193:2206  xp[bidder]+=1 */\n      dup3\n      dup3\n      sload\n      tag_116\n      swap2\n      swap1\n      tag_107\n      jump\t// in\n    tag_116:\n      swap3\n      pop\n      pop\n      dup2\n      swap1\n      sstore\n      pop\n        /* \"contracts/auction.sol\":1576:2214  {... */\n      pop\n      pop\n        /* \"contracts/auction.sol\":1516:2214  function bid() payable public notOwner started beforeEnding {... */\n      jump\t// out\n        /* \"contracts/auction.sol\":1178:1268  function cancelAuc() public Owner{... */\n    tag_32:\n        /* \"contracts/auction.sol\":945:955  auctioneer */\n      0x00\n      dup1\n      sload\n      swap1\n      0x0100\n      exp\n      swap1\n      div\n      0xffffffffffffffffffffffffffffffffffffffff\n      and\n        /* \"contracts/auction.sol\":931:955  msg.sender == auctioneer */\n      0xffffffffffffffffffffffffffffffffffffffff\n      and\n        /* \"contracts/auction.sol\":931:941  msg.sender */\n      caller\n        /* \"contracts/auction.sol\":931:955  msg.sender == auctioneer */\n      0xffffffffffffffffffffffffffffffffffffffff\n      and\n      eq\n        /* \"contracts/auction.sol\":923:975  require(msg.sender == auctioneer,\"Owner cannot bid\") */\n      tag_118\n      jumpi\n      mload(0x40)\n      0x08c379a000000000000000000000000000000000000000000000000000000000\n      dup2\n      mstore\n      0x04\n      add\n      tag_119\n      swap1\n      tag_93\n      jump\t// in\n    tag_119:\n      mload(0x40)\n      dup1\n      swap2\n      sub\n      swap1\n      revert\n    tag_118:\n        /* \"contracts/auction.sol\":1237:1260  Auction_State.Cancelled */\n      0x03\n        /* \"contracts/auction.sol\":1222:1234  auctionState */\n      0x04\n      0x00\n        /* \"contracts/auction.sol\":1222:1260  auctionState = Auction_State.Cancelled */\n      0x0100\n      exp\n      dup2\n      sload\n      dup2\n      0xff\n      mul\n      not\n      and\n      swap1\n      dup4\n      0x03\n      dup2\n      gt\n      iszero\n      tag_121\n      jumpi\n      tag_122\n      tag_101\n      jump\t// in\n    tag_122:\n    tag_121:\n      mul\n      or\n      swap1\n      sstore\n      pop\n        /* \"contracts/auction.sol\":1178:1268  function cancelAuc() public Owner{... */\n      jump\t// out\n        /* \"contracts/auction.sol\":1276:1359  function endAuc() public Owner{... */\n    tag_35:\n        /* \"contracts/auction.sol\":945:955  auctioneer */\n      0x00\n      dup1\n      sload\n      swap1\n      0x0100\n      exp\n      swap1\n      div\n      0xffffffffffffffffffffffffffffffffffffffff\n      and\n        /* \"contracts/auction.sol\":931:955  msg.sender == auctioneer */\n      0xffffffffffffffffffffffffffffffffffffffff\n      and\n        /* \"contracts/auction.sol\":931:941  msg.sender */\n      caller\n        /* \"contracts/auction.sol\":931:955  msg.sender == auctioneer */\n      0xffffffffffffffffffffffffffffffffffffffff\n      and\n      eq\n        /* \"contracts/auction.sol\":923:975  require(msg.sender == auctioneer,\"Owner cannot bid\") */\n      tag_124\n      jumpi\n      mload(0x40)\n      0x08c379a000000000000000000000000000000000000000000000000000000000\n      dup2\n      mstore\n      0x04\n      add\n      tag_125\n      swap1\n      tag_93\n      jump\t// in\n    tag_125:\n      mload(0x40)\n      dup1\n      swap2\n      sub\n      swap1\n      revert\n    tag_124:\n        /* \"contracts/auction.sol\":1332:1351  Auction_State.Ended */\n      0x02\n        /* \"contracts/auction.sol\":1317:1329  auctionState */\n      0x04\n      0x00\n        /* \"contracts/auction.sol\":1317:1351  auctionState = Auction_State.Ended */\n      0x0100\n      exp\n      dup2\n      sload\n      dup2\n      0xff\n      mul\n      not\n      and\n      swap1\n      dup4\n      0x03\n      dup2\n      gt\n      iszero\n      tag_127\n      jumpi\n      tag_128\n      tag_101\n      jump\t// in\n    tag_128:\n    tag_127:\n      mul\n      or\n      swap1\n      sstore\n      pop\n        /* \"contracts/auction.sol\":1276:1359  function endAuc() public Owner{... */\n      jump\t// out\n        /* \"contracts/auction.sol\":88:121  address payable public auctioneer */\n    tag_38:\n      0x00\n      dup1\n      sload\n      swap1\n      0x0100\n      exp\n      swap1\n      div\n      0xffffffffffffffffffffffffffffffffffffffff\n      and\n      dup2\n      jump\t// out\n        /* \"contracts/auction.sol\":497:533  mapping(address => uint) public bids */\n    tag_44:\n      mstore(0x20, 0x09)\n      dup1\n      0x00\n      mstore\n      keccak256(0x00, 0x40)\n      0x00\n      swap2\n      pop\n      swap1\n      pop\n      sload\n      dup2\n      jump\t// out\n        /* \"contracts/auction.sol\":3649:3739  function prevHash()public view returns(bytes32 hash){... */\n    tag_48:\n        /* \"contracts/auction.sol\":3688:3700  bytes32 hash */\n      0x00\n        /* \"contracts/auction.sol\":3719:3731  previousHash */\n      sload(0x03)\n        /* \"contracts/auction.sol\":3712:3731  hash = previousHash */\n      swap1\n      pop\n        /* \"contracts/auction.sol\":3649:3739  function prevHash()public view returns(bytes32 hash){... */\n      swap1\n      jump\t// out\n        /* \"contracts/auction.sol\":340:371  uint public highest_payable_bid */\n    tag_53:\n      sload(0x05)\n      dup2\n      jump\t// out\n        /* \"contracts/auction.sol\":298:331  Auction_State public auctionState */\n    tag_57:\n      0x04\n      0x00\n      swap1\n      sload\n      swap1\n      0x0100\n      exp\n      swap1\n      div\n      0xff\n      and\n      dup2\n      jump\t// out\n        /* \"contracts/auction.sol\":3347:3643  function Block(int transactions)public  returns(bytes32 hashin){... */\n    tag_64:\n        /* \"contracts/auction.sol\":3395:3409  bytes32 hashin */\n      0x00\n        /* \"contracts/auction.sol\":3441:3454  highestBidder */\n      0x07\n      0x00\n      swap1\n      sload\n      swap1\n      0x0100\n      exp\n      swap1\n      div\n      0xffffffffffffffffffffffffffffffffffffffff\n      and\n        /* \"contracts/auction.sol\":3429:3454  msg.sender==highestBidder */\n      0xffffffffffffffffffffffffffffffffffffffff\n      and\n        /* \"contracts/auction.sol\":3429:3439  msg.sender */\n      caller\n        /* \"contracts/auction.sol\":3429:3454  msg.sender==highestBidder */\n      0xffffffffffffffffffffffffffffffffffffffff\n      and\n      eq\n        /* \"contracts/auction.sol\":3421:3455  require(msg.sender==highestBidder) */\n      tag_131\n      jumpi\n      0x00\n      dup1\n      revert\n    tag_131:\n        /* \"contracts/auction.sol\":3465:3474  uint time */\n      0x00\n        /* \"contracts/auction.sol\":3476:3491  block.timestamp */\n      timestamp\n        /* \"contracts/auction.sol\":3465:3491  uint time= block.timestamp */\n      swap1\n      pop\n        /* \"contracts/auction.sol\":3518:3574  sha256(abi.encodePacked(time,transactions,previousHash)) */\n      0x02\n        /* \"contracts/auction.sol\":3542:3546  time */\n      dup2\n        /* \"contracts/auction.sol\":3547:3559  transactions */\n      dup5\n        /* \"contracts/auction.sol\":3560:3572  previousHash */\n      sload(0x03)\n        /* \"contracts/auction.sol\":3525:3573  abi.encodePacked(time,transactions,previousHash) */\n      add(0x20, mload(0x40))\n      tag_132\n      swap4\n      swap3\n      swap2\n      swap1\n      tag_133\n      jump\t// in\n    tag_132:\n      mload(0x40)\n      0x20\n      dup2\n      dup4\n      sub\n      sub\n      dup2\n      mstore\n      swap1\n      0x40\n      mstore\n        /* \"contracts/auction.sol\":3518:3574  sha256(abi.encodePacked(time,transactions,previousHash)) */\n      mload(0x40)\n      tag_134\n      swap2\n      swap1\n      tag_135\n      jump\t// in\n    tag_134:\n      0x20\n      mload(0x40)\n      dup1\n      dup4\n      sub\n      dup2\n      dup6\n      gas\n      staticcall\n      iszero\n      dup1\n      iszero\n      tag_137\n      jumpi\n      returndatasize\n      0x00\n      dup1\n      returndatacopy\n      revert(0x00, returndatasize)\n    tag_137:\n      pop\n      pop\n      pop\n      mload(0x40)\n      returndatasize\n      not(0x1f)\n      0x1f\n      dup3\n      add\n      and\n      dup3\n      add\n      dup1\n      0x40\n      mstore\n      pop\n      dup2\n      add\n      swap1\n      tag_138\n      swap2\n      swap1\n      tag_139\n      jump\t// in\n    tag_138:\n        /* \"contracts/auction.sol\":3510:3574  hashin= sha256(abi.encodePacked(time,transactions,previousHash)) */\n      swap2\n      pop\n        /* \"contracts/auction.sol\":3598:3604  hashin */\n      dup2\n        /* \"contracts/auction.sol\":3585:3597  previousHash */\n      0x03\n        /* \"contracts/auction.sol\":3585:3604  previousHash=hashin */\n      dup2\n      swap1\n      sstore\n      pop\n        /* \"contracts/auction.sol\":3615:3629  return(hashin) */\n      pop\n        /* \"contracts/auction.sol\":3347:3643  function Block(int transactions)public  returns(bytes32 hashin){... */\n      swap2\n      swap1\n      pop\n      jump\t// out\n        /* \"contracts/auction.sol\":412:448  address payable public highestBidder */\n    tag_68:\n      0x07\n      0x00\n      swap1\n      sload\n      swap1\n      0x0100\n      exp\n      swap1\n      div\n      0xffffffffffffffffffffffffffffffffffffffff\n      and\n      dup2\n      jump\t// out\n        /* \"contracts/auction.sol\":168:187  uint public etblock */\n    tag_72:\n      sload(0x02)\n      dup2\n      jump\t// out\n        /* \"contracts/auction.sol\":129:148  uint public stblock */\n    tag_76:\n      sload(0x01)\n      dup2\n      jump\t// out\n        /* \"contracts/auction.sol\":378:403  uint public bid_Increment */\n    tag_80:\n      sload(0x06)\n      dup2\n      jump\t// out\n        /* \"contracts/auction.sol\":2320:3341  function finalizeAuc() public{... */\n    tag_84:\n        /* \"contracts/auction.sol\":2384:2407  Auction_State.Cancelled */\n      0x03\n        /* \"contracts/auction.sol\":2368:2407  auctionState == Auction_State.Cancelled */\n      dup1\n      dup2\n      gt\n      iszero\n      tag_141\n      jumpi\n      tag_142\n      tag_101\n      jump\t// in\n    tag_142:\n    tag_141:\n        /* \"contracts/auction.sol\":2368:2380  auctionState */\n      0x04\n      0x00\n      swap1\n      sload\n      swap1\n      0x0100\n      exp\n      swap1\n      div\n      0xff\n      and\n        /* \"contracts/auction.sol\":2368:2407  auctionState == Auction_State.Cancelled */\n      0x03\n      dup2\n      gt\n      iszero\n      tag_143\n      jumpi\n      tag_144\n      tag_101\n      jump\t// in\n    tag_144:\n    tag_143:\n      eq\n        /* \"contracts/auction.sol\":2368:2446  auctionState == Auction_State.Cancelled || auctionState == Auction_State.Ended */\n      dup1\n      tag_145\n      jumpi\n      pop\n        /* \"contracts/auction.sol\":2427:2446  Auction_State.Ended */\n      0x02\n        /* \"contracts/auction.sol\":2411:2446  auctionState == Auction_State.Ended */\n      0x03\n      dup2\n      gt\n      iszero\n      tag_146\n      jumpi\n      tag_147\n      tag_101\n      jump\t// in\n    tag_147:\n    tag_146:\n        /* \"contracts/auction.sol\":2411:2423  auctionState */\n      0x04\n      0x00\n      swap1\n      sload\n      swap1\n      0x0100\n      exp\n      swap1\n      div\n      0xff\n      and\n        /* \"contracts/auction.sol\":2411:2446  auctionState == Auction_State.Ended */\n      0x03\n      dup2\n      gt\n      iszero\n      tag_148\n      jumpi\n      tag_149\n      tag_101\n      jump\t// in\n    tag_149:\n    tag_148:\n      eq\n        /* \"contracts/auction.sol\":2368:2446  auctionState == Auction_State.Cancelled || auctionState == Auction_State.Ended */\n    tag_145:\n        /* \"contracts/auction.sol\":2368:2470  auctionState == Auction_State.Cancelled || auctionState == Auction_State.Ended || block.number>etblock */\n      dup1\n      tag_150\n      jumpi\n      pop\n        /* \"contracts/auction.sol\":2463:2470  etblock */\n      sload(0x02)\n        /* \"contracts/auction.sol\":2450:2462  block.number */\n      number\n        /* \"contracts/auction.sol\":2450:2470  block.number>etblock */\n      gt\n        /* \"contracts/auction.sol\":2368:2470  auctionState == Auction_State.Cancelled || auctionState == Auction_State.Ended || block.number>etblock */\n    tag_150:\n        /* \"contracts/auction.sol\":2360:2471  require(auctionState == Auction_State.Cancelled || auctionState == Auction_State.Ended || block.number>etblock) */\n      tag_151\n      jumpi\n      0x00\n      dup1\n      revert\n    tag_151:\n        /* \"contracts/auction.sol\":2504:2514  auctioneer */\n      0x00\n      dup1\n      sload\n      swap1\n      0x0100\n      exp\n      swap1\n      div\n      0xffffffffffffffffffffffffffffffffffffffff\n      and\n        /* \"contracts/auction.sol\":2490:2514  msg.sender == auctioneer */\n      0xffffffffffffffffffffffffffffffffffffffff\n      and\n        /* \"contracts/auction.sol\":2490:2500  msg.sender */\n      caller\n        /* \"contracts/auction.sol\":2490:2514  msg.sender == auctioneer */\n      0xffffffffffffffffffffffffffffffffffffffff\n      and\n      eq\n        /* \"contracts/auction.sol\":2490:2536  msg.sender == auctioneer || bids[msg.sender]>0 */\n      dup1\n      tag_152\n      jumpi\n      pop\n        /* \"contracts/auction.sol\":2535:2536  0 */\n      0x00\n        /* \"contracts/auction.sol\":2518:2522  bids */\n      0x09\n        /* \"contracts/auction.sol\":2518:2534  bids[msg.sender] */\n      0x00\n        /* \"contracts/auction.sol\":2523:2533  msg.sender */\n      caller\n        /* \"contracts/auction.sol\":2518:2534  bids[msg.sender] */\n      0xffffffffffffffffffffffffffffffffffffffff\n      and\n      0xffffffffffffffffffffffffffffffffffffffff\n      and\n      dup2\n      mstore\n      0x20\n      add\n      swap1\n      dup2\n      mstore\n      0x20\n      add\n      0x00\n      keccak256\n      sload\n        /* \"contracts/auction.sol\":2518:2536  bids[msg.sender]>0 */\n      gt\n        /* \"contracts/auction.sol\":2490:2536  msg.sender == auctioneer || bids[msg.sender]>0 */\n    tag_152:\n        /* \"contracts/auction.sol\":2482:2537  require(msg.sender == auctioneer || bids[msg.sender]>0) */\n      tag_153\n      jumpi\n      0x00\n      dup1\n      revert\n    tag_153:\n        /* \"contracts/auction.sol\":2550:2572  address payable person */\n      0x00\n        /* \"contracts/auction.sol\":2583:2593  uint value */\n      dup1\n        /* \"contracts/auction.sol\":2625:2648  Auction_State.Cancelled */\n      0x03\n        /* \"contracts/auction.sol\":2609:2648  auctionState == Auction_State.Cancelled */\n      dup1\n      dup2\n      gt\n      iszero\n      tag_154\n      jumpi\n      tag_155\n      tag_101\n      jump\t// in\n    tag_155:\n    tag_154:\n        /* \"contracts/auction.sol\":2609:2621  auctionState */\n      0x04\n      0x00\n      swap1\n      sload\n      swap1\n      0x0100\n      exp\n      swap1\n      div\n      0xff\n      and\n        /* \"contracts/auction.sol\":2609:2648  auctionState == Auction_State.Cancelled */\n      0x03\n      dup2\n      gt\n      iszero\n      tag_156\n      jumpi\n      tag_157\n      tag_101\n      jump\t// in\n    tag_157:\n    tag_156:\n      eq\n        /* \"contracts/auction.sol\":2606:3272  if(auctionState == Auction_State.Cancelled){... */\n      iszero\n      tag_158\n      jumpi\n        /* \"contracts/auction.sol\":2681:2691  msg.sender */\n      caller\n        /* \"contracts/auction.sol\":2664:2692  person = payable(msg.sender) */\n      swap2\n      pop\n        /* \"contracts/auction.sol\":2715:2719  bids */\n      0x09\n        /* \"contracts/auction.sol\":2715:2731  bids[msg.sender] */\n      0x00\n        /* \"contracts/auction.sol\":2720:2730  msg.sender */\n      caller\n        /* \"contracts/auction.sol\":2715:2731  bids[msg.sender] */\n      0xffffffffffffffffffffffffffffffffffffffff\n      and\n      0xffffffffffffffffffffffffffffffffffffffff\n      and\n      dup2\n      mstore\n      0x20\n      add\n      swap1\n      dup2\n      mstore\n      0x20\n      add\n      0x00\n      keccak256\n      sload\n        /* \"contracts/auction.sol\":2707:2731  value = bids[msg.sender] */\n      swap1\n      pop\n        /* \"contracts/auction.sol\":2606:3272  if(auctionState == Auction_State.Cancelled){... */\n      jump(tag_159)\n    tag_158:\n        /* \"contracts/auction.sol\":2789:2799  auctioneer */\n      0x00\n      dup1\n      sload\n      swap1\n      0x0100\n      exp\n      swap1\n      div\n      0xffffffffffffffffffffffffffffffffffffffff\n      and\n        /* \"contracts/auction.sol\":2775:2799  msg.sender == auctioneer */\n      0xffffffffffffffffffffffffffffffffffffffff\n      and\n        /* \"contracts/auction.sol\":2775:2785  msg.sender */\n      caller\n        /* \"contracts/auction.sol\":2775:2799  msg.sender == auctioneer */\n      0xffffffffffffffffffffffffffffffffffffffff\n      and\n      eq\n        /* \"contracts/auction.sol\":2772:3261  if(msg.sender == auctioneer){... */\n      iszero\n      tag_160\n      jumpi\n        /* \"contracts/auction.sol\":2828:2838  auctioneer */\n      0x00\n      dup1\n      sload\n      swap1\n      0x0100\n      exp\n      swap1\n      div\n      0xffffffffffffffffffffffffffffffffffffffff\n      and\n        /* \"contracts/auction.sol\":2819:2838  person = auctioneer */\n      swap2\n      pop\n        /* \"contracts/auction.sol\":2865:2884  highest_payable_bid */\n      sload(0x05)\n        /* \"contracts/auction.sol\":2857:2884  value = highest_payable_bid */\n      swap1\n      pop\n        /* \"contracts/auction.sol\":2772:3261  if(msg.sender == auctioneer){... */\n      jump(tag_161)\n    tag_160:\n        /* \"contracts/auction.sol\":2956:2969  highestBidder */\n      0x07\n      0x00\n      swap1\n      sload\n      swap1\n      0x0100\n      exp\n      swap1\n      div\n      0xffffffffffffffffffffffffffffffffffffffff\n      and\n        /* \"contracts/auction.sol\":2942:2969  msg.sender == highestBidder */\n      0xffffffffffffffffffffffffffffffffffffffff\n      and\n        /* \"contracts/auction.sol\":2942:2952  msg.sender */\n      caller\n        /* \"contracts/auction.sol\":2942:2969  msg.sender == highestBidder */\n      0xffffffffffffffffffffffffffffffffffffffff\n      and\n      eq\n        /* \"contracts/auction.sol\":2939:3246  if(msg.sender == highestBidder){... */\n      iszero\n      tag_162\n      jumpi\n        /* \"contracts/auction.sol\":3003:3016  highestBidder */\n      0x07\n      0x00\n      swap1\n      sload\n      swap1\n      0x0100\n      exp\n      swap1\n      div\n      0xffffffffffffffffffffffffffffffffffffffff\n      and\n        /* \"contracts/auction.sol\":2994:3016  person = highestBidder */\n      swap2\n      pop\n        /* \"contracts/auction.sol\":3067:3086  highest_payable_bid */\n      sload(0x05)\n        /* \"contracts/auction.sol\":3047:3051  bids */\n      0x09\n        /* \"contracts/auction.sol\":3047:3066  bids[highestBidder] */\n      0x00\n        /* \"contracts/auction.sol\":3052:3065  highestBidder */\n      0x07\n      0x00\n      swap1\n      sload\n      swap1\n      0x0100\n      exp\n      swap1\n      div\n      0xffffffffffffffffffffffffffffffffffffffff\n      and\n        /* \"contracts/auction.sol\":3047:3066  bids[highestBidder] */\n      0xffffffffffffffffffffffffffffffffffffffff\n      and\n      0xffffffffffffffffffffffffffffffffffffffff\n      and\n      dup2\n      mstore\n      0x20\n      add\n      swap1\n      dup2\n      mstore\n      0x20\n      add\n      0x00\n      keccak256\n      sload\n        /* \"contracts/auction.sol\":3047:3086  bids[highestBidder]-highest_payable_bid */\n      tag_163\n      swap2\n      swap1\n      tag_164\n      jump\t// in\n    tag_163:\n        /* \"contracts/auction.sol\":3039:3086  value = bids[highestBidder]-highest_payable_bid */\n      swap1\n      pop\n        /* \"contracts/auction.sol\":2939:3246  if(msg.sender == highestBidder){... */\n      jump(tag_165)\n    tag_162:\n        /* \"contracts/auction.sol\":3168:3178  msg.sender */\n      caller\n        /* \"contracts/auction.sol\":3151:3179  person = payable(msg.sender) */\n      swap2\n      pop\n        /* \"contracts/auction.sol\":3210:3214  bids */\n      0x09\n        /* \"contracts/auction.sol\":3210:3226  bids[msg.sender] */\n      0x00\n        /* \"contracts/auction.sol\":3215:3225  msg.sender */\n      caller\n        /* \"contracts/auction.sol\":3210:3226  bids[msg.sender] */\n      0xffffffffffffffffffffffffffffffffffffffff\n      and\n      0xffffffffffffffffffffffffffffffffffffffff\n      and\n      dup2\n      mstore\n      0x20\n      add\n      swap1\n      dup2\n      mstore\n      0x20\n      add\n      0x00\n      keccak256\n      sload\n        /* \"contracts/auction.sol\":3202:3226  value = bids[msg.sender] */\n      swap1\n      pop\n        /* \"contracts/auction.sol\":2939:3246  if(msg.sender == highestBidder){... */\n    tag_165:\n        /* \"contracts/auction.sol\":2772:3261  if(msg.sender == auctioneer){... */\n    tag_161:\n        /* \"contracts/auction.sol\":2606:3272  if(auctionState == Auction_State.Cancelled){... */\n    tag_159:\n        /* \"contracts/auction.sol\":3299:3300  0 */\n      0x00\n        /* \"contracts/auction.sol\":3282:3286  bids */\n      0x09\n        /* \"contracts/auction.sol\":3282:3298  bids[msg.sender] */\n      0x00\n        /* \"contracts/auction.sol\":3287:3297  msg.sender */\n      caller\n        /* \"contracts/auction.sol\":3282:3298  bids[msg.sender] */\n      0xffffffffffffffffffffffffffffffffffffffff\n      and\n      0xffffffffffffffffffffffffffffffffffffffff\n      and\n      dup2\n      mstore\n      0x20\n      add\n      swap1\n      dup2\n      mstore\n      0x20\n      add\n      0x00\n      keccak256\n        /* \"contracts/auction.sol\":3282:3300  bids[msg.sender]=0 */\n      dup2\n      swap1\n      sstore\n      pop\n        /* \"contracts/auction.sol\":3311:3317  person */\n      dup2\n        /* \"contracts/auction.sol\":3311:3326  person.transfer */\n      0xffffffffffffffffffffffffffffffffffffffff\n      and\n        /* \"contracts/auction.sol\":3311:3333  person.transfer(value) */\n      0x08fc\n        /* \"contracts/auction.sol\":3327:3332  value */\n      dup3\n        /* \"contracts/auction.sol\":3311:3333  person.transfer(value) */\n      swap1\n      dup2\n      iszero\n      mul\n      swap1\n      mload(0x40)\n      0x00\n      mload(0x40)\n      dup1\n      dup4\n      sub\n      dup2\n      dup6\n      dup9\n      dup9\n      call\n      swap4\n      pop\n      pop\n      pop\n      pop\n      iszero\n      dup1\n      iszero\n      tag_167\n      jumpi\n      returndatasize\n      0x00\n      dup1\n      returndatacopy\n      revert(0x00, returndatasize)\n    tag_167:\n      pop\n        /* \"contracts/auction.sol\":2349:3341  {... */\n      pop\n      pop\n        /* \"contracts/auction.sol\":2320:3341  function finalizeAuc() public{... */\n      jump\t// out\n        /* \"contracts/auction.sol\":2220:2314  function getBalance(address addr) public view returns(uint) {... */\n    tag_88:\n        /* \"contracts/auction.sol\":2274:2278  uint */\n      0x00\n        /* \"contracts/auction.sol\":2298:2300  xp */\n      0x08\n        /* \"contracts/auction.sol\":2298:2306  xp[addr] */\n      0x00\n        /* \"contracts/auction.sol\":2301:2305  addr */\n      dup4\n        /* \"contracts/auction.sol\":2298:2306  xp[addr] */\n      0xffffffffffffffffffffffffffffffffffffffff\n      and\n      0xffffffffffffffffffffffffffffffffffffffff\n      and\n      dup2\n      mstore\n      0x20\n      add\n      swap1\n      dup2\n      mstore\n      0x20\n      add\n      0x00\n      keccak256\n      sload\n        /* \"contracts/auction.sol\":2291:2306  return xp[addr] */\n      swap1\n      pop\n        /* \"contracts/auction.sol\":2220:2314  function getBalance(address addr) public view returns(uint) {... */\n      swap2\n      swap1\n      pop\n      jump\t// out\n        /* \"contracts/auction.sol\":1371:1508  function min(uint a , uint b) pure private returns (uint){... */\n    tag_112:\n        /* \"contracts/auction.sol\":1423:1427  uint */\n      0x00\n        /* \"contracts/auction.sol\":1445:1446  b */\n      dup2\n        /* \"contracts/auction.sol\":1442:1443  a */\n      dup4\n        /* \"contracts/auction.sol\":1442:1446  a<=b */\n      gt\n        /* \"contracts/auction.sol\":1439:1498  if(a<=b)... */\n      tag_170\n      jumpi\n        /* \"contracts/auction.sol\":1464:1465  a */\n      dup3\n        /* \"contracts/auction.sol\":1457:1465  return a */\n      swap1\n      pop\n      jump(tag_169)\n        /* \"contracts/auction.sol\":1439:1498  if(a<=b)... */\n    tag_170:\n        /* \"contracts/auction.sol\":1497:1498  b */\n      dup2\n        /* \"contracts/auction.sol\":1490:1498  return b */\n      swap1\n      pop\n        /* \"contracts/auction.sol\":1371:1508  function min(uint a , uint b) pure private returns (uint){... */\n    tag_169:\n      swap3\n      swap2\n      pop\n      pop\n      jump\t// out\n        /* \"#utility.yul\":88:205   */\n    tag_173:\n        /* \"#utility.yul\":197:198   */\n      0x00\n        /* \"#utility.yul\":194:195   */\n      dup1\n        /* \"#utility.yul\":187:199   */\n      revert\n        /* \"#utility.yul\":334:460   */\n    tag_175:\n        /* \"#utility.yul\":371:378   */\n      0x00\n        /* \"#utility.yul\":411:453   */\n      0xffffffffffffffffffffffffffffffffffffffff\n        /* \"#utility.yul\":404:409   */\n      dup3\n        /* \"#utility.yul\":400:454   */\n      and\n        /* \"#utility.yul\":389:454   */\n      swap1\n      pop\n        /* \"#utility.yul\":334:460   */\n      swap2\n      swap1\n      pop\n      jump\t// out\n        /* \"#utility.yul\":466:562   */\n    tag_176:\n        /* \"#utility.yul\":503:510   */\n      0x00\n        /* \"#utility.yul\":532:556   */\n      tag_214\n        /* \"#utility.yul\":550:555   */\n      dup3\n        /* \"#utility.yul\":532:556   */\n      tag_175\n      jump\t// in\n    tag_214:\n        /* \"#utility.yul\":521:556   */\n      swap1\n      pop\n        /* \"#utility.yul\":466:562   */\n      swap2\n      swap1\n      pop\n      jump\t// out\n        /* \"#utility.yul\":568:690   */\n    tag_177:\n        /* \"#utility.yul\":641:665   */\n      tag_216\n        /* \"#utility.yul\":659:664   */\n      dup2\n        /* \"#utility.yul\":641:665   */\n      tag_176\n      jump\t// in\n    tag_216:\n        /* \"#utility.yul\":634:639   */\n      dup2\n        /* \"#utility.yul\":631:666   */\n      eq\n        /* \"#utility.yul\":621:684   */\n      tag_217\n      jumpi\n        /* \"#utility.yul\":680:681   */\n      0x00\n        /* \"#utility.yul\":677:678   */\n      dup1\n        /* \"#utility.yul\":670:682   */\n      revert\n        /* \"#utility.yul\":621:684   */\n    tag_217:\n        /* \"#utility.yul\":568:690   */\n      pop\n      jump\t// out\n        /* \"#utility.yul\":696:835   */\n    tag_178:\n        /* \"#utility.yul\":742:747   */\n      0x00\n        /* \"#utility.yul\":780:786   */\n      dup2\n        /* \"#utility.yul\":767:787   */\n      calldataload\n        /* \"#utility.yul\":758:787   */\n      swap1\n      pop\n        /* \"#utility.yul\":796:829   */\n      tag_219\n        /* \"#utility.yul\":823:828   */\n      dup2\n        /* \"#utility.yul\":796:829   */\n      tag_177\n      jump\t// in\n    tag_219:\n        /* \"#utility.yul\":696:835   */\n      swap3\n      swap2\n      pop\n      pop\n      jump\t// out\n        /* \"#utility.yul\":841:1170   */\n    tag_24:\n        /* \"#utility.yul\":900:906   */\n      0x00\n        /* \"#utility.yul\":949:951   */\n      0x20\n        /* \"#utility.yul\":937:946   */\n      dup3\n        /* \"#utility.yul\":928:935   */\n      dup5\n        /* \"#utility.yul\":924:947   */\n      sub\n        /* \"#utility.yul\":920:952   */\n      slt\n        /* \"#utility.yul\":917:1036   */\n      iszero\n      tag_221\n      jumpi\n        /* \"#utility.yul\":955:1034   */\n      tag_222\n      tag_173\n      jump\t// in\n    tag_222:\n        /* \"#utility.yul\":917:1036   */\n    tag_221:\n        /* \"#utility.yul\":1075:1076   */\n      0x00\n        /* \"#utility.yul\":1100:1153   */\n      tag_223\n        /* \"#utility.yul\":1145:1152   */\n      dup5\n        /* \"#utility.yul\":1136:1142   */\n      dup3\n        /* \"#utility.yul\":1125:1134   */\n      dup6\n        /* \"#utility.yul\":1121:1143   */\n      add\n        /* \"#utility.yul\":1100:1153   */\n      tag_178\n      jump\t// in\n    tag_223:\n        /* \"#utility.yul\":1090:1153   */\n      swap2\n      pop\n        /* \"#utility.yul\":1046:1163   */\n      pop\n        /* \"#utility.yul\":841:1170   */\n      swap3\n      swap2\n      pop\n      pop\n      jump\t// out\n        /* \"#utility.yul\":1176:1253   */\n    tag_179:\n        /* \"#utility.yul\":1213:1220   */\n      0x00\n        /* \"#utility.yul\":1242:1247   */\n      dup2\n        /* \"#utility.yul\":1231:1247   */\n      swap1\n      pop\n        /* \"#utility.yul\":1176:1253   */\n      swap2\n      swap1\n      pop\n      jump\t// out\n        /* \"#utility.yul\":1259:1377   */\n    tag_180:\n        /* \"#utility.yul\":1346:1370   */\n      tag_226\n        /* \"#utility.yul\":1364:1369   */\n      dup2\n        /* \"#utility.yul\":1346:1370   */\n      tag_179\n      jump\t// in\n    tag_226:\n        /* \"#utility.yul\":1341:1344   */\n      dup3\n        /* \"#utility.yul\":1334:1371   */\n      mstore\n        /* \"#utility.yul\":1259:1377   */\n      pop\n      pop\n      jump\t// out\n        /* \"#utility.yul\":1383:1605   */\n    tag_27:\n        /* \"#utility.yul\":1476:1480   */\n      0x00\n        /* \"#utility.yul\":1514:1516   */\n      0x20\n        /* \"#utility.yul\":1503:1512   */\n      dup3\n        /* \"#utility.yul\":1499:1517   */\n      add\n        /* \"#utility.yul\":1491:1517   */\n      swap1\n      pop\n        /* \"#utility.yul\":1527:1598   */\n      tag_228\n        /* \"#utility.yul\":1595:1596   */\n      0x00\n        /* \"#utility.yul\":1584:1593   */\n      dup4\n        /* \"#utility.yul\":1580:1597   */\n      add\n        /* \"#utility.yul\":1571:1577   */\n      dup5\n        /* \"#utility.yul\":1527:1598   */\n      tag_180\n      jump\t// in\n    tag_228:\n        /* \"#utility.yul\":1383:1605   */\n      swap3\n      swap2\n      pop\n      pop\n      jump\t// out\n        /* \"#utility.yul\":1611:1715   */\n    tag_181:\n        /* \"#utility.yul\":1656:1663   */\n      0x00\n        /* \"#utility.yul\":1685:1709   */\n      tag_230\n        /* \"#utility.yul\":1703:1708   */\n      dup3\n        /* \"#utility.yul\":1685:1709   */\n      tag_175\n      jump\t// in\n    tag_230:\n        /* \"#utility.yul\":1674:1709   */\n      swap1\n      pop\n        /* \"#utility.yul\":1611:1715   */\n      swap2\n      swap1\n      pop\n      jump\t// out\n        /* \"#utility.yul\":1721:1863   */\n    tag_182:\n        /* \"#utility.yul\":1824:1856   */\n      tag_232\n        /* \"#utility.yul\":1850:1855   */\n      dup2\n        /* \"#utility.yul\":1824:1856   */\n      tag_181\n      jump\t// in\n    tag_232:\n        /* \"#utility.yul\":1819:1822   */\n      dup3\n        /* \"#utility.yul\":1812:1857   */\n      mstore\n        /* \"#utility.yul\":1721:1863   */\n      pop\n      pop\n      jump\t// out\n        /* \"#utility.yul\":1869:2123   */\n    tag_40:\n        /* \"#utility.yul\":1978:1982   */\n      0x00\n        /* \"#utility.yul\":2016:2018   */\n      0x20\n        /* \"#utility.yul\":2005:2014   */\n      dup3\n        /* \"#utility.yul\":2001:2019   */\n      add\n        /* \"#utility.yul\":1993:2019   */\n      swap1\n      pop\n        /* \"#utility.yul\":2029:2116   */\n      tag_234\n        /* \"#utility.yul\":2113:2114   */\n      0x00\n        /* \"#utility.yul\":2102:2111   */\n      dup4\n        /* \"#utility.yul\":2098:2115   */\n      add\n        /* \"#utility.yul\":2089:2095   */\n      dup5\n        /* \"#utility.yul\":2029:2116   */\n      tag_182\n      jump\t// in\n    tag_234:\n        /* \"#utility.yul\":1869:2123   */\n      swap3\n      swap2\n      pop\n      pop\n      jump\t// out\n        /* \"#utility.yul\":2129:2206   */\n    tag_183:\n        /* \"#utility.yul\":2166:2173   */\n      0x00\n        /* \"#utility.yul\":2195:2200   */\n      dup2\n        /* \"#utility.yul\":2184:2200   */\n      swap1\n      pop\n        /* \"#utility.yul\":2129:2206   */\n      swap2\n      swap1\n      pop\n      jump\t// out\n        /* \"#utility.yul\":2212:2330   */\n    tag_184:\n        /* \"#utility.yul\":2299:2323   */\n      tag_237\n        /* \"#utility.yul\":2317:2322   */\n      dup2\n        /* \"#utility.yul\":2299:2323   */\n      tag_183\n      jump\t// in\n    tag_237:\n        /* \"#utility.yul\":2294:2297   */\n      dup3\n        /* \"#utility.yul\":2287:2324   */\n      mstore\n        /* \"#utility.yul\":2212:2330   */\n      pop\n      pop\n      jump\t// out\n        /* \"#utility.yul\":2336:2558   */\n    tag_50:\n        /* \"#utility.yul\":2429:2433   */\n      0x00\n        /* \"#utility.yul\":2467:2469   */\n      0x20\n        /* \"#utility.yul\":2456:2465   */\n      dup3\n        /* \"#utility.yul\":2452:2470   */\n      add\n        /* \"#utility.yul\":2444:2470   */\n      swap1\n      pop\n        /* \"#utility.yul\":2480:2551   */\n      tag_239\n        /* \"#utility.yul\":2548:2549   */\n      0x00\n        /* \"#utility.yul\":2537:2546   */\n      dup4\n        /* \"#utility.yul\":2533:2550   */\n      add\n        /* \"#utility.yul\":2524:2530   */\n      dup5\n        /* \"#utility.yul\":2480:2551   */\n      tag_184\n      jump\t// in\n    tag_239:\n        /* \"#utility.yul\":2336:2558   */\n      swap3\n      swap2\n      pop\n      pop\n      jump\t// out\n        /* \"#utility.yul\":2564:2744   */\n    tag_101:\n        /* \"#utility.yul\":2612:2689   */\n      0x4e487b7100000000000000000000000000000000000000000000000000000000\n        /* \"#utility.yul\":2609:2610   */\n      0x00\n        /* \"#utility.yul\":2602:2690   */\n      mstore\n        /* \"#utility.yul\":2709:2713   */\n      0x21\n        /* \"#utility.yul\":2706:2707   */\n      0x04\n        /* \"#utility.yul\":2699:2714   */\n      mstore\n        /* \"#utility.yul\":2733:2737   */\n      0x24\n        /* \"#utility.yul\":2730:2731   */\n      0x00\n        /* \"#utility.yul\":2723:2738   */\n      revert\n        /* \"#utility.yul\":2750:2871   */\n    tag_185:\n        /* \"#utility.yul\":2839:2840   */\n      0x04\n        /* \"#utility.yul\":2832:2837   */\n      dup2\n        /* \"#utility.yul\":2829:2841   */\n      lt\n        /* \"#utility.yul\":2819:2865   */\n      tag_242\n      jumpi\n        /* \"#utility.yul\":2845:2863   */\n      tag_243\n      tag_101\n      jump\t// in\n    tag_243:\n        /* \"#utility.yul\":2819:2865   */\n    tag_242:\n        /* \"#utility.yul\":2750:2871   */\n      pop\n      jump\t// out\n        /* \"#utility.yul\":2877:3020   */\n    tag_186:\n        /* \"#utility.yul\":2930:2937   */\n      0x00\n        /* \"#utility.yul\":2959:2964   */\n      dup2\n        /* \"#utility.yul\":2948:2964   */\n      swap1\n      pop\n        /* \"#utility.yul\":2965:3014   */\n      tag_245\n        /* \"#utility.yul\":3008:3013   */\n      dup3\n        /* \"#utility.yul\":2965:3014   */\n      tag_185\n      jump\t// in\n    tag_245:\n        /* \"#utility.yul\":2877:3020   */\n      swap2\n      swap1\n      pop\n      jump\t// out\n        /* \"#utility.yul\":3026:3169   */\n    tag_187:\n        /* \"#utility.yul\":3090:3099   */\n      0x00\n        /* \"#utility.yul\":3123:3163   */\n      tag_247\n        /* \"#utility.yul\":3157:3162   */\n      dup3\n        /* \"#utility.yul\":3123:3163   */\n      tag_186\n      jump\t// in\n    tag_247:\n        /* \"#utility.yul\":3110:3163   */\n      swap1\n      pop\n        /* \"#utility.yul\":3026:3169   */\n      swap2\n      swap1\n      pop\n      jump\t// out\n        /* \"#utility.yul\":3175:3334   */\n    tag_188:\n        /* \"#utility.yul\":3276:3327   */\n      tag_249\n        /* \"#utility.yul\":3321:3326   */\n      dup2\n        /* \"#utility.yul\":3276:3327   */\n      tag_187\n      jump\t// in\n    tag_249:\n        /* \"#utility.yul\":3271:3274   */\n      dup3\n        /* \"#utility.yul\":3264:3328   */\n      mstore\n        /* \"#utility.yul\":3175:3334   */\n      pop\n      pop\n      jump\t// out\n        /* \"#utility.yul\":3340:3590   */\n    tag_59:\n        /* \"#utility.yul\":3447:3451   */\n      0x00\n        /* \"#utility.yul\":3485:3487   */\n      0x20\n        /* \"#utility.yul\":3474:3483   */\n      dup3\n        /* \"#utility.yul\":3470:3488   */\n      add\n        /* \"#utility.yul\":3462:3488   */\n      swap1\n      pop\n        /* \"#utility.yul\":3498:3583   */\n      tag_251\n        /* \"#utility.yul\":3580:3581   */\n      0x00\n        /* \"#utility.yul\":3569:3578   */\n      dup4\n        /* \"#utility.yul\":3565:3582   */\n      add\n        /* \"#utility.yul\":3556:3562   */\n      dup5\n        /* \"#utility.yul\":3498:3583   */\n      tag_188\n      jump\t// in\n    tag_251:\n        /* \"#utility.yul\":3340:3590   */\n      swap3\n      swap2\n      pop\n      pop\n      jump\t// out\n        /* \"#utility.yul\":3596:3672   */\n    tag_189:\n        /* \"#utility.yul\":3632:3639   */\n      0x00\n        /* \"#utility.yul\":3661:3666   */\n      dup2\n        /* \"#utility.yul\":3650:3666   */\n      swap1\n      pop\n        /* \"#utility.yul\":3596:3672   */\n      swap2\n      swap1\n      pop\n      jump\t// out\n        /* \"#utility.yul\":3678:3798   */\n    tag_190:\n        /* \"#utility.yul\":3750:3773   */\n      tag_254\n        /* \"#utility.yul\":3767:3772   */\n      dup2\n        /* \"#utility.yul\":3750:3773   */\n      tag_189\n      jump\t// in\n    tag_254:\n        /* \"#utility.yul\":3743:3748   */\n      dup2\n        /* \"#utility.yul\":3740:3774   */\n      eq\n        /* \"#utility.yul\":3730:3792   */\n      tag_255\n      jumpi\n        /* \"#utility.yul\":3788:3789   */\n      0x00\n        /* \"#utility.yul\":3785:3786   */\n      dup1\n        /* \"#utility.yul\":3778:3790   */\n      revert\n        /* \"#utility.yul\":3730:3792   */\n    tag_255:\n        /* \"#utility.yul\":3678:3798   */\n      pop\n      jump\t// out\n        /* \"#utility.yul\":3804:3941   */\n    tag_191:\n        /* \"#utility.yul\":3849:3854   */\n      0x00\n        /* \"#utility.yul\":3887:3893   */\n      dup2\n        /* \"#utility.yul\":3874:3894   */\n      calldataload\n        /* \"#utility.yul\":3865:3894   */\n      swap1\n      pop\n        /* \"#utility.yul\":3903:3935   */\n      tag_257\n        /* \"#utility.yul\":3929:3934   */\n      dup2\n        /* \"#utility.yul\":3903:3935   */\n      tag_190\n      jump\t// in\n    tag_257:\n        /* \"#utility.yul\":3804:3941   */\n      swap3\n      swap2\n      pop\n      pop\n      jump\t// out\n        /* \"#utility.yul\":3947:4274   */\n    tag_63:\n        /* \"#utility.yul\":4005:4011   */\n      0x00\n        /* \"#utility.yul\":4054:4056   */\n      0x20\n        /* \"#utility.yul\":4042:4051   */\n      dup3\n        /* \"#utility.yul\":4033:4040   */\n      dup5\n        /* \"#utility.yul\":4029:4052   */\n      sub\n        /* \"#utility.yul\":4025:4057   */\n      slt\n        /* \"#utility.yul\":4022:4141   */\n      iszero\n      tag_259\n      jumpi\n        /* \"#utility.yul\":4060:4139   */\n      tag_260\n      tag_173\n      jump\t// in\n    tag_260:\n        /* \"#utility.yul\":4022:4141   */\n    tag_259:\n        /* \"#utility.yul\":4180:4181   */\n      0x00\n        /* \"#utility.yul\":4205:4257   */\n      tag_261\n        /* \"#utility.yul\":4249:4256   */\n      dup5\n        /* \"#utility.yul\":4240:4246   */\n      dup3\n        /* \"#utility.yul\":4229:4238   */\n      dup6\n        /* \"#utility.yul\":4225:4247   */\n      add\n        /* \"#utility.yul\":4205:4257   */\n      tag_191\n      jump\t// in\n    tag_261:\n        /* \"#utility.yul\":4195:4257   */\n      swap2\n      pop\n        /* \"#utility.yul\":4151:4267   */\n      pop\n        /* \"#utility.yul\":3947:4274   */\n      swap3\n      swap2\n      pop\n      pop\n      jump\t// out\n        /* \"#utility.yul\":4280:4449   */\n    tag_192:\n        /* \"#utility.yul\":4364:4375   */\n      0x00\n        /* \"#utility.yul\":4398:4404   */\n      dup3\n        /* \"#utility.yul\":4393:4396   */\n      dup3\n        /* \"#utility.yul\":4386:4405   */\n      mstore\n        /* \"#utility.yul\":4438:4442   */\n      0x20\n        /* \"#utility.yul\":4433:4436   */\n      dup3\n        /* \"#utility.yul\":4429:4443   */\n      add\n        /* \"#utility.yul\":4414:4443   */\n      swap1\n      pop\n        /* \"#utility.yul\":4280:4449   */\n      swap3\n      swap2\n      pop\n      pop\n      jump\t// out\n        /* \"#utility.yul\":4455:4621   */\n    tag_193:\n        /* \"#utility.yul\":4595:4613   */\n      0x4f776e65722063616e6e6f742062696400000000000000000000000000000000\n        /* \"#utility.yul\":4591:4592   */\n      0x00\n        /* \"#utility.yul\":4583:4589   */\n      dup3\n        /* \"#utility.yul\":4579:4593   */\n      add\n        /* \"#utility.yul\":4572:4614   */\n      mstore\n        /* \"#utility.yul\":4455:4621   */\n      pop\n      jump\t// out\n        /* \"#utility.yul\":4627:4993   */\n    tag_194:\n        /* \"#utility.yul\":4769:4772   */\n      0x00\n        /* \"#utility.yul\":4790:4857   */\n      tag_265\n        /* \"#utility.yul\":4854:4856   */\n      0x10\n        /* \"#utility.yul\":4849:4852   */\n      dup4\n        /* \"#utility.yul\":4790:4857   */\n      tag_192\n      jump\t// in\n    tag_265:\n        /* \"#utility.yul\":4783:4857   */\n      swap2\n      pop\n        /* \"#utility.yul\":4866:4959   */\n      tag_266\n        /* \"#utility.yul\":4955:4958   */\n      dup3\n        /* \"#utility.yul\":4866:4959   */\n      tag_193\n      jump\t// in\n    tag_266:\n        /* \"#utility.yul\":4984:4986   */\n      0x20\n        /* \"#utility.yul\":4979:4982   */\n      dup3\n        /* \"#utility.yul\":4975:4987   */\n      add\n        /* \"#utility.yul\":4968:4987   */\n      swap1\n      pop\n        /* \"#utility.yul\":4627:4993   */\n      swap2\n      swap1\n      pop\n      jump\t// out\n        /* \"#utility.yul\":4999:5418   */\n    tag_93:\n        /* \"#utility.yul\":5165:5169   */\n      0x00\n        /* \"#utility.yul\":5203:5205   */\n      0x20\n        /* \"#utility.yul\":5192:5201   */\n      dup3\n        /* \"#utility.yul\":5188:5206   */\n      add\n        /* \"#utility.yul\":5180:5206   */\n      swap1\n      pop\n        /* \"#utility.yul\":5252:5261   */\n      dup2\n        /* \"#utility.yul\":5246:5250   */\n      dup2\n        /* \"#utility.yul\":5242:5262   */\n      sub\n        /* \"#utility.yul\":5238:5239   */\n      0x00\n        /* \"#utility.yul\":5227:5236   */\n      dup4\n        /* \"#utility.yul\":5223:5240   */\n      add\n        /* \"#utility.yul\":5216:5263   */\n      mstore\n        /* \"#utility.yul\":5280:5411   */\n      tag_268\n        /* \"#utility.yul\":5406:5410   */\n      dup2\n        /* \"#utility.yul\":5280:5411   */\n      tag_194\n      jump\t// in\n    tag_268:\n        /* \"#utility.yul\":5272:5411   */\n      swap1\n      pop\n        /* \"#utility.yul\":4999:5418   */\n      swap2\n      swap1\n      pop\n      jump\t// out\n        /* \"#utility.yul\":5424:5604   */\n    tag_195:\n        /* \"#utility.yul\":5472:5549   */\n      0x4e487b7100000000000000000000000000000000000000000000000000000000\n        /* \"#utility.yul\":5469:5470   */\n      0x00\n        /* \"#utility.yul\":5462:5550   */\n      mstore\n        /* \"#utility.yul\":5569:5573   */\n      0x11\n        /* \"#utility.yul\":5566:5567   */\n      0x04\n        /* \"#utility.yul\":5559:5574   */\n      mstore\n        /* \"#utility.yul\":5593:5597   */\n      0x24\n        /* \"#utility.yul\":5590:5591   */\n      0x00\n        /* \"#utility.yul\":5583:5598   */\n      revert\n        /* \"#utility.yul\":5610:5915   */\n    tag_107:\n        /* \"#utility.yul\":5650:5653   */\n      0x00\n        /* \"#utility.yul\":5669:5689   */\n      tag_271\n        /* \"#utility.yul\":5687:5688   */\n      dup3\n        /* \"#utility.yul\":5669:5689   */\n      tag_179\n      jump\t// in\n    tag_271:\n        /* \"#utility.yul\":5664:5689   */\n      swap2\n      pop\n        /* \"#utility.yul\":5703:5723   */\n      tag_272\n        /* \"#utility.yul\":5721:5722   */\n      dup4\n        /* \"#utility.yul\":5703:5723   */\n      tag_179\n      jump\t// in\n    tag_272:\n        /* \"#utility.yul\":5698:5723   */\n      swap3\n      pop\n        /* \"#utility.yul\":5857:5858   */\n      dup3\n        /* \"#utility.yul\":5789:5855   */\n      0xffffffffffffffffffffffffffffffffffffffffffffffffffffffffffffffff\n        /* \"#utility.yul\":5785:5859   */\n      sub\n        /* \"#utility.yul\":5782:5783   */\n      dup3\n        /* \"#utility.yul\":5779:5860   */\n      gt\n        /* \"#utility.yul\":5776:5883   */\n      iszero\n      tag_273\n      jumpi\n        /* \"#utility.yul\":5863:5881   */\n      tag_274\n      tag_195\n      jump\t// in\n    tag_274:\n        /* \"#utility.yul\":5776:5883   */\n    tag_273:\n        /* \"#utility.yul\":5907:5908   */\n      dup3\n        /* \"#utility.yul\":5904:5905   */\n      dup3\n        /* \"#utility.yul\":5900:5909   */\n      add\n        /* \"#utility.yul\":5893:5909   */\n      swap1\n      pop\n        /* \"#utility.yul\":5610:5915   */\n      swap3\n      swap2\n      pop\n      pop\n      jump\t// out\n        /* \"#utility.yul\":5921:6000   */\n    tag_196:\n        /* \"#utility.yul\":5960:5967   */\n      0x00\n        /* \"#utility.yul\":5989:5994   */\n      dup2\n        /* \"#utility.yul\":5978:5994   */\n      swap1\n      pop\n        /* \"#utility.yul\":5921:6000   */\n      swap2\n      swap1\n      pop\n      jump\t// out\n        /* \"#utility.yul\":6006:6163   */\n    tag_197:\n        /* \"#utility.yul\":6111:6156   */\n      tag_277\n        /* \"#utility.yul\":6131:6155   */\n      tag_278\n        /* \"#utility.yul\":6149:6154   */\n      dup3\n        /* \"#utility.yul\":6131:6155   */\n      tag_179\n      jump\t// in\n    tag_278:\n        /* \"#utility.yul\":6111:6156   */\n      tag_196\n      jump\t// in\n    tag_277:\n        /* \"#utility.yul\":6106:6109   */\n      dup3\n        /* \"#utility.yul\":6099:6157   */\n      mstore\n        /* \"#utility.yul\":6006:6163   */\n      pop\n      pop\n      jump\t// out\n        /* \"#utility.yul\":6169:6247   */\n    tag_198:\n        /* \"#utility.yul\":6207:6214   */\n      0x00\n        /* \"#utility.yul\":6236:6241   */\n      dup2\n        /* \"#utility.yul\":6225:6241   */\n      swap1\n      pop\n        /* \"#utility.yul\":6169:6247   */\n      swap2\n      swap1\n      pop\n      jump\t// out\n        /* \"#utility.yul\":6253:6406   */\n    tag_199:\n        /* \"#utility.yul\":6356:6399   */\n      tag_281\n        /* \"#utility.yul\":6375:6398   */\n      tag_282\n        /* \"#utility.yul\":6392:6397   */\n      dup3\n        /* \"#utility.yul\":6375:6398   */\n      tag_189\n      jump\t// in\n    tag_282:\n        /* \"#utility.yul\":6356:6399   */\n      tag_198\n      jump\t// in\n    tag_281:\n        /* \"#utility.yul\":6351:6354   */\n      dup3\n        /* \"#utility.yul\":6344:6400   */\n      mstore\n        /* \"#utility.yul\":6253:6406   */\n      pop\n      pop\n      jump\t// out\n        /* \"#utility.yul\":6412:6491   */\n    tag_200:\n        /* \"#utility.yul\":6451:6458   */\n      0x00\n        /* \"#utility.yul\":6480:6485   */\n      dup2\n        /* \"#utility.yul\":6469:6485   */\n      swap1\n      pop\n        /* \"#utility.yul\":6412:6491   */\n      swap2\n      swap1\n      pop\n      jump\t// out\n        /* \"#utility.yul\":6497:6654   */\n    tag_201:\n        /* \"#utility.yul\":6602:6647   */\n      tag_285\n        /* \"#utility.yul\":6622:6646   */\n      tag_286\n        /* \"#utility.yul\":6640:6645   */\n      dup3\n        /* \"#utility.yul\":6622:6646   */\n      tag_183\n      jump\t// in\n    tag_286:\n        /* \"#utility.yul\":6602:6647   */\n      tag_200\n      jump\t// in\n    tag_285:\n        /* \"#utility.yul\":6597:6600   */\n      dup3\n        /* \"#utility.yul\":6590:6648   */\n      mstore\n        /* \"#utility.yul\":6497:6654   */\n      pop\n      pop\n      jump\t// out\n        /* \"#utility.yul\":6660:7194   */\n    tag_133:\n        /* \"#utility.yul\":6826:6829   */\n      0x00\n        /* \"#utility.yul\":6841:6916   */\n      tag_288\n        /* \"#utility.yul\":6912:6915   */\n      dup3\n        /* \"#utility.yul\":6903:6909   */\n      dup7\n        /* \"#utility.yul\":6841:6916   */\n      tag_197\n      jump\t// in\n    tag_288:\n        /* \"#utility.yul\":6941:6943   */\n      0x20\n        /* \"#utility.yul\":6936:6939   */\n      dup3\n        /* \"#utility.yul\":6932:6944   */\n      add\n        /* \"#utility.yul\":6925:6944   */\n      swap2\n      pop\n        /* \"#utility.yul\":6954:7027   */\n      tag_289\n        /* \"#utility.yul\":7023:7026   */\n      dup3\n        /* \"#utility.yul\":7014:7020   */\n      dup6\n        /* \"#utility.yul\":6954:7027   */\n      tag_199\n      jump\t// in\n    tag_289:\n        /* \"#utility.yul\":7052:7054   */\n      0x20\n        /* \"#utility.yul\":7047:7050   */\n      dup3\n        /* \"#utility.yul\":7043:7055   */\n      add\n        /* \"#utility.yul\":7036:7055   */\n      swap2\n      pop\n        /* \"#utility.yul\":7065:7140   */\n      tag_290\n        /* \"#utility.yul\":7136:7139   */\n      dup3\n        /* \"#utility.yul\":7127:7133   */\n      dup5\n        /* \"#utility.yul\":7065:7140   */\n      tag_201\n      jump\t// in\n    tag_290:\n        /* \"#utility.yul\":7165:7167   */\n      0x20\n        /* \"#utility.yul\":7160:7163   */\n      dup3\n        /* \"#utility.yul\":7156:7168   */\n      add\n        /* \"#utility.yul\":7149:7168   */\n      swap2\n      pop\n        /* \"#utility.yul\":7185:7188   */\n      dup2\n        /* \"#utility.yul\":7178:7188   */\n      swap1\n      pop\n        /* \"#utility.yul\":6660:7194   */\n      swap5\n      swap4\n      pop\n      pop\n      pop\n      pop\n      jump\t// out\n        /* \"#utility.yul\":7200:7298   */\n    tag_202:\n        /* \"#utility.yul\":7251:7257   */\n      0x00\n        /* \"#utility.yul\":7285:7290   */\n      dup2\n        /* \"#utility.yul\":7279:7291   */\n      mload\n        /* \"#utility.yul\":7269:7291   */\n      swap1\n      pop\n        /* \"#utility.yul\":7200:7298   */\n      swap2\n      swap1\n      pop\n      jump\t// out\n        /* \"#utility.yul\":7304:7451   */\n    tag_203:\n        /* \"#utility.yul\":7405:7416   */\n      0x00\n        /* \"#utility.yul\":7442:7445   */\n      dup2\n        /* \"#utility.yul\":7427:7445   */\n      swap1\n      pop\n        /* \"#utility.yul\":7304:7451   */\n      swap3\n      swap2\n      pop\n      pop\n      jump\t// out\n        /* \"#utility.yul\":7457:7764   */\n    tag_204:\n        /* \"#utility.yul\":7525:7526   */\n      0x00\n        /* \"#utility.yul\":7535:7648   */\n    tag_294:\n        /* \"#utility.yul\":7549:7555   */\n      dup4\n        /* \"#utility.yul\":7546:7547   */\n      dup2\n        /* \"#utility.yul\":7543:7556   */\n      lt\n        /* \"#utility.yul\":7535:7648   */\n      iszero\n      tag_296\n      jumpi\n        /* \"#utility.yul\":7634:7635   */\n      dup1\n        /* \"#utility.yul\":7629:7632   */\n      dup3\n        /* \"#utility.yul\":7625:7636   */\n      add\n        /* \"#utility.yul\":7619:7637   */\n      mload\n        /* \"#utility.yul\":7615:7616   */\n      dup2\n        /* \"#utility.yul\":7610:7613   */\n      dup5\n        /* \"#utility.yul\":7606:7617   */\n      add\n        /* \"#utility.yul\":7599:7638   */\n      mstore\n        /* \"#utility.yul\":7571:7573   */\n      0x20\n        /* \"#utility.yul\":7568:7569   */\n      dup2\n        /* \"#utility.yul\":7564:7574   */\n      add\n        /* \"#utility.yul\":7559:7574   */\n      swap1\n      pop\n        /* \"#utility.yul\":7535:7648   */\n      jump(tag_294)\n    tag_296:\n        /* \"#utility.yul\":7666:7672   */\n      dup4\n        /* \"#utility.yul\":7663:7664   */\n      dup2\n        /* \"#utility.yul\":7660:7673   */\n      gt\n        /* \"#utility.yul\":7657:7758   */\n      iszero\n      tag_297\n      jumpi\n        /* \"#utility.yul\":7746:7747   */\n      0x00\n        /* \"#utility.yul\":7737:7743   */\n      dup5\n        /* \"#utility.yul\":7732:7735   */\n      dup5\n        /* \"#utility.yul\":7728:7744   */\n      add\n        /* \"#utility.yul\":7721:7748   */\n      mstore\n        /* \"#utility.yul\":7657:7758   */\n    tag_297:\n        /* \"#utility.yul\":7506:7764   */\n      pop\n        /* \"#utility.yul\":7457:7764   */\n      pop\n      pop\n      pop\n      jump\t// out\n        /* \"#utility.yul\":7770:8143   */\n    tag_205:\n        /* \"#utility.yul\":7874:7877   */\n      0x00\n        /* \"#utility.yul\":7902:7940   */\n      tag_299\n        /* \"#utility.yul\":7934:7939   */\n      dup3\n        /* \"#utility.yul\":7902:7940   */\n      tag_202\n      jump\t// in\n    tag_299:\n        /* \"#utility.yul\":7956:8044   */\n      tag_300\n        /* \"#utility.yul\":8037:8043   */\n      dup2\n        /* \"#utility.yul\":8032:8035   */\n      dup6\n        /* \"#utility.yul\":7956:8044   */\n      tag_203\n      jump\t// in\n    tag_300:\n        /* \"#utility.yul\":7949:8044   */\n      swap4\n      pop\n        /* \"#utility.yul\":8053:8105   */\n      tag_301\n        /* \"#utility.yul\":8098:8104   */\n      dup2\n        /* \"#utility.yul\":8093:8096   */\n      dup6\n        /* \"#utility.yul\":8086:8090   */\n      0x20\n        /* \"#utility.yul\":8079:8084   */\n      dup7\n        /* \"#utility.yul\":8075:8091   */\n      add\n        /* \"#utility.yul\":8053:8105   */\n      tag_204\n      jump\t// in\n    tag_301:\n        /* \"#utility.yul\":8130:8136   */\n      dup1\n        /* \"#utility.yul\":8125:8128   */\n      dup5\n        /* \"#utility.yul\":8121:8137   */\n      add\n        /* \"#utility.yul\":8114:8137   */\n      swap2\n      pop\n        /* \"#utility.yul\":7878:8143   */\n      pop\n        /* \"#utility.yul\":7770:8143   */\n      swap3\n      swap2\n      pop\n      pop\n      jump\t// out\n        /* \"#utility.yul\":8149:8420   */\n    tag_135:\n        /* \"#utility.yul\":8279:8282   */\n      0x00\n        /* \"#utility.yul\":8301:8394   */\n      tag_303\n        /* \"#utility.yul\":8390:8393   */\n      dup3\n        /* \"#utility.yul\":8381:8387   */\n      dup5\n        /* \"#utility.yul\":8301:8394   */\n      tag_205\n      jump\t// in\n    tag_303:\n        /* \"#utility.yul\":8294:8394   */\n      swap2\n      pop\n        /* \"#utility.yul\":8411:8414   */\n      dup2\n        /* \"#utility.yul\":8404:8414   */\n      swap1\n      pop\n        /* \"#utility.yul\":8149:8420   */\n      swap3\n      swap2\n      pop\n      pop\n      jump\t// out\n        /* \"#utility.yul\":8426:8548   */\n    tag_206:\n        /* \"#utility.yul\":8499:8523   */\n      tag_305\n        /* \"#utility.yul\":8517:8522   */\n      dup2\n        /* \"#utility.yul\":8499:8523   */\n      tag_183\n      jump\t// in\n    tag_305:\n        /* \"#utility.yul\":8492:8497   */\n      dup2\n        /* \"#utility.yul\":8489:8524   */\n      eq\n        /* \"#utility.yul\":8479:8542   */\n      tag_306\n      jumpi\n        /* \"#utility.yul\":8538:8539   */\n      0x00\n        /* \"#utility.yul\":8535:8536   */\n      dup1\n        /* \"#utility.yul\":8528:8540   */\n      revert\n        /* \"#utility.yul\":8479:8542   */\n    tag_306:\n        /* \"#utility.yul\":8426:8548   */\n      pop\n      jump\t// out\n        /* \"#utility.yul\":8554:8697   */\n    tag_207:\n        /* \"#utility.yul\":8611:8616   */\n      0x00\n        /* \"#utility.yul\":8642:8648   */\n      dup2\n        /* \"#utility.yul\":8636:8649   */\n      mload\n        /* \"#utility.yul\":8627:8649   */\n      swap1\n      pop\n        /* \"#utility.yul\":8658:8691   */\n      tag_308\n        /* \"#utility.yul\":8685:8690   */\n      dup2\n        /* \"#utility.yul\":8658:8691   */\n      tag_206\n      jump\t// in\n    tag_308:\n        /* \"#utility.yul\":8554:8697   */\n      swap3\n      swap2\n      pop\n      pop\n      jump\t// out\n        /* \"#utility.yul\":8703:9054   */\n    tag_139:\n        /* \"#utility.yul\":8773:8779   */\n      0x00\n        /* \"#utility.yul\":8822:8824   */\n      0x20\n        /* \"#utility.yul\":8810:8819   */\n      dup3\n        /* \"#utility.yul\":8801:8808   */\n      dup5\n        /* \"#utility.yul\":8797:8820   */\n      sub\n        /* \"#utility.yul\":8793:8825   */\n      slt\n        /* \"#utility.yul\":8790:8909   */\n      iszero\n      tag_310\n      jumpi\n        /* \"#utility.yul\":8828:8907   */\n      tag_311\n      tag_173\n      jump\t// in\n    tag_311:\n        /* \"#utility.yul\":8790:8909   */\n    tag_310:\n        /* \"#utility.yul\":8948:8949   */\n      0x00\n        /* \"#utility.yul\":8973:9037   */\n      tag_312\n        /* \"#utility.yul\":9029:9036   */\n      dup5\n        /* \"#utility.yul\":9020:9026   */\n      dup3\n        /* \"#utility.yul\":9009:9018   */\n      dup6\n        /* \"#utility.yul\":9005:9027   */\n      add\n        /* \"#utility.yul\":8973:9037   */\n      tag_207\n      jump\t// in\n    tag_312:\n        /* \"#utility.yul\":8963:9037   */\n      swap2\n      pop\n        /* \"#utility.yul\":8919:9047   */\n      pop\n        /* \"#utility.yul\":8703:9054   */\n      swap3\n      swap2\n      pop\n      pop\n      jump\t// out\n        /* \"#utility.yul\":9060:9251   */\n    tag_164:\n        /* \"#utility.yul\":9100:9104   */\n      0x00\n        /* \"#utility.yul\":9120:9140   */\n      tag_314\n        /* \"#utility.yul\":9138:9139   */\n      dup3\n        /* \"#utility.yul\":9120:9140   */\n      tag_179\n      jump\t// in\n    tag_314:\n        /* \"#utility.yul\":9115:9140   */\n      swap2\n      pop\n        /* \"#utility.yul\":9154:9174   */\n      tag_315\n        /* \"#utility.yul\":9172:9173   */\n      dup4\n        /* \"#utility.yul\":9154:9174   */\n      tag_179\n      jump\t// in\n    tag_315:\n        /* \"#utility.yul\":9149:9174   */\n      swap3\n      pop\n        /* \"#utility.yul\":9193:9194   */\n      dup3\n        /* \"#utility.yul\":9190:9191   */\n      dup3\n        /* \"#utility.yul\":9187:9195   */\n      lt\n        /* \"#utility.yul\":9184:9218   */\n      iszero\n      tag_316\n      jumpi\n        /* \"#utility.yul\":9198:9216   */\n      tag_317\n      tag_195\n      jump\t// in\n    tag_317:\n        /* \"#utility.yul\":9184:9218   */\n    tag_316:\n        /* \"#utility.yul\":9243:9244   */\n      dup3\n        /* \"#utility.yul\":9240:9241   */\n      dup3\n        /* \"#utility.yul\":9236:9245   */\n      sub\n        /* \"#utility.yul\":9228:9245   */\n      swap1\n      pop\n        /* \"#utility.yul\":9060:9251   */\n      swap3\n      swap2\n      pop\n      pop\n      jump\t// out\n\n    auxdata: 0xa2646970667358221220df27752e9ab306999b96d0fe1110472ac4f52411ec880ae6c76f6cde1640d06364736f6c634300080b0033\n}\n",
				"bytecode": {
					"linkReferences": {},
					"object": "60806040526000801b6003553480156200001857600080fd5b50336000806101000a81548173ffffffffffffffffffffffffffffffffffffffff021916908373ffffffffffffffffffffffffffffffffffffffff1602179055506001600460006101000a81548160ff02191690836003811115620000825762000081620000ff565b5b02179055504360018190555060f06001546200009f919062000167565b600281905550670de0b6b3a76400006006819055506000600860003273ffffffffffffffffffffffffffffffffffffffff1673ffffffffffffffffffffffffffffffffffffffff16815260200190815260200160002081905550620001c4565b7f4e487b7100000000000000000000000000000000000000000000000000000000600052602160045260246000fd5b6000819050919050565b7f4e487b7100000000000000000000000000000000000000000000000000000000600052601160045260246000fd5b600062000174826200012e565b915062000181836200012e565b9250827fffffffffffffffffffffffffffffffffffffffffffffffffffffffffffffffff03821115620001b957620001b862000138565b5b828201905092915050565b6113ca80620001d46000396000f3fe6080604052600436106100f35760003560e01c80637fb450991161008a578063a118be0211610059578063a118be02146102e9578063ce5bd04114610314578063e07600bd1461033f578063f8b2cb4f14610356576100f3565b80637fb450991461022b5780638c6f2e821461025657806391f90157146102935780639d957d45146102be576100f3565b80635ec2c7bf116100c65780635ec2c7bf1461016d57806362ea82db1461019857806369e9c066146101d55780637eb695a114610200576100f3565b80630490cb74146100f85780631998aeef146101355780632352f3201461013f5780633fdceefd14610156575b600080fd5b34801561010457600080fd5b5061011f600480360381019061011a9190610f0e565b610393565b60405161012c9190610f54565b60405180910390f35b61013d6103ab565b005b34801561014b57600080fd5b50610154610758565b005b34801561016257600080fd5b5061016b610813565b005b34801561017957600080fd5b506101826108ce565b60405161018f9190610f90565b60405180910390f35b3480156101a457600080fd5b506101bf60048036038101906101ba9190610f0e565b6108f2565b6040516101cc9190610f54565b60405180910390f35b3480156101e157600080fd5b506101ea61090a565b6040516101f79190610fc4565b60405180910390f35b34801561020c57600080fd5b50610215610914565b6040516102229190610f54565b60405180910390f35b34801561023757600080fd5b5061024061091a565b60405161024d9190611056565b60405180910390f35b34801561026257600080fd5b5061027d600480360381019061027891906110a7565b61092d565b60405161028a9190610fc4565b60405180910390f35b34801561029f57600080fd5b506102a8610a12565b6040516102b59190610f90565b60405180910390f35b3480156102ca57600080fd5b506102d3610a38565b6040516102e09190610f54565b60405180910390f35b3480156102f557600080fd5b506102fe610a3e565b60405161030b9190610f54565b60405180910390f35b34801561032057600080fd5b50610329610a44565b6040516103369190610f54565b60405180910390f35b34801561034b57600080fd5b50610354610a4a565b005b34801561036257600080fd5b5061037d60048036038101906103789190610f0e565b610e47565b60405161038a9190610f54565b60405180910390f35b60086020528060005260406000206000915090505481565b60008054906101000a900473ffffffffffffffffffffffffffffffffffffffff1673ffffffffffffffffffffffffffffffffffffffff163373ffffffffffffffffffffffffffffffffffffffff16141561043a576040517f08c379a000000000000000000000000000000000000000000000000000000000815260040161043190611131565b60405180910390fd5b600154431161044857600080fd5b600254431061045657600080fd5b60003390506001600381111561046f5761046e610fdf565b5b600460009054906101000a900460ff16600381111561049157610490610fdf565b5b1461049b57600080fd5b670de0b6b3a76400003410156104b057600080fd5b600034600960003373ffffffffffffffffffffffffffffffffffffffff1673ffffffffffffffffffffffffffffffffffffffff168152602001908152602001600020546104fd9190611180565b9050600554811161050d57600080fd5b80600960003373ffffffffffffffffffffffffffffffffffffffff1673ffffffffffffffffffffffffffffffffffffffff1681526020019081526020016000208190555060096000600760009054906101000a900473ffffffffffffffffffffffffffffffffffffffff1673ffffffffffffffffffffffffffffffffffffffff1673ffffffffffffffffffffffffffffffffffffffff1681526020019081526020016000205481101561063d57610632600654826105cb9190611180565b60096000600760009054906101000a900473ffffffffffffffffffffffffffffffffffffffff1673ffffffffffffffffffffffffffffffffffffffff1673ffffffffffffffffffffffffffffffffffffffff16815260200190815260200160002054610e90565b6005819055506106fd565b6106b58160065460096000600760009054906101000a900473ffffffffffffffffffffffffffffffffffffffff1673ffffffffffffffffffffffffffffffffffffffff1673ffffffffffffffffffffffffffffffffffffffff168152602001908152602001600020546106b09190611180565b610e90565b60058190555033600760006101000a81548173ffffffffffffffffffffffffffffffffffffffff021916908373ffffffffffffffffffffffffffffffffffffffff1602179055505b6001600860008473ffffffffffffffffffffffffffffffffffffffff1673ffffffffffffffffffffffffffffffffffffffff168152602001908152602001600020600082825461074d9190611180565b925050819055505050565b60008054906101000a900473ffffffffffffffffffffffffffffffffffffffff1673ffffffffffffffffffffffffffffffffffffffff163373ffffffffffffffffffffffffffffffffffffffff16146107e6576040517f08c379a00000000000000000000000000000000000000000000000000000000081526004016107dd90611131565b60405180910390fd5b6003600460006101000a81548160ff0219169083600381111561080c5761080b610fdf565b5b0217905550565b60008054906101000a900473ffffffffffffffffffffffffffffffffffffffff1673ffffffffffffffffffffffffffffffffffffffff163373ffffffffffffffffffffffffffffffffffffffff16146108a1576040517f08c379a000000000000000000000000000000000000000000000000000000000815260040161089890611131565b60405180910390fd5b6002600460006101000a81548160ff021916908360038111156108c7576108c6610fdf565b5b0217905550565b60008054906101000a900473ffffffffffffffffffffffffffffffffffffffff1681565b60096020528060005260406000206000915090505481565b6000600354905090565b60055481565b600460009054906101000a900460ff1681565b6000600760009054906101000a900473ffffffffffffffffffffffffffffffffffffffff1673ffffffffffffffffffffffffffffffffffffffff163373ffffffffffffffffffffffffffffffffffffffff161461098957600080fd5b6000429050600281846003546040516020016109a793929190611239565b6040516020818303038152906040526040516109c391906112f0565b602060405180830381855afa1580156109e0573d6000803e3d6000fd5b5050506040513d601f19601f82011682018060405250810190610a039190611333565b91508160038190555050919050565b600760009054906101000a900473ffffffffffffffffffffffffffffffffffffffff1681565b60025481565b60015481565b60065481565b600380811115610a5d57610a5c610fdf565b5b600460009054906101000a900460ff166003811115610a7f57610a7e610fdf565b5b1480610abe575060026003811115610a9a57610a99610fdf565b5b600460009054906101000a900460ff166003811115610abc57610abb610fdf565b5b145b80610aca575060025443115b610ad357600080fd5b60008054906101000a900473ffffffffffffffffffffffffffffffffffffffff1673ffffffffffffffffffffffffffffffffffffffff163373ffffffffffffffffffffffffffffffffffffffff161480610b6c57506000600960003373ffffffffffffffffffffffffffffffffffffffff1673ffffffffffffffffffffffffffffffffffffffff16815260200190815260200160002054115b610b7557600080fd5b600080600380811115610b8b57610b8a610fdf565b5b600460009054906101000a900460ff166003811115610bad57610bac610fdf565b5b1415610bfd57339150600960003373ffffffffffffffffffffffffffffffffffffffff1673ffffffffffffffffffffffffffffffffffffffff168152602001908152602001600020549050610db7565b60008054906101000a900473ffffffffffffffffffffffffffffffffffffffff1673ffffffffffffffffffffffffffffffffffffffff163373ffffffffffffffffffffffffffffffffffffffff161415610c7e5760008054906101000a900473ffffffffffffffffffffffffffffffffffffffff1691506005549050610db6565b600760009054906101000a900473ffffffffffffffffffffffffffffffffffffffff1673ffffffffffffffffffffffffffffffffffffffff163373ffffffffffffffffffffffffffffffffffffffff161415610d6f57600760009054906101000a900473ffffffffffffffffffffffffffffffffffffffff16915060055460096000600760009054906101000a900473ffffffffffffffffffffffffffffffffffffffff1673ffffffffffffffffffffffffffffffffffffffff1673ffffffffffffffffffffffffffffffffffffffff16815260200190815260200160002054610d689190611360565b9050610db5565b339150600960003373ffffffffffffffffffffffffffffffffffffffff1673ffffffffffffffffffffffffffffffffffffffff1681526020019081526020016000205490505b5b5b6000600960003373ffffffffffffffffffffffffffffffffffffffff1673ffffffffffffffffffffffffffffffffffffffff168152602001908152602001600020819055508173ffffffffffffffffffffffffffffffffffffffff166108fc829081150290604051600060405180830381858888f19350505050158015610e42573d6000803e3d6000fd5b505050565b6000600860008373ffffffffffffffffffffffffffffffffffffffff1673ffffffffffffffffffffffffffffffffffffffff168152602001908152602001600020549050919050565b6000818311610ea157829050610ea5565b8190505b92915050565b600080fd5b600073ffffffffffffffffffffffffffffffffffffffff82169050919050565b6000610edb82610eb0565b9050919050565b610eeb81610ed0565b8114610ef657600080fd5b50565b600081359050610f0881610ee2565b92915050565b600060208284031215610f2457610f23610eab565b5b6000610f3284828501610ef9565b91505092915050565b6000819050919050565b610f4e81610f3b565b82525050565b6000602082019050610f696000830184610f45565b92915050565b6000610f7a82610eb0565b9050919050565b610f8a81610f6f565b82525050565b6000602082019050610fa56000830184610f81565b92915050565b6000819050919050565b610fbe81610fab565b82525050565b6000602082019050610fd96000830184610fb5565b92915050565b7f4e487b7100000000000000000000000000000000000000000000000000000000600052602160045260246000fd5b6004811061101f5761101e610fdf565b5b50565b60008190506110308261100e565b919050565b600061104082611022565b9050919050565b61105081611035565b82525050565b600060208201905061106b6000830184611047565b92915050565b6000819050919050565b61108481611071565b811461108f57600080fd5b50565b6000813590506110a18161107b565b92915050565b6000602082840312156110bd576110bc610eab565b5b60006110cb84828501611092565b91505092915050565b600082825260208201905092915050565b7f4f776e65722063616e6e6f742062696400000000000000000000000000000000600082015250565b600061111b6010836110d4565b9150611126826110e5565b602082019050919050565b6000602082019050818103600083015261114a8161110e565b9050919050565b7f4e487b7100000000000000000000000000000000000000000000000000000000600052601160045260246000fd5b600061118b82610f3b565b915061119683610f3b565b9250827fffffffffffffffffffffffffffffffffffffffffffffffffffffffffffffffff038211156111cb576111ca611151565b5b828201905092915050565b6000819050919050565b6111f16111ec82610f3b565b6111d6565b82525050565b6000819050919050565b61121261120d82611071565b6111f7565b82525050565b6000819050919050565b61123361122e82610fab565b611218565b82525050565b600061124582866111e0565b6020820191506112558285611201565b6020820191506112658284611222565b602082019150819050949350505050565b600081519050919050565b600081905092915050565b60005b838110156112aa57808201518184015260208101905061128f565b838111156112b9576000848401525b50505050565b60006112ca82611276565b6112d48185611281565b93506112e481856020860161128c565b80840191505092915050565b60006112fc82846112bf565b915081905092915050565b61131081610fab565b811461131b57600080fd5b50565b60008151905061132d81611307565b92915050565b60006020828403121561134957611348610eab565b5b60006113578482850161131e565b91505092915050565b600061136b82610f3b565b915061137683610f3b565b92508282101561138957611388611151565b5b82820390509291505056fea2646970667358221220df27752e9ab306999b96d0fe1110472ac4f52411ec880ae6c76f6cde1640d06364736f6c634300080b0033",
					"opcodes": "PUSH1 0x80 PUSH1 0x40 MSTORE PUSH1 0x0 DUP1 SHL PUSH1 0x3 SSTORE CALLVALUE DUP1 ISZERO PUSH3 0x18 JUMPI PUSH1 0x0 DUP1 REVERT JUMPDEST POP CALLER PUSH1 0x0 DUP1 PUSH2 0x100 EXP DUP2 SLOAD DUP2 PUSH20 0xFFFFFFFFFFFFFFFFFFFFFFFFFFFFFFFFFFFFFFFF MUL NOT AND SWAP1 DUP4 PUSH20 0xFFFFFFFFFFFFFFFFFFFFFFFFFFFFFFFFFFFFFFFF AND MUL OR SWAP1 SSTORE POP PUSH1 0x1 PUSH1 0x4 PUSH1 0x0 PUSH2 0x100 EXP DUP2 SLOAD DUP2 PUSH1 0xFF MUL NOT AND SWAP1 DUP4 PUSH1 0x3 DUP2 GT ISZERO PUSH3 0x82 JUMPI PUSH3 0x81 PUSH3 0xFF JUMP JUMPDEST JUMPDEST MUL OR SWAP1 SSTORE POP NUMBER PUSH1 0x1 DUP2 SWAP1 SSTORE POP PUSH1 0xF0 PUSH1 0x1 SLOAD PUSH3 0x9F SWAP2 SWAP1 PUSH3 0x167 JUMP JUMPDEST PUSH1 0x2 DUP2 SWAP1 SSTORE POP PUSH8 0xDE0B6B3A7640000 PUSH1 0x6 DUP2 SWAP1 SSTORE POP PUSH1 0x0 PUSH1 0x8 PUSH1 0x0 ORIGIN PUSH20 0xFFFFFFFFFFFFFFFFFFFFFFFFFFFFFFFFFFFFFFFF AND PUSH20 0xFFFFFFFFFFFFFFFFFFFFFFFFFFFFFFFFFFFFFFFF AND DUP2 MSTORE PUSH1 0x20 ADD SWAP1 DUP2 MSTORE PUSH1 0x20 ADD PUSH1 0x0 KECCAK256 DUP2 SWAP1 SSTORE POP PUSH3 0x1C4 JUMP JUMPDEST PUSH32 0x4E487B7100000000000000000000000000000000000000000000000000000000 PUSH1 0x0 MSTORE PUSH1 0x21 PUSH1 0x4 MSTORE PUSH1 0x24 PUSH1 0x0 REVERT JUMPDEST PUSH1 0x0 DUP2 SWAP1 POP SWAP2 SWAP1 POP JUMP JUMPDEST PUSH32 0x4E487B7100000000000000000000000000000000000000000000000000000000 PUSH1 0x0 MSTORE PUSH1 0x11 PUSH1 0x4 MSTORE PUSH1 0x24 PUSH1 0x0 REVERT JUMPDEST PUSH1 0x0 PUSH3 0x174 DUP3 PUSH3 0x12E JUMP JUMPDEST SWAP2 POP PUSH3 0x181 DUP4 PUSH3 0x12E JUMP JUMPDEST SWAP3 POP DUP3 PUSH32 0xFFFFFFFFFFFFFFFFFFFFFFFFFFFFFFFFFFFFFFFFFFFFFFFFFFFFFFFFFFFFFFFF SUB DUP3 GT ISZERO PUSH3 0x1B9 JUMPI PUSH3 0x1B8 PUSH3 0x138 JUMP JUMPDEST JUMPDEST DUP3 DUP3 ADD SWAP1 POP SWAP3 SWAP2 POP POP JUMP JUMPDEST PUSH2 0x13CA DUP1 PUSH3 0x1D4 PUSH1 0x0 CODECOPY PUSH1 0x0 RETURN INVALID PUSH1 0x80 PUSH1 0x40 MSTORE PUSH1 0x4 CALLDATASIZE LT PUSH2 0xF3 JUMPI PUSH1 0x0 CALLDATALOAD PUSH1 0xE0 SHR DUP1 PUSH4 0x7FB45099 GT PUSH2 0x8A JUMPI DUP1 PUSH4 0xA118BE02 GT PUSH2 0x59 JUMPI DUP1 PUSH4 0xA118BE02 EQ PUSH2 0x2E9 JUMPI DUP1 PUSH4 0xCE5BD041 EQ PUSH2 0x314 JUMPI DUP1 PUSH4 0xE07600BD EQ PUSH2 0x33F JUMPI DUP1 PUSH4 0xF8B2CB4F EQ PUSH2 0x356 JUMPI PUSH2 0xF3 JUMP JUMPDEST DUP1 PUSH4 0x7FB45099 EQ PUSH2 0x22B JUMPI DUP1 PUSH4 0x8C6F2E82 EQ PUSH2 0x256 JUMPI DUP1 PUSH4 0x91F90157 EQ PUSH2 0x293 JUMPI DUP1 PUSH4 0x9D957D45 EQ PUSH2 0x2BE JUMPI PUSH2 0xF3 JUMP JUMPDEST DUP1 PUSH4 0x5EC2C7BF GT PUSH2 0xC6 JUMPI DUP1 PUSH4 0x5EC2C7BF EQ PUSH2 0x16D JUMPI DUP1 PUSH4 0x62EA82DB EQ PUSH2 0x198 JUMPI DUP1 PUSH4 0x69E9C066 EQ PUSH2 0x1D5 JUMPI DUP1 PUSH4 0x7EB695A1 EQ PUSH2 0x200 JUMPI PUSH2 0xF3 JUMP JUMPDEST DUP1 PUSH4 0x490CB74 EQ PUSH2 0xF8 JUMPI DUP1 PUSH4 0x1998AEEF EQ PUSH2 0x135 JUMPI DUP1 PUSH4 0x2352F320 EQ PUSH2 0x13F JUMPI DUP1 PUSH4 0x3FDCEEFD EQ PUSH2 0x156 JUMPI JUMPDEST PUSH1 0x0 DUP1 REVERT JUMPDEST CALLVALUE DUP1 ISZERO PUSH2 0x104 JUMPI PUSH1 0x0 DUP1 REVERT JUMPDEST POP PUSH2 0x11F PUSH1 0x4 DUP1 CALLDATASIZE SUB DUP2 ADD SWAP1 PUSH2 0x11A SWAP2 SWAP1 PUSH2 0xF0E JUMP JUMPDEST PUSH2 0x393 JUMP JUMPDEST PUSH1 0x40 MLOAD PUSH2 0x12C SWAP2 SWAP1 PUSH2 0xF54 JUMP JUMPDEST PUSH1 0x40 MLOAD DUP1 SWAP2 SUB SWAP1 RETURN JUMPDEST PUSH2 0x13D PUSH2 0x3AB JUMP JUMPDEST STOP JUMPDEST CALLVALUE DUP1 ISZERO PUSH2 0x14B JUMPI PUSH1 0x0 DUP1 REVERT JUMPDEST POP PUSH2 0x154 PUSH2 0x758 JUMP JUMPDEST STOP JUMPDEST CALLVALUE DUP1 ISZERO PUSH2 0x162 JUMPI PUSH1 0x0 DUP1 REVERT JUMPDEST POP PUSH2 0x16B PUSH2 0x813 JUMP JUMPDEST STOP JUMPDEST CALLVALUE DUP1 ISZERO PUSH2 0x179 JUMPI PUSH1 0x0 DUP1 REVERT JUMPDEST POP PUSH2 0x182 PUSH2 0x8CE JUMP JUMPDEST PUSH1 0x40 MLOAD PUSH2 0x18F SWAP2 SWAP1 PUSH2 0xF90 JUMP JUMPDEST PUSH1 0x40 MLOAD DUP1 SWAP2 SUB SWAP1 RETURN JUMPDEST CALLVALUE DUP1 ISZERO PUSH2 0x1A4 JUMPI PUSH1 0x0 DUP1 REVERT JUMPDEST POP PUSH2 0x1BF PUSH1 0x4 DUP1 CALLDATASIZE SUB DUP2 ADD SWAP1 PUSH2 0x1BA SWAP2 SWAP1 PUSH2 0xF0E JUMP JUMPDEST PUSH2 0x8F2 JUMP JUMPDEST PUSH1 0x40 MLOAD PUSH2 0x1CC SWAP2 SWAP1 PUSH2 0xF54 JUMP JUMPDEST PUSH1 0x40 MLOAD DUP1 SWAP2 SUB SWAP1 RETURN JUMPDEST CALLVALUE DUP1 ISZERO PUSH2 0x1E1 JUMPI PUSH1 0x0 DUP1 REVERT JUMPDEST POP PUSH2 0x1EA PUSH2 0x90A JUMP JUMPDEST PUSH1 0x40 MLOAD PUSH2 0x1F7 SWAP2 SWAP1 PUSH2 0xFC4 JUMP JUMPDEST PUSH1 0x40 MLOAD DUP1 SWAP2 SUB SWAP1 RETURN JUMPDEST CALLVALUE DUP1 ISZERO PUSH2 0x20C JUMPI PUSH1 0x0 DUP1 REVERT JUMPDEST POP PUSH2 0x215 PUSH2 0x914 JUMP JUMPDEST PUSH1 0x40 MLOAD PUSH2 0x222 SWAP2 SWAP1 PUSH2 0xF54 JUMP JUMPDEST PUSH1 0x40 MLOAD DUP1 SWAP2 SUB SWAP1 RETURN JUMPDEST CALLVALUE DUP1 ISZERO PUSH2 0x237 JUMPI PUSH1 0x0 DUP1 REVERT JUMPDEST POP PUSH2 0x240 PUSH2 0x91A JUMP JUMPDEST PUSH1 0x40 MLOAD PUSH2 0x24D SWAP2 SWAP1 PUSH2 0x1056 JUMP JUMPDEST PUSH1 0x40 MLOAD DUP1 SWAP2 SUB SWAP1 RETURN JUMPDEST CALLVALUE DUP1 ISZERO PUSH2 0x262 JUMPI PUSH1 0x0 DUP1 REVERT JUMPDEST POP PUSH2 0x27D PUSH1 0x4 DUP1 CALLDATASIZE SUB DUP2 ADD SWAP1 PUSH2 0x278 SWAP2 SWAP1 PUSH2 0x10A7 JUMP JUMPDEST PUSH2 0x92D JUMP JUMPDEST PUSH1 0x40 MLOAD PUSH2 0x28A SWAP2 SWAP1 PUSH2 0xFC4 JUMP JUMPDEST PUSH1 0x40 MLOAD DUP1 SWAP2 SUB SWAP1 RETURN JUMPDEST CALLVALUE DUP1 ISZERO PUSH2 0x29F JUMPI PUSH1 0x0 DUP1 REVERT JUMPDEST POP PUSH2 0x2A8 PUSH2 0xA12 JUMP JUMPDEST PUSH1 0x40 MLOAD PUSH2 0x2B5 SWAP2 SWAP1 PUSH2 0xF90 JUMP JUMPDEST PUSH1 0x40 MLOAD DUP1 SWAP2 SUB SWAP1 RETURN JUMPDEST CALLVALUE DUP1 ISZERO PUSH2 0x2CA JUMPI PUSH1 0x0 DUP1 REVERT JUMPDEST POP PUSH2 0x2D3 PUSH2 0xA38 JUMP JUMPDEST PUSH1 0x40 MLOAD PUSH2 0x2E0 SWAP2 SWAP1 PUSH2 0xF54 JUMP JUMPDEST PUSH1 0x40 MLOAD DUP1 SWAP2 SUB SWAP1 RETURN JUMPDEST CALLVALUE DUP1 ISZERO PUSH2 0x2F5 JUMPI PUSH1 0x0 DUP1 REVERT JUMPDEST POP PUSH2 0x2FE PUSH2 0xA3E JUMP JUMPDEST PUSH1 0x40 MLOAD PUSH2 0x30B SWAP2 SWAP1 PUSH2 0xF54 JUMP JUMPDEST PUSH1 0x40 MLOAD DUP1 SWAP2 SUB SWAP1 RETURN JUMPDEST CALLVALUE DUP1 ISZERO PUSH2 0x320 JUMPI PUSH1 0x0 DUP1 REVERT JUMPDEST POP PUSH2 0x329 PUSH2 0xA44 JUMP JUMPDEST PUSH1 0x40 MLOAD PUSH2 0x336 SWAP2 SWAP1 PUSH2 0xF54 JUMP JUMPDEST PUSH1 0x40 MLOAD DUP1 SWAP2 SUB SWAP1 RETURN JUMPDEST CALLVALUE DUP1 ISZERO PUSH2 0x34B JUMPI PUSH1 0x0 DUP1 REVERT JUMPDEST POP PUSH2 0x354 PUSH2 0xA4A JUMP JUMPDEST STOP JUMPDEST CALLVALUE DUP1 ISZERO PUSH2 0x362 JUMPI PUSH1 0x0 DUP1 REVERT JUMPDEST POP PUSH2 0x37D PUSH1 0x4 DUP1 CALLDATASIZE SUB DUP2 ADD SWAP1 PUSH2 0x378 SWAP2 SWAP1 PUSH2 0xF0E JUMP JUMPDEST PUSH2 0xE47 JUMP JUMPDEST PUSH1 0x40 MLOAD PUSH2 0x38A SWAP2 SWAP1 PUSH2 0xF54 JUMP JUMPDEST PUSH1 0x40 MLOAD DUP1 SWAP2 SUB SWAP1 RETURN JUMPDEST PUSH1 0x8 PUSH1 0x20 MSTORE DUP1 PUSH1 0x0 MSTORE PUSH1 0x40 PUSH1 0x0 KECCAK256 PUSH1 0x0 SWAP2 POP SWAP1 POP SLOAD DUP2 JUMP JUMPDEST PUSH1 0x0 DUP1 SLOAD SWAP1 PUSH2 0x100 EXP SWAP1 DIV PUSH20 0xFFFFFFFFFFFFFFFFFFFFFFFFFFFFFFFFFFFFFFFF AND PUSH20 0xFFFFFFFFFFFFFFFFFFFFFFFFFFFFFFFFFFFFFFFF AND CALLER PUSH20 0xFFFFFFFFFFFFFFFFFFFFFFFFFFFFFFFFFFFFFFFF AND EQ ISZERO PUSH2 0x43A JUMPI PUSH1 0x40 MLOAD PUSH32 0x8C379A000000000000000000000000000000000000000000000000000000000 DUP2 MSTORE PUSH1 0x4 ADD PUSH2 0x431 SWAP1 PUSH2 0x1131 JUMP JUMPDEST PUSH1 0x40 MLOAD DUP1 SWAP2 SUB SWAP1 REVERT JUMPDEST PUSH1 0x1 SLOAD NUMBER GT PUSH2 0x448 JUMPI PUSH1 0x0 DUP1 REVERT JUMPDEST PUSH1 0x2 SLOAD NUMBER LT PUSH2 0x456 JUMPI PUSH1 0x0 DUP1 REVERT JUMPDEST PUSH1 0x0 CALLER SWAP1 POP PUSH1 0x1 PUSH1 0x3 DUP2 GT ISZERO PUSH2 0x46F JUMPI PUSH2 0x46E PUSH2 0xFDF JUMP JUMPDEST JUMPDEST PUSH1 0x4 PUSH1 0x0 SWAP1 SLOAD SWAP1 PUSH2 0x100 EXP SWAP1 DIV PUSH1 0xFF AND PUSH1 0x3 DUP2 GT ISZERO PUSH2 0x491 JUMPI PUSH2 0x490 PUSH2 0xFDF JUMP JUMPDEST JUMPDEST EQ PUSH2 0x49B JUMPI PUSH1 0x0 DUP1 REVERT JUMPDEST PUSH8 0xDE0B6B3A7640000 CALLVALUE LT ISZERO PUSH2 0x4B0 JUMPI PUSH1 0x0 DUP1 REVERT JUMPDEST PUSH1 0x0 CALLVALUE PUSH1 0x9 PUSH1 0x0 CALLER PUSH20 0xFFFFFFFFFFFFFFFFFFFFFFFFFFFFFFFFFFFFFFFF AND PUSH20 0xFFFFFFFFFFFFFFFFFFFFFFFFFFFFFFFFFFFFFFFF AND DUP2 MSTORE PUSH1 0x20 ADD SWAP1 DUP2 MSTORE PUSH1 0x20 ADD PUSH1 0x0 KECCAK256 SLOAD PUSH2 0x4FD SWAP2 SWAP1 PUSH2 0x1180 JUMP JUMPDEST SWAP1 POP PUSH1 0x5 SLOAD DUP2 GT PUSH2 0x50D JUMPI PUSH1 0x0 DUP1 REVERT JUMPDEST DUP1 PUSH1 0x9 PUSH1 0x0 CALLER PUSH20 0xFFFFFFFFFFFFFFFFFFFFFFFFFFFFFFFFFFFFFFFF AND PUSH20 0xFFFFFFFFFFFFFFFFFFFFFFFFFFFFFFFFFFFFFFFF AND DUP2 MSTORE PUSH1 0x20 ADD SWAP1 DUP2 MSTORE PUSH1 0x20 ADD PUSH1 0x0 KECCAK256 DUP2 SWAP1 SSTORE POP PUSH1 0x9 PUSH1 0x0 PUSH1 0x7 PUSH1 0x0 SWAP1 SLOAD SWAP1 PUSH2 0x100 EXP SWAP1 DIV PUSH20 0xFFFFFFFFFFFFFFFFFFFFFFFFFFFFFFFFFFFFFFFF AND PUSH20 0xFFFFFFFFFFFFFFFFFFFFFFFFFFFFFFFFFFFFFFFF AND PUSH20 0xFFFFFFFFFFFFFFFFFFFFFFFFFFFFFFFFFFFFFFFF AND DUP2 MSTORE PUSH1 0x20 ADD SWAP1 DUP2 MSTORE PUSH1 0x20 ADD PUSH1 0x0 KECCAK256 SLOAD DUP2 LT ISZERO PUSH2 0x63D JUMPI PUSH2 0x632 PUSH1 0x6 SLOAD DUP3 PUSH2 0x5CB SWAP2 SWAP1 PUSH2 0x1180 JUMP JUMPDEST PUSH1 0x9 PUSH1 0x0 PUSH1 0x7 PUSH1 0x0 SWAP1 SLOAD SWAP1 PUSH2 0x100 EXP SWAP1 DIV PUSH20 0xFFFFFFFFFFFFFFFFFFFFFFFFFFFFFFFFFFFFFFFF AND PUSH20 0xFFFFFFFFFFFFFFFFFFFFFFFFFFFFFFFFFFFFFFFF AND PUSH20 0xFFFFFFFFFFFFFFFFFFFFFFFFFFFFFFFFFFFFFFFF AND DUP2 MSTORE PUSH1 0x20 ADD SWAP1 DUP2 MSTORE PUSH1 0x20 ADD PUSH1 0x0 KECCAK256 SLOAD PUSH2 0xE90 JUMP JUMPDEST PUSH1 0x5 DUP2 SWAP1 SSTORE POP PUSH2 0x6FD JUMP JUMPDEST PUSH2 0x6B5 DUP2 PUSH1 0x6 SLOAD PUSH1 0x9 PUSH1 0x0 PUSH1 0x7 PUSH1 0x0 SWAP1 SLOAD SWAP1 PUSH2 0x100 EXP SWAP1 DIV PUSH20 0xFFFFFFFFFFFFFFFFFFFFFFFFFFFFFFFFFFFFFFFF AND PUSH20 0xFFFFFFFFFFFFFFFFFFFFFFFFFFFFFFFFFFFFFFFF AND PUSH20 0xFFFFFFFFFFFFFFFFFFFFFFFFFFFFFFFFFFFFFFFF AND DUP2 MSTORE PUSH1 0x20 ADD SWAP1 DUP2 MSTORE PUSH1 0x20 ADD PUSH1 0x0 KECCAK256 SLOAD PUSH2 0x6B0 SWAP2 SWAP1 PUSH2 0x1180 JUMP JUMPDEST PUSH2 0xE90 JUMP JUMPDEST PUSH1 0x5 DUP2 SWAP1 SSTORE POP CALLER PUSH1 0x7 PUSH1 0x0 PUSH2 0x100 EXP DUP2 SLOAD DUP2 PUSH20 0xFFFFFFFFFFFFFFFFFFFFFFFFFFFFFFFFFFFFFFFF MUL NOT AND SWAP1 DUP4 PUSH20 0xFFFFFFFFFFFFFFFFFFFFFFFFFFFFFFFFFFFFFFFF AND MUL OR SWAP1 SSTORE POP JUMPDEST PUSH1 0x1 PUSH1 0x8 PUSH1 0x0 DUP5 PUSH20 0xFFFFFFFFFFFFFFFFFFFFFFFFFFFFFFFFFFFFFFFF AND PUSH20 0xFFFFFFFFFFFFFFFFFFFFFFFFFFFFFFFFFFFFFFFF AND DUP2 MSTORE PUSH1 0x20 ADD SWAP1 DUP2 MSTORE PUSH1 0x20 ADD PUSH1 0x0 KECCAK256 PUSH1 0x0 DUP3 DUP3 SLOAD PUSH2 0x74D SWAP2 SWAP1 PUSH2 0x1180 JUMP JUMPDEST SWAP3 POP POP DUP2 SWAP1 SSTORE POP POP POP JUMP JUMPDEST PUSH1 0x0 DUP1 SLOAD SWAP1 PUSH2 0x100 EXP SWAP1 DIV PUSH20 0xFFFFFFFFFFFFFFFFFFFFFFFFFFFFFFFFFFFFFFFF AND PUSH20 0xFFFFFFFFFFFFFFFFFFFFFFFFFFFFFFFFFFFFFFFF AND CALLER PUSH20 0xFFFFFFFFFFFFFFFFFFFFFFFFFFFFFFFFFFFFFFFF AND EQ PUSH2 0x7E6 JUMPI PUSH1 0x40 MLOAD PUSH32 0x8C379A000000000000000000000000000000000000000000000000000000000 DUP2 MSTORE PUSH1 0x4 ADD PUSH2 0x7DD SWAP1 PUSH2 0x1131 JUMP JUMPDEST PUSH1 0x40 MLOAD DUP1 SWAP2 SUB SWAP1 REVERT JUMPDEST PUSH1 0x3 PUSH1 0x4 PUSH1 0x0 PUSH2 0x100 EXP DUP2 SLOAD DUP2 PUSH1 0xFF MUL NOT AND SWAP1 DUP4 PUSH1 0x3 DUP2 GT ISZERO PUSH2 0x80C JUMPI PUSH2 0x80B PUSH2 0xFDF JUMP JUMPDEST JUMPDEST MUL OR SWAP1 SSTORE POP JUMP JUMPDEST PUSH1 0x0 DUP1 SLOAD SWAP1 PUSH2 0x100 EXP SWAP1 DIV PUSH20 0xFFFFFFFFFFFFFFFFFFFFFFFFFFFFFFFFFFFFFFFF AND PUSH20 0xFFFFFFFFFFFFFFFFFFFFFFFFFFFFFFFFFFFFFFFF AND CALLER PUSH20 0xFFFFFFFFFFFFFFFFFFFFFFFFFFFFFFFFFFFFFFFF AND EQ PUSH2 0x8A1 JUMPI PUSH1 0x40 MLOAD PUSH32 0x8C379A000000000000000000000000000000000000000000000000000000000 DUP2 MSTORE PUSH1 0x4 ADD PUSH2 0x898 SWAP1 PUSH2 0x1131 JUMP JUMPDEST PUSH1 0x40 MLOAD DUP1 SWAP2 SUB SWAP1 REVERT JUMPDEST PUSH1 0x2 PUSH1 0x4 PUSH1 0x0 PUSH2 0x100 EXP DUP2 SLOAD DUP2 PUSH1 0xFF MUL NOT AND SWAP1 DUP4 PUSH1 0x3 DUP2 GT ISZERO PUSH2 0x8C7 JUMPI PUSH2 0x8C6 PUSH2 0xFDF JUMP JUMPDEST JUMPDEST MUL OR SWAP1 SSTORE POP JUMP JUMPDEST PUSH1 0x0 DUP1 SLOAD SWAP1 PUSH2 0x100 EXP SWAP1 DIV PUSH20 0xFFFFFFFFFFFFFFFFFFFFFFFFFFFFFFFFFFFFFFFF AND DUP2 JUMP JUMPDEST PUSH1 0x9 PUSH1 0x20 MSTORE DUP1 PUSH1 0x0 MSTORE PUSH1 0x40 PUSH1 0x0 KECCAK256 PUSH1 0x0 SWAP2 POP SWAP1 POP SLOAD DUP2 JUMP JUMPDEST PUSH1 0x0 PUSH1 0x3 SLOAD SWAP1 POP SWAP1 JUMP JUMPDEST PUSH1 0x5 SLOAD DUP2 JUMP JUMPDEST PUSH1 0x4 PUSH1 0x0 SWAP1 SLOAD SWAP1 PUSH2 0x100 EXP SWAP1 DIV PUSH1 0xFF AND DUP2 JUMP JUMPDEST PUSH1 0x0 PUSH1 0x7 PUSH1 0x0 SWAP1 SLOAD SWAP1 PUSH2 0x100 EXP SWAP1 DIV PUSH20 0xFFFFFFFFFFFFFFFFFFFFFFFFFFFFFFFFFFFFFFFF AND PUSH20 0xFFFFFFFFFFFFFFFFFFFFFFFFFFFFFFFFFFFFFFFF AND CALLER PUSH20 0xFFFFFFFFFFFFFFFFFFFFFFFFFFFFFFFFFFFFFFFF AND EQ PUSH2 0x989 JUMPI PUSH1 0x0 DUP1 REVERT JUMPDEST PUSH1 0x0 TIMESTAMP SWAP1 POP PUSH1 0x2 DUP2 DUP5 PUSH1 0x3 SLOAD PUSH1 0x40 MLOAD PUSH1 0x20 ADD PUSH2 0x9A7 SWAP4 SWAP3 SWAP2 SWAP1 PUSH2 0x1239 JUMP JUMPDEST PUSH1 0x40 MLOAD PUSH1 0x20 DUP2 DUP4 SUB SUB DUP2 MSTORE SWAP1 PUSH1 0x40 MSTORE PUSH1 0x40 MLOAD PUSH2 0x9C3 SWAP2 SWAP1 PUSH2 0x12F0 JUMP JUMPDEST PUSH1 0x20 PUSH1 0x40 MLOAD DUP1 DUP4 SUB DUP2 DUP6 GAS STATICCALL ISZERO DUP1 ISZERO PUSH2 0x9E0 JUMPI RETURNDATASIZE PUSH1 0x0 DUP1 RETURNDATACOPY RETURNDATASIZE PUSH1 0x0 REVERT JUMPDEST POP POP POP PUSH1 0x40 MLOAD RETURNDATASIZE PUSH1 0x1F NOT PUSH1 0x1F DUP3 ADD AND DUP3 ADD DUP1 PUSH1 0x40 MSTORE POP DUP2 ADD SWAP1 PUSH2 0xA03 SWAP2 SWAP1 PUSH2 0x1333 JUMP JUMPDEST SWAP2 POP DUP2 PUSH1 0x3 DUP2 SWAP1 SSTORE POP POP SWAP2 SWAP1 POP JUMP JUMPDEST PUSH1 0x7 PUSH1 0x0 SWAP1 SLOAD SWAP1 PUSH2 0x100 EXP SWAP1 DIV PUSH20 0xFFFFFFFFFFFFFFFFFFFFFFFFFFFFFFFFFFFFFFFF AND DUP2 JUMP JUMPDEST PUSH1 0x2 SLOAD DUP2 JUMP JUMPDEST PUSH1 0x1 SLOAD DUP2 JUMP JUMPDEST PUSH1 0x6 SLOAD DUP2 JUMP JUMPDEST PUSH1 0x3 DUP1 DUP2 GT ISZERO PUSH2 0xA5D JUMPI PUSH2 0xA5C PUSH2 0xFDF JUMP JUMPDEST JUMPDEST PUSH1 0x4 PUSH1 0x0 SWAP1 SLOAD SWAP1 PUSH2 0x100 EXP SWAP1 DIV PUSH1 0xFF AND PUSH1 0x3 DUP2 GT ISZERO PUSH2 0xA7F JUMPI PUSH2 0xA7E PUSH2 0xFDF JUMP JUMPDEST JUMPDEST EQ DUP1 PUSH2 0xABE JUMPI POP PUSH1 0x2 PUSH1 0x3 DUP2 GT ISZERO PUSH2 0xA9A JUMPI PUSH2 0xA99 PUSH2 0xFDF JUMP JUMPDEST JUMPDEST PUSH1 0x4 PUSH1 0x0 SWAP1 SLOAD SWAP1 PUSH2 0x100 EXP SWAP1 DIV PUSH1 0xFF AND PUSH1 0x3 DUP2 GT ISZERO PUSH2 0xABC JUMPI PUSH2 0xABB PUSH2 0xFDF JUMP JUMPDEST JUMPDEST EQ JUMPDEST DUP1 PUSH2 0xACA JUMPI POP PUSH1 0x2 SLOAD NUMBER GT JUMPDEST PUSH2 0xAD3 JUMPI PUSH1 0x0 DUP1 REVERT JUMPDEST PUSH1 0x0 DUP1 SLOAD SWAP1 PUSH2 0x100 EXP SWAP1 DIV PUSH20 0xFFFFFFFFFFFFFFFFFFFFFFFFFFFFFFFFFFFFFFFF AND PUSH20 0xFFFFFFFFFFFFFFFFFFFFFFFFFFFFFFFFFFFFFFFF AND CALLER PUSH20 0xFFFFFFFFFFFFFFFFFFFFFFFFFFFFFFFFFFFFFFFF AND EQ DUP1 PUSH2 0xB6C JUMPI POP PUSH1 0x0 PUSH1 0x9 PUSH1 0x0 CALLER PUSH20 0xFFFFFFFFFFFFFFFFFFFFFFFFFFFFFFFFFFFFFFFF AND PUSH20 0xFFFFFFFFFFFFFFFFFFFFFFFFFFFFFFFFFFFFFFFF AND DUP2 MSTORE PUSH1 0x20 ADD SWAP1 DUP2 MSTORE PUSH1 0x20 ADD PUSH1 0x0 KECCAK256 SLOAD GT JUMPDEST PUSH2 0xB75 JUMPI PUSH1 0x0 DUP1 REVERT JUMPDEST PUSH1 0x0 DUP1 PUSH1 0x3 DUP1 DUP2 GT ISZERO PUSH2 0xB8B JUMPI PUSH2 0xB8A PUSH2 0xFDF JUMP JUMPDEST JUMPDEST PUSH1 0x4 PUSH1 0x0 SWAP1 SLOAD SWAP1 PUSH2 0x100 EXP SWAP1 DIV PUSH1 0xFF AND PUSH1 0x3 DUP2 GT ISZERO PUSH2 0xBAD JUMPI PUSH2 0xBAC PUSH2 0xFDF JUMP JUMPDEST JUMPDEST EQ ISZERO PUSH2 0xBFD JUMPI CALLER SWAP2 POP PUSH1 0x9 PUSH1 0x0 CALLER PUSH20 0xFFFFFFFFFFFFFFFFFFFFFFFFFFFFFFFFFFFFFFFF AND PUSH20 0xFFFFFFFFFFFFFFFFFFFFFFFFFFFFFFFFFFFFFFFF AND DUP2 MSTORE PUSH1 0x20 ADD SWAP1 DUP2 MSTORE PUSH1 0x20 ADD PUSH1 0x0 KECCAK256 SLOAD SWAP1 POP PUSH2 0xDB7 JUMP JUMPDEST PUSH1 0x0 DUP1 SLOAD SWAP1 PUSH2 0x100 EXP SWAP1 DIV PUSH20 0xFFFFFFFFFFFFFFFFFFFFFFFFFFFFFFFFFFFFFFFF AND PUSH20 0xFFFFFFFFFFFFFFFFFFFFFFFFFFFFFFFFFFFFFFFF AND CALLER PUSH20 0xFFFFFFFFFFFFFFFFFFFFFFFFFFFFFFFFFFFFFFFF AND EQ ISZERO PUSH2 0xC7E JUMPI PUSH1 0x0 DUP1 SLOAD SWAP1 PUSH2 0x100 EXP SWAP1 DIV PUSH20 0xFFFFFFFFFFFFFFFFFFFFFFFFFFFFFFFFFFFFFFFF AND SWAP2 POP PUSH1 0x5 SLOAD SWAP1 POP PUSH2 0xDB6 JUMP JUMPDEST PUSH1 0x7 PUSH1 0x0 SWAP1 SLOAD SWAP1 PUSH2 0x100 EXP SWAP1 DIV PUSH20 0xFFFFFFFFFFFFFFFFFFFFFFFFFFFFFFFFFFFFFFFF AND PUSH20 0xFFFFFFFFFFFFFFFFFFFFFFFFFFFFFFFFFFFFFFFF AND CALLER PUSH20 0xFFFFFFFFFFFFFFFFFFFFFFFFFFFFFFFFFFFFFFFF AND EQ ISZERO PUSH2 0xD6F JUMPI PUSH1 0x7 PUSH1 0x0 SWAP1 SLOAD SWAP1 PUSH2 0x100 EXP SWAP1 DIV PUSH20 0xFFFFFFFFFFFFFFFFFFFFFFFFFFFFFFFFFFFFFFFF AND SWAP2 POP PUSH1 0x5 SLOAD PUSH1 0x9 PUSH1 0x0 PUSH1 0x7 PUSH1 0x0 SWAP1 SLOAD SWAP1 PUSH2 0x100 EXP SWAP1 DIV PUSH20 0xFFFFFFFFFFFFFFFFFFFFFFFFFFFFFFFFFFFFFFFF AND PUSH20 0xFFFFFFFFFFFFFFFFFFFFFFFFFFFFFFFFFFFFFFFF AND PUSH20 0xFFFFFFFFFFFFFFFFFFFFFFFFFFFFFFFFFFFFFFFF AND DUP2 MSTORE PUSH1 0x20 ADD SWAP1 DUP2 MSTORE PUSH1 0x20 ADD PUSH1 0x0 KECCAK256 SLOAD PUSH2 0xD68 SWAP2 SWAP1 PUSH2 0x1360 JUMP JUMPDEST SWAP1 POP PUSH2 0xDB5 JUMP JUMPDEST CALLER SWAP2 POP PUSH1 0x9 PUSH1 0x0 CALLER PUSH20 0xFFFFFFFFFFFFFFFFFFFFFFFFFFFFFFFFFFFFFFFF AND PUSH20 0xFFFFFFFFFFFFFFFFFFFFFFFFFFFFFFFFFFFFFFFF AND DUP2 MSTORE PUSH1 0x20 ADD SWAP1 DUP2 MSTORE PUSH1 0x20 ADD PUSH1 0x0 KECCAK256 SLOAD SWAP1 POP JUMPDEST JUMPDEST JUMPDEST PUSH1 0x0 PUSH1 0x9 PUSH1 0x0 CALLER PUSH20 0xFFFFFFFFFFFFFFFFFFFFFFFFFFFFFFFFFFFFFFFF AND PUSH20 0xFFFFFFFFFFFFFFFFFFFFFFFFFFFFFFFFFFFFFFFF AND DUP2 MSTORE PUSH1 0x20 ADD SWAP1 DUP2 MSTORE PUSH1 0x20 ADD PUSH1 0x0 KECCAK256 DUP2 SWAP1 SSTORE POP DUP2 PUSH20 0xFFFFFFFFFFFFFFFFFFFFFFFFFFFFFFFFFFFFFFFF AND PUSH2 0x8FC DUP3 SWAP1 DUP2 ISZERO MUL SWAP1 PUSH1 0x40 MLOAD PUSH1 0x0 PUSH1 0x40 MLOAD DUP1 DUP4 SUB DUP2 DUP6 DUP9 DUP9 CALL SWAP4 POP POP POP POP ISZERO DUP1 ISZERO PUSH2 0xE42 JUMPI RETURNDATASIZE PUSH1 0x0 DUP1 RETURNDATACOPY RETURNDATASIZE PUSH1 0x0 REVERT JUMPDEST POP POP POP JUMP JUMPDEST PUSH1 0x0 PUSH1 0x8 PUSH1 0x0 DUP4 PUSH20 0xFFFFFFFFFFFFFFFFFFFFFFFFFFFFFFFFFFFFFFFF AND PUSH20 0xFFFFFFFFFFFFFFFFFFFFFFFFFFFFFFFFFFFFFFFF AND DUP2 MSTORE PUSH1 0x20 ADD SWAP1 DUP2 MSTORE PUSH1 0x20 ADD PUSH1 0x0 KECCAK256 SLOAD SWAP1 POP SWAP2 SWAP1 POP JUMP JUMPDEST PUSH1 0x0 DUP2 DUP4 GT PUSH2 0xEA1 JUMPI DUP3 SWAP1 POP PUSH2 0xEA5 JUMP JUMPDEST DUP2 SWAP1 POP JUMPDEST SWAP3 SWAP2 POP POP JUMP JUMPDEST PUSH1 0x0 DUP1 REVERT JUMPDEST PUSH1 0x0 PUSH20 0xFFFFFFFFFFFFFFFFFFFFFFFFFFFFFFFFFFFFFFFF DUP3 AND SWAP1 POP SWAP2 SWAP1 POP JUMP JUMPDEST PUSH1 0x0 PUSH2 0xEDB DUP3 PUSH2 0xEB0 JUMP JUMPDEST SWAP1 POP SWAP2 SWAP1 POP JUMP JUMPDEST PUSH2 0xEEB DUP2 PUSH2 0xED0 JUMP JUMPDEST DUP2 EQ PUSH2 0xEF6 JUMPI PUSH1 0x0 DUP1 REVERT JUMPDEST POP JUMP JUMPDEST PUSH1 0x0 DUP2 CALLDATALOAD SWAP1 POP PUSH2 0xF08 DUP2 PUSH2 0xEE2 JUMP JUMPDEST SWAP3 SWAP2 POP POP JUMP JUMPDEST PUSH1 0x0 PUSH1 0x20 DUP3 DUP5 SUB SLT ISZERO PUSH2 0xF24 JUMPI PUSH2 0xF23 PUSH2 0xEAB JUMP JUMPDEST JUMPDEST PUSH1 0x0 PUSH2 0xF32 DUP5 DUP3 DUP6 ADD PUSH2 0xEF9 JUMP JUMPDEST SWAP2 POP POP SWAP3 SWAP2 POP POP JUMP JUMPDEST PUSH1 0x0 DUP2 SWAP1 POP SWAP2 SWAP1 POP JUMP JUMPDEST PUSH2 0xF4E DUP2 PUSH2 0xF3B JUMP JUMPDEST DUP3 MSTORE POP POP JUMP JUMPDEST PUSH1 0x0 PUSH1 0x20 DUP3 ADD SWAP1 POP PUSH2 0xF69 PUSH1 0x0 DUP4 ADD DUP5 PUSH2 0xF45 JUMP JUMPDEST SWAP3 SWAP2 POP POP JUMP JUMPDEST PUSH1 0x0 PUSH2 0xF7A DUP3 PUSH2 0xEB0 JUMP JUMPDEST SWAP1 POP SWAP2 SWAP1 POP JUMP JUMPDEST PUSH2 0xF8A DUP2 PUSH2 0xF6F JUMP JUMPDEST DUP3 MSTORE POP POP JUMP JUMPDEST PUSH1 0x0 PUSH1 0x20 DUP3 ADD SWAP1 POP PUSH2 0xFA5 PUSH1 0x0 DUP4 ADD DUP5 PUSH2 0xF81 JUMP JUMPDEST SWAP3 SWAP2 POP POP JUMP JUMPDEST PUSH1 0x0 DUP2 SWAP1 POP SWAP2 SWAP1 POP JUMP JUMPDEST PUSH2 0xFBE DUP2 PUSH2 0xFAB JUMP JUMPDEST DUP3 MSTORE POP POP JUMP JUMPDEST PUSH1 0x0 PUSH1 0x20 DUP3 ADD SWAP1 POP PUSH2 0xFD9 PUSH1 0x0 DUP4 ADD DUP5 PUSH2 0xFB5 JUMP JUMPDEST SWAP3 SWAP2 POP POP JUMP JUMPDEST PUSH32 0x4E487B7100000000000000000000000000000000000000000000000000000000 PUSH1 0x0 MSTORE PUSH1 0x21 PUSH1 0x4 MSTORE PUSH1 0x24 PUSH1 0x0 REVERT JUMPDEST PUSH1 0x4 DUP2 LT PUSH2 0x101F JUMPI PUSH2 0x101E PUSH2 0xFDF JUMP JUMPDEST JUMPDEST POP JUMP JUMPDEST PUSH1 0x0 DUP2 SWAP1 POP PUSH2 0x1030 DUP3 PUSH2 0x100E JUMP JUMPDEST SWAP2 SWAP1 POP JUMP JUMPDEST PUSH1 0x0 PUSH2 0x1040 DUP3 PUSH2 0x1022 JUMP JUMPDEST SWAP1 POP SWAP2 SWAP1 POP JUMP JUMPDEST PUSH2 0x1050 DUP2 PUSH2 0x1035 JUMP JUMPDEST DUP3 MSTORE POP POP JUMP JUMPDEST PUSH1 0x0 PUSH1 0x20 DUP3 ADD SWAP1 POP PUSH2 0x106B PUSH1 0x0 DUP4 ADD DUP5 PUSH2 0x1047 JUMP JUMPDEST SWAP3 SWAP2 POP POP JUMP JUMPDEST PUSH1 0x0 DUP2 SWAP1 POP SWAP2 SWAP1 POP JUMP JUMPDEST PUSH2 0x1084 DUP2 PUSH2 0x1071 JUMP JUMPDEST DUP2 EQ PUSH2 0x108F JUMPI PUSH1 0x0 DUP1 REVERT JUMPDEST POP JUMP JUMPDEST PUSH1 0x0 DUP2 CALLDATALOAD SWAP1 POP PUSH2 0x10A1 DUP2 PUSH2 0x107B JUMP JUMPDEST SWAP3 SWAP2 POP POP JUMP JUMPDEST PUSH1 0x0 PUSH1 0x20 DUP3 DUP5 SUB SLT ISZERO PUSH2 0x10BD JUMPI PUSH2 0x10BC PUSH2 0xEAB JUMP JUMPDEST JUMPDEST PUSH1 0x0 PUSH2 0x10CB DUP5 DUP3 DUP6 ADD PUSH2 0x1092 JUMP JUMPDEST SWAP2 POP POP SWAP3 SWAP2 POP POP JUMP JUMPDEST PUSH1 0x0 DUP3 DUP3 MSTORE PUSH1 0x20 DUP3 ADD SWAP1 POP SWAP3 SWAP2 POP POP JUMP JUMPDEST PUSH32 0x4F776E65722063616E6E6F742062696400000000000000000000000000000000 PUSH1 0x0 DUP3 ADD MSTORE POP JUMP JUMPDEST PUSH1 0x0 PUSH2 0x111B PUSH1 0x10 DUP4 PUSH2 0x10D4 JUMP JUMPDEST SWAP2 POP PUSH2 0x1126 DUP3 PUSH2 0x10E5 JUMP JUMPDEST PUSH1 0x20 DUP3 ADD SWAP1 POP SWAP2 SWAP1 POP JUMP JUMPDEST PUSH1 0x0 PUSH1 0x20 DUP3 ADD SWAP1 POP DUP2 DUP2 SUB PUSH1 0x0 DUP4 ADD MSTORE PUSH2 0x114A DUP2 PUSH2 0x110E JUMP JUMPDEST SWAP1 POP SWAP2 SWAP1 POP JUMP JUMPDEST PUSH32 0x4E487B7100000000000000000000000000000000000000000000000000000000 PUSH1 0x0 MSTORE PUSH1 0x11 PUSH1 0x4 MSTORE PUSH1 0x24 PUSH1 0x0 REVERT JUMPDEST PUSH1 0x0 PUSH2 0x118B DUP3 PUSH2 0xF3B JUMP JUMPDEST SWAP2 POP PUSH2 0x1196 DUP4 PUSH2 0xF3B JUMP JUMPDEST SWAP3 POP DUP3 PUSH32 0xFFFFFFFFFFFFFFFFFFFFFFFFFFFFFFFFFFFFFFFFFFFFFFFFFFFFFFFFFFFFFFFF SUB DUP3 GT ISZERO PUSH2 0x11CB JUMPI PUSH2 0x11CA PUSH2 0x1151 JUMP JUMPDEST JUMPDEST DUP3 DUP3 ADD SWAP1 POP SWAP3 SWAP2 POP POP JUMP JUMPDEST PUSH1 0x0 DUP2 SWAP1 POP SWAP2 SWAP1 POP JUMP JUMPDEST PUSH2 0x11F1 PUSH2 0x11EC DUP3 PUSH2 0xF3B JUMP JUMPDEST PUSH2 0x11D6 JUMP JUMPDEST DUP3 MSTORE POP POP JUMP JUMPDEST PUSH1 0x0 DUP2 SWAP1 POP SWAP2 SWAP1 POP JUMP JUMPDEST PUSH2 0x1212 PUSH2 0x120D DUP3 PUSH2 0x1071 JUMP JUMPDEST PUSH2 0x11F7 JUMP JUMPDEST DUP3 MSTORE POP POP JUMP JUMPDEST PUSH1 0x0 DUP2 SWAP1 POP SWAP2 SWAP1 POP JUMP JUMPDEST PUSH2 0x1233 PUSH2 0x122E DUP3 PUSH2 0xFAB JUMP JUMPDEST PUSH2 0x1218 JUMP JUMPDEST DUP3 MSTORE POP POP JUMP JUMPDEST PUSH1 0x0 PUSH2 0x1245 DUP3 DUP7 PUSH2 0x11E0 JUMP JUMPDEST PUSH1 0x20 DUP3 ADD SWAP2 POP PUSH2 0x1255 DUP3 DUP6 PUSH2 0x1201 JUMP JUMPDEST PUSH1 0x20 DUP3 ADD SWAP2 POP PUSH2 0x1265 DUP3 DUP5 PUSH2 0x1222 JUMP JUMPDEST PUSH1 0x20 DUP3 ADD SWAP2 POP DUP2 SWAP1 POP SWAP5 SWAP4 POP POP POP POP JUMP JUMPDEST PUSH1 0x0 DUP2 MLOAD SWAP1 POP SWAP2 SWAP1 POP JUMP JUMPDEST PUSH1 0x0 DUP2 SWAP1 POP SWAP3 SWAP2 POP POP JUMP JUMPDEST PUSH1 0x0 JUMPDEST DUP4 DUP2 LT ISZERO PUSH2 0x12AA JUMPI DUP1 DUP3 ADD MLOAD DUP2 DUP5 ADD MSTORE PUSH1 0x20 DUP2 ADD SWAP1 POP PUSH2 0x128F JUMP JUMPDEST DUP4 DUP2 GT ISZERO PUSH2 0x12B9 JUMPI PUSH1 0x0 DUP5 DUP5 ADD MSTORE JUMPDEST POP POP POP POP JUMP JUMPDEST PUSH1 0x0 PUSH2 0x12CA DUP3 PUSH2 0x1276 JUMP JUMPDEST PUSH2 0x12D4 DUP2 DUP6 PUSH2 0x1281 JUMP JUMPDEST SWAP4 POP PUSH2 0x12E4 DUP2 DUP6 PUSH1 0x20 DUP7 ADD PUSH2 0x128C JUMP JUMPDEST DUP1 DUP5 ADD SWAP2 POP POP SWAP3 SWAP2 POP POP JUMP JUMPDEST PUSH1 0x0 PUSH2 0x12FC DUP3 DUP5 PUSH2 0x12BF JUMP JUMPDEST SWAP2 POP DUP2 SWAP1 POP SWAP3 SWAP2 POP POP JUMP JUMPDEST PUSH2 0x1310 DUP2 PUSH2 0xFAB JUMP JUMPDEST DUP2 EQ PUSH2 0x131B JUMPI PUSH1 0x0 DUP1 REVERT JUMPDEST POP JUMP JUMPDEST PUSH1 0x0 DUP2 MLOAD SWAP1 POP PUSH2 0x132D DUP2 PUSH2 0x1307 JUMP JUMPDEST SWAP3 SWAP2 POP POP JUMP JUMPDEST PUSH1 0x0 PUSH1 0x20 DUP3 DUP5 SUB SLT ISZERO PUSH2 0x1349 JUMPI PUSH2 0x1348 PUSH2 0xEAB JUMP JUMPDEST JUMPDEST PUSH1 0x0 PUSH2 0x1357 DUP5 DUP3 DUP6 ADD PUSH2 0x131E JUMP JUMPDEST SWAP2 POP POP SWAP3 SWAP2 POP POP JUMP JUMPDEST PUSH1 0x0 PUSH2 0x136B DUP3 PUSH2 0xF3B JUMP JUMPDEST SWAP2 POP PUSH2 0x1376 DUP4 PUSH2 0xF3B JUMP JUMPDEST SWAP3 POP DUP3 DUP3 LT ISZERO PUSH2 0x1389 JUMPI PUSH2 0x1388 PUSH2 0x1151 JUMP JUMPDEST JUMPDEST DUP3 DUP3 SUB SWAP1 POP SWAP3 SWAP2 POP POP JUMP INVALID LOG2 PUSH5 0x6970667358 0x22 SLT KECCAK256 0xDF 0x27 PUSH22 0x2E9AB306999B96D0FE1110472AC4F52411EC880AE6C7 PUSH16 0x6CDE1640D06364736F6C634300080B00 CALLER "
				},
				"gasEstimates": {
					"creation": {
						"codeDepositCost": "1013200",
						"executionCost": "infinite",
						"totalCost": "infinite"
					},
					"external": {
						"Block(int256)": "infinite",
						"auctionState()": "2583",
						"auctioneer()": "2534",
						"bid()": "infinite",
						"bid_Increment()": "2473",
						"bids(address)": "2859",
						"cancelAuc()": "26666",
						"endAuc()": "26688",
						"etblock()": "2518",
						"finalizeAuc()": "infinite",
						"getBalance(address)": "2929",
						"highestBidder()": "2581",
						"highest_payable_bid()": "2518",
						"prevHash()": "2504",
						"stblock()": "2451",
						"xp(address)": "2838"
					},
					"internal": {
						"min(uint256,uint256)": "64"
					}
				},
				"methodIdentifiers": {
					"Block(int256)": "8c6f2e82",
					"auctionState()": "7fb45099",
					"auctioneer()": "5ec2c7bf",
					"bid()": "1998aeef",
					"bid_Increment()": "ce5bd041",
					"bids(address)": "62ea82db",
					"cancelAuc()": "2352f320",
					"endAuc()": "3fdceefd",
					"etblock()": "9d957d45",
					"finalizeAuc()": "e07600bd",
					"getBalance(address)": "f8b2cb4f",
					"highestBidder()": "91f90157",
					"highest_payable_bid()": "7eb695a1",
					"prevHash()": "69e9c066",
					"stblock()": "a118be02",
					"xp(address)": "0490cb74"
				}
			},
			"storageLayout": {
				"storage": [
					{
						"astId": 3,
						"contract": "contracts/auction.sol:Auction",
						"label": "auctioneer",
						"offset": 0,
						"slot": "0",
						"type": "t_address_payable"
					},
					{
						"astId": 5,
						"contract": "contracts/auction.sol:Auction",
						"label": "stblock",
						"offset": 0,
						"slot": "1",
						"type": "t_uint256"
					},
					{
						"astId": 7,
						"contract": "contracts/auction.sol:Auction",
						"label": "etblock",
						"offset": 0,
						"slot": "2",
						"type": "t_uint256"
					},
					{
						"astId": 10,
						"contract": "contracts/auction.sol:Auction",
						"label": "previousHash",
						"offset": 0,
						"slot": "3",
						"type": "t_bytes32"
					},
					{
						"astId": 18,
						"contract": "contracts/auction.sol:Auction",
						"label": "auctionState",
						"offset": 0,
						"slot": "4",
						"type": "t_enum(Auction_State)15"
					},
					{
						"astId": 20,
						"contract": "contracts/auction.sol:Auction",
						"label": "highest_payable_bid",
						"offset": 0,
						"slot": "5",
						"type": "t_uint256"
					},
					{
						"astId": 22,
						"contract": "contracts/auction.sol:Auction",
						"label": "bid_Increment",
						"offset": 0,
						"slot": "6",
						"type": "t_uint256"
					},
					{
						"astId": 24,
						"contract": "contracts/auction.sol:Auction",
						"label": "highestBidder",
						"offset": 0,
						"slot": "7",
						"type": "t_address_payable"
					},
					{
						"astId": 28,
						"contract": "contracts/auction.sol:Auction",
						"label": "xp",
						"offset": 0,
						"slot": "8",
						"type": "t_mapping(t_address,t_uint256)"
					},
					{
						"astId": 32,
						"contract": "contracts/auction.sol:Auction",
						"label": "bids",
						"offset": 0,
						"slot": "9",
						"type": "t_mapping(t_address,t_uint256)"
					}
				],
				"types": {
					"t_address": {
						"encoding": "inplace",
						"label": "address",
						"numberOfBytes": "20"
					},
					"t_address_payable": {
						"encoding": "inplace",
						"label": "address payable",
						"numberOfBytes": "20"
					},
					"t_bytes32": {
						"encoding": "inplace",
						"label": "bytes32",
						"numberOfBytes": "32"
					},
					"t_enum(Auction_State)15": {
						"encoding": "inplace",
						"label": "enum Auction.Auction_State",
						"numberOfBytes": "1"
					},
					"t_mapping(t_address,t_uint256)": {
						"encoding": "mapping",
						"key": "t_address",
						"label": "mapping(address => uint256)",
						"numberOfBytes": "32",
						"value": "t_uint256"
					},
					"t_uint256": {
						"encoding": "inplace",
						"label": "uint256",
						"numberOfBytes": "32"
					}
				}
			},
			"userdoc": {
				"kind": "user",
				"methods": {},
				"version": 1
			}
		}
	}
}