{
	"contracts/transact.sol": {
		"transact": {
			"abi": [
				{
					"inputs": [
						{
							"internalType": "int256",
							"name": "transactions",
							"type": "int256"
						}
					],
					"name": "Block",
					"outputs": [
						{
							"internalType": "bytes32",
							"name": "hashin",
							"type": "bytes32"
						}
					],
					"stateMutability": "view",
					"type": "function"
				},
				{
					"inputs": [],
					"name": "balanceOf",
					"outputs": [
						{
							"internalType": "uint256",
							"name": "",
							"type": "uint256"
						}
					],
					"stateMutability": "view",
					"type": "function"
				},
				{
					"inputs": [
						{
							"internalType": "address",
							"name": "addr",
							"type": "address"
						}
					],
					"name": "getBalance",
					"outputs": [
						{
							"internalType": "uint256",
							"name": "",
							"type": "uint256"
						}
					],
					"stateMutability": "view",
					"type": "function"
				},
				{
					"inputs": [
						{
							"internalType": "address",
							"name": "addr",
							"type": "address"
						}
					],
					"name": "getBalanceInEth",
					"outputs": [
						{
							"internalType": "uint256",
							"name": "",
							"type": "uint256"
						}
					],
					"stateMutability": "view",
					"type": "function"
				},
				{
					"inputs": [],
					"name": "invest",
					"outputs": [],
					"stateMutability": "payable",
					"type": "function"
				}
			],
			"devdoc": {
				"kind": "dev",
				"methods": {},
				"version": 1
			},
			"evm": {
				"assembly": "    /* \"contracts/transact.sol\":60:954  contract transact {... */\n  mstore(0x40, 0x80)\n  callvalue\n  dup1\n  iszero\n  tag_1\n  jumpi\n  0x00\n  dup1\n  revert\ntag_1:\n  pop\n  dataSize(sub_0)\n  dup1\n  dataOffset(sub_0)\n  0x00\n  codecopy\n  0x00\n  return\nstop\n\nsub_0: assembly {\n        /* \"contracts/transact.sol\":60:954  contract transact {... */\n      mstore(0x40, 0x80)\n      jumpi(tag_1, lt(calldatasize, 0x04))\n      shr(0xe0, calldataload(0x00))\n      dup1\n      0x722713f7\n      eq\n      tag_2\n      jumpi\n      dup1\n      0x7bd703e8\n      eq\n      tag_3\n      jumpi\n      dup1\n      0x8c6f2e82\n      eq\n      tag_4\n      jumpi\n      dup1\n      0xe8b5e51f\n      eq\n      tag_5\n      jumpi\n      dup1\n      0xf8b2cb4f\n      eq\n      tag_6\n      jumpi\n    tag_1:\n      0x00\n      dup1\n      revert\n        /* \"contracts/transact.sol\":245:343  function balanceOf() external view returns (uint) {... */\n    tag_2:\n      callvalue\n      dup1\n      iszero\n      tag_7\n      jumpi\n      0x00\n      dup1\n      revert\n    tag_7:\n      pop\n      tag_8\n      tag_9\n      jump\t// in\n    tag_8:\n      mload(0x40)\n      tag_10\n      swap2\n      swap1\n      tag_11\n      jump\t// in\n    tag_10:\n      mload(0x40)\n      dup1\n      swap2\n      sub\n      swap1\n      return\n        /* \"contracts/transact.sol\":351:457  function getBalanceInEth(address addr) public view returns(uint){... */\n    tag_3:\n      callvalue\n      dup1\n      iszero\n      tag_12\n      jumpi\n      0x00\n      dup1\n      revert\n    tag_12:\n      pop\n      tag_13\n      0x04\n      dup1\n      calldatasize\n      sub\n      dup2\n      add\n      swap1\n      tag_14\n      swap2\n      swap1\n      tag_15\n      jump\t// in\n    tag_14:\n      tag_16\n      jump\t// in\n    tag_13:\n      mload(0x40)\n      tag_17\n      swap2\n      swap1\n      tag_11\n      jump\t// in\n    tag_17:\n      mload(0x40)\n      dup1\n      swap2\n      sub\n      swap1\n      return\n        /* \"contracts/transact.sol\":573:852  function Block(int transactions)public view returns(bytes32 hashin){... */\n    tag_4:\n      callvalue\n      dup1\n      iszero\n      tag_18\n      jumpi\n      0x00\n      dup1\n      revert\n    tag_18:\n      pop\n      tag_19\n      0x04\n      dup1\n      calldatasize\n      sub\n      dup2\n      add\n      swap1\n      tag_20\n      swap2\n      swap1\n      tag_21\n      jump\t// in\n    tag_20:\n      tag_22\n      jump\t// in\n    tag_19:\n      mload(0x40)\n      tag_23\n      swap2\n      swap1\n      tag_24\n      jump\t// in\n    tag_23:\n      mload(0x40)\n      dup1\n      swap2\n      sub\n      swap1\n      return\n        /* \"contracts/transact.sol\":126:239  function invest() external payable {... */\n    tag_5:\n      tag_25\n      tag_26\n      jump\t// in\n    tag_25:\n      stop\n        /* \"contracts/transact.sol\":465:565  function getBalance(address addr) public view returns(uint) {... */\n    tag_6:\n      callvalue\n      dup1\n      iszero\n      tag_27\n      jumpi\n      0x00\n      dup1\n      revert\n    tag_27:\n      pop\n      tag_28\n      0x04\n      dup1\n      calldatasize\n      sub\n      dup2\n      add\n      swap1\n      tag_29\n      swap2\n      swap1\n      tag_15\n      jump\t// in\n    tag_29:\n      tag_30\n      jump\t// in\n    tag_28:\n      mload(0x40)\n      tag_31\n      swap2\n      swap1\n      tag_11\n      jump\t// in\n    tag_31:\n      mload(0x40)\n      dup1\n      swap2\n      sub\n      swap1\n      return\n        /* \"contracts/transact.sol\":245:343  function balanceOf() external view returns (uint) {... */\n    tag_9:\n        /* \"contracts/transact.sol\":289:293  uint */\n      0x00\n        /* \"contracts/transact.sol\":313:334  address(this).balance */\n      selfbalance\n        /* \"contracts/transact.sol\":306:334  return address(this).balance */\n      swap1\n      pop\n        /* \"contracts/transact.sol\":245:343  function balanceOf() external view returns (uint) {... */\n      swap1\n      jump\t// out\n        /* \"contracts/transact.sol\":351:457  function getBalanceInEth(address addr) public view returns(uint){... */\n    tag_16:\n        /* \"contracts/transact.sol\":410:414  uint */\n      0x00\n        /* \"contracts/transact.sol\":433:449  getBalance(addr) */\n      tag_34\n        /* \"contracts/transact.sol\":444:448  addr */\n      dup3\n        /* \"contracts/transact.sol\":433:443  getBalance */\n      tag_30\n        /* \"contracts/transact.sol\":433:449  getBalance(addr) */\n      jump\t// in\n    tag_34:\n        /* \"contracts/transact.sol\":426:449  return getBalance(addr) */\n      swap1\n      pop\n        /* \"contracts/transact.sol\":351:457  function getBalanceInEth(address addr) public view returns(uint){... */\n      swap2\n      swap1\n      pop\n      jump\t// out\n        /* \"contracts/transact.sol\":573:852  function Block(int transactions)public view returns(bytes32 hashin){... */\n    tag_22:\n        /* \"contracts/transact.sol\":625:639  bytes32 hashin */\n      0x00\n        /* \"contracts/transact.sol\":650:659  uint time */\n      dup1\n        /* \"contracts/transact.sol\":661:676  block.timestamp */\n      timestamp\n        /* \"contracts/transact.sol\":650:676  uint time= block.timestamp */\n      swap1\n      pop\n        /* \"contracts/transact.sol\":685:705  bytes32 previousHash */\n      0x00\n        /* \"contracts/transact.sol\":707:708  0 */\n      dup1\n        /* \"contracts/transact.sol\":685:708  bytes32 previousHash= 0 */\n      0x00\n      shl\n      swap1\n      pop\n        /* \"contracts/transact.sol\":727:783  sha256(abi.encodePacked(time,transactions,previousHash)) */\n      0x02\n        /* \"contracts/transact.sol\":751:755  time */\n      dup3\n        /* \"contracts/transact.sol\":756:768  transactions */\n      dup6\n        /* \"contracts/transact.sol\":769:781  previousHash */\n      dup4\n        /* \"contracts/transact.sol\":734:782  abi.encodePacked(time,transactions,previousHash) */\n      add(0x20, mload(0x40))\n      tag_36\n      swap4\n      swap3\n      swap2\n      swap1\n      tag_37\n      jump\t// in\n    tag_36:\n      mload(0x40)\n      0x20\n      dup2\n      dup4\n      sub\n      sub\n      dup2\n      mstore\n      swap1\n      0x40\n      mstore\n        /* \"contracts/transact.sol\":727:783  sha256(abi.encodePacked(time,transactions,previousHash)) */\n      mload(0x40)\n      tag_38\n      swap2\n      swap1\n      tag_39\n      jump\t// in\n    tag_38:\n      0x20\n      mload(0x40)\n      dup1\n      dup4\n      sub\n      dup2\n      dup6\n      gas\n      staticcall\n      iszero\n      dup1\n      iszero\n      tag_41\n      jumpi\n      returndatasize\n      0x00\n      dup1\n      returndatacopy\n      revert(0x00, returndatasize)\n    tag_41:\n      pop\n      pop\n      pop\n      mload(0x40)\n      returndatasize\n      not(0x1f)\n      0x1f\n      dup3\n      add\n      and\n      dup3\n      add\n      dup1\n      0x40\n      mstore\n      pop\n      dup2\n      add\n      swap1\n      tag_42\n      swap2\n      swap1\n      tag_43\n      jump\t// in\n    tag_42:\n        /* \"contracts/transact.sol\":719:783  hashin= sha256(abi.encodePacked(time,transactions,previousHash)) */\n      swap3\n      pop\n        /* \"contracts/transact.sol\":807:813  hashin */\n      dup3\n        /* \"contracts/transact.sol\":794:813  previousHash=hashin */\n      swap1\n      pop\n        /* \"contracts/transact.sol\":824:837  return hashin */\n      pop\n      pop\n        /* \"contracts/transact.sol\":573:852  function Block(int transactions)public view returns(bytes32 hashin){... */\n      swap2\n      swap1\n      pop\n      jump\t// out\n        /* \"contracts/transact.sol\":126:239  function invest() external payable {... */\n    tag_26:\n        /* \"contracts/transact.sol\":187:194  1 ether */\n      0x0de0b6b3a7640000\n        /* \"contracts/transact.sol\":175:184  msg.value */\n      callvalue\n        /* \"contracts/transact.sol\":175:194  msg.value < 1 ether */\n      lt\n        /* \"contracts/transact.sol\":172:230  if(msg.value < 1 ether){... */\n      iszero\n      tag_45\n      jumpi\n        /* \"contracts/transact.sol\":210:218  revert() */\n      0x00\n      dup1\n      revert\n        /* \"contracts/transact.sol\":172:230  if(msg.value < 1 ether){... */\n    tag_45:\n        /* \"contracts/transact.sol\":126:239  function invest() external payable {... */\n      jump\t// out\n        /* \"contracts/transact.sol\":465:565  function getBalance(address addr) public view returns(uint) {... */\n    tag_30:\n        /* \"contracts/transact.sol\":519:523  uint */\n      0x00\n        /* \"contracts/transact.sol\":543:551  balances */\n      dup1\n        /* \"contracts/transact.sol\":543:557  balances[addr] */\n      0x00\n        /* \"contracts/transact.sol\":552:556  addr */\n      dup4\n        /* \"contracts/transact.sol\":543:557  balances[addr] */\n      0xffffffffffffffffffffffffffffffffffffffff\n      and\n      0xffffffffffffffffffffffffffffffffffffffff\n      and\n      dup2\n      mstore\n      0x20\n      add\n      swap1\n      dup2\n      mstore\n      0x20\n      add\n      0x00\n      keccak256\n      sload\n        /* \"contracts/transact.sol\":536:557  return balances[addr] */\n      swap1\n      pop\n        /* \"contracts/transact.sol\":465:565  function getBalance(address addr) public view returns(uint) {... */\n      swap2\n      swap1\n      pop\n      jump\t// out\n        /* \"#utility.yul\":7:84   */\n    tag_47:\n        /* \"#utility.yul\":44:51   */\n      0x00\n        /* \"#utility.yul\":73:78   */\n      dup2\n        /* \"#utility.yul\":62:78   */\n      swap1\n      pop\n        /* \"#utility.yul\":7:84   */\n      swap2\n      swap1\n      pop\n      jump\t// out\n        /* \"#utility.yul\":90:208   */\n    tag_48:\n        /* \"#utility.yul\":177:201   */\n      tag_76\n        /* \"#utility.yul\":195:200   */\n      dup2\n        /* \"#utility.yul\":177:201   */\n      tag_47\n      jump\t// in\n    tag_76:\n        /* \"#utility.yul\":172:175   */\n      dup3\n        /* \"#utility.yul\":165:202   */\n      mstore\n        /* \"#utility.yul\":90:208   */\n      pop\n      pop\n      jump\t// out\n        /* \"#utility.yul\":214:436   */\n    tag_11:\n        /* \"#utility.yul\":307:311   */\n      0x00\n        /* \"#utility.yul\":345:347   */\n      0x20\n        /* \"#utility.yul\":334:343   */\n      dup3\n        /* \"#utility.yul\":330:348   */\n      add\n        /* \"#utility.yul\":322:348   */\n      swap1\n      pop\n        /* \"#utility.yul\":358:429   */\n      tag_78\n        /* \"#utility.yul\":426:427   */\n      0x00\n        /* \"#utility.yul\":415:424   */\n      dup4\n        /* \"#utility.yul\":411:428   */\n      add\n        /* \"#utility.yul\":402:408   */\n      dup5\n        /* \"#utility.yul\":358:429   */\n      tag_48\n      jump\t// in\n    tag_78:\n        /* \"#utility.yul\":214:436   */\n      swap3\n      swap2\n      pop\n      pop\n      jump\t// out\n        /* \"#utility.yul\":523:640   */\n    tag_50:\n        /* \"#utility.yul\":632:633   */\n      0x00\n        /* \"#utility.yul\":629:630   */\n      dup1\n        /* \"#utility.yul\":622:634   */\n      revert\n        /* \"#utility.yul\":769:895   */\n    tag_52:\n        /* \"#utility.yul\":806:813   */\n      0x00\n        /* \"#utility.yul\":846:888   */\n      0xffffffffffffffffffffffffffffffffffffffff\n        /* \"#utility.yul\":839:844   */\n      dup3\n        /* \"#utility.yul\":835:889   */\n      and\n        /* \"#utility.yul\":824:889   */\n      swap1\n      pop\n        /* \"#utility.yul\":769:895   */\n      swap2\n      swap1\n      pop\n      jump\t// out\n        /* \"#utility.yul\":901:997   */\n    tag_53:\n        /* \"#utility.yul\":938:945   */\n      0x00\n        /* \"#utility.yul\":967:991   */\n      tag_84\n        /* \"#utility.yul\":985:990   */\n      dup3\n        /* \"#utility.yul\":967:991   */\n      tag_52\n      jump\t// in\n    tag_84:\n        /* \"#utility.yul\":956:991   */\n      swap1\n      pop\n        /* \"#utility.yul\":901:997   */\n      swap2\n      swap1\n      pop\n      jump\t// out\n        /* \"#utility.yul\":1003:1125   */\n    tag_54:\n        /* \"#utility.yul\":1076:1100   */\n      tag_86\n        /* \"#utility.yul\":1094:1099   */\n      dup2\n        /* \"#utility.yul\":1076:1100   */\n      tag_53\n      jump\t// in\n    tag_86:\n        /* \"#utility.yul\":1069:1074   */\n      dup2\n        /* \"#utility.yul\":1066:1101   */\n      eq\n        /* \"#utility.yul\":1056:1119   */\n      tag_87\n      jumpi\n        /* \"#utility.yul\":1115:1116   */\n      0x00\n        /* \"#utility.yul\":1112:1113   */\n      dup1\n        /* \"#utility.yul\":1105:1117   */\n      revert\n        /* \"#utility.yul\":1056:1119   */\n    tag_87:\n        /* \"#utility.yul\":1003:1125   */\n      pop\n      jump\t// out\n        /* \"#utility.yul\":1131:1270   */\n    tag_55:\n        /* \"#utility.yul\":1177:1182   */\n      0x00\n        /* \"#utility.yul\":1215:1221   */\n      dup2\n        /* \"#utility.yul\":1202:1222   */\n      calldataload\n        /* \"#utility.yul\":1193:1222   */\n      swap1\n      pop\n        /* \"#utility.yul\":1231:1264   */\n      tag_89\n        /* \"#utility.yul\":1258:1263   */\n      dup2\n        /* \"#utility.yul\":1231:1264   */\n      tag_54\n      jump\t// in\n    tag_89:\n        /* \"#utility.yul\":1131:1270   */\n      swap3\n      swap2\n      pop\n      pop\n      jump\t// out\n        /* \"#utility.yul\":1276:1605   */\n    tag_15:\n        /* \"#utility.yul\":1335:1341   */\n      0x00\n        /* \"#utility.yul\":1384:1386   */\n      0x20\n        /* \"#utility.yul\":1372:1381   */\n      dup3\n        /* \"#utility.yul\":1363:1370   */\n      dup5\n        /* \"#utility.yul\":1359:1382   */\n      sub\n        /* \"#utility.yul\":1355:1387   */\n      slt\n        /* \"#utility.yul\":1352:1471   */\n      iszero\n      tag_91\n      jumpi\n        /* \"#utility.yul\":1390:1469   */\n      tag_92\n      tag_50\n      jump\t// in\n    tag_92:\n        /* \"#utility.yul\":1352:1471   */\n    tag_91:\n        /* \"#utility.yul\":1510:1511   */\n      0x00\n        /* \"#utility.yul\":1535:1588   */\n      tag_93\n        /* \"#utility.yul\":1580:1587   */\n      dup5\n        /* \"#utility.yul\":1571:1577   */\n      dup3\n        /* \"#utility.yul\":1560:1569   */\n      dup6\n        /* \"#utility.yul\":1556:1578   */\n      add\n        /* \"#utility.yul\":1535:1588   */\n      tag_55\n      jump\t// in\n    tag_93:\n        /* \"#utility.yul\":1525:1588   */\n      swap2\n      pop\n        /* \"#utility.yul\":1481:1598   */\n      pop\n        /* \"#utility.yul\":1276:1605   */\n      swap3\n      swap2\n      pop\n      pop\n      jump\t// out\n        /* \"#utility.yul\":1611:1687   */\n    tag_56:\n        /* \"#utility.yul\":1647:1654   */\n      0x00\n        /* \"#utility.yul\":1676:1681   */\n      dup2\n        /* \"#utility.yul\":1665:1681   */\n      swap1\n      pop\n        /* \"#utility.yul\":1611:1687   */\n      swap2\n      swap1\n      pop\n      jump\t// out\n        /* \"#utility.yul\":1693:1813   */\n    tag_57:\n        /* \"#utility.yul\":1765:1788   */\n      tag_96\n        /* \"#utility.yul\":1782:1787   */\n      dup2\n        /* \"#utility.yul\":1765:1788   */\n      tag_56\n      jump\t// in\n    tag_96:\n        /* \"#utility.yul\":1758:1763   */\n      dup2\n        /* \"#utility.yul\":1755:1789   */\n      eq\n        /* \"#utility.yul\":1745:1807   */\n      tag_97\n      jumpi\n        /* \"#utility.yul\":1803:1804   */\n      0x00\n        /* \"#utility.yul\":1800:1801   */\n      dup1\n        /* \"#utility.yul\":1793:1805   */\n      revert\n        /* \"#utility.yul\":1745:1807   */\n    tag_97:\n        /* \"#utility.yul\":1693:1813   */\n      pop\n      jump\t// out\n        /* \"#utility.yul\":1819:1956   */\n    tag_58:\n        /* \"#utility.yul\":1864:1869   */\n      0x00\n        /* \"#utility.yul\":1902:1908   */\n      dup2\n        /* \"#utility.yul\":1889:1909   */\n      calldataload\n        /* \"#utility.yul\":1880:1909   */\n      swap1\n      pop\n        /* \"#utility.yul\":1918:1950   */\n      tag_99\n        /* \"#utility.yul\":1944:1949   */\n      dup2\n        /* \"#utility.yul\":1918:1950   */\n      tag_57\n      jump\t// in\n    tag_99:\n        /* \"#utility.yul\":1819:1956   */\n      swap3\n      swap2\n      pop\n      pop\n      jump\t// out\n        /* \"#utility.yul\":1962:2289   */\n    tag_21:\n        /* \"#utility.yul\":2020:2026   */\n      0x00\n        /* \"#utility.yul\":2069:2071   */\n      0x20\n        /* \"#utility.yul\":2057:2066   */\n      dup3\n        /* \"#utility.yul\":2048:2055   */\n      dup5\n        /* \"#utility.yul\":2044:2067   */\n      sub\n        /* \"#utility.yul\":2040:2072   */\n      slt\n        /* \"#utility.yul\":2037:2156   */\n      iszero\n      tag_101\n      jumpi\n        /* \"#utility.yul\":2075:2154   */\n      tag_102\n      tag_50\n      jump\t// in\n    tag_102:\n        /* \"#utility.yul\":2037:2156   */\n    tag_101:\n        /* \"#utility.yul\":2195:2196   */\n      0x00\n        /* \"#utility.yul\":2220:2272   */\n      tag_103\n        /* \"#utility.yul\":2264:2271   */\n      dup5\n        /* \"#utility.yul\":2255:2261   */\n      dup3\n        /* \"#utility.yul\":2244:2253   */\n      dup6\n        /* \"#utility.yul\":2240:2262   */\n      add\n        /* \"#utility.yul\":2220:2272   */\n      tag_58\n      jump\t// in\n    tag_103:\n        /* \"#utility.yul\":2210:2272   */\n      swap2\n      pop\n        /* \"#utility.yul\":2166:2282   */\n      pop\n        /* \"#utility.yul\":1962:2289   */\n      swap3\n      swap2\n      pop\n      pop\n      jump\t// out\n        /* \"#utility.yul\":2295:2372   */\n    tag_59:\n        /* \"#utility.yul\":2332:2339   */\n      0x00\n        /* \"#utility.yul\":2361:2366   */\n      dup2\n        /* \"#utility.yul\":2350:2366   */\n      swap1\n      pop\n        /* \"#utility.yul\":2295:2372   */\n      swap2\n      swap1\n      pop\n      jump\t// out\n        /* \"#utility.yul\":2378:2496   */\n    tag_60:\n        /* \"#utility.yul\":2465:2489   */\n      tag_106\n        /* \"#utility.yul\":2483:2488   */\n      dup2\n        /* \"#utility.yul\":2465:2489   */\n      tag_59\n      jump\t// in\n    tag_106:\n        /* \"#utility.yul\":2460:2463   */\n      dup3\n        /* \"#utility.yul\":2453:2490   */\n      mstore\n        /* \"#utility.yul\":2378:2496   */\n      pop\n      pop\n      jump\t// out\n        /* \"#utility.yul\":2502:2724   */\n    tag_24:\n        /* \"#utility.yul\":2595:2599   */\n      0x00\n        /* \"#utility.yul\":2633:2635   */\n      0x20\n        /* \"#utility.yul\":2622:2631   */\n      dup3\n        /* \"#utility.yul\":2618:2636   */\n      add\n        /* \"#utility.yul\":2610:2636   */\n      swap1\n      pop\n        /* \"#utility.yul\":2646:2717   */\n      tag_108\n        /* \"#utility.yul\":2714:2715   */\n      0x00\n        /* \"#utility.yul\":2703:2712   */\n      dup4\n        /* \"#utility.yul\":2699:2716   */\n      add\n        /* \"#utility.yul\":2690:2696   */\n      dup5\n        /* \"#utility.yul\":2646:2717   */\n      tag_60\n      jump\t// in\n    tag_108:\n        /* \"#utility.yul\":2502:2724   */\n      swap3\n      swap2\n      pop\n      pop\n      jump\t// out\n        /* \"#utility.yul\":2730:2809   */\n    tag_61:\n        /* \"#utility.yul\":2769:2776   */\n      0x00\n        /* \"#utility.yul\":2798:2803   */\n      dup2\n        /* \"#utility.yul\":2787:2803   */\n      swap1\n      pop\n        /* \"#utility.yul\":2730:2809   */\n      swap2\n      swap1\n      pop\n      jump\t// out\n        /* \"#utility.yul\":2815:2972   */\n    tag_62:\n        /* \"#utility.yul\":2920:2965   */\n      tag_111\n        /* \"#utility.yul\":2940:2964   */\n      tag_112\n        /* \"#utility.yul\":2958:2963   */\n      dup3\n        /* \"#utility.yul\":2940:2964   */\n      tag_47\n      jump\t// in\n    tag_112:\n        /* \"#utility.yul\":2920:2965   */\n      tag_61\n      jump\t// in\n    tag_111:\n        /* \"#utility.yul\":2915:2918   */\n      dup3\n        /* \"#utility.yul\":2908:2966   */\n      mstore\n        /* \"#utility.yul\":2815:2972   */\n      pop\n      pop\n      jump\t// out\n        /* \"#utility.yul\":2978:3056   */\n    tag_63:\n        /* \"#utility.yul\":3016:3023   */\n      0x00\n        /* \"#utility.yul\":3045:3050   */\n      dup2\n        /* \"#utility.yul\":3034:3050   */\n      swap1\n      pop\n        /* \"#utility.yul\":2978:3056   */\n      swap2\n      swap1\n      pop\n      jump\t// out\n        /* \"#utility.yul\":3062:3215   */\n    tag_64:\n        /* \"#utility.yul\":3165:3208   */\n      tag_115\n        /* \"#utility.yul\":3184:3207   */\n      tag_116\n        /* \"#utility.yul\":3201:3206   */\n      dup3\n        /* \"#utility.yul\":3184:3207   */\n      tag_56\n      jump\t// in\n    tag_116:\n        /* \"#utility.yul\":3165:3208   */\n      tag_63\n      jump\t// in\n    tag_115:\n        /* \"#utility.yul\":3160:3163   */\n      dup3\n        /* \"#utility.yul\":3153:3209   */\n      mstore\n        /* \"#utility.yul\":3062:3215   */\n      pop\n      pop\n      jump\t// out\n        /* \"#utility.yul\":3221:3300   */\n    tag_65:\n        /* \"#utility.yul\":3260:3267   */\n      0x00\n        /* \"#utility.yul\":3289:3294   */\n      dup2\n        /* \"#utility.yul\":3278:3294   */\n      swap1\n      pop\n        /* \"#utility.yul\":3221:3300   */\n      swap2\n      swap1\n      pop\n      jump\t// out\n        /* \"#utility.yul\":3306:3463   */\n    tag_66:\n        /* \"#utility.yul\":3411:3456   */\n      tag_119\n        /* \"#utility.yul\":3431:3455   */\n      tag_120\n        /* \"#utility.yul\":3449:3454   */\n      dup3\n        /* \"#utility.yul\":3431:3455   */\n      tag_59\n      jump\t// in\n    tag_120:\n        /* \"#utility.yul\":3411:3456   */\n      tag_65\n      jump\t// in\n    tag_119:\n        /* \"#utility.yul\":3406:3409   */\n      dup3\n        /* \"#utility.yul\":3399:3457   */\n      mstore\n        /* \"#utility.yul\":3306:3463   */\n      pop\n      pop\n      jump\t// out\n        /* \"#utility.yul\":3469:4003   */\n    tag_37:\n        /* \"#utility.yul\":3635:3638   */\n      0x00\n        /* \"#utility.yul\":3650:3725   */\n      tag_122\n        /* \"#utility.yul\":3721:3724   */\n      dup3\n        /* \"#utility.yul\":3712:3718   */\n      dup7\n        /* \"#utility.yul\":3650:3725   */\n      tag_62\n      jump\t// in\n    tag_122:\n        /* \"#utility.yul\":3750:3752   */\n      0x20\n        /* \"#utility.yul\":3745:3748   */\n      dup3\n        /* \"#utility.yul\":3741:3753   */\n      add\n        /* \"#utility.yul\":3734:3753   */\n      swap2\n      pop\n        /* \"#utility.yul\":3763:3836   */\n      tag_123\n        /* \"#utility.yul\":3832:3835   */\n      dup3\n        /* \"#utility.yul\":3823:3829   */\n      dup6\n        /* \"#utility.yul\":3763:3836   */\n      tag_64\n      jump\t// in\n    tag_123:\n        /* \"#utility.yul\":3861:3863   */\n      0x20\n        /* \"#utility.yul\":3856:3859   */\n      dup3\n        /* \"#utility.yul\":3852:3864   */\n      add\n        /* \"#utility.yul\":3845:3864   */\n      swap2\n      pop\n        /* \"#utility.yul\":3874:3949   */\n      tag_124\n        /* \"#utility.yul\":3945:3948   */\n      dup3\n        /* \"#utility.yul\":3936:3942   */\n      dup5\n        /* \"#utility.yul\":3874:3949   */\n      tag_66\n      jump\t// in\n    tag_124:\n        /* \"#utility.yul\":3974:3976   */\n      0x20\n        /* \"#utility.yul\":3969:3972   */\n      dup3\n        /* \"#utility.yul\":3965:3977   */\n      add\n        /* \"#utility.yul\":3958:3977   */\n      swap2\n      pop\n        /* \"#utility.yul\":3994:3997   */\n      dup2\n        /* \"#utility.yul\":3987:3997   */\n      swap1\n      pop\n        /* \"#utility.yul\":3469:4003   */\n      swap5\n      swap4\n      pop\n      pop\n      pop\n      pop\n      jump\t// out\n        /* \"#utility.yul\":4009:4107   */\n    tag_67:\n        /* \"#utility.yul\":4060:4066   */\n      0x00\n        /* \"#utility.yul\":4094:4099   */\n      dup2\n        /* \"#utility.yul\":4088:4100   */\n      mload\n        /* \"#utility.yul\":4078:4100   */\n      swap1\n      pop\n        /* \"#utility.yul\":4009:4107   */\n      swap2\n      swap1\n      pop\n      jump\t// out\n        /* \"#utility.yul\":4113:4260   */\n    tag_68:\n        /* \"#utility.yul\":4214:4225   */\n      0x00\n        /* \"#utility.yul\":4251:4254   */\n      dup2\n        /* \"#utility.yul\":4236:4254   */\n      swap1\n      pop\n        /* \"#utility.yul\":4113:4260   */\n      swap3\n      swap2\n      pop\n      pop\n      jump\t// out\n        /* \"#utility.yul\":4266:4573   */\n    tag_69:\n        /* \"#utility.yul\":4334:4335   */\n      0x00\n        /* \"#utility.yul\":4344:4457   */\n    tag_128:\n        /* \"#utility.yul\":4358:4364   */\n      dup4\n        /* \"#utility.yul\":4355:4356   */\n      dup2\n        /* \"#utility.yul\":4352:4365   */\n      lt\n        /* \"#utility.yul\":4344:4457   */\n      iszero\n      tag_130\n      jumpi\n        /* \"#utility.yul\":4443:4444   */\n      dup1\n        /* \"#utility.yul\":4438:4441   */\n      dup3\n        /* \"#utility.yul\":4434:4445   */\n      add\n        /* \"#utility.yul\":4428:4446   */\n      mload\n        /* \"#utility.yul\":4424:4425   */\n      dup2\n        /* \"#utility.yul\":4419:4422   */\n      dup5\n        /* \"#utility.yul\":4415:4426   */\n      add\n        /* \"#utility.yul\":4408:4447   */\n      mstore\n        /* \"#utility.yul\":4380:4382   */\n      0x20\n        /* \"#utility.yul\":4377:4378   */\n      dup2\n        /* \"#utility.yul\":4373:4383   */\n      add\n        /* \"#utility.yul\":4368:4383   */\n      swap1\n      pop\n        /* \"#utility.yul\":4344:4457   */\n      jump(tag_128)\n    tag_130:\n        /* \"#utility.yul\":4475:4481   */\n      dup4\n        /* \"#utility.yul\":4472:4473   */\n      dup2\n        /* \"#utility.yul\":4469:4482   */\n      gt\n        /* \"#utility.yul\":4466:4567   */\n      iszero\n      tag_131\n      jumpi\n        /* \"#utility.yul\":4555:4556   */\n      0x00\n        /* \"#utility.yul\":4546:4552   */\n      dup5\n        /* \"#utility.yul\":4541:4544   */\n      dup5\n        /* \"#utility.yul\":4537:4553   */\n      add\n        /* \"#utility.yul\":4530:4557   */\n      mstore\n        /* \"#utility.yul\":4466:4567   */\n    tag_131:\n        /* \"#utility.yul\":4315:4573   */\n      pop\n        /* \"#utility.yul\":4266:4573   */\n      pop\n      pop\n      pop\n      jump\t// out\n        /* \"#utility.yul\":4579:4952   */\n    tag_70:\n        /* \"#utility.yul\":4683:4686   */\n      0x00\n        /* \"#utility.yul\":4711:4749   */\n      tag_133\n        /* \"#utility.yul\":4743:4748   */\n      dup3\n        /* \"#utility.yul\":4711:4749   */\n      tag_67\n      jump\t// in\n    tag_133:\n        /* \"#utility.yul\":4765:4853   */\n      tag_134\n        /* \"#utility.yul\":4846:4852   */\n      dup2\n        /* \"#utility.yul\":4841:4844   */\n      dup6\n        /* \"#utility.yul\":4765:4853   */\n      tag_68\n      jump\t// in\n    tag_134:\n        /* \"#utility.yul\":4758:4853   */\n      swap4\n      pop\n        /* \"#utility.yul\":4862:4914   */\n      tag_135\n        /* \"#utility.yul\":4907:4913   */\n      dup2\n        /* \"#utility.yul\":4902:4905   */\n      dup6\n        /* \"#utility.yul\":4895:4899   */\n      0x20\n        /* \"#utility.yul\":4888:4893   */\n      dup7\n        /* \"#utility.yul\":4884:4900   */\n      add\n        /* \"#utility.yul\":4862:4914   */\n      tag_69\n      jump\t// in\n    tag_135:\n        /* \"#utility.yul\":4939:4945   */\n      dup1\n        /* \"#utility.yul\":4934:4937   */\n      dup5\n        /* \"#utility.yul\":4930:4946   */\n      add\n        /* \"#utility.yul\":4923:4946   */\n      swap2\n      pop\n        /* \"#utility.yul\":4687:4952   */\n      pop\n        /* \"#utility.yul\":4579:4952   */\n      swap3\n      swap2\n      pop\n      pop\n      jump\t// out\n        /* \"#utility.yul\":4958:5229   */\n    tag_39:\n        /* \"#utility.yul\":5088:5091   */\n      0x00\n        /* \"#utility.yul\":5110:5203   */\n      tag_137\n        /* \"#utility.yul\":5199:5202   */\n      dup3\n        /* \"#utility.yul\":5190:5196   */\n      dup5\n        /* \"#utility.yul\":5110:5203   */\n      tag_70\n      jump\t// in\n    tag_137:\n        /* \"#utility.yul\":5103:5203   */\n      swap2\n      pop\n        /* \"#utility.yul\":5220:5223   */\n      dup2\n        /* \"#utility.yul\":5213:5223   */\n      swap1\n      pop\n        /* \"#utility.yul\":4958:5229   */\n      swap3\n      swap2\n      pop\n      pop\n      jump\t// out\n        /* \"#utility.yul\":5235:5357   */\n    tag_71:\n        /* \"#utility.yul\":5308:5332   */\n      tag_139\n        /* \"#utility.yul\":5326:5331   */\n      dup2\n        /* \"#utility.yul\":5308:5332   */\n      tag_59\n      jump\t// in\n    tag_139:\n        /* \"#utility.yul\":5301:5306   */\n      dup2\n        /* \"#utility.yul\":5298:5333   */\n      eq\n        /* \"#utility.yul\":5288:5351   */\n      tag_140\n      jumpi\n        /* \"#utility.yul\":5347:5348   */\n      0x00\n        /* \"#utility.yul\":5344:5345   */\n      dup1\n        /* \"#utility.yul\":5337:5349   */\n      revert\n        /* \"#utility.yul\":5288:5351   */\n    tag_140:\n        /* \"#utility.yul\":5235:5357   */\n      pop\n      jump\t// out\n        /* \"#utility.yul\":5363:5506   */\n    tag_72:\n        /* \"#utility.yul\":5420:5425   */\n      0x00\n        /* \"#utility.yul\":5451:5457   */\n      dup2\n        /* \"#utility.yul\":5445:5458   */\n      mload\n        /* \"#utility.yul\":5436:5458   */\n      swap1\n      pop\n        /* \"#utility.yul\":5467:5500   */\n      tag_142\n        /* \"#utility.yul\":5494:5499   */\n      dup2\n        /* \"#utility.yul\":5467:5500   */\n      tag_71\n      jump\t// in\n    tag_142:\n        /* \"#utility.yul\":5363:5506   */\n      swap3\n      swap2\n      pop\n      pop\n      jump\t// out\n        /* \"#utility.yul\":5512:5863   */\n    tag_43:\n        /* \"#utility.yul\":5582:5588   */\n      0x00\n        /* \"#utility.yul\":5631:5633   */\n      0x20\n        /* \"#utility.yul\":5619:5628   */\n      dup3\n        /* \"#utility.yul\":5610:5617   */\n      dup5\n        /* \"#utility.yul\":5606:5629   */\n      sub\n        /* \"#utility.yul\":5602:5634   */\n      slt\n        /* \"#utility.yul\":5599:5718   */\n      iszero\n      tag_144\n      jumpi\n        /* \"#utility.yul\":5637:5716   */\n      tag_145\n      tag_50\n      jump\t// in\n    tag_145:\n        /* \"#utility.yul\":5599:5718   */\n    tag_144:\n        /* \"#utility.yul\":5757:5758   */\n      0x00\n        /* \"#utility.yul\":5782:5846   */\n      tag_146\n        /* \"#utility.yul\":5838:5845   */\n      dup5\n        /* \"#utility.yul\":5829:5835   */\n      dup3\n        /* \"#utility.yul\":5818:5827   */\n      dup6\n        /* \"#utility.yul\":5814:5836   */\n      add\n        /* \"#utility.yul\":5782:5846   */\n      tag_72\n      jump\t// in\n    tag_146:\n        /* \"#utility.yul\":5772:5846   */\n      swap2\n      pop\n        /* \"#utility.yul\":5728:5856   */\n      pop\n        /* \"#utility.yul\":5512:5863   */\n      swap3\n      swap2\n      pop\n      pop\n      jump\t// out\n\n    auxdata: 0xa2646970667358221220cf629469aebf00deec3a7b5c5e9f1c032f61caa87db2e90afa87f8eba2bc71d164736f6c634300080b0033\n}\n",
				"bytecode": {
					"linkReferences": {},
					"object": "608060405234801561001057600080fd5b5061055c806100206000396000f3fe60806040526004361061004a5760003560e01c8063722713f71461004f5780637bd703e81461007a5780638c6f2e82146100b7578063e8b5e51f146100f4578063f8b2cb4f146100fe575b600080fd5b34801561005b57600080fd5b5061006461013b565b604051610071919061025a565b60405180910390f35b34801561008657600080fd5b506100a1600480360381019061009c91906102d8565b610143565b6040516100ae919061025a565b60405180910390f35b3480156100c357600080fd5b506100de60048036038101906100d9919061033b565b610155565b6040516100eb9190610381565b60405180910390f35b6100fc6101e2565b005b34801561010a57600080fd5b50610125600480360381019061012091906102d8565b6101f9565b604051610132919061025a565b60405180910390f35b600047905090565b600061014e826101f9565b9050919050565b60008042905060008060001b9050600282858360405160200161017a939291906103ff565b60405160208183030381529060405260405161019691906104b6565b602060405180830381855afa1580156101b3573d6000803e3d6000fd5b5050506040513d601f19601f820116820180604052508101906101d691906104f9565b92508290505050919050565b670de0b6b3a76400003410156101f757600080fd5b565b60008060008373ffffffffffffffffffffffffffffffffffffffff1673ffffffffffffffffffffffffffffffffffffffff168152602001908152602001600020549050919050565b6000819050919050565b61025481610241565b82525050565b600060208201905061026f600083018461024b565b92915050565b600080fd5b600073ffffffffffffffffffffffffffffffffffffffff82169050919050565b60006102a58261027a565b9050919050565b6102b58161029a565b81146102c057600080fd5b50565b6000813590506102d2816102ac565b92915050565b6000602082840312156102ee576102ed610275565b5b60006102fc848285016102c3565b91505092915050565b6000819050919050565b61031881610305565b811461032357600080fd5b50565b6000813590506103358161030f565b92915050565b60006020828403121561035157610350610275565b5b600061035f84828501610326565b91505092915050565b6000819050919050565b61037b81610368565b82525050565b60006020820190506103966000830184610372565b92915050565b6000819050919050565b6103b76103b282610241565b61039c565b82525050565b6000819050919050565b6103d86103d382610305565b6103bd565b82525050565b6000819050919050565b6103f96103f482610368565b6103de565b82525050565b600061040b82866103a6565b60208201915061041b82856103c7565b60208201915061042b82846103e8565b602082019150819050949350505050565b600081519050919050565b600081905092915050565b60005b83811015610470578082015181840152602081019050610455565b8381111561047f576000848401525b50505050565b60006104908261043c565b61049a8185610447565b93506104aa818560208601610452565b80840191505092915050565b60006104c28284610485565b915081905092915050565b6104d681610368565b81146104e157600080fd5b50565b6000815190506104f3816104cd565b92915050565b60006020828403121561050f5761050e610275565b5b600061051d848285016104e4565b9150509291505056fea2646970667358221220cf629469aebf00deec3a7b5c5e9f1c032f61caa87db2e90afa87f8eba2bc71d164736f6c634300080b0033",
					"opcodes": "PUSH1 0x80 PUSH1 0x40 MSTORE CALLVALUE DUP1 ISZERO PUSH2 0x10 JUMPI PUSH1 0x0 DUP1 REVERT JUMPDEST POP PUSH2 0x55C DUP1 PUSH2 0x20 PUSH1 0x0 CODECOPY PUSH1 0x0 RETURN INVALID PUSH1 0x80 PUSH1 0x40 MSTORE PUSH1 0x4 CALLDATASIZE LT PUSH2 0x4A JUMPI PUSH1 0x0 CALLDATALOAD PUSH1 0xE0 SHR DUP1 PUSH4 0x722713F7 EQ PUSH2 0x4F JUMPI DUP1 PUSH4 0x7BD703E8 EQ PUSH2 0x7A JUMPI DUP1 PUSH4 0x8C6F2E82 EQ PUSH2 0xB7 JUMPI DUP1 PUSH4 0xE8B5E51F EQ PUSH2 0xF4 JUMPI DUP1 PUSH4 0xF8B2CB4F EQ PUSH2 0xFE JUMPI JUMPDEST PUSH1 0x0 DUP1 REVERT JUMPDEST CALLVALUE DUP1 ISZERO PUSH2 0x5B JUMPI PUSH1 0x0 DUP1 REVERT JUMPDEST POP PUSH2 0x64 PUSH2 0x13B JUMP JUMPDEST PUSH1 0x40 MLOAD PUSH2 0x71 SWAP2 SWAP1 PUSH2 0x25A JUMP JUMPDEST PUSH1 0x40 MLOAD DUP1 SWAP2 SUB SWAP1 RETURN JUMPDEST CALLVALUE DUP1 ISZERO PUSH2 0x86 JUMPI PUSH1 0x0 DUP1 REVERT JUMPDEST POP PUSH2 0xA1 PUSH1 0x4 DUP1 CALLDATASIZE SUB DUP2 ADD SWAP1 PUSH2 0x9C SWAP2 SWAP1 PUSH2 0x2D8 JUMP JUMPDEST PUSH2 0x143 JUMP JUMPDEST PUSH1 0x40 MLOAD PUSH2 0xAE SWAP2 SWAP1 PUSH2 0x25A JUMP JUMPDEST PUSH1 0x40 MLOAD DUP1 SWAP2 SUB SWAP1 RETURN JUMPDEST CALLVALUE DUP1 ISZERO PUSH2 0xC3 JUMPI PUSH1 0x0 DUP1 REVERT JUMPDEST POP PUSH2 0xDE PUSH1 0x4 DUP1 CALLDATASIZE SUB DUP2 ADD SWAP1 PUSH2 0xD9 SWAP2 SWAP1 PUSH2 0x33B JUMP JUMPDEST PUSH2 0x155 JUMP JUMPDEST PUSH1 0x40 MLOAD PUSH2 0xEB SWAP2 SWAP1 PUSH2 0x381 JUMP JUMPDEST PUSH1 0x40 MLOAD DUP1 SWAP2 SUB SWAP1 RETURN JUMPDEST PUSH2 0xFC PUSH2 0x1E2 JUMP JUMPDEST STOP JUMPDEST CALLVALUE DUP1 ISZERO PUSH2 0x10A JUMPI PUSH1 0x0 DUP1 REVERT JUMPDEST POP PUSH2 0x125 PUSH1 0x4 DUP1 CALLDATASIZE SUB DUP2 ADD SWAP1 PUSH2 0x120 SWAP2 SWAP1 PUSH2 0x2D8 JUMP JUMPDEST PUSH2 0x1F9 JUMP JUMPDEST PUSH1 0x40 MLOAD PUSH2 0x132 SWAP2 SWAP1 PUSH2 0x25A JUMP JUMPDEST PUSH1 0x40 MLOAD DUP1 SWAP2 SUB SWAP1 RETURN JUMPDEST PUSH1 0x0 SELFBALANCE SWAP1 POP SWAP1 JUMP JUMPDEST PUSH1 0x0 PUSH2 0x14E DUP3 PUSH2 0x1F9 JUMP JUMPDEST SWAP1 POP SWAP2 SWAP1 POP JUMP JUMPDEST PUSH1 0x0 DUP1 TIMESTAMP SWAP1 POP PUSH1 0x0 DUP1 PUSH1 0x0 SHL SWAP1 POP PUSH1 0x2 DUP3 DUP6 DUP4 PUSH1 0x40 MLOAD PUSH1 0x20 ADD PUSH2 0x17A SWAP4 SWAP3 SWAP2 SWAP1 PUSH2 0x3FF JUMP JUMPDEST PUSH1 0x40 MLOAD PUSH1 0x20 DUP2 DUP4 SUB SUB DUP2 MSTORE SWAP1 PUSH1 0x40 MSTORE PUSH1 0x40 MLOAD PUSH2 0x196 SWAP2 SWAP1 PUSH2 0x4B6 JUMP JUMPDEST PUSH1 0x20 PUSH1 0x40 MLOAD DUP1 DUP4 SUB DUP2 DUP6 GAS STATICCALL ISZERO DUP1 ISZERO PUSH2 0x1B3 JUMPI RETURNDATASIZE PUSH1 0x0 DUP1 RETURNDATACOPY RETURNDATASIZE PUSH1 0x0 REVERT JUMPDEST POP POP POP PUSH1 0x40 MLOAD RETURNDATASIZE PUSH1 0x1F NOT PUSH1 0x1F DUP3 ADD AND DUP3 ADD DUP1 PUSH1 0x40 MSTORE POP DUP2 ADD SWAP1 PUSH2 0x1D6 SWAP2 SWAP1 PUSH2 0x4F9 JUMP JUMPDEST SWAP3 POP DUP3 SWAP1 POP POP POP SWAP2 SWAP1 POP JUMP JUMPDEST PUSH8 0xDE0B6B3A7640000 CALLVALUE LT ISZERO PUSH2 0x1F7 JUMPI PUSH1 0x0 DUP1 REVERT JUMPDEST JUMP JUMPDEST PUSH1 0x0 DUP1 PUSH1 0x0 DUP4 PUSH20 0xFFFFFFFFFFFFFFFFFFFFFFFFFFFFFFFFFFFFFFFF AND PUSH20 0xFFFFFFFFFFFFFFFFFFFFFFFFFFFFFFFFFFFFFFFF AND DUP2 MSTORE PUSH1 0x20 ADD SWAP1 DUP2 MSTORE PUSH1 0x20 ADD PUSH1 0x0 KECCAK256 SLOAD SWAP1 POP SWAP2 SWAP1 POP JUMP JUMPDEST PUSH1 0x0 DUP2 SWAP1 POP SWAP2 SWAP1 POP JUMP JUMPDEST PUSH2 0x254 DUP2 PUSH2 0x241 JUMP JUMPDEST DUP3 MSTORE POP POP JUMP JUMPDEST PUSH1 0x0 PUSH1 0x20 DUP3 ADD SWAP1 POP PUSH2 0x26F PUSH1 0x0 DUP4 ADD DUP5 PUSH2 0x24B JUMP JUMPDEST SWAP3 SWAP2 POP POP JUMP JUMPDEST PUSH1 0x0 DUP1 REVERT JUMPDEST PUSH1 0x0 PUSH20 0xFFFFFFFFFFFFFFFFFFFFFFFFFFFFFFFFFFFFFFFF DUP3 AND SWAP1 POP SWAP2 SWAP1 POP JUMP JUMPDEST PUSH1 0x0 PUSH2 0x2A5 DUP3 PUSH2 0x27A JUMP JUMPDEST SWAP1 POP SWAP2 SWAP1 POP JUMP JUMPDEST PUSH2 0x2B5 DUP2 PUSH2 0x29A JUMP JUMPDEST DUP2 EQ PUSH2 0x2C0 JUMPI PUSH1 0x0 DUP1 REVERT JUMPDEST POP JUMP JUMPDEST PUSH1 0x0 DUP2 CALLDATALOAD SWAP1 POP PUSH2 0x2D2 DUP2 PUSH2 0x2AC JUMP JUMPDEST SWAP3 SWAP2 POP POP JUMP JUMPDEST PUSH1 0x0 PUSH1 0x20 DUP3 DUP5 SUB SLT ISZERO PUSH2 0x2EE JUMPI PUSH2 0x2ED PUSH2 0x275 JUMP JUMPDEST JUMPDEST PUSH1 0x0 PUSH2 0x2FC DUP5 DUP3 DUP6 ADD PUSH2 0x2C3 JUMP JUMPDEST SWAP2 POP POP SWAP3 SWAP2 POP POP JUMP JUMPDEST PUSH1 0x0 DUP2 SWAP1 POP SWAP2 SWAP1 POP JUMP JUMPDEST PUSH2 0x318 DUP2 PUSH2 0x305 JUMP JUMPDEST DUP2 EQ PUSH2 0x323 JUMPI PUSH1 0x0 DUP1 REVERT JUMPDEST POP JUMP JUMPDEST PUSH1 0x0 DUP2 CALLDATALOAD SWAP1 POP PUSH2 0x335 DUP2 PUSH2 0x30F JUMP JUMPDEST SWAP3 SWAP2 POP POP JUMP JUMPDEST PUSH1 0x0 PUSH1 0x20 DUP3 DUP5 SUB SLT ISZERO PUSH2 0x351 JUMPI PUSH2 0x350 PUSH2 0x275 JUMP JUMPDEST JUMPDEST PUSH1 0x0 PUSH2 0x35F DUP5 DUP3 DUP6 ADD PUSH2 0x326 JUMP JUMPDEST SWAP2 POP POP SWAP3 SWAP2 POP POP JUMP JUMPDEST PUSH1 0x0 DUP2 SWAP1 POP SWAP2 SWAP1 POP JUMP JUMPDEST PUSH2 0x37B DUP2 PUSH2 0x368 JUMP JUMPDEST DUP3 MSTORE POP POP JUMP JUMPDEST PUSH1 0x0 PUSH1 0x20 DUP3 ADD SWAP1 POP PUSH2 0x396 PUSH1 0x0 DUP4 ADD DUP5 PUSH2 0x372 JUMP JUMPDEST SWAP3 SWAP2 POP POP JUMP JUMPDEST PUSH1 0x0 DUP2 SWAP1 POP SWAP2 SWAP1 POP JUMP JUMPDEST PUSH2 0x3B7 PUSH2 0x3B2 DUP3 PUSH2 0x241 JUMP JUMPDEST PUSH2 0x39C JUMP JUMPDEST DUP3 MSTORE POP POP JUMP JUMPDEST PUSH1 0x0 DUP2 SWAP1 POP SWAP2 SWAP1 POP JUMP JUMPDEST PUSH2 0x3D8 PUSH2 0x3D3 DUP3 PUSH2 0x305 JUMP JUMPDEST PUSH2 0x3BD JUMP JUMPDEST DUP3 MSTORE POP POP JUMP JUMPDEST PUSH1 0x0 DUP2 SWAP1 POP SWAP2 SWAP1 POP JUMP JUMPDEST PUSH2 0x3F9 PUSH2 0x3F4 DUP3 PUSH2 0x368 JUMP JUMPDEST PUSH2 0x3DE JUMP JUMPDEST DUP3 MSTORE POP POP JUMP JUMPDEST PUSH1 0x0 PUSH2 0x40B DUP3 DUP7 PUSH2 0x3A6 JUMP JUMPDEST PUSH1 0x20 DUP3 ADD SWAP2 POP PUSH2 0x41B DUP3 DUP6 PUSH2 0x3C7 JUMP JUMPDEST PUSH1 0x20 DUP3 ADD SWAP2 POP PUSH2 0x42B DUP3 DUP5 PUSH2 0x3E8 JUMP JUMPDEST PUSH1 0x20 DUP3 ADD SWAP2 POP DUP2 SWAP1 POP SWAP5 SWAP4 POP POP POP POP JUMP JUMPDEST PUSH1 0x0 DUP2 MLOAD SWAP1 POP SWAP2 SWAP1 POP JUMP JUMPDEST PUSH1 0x0 DUP2 SWAP1 POP SWAP3 SWAP2 POP POP JUMP JUMPDEST PUSH1 0x0 JUMPDEST DUP4 DUP2 LT ISZERO PUSH2 0x470 JUMPI DUP1 DUP3 ADD MLOAD DUP2 DUP5 ADD MSTORE PUSH1 0x20 DUP2 ADD SWAP1 POP PUSH2 0x455 JUMP JUMPDEST DUP4 DUP2 GT ISZERO PUSH2 0x47F JUMPI PUSH1 0x0 DUP5 DUP5 ADD MSTORE JUMPDEST POP POP POP POP JUMP JUMPDEST PUSH1 0x0 PUSH2 0x490 DUP3 PUSH2 0x43C JUMP JUMPDEST PUSH2 0x49A DUP2 DUP6 PUSH2 0x447 JUMP JUMPDEST SWAP4 POP PUSH2 0x4AA DUP2 DUP6 PUSH1 0x20 DUP7 ADD PUSH2 0x452 JUMP JUMPDEST DUP1 DUP5 ADD SWAP2 POP POP SWAP3 SWAP2 POP POP JUMP JUMPDEST PUSH1 0x0 PUSH2 0x4C2 DUP3 DUP5 PUSH2 0x485 JUMP JUMPDEST SWAP2 POP DUP2 SWAP1 POP SWAP3 SWAP2 POP POP JUMP JUMPDEST PUSH2 0x4D6 DUP2 PUSH2 0x368 JUMP JUMPDEST DUP2 EQ PUSH2 0x4E1 JUMPI PUSH1 0x0 DUP1 REVERT JUMPDEST POP JUMP JUMPDEST PUSH1 0x0 DUP2 MLOAD SWAP1 POP PUSH2 0x4F3 DUP2 PUSH2 0x4CD JUMP JUMPDEST SWAP3 SWAP2 POP POP JUMP JUMPDEST PUSH1 0x0 PUSH1 0x20 DUP3 DUP5 SUB SLT ISZERO PUSH2 0x50F JUMPI PUSH2 0x50E PUSH2 0x275 JUMP JUMPDEST JUMPDEST PUSH1 0x0 PUSH2 0x51D DUP5 DUP3 DUP6 ADD PUSH2 0x4E4 JUMP JUMPDEST SWAP2 POP POP SWAP3 SWAP2 POP POP JUMP INVALID LOG2 PUSH5 0x6970667358 0x22 SLT KECCAK256 0xCF PUSH3 0x9469AE 0xBF STOP 0xDE 0xEC GASPRICE PUSH28 0x5C5E9F1C032F61CAA87DB2E90AFA87F8EBA2BC71D164736F6C634300 ADDMOD SIGNEXTEND STOP CALLER "
				},
				"gasEstimates": {
					"creation": {
						"codeDepositCost": "274400",
						"executionCost": "312",
						"totalCost": "274712"
					},
					"external": {
						"Block(int256)": "infinite",
						"balanceOf()": "317",
						"getBalance(address)": "2907",
						"getBalanceInEth(address)": "2884",
						"invest()": "189"
					}
				},
				"methodIdentifiers": {
					"Block(int256)": "8c6f2e82",
					"balanceOf()": "722713f7",
					"getBalance(address)": "f8b2cb4f",
					"getBalanceInEth(address)": "7bd703e8",
					"invest()": "e8b5e51f"
				}
			},
			"storageLayout": {
				"storage": [
					{
						"astId": 5,
						"contract": "contracts/transact.sol:transact",
						"label": "balances",
						"offset": 0,
						"slot": "0",
						"type": "t_mapping(t_address,t_uint256)"
					}
				],
				"types": {
					"t_address": {
						"encoding": "inplace",
						"label": "address",
						"numberOfBytes": "20"
					},
					"t_mapping(t_address,t_uint256)": {
						"encoding": "mapping",
						"key": "t_address",
						"label": "mapping(address => uint256)",
						"numberOfBytes": "32",
						"value": "t_uint256"
					},
					"t_uint256": {
						"encoding": "inplace",
						"label": "uint256",
						"numberOfBytes": "32"
					}
				}
			},
			"userdoc": {
				"kind": "user",
				"methods": {},
				"version": 1
			}
		}
	}
}