{
	"contracts/transact.sol": {
		"transact": {
			"abi": [
				{
					"inputs": [],
					"stateMutability": "nonpayable",
					"type": "constructor"
				},
				{
					"inputs": [
						{
							"internalType": "int256",
							"name": "transactions",
							"type": "int256"
						}
					],
					"name": "Block",
					"outputs": [
						{
							"internalType": "bytes32",
							"name": "hashin",
							"type": "bytes32"
						}
					],
					"stateMutability": "nonpayable",
					"type": "function"
				},
				{
					"inputs": [],
					"name": "invest",
					"outputs": [],
					"stateMutability": "payable",
					"type": "function"
				},
				{
					"inputs": [],
					"name": "prevHash",
					"outputs": [
						{
							"internalType": "bytes32",
							"name": "",
							"type": "bytes32"
						}
					],
					"stateMutability": "view",
					"type": "function"
				},
				{
					"inputs": [],
					"name": "previousHash",
					"outputs": [
						{
							"internalType": "bytes32",
							"name": "",
							"type": "bytes32"
						}
					],
					"stateMutability": "view",
					"type": "function"
				}
			],
			"devdoc": {
				"kind": "dev",
				"methods": {},
				"version": 1
			},
			"evm": {
				"assembly": "    /* \"contracts/transact.sol\":60:688  contract transact {... */\n  mstore(0x40, 0x80)\n    /* \"contracts/transact.sol\":119:166  constructor(){... */\n  callvalue\n  dup1\n  iszero\n  tag_1\n  jumpi\n  0x00\n  dup1\n  revert\ntag_1:\n  pop\n    /* \"contracts/transact.sol\":157:158  0 */\n  0x00\n    /* \"contracts/transact.sol\":143:158  previousHash= 0 */\n  dup1\n  shl\n    /* \"contracts/transact.sol\":143:155  previousHash */\n  0x00\n    /* \"contracts/transact.sol\":143:158  previousHash= 0 */\n  dup2\n  swap1\n  sstore\n  pop\n    /* \"contracts/transact.sol\":60:688  contract transact {... */\n  dataSize(sub_0)\n  dup1\n  dataOffset(sub_0)\n  0x00\n  codecopy\n  0x00\n  return\nstop\n\nsub_0: assembly {\n        /* \"contracts/transact.sol\":60:688  contract transact {... */\n      mstore(0x40, 0x80)\n      jumpi(tag_1, lt(calldatasize, 0x04))\n      shr(0xe0, calldataload(0x00))\n      dup1\n      0x69e9c066\n      eq\n      tag_2\n      jumpi\n      dup1\n      0x8c6f2e82\n      eq\n      tag_3\n      jumpi\n      dup1\n      0xd4d52df4\n      eq\n      tag_4\n      jumpi\n      dup1\n      0xe8b5e51f\n      eq\n      tag_5\n      jumpi\n    tag_1:\n      0x00\n      dup1\n      revert\n        /* \"contracts/transact.sol\":593:679  function prevHash() public view returns(bytes32){... */\n    tag_2:\n      callvalue\n      dup1\n      iszero\n      tag_6\n      jumpi\n      0x00\n      dup1\n      revert\n    tag_6:\n      pop\n      tag_7\n      tag_8\n      jump\t// in\n    tag_7:\n      mload(0x40)\n      tag_9\n      swap2\n      swap1\n      tag_10\n      jump\t// in\n    tag_9:\n      mload(0x40)\n      dup1\n      swap2\n      sub\n      swap1\n      return\n        /* \"contracts/transact.sol\":332:585  function Block(int transactions)public returns(bytes32 hashin){... */\n    tag_3:\n      callvalue\n      dup1\n      iszero\n      tag_11\n      jumpi\n      0x00\n      dup1\n      revert\n    tag_11:\n      pop\n      tag_12\n      0x04\n      dup1\n      calldatasize\n      sub\n      dup2\n      add\n      swap1\n      tag_13\n      swap2\n      swap1\n      tag_14\n      jump\t// in\n    tag_13:\n      tag_15\n      jump\t// in\n    tag_12:\n      mload(0x40)\n      tag_16\n      swap2\n      swap1\n      tag_10\n      jump\t// in\n    tag_16:\n      mload(0x40)\n      dup1\n      swap2\n      sub\n      swap1\n      return\n        /* \"contracts/transact.sol\":85:112  bytes32 public previousHash */\n    tag_4:\n      callvalue\n      dup1\n      iszero\n      tag_17\n      jumpi\n      0x00\n      dup1\n      revert\n    tag_17:\n      pop\n      tag_18\n      tag_19\n      jump\t// in\n    tag_18:\n      mload(0x40)\n      tag_20\n      swap2\n      swap1\n      tag_10\n      jump\t// in\n    tag_20:\n      mload(0x40)\n      dup1\n      swap2\n      sub\n      swap1\n      return\n        /* \"contracts/transact.sol\":213:326  function invest() external payable {... */\n    tag_5:\n      tag_21\n      tag_22\n      jump\t// in\n    tag_21:\n      stop\n        /* \"contracts/transact.sol\":593:679  function prevHash() public view returns(bytes32){... */\n    tag_8:\n        /* \"contracts/transact.sol\":633:640  bytes32 */\n      0x00\n        /* \"contracts/transact.sol\":659:671  previousHash */\n      dup1\n      sload\n        /* \"contracts/transact.sol\":652:671  return previousHash */\n      swap1\n      pop\n        /* \"contracts/transact.sol\":593:679  function prevHash() public view returns(bytes32){... */\n      swap1\n      jump\t// out\n        /* \"contracts/transact.sol\":332:585  function Block(int transactions)public returns(bytes32 hashin){... */\n    tag_15:\n        /* \"contracts/transact.sol\":379:393  bytes32 hashin */\n      0x00\n        /* \"contracts/transact.sol\":404:413  uint time */\n      dup1\n        /* \"contracts/transact.sol\":415:430  block.timestamp */\n      timestamp\n        /* \"contracts/transact.sol\":404:430  uint time= block.timestamp */\n      swap1\n      pop\n        /* \"contracts/transact.sol\":440:464  bytes32 ... */\n      0x00\n        /* \"contracts/transact.sol\":466:522  sha256(abi.encodePacked(time,transactions,previousHash)) */\n      0x02\n        /* \"contracts/transact.sol\":490:494  time */\n      dup3\n        /* \"contracts/transact.sol\":495:507  transactions */\n      dup6\n        /* \"contracts/transact.sol\":508:520  previousHash */\n      sload(0x00)\n        /* \"contracts/transact.sol\":473:521  abi.encodePacked(time,transactions,previousHash) */\n      add(0x20, mload(0x40))\n      tag_25\n      swap4\n      swap3\n      swap2\n      swap1\n      tag_26\n      jump\t// in\n    tag_25:\n      mload(0x40)\n      0x20\n      dup2\n      dup4\n      sub\n      sub\n      dup2\n      mstore\n      swap1\n      0x40\n      mstore\n        /* \"contracts/transact.sol\":466:522  sha256(abi.encodePacked(time,transactions,previousHash)) */\n      mload(0x40)\n      tag_27\n      swap2\n      swap1\n      tag_28\n      jump\t// in\n    tag_27:\n      0x20\n      mload(0x40)\n      dup1\n      dup4\n      sub\n      dup2\n      dup6\n      gas\n      staticcall\n      iszero\n      dup1\n      iszero\n      tag_30\n      jumpi\n      returndatasize\n      0x00\n      dup1\n      returndatacopy\n      revert(0x00, returndatasize)\n    tag_30:\n      pop\n      pop\n      pop\n      mload(0x40)\n      returndatasize\n      not(0x1f)\n      0x1f\n      dup3\n      add\n      and\n      dup3\n      add\n      dup1\n      0x40\n      mstore\n      pop\n      dup2\n      add\n      swap1\n      tag_31\n      swap2\n      swap1\n      tag_32\n      jump\t// in\n    tag_31:\n        /* \"contracts/transact.sol\":440:522  bytes32 ... */\n      swap1\n      pop\n        /* \"contracts/transact.sol\":546:552  hashin */\n      dup1\n        /* \"contracts/transact.sol\":533:545  previousHash */\n      0x00\n        /* \"contracts/transact.sol\":533:552  previousHash=hashin */\n      dup2\n      swap1\n      sstore\n      pop\n        /* \"contracts/transact.sol\":570:576  hashin */\n      dup1\n        /* \"contracts/transact.sol\":563:576  return hashin */\n      swap3\n      pop\n      pop\n      pop\n        /* \"contracts/transact.sol\":332:585  function Block(int transactions)public returns(bytes32 hashin){... */\n      swap2\n      swap1\n      pop\n      jump\t// out\n        /* \"contracts/transact.sol\":85:112  bytes32 public previousHash */\n    tag_19:\n      sload(0x00)\n      dup2\n      jump\t// out\n        /* \"contracts/transact.sol\":213:326  function invest() external payable {... */\n    tag_22:\n        /* \"contracts/transact.sol\":274:281  1 ether */\n      0x0de0b6b3a7640000\n        /* \"contracts/transact.sol\":262:271  msg.value */\n      callvalue\n        /* \"contracts/transact.sol\":262:281  msg.value < 1 ether */\n      lt\n        /* \"contracts/transact.sol\":259:317  if(msg.value < 1 ether){... */\n      iszero\n      tag_34\n      jumpi\n        /* \"contracts/transact.sol\":297:305  revert() */\n      0x00\n      dup1\n      revert\n        /* \"contracts/transact.sol\":259:317  if(msg.value < 1 ether){... */\n    tag_34:\n        /* \"contracts/transact.sol\":213:326  function invest() external payable {... */\n      jump\t// out\n        /* \"#utility.yul\":7:84   */\n    tag_35:\n        /* \"#utility.yul\":44:51   */\n      0x00\n        /* \"#utility.yul\":73:78   */\n      dup2\n        /* \"#utility.yul\":62:78   */\n      swap1\n      pop\n        /* \"#utility.yul\":7:84   */\n      swap2\n      swap1\n      pop\n      jump\t// out\n        /* \"#utility.yul\":90:208   */\n    tag_36:\n        /* \"#utility.yul\":177:201   */\n      tag_59\n        /* \"#utility.yul\":195:200   */\n      dup2\n        /* \"#utility.yul\":177:201   */\n      tag_35\n      jump\t// in\n    tag_59:\n        /* \"#utility.yul\":172:175   */\n      dup3\n        /* \"#utility.yul\":165:202   */\n      mstore\n        /* \"#utility.yul\":90:208   */\n      pop\n      pop\n      jump\t// out\n        /* \"#utility.yul\":214:436   */\n    tag_10:\n        /* \"#utility.yul\":307:311   */\n      0x00\n        /* \"#utility.yul\":345:347   */\n      0x20\n        /* \"#utility.yul\":334:343   */\n      dup3\n        /* \"#utility.yul\":330:348   */\n      add\n        /* \"#utility.yul\":322:348   */\n      swap1\n      pop\n        /* \"#utility.yul\":358:429   */\n      tag_61\n        /* \"#utility.yul\":426:427   */\n      0x00\n        /* \"#utility.yul\":415:424   */\n      dup4\n        /* \"#utility.yul\":411:428   */\n      add\n        /* \"#utility.yul\":402:408   */\n      dup5\n        /* \"#utility.yul\":358:429   */\n      tag_36\n      jump\t// in\n    tag_61:\n        /* \"#utility.yul\":214:436   */\n      swap3\n      swap2\n      pop\n      pop\n      jump\t// out\n        /* \"#utility.yul\":523:640   */\n    tag_38:\n        /* \"#utility.yul\":632:633   */\n      0x00\n        /* \"#utility.yul\":629:630   */\n      dup1\n        /* \"#utility.yul\":622:634   */\n      revert\n        /* \"#utility.yul\":769:845   */\n    tag_40:\n        /* \"#utility.yul\":805:812   */\n      0x00\n        /* \"#utility.yul\":834:839   */\n      dup2\n        /* \"#utility.yul\":823:839   */\n      swap1\n      pop\n        /* \"#utility.yul\":769:845   */\n      swap2\n      swap1\n      pop\n      jump\t// out\n        /* \"#utility.yul\":851:971   */\n    tag_41:\n        /* \"#utility.yul\":923:946   */\n      tag_67\n        /* \"#utility.yul\":940:945   */\n      dup2\n        /* \"#utility.yul\":923:946   */\n      tag_40\n      jump\t// in\n    tag_67:\n        /* \"#utility.yul\":916:921   */\n      dup2\n        /* \"#utility.yul\":913:947   */\n      eq\n        /* \"#utility.yul\":903:965   */\n      tag_68\n      jumpi\n        /* \"#utility.yul\":961:962   */\n      0x00\n        /* \"#utility.yul\":958:959   */\n      dup1\n        /* \"#utility.yul\":951:963   */\n      revert\n        /* \"#utility.yul\":903:965   */\n    tag_68:\n        /* \"#utility.yul\":851:971   */\n      pop\n      jump\t// out\n        /* \"#utility.yul\":977:1114   */\n    tag_42:\n        /* \"#utility.yul\":1022:1027   */\n      0x00\n        /* \"#utility.yul\":1060:1066   */\n      dup2\n        /* \"#utility.yul\":1047:1067   */\n      calldataload\n        /* \"#utility.yul\":1038:1067   */\n      swap1\n      pop\n        /* \"#utility.yul\":1076:1108   */\n      tag_70\n        /* \"#utility.yul\":1102:1107   */\n      dup2\n        /* \"#utility.yul\":1076:1108   */\n      tag_41\n      jump\t// in\n    tag_70:\n        /* \"#utility.yul\":977:1114   */\n      swap3\n      swap2\n      pop\n      pop\n      jump\t// out\n        /* \"#utility.yul\":1120:1447   */\n    tag_14:\n        /* \"#utility.yul\":1178:1184   */\n      0x00\n        /* \"#utility.yul\":1227:1229   */\n      0x20\n        /* \"#utility.yul\":1215:1224   */\n      dup3\n        /* \"#utility.yul\":1206:1213   */\n      dup5\n        /* \"#utility.yul\":1202:1225   */\n      sub\n        /* \"#utility.yul\":1198:1230   */\n      slt\n        /* \"#utility.yul\":1195:1314   */\n      iszero\n      tag_72\n      jumpi\n        /* \"#utility.yul\":1233:1312   */\n      tag_73\n      tag_38\n      jump\t// in\n    tag_73:\n        /* \"#utility.yul\":1195:1314   */\n    tag_72:\n        /* \"#utility.yul\":1353:1354   */\n      0x00\n        /* \"#utility.yul\":1378:1430   */\n      tag_74\n        /* \"#utility.yul\":1422:1429   */\n      dup5\n        /* \"#utility.yul\":1413:1419   */\n      dup3\n        /* \"#utility.yul\":1402:1411   */\n      dup6\n        /* \"#utility.yul\":1398:1420   */\n      add\n        /* \"#utility.yul\":1378:1430   */\n      tag_42\n      jump\t// in\n    tag_74:\n        /* \"#utility.yul\":1368:1430   */\n      swap2\n      pop\n        /* \"#utility.yul\":1324:1440   */\n      pop\n        /* \"#utility.yul\":1120:1447   */\n      swap3\n      swap2\n      pop\n      pop\n      jump\t// out\n        /* \"#utility.yul\":1453:1530   */\n    tag_43:\n        /* \"#utility.yul\":1490:1497   */\n      0x00\n        /* \"#utility.yul\":1519:1524   */\n      dup2\n        /* \"#utility.yul\":1508:1524   */\n      swap1\n      pop\n        /* \"#utility.yul\":1453:1530   */\n      swap2\n      swap1\n      pop\n      jump\t// out\n        /* \"#utility.yul\":1536:1615   */\n    tag_44:\n        /* \"#utility.yul\":1575:1582   */\n      0x00\n        /* \"#utility.yul\":1604:1609   */\n      dup2\n        /* \"#utility.yul\":1593:1609   */\n      swap1\n      pop\n        /* \"#utility.yul\":1536:1615   */\n      swap2\n      swap1\n      pop\n      jump\t// out\n        /* \"#utility.yul\":1621:1778   */\n    tag_45:\n        /* \"#utility.yul\":1726:1771   */\n      tag_78\n        /* \"#utility.yul\":1746:1770   */\n      tag_79\n        /* \"#utility.yul\":1764:1769   */\n      dup3\n        /* \"#utility.yul\":1746:1770   */\n      tag_43\n      jump\t// in\n    tag_79:\n        /* \"#utility.yul\":1726:1771   */\n      tag_44\n      jump\t// in\n    tag_78:\n        /* \"#utility.yul\":1721:1724   */\n      dup3\n        /* \"#utility.yul\":1714:1772   */\n      mstore\n        /* \"#utility.yul\":1621:1778   */\n      pop\n      pop\n      jump\t// out\n        /* \"#utility.yul\":1784:1862   */\n    tag_46:\n        /* \"#utility.yul\":1822:1829   */\n      0x00\n        /* \"#utility.yul\":1851:1856   */\n      dup2\n        /* \"#utility.yul\":1840:1856   */\n      swap1\n      pop\n        /* \"#utility.yul\":1784:1862   */\n      swap2\n      swap1\n      pop\n      jump\t// out\n        /* \"#utility.yul\":1868:2021   */\n    tag_47:\n        /* \"#utility.yul\":1971:2014   */\n      tag_82\n        /* \"#utility.yul\":1990:2013   */\n      tag_83\n        /* \"#utility.yul\":2007:2012   */\n      dup3\n        /* \"#utility.yul\":1990:2013   */\n      tag_40\n      jump\t// in\n    tag_83:\n        /* \"#utility.yul\":1971:2014   */\n      tag_46\n      jump\t// in\n    tag_82:\n        /* \"#utility.yul\":1966:1969   */\n      dup3\n        /* \"#utility.yul\":1959:2015   */\n      mstore\n        /* \"#utility.yul\":1868:2021   */\n      pop\n      pop\n      jump\t// out\n        /* \"#utility.yul\":2027:2106   */\n    tag_48:\n        /* \"#utility.yul\":2066:2073   */\n      0x00\n        /* \"#utility.yul\":2095:2100   */\n      dup2\n        /* \"#utility.yul\":2084:2100   */\n      swap1\n      pop\n        /* \"#utility.yul\":2027:2106   */\n      swap2\n      swap1\n      pop\n      jump\t// out\n        /* \"#utility.yul\":2112:2269   */\n    tag_49:\n        /* \"#utility.yul\":2217:2262   */\n      tag_86\n        /* \"#utility.yul\":2237:2261   */\n      tag_87\n        /* \"#utility.yul\":2255:2260   */\n      dup3\n        /* \"#utility.yul\":2237:2261   */\n      tag_35\n      jump\t// in\n    tag_87:\n        /* \"#utility.yul\":2217:2262   */\n      tag_48\n      jump\t// in\n    tag_86:\n        /* \"#utility.yul\":2212:2215   */\n      dup3\n        /* \"#utility.yul\":2205:2263   */\n      mstore\n        /* \"#utility.yul\":2112:2269   */\n      pop\n      pop\n      jump\t// out\n        /* \"#utility.yul\":2275:2809   */\n    tag_26:\n        /* \"#utility.yul\":2441:2444   */\n      0x00\n        /* \"#utility.yul\":2456:2531   */\n      tag_89\n        /* \"#utility.yul\":2527:2530   */\n      dup3\n        /* \"#utility.yul\":2518:2524   */\n      dup7\n        /* \"#utility.yul\":2456:2531   */\n      tag_45\n      jump\t// in\n    tag_89:\n        /* \"#utility.yul\":2556:2558   */\n      0x20\n        /* \"#utility.yul\":2551:2554   */\n      dup3\n        /* \"#utility.yul\":2547:2559   */\n      add\n        /* \"#utility.yul\":2540:2559   */\n      swap2\n      pop\n        /* \"#utility.yul\":2569:2642   */\n      tag_90\n        /* \"#utility.yul\":2638:2641   */\n      dup3\n        /* \"#utility.yul\":2629:2635   */\n      dup6\n        /* \"#utility.yul\":2569:2642   */\n      tag_47\n      jump\t// in\n    tag_90:\n        /* \"#utility.yul\":2667:2669   */\n      0x20\n        /* \"#utility.yul\":2662:2665   */\n      dup3\n        /* \"#utility.yul\":2658:2670   */\n      add\n        /* \"#utility.yul\":2651:2670   */\n      swap2\n      pop\n        /* \"#utility.yul\":2680:2755   */\n      tag_91\n        /* \"#utility.yul\":2751:2754   */\n      dup3\n        /* \"#utility.yul\":2742:2748   */\n      dup5\n        /* \"#utility.yul\":2680:2755   */\n      tag_49\n      jump\t// in\n    tag_91:\n        /* \"#utility.yul\":2780:2782   */\n      0x20\n        /* \"#utility.yul\":2775:2778   */\n      dup3\n        /* \"#utility.yul\":2771:2783   */\n      add\n        /* \"#utility.yul\":2764:2783   */\n      swap2\n      pop\n        /* \"#utility.yul\":2800:2803   */\n      dup2\n        /* \"#utility.yul\":2793:2803   */\n      swap1\n      pop\n        /* \"#utility.yul\":2275:2809   */\n      swap5\n      swap4\n      pop\n      pop\n      pop\n      pop\n      jump\t// out\n        /* \"#utility.yul\":2815:2913   */\n    tag_50:\n        /* \"#utility.yul\":2866:2872   */\n      0x00\n        /* \"#utility.yul\":2900:2905   */\n      dup2\n        /* \"#utility.yul\":2894:2906   */\n      mload\n        /* \"#utility.yul\":2884:2906   */\n      swap1\n      pop\n        /* \"#utility.yul\":2815:2913   */\n      swap2\n      swap1\n      pop\n      jump\t// out\n        /* \"#utility.yul\":2919:3066   */\n    tag_51:\n        /* \"#utility.yul\":3020:3031   */\n      0x00\n        /* \"#utility.yul\":3057:3060   */\n      dup2\n        /* \"#utility.yul\":3042:3060   */\n      swap1\n      pop\n        /* \"#utility.yul\":2919:3066   */\n      swap3\n      swap2\n      pop\n      pop\n      jump\t// out\n        /* \"#utility.yul\":3072:3379   */\n    tag_52:\n        /* \"#utility.yul\":3140:3141   */\n      0x00\n        /* \"#utility.yul\":3150:3263   */\n    tag_95:\n        /* \"#utility.yul\":3164:3170   */\n      dup4\n        /* \"#utility.yul\":3161:3162   */\n      dup2\n        /* \"#utility.yul\":3158:3171   */\n      lt\n        /* \"#utility.yul\":3150:3263   */\n      iszero\n      tag_97\n      jumpi\n        /* \"#utility.yul\":3249:3250   */\n      dup1\n        /* \"#utility.yul\":3244:3247   */\n      dup3\n        /* \"#utility.yul\":3240:3251   */\n      add\n        /* \"#utility.yul\":3234:3252   */\n      mload\n        /* \"#utility.yul\":3230:3231   */\n      dup2\n        /* \"#utility.yul\":3225:3228   */\n      dup5\n        /* \"#utility.yul\":3221:3232   */\n      add\n        /* \"#utility.yul\":3214:3253   */\n      mstore\n        /* \"#utility.yul\":3186:3188   */\n      0x20\n        /* \"#utility.yul\":3183:3184   */\n      dup2\n        /* \"#utility.yul\":3179:3189   */\n      add\n        /* \"#utility.yul\":3174:3189   */\n      swap1\n      pop\n        /* \"#utility.yul\":3150:3263   */\n      jump(tag_95)\n    tag_97:\n        /* \"#utility.yul\":3281:3287   */\n      dup4\n        /* \"#utility.yul\":3278:3279   */\n      dup2\n        /* \"#utility.yul\":3275:3288   */\n      gt\n        /* \"#utility.yul\":3272:3373   */\n      iszero\n      tag_98\n      jumpi\n        /* \"#utility.yul\":3361:3362   */\n      0x00\n        /* \"#utility.yul\":3352:3358   */\n      dup5\n        /* \"#utility.yul\":3347:3350   */\n      dup5\n        /* \"#utility.yul\":3343:3359   */\n      add\n        /* \"#utility.yul\":3336:3363   */\n      mstore\n        /* \"#utility.yul\":3272:3373   */\n    tag_98:\n        /* \"#utility.yul\":3121:3379   */\n      pop\n        /* \"#utility.yul\":3072:3379   */\n      pop\n      pop\n      pop\n      jump\t// out\n        /* \"#utility.yul\":3385:3758   */\n    tag_53:\n        /* \"#utility.yul\":3489:3492   */\n      0x00\n        /* \"#utility.yul\":3517:3555   */\n      tag_100\n        /* \"#utility.yul\":3549:3554   */\n      dup3\n        /* \"#utility.yul\":3517:3555   */\n      tag_50\n      jump\t// in\n    tag_100:\n        /* \"#utility.yul\":3571:3659   */\n      tag_101\n        /* \"#utility.yul\":3652:3658   */\n      dup2\n        /* \"#utility.yul\":3647:3650   */\n      dup6\n        /* \"#utility.yul\":3571:3659   */\n      tag_51\n      jump\t// in\n    tag_101:\n        /* \"#utility.yul\":3564:3659   */\n      swap4\n      pop\n        /* \"#utility.yul\":3668:3720   */\n      tag_102\n        /* \"#utility.yul\":3713:3719   */\n      dup2\n        /* \"#utility.yul\":3708:3711   */\n      dup6\n        /* \"#utility.yul\":3701:3705   */\n      0x20\n        /* \"#utility.yul\":3694:3699   */\n      dup7\n        /* \"#utility.yul\":3690:3706   */\n      add\n        /* \"#utility.yul\":3668:3720   */\n      tag_52\n      jump\t// in\n    tag_102:\n        /* \"#utility.yul\":3745:3751   */\n      dup1\n        /* \"#utility.yul\":3740:3743   */\n      dup5\n        /* \"#utility.yul\":3736:3752   */\n      add\n        /* \"#utility.yul\":3729:3752   */\n      swap2\n      pop\n        /* \"#utility.yul\":3493:3758   */\n      pop\n        /* \"#utility.yul\":3385:3758   */\n      swap3\n      swap2\n      pop\n      pop\n      jump\t// out\n        /* \"#utility.yul\":3764:4035   */\n    tag_28:\n        /* \"#utility.yul\":3894:3897   */\n      0x00\n        /* \"#utility.yul\":3916:4009   */\n      tag_104\n        /* \"#utility.yul\":4005:4008   */\n      dup3\n        /* \"#utility.yul\":3996:4002   */\n      dup5\n        /* \"#utility.yul\":3916:4009   */\n      tag_53\n      jump\t// in\n    tag_104:\n        /* \"#utility.yul\":3909:4009   */\n      swap2\n      pop\n        /* \"#utility.yul\":4026:4029   */\n      dup2\n        /* \"#utility.yul\":4019:4029   */\n      swap1\n      pop\n        /* \"#utility.yul\":3764:4035   */\n      swap3\n      swap2\n      pop\n      pop\n      jump\t// out\n        /* \"#utility.yul\":4041:4163   */\n    tag_54:\n        /* \"#utility.yul\":4114:4138   */\n      tag_106\n        /* \"#utility.yul\":4132:4137   */\n      dup2\n        /* \"#utility.yul\":4114:4138   */\n      tag_35\n      jump\t// in\n    tag_106:\n        /* \"#utility.yul\":4107:4112   */\n      dup2\n        /* \"#utility.yul\":4104:4139   */\n      eq\n        /* \"#utility.yul\":4094:4157   */\n      tag_107\n      jumpi\n        /* \"#utility.yul\":4153:4154   */\n      0x00\n        /* \"#utility.yul\":4150:4151   */\n      dup1\n        /* \"#utility.yul\":4143:4155   */\n      revert\n        /* \"#utility.yul\":4094:4157   */\n    tag_107:\n        /* \"#utility.yul\":4041:4163   */\n      pop\n      jump\t// out\n        /* \"#utility.yul\":4169:4312   */\n    tag_55:\n        /* \"#utility.yul\":4226:4231   */\n      0x00\n        /* \"#utility.yul\":4257:4263   */\n      dup2\n        /* \"#utility.yul\":4251:4264   */\n      mload\n        /* \"#utility.yul\":4242:4264   */\n      swap1\n      pop\n        /* \"#utility.yul\":4273:4306   */\n      tag_109\n        /* \"#utility.yul\":4300:4305   */\n      dup2\n        /* \"#utility.yul\":4273:4306   */\n      tag_54\n      jump\t// in\n    tag_109:\n        /* \"#utility.yul\":4169:4312   */\n      swap3\n      swap2\n      pop\n      pop\n      jump\t// out\n        /* \"#utility.yul\":4318:4669   */\n    tag_32:\n        /* \"#utility.yul\":4388:4394   */\n      0x00\n        /* \"#utility.yul\":4437:4439   */\n      0x20\n        /* \"#utility.yul\":4425:4434   */\n      dup3\n        /* \"#utility.yul\":4416:4423   */\n      dup5\n        /* \"#utility.yul\":4412:4435   */\n      sub\n        /* \"#utility.yul\":4408:4440   */\n      slt\n        /* \"#utility.yul\":4405:4524   */\n      iszero\n      tag_111\n      jumpi\n        /* \"#utility.yul\":4443:4522   */\n      tag_112\n      tag_38\n      jump\t// in\n    tag_112:\n        /* \"#utility.yul\":4405:4524   */\n    tag_111:\n        /* \"#utility.yul\":4563:4564   */\n      0x00\n        /* \"#utility.yul\":4588:4652   */\n      tag_113\n        /* \"#utility.yul\":4644:4651   */\n      dup5\n        /* \"#utility.yul\":4635:4641   */\n      dup3\n        /* \"#utility.yul\":4624:4633   */\n      dup6\n        /* \"#utility.yul\":4620:4642   */\n      add\n        /* \"#utility.yul\":4588:4652   */\n      tag_55\n      jump\t// in\n    tag_113:\n        /* \"#utility.yul\":4578:4652   */\n      swap2\n      pop\n        /* \"#utility.yul\":4534:4662   */\n      pop\n        /* \"#utility.yul\":4318:4669   */\n      swap3\n      swap2\n      pop\n      pop\n      jump\t// out\n\n    auxdata: 0xa26469706673582212203b25516b0034ba67c42e34d9ba2fdc8ace8648766d1e4d7647e1aaf05fcad26664736f6c634300080b0033\n}\n",
				"bytecode": {
					"linkReferences": {},
					"object": "608060405234801561001057600080fd5b506000801b6000819055506103fd8061002a6000396000f3fe60806040526004361061003f5760003560e01c806369e9c066146100445780638c6f2e821461006f578063d4d52df4146100ac578063e8b5e51f146100d7575b600080fd5b34801561005057600080fd5b506100596100e1565b60405161006691906101b0565b60405180910390f35b34801561007b57600080fd5b5061009660048036038101906100919190610206565b6100ea565b6040516100a391906101b0565b60405180910390f35b3480156100b857600080fd5b506100c161017a565b6040516100ce91906101b0565b60405180910390f35b6100df610180565b005b60008054905090565b60008042905060006002828560005460405160200161010b939291906102a0565b6040516020818303038152906040526040516101279190610357565b602060405180830381855afa158015610144573d6000803e3d6000fd5b5050506040513d601f19601f82011682018060405250810190610167919061039a565b9050806000819055508092505050919050565b60005481565b670de0b6b3a764000034101561019557600080fd5b565b6000819050919050565b6101aa81610197565b82525050565b60006020820190506101c560008301846101a1565b92915050565b600080fd5b6000819050919050565b6101e3816101d0565b81146101ee57600080fd5b50565b600081359050610200816101da565b92915050565b60006020828403121561021c5761021b6101cb565b5b600061022a848285016101f1565b91505092915050565b6000819050919050565b6000819050919050565b61025861025382610233565b61023d565b82525050565b6000819050919050565b610279610274826101d0565b61025e565b82525050565b6000819050919050565b61029a61029582610197565b61027f565b82525050565b60006102ac8286610247565b6020820191506102bc8285610268565b6020820191506102cc8284610289565b602082019150819050949350505050565b600081519050919050565b600081905092915050565b60005b838110156103115780820151818401526020810190506102f6565b83811115610320576000848401525b50505050565b6000610331826102dd565b61033b81856102e8565b935061034b8185602086016102f3565b80840191505092915050565b60006103638284610326565b915081905092915050565b61037781610197565b811461038257600080fd5b50565b6000815190506103948161036e565b92915050565b6000602082840312156103b0576103af6101cb565b5b60006103be84828501610385565b9150509291505056fea26469706673582212203b25516b0034ba67c42e34d9ba2fdc8ace8648766d1e4d7647e1aaf05fcad26664736f6c634300080b0033",
					"opcodes": "PUSH1 0x80 PUSH1 0x40 MSTORE CALLVALUE DUP1 ISZERO PUSH2 0x10 JUMPI PUSH1 0x0 DUP1 REVERT JUMPDEST POP PUSH1 0x0 DUP1 SHL PUSH1 0x0 DUP2 SWAP1 SSTORE POP PUSH2 0x3FD DUP1 PUSH2 0x2A PUSH1 0x0 CODECOPY PUSH1 0x0 RETURN INVALID PUSH1 0x80 PUSH1 0x40 MSTORE PUSH1 0x4 CALLDATASIZE LT PUSH2 0x3F JUMPI PUSH1 0x0 CALLDATALOAD PUSH1 0xE0 SHR DUP1 PUSH4 0x69E9C066 EQ PUSH2 0x44 JUMPI DUP1 PUSH4 0x8C6F2E82 EQ PUSH2 0x6F JUMPI DUP1 PUSH4 0xD4D52DF4 EQ PUSH2 0xAC JUMPI DUP1 PUSH4 0xE8B5E51F EQ PUSH2 0xD7 JUMPI JUMPDEST PUSH1 0x0 DUP1 REVERT JUMPDEST CALLVALUE DUP1 ISZERO PUSH2 0x50 JUMPI PUSH1 0x0 DUP1 REVERT JUMPDEST POP PUSH2 0x59 PUSH2 0xE1 JUMP JUMPDEST PUSH1 0x40 MLOAD PUSH2 0x66 SWAP2 SWAP1 PUSH2 0x1B0 JUMP JUMPDEST PUSH1 0x40 MLOAD DUP1 SWAP2 SUB SWAP1 RETURN JUMPDEST CALLVALUE DUP1 ISZERO PUSH2 0x7B JUMPI PUSH1 0x0 DUP1 REVERT JUMPDEST POP PUSH2 0x96 PUSH1 0x4 DUP1 CALLDATASIZE SUB DUP2 ADD SWAP1 PUSH2 0x91 SWAP2 SWAP1 PUSH2 0x206 JUMP JUMPDEST PUSH2 0xEA JUMP JUMPDEST PUSH1 0x40 MLOAD PUSH2 0xA3 SWAP2 SWAP1 PUSH2 0x1B0 JUMP JUMPDEST PUSH1 0x40 MLOAD DUP1 SWAP2 SUB SWAP1 RETURN JUMPDEST CALLVALUE DUP1 ISZERO PUSH2 0xB8 JUMPI PUSH1 0x0 DUP1 REVERT JUMPDEST POP PUSH2 0xC1 PUSH2 0x17A JUMP JUMPDEST PUSH1 0x40 MLOAD PUSH2 0xCE SWAP2 SWAP1 PUSH2 0x1B0 JUMP JUMPDEST PUSH1 0x40 MLOAD DUP1 SWAP2 SUB SWAP1 RETURN JUMPDEST PUSH2 0xDF PUSH2 0x180 JUMP JUMPDEST STOP JUMPDEST PUSH1 0x0 DUP1 SLOAD SWAP1 POP SWAP1 JUMP JUMPDEST PUSH1 0x0 DUP1 TIMESTAMP SWAP1 POP PUSH1 0x0 PUSH1 0x2 DUP3 DUP6 PUSH1 0x0 SLOAD PUSH1 0x40 MLOAD PUSH1 0x20 ADD PUSH2 0x10B SWAP4 SWAP3 SWAP2 SWAP1 PUSH2 0x2A0 JUMP JUMPDEST PUSH1 0x40 MLOAD PUSH1 0x20 DUP2 DUP4 SUB SUB DUP2 MSTORE SWAP1 PUSH1 0x40 MSTORE PUSH1 0x40 MLOAD PUSH2 0x127 SWAP2 SWAP1 PUSH2 0x357 JUMP JUMPDEST PUSH1 0x20 PUSH1 0x40 MLOAD DUP1 DUP4 SUB DUP2 DUP6 GAS STATICCALL ISZERO DUP1 ISZERO PUSH2 0x144 JUMPI RETURNDATASIZE PUSH1 0x0 DUP1 RETURNDATACOPY RETURNDATASIZE PUSH1 0x0 REVERT JUMPDEST POP POP POP PUSH1 0x40 MLOAD RETURNDATASIZE PUSH1 0x1F NOT PUSH1 0x1F DUP3 ADD AND DUP3 ADD DUP1 PUSH1 0x40 MSTORE POP DUP2 ADD SWAP1 PUSH2 0x167 SWAP2 SWAP1 PUSH2 0x39A JUMP JUMPDEST SWAP1 POP DUP1 PUSH1 0x0 DUP2 SWAP1 SSTORE POP DUP1 SWAP3 POP POP POP SWAP2 SWAP1 POP JUMP JUMPDEST PUSH1 0x0 SLOAD DUP2 JUMP JUMPDEST PUSH8 0xDE0B6B3A7640000 CALLVALUE LT ISZERO PUSH2 0x195 JUMPI PUSH1 0x0 DUP1 REVERT JUMPDEST JUMP JUMPDEST PUSH1 0x0 DUP2 SWAP1 POP SWAP2 SWAP1 POP JUMP JUMPDEST PUSH2 0x1AA DUP2 PUSH2 0x197 JUMP JUMPDEST DUP3 MSTORE POP POP JUMP JUMPDEST PUSH1 0x0 PUSH1 0x20 DUP3 ADD SWAP1 POP PUSH2 0x1C5 PUSH1 0x0 DUP4 ADD DUP5 PUSH2 0x1A1 JUMP JUMPDEST SWAP3 SWAP2 POP POP JUMP JUMPDEST PUSH1 0x0 DUP1 REVERT JUMPDEST PUSH1 0x0 DUP2 SWAP1 POP SWAP2 SWAP1 POP JUMP JUMPDEST PUSH2 0x1E3 DUP2 PUSH2 0x1D0 JUMP JUMPDEST DUP2 EQ PUSH2 0x1EE JUMPI PUSH1 0x0 DUP1 REVERT JUMPDEST POP JUMP JUMPDEST PUSH1 0x0 DUP2 CALLDATALOAD SWAP1 POP PUSH2 0x200 DUP2 PUSH2 0x1DA JUMP JUMPDEST SWAP3 SWAP2 POP POP JUMP JUMPDEST PUSH1 0x0 PUSH1 0x20 DUP3 DUP5 SUB SLT ISZERO PUSH2 0x21C JUMPI PUSH2 0x21B PUSH2 0x1CB JUMP JUMPDEST JUMPDEST PUSH1 0x0 PUSH2 0x22A DUP5 DUP3 DUP6 ADD PUSH2 0x1F1 JUMP JUMPDEST SWAP2 POP POP SWAP3 SWAP2 POP POP JUMP JUMPDEST PUSH1 0x0 DUP2 SWAP1 POP SWAP2 SWAP1 POP JUMP JUMPDEST PUSH1 0x0 DUP2 SWAP1 POP SWAP2 SWAP1 POP JUMP JUMPDEST PUSH2 0x258 PUSH2 0x253 DUP3 PUSH2 0x233 JUMP JUMPDEST PUSH2 0x23D JUMP JUMPDEST DUP3 MSTORE POP POP JUMP JUMPDEST PUSH1 0x0 DUP2 SWAP1 POP SWAP2 SWAP1 POP JUMP JUMPDEST PUSH2 0x279 PUSH2 0x274 DUP3 PUSH2 0x1D0 JUMP JUMPDEST PUSH2 0x25E JUMP JUMPDEST DUP3 MSTORE POP POP JUMP JUMPDEST PUSH1 0x0 DUP2 SWAP1 POP SWAP2 SWAP1 POP JUMP JUMPDEST PUSH2 0x29A PUSH2 0x295 DUP3 PUSH2 0x197 JUMP JUMPDEST PUSH2 0x27F JUMP JUMPDEST DUP3 MSTORE POP POP JUMP JUMPDEST PUSH1 0x0 PUSH2 0x2AC DUP3 DUP7 PUSH2 0x247 JUMP JUMPDEST PUSH1 0x20 DUP3 ADD SWAP2 POP PUSH2 0x2BC DUP3 DUP6 PUSH2 0x268 JUMP JUMPDEST PUSH1 0x20 DUP3 ADD SWAP2 POP PUSH2 0x2CC DUP3 DUP5 PUSH2 0x289 JUMP JUMPDEST PUSH1 0x20 DUP3 ADD SWAP2 POP DUP2 SWAP1 POP SWAP5 SWAP4 POP POP POP POP JUMP JUMPDEST PUSH1 0x0 DUP2 MLOAD SWAP1 POP SWAP2 SWAP1 POP JUMP JUMPDEST PUSH1 0x0 DUP2 SWAP1 POP SWAP3 SWAP2 POP POP JUMP JUMPDEST PUSH1 0x0 JUMPDEST DUP4 DUP2 LT ISZERO PUSH2 0x311 JUMPI DUP1 DUP3 ADD MLOAD DUP2 DUP5 ADD MSTORE PUSH1 0x20 DUP2 ADD SWAP1 POP PUSH2 0x2F6 JUMP JUMPDEST DUP4 DUP2 GT ISZERO PUSH2 0x320 JUMPI PUSH1 0x0 DUP5 DUP5 ADD MSTORE JUMPDEST POP POP POP POP JUMP JUMPDEST PUSH1 0x0 PUSH2 0x331 DUP3 PUSH2 0x2DD JUMP JUMPDEST PUSH2 0x33B DUP2 DUP6 PUSH2 0x2E8 JUMP JUMPDEST SWAP4 POP PUSH2 0x34B DUP2 DUP6 PUSH1 0x20 DUP7 ADD PUSH2 0x2F3 JUMP JUMPDEST DUP1 DUP5 ADD SWAP2 POP POP SWAP3 SWAP2 POP POP JUMP JUMPDEST PUSH1 0x0 PUSH2 0x363 DUP3 DUP5 PUSH2 0x326 JUMP JUMPDEST SWAP2 POP DUP2 SWAP1 POP SWAP3 SWAP2 POP POP JUMP JUMPDEST PUSH2 0x377 DUP2 PUSH2 0x197 JUMP JUMPDEST DUP2 EQ PUSH2 0x382 JUMPI PUSH1 0x0 DUP1 REVERT JUMPDEST POP JUMP JUMPDEST PUSH1 0x0 DUP2 MLOAD SWAP1 POP PUSH2 0x394 DUP2 PUSH2 0x36E JUMP JUMPDEST SWAP3 SWAP2 POP POP JUMP JUMPDEST PUSH1 0x0 PUSH1 0x20 DUP3 DUP5 SUB SLT ISZERO PUSH2 0x3B0 JUMPI PUSH2 0x3AF PUSH2 0x1CB JUMP JUMPDEST JUMPDEST PUSH1 0x0 PUSH2 0x3BE DUP5 DUP3 DUP6 ADD PUSH2 0x385 JUMP JUMPDEST SWAP2 POP POP SWAP3 SWAP2 POP POP JUMP INVALID LOG2 PUSH5 0x6970667358 0x22 SLT KECCAK256 EXTCODESIZE 0x25 MLOAD PUSH12 0x34BA67C42E34D9BA2FDC8A 0xCE DUP7 BASEFEE PUSH23 0x6D1E4D7647E1AAF05FCAD26664736F6C634300080B0033 "
				},
				"gasEstimates": {
					"creation": {
						"codeDepositCost": "204200",
						"executionCost": "5265",
						"totalCost": "209465"
					},
					"external": {
						"Block(int256)": "infinite",
						"invest()": "189",
						"prevHash()": "2415",
						"previousHash()": "2451"
					}
				},
				"methodIdentifiers": {
					"Block(int256)": "8c6f2e82",
					"invest()": "e8b5e51f",
					"prevHash()": "69e9c066",
					"previousHash()": "d4d52df4"
				}
			},
			"storageLayout": {
				"storage": [
					{
						"astId": 3,
						"contract": "contracts/transact.sol:transact",
						"label": "previousHash",
						"offset": 0,
						"slot": "0",
						"type": "t_bytes32"
					},
					{
						"astId": 15,
						"contract": "contracts/transact.sol:transact",
						"label": "balances",
						"offset": 0,
						"slot": "1",
						"type": "t_mapping(t_address,t_uint256)"
					}
				],
				"types": {
					"t_address": {
						"encoding": "inplace",
						"label": "address",
						"numberOfBytes": "20"
					},
					"t_bytes32": {
						"encoding": "inplace",
						"label": "bytes32",
						"numberOfBytes": "32"
					},
					"t_mapping(t_address,t_uint256)": {
						"encoding": "mapping",
						"key": "t_address",
						"label": "mapping(address => uint256)",
						"numberOfBytes": "32",
						"value": "t_uint256"
					},
					"t_uint256": {
						"encoding": "inplace",
						"label": "uint256",
						"numberOfBytes": "32"
					}
				}
			},
			"userdoc": {
				"kind": "user",
				"methods": {},
				"version": 1
			}
		}
	}
}