{
	"contracts/transact.sol": {
		"transact": {
			"abi": [
				{
					"inputs": [],
					"stateMutability": "nonpayable",
					"type": "constructor"
				},
				{
					"inputs": [
						{
							"internalType": "int256",
							"name": "transactions",
							"type": "int256"
						}
					],
					"name": "Block",
					"outputs": [
						{
							"internalType": "bytes32",
							"name": "hashin",
							"type": "bytes32"
						}
					],
					"stateMutability": "nonpayable",
					"type": "function"
				},
				{
					"inputs": [],
					"name": "invest",
					"outputs": [],
					"stateMutability": "payable",
					"type": "function"
				},
				{
					"inputs": [],
					"name": "previousHash",
					"outputs": [
						{
							"internalType": "bytes32",
							"name": "",
							"type": "bytes32"
						}
					],
					"stateMutability": "view",
					"type": "function"
				}
			],
			"devdoc": {
				"kind": "dev",
				"methods": {},
				"version": 1
			},
			"evm": {
				"assembly": "    /* \"contracts/transact.sol\":60:590  contract transact {... */\n  mstore(0x40, 0x80)\n    /* \"contracts/transact.sol\":119:166  constructor(){... */\n  callvalue\n  dup1\n  iszero\n  tag_1\n  jumpi\n  0x00\n  dup1\n  revert\ntag_1:\n  pop\n    /* \"contracts/transact.sol\":157:158  0 */\n  0x00\n    /* \"contracts/transact.sol\":143:158  previousHash= 0 */\n  dup1\n  shl\n    /* \"contracts/transact.sol\":143:155  previousHash */\n  0x00\n    /* \"contracts/transact.sol\":143:158  previousHash= 0 */\n  dup2\n  swap1\n  sstore\n  pop\n    /* \"contracts/transact.sol\":60:590  contract transact {... */\n  dataSize(sub_0)\n  dup1\n  dataOffset(sub_0)\n  0x00\n  codecopy\n  0x00\n  return\nstop\n\nsub_0: assembly {\n        /* \"contracts/transact.sol\":60:590  contract transact {... */\n      mstore(0x40, 0x80)\n      jumpi(tag_1, lt(calldatasize, 0x04))\n      shr(0xe0, calldataload(0x00))\n      dup1\n      0x8c6f2e82\n      eq\n      tag_2\n      jumpi\n      dup1\n      0xd4d52df4\n      eq\n      tag_3\n      jumpi\n      dup1\n      0xe8b5e51f\n      eq\n      tag_4\n      jumpi\n    tag_1:\n      0x00\n      dup1\n      revert\n        /* \"contracts/transact.sol\":332:585  function Block(int transactions)public returns(bytes32 hashin){... */\n    tag_2:\n      callvalue\n      dup1\n      iszero\n      tag_5\n      jumpi\n      0x00\n      dup1\n      revert\n    tag_5:\n      pop\n      tag_6\n      0x04\n      dup1\n      calldatasize\n      sub\n      dup2\n      add\n      swap1\n      tag_7\n      swap2\n      swap1\n      tag_8\n      jump\t// in\n    tag_7:\n      tag_9\n      jump\t// in\n    tag_6:\n      mload(0x40)\n      tag_10\n      swap2\n      swap1\n      tag_11\n      jump\t// in\n    tag_10:\n      mload(0x40)\n      dup1\n      swap2\n      sub\n      swap1\n      return\n        /* \"contracts/transact.sol\":85:112  bytes32 public previousHash */\n    tag_3:\n      callvalue\n      dup1\n      iszero\n      tag_12\n      jumpi\n      0x00\n      dup1\n      revert\n    tag_12:\n      pop\n      tag_13\n      tag_14\n      jump\t// in\n    tag_13:\n      mload(0x40)\n      tag_15\n      swap2\n      swap1\n      tag_11\n      jump\t// in\n    tag_15:\n      mload(0x40)\n      dup1\n      swap2\n      sub\n      swap1\n      return\n        /* \"contracts/transact.sol\":213:326  function invest() external payable {... */\n    tag_4:\n      tag_16\n      tag_17\n      jump\t// in\n    tag_16:\n      stop\n        /* \"contracts/transact.sol\":332:585  function Block(int transactions)public returns(bytes32 hashin){... */\n    tag_9:\n        /* \"contracts/transact.sol\":379:393  bytes32 hashin */\n      0x00\n        /* \"contracts/transact.sol\":404:413  uint time */\n      dup1\n        /* \"contracts/transact.sol\":415:430  block.timestamp */\n      timestamp\n        /* \"contracts/transact.sol\":404:430  uint time= block.timestamp */\n      swap1\n      pop\n        /* \"contracts/transact.sol\":440:453  bytes32 store */\n      0x00\n        /* \"contracts/transact.sol\":472:528  sha256(abi.encodePacked(time,transactions,previousHash)) */\n      0x02\n        /* \"contracts/transact.sol\":496:500  time */\n      dup3\n        /* \"contracts/transact.sol\":501:513  transactions */\n      dup6\n        /* \"contracts/transact.sol\":514:526  previousHash */\n      sload(0x00)\n        /* \"contracts/transact.sol\":479:527  abi.encodePacked(time,transactions,previousHash) */\n      add(0x20, mload(0x40))\n      tag_19\n      swap4\n      swap3\n      swap2\n      swap1\n      tag_20\n      jump\t// in\n    tag_19:\n      mload(0x40)\n      0x20\n      dup2\n      dup4\n      sub\n      sub\n      dup2\n      mstore\n      swap1\n      0x40\n      mstore\n        /* \"contracts/transact.sol\":472:528  sha256(abi.encodePacked(time,transactions,previousHash)) */\n      mload(0x40)\n      tag_21\n      swap2\n      swap1\n      tag_22\n      jump\t// in\n    tag_21:\n      0x20\n      mload(0x40)\n      dup1\n      dup4\n      sub\n      dup2\n      dup6\n      gas\n      staticcall\n      iszero\n      dup1\n      iszero\n      tag_24\n      jumpi\n      returndatasize\n      0x00\n      dup1\n      returndatacopy\n      revert(0x00, returndatasize)\n    tag_24:\n      pop\n      pop\n      pop\n      mload(0x40)\n      returndatasize\n      not(0x1f)\n      0x1f\n      dup3\n      add\n      and\n      dup3\n      add\n      dup1\n      0x40\n      mstore\n      pop\n      dup2\n      add\n      swap1\n      tag_25\n      swap2\n      swap1\n      tag_26\n      jump\t// in\n    tag_25:\n        /* \"contracts/transact.sol\":464:528  hashin= sha256(abi.encodePacked(time,transactions,previousHash)) */\n      swap3\n      pop\n        /* \"contracts/transact.sol\":546:552  hashin */\n      dup3\n        /* \"contracts/transact.sol\":539:552  store= hashin */\n      swap1\n      pop\n        /* \"contracts/transact.sol\":563:576  return hashin */\n      pop\n      pop\n        /* \"contracts/transact.sol\":332:585  function Block(int transactions)public returns(bytes32 hashin){... */\n      swap2\n      swap1\n      pop\n      jump\t// out\n        /* \"contracts/transact.sol\":85:112  bytes32 public previousHash */\n    tag_14:\n      sload(0x00)\n      dup2\n      jump\t// out\n        /* \"contracts/transact.sol\":213:326  function invest() external payable {... */\n    tag_17:\n        /* \"contracts/transact.sol\":274:281  1 ether */\n      0x0de0b6b3a7640000\n        /* \"contracts/transact.sol\":262:271  msg.value */\n      callvalue\n        /* \"contracts/transact.sol\":262:281  msg.value < 1 ether */\n      lt\n        /* \"contracts/transact.sol\":259:317  if(msg.value < 1 ether){... */\n      iszero\n      tag_28\n      jumpi\n        /* \"contracts/transact.sol\":297:305  revert() */\n      0x00\n      dup1\n      revert\n        /* \"contracts/transact.sol\":259:317  if(msg.value < 1 ether){... */\n    tag_28:\n        /* \"contracts/transact.sol\":213:326  function invest() external payable {... */\n      jump\t// out\n        /* \"#utility.yul\":88:205   */\n    tag_30:\n        /* \"#utility.yul\":197:198   */\n      0x00\n        /* \"#utility.yul\":194:195   */\n      dup1\n        /* \"#utility.yul\":187:199   */\n      revert\n        /* \"#utility.yul\":334:410   */\n    tag_32:\n        /* \"#utility.yul\":370:377   */\n      0x00\n        /* \"#utility.yul\":399:404   */\n      dup2\n        /* \"#utility.yul\":388:404   */\n      swap1\n      pop\n        /* \"#utility.yul\":334:410   */\n      swap2\n      swap1\n      pop\n      jump\t// out\n        /* \"#utility.yul\":416:536   */\n    tag_33:\n        /* \"#utility.yul\":488:511   */\n      tag_56\n        /* \"#utility.yul\":505:510   */\n      dup2\n        /* \"#utility.yul\":488:511   */\n      tag_32\n      jump\t// in\n    tag_56:\n        /* \"#utility.yul\":481:486   */\n      dup2\n        /* \"#utility.yul\":478:512   */\n      eq\n        /* \"#utility.yul\":468:530   */\n      tag_57\n      jumpi\n        /* \"#utility.yul\":526:527   */\n      0x00\n        /* \"#utility.yul\":523:524   */\n      dup1\n        /* \"#utility.yul\":516:528   */\n      revert\n        /* \"#utility.yul\":468:530   */\n    tag_57:\n        /* \"#utility.yul\":416:536   */\n      pop\n      jump\t// out\n        /* \"#utility.yul\":542:679   */\n    tag_34:\n        /* \"#utility.yul\":587:592   */\n      0x00\n        /* \"#utility.yul\":625:631   */\n      dup2\n        /* \"#utility.yul\":612:632   */\n      calldataload\n        /* \"#utility.yul\":603:632   */\n      swap1\n      pop\n        /* \"#utility.yul\":641:673   */\n      tag_59\n        /* \"#utility.yul\":667:672   */\n      dup2\n        /* \"#utility.yul\":641:673   */\n      tag_33\n      jump\t// in\n    tag_59:\n        /* \"#utility.yul\":542:679   */\n      swap3\n      swap2\n      pop\n      pop\n      jump\t// out\n        /* \"#utility.yul\":685:1012   */\n    tag_8:\n        /* \"#utility.yul\":743:749   */\n      0x00\n        /* \"#utility.yul\":792:794   */\n      0x20\n        /* \"#utility.yul\":780:789   */\n      dup3\n        /* \"#utility.yul\":771:778   */\n      dup5\n        /* \"#utility.yul\":767:790   */\n      sub\n        /* \"#utility.yul\":763:795   */\n      slt\n        /* \"#utility.yul\":760:879   */\n      iszero\n      tag_61\n      jumpi\n        /* \"#utility.yul\":798:877   */\n      tag_62\n      tag_30\n      jump\t// in\n    tag_62:\n        /* \"#utility.yul\":760:879   */\n    tag_61:\n        /* \"#utility.yul\":918:919   */\n      0x00\n        /* \"#utility.yul\":943:995   */\n      tag_63\n        /* \"#utility.yul\":987:994   */\n      dup5\n        /* \"#utility.yul\":978:984   */\n      dup3\n        /* \"#utility.yul\":967:976   */\n      dup6\n        /* \"#utility.yul\":963:985   */\n      add\n        /* \"#utility.yul\":943:995   */\n      tag_34\n      jump\t// in\n    tag_63:\n        /* \"#utility.yul\":933:995   */\n      swap2\n      pop\n        /* \"#utility.yul\":889:1005   */\n      pop\n        /* \"#utility.yul\":685:1012   */\n      swap3\n      swap2\n      pop\n      pop\n      jump\t// out\n        /* \"#utility.yul\":1018:1095   */\n    tag_35:\n        /* \"#utility.yul\":1055:1062   */\n      0x00\n        /* \"#utility.yul\":1084:1089   */\n      dup2\n        /* \"#utility.yul\":1073:1089   */\n      swap1\n      pop\n        /* \"#utility.yul\":1018:1095   */\n      swap2\n      swap1\n      pop\n      jump\t// out\n        /* \"#utility.yul\":1101:1219   */\n    tag_36:\n        /* \"#utility.yul\":1188:1212   */\n      tag_66\n        /* \"#utility.yul\":1206:1211   */\n      dup2\n        /* \"#utility.yul\":1188:1212   */\n      tag_35\n      jump\t// in\n    tag_66:\n        /* \"#utility.yul\":1183:1186   */\n      dup3\n        /* \"#utility.yul\":1176:1213   */\n      mstore\n        /* \"#utility.yul\":1101:1219   */\n      pop\n      pop\n      jump\t// out\n        /* \"#utility.yul\":1225:1447   */\n    tag_11:\n        /* \"#utility.yul\":1318:1322   */\n      0x00\n        /* \"#utility.yul\":1356:1358   */\n      0x20\n        /* \"#utility.yul\":1345:1354   */\n      dup3\n        /* \"#utility.yul\":1341:1359   */\n      add\n        /* \"#utility.yul\":1333:1359   */\n      swap1\n      pop\n        /* \"#utility.yul\":1369:1440   */\n      tag_68\n        /* \"#utility.yul\":1437:1438   */\n      0x00\n        /* \"#utility.yul\":1426:1435   */\n      dup4\n        /* \"#utility.yul\":1422:1439   */\n      add\n        /* \"#utility.yul\":1413:1419   */\n      dup5\n        /* \"#utility.yul\":1369:1440   */\n      tag_36\n      jump\t// in\n    tag_68:\n        /* \"#utility.yul\":1225:1447   */\n      swap3\n      swap2\n      pop\n      pop\n      jump\t// out\n        /* \"#utility.yul\":1453:1530   */\n    tag_37:\n        /* \"#utility.yul\":1490:1497   */\n      0x00\n        /* \"#utility.yul\":1519:1524   */\n      dup2\n        /* \"#utility.yul\":1508:1524   */\n      swap1\n      pop\n        /* \"#utility.yul\":1453:1530   */\n      swap2\n      swap1\n      pop\n      jump\t// out\n        /* \"#utility.yul\":1536:1615   */\n    tag_38:\n        /* \"#utility.yul\":1575:1582   */\n      0x00\n        /* \"#utility.yul\":1604:1609   */\n      dup2\n        /* \"#utility.yul\":1593:1609   */\n      swap1\n      pop\n        /* \"#utility.yul\":1536:1615   */\n      swap2\n      swap1\n      pop\n      jump\t// out\n        /* \"#utility.yul\":1621:1778   */\n    tag_39:\n        /* \"#utility.yul\":1726:1771   */\n      tag_72\n        /* \"#utility.yul\":1746:1770   */\n      tag_73\n        /* \"#utility.yul\":1764:1769   */\n      dup3\n        /* \"#utility.yul\":1746:1770   */\n      tag_37\n      jump\t// in\n    tag_73:\n        /* \"#utility.yul\":1726:1771   */\n      tag_38\n      jump\t// in\n    tag_72:\n        /* \"#utility.yul\":1721:1724   */\n      dup3\n        /* \"#utility.yul\":1714:1772   */\n      mstore\n        /* \"#utility.yul\":1621:1778   */\n      pop\n      pop\n      jump\t// out\n        /* \"#utility.yul\":1784:1862   */\n    tag_40:\n        /* \"#utility.yul\":1822:1829   */\n      0x00\n        /* \"#utility.yul\":1851:1856   */\n      dup2\n        /* \"#utility.yul\":1840:1856   */\n      swap1\n      pop\n        /* \"#utility.yul\":1784:1862   */\n      swap2\n      swap1\n      pop\n      jump\t// out\n        /* \"#utility.yul\":1868:2021   */\n    tag_41:\n        /* \"#utility.yul\":1971:2014   */\n      tag_76\n        /* \"#utility.yul\":1990:2013   */\n      tag_77\n        /* \"#utility.yul\":2007:2012   */\n      dup3\n        /* \"#utility.yul\":1990:2013   */\n      tag_32\n      jump\t// in\n    tag_77:\n        /* \"#utility.yul\":1971:2014   */\n      tag_40\n      jump\t// in\n    tag_76:\n        /* \"#utility.yul\":1966:1969   */\n      dup3\n        /* \"#utility.yul\":1959:2015   */\n      mstore\n        /* \"#utility.yul\":1868:2021   */\n      pop\n      pop\n      jump\t// out\n        /* \"#utility.yul\":2027:2106   */\n    tag_42:\n        /* \"#utility.yul\":2066:2073   */\n      0x00\n        /* \"#utility.yul\":2095:2100   */\n      dup2\n        /* \"#utility.yul\":2084:2100   */\n      swap1\n      pop\n        /* \"#utility.yul\":2027:2106   */\n      swap2\n      swap1\n      pop\n      jump\t// out\n        /* \"#utility.yul\":2112:2269   */\n    tag_43:\n        /* \"#utility.yul\":2217:2262   */\n      tag_80\n        /* \"#utility.yul\":2237:2261   */\n      tag_81\n        /* \"#utility.yul\":2255:2260   */\n      dup3\n        /* \"#utility.yul\":2237:2261   */\n      tag_35\n      jump\t// in\n    tag_81:\n        /* \"#utility.yul\":2217:2262   */\n      tag_42\n      jump\t// in\n    tag_80:\n        /* \"#utility.yul\":2212:2215   */\n      dup3\n        /* \"#utility.yul\":2205:2263   */\n      mstore\n        /* \"#utility.yul\":2112:2269   */\n      pop\n      pop\n      jump\t// out\n        /* \"#utility.yul\":2275:2809   */\n    tag_20:\n        /* \"#utility.yul\":2441:2444   */\n      0x00\n        /* \"#utility.yul\":2456:2531   */\n      tag_83\n        /* \"#utility.yul\":2527:2530   */\n      dup3\n        /* \"#utility.yul\":2518:2524   */\n      dup7\n        /* \"#utility.yul\":2456:2531   */\n      tag_39\n      jump\t// in\n    tag_83:\n        /* \"#utility.yul\":2556:2558   */\n      0x20\n        /* \"#utility.yul\":2551:2554   */\n      dup3\n        /* \"#utility.yul\":2547:2559   */\n      add\n        /* \"#utility.yul\":2540:2559   */\n      swap2\n      pop\n        /* \"#utility.yul\":2569:2642   */\n      tag_84\n        /* \"#utility.yul\":2638:2641   */\n      dup3\n        /* \"#utility.yul\":2629:2635   */\n      dup6\n        /* \"#utility.yul\":2569:2642   */\n      tag_41\n      jump\t// in\n    tag_84:\n        /* \"#utility.yul\":2667:2669   */\n      0x20\n        /* \"#utility.yul\":2662:2665   */\n      dup3\n        /* \"#utility.yul\":2658:2670   */\n      add\n        /* \"#utility.yul\":2651:2670   */\n      swap2\n      pop\n        /* \"#utility.yul\":2680:2755   */\n      tag_85\n        /* \"#utility.yul\":2751:2754   */\n      dup3\n        /* \"#utility.yul\":2742:2748   */\n      dup5\n        /* \"#utility.yul\":2680:2755   */\n      tag_43\n      jump\t// in\n    tag_85:\n        /* \"#utility.yul\":2780:2782   */\n      0x20\n        /* \"#utility.yul\":2775:2778   */\n      dup3\n        /* \"#utility.yul\":2771:2783   */\n      add\n        /* \"#utility.yul\":2764:2783   */\n      swap2\n      pop\n        /* \"#utility.yul\":2800:2803   */\n      dup2\n        /* \"#utility.yul\":2793:2803   */\n      swap1\n      pop\n        /* \"#utility.yul\":2275:2809   */\n      swap5\n      swap4\n      pop\n      pop\n      pop\n      pop\n      jump\t// out\n        /* \"#utility.yul\":2815:2913   */\n    tag_44:\n        /* \"#utility.yul\":2866:2872   */\n      0x00\n        /* \"#utility.yul\":2900:2905   */\n      dup2\n        /* \"#utility.yul\":2894:2906   */\n      mload\n        /* \"#utility.yul\":2884:2906   */\n      swap1\n      pop\n        /* \"#utility.yul\":2815:2913   */\n      swap2\n      swap1\n      pop\n      jump\t// out\n        /* \"#utility.yul\":2919:3066   */\n    tag_45:\n        /* \"#utility.yul\":3020:3031   */\n      0x00\n        /* \"#utility.yul\":3057:3060   */\n      dup2\n        /* \"#utility.yul\":3042:3060   */\n      swap1\n      pop\n        /* \"#utility.yul\":2919:3066   */\n      swap3\n      swap2\n      pop\n      pop\n      jump\t// out\n        /* \"#utility.yul\":3072:3379   */\n    tag_46:\n        /* \"#utility.yul\":3140:3141   */\n      0x00\n        /* \"#utility.yul\":3150:3263   */\n    tag_89:\n        /* \"#utility.yul\":3164:3170   */\n      dup4\n        /* \"#utility.yul\":3161:3162   */\n      dup2\n        /* \"#utility.yul\":3158:3171   */\n      lt\n        /* \"#utility.yul\":3150:3263   */\n      iszero\n      tag_91\n      jumpi\n        /* \"#utility.yul\":3249:3250   */\n      dup1\n        /* \"#utility.yul\":3244:3247   */\n      dup3\n        /* \"#utility.yul\":3240:3251   */\n      add\n        /* \"#utility.yul\":3234:3252   */\n      mload\n        /* \"#utility.yul\":3230:3231   */\n      dup2\n        /* \"#utility.yul\":3225:3228   */\n      dup5\n        /* \"#utility.yul\":3221:3232   */\n      add\n        /* \"#utility.yul\":3214:3253   */\n      mstore\n        /* \"#utility.yul\":3186:3188   */\n      0x20\n        /* \"#utility.yul\":3183:3184   */\n      dup2\n        /* \"#utility.yul\":3179:3189   */\n      add\n        /* \"#utility.yul\":3174:3189   */\n      swap1\n      pop\n        /* \"#utility.yul\":3150:3263   */\n      jump(tag_89)\n    tag_91:\n        /* \"#utility.yul\":3281:3287   */\n      dup4\n        /* \"#utility.yul\":3278:3279   */\n      dup2\n        /* \"#utility.yul\":3275:3288   */\n      gt\n        /* \"#utility.yul\":3272:3373   */\n      iszero\n      tag_92\n      jumpi\n        /* \"#utility.yul\":3361:3362   */\n      0x00\n        /* \"#utility.yul\":3352:3358   */\n      dup5\n        /* \"#utility.yul\":3347:3350   */\n      dup5\n        /* \"#utility.yul\":3343:3359   */\n      add\n        /* \"#utility.yul\":3336:3363   */\n      mstore\n        /* \"#utility.yul\":3272:3373   */\n    tag_92:\n        /* \"#utility.yul\":3121:3379   */\n      pop\n        /* \"#utility.yul\":3072:3379   */\n      pop\n      pop\n      pop\n      jump\t// out\n        /* \"#utility.yul\":3385:3758   */\n    tag_47:\n        /* \"#utility.yul\":3489:3492   */\n      0x00\n        /* \"#utility.yul\":3517:3555   */\n      tag_94\n        /* \"#utility.yul\":3549:3554   */\n      dup3\n        /* \"#utility.yul\":3517:3555   */\n      tag_44\n      jump\t// in\n    tag_94:\n        /* \"#utility.yul\":3571:3659   */\n      tag_95\n        /* \"#utility.yul\":3652:3658   */\n      dup2\n        /* \"#utility.yul\":3647:3650   */\n      dup6\n        /* \"#utility.yul\":3571:3659   */\n      tag_45\n      jump\t// in\n    tag_95:\n        /* \"#utility.yul\":3564:3659   */\n      swap4\n      pop\n        /* \"#utility.yul\":3668:3720   */\n      tag_96\n        /* \"#utility.yul\":3713:3719   */\n      dup2\n        /* \"#utility.yul\":3708:3711   */\n      dup6\n        /* \"#utility.yul\":3701:3705   */\n      0x20\n        /* \"#utility.yul\":3694:3699   */\n      dup7\n        /* \"#utility.yul\":3690:3706   */\n      add\n        /* \"#utility.yul\":3668:3720   */\n      tag_46\n      jump\t// in\n    tag_96:\n        /* \"#utility.yul\":3745:3751   */\n      dup1\n        /* \"#utility.yul\":3740:3743   */\n      dup5\n        /* \"#utility.yul\":3736:3752   */\n      add\n        /* \"#utility.yul\":3729:3752   */\n      swap2\n      pop\n        /* \"#utility.yul\":3493:3758   */\n      pop\n        /* \"#utility.yul\":3385:3758   */\n      swap3\n      swap2\n      pop\n      pop\n      jump\t// out\n        /* \"#utility.yul\":3764:4035   */\n    tag_22:\n        /* \"#utility.yul\":3894:3897   */\n      0x00\n        /* \"#utility.yul\":3916:4009   */\n      tag_98\n        /* \"#utility.yul\":4005:4008   */\n      dup3\n        /* \"#utility.yul\":3996:4002   */\n      dup5\n        /* \"#utility.yul\":3916:4009   */\n      tag_47\n      jump\t// in\n    tag_98:\n        /* \"#utility.yul\":3909:4009   */\n      swap2\n      pop\n        /* \"#utility.yul\":4026:4029   */\n      dup2\n        /* \"#utility.yul\":4019:4029   */\n      swap1\n      pop\n        /* \"#utility.yul\":3764:4035   */\n      swap3\n      swap2\n      pop\n      pop\n      jump\t// out\n        /* \"#utility.yul\":4041:4163   */\n    tag_48:\n        /* \"#utility.yul\":4114:4138   */\n      tag_100\n        /* \"#utility.yul\":4132:4137   */\n      dup2\n        /* \"#utility.yul\":4114:4138   */\n      tag_35\n      jump\t// in\n    tag_100:\n        /* \"#utility.yul\":4107:4112   */\n      dup2\n        /* \"#utility.yul\":4104:4139   */\n      eq\n        /* \"#utility.yul\":4094:4157   */\n      tag_101\n      jumpi\n        /* \"#utility.yul\":4153:4154   */\n      0x00\n        /* \"#utility.yul\":4150:4151   */\n      dup1\n        /* \"#utility.yul\":4143:4155   */\n      revert\n        /* \"#utility.yul\":4094:4157   */\n    tag_101:\n        /* \"#utility.yul\":4041:4163   */\n      pop\n      jump\t// out\n        /* \"#utility.yul\":4169:4312   */\n    tag_49:\n        /* \"#utility.yul\":4226:4231   */\n      0x00\n        /* \"#utility.yul\":4257:4263   */\n      dup2\n        /* \"#utility.yul\":4251:4264   */\n      mload\n        /* \"#utility.yul\":4242:4264   */\n      swap1\n      pop\n        /* \"#utility.yul\":4273:4306   */\n      tag_103\n        /* \"#utility.yul\":4300:4305   */\n      dup2\n        /* \"#utility.yul\":4273:4306   */\n      tag_48\n      jump\t// in\n    tag_103:\n        /* \"#utility.yul\":4169:4312   */\n      swap3\n      swap2\n      pop\n      pop\n      jump\t// out\n        /* \"#utility.yul\":4318:4669   */\n    tag_26:\n        /* \"#utility.yul\":4388:4394   */\n      0x00\n        /* \"#utility.yul\":4437:4439   */\n      0x20\n        /* \"#utility.yul\":4425:4434   */\n      dup3\n        /* \"#utility.yul\":4416:4423   */\n      dup5\n        /* \"#utility.yul\":4412:4435   */\n      sub\n        /* \"#utility.yul\":4408:4440   */\n      slt\n        /* \"#utility.yul\":4405:4524   */\n      iszero\n      tag_105\n      jumpi\n        /* \"#utility.yul\":4443:4522   */\n      tag_106\n      tag_30\n      jump\t// in\n    tag_106:\n        /* \"#utility.yul\":4405:4524   */\n    tag_105:\n        /* \"#utility.yul\":4563:4564   */\n      0x00\n        /* \"#utility.yul\":4588:4652   */\n      tag_107\n        /* \"#utility.yul\":4644:4651   */\n      dup5\n        /* \"#utility.yul\":4635:4641   */\n      dup3\n        /* \"#utility.yul\":4624:4633   */\n      dup6\n        /* \"#utility.yul\":4620:4642   */\n      add\n        /* \"#utility.yul\":4588:4652   */\n      tag_49\n      jump\t// in\n    tag_107:\n        /* \"#utility.yul\":4578:4652   */\n      swap2\n      pop\n        /* \"#utility.yul\":4534:4662   */\n      pop\n        /* \"#utility.yul\":4318:4669   */\n      swap3\n      swap2\n      pop\n      pop\n      jump\t// out\n\n    auxdata: 0xa264697066735822122010d969f83e8bf7382c958b9a49389c93619fe550f327ec2ee257adb78ad38bf364736f6c634300080b0033\n}\n",
				"bytecode": {
					"linkReferences": {},
					"object": "608060405234801561001057600080fd5b506000801b6000819055506103b78061002a6000396000f3fe6080604052600436106100345760003560e01c80638c6f2e8214610039578063d4d52df414610076578063e8b5e51f146100a1575b600080fd5b34801561004557600080fd5b50610060600480360381019061005b919061018c565b6100ab565b60405161006d91906101d2565b60405180910390f35b34801561008257600080fd5b5061008b610134565b60405161009891906101d2565b60405180910390f35b6100a961013a565b005b6000804290506000600282856000546040516020016100cc9392919061025a565b6040516020818303038152906040526040516100e89190610311565b602060405180830381855afa158015610105573d6000803e3d6000fd5b5050506040513d601f19601f820116820180604052508101906101289190610354565b92508290505050919050565b60005481565b670de0b6b3a764000034101561014f57600080fd5b565b600080fd5b6000819050919050565b61016981610156565b811461017457600080fd5b50565b60008135905061018681610160565b92915050565b6000602082840312156101a2576101a1610151565b5b60006101b084828501610177565b91505092915050565b6000819050919050565b6101cc816101b9565b82525050565b60006020820190506101e760008301846101c3565b92915050565b6000819050919050565b6000819050919050565b61021261020d826101ed565b6101f7565b82525050565b6000819050919050565b61023361022e82610156565b610218565b82525050565b6000819050919050565b61025461024f826101b9565b610239565b82525050565b60006102668286610201565b6020820191506102768285610222565b6020820191506102868284610243565b602082019150819050949350505050565b600081519050919050565b600081905092915050565b60005b838110156102cb5780820151818401526020810190506102b0565b838111156102da576000848401525b50505050565b60006102eb82610297565b6102f581856102a2565b93506103058185602086016102ad565b80840191505092915050565b600061031d82846102e0565b915081905092915050565b610331816101b9565b811461033c57600080fd5b50565b60008151905061034e81610328565b92915050565b60006020828403121561036a57610369610151565b5b60006103788482850161033f565b9150509291505056fea264697066735822122010d969f83e8bf7382c958b9a49389c93619fe550f327ec2ee257adb78ad38bf364736f6c634300080b0033",
					"opcodes": "PUSH1 0x80 PUSH1 0x40 MSTORE CALLVALUE DUP1 ISZERO PUSH2 0x10 JUMPI PUSH1 0x0 DUP1 REVERT JUMPDEST POP PUSH1 0x0 DUP1 SHL PUSH1 0x0 DUP2 SWAP1 SSTORE POP PUSH2 0x3B7 DUP1 PUSH2 0x2A PUSH1 0x0 CODECOPY PUSH1 0x0 RETURN INVALID PUSH1 0x80 PUSH1 0x40 MSTORE PUSH1 0x4 CALLDATASIZE LT PUSH2 0x34 JUMPI PUSH1 0x0 CALLDATALOAD PUSH1 0xE0 SHR DUP1 PUSH4 0x8C6F2E82 EQ PUSH2 0x39 JUMPI DUP1 PUSH4 0xD4D52DF4 EQ PUSH2 0x76 JUMPI DUP1 PUSH4 0xE8B5E51F EQ PUSH2 0xA1 JUMPI JUMPDEST PUSH1 0x0 DUP1 REVERT JUMPDEST CALLVALUE DUP1 ISZERO PUSH2 0x45 JUMPI PUSH1 0x0 DUP1 REVERT JUMPDEST POP PUSH2 0x60 PUSH1 0x4 DUP1 CALLDATASIZE SUB DUP2 ADD SWAP1 PUSH2 0x5B SWAP2 SWAP1 PUSH2 0x18C JUMP JUMPDEST PUSH2 0xAB JUMP JUMPDEST PUSH1 0x40 MLOAD PUSH2 0x6D SWAP2 SWAP1 PUSH2 0x1D2 JUMP JUMPDEST PUSH1 0x40 MLOAD DUP1 SWAP2 SUB SWAP1 RETURN JUMPDEST CALLVALUE DUP1 ISZERO PUSH2 0x82 JUMPI PUSH1 0x0 DUP1 REVERT JUMPDEST POP PUSH2 0x8B PUSH2 0x134 JUMP JUMPDEST PUSH1 0x40 MLOAD PUSH2 0x98 SWAP2 SWAP1 PUSH2 0x1D2 JUMP JUMPDEST PUSH1 0x40 MLOAD DUP1 SWAP2 SUB SWAP1 RETURN JUMPDEST PUSH2 0xA9 PUSH2 0x13A JUMP JUMPDEST STOP JUMPDEST PUSH1 0x0 DUP1 TIMESTAMP SWAP1 POP PUSH1 0x0 PUSH1 0x2 DUP3 DUP6 PUSH1 0x0 SLOAD PUSH1 0x40 MLOAD PUSH1 0x20 ADD PUSH2 0xCC SWAP4 SWAP3 SWAP2 SWAP1 PUSH2 0x25A JUMP JUMPDEST PUSH1 0x40 MLOAD PUSH1 0x20 DUP2 DUP4 SUB SUB DUP2 MSTORE SWAP1 PUSH1 0x40 MSTORE PUSH1 0x40 MLOAD PUSH2 0xE8 SWAP2 SWAP1 PUSH2 0x311 JUMP JUMPDEST PUSH1 0x20 PUSH1 0x40 MLOAD DUP1 DUP4 SUB DUP2 DUP6 GAS STATICCALL ISZERO DUP1 ISZERO PUSH2 0x105 JUMPI RETURNDATASIZE PUSH1 0x0 DUP1 RETURNDATACOPY RETURNDATASIZE PUSH1 0x0 REVERT JUMPDEST POP POP POP PUSH1 0x40 MLOAD RETURNDATASIZE PUSH1 0x1F NOT PUSH1 0x1F DUP3 ADD AND DUP3 ADD DUP1 PUSH1 0x40 MSTORE POP DUP2 ADD SWAP1 PUSH2 0x128 SWAP2 SWAP1 PUSH2 0x354 JUMP JUMPDEST SWAP3 POP DUP3 SWAP1 POP POP POP SWAP2 SWAP1 POP JUMP JUMPDEST PUSH1 0x0 SLOAD DUP2 JUMP JUMPDEST PUSH8 0xDE0B6B3A7640000 CALLVALUE LT ISZERO PUSH2 0x14F JUMPI PUSH1 0x0 DUP1 REVERT JUMPDEST JUMP JUMPDEST PUSH1 0x0 DUP1 REVERT JUMPDEST PUSH1 0x0 DUP2 SWAP1 POP SWAP2 SWAP1 POP JUMP JUMPDEST PUSH2 0x169 DUP2 PUSH2 0x156 JUMP JUMPDEST DUP2 EQ PUSH2 0x174 JUMPI PUSH1 0x0 DUP1 REVERT JUMPDEST POP JUMP JUMPDEST PUSH1 0x0 DUP2 CALLDATALOAD SWAP1 POP PUSH2 0x186 DUP2 PUSH2 0x160 JUMP JUMPDEST SWAP3 SWAP2 POP POP JUMP JUMPDEST PUSH1 0x0 PUSH1 0x20 DUP3 DUP5 SUB SLT ISZERO PUSH2 0x1A2 JUMPI PUSH2 0x1A1 PUSH2 0x151 JUMP JUMPDEST JUMPDEST PUSH1 0x0 PUSH2 0x1B0 DUP5 DUP3 DUP6 ADD PUSH2 0x177 JUMP JUMPDEST SWAP2 POP POP SWAP3 SWAP2 POP POP JUMP JUMPDEST PUSH1 0x0 DUP2 SWAP1 POP SWAP2 SWAP1 POP JUMP JUMPDEST PUSH2 0x1CC DUP2 PUSH2 0x1B9 JUMP JUMPDEST DUP3 MSTORE POP POP JUMP JUMPDEST PUSH1 0x0 PUSH1 0x20 DUP3 ADD SWAP1 POP PUSH2 0x1E7 PUSH1 0x0 DUP4 ADD DUP5 PUSH2 0x1C3 JUMP JUMPDEST SWAP3 SWAP2 POP POP JUMP JUMPDEST PUSH1 0x0 DUP2 SWAP1 POP SWAP2 SWAP1 POP JUMP JUMPDEST PUSH1 0x0 DUP2 SWAP1 POP SWAP2 SWAP1 POP JUMP JUMPDEST PUSH2 0x212 PUSH2 0x20D DUP3 PUSH2 0x1ED JUMP JUMPDEST PUSH2 0x1F7 JUMP JUMPDEST DUP3 MSTORE POP POP JUMP JUMPDEST PUSH1 0x0 DUP2 SWAP1 POP SWAP2 SWAP1 POP JUMP JUMPDEST PUSH2 0x233 PUSH2 0x22E DUP3 PUSH2 0x156 JUMP JUMPDEST PUSH2 0x218 JUMP JUMPDEST DUP3 MSTORE POP POP JUMP JUMPDEST PUSH1 0x0 DUP2 SWAP1 POP SWAP2 SWAP1 POP JUMP JUMPDEST PUSH2 0x254 PUSH2 0x24F DUP3 PUSH2 0x1B9 JUMP JUMPDEST PUSH2 0x239 JUMP JUMPDEST DUP3 MSTORE POP POP JUMP JUMPDEST PUSH1 0x0 PUSH2 0x266 DUP3 DUP7 PUSH2 0x201 JUMP JUMPDEST PUSH1 0x20 DUP3 ADD SWAP2 POP PUSH2 0x276 DUP3 DUP6 PUSH2 0x222 JUMP JUMPDEST PUSH1 0x20 DUP3 ADD SWAP2 POP PUSH2 0x286 DUP3 DUP5 PUSH2 0x243 JUMP JUMPDEST PUSH1 0x20 DUP3 ADD SWAP2 POP DUP2 SWAP1 POP SWAP5 SWAP4 POP POP POP POP JUMP JUMPDEST PUSH1 0x0 DUP2 MLOAD SWAP1 POP SWAP2 SWAP1 POP JUMP JUMPDEST PUSH1 0x0 DUP2 SWAP1 POP SWAP3 SWAP2 POP POP JUMP JUMPDEST PUSH1 0x0 JUMPDEST DUP4 DUP2 LT ISZERO PUSH2 0x2CB JUMPI DUP1 DUP3 ADD MLOAD DUP2 DUP5 ADD MSTORE PUSH1 0x20 DUP2 ADD SWAP1 POP PUSH2 0x2B0 JUMP JUMPDEST DUP4 DUP2 GT ISZERO PUSH2 0x2DA JUMPI PUSH1 0x0 DUP5 DUP5 ADD MSTORE JUMPDEST POP POP POP POP JUMP JUMPDEST PUSH1 0x0 PUSH2 0x2EB DUP3 PUSH2 0x297 JUMP JUMPDEST PUSH2 0x2F5 DUP2 DUP6 PUSH2 0x2A2 JUMP JUMPDEST SWAP4 POP PUSH2 0x305 DUP2 DUP6 PUSH1 0x20 DUP7 ADD PUSH2 0x2AD JUMP JUMPDEST DUP1 DUP5 ADD SWAP2 POP POP SWAP3 SWAP2 POP POP JUMP JUMPDEST PUSH1 0x0 PUSH2 0x31D DUP3 DUP5 PUSH2 0x2E0 JUMP JUMPDEST SWAP2 POP DUP2 SWAP1 POP SWAP3 SWAP2 POP POP JUMP JUMPDEST PUSH2 0x331 DUP2 PUSH2 0x1B9 JUMP JUMPDEST DUP2 EQ PUSH2 0x33C JUMPI PUSH1 0x0 DUP1 REVERT JUMPDEST POP JUMP JUMPDEST PUSH1 0x0 DUP2 MLOAD SWAP1 POP PUSH2 0x34E DUP2 PUSH2 0x328 JUMP JUMPDEST SWAP3 SWAP2 POP POP JUMP JUMPDEST PUSH1 0x0 PUSH1 0x20 DUP3 DUP5 SUB SLT ISZERO PUSH2 0x36A JUMPI PUSH2 0x369 PUSH2 0x151 JUMP JUMPDEST JUMPDEST PUSH1 0x0 PUSH2 0x378 DUP5 DUP3 DUP6 ADD PUSH2 0x33F JUMP JUMPDEST SWAP2 POP POP SWAP3 SWAP2 POP POP JUMP INVALID LOG2 PUSH5 0x6970667358 0x22 SLT KECCAK256 LT 0xD9 PUSH10 0xF83E8BF7382C958B9A49 CODESIZE SWAP13 SWAP4 PUSH2 0x9FE5 POP RETURN 0x27 0xEC 0x2E 0xE2 JUMPI 0xAD 0xB7 DUP11 0xD3 DUP12 RETURN PUSH5 0x736F6C6343 STOP ADDMOD SIGNEXTEND STOP CALLER "
				},
				"gasEstimates": {
					"creation": {
						"codeDepositCost": "190200",
						"executionCost": "5252",
						"totalCost": "195452"
					},
					"external": {
						"Block(int256)": "infinite",
						"invest()": "167",
						"previousHash()": "2429"
					}
				},
				"methodIdentifiers": {
					"Block(int256)": "8c6f2e82",
					"invest()": "e8b5e51f",
					"previousHash()": "d4d52df4"
				}
			},
			"storageLayout": {
				"storage": [
					{
						"astId": 3,
						"contract": "contracts/transact.sol:transact",
						"label": "previousHash",
						"offset": 0,
						"slot": "0",
						"type": "t_bytes32"
					},
					{
						"astId": 15,
						"contract": "contracts/transact.sol:transact",
						"label": "balances",
						"offset": 0,
						"slot": "1",
						"type": "t_mapping(t_address,t_uint256)"
					}
				],
				"types": {
					"t_address": {
						"encoding": "inplace",
						"label": "address",
						"numberOfBytes": "20"
					},
					"t_bytes32": {
						"encoding": "inplace",
						"label": "bytes32",
						"numberOfBytes": "32"
					},
					"t_mapping(t_address,t_uint256)": {
						"encoding": "mapping",
						"key": "t_address",
						"label": "mapping(address => uint256)",
						"numberOfBytes": "32",
						"value": "t_uint256"
					},
					"t_uint256": {
						"encoding": "inplace",
						"label": "uint256",
						"numberOfBytes": "32"
					}
				}
			},
			"userdoc": {
				"kind": "user",
				"methods": {},
				"version": 1
			}
		}
	}
}