{
	"contracts/transact.sol": {
		"transact": {
			"abi": [
				{
					"inputs": [
						{
							"internalType": "int256",
							"name": "transactions",
							"type": "int256"
						}
					],
					"name": "Block",
					"outputs": [
						{
							"internalType": "bytes32",
							"name": "hashin",
							"type": "bytes32"
						}
					],
					"stateMutability": "view",
					"type": "function"
				},
				{
					"inputs": [],
					"name": "balanceOf",
					"outputs": [
						{
							"internalType": "uint256",
							"name": "",
							"type": "uint256"
						}
					],
					"stateMutability": "view",
					"type": "function"
				},
				{
					"inputs": [
						{
							"internalType": "address",
							"name": "addr",
							"type": "address"
						}
					],
					"name": "getBalance",
					"outputs": [
						{
							"internalType": "uint256",
							"name": "",
							"type": "uint256"
						}
					],
					"stateMutability": "view",
					"type": "function"
				},
				{
					"inputs": [
						{
							"internalType": "address",
							"name": "addr",
							"type": "address"
						}
					],
					"name": "getBalanceInEth",
					"outputs": [
						{
							"internalType": "uint256",
							"name": "",
							"type": "uint256"
						}
					],
					"stateMutability": "view",
					"type": "function"
				},
				{
					"inputs": [],
					"name": "invest",
					"outputs": [],
					"stateMutability": "payable",
					"type": "function"
				},
				{
					"inputs": [],
					"name": "prevHash",
					"outputs": [
						{
							"internalType": "bytes32",
							"name": "",
							"type": "bytes32"
						}
					],
					"stateMutability": "view",
					"type": "function"
				}
			],
			"devdoc": {
				"kind": "dev",
				"methods": {},
				"version": 1
			},
			"evm": {
				"assembly": "    /* \"contracts/transact.sol\":60:985  contract transact {... */\n  mstore(0x40, 0x80)\n    /* \"contracts/transact.sol\":107:108  0 */\n  0x00\n    /* \"contracts/transact.sol\":85:108  bytes32 previousHash= 0 */\n  dup1\n  shl\n  0x00\n  sstore\n    /* \"contracts/transact.sol\":60:985  contract transact {... */\n  callvalue\n  dup1\n  iszero\n  tag_1\n  jumpi\n  0x00\n  dup1\n  revert\ntag_1:\n  pop\n  dataSize(sub_0)\n  dup1\n  dataOffset(sub_0)\n  0x00\n  codecopy\n  0x00\n  return\nstop\n\nsub_0: assembly {\n        /* \"contracts/transact.sol\":60:985  contract transact {... */\n      mstore(0x40, 0x80)\n      jumpi(tag_1, lt(calldatasize, 0x04))\n      shr(0xe0, calldataload(0x00))\n      dup1\n      0x69e9c066\n      eq\n      tag_2\n      jumpi\n      dup1\n      0x722713f7\n      eq\n      tag_3\n      jumpi\n      dup1\n      0x7bd703e8\n      eq\n      tag_4\n      jumpi\n      dup1\n      0x8c6f2e82\n      eq\n      tag_5\n      jumpi\n      dup1\n      0xe8b5e51f\n      eq\n      tag_6\n      jumpi\n      dup1\n      0xf8b2cb4f\n      eq\n      tag_7\n      jumpi\n    tag_1:\n      0x00\n      dup1\n      revert\n        /* \"contracts/transact.sol\":890:976  function prevHash() public view returns(bytes32){... */\n    tag_2:\n      callvalue\n      dup1\n      iszero\n      tag_8\n      jumpi\n      0x00\n      dup1\n      revert\n    tag_8:\n      pop\n      tag_9\n      tag_10\n      jump\t// in\n    tag_9:\n      mload(0x40)\n      tag_11\n      swap2\n      swap1\n      tag_12\n      jump\t// in\n    tag_11:\n      mload(0x40)\n      dup1\n      swap2\n      sub\n      swap1\n      return\n        /* \"contracts/transact.sol\":275:373  function balanceOf() external view returns (uint) {... */\n    tag_3:\n      callvalue\n      dup1\n      iszero\n      tag_13\n      jumpi\n      0x00\n      dup1\n      revert\n    tag_13:\n      pop\n      tag_14\n      tag_15\n      jump\t// in\n    tag_14:\n      mload(0x40)\n      tag_16\n      swap2\n      swap1\n      tag_17\n      jump\t// in\n    tag_16:\n      mload(0x40)\n      dup1\n      swap2\n      sub\n      swap1\n      return\n        /* \"contracts/transact.sol\":381:487  function getBalanceInEth(address addr) public view returns(uint){... */\n    tag_4:\n      callvalue\n      dup1\n      iszero\n      tag_18\n      jumpi\n      0x00\n      dup1\n      revert\n    tag_18:\n      pop\n      tag_19\n      0x04\n      dup1\n      calldatasize\n      sub\n      dup2\n      add\n      swap1\n      tag_20\n      swap2\n      swap1\n      tag_21\n      jump\t// in\n    tag_20:\n      tag_22\n      jump\t// in\n    tag_19:\n      mload(0x40)\n      tag_23\n      swap2\n      swap1\n      tag_17\n      jump\t// in\n    tag_23:\n      mload(0x40)\n      dup1\n      swap2\n      sub\n      swap1\n      return\n        /* \"contracts/transact.sol\":603:882  function Block(int transactions)public view returns(bytes32 hashin){... */\n    tag_5:\n      callvalue\n      dup1\n      iszero\n      tag_24\n      jumpi\n      0x00\n      dup1\n      revert\n    tag_24:\n      pop\n      tag_25\n      0x04\n      dup1\n      calldatasize\n      sub\n      dup2\n      add\n      swap1\n      tag_26\n      swap2\n      swap1\n      tag_27\n      jump\t// in\n    tag_26:\n      tag_28\n      jump\t// in\n    tag_25:\n      mload(0x40)\n      tag_29\n      swap2\n      swap1\n      tag_12\n      jump\t// in\n    tag_29:\n      mload(0x40)\n      dup1\n      swap2\n      sub\n      swap1\n      return\n        /* \"contracts/transact.sol\":156:269  function invest() external payable {... */\n    tag_6:\n      tag_30\n      tag_31\n      jump\t// in\n    tag_30:\n      stop\n        /* \"contracts/transact.sol\":495:595  function getBalance(address addr) public view returns(uint) {... */\n    tag_7:\n      callvalue\n      dup1\n      iszero\n      tag_32\n      jumpi\n      0x00\n      dup1\n      revert\n    tag_32:\n      pop\n      tag_33\n      0x04\n      dup1\n      calldatasize\n      sub\n      dup2\n      add\n      swap1\n      tag_34\n      swap2\n      swap1\n      tag_21\n      jump\t// in\n    tag_34:\n      tag_35\n      jump\t// in\n    tag_33:\n      mload(0x40)\n      tag_36\n      swap2\n      swap1\n      tag_17\n      jump\t// in\n    tag_36:\n      mload(0x40)\n      dup1\n      swap2\n      sub\n      swap1\n      return\n        /* \"contracts/transact.sol\":890:976  function prevHash() public view returns(bytes32){... */\n    tag_10:\n        /* \"contracts/transact.sol\":930:937  bytes32 */\n      0x00\n        /* \"contracts/transact.sol\":956:968  previousHash */\n      dup1\n      sload\n        /* \"contracts/transact.sol\":949:968  return previousHash */\n      swap1\n      pop\n        /* \"contracts/transact.sol\":890:976  function prevHash() public view returns(bytes32){... */\n      swap1\n      jump\t// out\n        /* \"contracts/transact.sol\":275:373  function balanceOf() external view returns (uint) {... */\n    tag_15:\n        /* \"contracts/transact.sol\":319:323  uint */\n      0x00\n        /* \"contracts/transact.sol\":343:364  address(this).balance */\n      selfbalance\n        /* \"contracts/transact.sol\":336:364  return address(this).balance */\n      swap1\n      pop\n        /* \"contracts/transact.sol\":275:373  function balanceOf() external view returns (uint) {... */\n      swap1\n      jump\t// out\n        /* \"contracts/transact.sol\":381:487  function getBalanceInEth(address addr) public view returns(uint){... */\n    tag_22:\n        /* \"contracts/transact.sol\":440:444  uint */\n      0x00\n        /* \"contracts/transact.sol\":463:479  getBalance(addr) */\n      tag_40\n        /* \"contracts/transact.sol\":474:478  addr */\n      dup3\n        /* \"contracts/transact.sol\":463:473  getBalance */\n      tag_35\n        /* \"contracts/transact.sol\":463:479  getBalance(addr) */\n      jump\t// in\n    tag_40:\n        /* \"contracts/transact.sol\":456:479  return getBalance(addr) */\n      swap1\n      pop\n        /* \"contracts/transact.sol\":381:487  function getBalanceInEth(address addr) public view returns(uint){... */\n      swap2\n      swap1\n      pop\n      jump\t// out\n        /* \"contracts/transact.sol\":603:882  function Block(int transactions)public view returns(bytes32 hashin){... */\n    tag_28:\n        /* \"contracts/transact.sol\":655:669  bytes32 hashin */\n      0x00\n        /* \"contracts/transact.sol\":680:689  uint time */\n      dup1\n        /* \"contracts/transact.sol\":691:706  block.timestamp */\n      timestamp\n        /* \"contracts/transact.sol\":680:706  uint time= block.timestamp */\n      swap1\n      pop\n        /* \"contracts/transact.sol\":715:735  bytes32 previousHash */\n      0x00\n        /* \"contracts/transact.sol\":737:738  0 */\n      dup1\n        /* \"contracts/transact.sol\":715:738  bytes32 previousHash= 0 */\n      0x00\n      shl\n      swap1\n      pop\n        /* \"contracts/transact.sol\":757:813  sha256(abi.encodePacked(time,transactions,previousHash)) */\n      0x02\n        /* \"contracts/transact.sol\":781:785  time */\n      dup3\n        /* \"contracts/transact.sol\":786:798  transactions */\n      dup6\n        /* \"contracts/transact.sol\":799:811  previousHash */\n      dup4\n        /* \"contracts/transact.sol\":764:812  abi.encodePacked(time,transactions,previousHash) */\n      add(0x20, mload(0x40))\n      tag_42\n      swap4\n      swap3\n      swap2\n      swap1\n      tag_43\n      jump\t// in\n    tag_42:\n      mload(0x40)\n      0x20\n      dup2\n      dup4\n      sub\n      sub\n      dup2\n      mstore\n      swap1\n      0x40\n      mstore\n        /* \"contracts/transact.sol\":757:813  sha256(abi.encodePacked(time,transactions,previousHash)) */\n      mload(0x40)\n      tag_44\n      swap2\n      swap1\n      tag_45\n      jump\t// in\n    tag_44:\n      0x20\n      mload(0x40)\n      dup1\n      dup4\n      sub\n      dup2\n      dup6\n      gas\n      staticcall\n      iszero\n      dup1\n      iszero\n      tag_47\n      jumpi\n      returndatasize\n      0x00\n      dup1\n      returndatacopy\n      revert(0x00, returndatasize)\n    tag_47:\n      pop\n      pop\n      pop\n      mload(0x40)\n      returndatasize\n      not(0x1f)\n      0x1f\n      dup3\n      add\n      and\n      dup3\n      add\n      dup1\n      0x40\n      mstore\n      pop\n      dup2\n      add\n      swap1\n      tag_48\n      swap2\n      swap1\n      tag_49\n      jump\t// in\n    tag_48:\n        /* \"contracts/transact.sol\":749:813  hashin= sha256(abi.encodePacked(time,transactions,previousHash)) */\n      swap3\n      pop\n        /* \"contracts/transact.sol\":837:843  hashin */\n      dup3\n        /* \"contracts/transact.sol\":824:843  previousHash=hashin */\n      swap1\n      pop\n        /* \"contracts/transact.sol\":854:867  return hashin */\n      pop\n      pop\n        /* \"contracts/transact.sol\":603:882  function Block(int transactions)public view returns(bytes32 hashin){... */\n      swap2\n      swap1\n      pop\n      jump\t// out\n        /* \"contracts/transact.sol\":156:269  function invest() external payable {... */\n    tag_31:\n        /* \"contracts/transact.sol\":217:224  1 ether */\n      0x0de0b6b3a7640000\n        /* \"contracts/transact.sol\":205:214  msg.value */\n      callvalue\n        /* \"contracts/transact.sol\":205:224  msg.value < 1 ether */\n      lt\n        /* \"contracts/transact.sol\":202:260  if(msg.value < 1 ether){... */\n      iszero\n      tag_51\n      jumpi\n        /* \"contracts/transact.sol\":240:248  revert() */\n      0x00\n      dup1\n      revert\n        /* \"contracts/transact.sol\":202:260  if(msg.value < 1 ether){... */\n    tag_51:\n        /* \"contracts/transact.sol\":156:269  function invest() external payable {... */\n      jump\t// out\n        /* \"contracts/transact.sol\":495:595  function getBalance(address addr) public view returns(uint) {... */\n    tag_35:\n        /* \"contracts/transact.sol\":549:553  uint */\n      0x00\n        /* \"contracts/transact.sol\":573:581  balances */\n      0x01\n        /* \"contracts/transact.sol\":573:587  balances[addr] */\n      0x00\n        /* \"contracts/transact.sol\":582:586  addr */\n      dup4\n        /* \"contracts/transact.sol\":573:587  balances[addr] */\n      0xffffffffffffffffffffffffffffffffffffffff\n      and\n      0xffffffffffffffffffffffffffffffffffffffff\n      and\n      dup2\n      mstore\n      0x20\n      add\n      swap1\n      dup2\n      mstore\n      0x20\n      add\n      0x00\n      keccak256\n      sload\n        /* \"contracts/transact.sol\":566:587  return balances[addr] */\n      swap1\n      pop\n        /* \"contracts/transact.sol\":495:595  function getBalance(address addr) public view returns(uint) {... */\n      swap2\n      swap1\n      pop\n      jump\t// out\n        /* \"#utility.yul\":7:84   */\n    tag_53:\n        /* \"#utility.yul\":44:51   */\n      0x00\n        /* \"#utility.yul\":73:78   */\n      dup2\n        /* \"#utility.yul\":62:78   */\n      swap1\n      pop\n        /* \"#utility.yul\":7:84   */\n      swap2\n      swap1\n      pop\n      jump\t// out\n        /* \"#utility.yul\":90:208   */\n    tag_54:\n        /* \"#utility.yul\":177:201   */\n      tag_82\n        /* \"#utility.yul\":195:200   */\n      dup2\n        /* \"#utility.yul\":177:201   */\n      tag_53\n      jump\t// in\n    tag_82:\n        /* \"#utility.yul\":172:175   */\n      dup3\n        /* \"#utility.yul\":165:202   */\n      mstore\n        /* \"#utility.yul\":90:208   */\n      pop\n      pop\n      jump\t// out\n        /* \"#utility.yul\":214:436   */\n    tag_12:\n        /* \"#utility.yul\":307:311   */\n      0x00\n        /* \"#utility.yul\":345:347   */\n      0x20\n        /* \"#utility.yul\":334:343   */\n      dup3\n        /* \"#utility.yul\":330:348   */\n      add\n        /* \"#utility.yul\":322:348   */\n      swap1\n      pop\n        /* \"#utility.yul\":358:429   */\n      tag_84\n        /* \"#utility.yul\":426:427   */\n      0x00\n        /* \"#utility.yul\":415:424   */\n      dup4\n        /* \"#utility.yul\":411:428   */\n      add\n        /* \"#utility.yul\":402:408   */\n      dup5\n        /* \"#utility.yul\":358:429   */\n      tag_54\n      jump\t// in\n    tag_84:\n        /* \"#utility.yul\":214:436   */\n      swap3\n      swap2\n      pop\n      pop\n      jump\t// out\n        /* \"#utility.yul\":442:519   */\n    tag_55:\n        /* \"#utility.yul\":479:486   */\n      0x00\n        /* \"#utility.yul\":508:513   */\n      dup2\n        /* \"#utility.yul\":497:513   */\n      swap1\n      pop\n        /* \"#utility.yul\":442:519   */\n      swap2\n      swap1\n      pop\n      jump\t// out\n        /* \"#utility.yul\":525:643   */\n    tag_56:\n        /* \"#utility.yul\":612:636   */\n      tag_87\n        /* \"#utility.yul\":630:635   */\n      dup2\n        /* \"#utility.yul\":612:636   */\n      tag_55\n      jump\t// in\n    tag_87:\n        /* \"#utility.yul\":607:610   */\n      dup3\n        /* \"#utility.yul\":600:637   */\n      mstore\n        /* \"#utility.yul\":525:643   */\n      pop\n      pop\n      jump\t// out\n        /* \"#utility.yul\":649:871   */\n    tag_17:\n        /* \"#utility.yul\":742:746   */\n      0x00\n        /* \"#utility.yul\":780:782   */\n      0x20\n        /* \"#utility.yul\":769:778   */\n      dup3\n        /* \"#utility.yul\":765:783   */\n      add\n        /* \"#utility.yul\":757:783   */\n      swap1\n      pop\n        /* \"#utility.yul\":793:864   */\n      tag_89\n        /* \"#utility.yul\":861:862   */\n      0x00\n        /* \"#utility.yul\":850:859   */\n      dup4\n        /* \"#utility.yul\":846:863   */\n      add\n        /* \"#utility.yul\":837:843   */\n      dup5\n        /* \"#utility.yul\":793:864   */\n      tag_56\n      jump\t// in\n    tag_89:\n        /* \"#utility.yul\":649:871   */\n      swap3\n      swap2\n      pop\n      pop\n      jump\t// out\n        /* \"#utility.yul\":958:1075   */\n    tag_58:\n        /* \"#utility.yul\":1067:1068   */\n      0x00\n        /* \"#utility.yul\":1064:1065   */\n      dup1\n        /* \"#utility.yul\":1057:1069   */\n      revert\n        /* \"#utility.yul\":1204:1330   */\n    tag_60:\n        /* \"#utility.yul\":1241:1248   */\n      0x00\n        /* \"#utility.yul\":1281:1323   */\n      0xffffffffffffffffffffffffffffffffffffffff\n        /* \"#utility.yul\":1274:1279   */\n      dup3\n        /* \"#utility.yul\":1270:1324   */\n      and\n        /* \"#utility.yul\":1259:1324   */\n      swap1\n      pop\n        /* \"#utility.yul\":1204:1330   */\n      swap2\n      swap1\n      pop\n      jump\t// out\n        /* \"#utility.yul\":1336:1432   */\n    tag_61:\n        /* \"#utility.yul\":1373:1380   */\n      0x00\n        /* \"#utility.yul\":1402:1426   */\n      tag_95\n        /* \"#utility.yul\":1420:1425   */\n      dup3\n        /* \"#utility.yul\":1402:1426   */\n      tag_60\n      jump\t// in\n    tag_95:\n        /* \"#utility.yul\":1391:1426   */\n      swap1\n      pop\n        /* \"#utility.yul\":1336:1432   */\n      swap2\n      swap1\n      pop\n      jump\t// out\n        /* \"#utility.yul\":1438:1560   */\n    tag_62:\n        /* \"#utility.yul\":1511:1535   */\n      tag_97\n        /* \"#utility.yul\":1529:1534   */\n      dup2\n        /* \"#utility.yul\":1511:1535   */\n      tag_61\n      jump\t// in\n    tag_97:\n        /* \"#utility.yul\":1504:1509   */\n      dup2\n        /* \"#utility.yul\":1501:1536   */\n      eq\n        /* \"#utility.yul\":1491:1554   */\n      tag_98\n      jumpi\n        /* \"#utility.yul\":1550:1551   */\n      0x00\n        /* \"#utility.yul\":1547:1548   */\n      dup1\n        /* \"#utility.yul\":1540:1552   */\n      revert\n        /* \"#utility.yul\":1491:1554   */\n    tag_98:\n        /* \"#utility.yul\":1438:1560   */\n      pop\n      jump\t// out\n        /* \"#utility.yul\":1566:1705   */\n    tag_63:\n        /* \"#utility.yul\":1612:1617   */\n      0x00\n        /* \"#utility.yul\":1650:1656   */\n      dup2\n        /* \"#utility.yul\":1637:1657   */\n      calldataload\n        /* \"#utility.yul\":1628:1657   */\n      swap1\n      pop\n        /* \"#utility.yul\":1666:1699   */\n      tag_100\n        /* \"#utility.yul\":1693:1698   */\n      dup2\n        /* \"#utility.yul\":1666:1699   */\n      tag_62\n      jump\t// in\n    tag_100:\n        /* \"#utility.yul\":1566:1705   */\n      swap3\n      swap2\n      pop\n      pop\n      jump\t// out\n        /* \"#utility.yul\":1711:2040   */\n    tag_21:\n        /* \"#utility.yul\":1770:1776   */\n      0x00\n        /* \"#utility.yul\":1819:1821   */\n      0x20\n        /* \"#utility.yul\":1807:1816   */\n      dup3\n        /* \"#utility.yul\":1798:1805   */\n      dup5\n        /* \"#utility.yul\":1794:1817   */\n      sub\n        /* \"#utility.yul\":1790:1822   */\n      slt\n        /* \"#utility.yul\":1787:1906   */\n      iszero\n      tag_102\n      jumpi\n        /* \"#utility.yul\":1825:1904   */\n      tag_103\n      tag_58\n      jump\t// in\n    tag_103:\n        /* \"#utility.yul\":1787:1906   */\n    tag_102:\n        /* \"#utility.yul\":1945:1946   */\n      0x00\n        /* \"#utility.yul\":1970:2023   */\n      tag_104\n        /* \"#utility.yul\":2015:2022   */\n      dup5\n        /* \"#utility.yul\":2006:2012   */\n      dup3\n        /* \"#utility.yul\":1995:2004   */\n      dup6\n        /* \"#utility.yul\":1991:2013   */\n      add\n        /* \"#utility.yul\":1970:2023   */\n      tag_63\n      jump\t// in\n    tag_104:\n        /* \"#utility.yul\":1960:2023   */\n      swap2\n      pop\n        /* \"#utility.yul\":1916:2033   */\n      pop\n        /* \"#utility.yul\":1711:2040   */\n      swap3\n      swap2\n      pop\n      pop\n      jump\t// out\n        /* \"#utility.yul\":2046:2122   */\n    tag_64:\n        /* \"#utility.yul\":2082:2089   */\n      0x00\n        /* \"#utility.yul\":2111:2116   */\n      dup2\n        /* \"#utility.yul\":2100:2116   */\n      swap1\n      pop\n        /* \"#utility.yul\":2046:2122   */\n      swap2\n      swap1\n      pop\n      jump\t// out\n        /* \"#utility.yul\":2128:2248   */\n    tag_65:\n        /* \"#utility.yul\":2200:2223   */\n      tag_107\n        /* \"#utility.yul\":2217:2222   */\n      dup2\n        /* \"#utility.yul\":2200:2223   */\n      tag_64\n      jump\t// in\n    tag_107:\n        /* \"#utility.yul\":2193:2198   */\n      dup2\n        /* \"#utility.yul\":2190:2224   */\n      eq\n        /* \"#utility.yul\":2180:2242   */\n      tag_108\n      jumpi\n        /* \"#utility.yul\":2238:2239   */\n      0x00\n        /* \"#utility.yul\":2235:2236   */\n      dup1\n        /* \"#utility.yul\":2228:2240   */\n      revert\n        /* \"#utility.yul\":2180:2242   */\n    tag_108:\n        /* \"#utility.yul\":2128:2248   */\n      pop\n      jump\t// out\n        /* \"#utility.yul\":2254:2391   */\n    tag_66:\n        /* \"#utility.yul\":2299:2304   */\n      0x00\n        /* \"#utility.yul\":2337:2343   */\n      dup2\n        /* \"#utility.yul\":2324:2344   */\n      calldataload\n        /* \"#utility.yul\":2315:2344   */\n      swap1\n      pop\n        /* \"#utility.yul\":2353:2385   */\n      tag_110\n        /* \"#utility.yul\":2379:2384   */\n      dup2\n        /* \"#utility.yul\":2353:2385   */\n      tag_65\n      jump\t// in\n    tag_110:\n        /* \"#utility.yul\":2254:2391   */\n      swap3\n      swap2\n      pop\n      pop\n      jump\t// out\n        /* \"#utility.yul\":2397:2724   */\n    tag_27:\n        /* \"#utility.yul\":2455:2461   */\n      0x00\n        /* \"#utility.yul\":2504:2506   */\n      0x20\n        /* \"#utility.yul\":2492:2501   */\n      dup3\n        /* \"#utility.yul\":2483:2490   */\n      dup5\n        /* \"#utility.yul\":2479:2502   */\n      sub\n        /* \"#utility.yul\":2475:2507   */\n      slt\n        /* \"#utility.yul\":2472:2591   */\n      iszero\n      tag_112\n      jumpi\n        /* \"#utility.yul\":2510:2589   */\n      tag_113\n      tag_58\n      jump\t// in\n    tag_113:\n        /* \"#utility.yul\":2472:2591   */\n    tag_112:\n        /* \"#utility.yul\":2630:2631   */\n      0x00\n        /* \"#utility.yul\":2655:2707   */\n      tag_114\n        /* \"#utility.yul\":2699:2706   */\n      dup5\n        /* \"#utility.yul\":2690:2696   */\n      dup3\n        /* \"#utility.yul\":2679:2688   */\n      dup6\n        /* \"#utility.yul\":2675:2697   */\n      add\n        /* \"#utility.yul\":2655:2707   */\n      tag_66\n      jump\t// in\n    tag_114:\n        /* \"#utility.yul\":2645:2707   */\n      swap2\n      pop\n        /* \"#utility.yul\":2601:2717   */\n      pop\n        /* \"#utility.yul\":2397:2724   */\n      swap3\n      swap2\n      pop\n      pop\n      jump\t// out\n        /* \"#utility.yul\":2730:2809   */\n    tag_67:\n        /* \"#utility.yul\":2769:2776   */\n      0x00\n        /* \"#utility.yul\":2798:2803   */\n      dup2\n        /* \"#utility.yul\":2787:2803   */\n      swap1\n      pop\n        /* \"#utility.yul\":2730:2809   */\n      swap2\n      swap1\n      pop\n      jump\t// out\n        /* \"#utility.yul\":2815:2972   */\n    tag_68:\n        /* \"#utility.yul\":2920:2965   */\n      tag_117\n        /* \"#utility.yul\":2940:2964   */\n      tag_118\n        /* \"#utility.yul\":2958:2963   */\n      dup3\n        /* \"#utility.yul\":2940:2964   */\n      tag_55\n      jump\t// in\n    tag_118:\n        /* \"#utility.yul\":2920:2965   */\n      tag_67\n      jump\t// in\n    tag_117:\n        /* \"#utility.yul\":2915:2918   */\n      dup3\n        /* \"#utility.yul\":2908:2966   */\n      mstore\n        /* \"#utility.yul\":2815:2972   */\n      pop\n      pop\n      jump\t// out\n        /* \"#utility.yul\":2978:3056   */\n    tag_69:\n        /* \"#utility.yul\":3016:3023   */\n      0x00\n        /* \"#utility.yul\":3045:3050   */\n      dup2\n        /* \"#utility.yul\":3034:3050   */\n      swap1\n      pop\n        /* \"#utility.yul\":2978:3056   */\n      swap2\n      swap1\n      pop\n      jump\t// out\n        /* \"#utility.yul\":3062:3215   */\n    tag_70:\n        /* \"#utility.yul\":3165:3208   */\n      tag_121\n        /* \"#utility.yul\":3184:3207   */\n      tag_122\n        /* \"#utility.yul\":3201:3206   */\n      dup3\n        /* \"#utility.yul\":3184:3207   */\n      tag_64\n      jump\t// in\n    tag_122:\n        /* \"#utility.yul\":3165:3208   */\n      tag_69\n      jump\t// in\n    tag_121:\n        /* \"#utility.yul\":3160:3163   */\n      dup3\n        /* \"#utility.yul\":3153:3209   */\n      mstore\n        /* \"#utility.yul\":3062:3215   */\n      pop\n      pop\n      jump\t// out\n        /* \"#utility.yul\":3221:3300   */\n    tag_71:\n        /* \"#utility.yul\":3260:3267   */\n      0x00\n        /* \"#utility.yul\":3289:3294   */\n      dup2\n        /* \"#utility.yul\":3278:3294   */\n      swap1\n      pop\n        /* \"#utility.yul\":3221:3300   */\n      swap2\n      swap1\n      pop\n      jump\t// out\n        /* \"#utility.yul\":3306:3463   */\n    tag_72:\n        /* \"#utility.yul\":3411:3456   */\n      tag_125\n        /* \"#utility.yul\":3431:3455   */\n      tag_126\n        /* \"#utility.yul\":3449:3454   */\n      dup3\n        /* \"#utility.yul\":3431:3455   */\n      tag_53\n      jump\t// in\n    tag_126:\n        /* \"#utility.yul\":3411:3456   */\n      tag_71\n      jump\t// in\n    tag_125:\n        /* \"#utility.yul\":3406:3409   */\n      dup3\n        /* \"#utility.yul\":3399:3457   */\n      mstore\n        /* \"#utility.yul\":3306:3463   */\n      pop\n      pop\n      jump\t// out\n        /* \"#utility.yul\":3469:4003   */\n    tag_43:\n        /* \"#utility.yul\":3635:3638   */\n      0x00\n        /* \"#utility.yul\":3650:3725   */\n      tag_128\n        /* \"#utility.yul\":3721:3724   */\n      dup3\n        /* \"#utility.yul\":3712:3718   */\n      dup7\n        /* \"#utility.yul\":3650:3725   */\n      tag_68\n      jump\t// in\n    tag_128:\n        /* \"#utility.yul\":3750:3752   */\n      0x20\n        /* \"#utility.yul\":3745:3748   */\n      dup3\n        /* \"#utility.yul\":3741:3753   */\n      add\n        /* \"#utility.yul\":3734:3753   */\n      swap2\n      pop\n        /* \"#utility.yul\":3763:3836   */\n      tag_129\n        /* \"#utility.yul\":3832:3835   */\n      dup3\n        /* \"#utility.yul\":3823:3829   */\n      dup6\n        /* \"#utility.yul\":3763:3836   */\n      tag_70\n      jump\t// in\n    tag_129:\n        /* \"#utility.yul\":3861:3863   */\n      0x20\n        /* \"#utility.yul\":3856:3859   */\n      dup3\n        /* \"#utility.yul\":3852:3864   */\n      add\n        /* \"#utility.yul\":3845:3864   */\n      swap2\n      pop\n        /* \"#utility.yul\":3874:3949   */\n      tag_130\n        /* \"#utility.yul\":3945:3948   */\n      dup3\n        /* \"#utility.yul\":3936:3942   */\n      dup5\n        /* \"#utility.yul\":3874:3949   */\n      tag_72\n      jump\t// in\n    tag_130:\n        /* \"#utility.yul\":3974:3976   */\n      0x20\n        /* \"#utility.yul\":3969:3972   */\n      dup3\n        /* \"#utility.yul\":3965:3977   */\n      add\n        /* \"#utility.yul\":3958:3977   */\n      swap2\n      pop\n        /* \"#utility.yul\":3994:3997   */\n      dup2\n        /* \"#utility.yul\":3987:3997   */\n      swap1\n      pop\n        /* \"#utility.yul\":3469:4003   */\n      swap5\n      swap4\n      pop\n      pop\n      pop\n      pop\n      jump\t// out\n        /* \"#utility.yul\":4009:4107   */\n    tag_73:\n        /* \"#utility.yul\":4060:4066   */\n      0x00\n        /* \"#utility.yul\":4094:4099   */\n      dup2\n        /* \"#utility.yul\":4088:4100   */\n      mload\n        /* \"#utility.yul\":4078:4100   */\n      swap1\n      pop\n        /* \"#utility.yul\":4009:4107   */\n      swap2\n      swap1\n      pop\n      jump\t// out\n        /* \"#utility.yul\":4113:4260   */\n    tag_74:\n        /* \"#utility.yul\":4214:4225   */\n      0x00\n        /* \"#utility.yul\":4251:4254   */\n      dup2\n        /* \"#utility.yul\":4236:4254   */\n      swap1\n      pop\n        /* \"#utility.yul\":4113:4260   */\n      swap3\n      swap2\n      pop\n      pop\n      jump\t// out\n        /* \"#utility.yul\":4266:4573   */\n    tag_75:\n        /* \"#utility.yul\":4334:4335   */\n      0x00\n        /* \"#utility.yul\":4344:4457   */\n    tag_134:\n        /* \"#utility.yul\":4358:4364   */\n      dup4\n        /* \"#utility.yul\":4355:4356   */\n      dup2\n        /* \"#utility.yul\":4352:4365   */\n      lt\n        /* \"#utility.yul\":4344:4457   */\n      iszero\n      tag_136\n      jumpi\n        /* \"#utility.yul\":4443:4444   */\n      dup1\n        /* \"#utility.yul\":4438:4441   */\n      dup3\n        /* \"#utility.yul\":4434:4445   */\n      add\n        /* \"#utility.yul\":4428:4446   */\n      mload\n        /* \"#utility.yul\":4424:4425   */\n      dup2\n        /* \"#utility.yul\":4419:4422   */\n      dup5\n        /* \"#utility.yul\":4415:4426   */\n      add\n        /* \"#utility.yul\":4408:4447   */\n      mstore\n        /* \"#utility.yul\":4380:4382   */\n      0x20\n        /* \"#utility.yul\":4377:4378   */\n      dup2\n        /* \"#utility.yul\":4373:4383   */\n      add\n        /* \"#utility.yul\":4368:4383   */\n      swap1\n      pop\n        /* \"#utility.yul\":4344:4457   */\n      jump(tag_134)\n    tag_136:\n        /* \"#utility.yul\":4475:4481   */\n      dup4\n        /* \"#utility.yul\":4472:4473   */\n      dup2\n        /* \"#utility.yul\":4469:4482   */\n      gt\n        /* \"#utility.yul\":4466:4567   */\n      iszero\n      tag_137\n      jumpi\n        /* \"#utility.yul\":4555:4556   */\n      0x00\n        /* \"#utility.yul\":4546:4552   */\n      dup5\n        /* \"#utility.yul\":4541:4544   */\n      dup5\n        /* \"#utility.yul\":4537:4553   */\n      add\n        /* \"#utility.yul\":4530:4557   */\n      mstore\n        /* \"#utility.yul\":4466:4567   */\n    tag_137:\n        /* \"#utility.yul\":4315:4573   */\n      pop\n        /* \"#utility.yul\":4266:4573   */\n      pop\n      pop\n      pop\n      jump\t// out\n        /* \"#utility.yul\":4579:4952   */\n    tag_76:\n        /* \"#utility.yul\":4683:4686   */\n      0x00\n        /* \"#utility.yul\":4711:4749   */\n      tag_139\n        /* \"#utility.yul\":4743:4748   */\n      dup3\n        /* \"#utility.yul\":4711:4749   */\n      tag_73\n      jump\t// in\n    tag_139:\n        /* \"#utility.yul\":4765:4853   */\n      tag_140\n        /* \"#utility.yul\":4846:4852   */\n      dup2\n        /* \"#utility.yul\":4841:4844   */\n      dup6\n        /* \"#utility.yul\":4765:4853   */\n      tag_74\n      jump\t// in\n    tag_140:\n        /* \"#utility.yul\":4758:4853   */\n      swap4\n      pop\n        /* \"#utility.yul\":4862:4914   */\n      tag_141\n        /* \"#utility.yul\":4907:4913   */\n      dup2\n        /* \"#utility.yul\":4902:4905   */\n      dup6\n        /* \"#utility.yul\":4895:4899   */\n      0x20\n        /* \"#utility.yul\":4888:4893   */\n      dup7\n        /* \"#utility.yul\":4884:4900   */\n      add\n        /* \"#utility.yul\":4862:4914   */\n      tag_75\n      jump\t// in\n    tag_141:\n        /* \"#utility.yul\":4939:4945   */\n      dup1\n        /* \"#utility.yul\":4934:4937   */\n      dup5\n        /* \"#utility.yul\":4930:4946   */\n      add\n        /* \"#utility.yul\":4923:4946   */\n      swap2\n      pop\n        /* \"#utility.yul\":4687:4952   */\n      pop\n        /* \"#utility.yul\":4579:4952   */\n      swap3\n      swap2\n      pop\n      pop\n      jump\t// out\n        /* \"#utility.yul\":4958:5229   */\n    tag_45:\n        /* \"#utility.yul\":5088:5091   */\n      0x00\n        /* \"#utility.yul\":5110:5203   */\n      tag_143\n        /* \"#utility.yul\":5199:5202   */\n      dup3\n        /* \"#utility.yul\":5190:5196   */\n      dup5\n        /* \"#utility.yul\":5110:5203   */\n      tag_76\n      jump\t// in\n    tag_143:\n        /* \"#utility.yul\":5103:5203   */\n      swap2\n      pop\n        /* \"#utility.yul\":5220:5223   */\n      dup2\n        /* \"#utility.yul\":5213:5223   */\n      swap1\n      pop\n        /* \"#utility.yul\":4958:5229   */\n      swap3\n      swap2\n      pop\n      pop\n      jump\t// out\n        /* \"#utility.yul\":5235:5357   */\n    tag_77:\n        /* \"#utility.yul\":5308:5332   */\n      tag_145\n        /* \"#utility.yul\":5326:5331   */\n      dup2\n        /* \"#utility.yul\":5308:5332   */\n      tag_53\n      jump\t// in\n    tag_145:\n        /* \"#utility.yul\":5301:5306   */\n      dup2\n        /* \"#utility.yul\":5298:5333   */\n      eq\n        /* \"#utility.yul\":5288:5351   */\n      tag_146\n      jumpi\n        /* \"#utility.yul\":5347:5348   */\n      0x00\n        /* \"#utility.yul\":5344:5345   */\n      dup1\n        /* \"#utility.yul\":5337:5349   */\n      revert\n        /* \"#utility.yul\":5288:5351   */\n    tag_146:\n        /* \"#utility.yul\":5235:5357   */\n      pop\n      jump\t// out\n        /* \"#utility.yul\":5363:5506   */\n    tag_78:\n        /* \"#utility.yul\":5420:5425   */\n      0x00\n        /* \"#utility.yul\":5451:5457   */\n      dup2\n        /* \"#utility.yul\":5445:5458   */\n      mload\n        /* \"#utility.yul\":5436:5458   */\n      swap1\n      pop\n        /* \"#utility.yul\":5467:5500   */\n      tag_148\n        /* \"#utility.yul\":5494:5499   */\n      dup2\n        /* \"#utility.yul\":5467:5500   */\n      tag_77\n      jump\t// in\n    tag_148:\n        /* \"#utility.yul\":5363:5506   */\n      swap3\n      swap2\n      pop\n      pop\n      jump\t// out\n        /* \"#utility.yul\":5512:5863   */\n    tag_49:\n        /* \"#utility.yul\":5582:5588   */\n      0x00\n        /* \"#utility.yul\":5631:5633   */\n      0x20\n        /* \"#utility.yul\":5619:5628   */\n      dup3\n        /* \"#utility.yul\":5610:5617   */\n      dup5\n        /* \"#utility.yul\":5606:5629   */\n      sub\n        /* \"#utility.yul\":5602:5634   */\n      slt\n        /* \"#utility.yul\":5599:5718   */\n      iszero\n      tag_150\n      jumpi\n        /* \"#utility.yul\":5637:5716   */\n      tag_151\n      tag_58\n      jump\t// in\n    tag_151:\n        /* \"#utility.yul\":5599:5718   */\n    tag_150:\n        /* \"#utility.yul\":5757:5758   */\n      0x00\n        /* \"#utility.yul\":5782:5846   */\n      tag_152\n        /* \"#utility.yul\":5838:5845   */\n      dup5\n        /* \"#utility.yul\":5829:5835   */\n      dup3\n        /* \"#utility.yul\":5818:5827   */\n      dup6\n        /* \"#utility.yul\":5814:5836   */\n      add\n        /* \"#utility.yul\":5782:5846   */\n      tag_78\n      jump\t// in\n    tag_152:\n        /* \"#utility.yul\":5772:5846   */\n      swap2\n      pop\n        /* \"#utility.yul\":5728:5856   */\n      pop\n        /* \"#utility.yul\":5512:5863   */\n      swap3\n      swap2\n      pop\n      pop\n      jump\t// out\n\n    auxdata: 0xa2646970667358221220d2ec617771d1c0ef3ca4aaf1a38d4ccc85f13e5a2e094d20f5ef3c3e67e2cbf264736f6c634300080b0033\n}\n",
				"bytecode": {
					"linkReferences": {},
					"object": "60806040526000801b60005534801561001757600080fd5b5061059c806100276000396000f3fe6080604052600436106100555760003560e01c806369e9c0661461005a578063722713f7146100855780637bd703e8146100b05780638c6f2e82146100ed578063e8b5e51f1461012a578063f8b2cb4f14610134575b600080fd5b34801561006657600080fd5b5061006f610171565b60405161007c919061029a565b60405180910390f35b34801561009157600080fd5b5061009a61017a565b6040516100a791906102ce565b60405180910390f35b3480156100bc57600080fd5b506100d760048036038101906100d2919061034c565b610182565b6040516100e491906102ce565b60405180910390f35b3480156100f957600080fd5b50610114600480360381019061010f91906103af565b610194565b604051610121919061029a565b60405180910390f35b610132610221565b005b34801561014057600080fd5b5061015b6004803603810190610156919061034c565b610238565b60405161016891906102ce565b60405180910390f35b60008054905090565b600047905090565b600061018d82610238565b9050919050565b60008042905060008060001b905060028285836040516020016101b99392919061043f565b6040516020818303038152906040526040516101d591906104f6565b602060405180830381855afa1580156101f2573d6000803e3d6000fd5b5050506040513d601f19601f820116820180604052508101906102159190610539565b92508290505050919050565b670de0b6b3a764000034101561023657600080fd5b565b6000600160008373ffffffffffffffffffffffffffffffffffffffff1673ffffffffffffffffffffffffffffffffffffffff168152602001908152602001600020549050919050565b6000819050919050565b61029481610281565b82525050565b60006020820190506102af600083018461028b565b92915050565b6000819050919050565b6102c8816102b5565b82525050565b60006020820190506102e360008301846102bf565b92915050565b600080fd5b600073ffffffffffffffffffffffffffffffffffffffff82169050919050565b6000610319826102ee565b9050919050565b6103298161030e565b811461033457600080fd5b50565b60008135905061034681610320565b92915050565b600060208284031215610362576103616102e9565b5b600061037084828501610337565b91505092915050565b6000819050919050565b61038c81610379565b811461039757600080fd5b50565b6000813590506103a981610383565b92915050565b6000602082840312156103c5576103c46102e9565b5b60006103d38482850161039a565b91505092915050565b6000819050919050565b6103f76103f2826102b5565b6103dc565b82525050565b6000819050919050565b61041861041382610379565b6103fd565b82525050565b6000819050919050565b61043961043482610281565b61041e565b82525050565b600061044b82866103e6565b60208201915061045b8285610407565b60208201915061046b8284610428565b602082019150819050949350505050565b600081519050919050565b600081905092915050565b60005b838110156104b0578082015181840152602081019050610495565b838111156104bf576000848401525b50505050565b60006104d08261047c565b6104da8185610487565b93506104ea818560208601610492565b80840191505092915050565b600061050282846104c5565b915081905092915050565b61051681610281565b811461052157600080fd5b50565b6000815190506105338161050d565b92915050565b60006020828403121561054f5761054e6102e9565b5b600061055d84828501610524565b9150509291505056fea2646970667358221220d2ec617771d1c0ef3ca4aaf1a38d4ccc85f13e5a2e094d20f5ef3c3e67e2cbf264736f6c634300080b0033",
					"opcodes": "PUSH1 0x80 PUSH1 0x40 MSTORE PUSH1 0x0 DUP1 SHL PUSH1 0x0 SSTORE CALLVALUE DUP1 ISZERO PUSH2 0x17 JUMPI PUSH1 0x0 DUP1 REVERT JUMPDEST POP PUSH2 0x59C DUP1 PUSH2 0x27 PUSH1 0x0 CODECOPY PUSH1 0x0 RETURN INVALID PUSH1 0x80 PUSH1 0x40 MSTORE PUSH1 0x4 CALLDATASIZE LT PUSH2 0x55 JUMPI PUSH1 0x0 CALLDATALOAD PUSH1 0xE0 SHR DUP1 PUSH4 0x69E9C066 EQ PUSH2 0x5A JUMPI DUP1 PUSH4 0x722713F7 EQ PUSH2 0x85 JUMPI DUP1 PUSH4 0x7BD703E8 EQ PUSH2 0xB0 JUMPI DUP1 PUSH4 0x8C6F2E82 EQ PUSH2 0xED JUMPI DUP1 PUSH4 0xE8B5E51F EQ PUSH2 0x12A JUMPI DUP1 PUSH4 0xF8B2CB4F EQ PUSH2 0x134 JUMPI JUMPDEST PUSH1 0x0 DUP1 REVERT JUMPDEST CALLVALUE DUP1 ISZERO PUSH2 0x66 JUMPI PUSH1 0x0 DUP1 REVERT JUMPDEST POP PUSH2 0x6F PUSH2 0x171 JUMP JUMPDEST PUSH1 0x40 MLOAD PUSH2 0x7C SWAP2 SWAP1 PUSH2 0x29A JUMP JUMPDEST PUSH1 0x40 MLOAD DUP1 SWAP2 SUB SWAP1 RETURN JUMPDEST CALLVALUE DUP1 ISZERO PUSH2 0x91 JUMPI PUSH1 0x0 DUP1 REVERT JUMPDEST POP PUSH2 0x9A PUSH2 0x17A JUMP JUMPDEST PUSH1 0x40 MLOAD PUSH2 0xA7 SWAP2 SWAP1 PUSH2 0x2CE JUMP JUMPDEST PUSH1 0x40 MLOAD DUP1 SWAP2 SUB SWAP1 RETURN JUMPDEST CALLVALUE DUP1 ISZERO PUSH2 0xBC JUMPI PUSH1 0x0 DUP1 REVERT JUMPDEST POP PUSH2 0xD7 PUSH1 0x4 DUP1 CALLDATASIZE SUB DUP2 ADD SWAP1 PUSH2 0xD2 SWAP2 SWAP1 PUSH2 0x34C JUMP JUMPDEST PUSH2 0x182 JUMP JUMPDEST PUSH1 0x40 MLOAD PUSH2 0xE4 SWAP2 SWAP1 PUSH2 0x2CE JUMP JUMPDEST PUSH1 0x40 MLOAD DUP1 SWAP2 SUB SWAP1 RETURN JUMPDEST CALLVALUE DUP1 ISZERO PUSH2 0xF9 JUMPI PUSH1 0x0 DUP1 REVERT JUMPDEST POP PUSH2 0x114 PUSH1 0x4 DUP1 CALLDATASIZE SUB DUP2 ADD SWAP1 PUSH2 0x10F SWAP2 SWAP1 PUSH2 0x3AF JUMP JUMPDEST PUSH2 0x194 JUMP JUMPDEST PUSH1 0x40 MLOAD PUSH2 0x121 SWAP2 SWAP1 PUSH2 0x29A JUMP JUMPDEST PUSH1 0x40 MLOAD DUP1 SWAP2 SUB SWAP1 RETURN JUMPDEST PUSH2 0x132 PUSH2 0x221 JUMP JUMPDEST STOP JUMPDEST CALLVALUE DUP1 ISZERO PUSH2 0x140 JUMPI PUSH1 0x0 DUP1 REVERT JUMPDEST POP PUSH2 0x15B PUSH1 0x4 DUP1 CALLDATASIZE SUB DUP2 ADD SWAP1 PUSH2 0x156 SWAP2 SWAP1 PUSH2 0x34C JUMP JUMPDEST PUSH2 0x238 JUMP JUMPDEST PUSH1 0x40 MLOAD PUSH2 0x168 SWAP2 SWAP1 PUSH2 0x2CE JUMP JUMPDEST PUSH1 0x40 MLOAD DUP1 SWAP2 SUB SWAP1 RETURN JUMPDEST PUSH1 0x0 DUP1 SLOAD SWAP1 POP SWAP1 JUMP JUMPDEST PUSH1 0x0 SELFBALANCE SWAP1 POP SWAP1 JUMP JUMPDEST PUSH1 0x0 PUSH2 0x18D DUP3 PUSH2 0x238 JUMP JUMPDEST SWAP1 POP SWAP2 SWAP1 POP JUMP JUMPDEST PUSH1 0x0 DUP1 TIMESTAMP SWAP1 POP PUSH1 0x0 DUP1 PUSH1 0x0 SHL SWAP1 POP PUSH1 0x2 DUP3 DUP6 DUP4 PUSH1 0x40 MLOAD PUSH1 0x20 ADD PUSH2 0x1B9 SWAP4 SWAP3 SWAP2 SWAP1 PUSH2 0x43F JUMP JUMPDEST PUSH1 0x40 MLOAD PUSH1 0x20 DUP2 DUP4 SUB SUB DUP2 MSTORE SWAP1 PUSH1 0x40 MSTORE PUSH1 0x40 MLOAD PUSH2 0x1D5 SWAP2 SWAP1 PUSH2 0x4F6 JUMP JUMPDEST PUSH1 0x20 PUSH1 0x40 MLOAD DUP1 DUP4 SUB DUP2 DUP6 GAS STATICCALL ISZERO DUP1 ISZERO PUSH2 0x1F2 JUMPI RETURNDATASIZE PUSH1 0x0 DUP1 RETURNDATACOPY RETURNDATASIZE PUSH1 0x0 REVERT JUMPDEST POP POP POP PUSH1 0x40 MLOAD RETURNDATASIZE PUSH1 0x1F NOT PUSH1 0x1F DUP3 ADD AND DUP3 ADD DUP1 PUSH1 0x40 MSTORE POP DUP2 ADD SWAP1 PUSH2 0x215 SWAP2 SWAP1 PUSH2 0x539 JUMP JUMPDEST SWAP3 POP DUP3 SWAP1 POP POP POP SWAP2 SWAP1 POP JUMP JUMPDEST PUSH8 0xDE0B6B3A7640000 CALLVALUE LT ISZERO PUSH2 0x236 JUMPI PUSH1 0x0 DUP1 REVERT JUMPDEST JUMP JUMPDEST PUSH1 0x0 PUSH1 0x1 PUSH1 0x0 DUP4 PUSH20 0xFFFFFFFFFFFFFFFFFFFFFFFFFFFFFFFFFFFFFFFF AND PUSH20 0xFFFFFFFFFFFFFFFFFFFFFFFFFFFFFFFFFFFFFFFF AND DUP2 MSTORE PUSH1 0x20 ADD SWAP1 DUP2 MSTORE PUSH1 0x20 ADD PUSH1 0x0 KECCAK256 SLOAD SWAP1 POP SWAP2 SWAP1 POP JUMP JUMPDEST PUSH1 0x0 DUP2 SWAP1 POP SWAP2 SWAP1 POP JUMP JUMPDEST PUSH2 0x294 DUP2 PUSH2 0x281 JUMP JUMPDEST DUP3 MSTORE POP POP JUMP JUMPDEST PUSH1 0x0 PUSH1 0x20 DUP3 ADD SWAP1 POP PUSH2 0x2AF PUSH1 0x0 DUP4 ADD DUP5 PUSH2 0x28B JUMP JUMPDEST SWAP3 SWAP2 POP POP JUMP JUMPDEST PUSH1 0x0 DUP2 SWAP1 POP SWAP2 SWAP1 POP JUMP JUMPDEST PUSH2 0x2C8 DUP2 PUSH2 0x2B5 JUMP JUMPDEST DUP3 MSTORE POP POP JUMP JUMPDEST PUSH1 0x0 PUSH1 0x20 DUP3 ADD SWAP1 POP PUSH2 0x2E3 PUSH1 0x0 DUP4 ADD DUP5 PUSH2 0x2BF JUMP JUMPDEST SWAP3 SWAP2 POP POP JUMP JUMPDEST PUSH1 0x0 DUP1 REVERT JUMPDEST PUSH1 0x0 PUSH20 0xFFFFFFFFFFFFFFFFFFFFFFFFFFFFFFFFFFFFFFFF DUP3 AND SWAP1 POP SWAP2 SWAP1 POP JUMP JUMPDEST PUSH1 0x0 PUSH2 0x319 DUP3 PUSH2 0x2EE JUMP JUMPDEST SWAP1 POP SWAP2 SWAP1 POP JUMP JUMPDEST PUSH2 0x329 DUP2 PUSH2 0x30E JUMP JUMPDEST DUP2 EQ PUSH2 0x334 JUMPI PUSH1 0x0 DUP1 REVERT JUMPDEST POP JUMP JUMPDEST PUSH1 0x0 DUP2 CALLDATALOAD SWAP1 POP PUSH2 0x346 DUP2 PUSH2 0x320 JUMP JUMPDEST SWAP3 SWAP2 POP POP JUMP JUMPDEST PUSH1 0x0 PUSH1 0x20 DUP3 DUP5 SUB SLT ISZERO PUSH2 0x362 JUMPI PUSH2 0x361 PUSH2 0x2E9 JUMP JUMPDEST JUMPDEST PUSH1 0x0 PUSH2 0x370 DUP5 DUP3 DUP6 ADD PUSH2 0x337 JUMP JUMPDEST SWAP2 POP POP SWAP3 SWAP2 POP POP JUMP JUMPDEST PUSH1 0x0 DUP2 SWAP1 POP SWAP2 SWAP1 POP JUMP JUMPDEST PUSH2 0x38C DUP2 PUSH2 0x379 JUMP JUMPDEST DUP2 EQ PUSH2 0x397 JUMPI PUSH1 0x0 DUP1 REVERT JUMPDEST POP JUMP JUMPDEST PUSH1 0x0 DUP2 CALLDATALOAD SWAP1 POP PUSH2 0x3A9 DUP2 PUSH2 0x383 JUMP JUMPDEST SWAP3 SWAP2 POP POP JUMP JUMPDEST PUSH1 0x0 PUSH1 0x20 DUP3 DUP5 SUB SLT ISZERO PUSH2 0x3C5 JUMPI PUSH2 0x3C4 PUSH2 0x2E9 JUMP JUMPDEST JUMPDEST PUSH1 0x0 PUSH2 0x3D3 DUP5 DUP3 DUP6 ADD PUSH2 0x39A JUMP JUMPDEST SWAP2 POP POP SWAP3 SWAP2 POP POP JUMP JUMPDEST PUSH1 0x0 DUP2 SWAP1 POP SWAP2 SWAP1 POP JUMP JUMPDEST PUSH2 0x3F7 PUSH2 0x3F2 DUP3 PUSH2 0x2B5 JUMP JUMPDEST PUSH2 0x3DC JUMP JUMPDEST DUP3 MSTORE POP POP JUMP JUMPDEST PUSH1 0x0 DUP2 SWAP1 POP SWAP2 SWAP1 POP JUMP JUMPDEST PUSH2 0x418 PUSH2 0x413 DUP3 PUSH2 0x379 JUMP JUMPDEST PUSH2 0x3FD JUMP JUMPDEST DUP3 MSTORE POP POP JUMP JUMPDEST PUSH1 0x0 DUP2 SWAP1 POP SWAP2 SWAP1 POP JUMP JUMPDEST PUSH2 0x439 PUSH2 0x434 DUP3 PUSH2 0x281 JUMP JUMPDEST PUSH2 0x41E JUMP JUMPDEST DUP3 MSTORE POP POP JUMP JUMPDEST PUSH1 0x0 PUSH2 0x44B DUP3 DUP7 PUSH2 0x3E6 JUMP JUMPDEST PUSH1 0x20 DUP3 ADD SWAP2 POP PUSH2 0x45B DUP3 DUP6 PUSH2 0x407 JUMP JUMPDEST PUSH1 0x20 DUP3 ADD SWAP2 POP PUSH2 0x46B DUP3 DUP5 PUSH2 0x428 JUMP JUMPDEST PUSH1 0x20 DUP3 ADD SWAP2 POP DUP2 SWAP1 POP SWAP5 SWAP4 POP POP POP POP JUMP JUMPDEST PUSH1 0x0 DUP2 MLOAD SWAP1 POP SWAP2 SWAP1 POP JUMP JUMPDEST PUSH1 0x0 DUP2 SWAP1 POP SWAP3 SWAP2 POP POP JUMP JUMPDEST PUSH1 0x0 JUMPDEST DUP4 DUP2 LT ISZERO PUSH2 0x4B0 JUMPI DUP1 DUP3 ADD MLOAD DUP2 DUP5 ADD MSTORE PUSH1 0x20 DUP2 ADD SWAP1 POP PUSH2 0x495 JUMP JUMPDEST DUP4 DUP2 GT ISZERO PUSH2 0x4BF JUMPI PUSH1 0x0 DUP5 DUP5 ADD MSTORE JUMPDEST POP POP POP POP JUMP JUMPDEST PUSH1 0x0 PUSH2 0x4D0 DUP3 PUSH2 0x47C JUMP JUMPDEST PUSH2 0x4DA DUP2 DUP6 PUSH2 0x487 JUMP JUMPDEST SWAP4 POP PUSH2 0x4EA DUP2 DUP6 PUSH1 0x20 DUP7 ADD PUSH2 0x492 JUMP JUMPDEST DUP1 DUP5 ADD SWAP2 POP POP SWAP3 SWAP2 POP POP JUMP JUMPDEST PUSH1 0x0 PUSH2 0x502 DUP3 DUP5 PUSH2 0x4C5 JUMP JUMPDEST SWAP2 POP DUP2 SWAP1 POP SWAP3 SWAP2 POP POP JUMP JUMPDEST PUSH2 0x516 DUP2 PUSH2 0x281 JUMP JUMPDEST DUP2 EQ PUSH2 0x521 JUMPI PUSH1 0x0 DUP1 REVERT JUMPDEST POP JUMP JUMPDEST PUSH1 0x0 DUP2 MLOAD SWAP1 POP PUSH2 0x533 DUP2 PUSH2 0x50D JUMP JUMPDEST SWAP3 SWAP2 POP POP JUMP JUMPDEST PUSH1 0x0 PUSH1 0x20 DUP3 DUP5 SUB SLT ISZERO PUSH2 0x54F JUMPI PUSH2 0x54E PUSH2 0x2E9 JUMP JUMPDEST JUMPDEST PUSH1 0x0 PUSH2 0x55D DUP5 DUP3 DUP6 ADD PUSH2 0x524 JUMP JUMPDEST SWAP2 POP POP SWAP3 SWAP2 POP POP JUMP INVALID LOG2 PUSH5 0x6970667358 0x22 SLT KECCAK256 0xD2 0xEC PUSH2 0x7771 0xD1 0xC0 0xEF EXTCODECOPY LOG4 0xAA CALL LOG3 DUP14 0x4C 0xCC DUP6 CALL RETURNDATACOPY GAS 0x2E MULMOD 0x4D KECCAK256 CREATE2 0xEF EXTCODECOPY RETURNDATACOPY PUSH8 0xE2CBF264736F6C63 NUMBER STOP ADDMOD SIGNEXTEND STOP CALLER "
				},
				"gasEstimates": {
					"creation": {
						"codeDepositCost": "287200",
						"executionCost": "5336",
						"totalCost": "292536"
					},
					"external": {
						"Block(int256)": "infinite",
						"balanceOf()": "339",
						"getBalance(address)": "2929",
						"getBalanceInEth(address)": "2906",
						"invest()": "211",
						"prevHash()": "2415"
					}
				},
				"methodIdentifiers": {
					"Block(int256)": "8c6f2e82",
					"balanceOf()": "722713f7",
					"getBalance(address)": "f8b2cb4f",
					"getBalanceInEth(address)": "7bd703e8",
					"invest()": "e8b5e51f",
					"prevHash()": "69e9c066"
				}
			},
			"storageLayout": {
				"storage": [
					{
						"astId": 4,
						"contract": "contracts/transact.sol:transact",
						"label": "previousHash",
						"offset": 0,
						"slot": "0",
						"type": "t_bytes32"
					},
					{
						"astId": 8,
						"contract": "contracts/transact.sol:transact",
						"label": "balances",
						"offset": 0,
						"slot": "1",
						"type": "t_mapping(t_address,t_uint256)"
					}
				],
				"types": {
					"t_address": {
						"encoding": "inplace",
						"label": "address",
						"numberOfBytes": "20"
					},
					"t_bytes32": {
						"encoding": "inplace",
						"label": "bytes32",
						"numberOfBytes": "32"
					},
					"t_mapping(t_address,t_uint256)": {
						"encoding": "mapping",
						"key": "t_address",
						"label": "mapping(address => uint256)",
						"numberOfBytes": "32",
						"value": "t_uint256"
					},
					"t_uint256": {
						"encoding": "inplace",
						"label": "uint256",
						"numberOfBytes": "32"
					}
				}
			},
			"userdoc": {
				"kind": "user",
				"methods": {},
				"version": 1
			}
		}
	}
}