{
	"contracts/transact.sol": {
		"transact": {
			"abi": [
				{
					"anonymous": false,
					"inputs": [
						{
							"indexed": true,
							"internalType": "address",
							"name": "_from",
							"type": "address"
						},
						{
							"indexed": true,
							"internalType": "address",
							"name": "_to",
							"type": "address"
						},
						{
							"indexed": false,
							"internalType": "uint256",
							"name": "_value",
							"type": "uint256"
						}
					],
					"name": "Transfer",
					"type": "event"
				},
				{
					"inputs": [
						{
							"internalType": "uint256",
							"name": "time",
							"type": "uint256"
						},
						{
							"internalType": "int256",
							"name": "transactions",
							"type": "int256"
						},
						{
							"internalType": "uint256",
							"name": "hash",
							"type": "uint256"
						},
						{
							"internalType": "string",
							"name": "previousHash",
							"type": "string"
						}
					],
					"name": "Block",
					"outputs": [
						{
							"internalType": "bytes32",
							"name": "hashin",
							"type": "bytes32"
						}
					],
					"stateMutability": "view",
					"type": "function"
				},
				{
					"inputs": [],
					"name": "balanceOf",
					"outputs": [
						{
							"internalType": "uint256",
							"name": "",
							"type": "uint256"
						}
					],
					"stateMutability": "view",
					"type": "function"
				},
				{
					"inputs": [
						{
							"internalType": "int8",
							"name": "time",
							"type": "int8"
						}
					],
					"name": "encodeInt8",
					"outputs": [
						{
							"internalType": "bytes",
							"name": "",
							"type": "bytes"
						}
					],
					"stateMutability": "pure",
					"type": "function"
				},
				{
					"inputs": [
						{
							"internalType": "address",
							"name": "addr",
							"type": "address"
						}
					],
					"name": "getBalance",
					"outputs": [
						{
							"internalType": "uint256",
							"name": "",
							"type": "uint256"
						}
					],
					"stateMutability": "view",
					"type": "function"
				},
				{
					"inputs": [
						{
							"internalType": "address",
							"name": "addr",
							"type": "address"
						}
					],
					"name": "getBalanceInEth",
					"outputs": [
						{
							"internalType": "uint256",
							"name": "",
							"type": "uint256"
						}
					],
					"stateMutability": "view",
					"type": "function"
				},
				{
					"inputs": [],
					"name": "invest",
					"outputs": [],
					"stateMutability": "payable",
					"type": "function"
				}
			],
			"devdoc": {
				"kind": "dev",
				"methods": {},
				"version": 1
			},
			"evm": {
				"assembly": "    /* \"contracts/transact.sol\":60:1357  contract transact {... */\n  mstore(0x40, 0x80)\n    /* \"contracts/transact.sol\":138:139  1 */\n  0x01\n    /* \"contracts/transact.sol\":126:139  int trans = 1 */\n  dup1\n  sstore\n    /* \"contracts/transact.sol\":60:1357  contract transact {... */\n  callvalue\n  dup1\n  iszero\n  tag_1\n  jumpi\n  0x00\n  dup1\n  revert\ntag_1:\n  pop\n  dataSize(sub_0)\n  dup1\n  dataOffset(sub_0)\n  0x00\n  codecopy\n  0x00\n  return\nstop\n\nsub_0: assembly {\n        /* \"contracts/transact.sol\":60:1357  contract transact {... */\n      mstore(0x40, 0x80)\n      jumpi(tag_1, lt(calldatasize, 0x04))\n      shr(0xe0, calldataload(0x00))\n      dup1\n      0x722713f7\n      eq\n      tag_2\n      jumpi\n      dup1\n      0x7bd703e8\n      eq\n      tag_3\n      jumpi\n      dup1\n      0xc47e739a\n      eq\n      tag_4\n      jumpi\n      dup1\n      0xe8b5e51f\n      eq\n      tag_5\n      jumpi\n      dup1\n      0xf672e798\n      eq\n      tag_6\n      jumpi\n      dup1\n      0xf8b2cb4f\n      eq\n      tag_7\n      jumpi\n    tag_1:\n      0x00\n      dup1\n      revert\n        /* \"contracts/transact.sol\":432:530  function balanceOf() external view returns (uint) {... */\n    tag_2:\n      callvalue\n      dup1\n      iszero\n      tag_8\n      jumpi\n      0x00\n      dup1\n      revert\n    tag_8:\n      pop\n      tag_9\n      tag_10\n      jump\t// in\n    tag_9:\n      mload(0x40)\n      tag_11\n      swap2\n      swap1\n      tag_12\n      jump\t// in\n    tag_11:\n      mload(0x40)\n      dup1\n      swap2\n      sub\n      swap1\n      return\n        /* \"contracts/transact.sol\":538:644  function getBalanceInEth(address addr) public view returns(uint){... */\n    tag_3:\n      callvalue\n      dup1\n      iszero\n      tag_13\n      jumpi\n      0x00\n      dup1\n      revert\n    tag_13:\n      pop\n      tag_14\n      0x04\n      dup1\n      calldatasize\n      sub\n      dup2\n      add\n      swap1\n      tag_15\n      swap2\n      swap1\n      tag_16\n      jump\t// in\n    tag_15:\n      tag_17\n      jump\t// in\n    tag_14:\n      mload(0x40)\n      tag_18\n      swap2\n      swap1\n      tag_12\n      jump\t// in\n    tag_18:\n      mload(0x40)\n      dup1\n      swap2\n      sub\n      swap1\n      return\n        /* \"contracts/transact.sol\":1148:1262  function encodeInt8(int8 time) public pure returns (bytes memory) {... */\n    tag_4:\n      callvalue\n      dup1\n      iszero\n      tag_19\n      jumpi\n      0x00\n      dup1\n      revert\n    tag_19:\n      pop\n      tag_20\n      0x04\n      dup1\n      calldatasize\n      sub\n      dup2\n      add\n      swap1\n      tag_21\n      swap2\n      swap1\n      tag_22\n      jump\t// in\n    tag_21:\n      tag_23\n      jump\t// in\n    tag_20:\n      mload(0x40)\n      tag_24\n      swap2\n      swap1\n      tag_25\n      jump\t// in\n    tag_24:\n      mload(0x40)\n      dup1\n      swap2\n      sub\n      swap1\n      return\n        /* \"contracts/transact.sol\":313:426  function invest() external payable {... */\n    tag_5:\n      tag_26\n      tag_27\n      jump\t// in\n    tag_26:\n      stop\n        /* \"contracts/transact.sol\":760:1141  function Block(uint time,int transactions,uint hash, string memory previousHash )public view returns(bytes32 hashin){... */\n    tag_6:\n      callvalue\n      dup1\n      iszero\n      tag_28\n      jumpi\n      0x00\n      dup1\n      revert\n    tag_28:\n      pop\n      tag_29\n      0x04\n      dup1\n      calldatasize\n      sub\n      dup2\n      add\n      swap1\n      tag_30\n      swap2\n      swap1\n      tag_31\n      jump\t// in\n    tag_30:\n      tag_32\n      jump\t// in\n    tag_29:\n      mload(0x40)\n      tag_33\n      swap2\n      swap1\n      tag_34\n      jump\t// in\n    tag_33:\n      mload(0x40)\n      dup1\n      swap2\n      sub\n      swap1\n      return\n        /* \"contracts/transact.sol\":652:752  function getBalance(address addr) public view returns(uint) {... */\n    tag_7:\n      callvalue\n      dup1\n      iszero\n      tag_35\n      jumpi\n      0x00\n      dup1\n      revert\n    tag_35:\n      pop\n      tag_36\n      0x04\n      dup1\n      calldatasize\n      sub\n      dup2\n      add\n      swap1\n      tag_37\n      swap2\n      swap1\n      tag_16\n      jump\t// in\n    tag_37:\n      tag_38\n      jump\t// in\n    tag_36:\n      mload(0x40)\n      tag_39\n      swap2\n      swap1\n      tag_12\n      jump\t// in\n    tag_39:\n      mload(0x40)\n      dup1\n      swap2\n      sub\n      swap1\n      return\n        /* \"contracts/transact.sol\":432:530  function balanceOf() external view returns (uint) {... */\n    tag_10:\n        /* \"contracts/transact.sol\":476:480  uint */\n      0x00\n        /* \"contracts/transact.sol\":500:521  address(this).balance */\n      selfbalance\n        /* \"contracts/transact.sol\":493:521  return address(this).balance */\n      swap1\n      pop\n        /* \"contracts/transact.sol\":432:530  function balanceOf() external view returns (uint) {... */\n      swap1\n      jump\t// out\n        /* \"contracts/transact.sol\":538:644  function getBalanceInEth(address addr) public view returns(uint){... */\n    tag_17:\n        /* \"contracts/transact.sol\":597:601  uint */\n      0x00\n        /* \"contracts/transact.sol\":620:636  getBalance(addr) */\n      tag_42\n        /* \"contracts/transact.sol\":631:635  addr */\n      dup3\n        /* \"contracts/transact.sol\":620:630  getBalance */\n      tag_38\n        /* \"contracts/transact.sol\":620:636  getBalance(addr) */\n      jump\t// in\n    tag_42:\n        /* \"contracts/transact.sol\":613:636  return getBalance(addr) */\n      swap1\n      pop\n        /* \"contracts/transact.sol\":538:644  function getBalanceInEth(address addr) public view returns(uint){... */\n      swap2\n      swap1\n      pop\n      jump\t// out\n        /* \"contracts/transact.sol\":1148:1262  function encodeInt8(int8 time) public pure returns (bytes memory) {... */\n    tag_23:\n        /* \"contracts/transact.sol\":1200:1212  bytes memory */\n      0x60\n        /* \"contracts/transact.sol\":1249:1253  time */\n      dup2\n        /* \"contracts/transact.sol\":1232:1254  abi.encodePacked(time) */\n      add(0x20, mload(0x40))\n      tag_44\n      swap2\n      swap1\n      tag_45\n      jump\t// in\n    tag_44:\n      mload(0x40)\n      0x20\n      dup2\n      dup4\n      sub\n      sub\n      dup2\n      mstore\n      swap1\n      0x40\n      mstore\n        /* \"contracts/transact.sol\":1225:1254  return abi.encodePacked(time) */\n      swap1\n      pop\n        /* \"contracts/transact.sol\":1148:1262  function encodeInt8(int8 time) public pure returns (bytes memory) {... */\n      swap2\n      swap1\n      pop\n      jump\t// out\n        /* \"contracts/transact.sol\":313:426  function invest() external payable {... */\n    tag_27:\n        /* \"contracts/transact.sol\":374:381  1 ether */\n      0x0de0b6b3a7640000\n        /* \"contracts/transact.sol\":362:371  msg.value */\n      callvalue\n        /* \"contracts/transact.sol\":362:381  msg.value < 1 ether */\n      lt\n        /* \"contracts/transact.sol\":359:417  if(msg.value < 1 ether){... */\n      iszero\n      tag_47\n      jumpi\n        /* \"contracts/transact.sol\":397:405  revert() */\n      0x00\n      dup1\n      revert\n        /* \"contracts/transact.sol\":359:417  if(msg.value < 1 ether){... */\n    tag_47:\n        /* \"contracts/transact.sol\":313:426  function invest() external payable {... */\n      jump\t// out\n        /* \"contracts/transact.sol\":760:1141  function Block(uint time,int transactions,uint hash, string memory previousHash )public view returns(bytes32 hashin){... */\n    tag_32:\n        /* \"contracts/transact.sol\":861:875  bytes32 hashin */\n      0x00\n        /* \"contracts/transact.sol\":893:908  block.timestamp */\n      timestamp\n        /* \"contracts/transact.sol\":887:908  time= block.timestamp */\n      swap5\n      pop\n        /* \"contracts/transact.sol\":931:936  trans */\n      sload(0x01)\n        /* \"contracts/transact.sol\":918:936  transactions=trans */\n      swap4\n      pop\n        /* \"contracts/transact.sol\":946:961  previousHash=\"\" */\n      mload(0x40)\n      dup1\n      0x20\n      add\n      0x40\n      mstore\n      dup1\n      0x00\n      dup2\n      mstore\n      pop\n      swap2\n      pop\n        /* \"contracts/transact.sol\":971:980  int nonce */\n      0x00\n        /* \"contracts/transact.sol\":994:1011  uint16 diffuculty */\n      dup1\n        /* \"contracts/transact.sol\":1030:1092  sha256(abi.encodePacked(time,transactions,nonce,previousHash)) */\n      0x02\n        /* \"contracts/transact.sol\":1054:1058  time */\n      dup8\n        /* \"contracts/transact.sol\":1059:1071  transactions */\n      dup8\n        /* \"contracts/transact.sol\":1072:1077  nonce */\n      dup5\n        /* \"contracts/transact.sol\":1078:1090  previousHash */\n      dup8\n        /* \"contracts/transact.sol\":1037:1091  abi.encodePacked(time,transactions,nonce,previousHash) */\n      add(0x20, mload(0x40))\n      tag_49\n      swap5\n      swap4\n      swap3\n      swap2\n      swap1\n      tag_50\n      jump\t// in\n    tag_49:\n      mload(0x40)\n      0x20\n      dup2\n      dup4\n      sub\n      sub\n      dup2\n      mstore\n      swap1\n      0x40\n      mstore\n        /* \"contracts/transact.sol\":1030:1092  sha256(abi.encodePacked(time,transactions,nonce,previousHash)) */\n      mload(0x40)\n      tag_51\n      swap2\n      swap1\n      tag_52\n      jump\t// in\n    tag_51:\n      0x20\n      mload(0x40)\n      dup1\n      dup4\n      sub\n      dup2\n      dup6\n      gas\n      staticcall\n      iszero\n      dup1\n      iszero\n      tag_54\n      jumpi\n      returndatasize\n      0x00\n      dup1\n      returndatacopy\n      revert(0x00, returndatasize)\n    tag_54:\n      pop\n      pop\n      pop\n      mload(0x40)\n      returndatasize\n      not(0x1f)\n      0x1f\n      dup3\n      add\n      and\n      dup3\n      add\n      dup1\n      0x40\n      mstore\n      pop\n      dup2\n      add\n      swap1\n      tag_55\n      swap2\n      swap1\n      tag_56\n      jump\t// in\n    tag_55:\n        /* \"contracts/transact.sol\":1022:1092  hashin= sha256(abi.encodePacked(time,transactions,nonce,previousHash)) */\n      swap3\n      pop\n        /* \"contracts/transact.sol\":1113:1127  return(hashin) */\n      pop\n      pop\n        /* \"contracts/transact.sol\":760:1141  function Block(uint time,int transactions,uint hash, string memory previousHash )public view returns(bytes32 hashin){... */\n      swap5\n      swap4\n      pop\n      pop\n      pop\n      pop\n      jump\t// out\n        /* \"contracts/transact.sol\":652:752  function getBalance(address addr) public view returns(uint) {... */\n    tag_38:\n        /* \"contracts/transact.sol\":706:710  uint */\n      0x00\n        /* \"contracts/transact.sol\":730:738  balances */\n      dup1\n        /* \"contracts/transact.sol\":730:744  balances[addr] */\n      0x00\n        /* \"contracts/transact.sol\":739:743  addr */\n      dup4\n        /* \"contracts/transact.sol\":730:744  balances[addr] */\n      0xffffffffffffffffffffffffffffffffffffffff\n      and\n      0xffffffffffffffffffffffffffffffffffffffff\n      and\n      dup2\n      mstore\n      0x20\n      add\n      swap1\n      dup2\n      mstore\n      0x20\n      add\n      0x00\n      keccak256\n      sload\n        /* \"contracts/transact.sol\":723:744  return balances[addr] */\n      swap1\n      pop\n        /* \"contracts/transact.sol\":652:752  function getBalance(address addr) public view returns(uint) {... */\n      swap2\n      swap1\n      pop\n      jump\t// out\n        /* \"#utility.yul\":7:84   */\n    tag_58:\n        /* \"#utility.yul\":44:51   */\n      0x00\n        /* \"#utility.yul\":73:78   */\n      dup2\n        /* \"#utility.yul\":62:78   */\n      swap1\n      pop\n        /* \"#utility.yul\":7:84   */\n      swap2\n      swap1\n      pop\n      jump\t// out\n        /* \"#utility.yul\":90:208   */\n    tag_59:\n        /* \"#utility.yul\":177:201   */\n      tag_108\n        /* \"#utility.yul\":195:200   */\n      dup2\n        /* \"#utility.yul\":177:201   */\n      tag_58\n      jump\t// in\n    tag_108:\n        /* \"#utility.yul\":172:175   */\n      dup3\n        /* \"#utility.yul\":165:202   */\n      mstore\n        /* \"#utility.yul\":90:208   */\n      pop\n      pop\n      jump\t// out\n        /* \"#utility.yul\":214:436   */\n    tag_12:\n        /* \"#utility.yul\":307:311   */\n      0x00\n        /* \"#utility.yul\":345:347   */\n      0x20\n        /* \"#utility.yul\":334:343   */\n      dup3\n        /* \"#utility.yul\":330:348   */\n      add\n        /* \"#utility.yul\":322:348   */\n      swap1\n      pop\n        /* \"#utility.yul\":358:429   */\n      tag_110\n        /* \"#utility.yul\":426:427   */\n      0x00\n        /* \"#utility.yul\":415:424   */\n      dup4\n        /* \"#utility.yul\":411:428   */\n      add\n        /* \"#utility.yul\":402:408   */\n      dup5\n        /* \"#utility.yul\":358:429   */\n      tag_59\n      jump\t// in\n    tag_110:\n        /* \"#utility.yul\":214:436   */\n      swap3\n      swap2\n      pop\n      pop\n      jump\t// out\n        /* \"#utility.yul\":442:517   */\n    tag_60:\n        /* \"#utility.yul\":475:481   */\n      0x00\n        /* \"#utility.yul\":508:510   */\n      0x40\n        /* \"#utility.yul\":502:511   */\n      mload\n        /* \"#utility.yul\":492:511   */\n      swap1\n      pop\n        /* \"#utility.yul\":442:517   */\n      swap1\n      jump\t// out\n        /* \"#utility.yul\":523:640   */\n    tag_61:\n        /* \"#utility.yul\":632:633   */\n      0x00\n        /* \"#utility.yul\":629:630   */\n      dup1\n        /* \"#utility.yul\":622:634   */\n      revert\n        /* \"#utility.yul\":646:763   */\n    tag_62:\n        /* \"#utility.yul\":755:756   */\n      0x00\n        /* \"#utility.yul\":752:753   */\n      dup1\n        /* \"#utility.yul\":745:757   */\n      revert\n        /* \"#utility.yul\":769:895   */\n    tag_63:\n        /* \"#utility.yul\":806:813   */\n      0x00\n        /* \"#utility.yul\":846:888   */\n      0xffffffffffffffffffffffffffffffffffffffff\n        /* \"#utility.yul\":839:844   */\n      dup3\n        /* \"#utility.yul\":835:889   */\n      and\n        /* \"#utility.yul\":824:889   */\n      swap1\n      pop\n        /* \"#utility.yul\":769:895   */\n      swap2\n      swap1\n      pop\n      jump\t// out\n        /* \"#utility.yul\":901:997   */\n    tag_64:\n        /* \"#utility.yul\":938:945   */\n      0x00\n        /* \"#utility.yul\":967:991   */\n      tag_116\n        /* \"#utility.yul\":985:990   */\n      dup3\n        /* \"#utility.yul\":967:991   */\n      tag_63\n      jump\t// in\n    tag_116:\n        /* \"#utility.yul\":956:991   */\n      swap1\n      pop\n        /* \"#utility.yul\":901:997   */\n      swap2\n      swap1\n      pop\n      jump\t// out\n        /* \"#utility.yul\":1003:1125   */\n    tag_65:\n        /* \"#utility.yul\":1076:1100   */\n      tag_118\n        /* \"#utility.yul\":1094:1099   */\n      dup2\n        /* \"#utility.yul\":1076:1100   */\n      tag_64\n      jump\t// in\n    tag_118:\n        /* \"#utility.yul\":1069:1074   */\n      dup2\n        /* \"#utility.yul\":1066:1101   */\n      eq\n        /* \"#utility.yul\":1056:1119   */\n      tag_119\n      jumpi\n        /* \"#utility.yul\":1115:1116   */\n      0x00\n        /* \"#utility.yul\":1112:1113   */\n      dup1\n        /* \"#utility.yul\":1105:1117   */\n      revert\n        /* \"#utility.yul\":1056:1119   */\n    tag_119:\n        /* \"#utility.yul\":1003:1125   */\n      pop\n      jump\t// out\n        /* \"#utility.yul\":1131:1270   */\n    tag_66:\n        /* \"#utility.yul\":1177:1182   */\n      0x00\n        /* \"#utility.yul\":1215:1221   */\n      dup2\n        /* \"#utility.yul\":1202:1222   */\n      calldataload\n        /* \"#utility.yul\":1193:1222   */\n      swap1\n      pop\n        /* \"#utility.yul\":1231:1264   */\n      tag_121\n        /* \"#utility.yul\":1258:1263   */\n      dup2\n        /* \"#utility.yul\":1231:1264   */\n      tag_65\n      jump\t// in\n    tag_121:\n        /* \"#utility.yul\":1131:1270   */\n      swap3\n      swap2\n      pop\n      pop\n      jump\t// out\n        /* \"#utility.yul\":1276:1605   */\n    tag_16:\n        /* \"#utility.yul\":1335:1341   */\n      0x00\n        /* \"#utility.yul\":1384:1386   */\n      0x20\n        /* \"#utility.yul\":1372:1381   */\n      dup3\n        /* \"#utility.yul\":1363:1370   */\n      dup5\n        /* \"#utility.yul\":1359:1382   */\n      sub\n        /* \"#utility.yul\":1355:1387   */\n      slt\n        /* \"#utility.yul\":1352:1471   */\n      iszero\n      tag_123\n      jumpi\n        /* \"#utility.yul\":1390:1469   */\n      tag_124\n      tag_61\n      jump\t// in\n    tag_124:\n        /* \"#utility.yul\":1352:1471   */\n    tag_123:\n        /* \"#utility.yul\":1510:1511   */\n      0x00\n        /* \"#utility.yul\":1535:1588   */\n      tag_125\n        /* \"#utility.yul\":1580:1587   */\n      dup5\n        /* \"#utility.yul\":1571:1577   */\n      dup3\n        /* \"#utility.yul\":1560:1569   */\n      dup6\n        /* \"#utility.yul\":1556:1578   */\n      add\n        /* \"#utility.yul\":1535:1588   */\n      tag_66\n      jump\t// in\n    tag_125:\n        /* \"#utility.yul\":1525:1588   */\n      swap2\n      pop\n        /* \"#utility.yul\":1481:1598   */\n      pop\n        /* \"#utility.yul\":1276:1605   */\n      swap3\n      swap2\n      pop\n      pop\n      jump\t// out\n        /* \"#utility.yul\":1611:1700   */\n    tag_67:\n        /* \"#utility.yul\":1645:1652   */\n      0x00\n        /* \"#utility.yul\":1688:1693   */\n      dup2\n        /* \"#utility.yul\":1685:1686   */\n      0x00\n        /* \"#utility.yul\":1674:1694   */\n      signextend\n        /* \"#utility.yul\":1663:1694   */\n      swap1\n      pop\n        /* \"#utility.yul\":1611:1700   */\n      swap2\n      swap1\n      pop\n      jump\t// out\n        /* \"#utility.yul\":1706:1822   */\n    tag_68:\n        /* \"#utility.yul\":1776:1797   */\n      tag_128\n        /* \"#utility.yul\":1791:1796   */\n      dup2\n        /* \"#utility.yul\":1776:1797   */\n      tag_67\n      jump\t// in\n    tag_128:\n        /* \"#utility.yul\":1769:1774   */\n      dup2\n        /* \"#utility.yul\":1766:1798   */\n      eq\n        /* \"#utility.yul\":1756:1816   */\n      tag_129\n      jumpi\n        /* \"#utility.yul\":1812:1813   */\n      0x00\n        /* \"#utility.yul\":1809:1810   */\n      dup1\n        /* \"#utility.yul\":1802:1814   */\n      revert\n        /* \"#utility.yul\":1756:1816   */\n    tag_129:\n        /* \"#utility.yul\":1706:1822   */\n      pop\n      jump\t// out\n        /* \"#utility.yul\":1828:1961   */\n    tag_69:\n        /* \"#utility.yul\":1871:1876   */\n      0x00\n        /* \"#utility.yul\":1909:1915   */\n      dup2\n        /* \"#utility.yul\":1896:1916   */\n      calldataload\n        /* \"#utility.yul\":1887:1916   */\n      swap1\n      pop\n        /* \"#utility.yul\":1925:1955   */\n      tag_131\n        /* \"#utility.yul\":1949:1954   */\n      dup2\n        /* \"#utility.yul\":1925:1955   */\n      tag_68\n      jump\t// in\n    tag_131:\n        /* \"#utility.yul\":1828:1961   */\n      swap3\n      swap2\n      pop\n      pop\n      jump\t// out\n        /* \"#utility.yul\":1967:2290   */\n    tag_22:\n        /* \"#utility.yul\":2023:2029   */\n      0x00\n        /* \"#utility.yul\":2072:2074   */\n      0x20\n        /* \"#utility.yul\":2060:2069   */\n      dup3\n        /* \"#utility.yul\":2051:2058   */\n      dup5\n        /* \"#utility.yul\":2047:2070   */\n      sub\n        /* \"#utility.yul\":2043:2075   */\n      slt\n        /* \"#utility.yul\":2040:2159   */\n      iszero\n      tag_133\n      jumpi\n        /* \"#utility.yul\":2078:2157   */\n      tag_134\n      tag_61\n      jump\t// in\n    tag_134:\n        /* \"#utility.yul\":2040:2159   */\n    tag_133:\n        /* \"#utility.yul\":2198:2199   */\n      0x00\n        /* \"#utility.yul\":2223:2273   */\n      tag_135\n        /* \"#utility.yul\":2265:2272   */\n      dup5\n        /* \"#utility.yul\":2256:2262   */\n      dup3\n        /* \"#utility.yul\":2245:2254   */\n      dup6\n        /* \"#utility.yul\":2241:2263   */\n      add\n        /* \"#utility.yul\":2223:2273   */\n      tag_69\n      jump\t// in\n    tag_135:\n        /* \"#utility.yul\":2213:2273   */\n      swap2\n      pop\n        /* \"#utility.yul\":2169:2283   */\n      pop\n        /* \"#utility.yul\":1967:2290   */\n      swap3\n      swap2\n      pop\n      pop\n      jump\t// out\n        /* \"#utility.yul\":2296:2394   */\n    tag_70:\n        /* \"#utility.yul\":2347:2353   */\n      0x00\n        /* \"#utility.yul\":2381:2386   */\n      dup2\n        /* \"#utility.yul\":2375:2387   */\n      mload\n        /* \"#utility.yul\":2365:2387   */\n      swap1\n      pop\n        /* \"#utility.yul\":2296:2394   */\n      swap2\n      swap1\n      pop\n      jump\t// out\n        /* \"#utility.yul\":2400:2568   */\n    tag_71:\n        /* \"#utility.yul\":2483:2494   */\n      0x00\n        /* \"#utility.yul\":2517:2523   */\n      dup3\n        /* \"#utility.yul\":2512:2515   */\n      dup3\n        /* \"#utility.yul\":2505:2524   */\n      mstore\n        /* \"#utility.yul\":2557:2561   */\n      0x20\n        /* \"#utility.yul\":2552:2555   */\n      dup3\n        /* \"#utility.yul\":2548:2562   */\n      add\n        /* \"#utility.yul\":2533:2562   */\n      swap1\n      pop\n        /* \"#utility.yul\":2400:2568   */\n      swap3\n      swap2\n      pop\n      pop\n      jump\t// out\n        /* \"#utility.yul\":2574:2881   */\n    tag_72:\n        /* \"#utility.yul\":2642:2643   */\n      0x00\n        /* \"#utility.yul\":2652:2765   */\n    tag_139:\n        /* \"#utility.yul\":2666:2672   */\n      dup4\n        /* \"#utility.yul\":2663:2664   */\n      dup2\n        /* \"#utility.yul\":2660:2673   */\n      lt\n        /* \"#utility.yul\":2652:2765   */\n      iszero\n      tag_141\n      jumpi\n        /* \"#utility.yul\":2751:2752   */\n      dup1\n        /* \"#utility.yul\":2746:2749   */\n      dup3\n        /* \"#utility.yul\":2742:2753   */\n      add\n        /* \"#utility.yul\":2736:2754   */\n      mload\n        /* \"#utility.yul\":2732:2733   */\n      dup2\n        /* \"#utility.yul\":2727:2730   */\n      dup5\n        /* \"#utility.yul\":2723:2734   */\n      add\n        /* \"#utility.yul\":2716:2755   */\n      mstore\n        /* \"#utility.yul\":2688:2690   */\n      0x20\n        /* \"#utility.yul\":2685:2686   */\n      dup2\n        /* \"#utility.yul\":2681:2691   */\n      add\n        /* \"#utility.yul\":2676:2691   */\n      swap1\n      pop\n        /* \"#utility.yul\":2652:2765   */\n      jump(tag_139)\n    tag_141:\n        /* \"#utility.yul\":2783:2789   */\n      dup4\n        /* \"#utility.yul\":2780:2781   */\n      dup2\n        /* \"#utility.yul\":2777:2790   */\n      gt\n        /* \"#utility.yul\":2774:2875   */\n      iszero\n      tag_142\n      jumpi\n        /* \"#utility.yul\":2863:2864   */\n      0x00\n        /* \"#utility.yul\":2854:2860   */\n      dup5\n        /* \"#utility.yul\":2849:2852   */\n      dup5\n        /* \"#utility.yul\":2845:2861   */\n      add\n        /* \"#utility.yul\":2838:2865   */\n      mstore\n        /* \"#utility.yul\":2774:2875   */\n    tag_142:\n        /* \"#utility.yul\":2623:2881   */\n      pop\n        /* \"#utility.yul\":2574:2881   */\n      pop\n      pop\n      pop\n      jump\t// out\n        /* \"#utility.yul\":2887:2989   */\n    tag_73:\n        /* \"#utility.yul\":2928:2934   */\n      0x00\n        /* \"#utility.yul\":2979:2981   */\n      0x1f\n        /* \"#utility.yul\":2975:2982   */\n      not\n        /* \"#utility.yul\":2970:2972   */\n      0x1f\n        /* \"#utility.yul\":2963:2968   */\n      dup4\n        /* \"#utility.yul\":2959:2973   */\n      add\n        /* \"#utility.yul\":2955:2983   */\n      and\n        /* \"#utility.yul\":2945:2983   */\n      swap1\n      pop\n        /* \"#utility.yul\":2887:2989   */\n      swap2\n      swap1\n      pop\n      jump\t// out\n        /* \"#utility.yul\":2995:3355   */\n    tag_74:\n        /* \"#utility.yul\":3081:3084   */\n      0x00\n        /* \"#utility.yul\":3109:3147   */\n      tag_145\n        /* \"#utility.yul\":3141:3146   */\n      dup3\n        /* \"#utility.yul\":3109:3147   */\n      tag_70\n      jump\t// in\n    tag_145:\n        /* \"#utility.yul\":3163:3233   */\n      tag_146\n        /* \"#utility.yul\":3226:3232   */\n      dup2\n        /* \"#utility.yul\":3221:3224   */\n      dup6\n        /* \"#utility.yul\":3163:3233   */\n      tag_71\n      jump\t// in\n    tag_146:\n        /* \"#utility.yul\":3156:3233   */\n      swap4\n      pop\n        /* \"#utility.yul\":3242:3294   */\n      tag_147\n        /* \"#utility.yul\":3287:3293   */\n      dup2\n        /* \"#utility.yul\":3282:3285   */\n      dup6\n        /* \"#utility.yul\":3275:3279   */\n      0x20\n        /* \"#utility.yul\":3268:3273   */\n      dup7\n        /* \"#utility.yul\":3264:3280   */\n      add\n        /* \"#utility.yul\":3242:3294   */\n      tag_72\n      jump\t// in\n    tag_147:\n        /* \"#utility.yul\":3319:3348   */\n      tag_148\n        /* \"#utility.yul\":3341:3347   */\n      dup2\n        /* \"#utility.yul\":3319:3348   */\n      tag_73\n      jump\t// in\n    tag_148:\n        /* \"#utility.yul\":3314:3317   */\n      dup5\n        /* \"#utility.yul\":3310:3349   */\n      add\n        /* \"#utility.yul\":3303:3349   */\n      swap2\n      pop\n        /* \"#utility.yul\":3085:3355   */\n      pop\n        /* \"#utility.yul\":2995:3355   */\n      swap3\n      swap2\n      pop\n      pop\n      jump\t// out\n        /* \"#utility.yul\":3361:3670   */\n    tag_25:\n        /* \"#utility.yul\":3472:3476   */\n      0x00\n        /* \"#utility.yul\":3510:3512   */\n      0x20\n        /* \"#utility.yul\":3499:3508   */\n      dup3\n        /* \"#utility.yul\":3495:3513   */\n      add\n        /* \"#utility.yul\":3487:3513   */\n      swap1\n      pop\n        /* \"#utility.yul\":3559:3568   */\n      dup2\n        /* \"#utility.yul\":3553:3557   */\n      dup2\n        /* \"#utility.yul\":3549:3569   */\n      sub\n        /* \"#utility.yul\":3545:3546   */\n      0x00\n        /* \"#utility.yul\":3534:3543   */\n      dup4\n        /* \"#utility.yul\":3530:3547   */\n      add\n        /* \"#utility.yul\":3523:3570   */\n      mstore\n        /* \"#utility.yul\":3587:3663   */\n      tag_150\n        /* \"#utility.yul\":3658:3662   */\n      dup2\n        /* \"#utility.yul\":3649:3655   */\n      dup5\n        /* \"#utility.yul\":3587:3663   */\n      tag_74\n      jump\t// in\n    tag_150:\n        /* \"#utility.yul\":3579:3663   */\n      swap1\n      pop\n        /* \"#utility.yul\":3361:3670   */\n      swap3\n      swap2\n      pop\n      pop\n      jump\t// out\n        /* \"#utility.yul\":3676:3798   */\n    tag_75:\n        /* \"#utility.yul\":3749:3773   */\n      tag_152\n        /* \"#utility.yul\":3767:3772   */\n      dup2\n        /* \"#utility.yul\":3749:3773   */\n      tag_58\n      jump\t// in\n    tag_152:\n        /* \"#utility.yul\":3742:3747   */\n      dup2\n        /* \"#utility.yul\":3739:3774   */\n      eq\n        /* \"#utility.yul\":3729:3792   */\n      tag_153\n      jumpi\n        /* \"#utility.yul\":3788:3789   */\n      0x00\n        /* \"#utility.yul\":3785:3786   */\n      dup1\n        /* \"#utility.yul\":3778:3790   */\n      revert\n        /* \"#utility.yul\":3729:3792   */\n    tag_153:\n        /* \"#utility.yul\":3676:3798   */\n      pop\n      jump\t// out\n        /* \"#utility.yul\":3804:3943   */\n    tag_76:\n        /* \"#utility.yul\":3850:3855   */\n      0x00\n        /* \"#utility.yul\":3888:3894   */\n      dup2\n        /* \"#utility.yul\":3875:3895   */\n      calldataload\n        /* \"#utility.yul\":3866:3895   */\n      swap1\n      pop\n        /* \"#utility.yul\":3904:3937   */\n      tag_155\n        /* \"#utility.yul\":3931:3936   */\n      dup2\n        /* \"#utility.yul\":3904:3937   */\n      tag_75\n      jump\t// in\n    tag_155:\n        /* \"#utility.yul\":3804:3943   */\n      swap3\n      swap2\n      pop\n      pop\n      jump\t// out\n        /* \"#utility.yul\":3949:4025   */\n    tag_77:\n        /* \"#utility.yul\":3985:3992   */\n      0x00\n        /* \"#utility.yul\":4014:4019   */\n      dup2\n        /* \"#utility.yul\":4003:4019   */\n      swap1\n      pop\n        /* \"#utility.yul\":3949:4025   */\n      swap2\n      swap1\n      pop\n      jump\t// out\n        /* \"#utility.yul\":4031:4151   */\n    tag_78:\n        /* \"#utility.yul\":4103:4126   */\n      tag_158\n        /* \"#utility.yul\":4120:4125   */\n      dup2\n        /* \"#utility.yul\":4103:4126   */\n      tag_77\n      jump\t// in\n    tag_158:\n        /* \"#utility.yul\":4096:4101   */\n      dup2\n        /* \"#utility.yul\":4093:4127   */\n      eq\n        /* \"#utility.yul\":4083:4145   */\n      tag_159\n      jumpi\n        /* \"#utility.yul\":4141:4142   */\n      0x00\n        /* \"#utility.yul\":4138:4139   */\n      dup1\n        /* \"#utility.yul\":4131:4143   */\n      revert\n        /* \"#utility.yul\":4083:4145   */\n    tag_159:\n        /* \"#utility.yul\":4031:4151   */\n      pop\n      jump\t// out\n        /* \"#utility.yul\":4157:4294   */\n    tag_79:\n        /* \"#utility.yul\":4202:4207   */\n      0x00\n        /* \"#utility.yul\":4240:4246   */\n      dup2\n        /* \"#utility.yul\":4227:4247   */\n      calldataload\n        /* \"#utility.yul\":4218:4247   */\n      swap1\n      pop\n        /* \"#utility.yul\":4256:4288   */\n      tag_161\n        /* \"#utility.yul\":4282:4287   */\n      dup2\n        /* \"#utility.yul\":4256:4288   */\n      tag_78\n      jump\t// in\n    tag_161:\n        /* \"#utility.yul\":4157:4294   */\n      swap3\n      swap2\n      pop\n      pop\n      jump\t// out\n        /* \"#utility.yul\":4300:4417   */\n    tag_80:\n        /* \"#utility.yul\":4409:4410   */\n      0x00\n        /* \"#utility.yul\":4406:4407   */\n      dup1\n        /* \"#utility.yul\":4399:4411   */\n      revert\n        /* \"#utility.yul\":4423:4540   */\n    tag_81:\n        /* \"#utility.yul\":4532:4533   */\n      0x00\n        /* \"#utility.yul\":4529:4530   */\n      dup1\n        /* \"#utility.yul\":4522:4534   */\n      revert\n        /* \"#utility.yul\":4546:4726   */\n    tag_82:\n        /* \"#utility.yul\":4594:4671   */\n      0x4e487b7100000000000000000000000000000000000000000000000000000000\n        /* \"#utility.yul\":4591:4592   */\n      0x00\n        /* \"#utility.yul\":4584:4672   */\n      mstore\n        /* \"#utility.yul\":4691:4695   */\n      0x41\n        /* \"#utility.yul\":4688:4689   */\n      0x04\n        /* \"#utility.yul\":4681:4696   */\n      mstore\n        /* \"#utility.yul\":4715:4719   */\n      0x24\n        /* \"#utility.yul\":4712:4713   */\n      0x00\n        /* \"#utility.yul\":4705:4720   */\n      revert\n        /* \"#utility.yul\":4732:5013   */\n    tag_83:\n        /* \"#utility.yul\":4815:4842   */\n      tag_166\n        /* \"#utility.yul\":4837:4841   */\n      dup3\n        /* \"#utility.yul\":4815:4842   */\n      tag_73\n      jump\t// in\n    tag_166:\n        /* \"#utility.yul\":4807:4813   */\n      dup2\n        /* \"#utility.yul\":4803:4843   */\n      add\n        /* \"#utility.yul\":4945:4951   */\n      dup2\n        /* \"#utility.yul\":4933:4943   */\n      dup2\n        /* \"#utility.yul\":4930:4952   */\n      lt\n        /* \"#utility.yul\":4909:4927   */\n      0xffffffffffffffff\n        /* \"#utility.yul\":4897:4907   */\n      dup3\n        /* \"#utility.yul\":4894:4928   */\n      gt\n        /* \"#utility.yul\":4891:4953   */\n      or\n        /* \"#utility.yul\":4888:4976   */\n      iszero\n      tag_167\n      jumpi\n        /* \"#utility.yul\":4956:4974   */\n      tag_168\n      tag_82\n      jump\t// in\n    tag_168:\n        /* \"#utility.yul\":4888:4976   */\n    tag_167:\n        /* \"#utility.yul\":4996:5006   */\n      dup1\n        /* \"#utility.yul\":4992:4994   */\n      0x40\n        /* \"#utility.yul\":4985:5007   */\n      mstore\n        /* \"#utility.yul\":4775:5013   */\n      pop\n        /* \"#utility.yul\":4732:5013   */\n      pop\n      pop\n      jump\t// out\n        /* \"#utility.yul\":5019:5148   */\n    tag_84:\n        /* \"#utility.yul\":5053:5059   */\n      0x00\n        /* \"#utility.yul\":5080:5100   */\n      tag_170\n      tag_60\n      jump\t// in\n    tag_170:\n        /* \"#utility.yul\":5070:5100   */\n      swap1\n      pop\n        /* \"#utility.yul\":5109:5142   */\n      tag_171\n        /* \"#utility.yul\":5137:5141   */\n      dup3\n        /* \"#utility.yul\":5129:5135   */\n      dup3\n        /* \"#utility.yul\":5109:5142   */\n      tag_83\n      jump\t// in\n    tag_171:\n        /* \"#utility.yul\":5019:5148   */\n      swap2\n      swap1\n      pop\n      jump\t// out\n        /* \"#utility.yul\":5154:5462   */\n    tag_85:\n        /* \"#utility.yul\":5216:5220   */\n      0x00\n        /* \"#utility.yul\":5306:5324   */\n      0xffffffffffffffff\n        /* \"#utility.yul\":5298:5304   */\n      dup3\n        /* \"#utility.yul\":5295:5325   */\n      gt\n        /* \"#utility.yul\":5292:5348   */\n      iszero\n      tag_173\n      jumpi\n        /* \"#utility.yul\":5328:5346   */\n      tag_174\n      tag_82\n      jump\t// in\n    tag_174:\n        /* \"#utility.yul\":5292:5348   */\n    tag_173:\n        /* \"#utility.yul\":5366:5395   */\n      tag_175\n        /* \"#utility.yul\":5388:5394   */\n      dup3\n        /* \"#utility.yul\":5366:5395   */\n      tag_73\n      jump\t// in\n    tag_175:\n        /* \"#utility.yul\":5358:5395   */\n      swap1\n      pop\n        /* \"#utility.yul\":5450:5454   */\n      0x20\n        /* \"#utility.yul\":5444:5448   */\n      dup2\n        /* \"#utility.yul\":5440:5455   */\n      add\n        /* \"#utility.yul\":5432:5455   */\n      swap1\n      pop\n        /* \"#utility.yul\":5154:5462   */\n      swap2\n      swap1\n      pop\n      jump\t// out\n        /* \"#utility.yul\":5468:5622   */\n    tag_86:\n        /* \"#utility.yul\":5552:5558   */\n      dup3\n        /* \"#utility.yul\":5547:5550   */\n      dup2\n        /* \"#utility.yul\":5542:5545   */\n      dup4\n        /* \"#utility.yul\":5529:5559   */\n      calldatacopy\n        /* \"#utility.yul\":5614:5615   */\n      0x00\n        /* \"#utility.yul\":5605:5611   */\n      dup4\n        /* \"#utility.yul\":5600:5603   */\n      dup4\n        /* \"#utility.yul\":5596:5612   */\n      add\n        /* \"#utility.yul\":5589:5616   */\n      mstore\n        /* \"#utility.yul\":5468:5622   */\n      pop\n      pop\n      pop\n      jump\t// out\n        /* \"#utility.yul\":5628:6040   */\n    tag_87:\n        /* \"#utility.yul\":5706:5711   */\n      0x00\n        /* \"#utility.yul\":5731:5797   */\n      tag_178\n        /* \"#utility.yul\":5747:5796   */\n      tag_179\n        /* \"#utility.yul\":5789:5795   */\n      dup5\n        /* \"#utility.yul\":5747:5796   */\n      tag_85\n      jump\t// in\n    tag_179:\n        /* \"#utility.yul\":5731:5797   */\n      tag_84\n      jump\t// in\n    tag_178:\n        /* \"#utility.yul\":5722:5797   */\n      swap1\n      pop\n        /* \"#utility.yul\":5820:5826   */\n      dup3\n        /* \"#utility.yul\":5813:5818   */\n      dup2\n        /* \"#utility.yul\":5806:5827   */\n      mstore\n        /* \"#utility.yul\":5858:5862   */\n      0x20\n        /* \"#utility.yul\":5851:5856   */\n      dup2\n        /* \"#utility.yul\":5847:5863   */\n      add\n        /* \"#utility.yul\":5896:5899   */\n      dup5\n        /* \"#utility.yul\":5887:5893   */\n      dup5\n        /* \"#utility.yul\":5882:5885   */\n      dup5\n        /* \"#utility.yul\":5878:5894   */\n      add\n        /* \"#utility.yul\":5875:5900   */\n      gt\n        /* \"#utility.yul\":5872:5984   */\n      iszero\n      tag_180\n      jumpi\n        /* \"#utility.yul\":5903:5982   */\n      tag_181\n      tag_81\n      jump\t// in\n    tag_181:\n        /* \"#utility.yul\":5872:5984   */\n    tag_180:\n        /* \"#utility.yul\":5993:6034   */\n      tag_182\n        /* \"#utility.yul\":6027:6033   */\n      dup5\n        /* \"#utility.yul\":6022:6025   */\n      dup3\n        /* \"#utility.yul\":6017:6020   */\n      dup6\n        /* \"#utility.yul\":5993:6034   */\n      tag_86\n      jump\t// in\n    tag_182:\n        /* \"#utility.yul\":5712:6040   */\n      pop\n        /* \"#utility.yul\":5628:6040   */\n      swap4\n      swap3\n      pop\n      pop\n      pop\n      jump\t// out\n        /* \"#utility.yul\":6060:6400   */\n    tag_88:\n        /* \"#utility.yul\":6116:6121   */\n      0x00\n        /* \"#utility.yul\":6165:6168   */\n      dup3\n        /* \"#utility.yul\":6158:6162   */\n      0x1f\n        /* \"#utility.yul\":6150:6156   */\n      dup4\n        /* \"#utility.yul\":6146:6163   */\n      add\n        /* \"#utility.yul\":6142:6169   */\n      slt\n        /* \"#utility.yul\":6132:6254   */\n      tag_184\n      jumpi\n        /* \"#utility.yul\":6173:6252   */\n      tag_185\n      tag_80\n      jump\t// in\n    tag_185:\n        /* \"#utility.yul\":6132:6254   */\n    tag_184:\n        /* \"#utility.yul\":6290:6296   */\n      dup2\n        /* \"#utility.yul\":6277:6297   */\n      calldataload\n        /* \"#utility.yul\":6315:6394   */\n      tag_186\n        /* \"#utility.yul\":6390:6393   */\n      dup5\n        /* \"#utility.yul\":6382:6388   */\n      dup3\n        /* \"#utility.yul\":6375:6379   */\n      0x20\n        /* \"#utility.yul\":6367:6373   */\n      dup7\n        /* \"#utility.yul\":6363:6380   */\n      add\n        /* \"#utility.yul\":6315:6394   */\n      tag_87\n      jump\t// in\n    tag_186:\n        /* \"#utility.yul\":6306:6394   */\n      swap2\n      pop\n        /* \"#utility.yul\":6122:6400   */\n      pop\n        /* \"#utility.yul\":6060:6400   */\n      swap3\n      swap2\n      pop\n      pop\n      jump\t// out\n        /* \"#utility.yul\":6406:7349   */\n    tag_31:\n        /* \"#utility.yul\":6501:6507   */\n      0x00\n        /* \"#utility.yul\":6509:6515   */\n      dup1\n        /* \"#utility.yul\":6517:6523   */\n      0x00\n        /* \"#utility.yul\":6525:6531   */\n      dup1\n        /* \"#utility.yul\":6574:6577   */\n      0x80\n        /* \"#utility.yul\":6562:6571   */\n      dup6\n        /* \"#utility.yul\":6553:6560   */\n      dup8\n        /* \"#utility.yul\":6549:6572   */\n      sub\n        /* \"#utility.yul\":6545:6578   */\n      slt\n        /* \"#utility.yul\":6542:6662   */\n      iszero\n      tag_188\n      jumpi\n        /* \"#utility.yul\":6581:6660   */\n      tag_189\n      tag_61\n      jump\t// in\n    tag_189:\n        /* \"#utility.yul\":6542:6662   */\n    tag_188:\n        /* \"#utility.yul\":6701:6702   */\n      0x00\n        /* \"#utility.yul\":6726:6779   */\n      tag_190\n        /* \"#utility.yul\":6771:6778   */\n      dup8\n        /* \"#utility.yul\":6762:6768   */\n      dup3\n        /* \"#utility.yul\":6751:6760   */\n      dup9\n        /* \"#utility.yul\":6747:6769   */\n      add\n        /* \"#utility.yul\":6726:6779   */\n      tag_76\n      jump\t// in\n    tag_190:\n        /* \"#utility.yul\":6716:6779   */\n      swap5\n      pop\n        /* \"#utility.yul\":6672:6789   */\n      pop\n        /* \"#utility.yul\":6828:6830   */\n      0x20\n        /* \"#utility.yul\":6854:6906   */\n      tag_191\n        /* \"#utility.yul\":6898:6905   */\n      dup8\n        /* \"#utility.yul\":6889:6895   */\n      dup3\n        /* \"#utility.yul\":6878:6887   */\n      dup9\n        /* \"#utility.yul\":6874:6896   */\n      add\n        /* \"#utility.yul\":6854:6906   */\n      tag_79\n      jump\t// in\n    tag_191:\n        /* \"#utility.yul\":6844:6906   */\n      swap4\n      pop\n        /* \"#utility.yul\":6799:6916   */\n      pop\n        /* \"#utility.yul\":6955:6957   */\n      0x40\n        /* \"#utility.yul\":6981:7034   */\n      tag_192\n        /* \"#utility.yul\":7026:7033   */\n      dup8\n        /* \"#utility.yul\":7017:7023   */\n      dup3\n        /* \"#utility.yul\":7006:7015   */\n      dup9\n        /* \"#utility.yul\":7002:7024   */\n      add\n        /* \"#utility.yul\":6981:7034   */\n      tag_76\n      jump\t// in\n    tag_192:\n        /* \"#utility.yul\":6971:7034   */\n      swap3\n      pop\n        /* \"#utility.yul\":6926:7044   */\n      pop\n        /* \"#utility.yul\":7111:7113   */\n      0x60\n        /* \"#utility.yul\":7100:7109   */\n      dup6\n        /* \"#utility.yul\":7096:7114   */\n      add\n        /* \"#utility.yul\":7083:7115   */\n      calldataload\n        /* \"#utility.yul\":7142:7160   */\n      0xffffffffffffffff\n        /* \"#utility.yul\":7134:7140   */\n      dup2\n        /* \"#utility.yul\":7131:7161   */\n      gt\n        /* \"#utility.yul\":7128:7245   */\n      iszero\n      tag_193\n      jumpi\n        /* \"#utility.yul\":7164:7243   */\n      tag_194\n      tag_62\n      jump\t// in\n    tag_194:\n        /* \"#utility.yul\":7128:7245   */\n    tag_193:\n        /* \"#utility.yul\":7269:7332   */\n      tag_195\n        /* \"#utility.yul\":7324:7331   */\n      dup8\n        /* \"#utility.yul\":7315:7321   */\n      dup3\n        /* \"#utility.yul\":7304:7313   */\n      dup9\n        /* \"#utility.yul\":7300:7322   */\n      add\n        /* \"#utility.yul\":7269:7332   */\n      tag_88\n      jump\t// in\n    tag_195:\n        /* \"#utility.yul\":7259:7332   */\n      swap2\n      pop\n        /* \"#utility.yul\":7054:7342   */\n      pop\n        /* \"#utility.yul\":6406:7349   */\n      swap3\n      swap6\n      swap2\n      swap5\n      pop\n      swap3\n      pop\n      jump\t// out\n        /* \"#utility.yul\":7355:7432   */\n    tag_89:\n        /* \"#utility.yul\":7392:7399   */\n      0x00\n        /* \"#utility.yul\":7421:7426   */\n      dup2\n        /* \"#utility.yul\":7410:7426   */\n      swap1\n      pop\n        /* \"#utility.yul\":7355:7432   */\n      swap2\n      swap1\n      pop\n      jump\t// out\n        /* \"#utility.yul\":7438:7556   */\n    tag_90:\n        /* \"#utility.yul\":7525:7549   */\n      tag_198\n        /* \"#utility.yul\":7543:7548   */\n      dup2\n        /* \"#utility.yul\":7525:7549   */\n      tag_89\n      jump\t// in\n    tag_198:\n        /* \"#utility.yul\":7520:7523   */\n      dup3\n        /* \"#utility.yul\":7513:7550   */\n      mstore\n        /* \"#utility.yul\":7438:7556   */\n      pop\n      pop\n      jump\t// out\n        /* \"#utility.yul\":7562:7784   */\n    tag_34:\n        /* \"#utility.yul\":7655:7659   */\n      0x00\n        /* \"#utility.yul\":7693:7695   */\n      0x20\n        /* \"#utility.yul\":7682:7691   */\n      dup3\n        /* \"#utility.yul\":7678:7696   */\n      add\n        /* \"#utility.yul\":7670:7696   */\n      swap1\n      pop\n        /* \"#utility.yul\":7706:7777   */\n      tag_200\n        /* \"#utility.yul\":7774:7775   */\n      0x00\n        /* \"#utility.yul\":7763:7772   */\n      dup4\n        /* \"#utility.yul\":7759:7776   */\n      add\n        /* \"#utility.yul\":7750:7756   */\n      dup5\n        /* \"#utility.yul\":7706:7777   */\n      tag_90\n      jump\t// in\n    tag_200:\n        /* \"#utility.yul\":7562:7784   */\n      swap3\n      swap2\n      pop\n      pop\n      jump\t// out\n        /* \"#utility.yul\":7790:7886   */\n    tag_91:\n        /* \"#utility.yul\":7824:7832   */\n      0x00\n        /* \"#utility.yul\":7873:7878   */\n      dup2\n        /* \"#utility.yul\":7868:7871   */\n      0xf8\n        /* \"#utility.yul\":7864:7879   */\n      shl\n        /* \"#utility.yul\":7843:7879   */\n      swap1\n      pop\n        /* \"#utility.yul\":7790:7886   */\n      swap2\n      swap1\n      pop\n      jump\t// out\n        /* \"#utility.yul\":7892:7984   */\n    tag_92:\n        /* \"#utility.yul\":7928:7935   */\n      0x00\n        /* \"#utility.yul\":7957:7978   */\n      tag_203\n        /* \"#utility.yul\":7972:7977   */\n      dup3\n        /* \"#utility.yul\":7957:7978   */\n      tag_91\n      jump\t// in\n    tag_203:\n        /* \"#utility.yul\":7946:7978   */\n      swap1\n      pop\n        /* \"#utility.yul\":7892:7984   */\n      swap2\n      swap1\n      pop\n      jump\t// out\n        /* \"#utility.yul\":7990:8135   */\n    tag_93:\n        /* \"#utility.yul\":8089:8128   */\n      tag_205\n        /* \"#utility.yul\":8106:8127   */\n      tag_206\n        /* \"#utility.yul\":8121:8126   */\n      dup3\n        /* \"#utility.yul\":8106:8127   */\n      tag_67\n      jump\t// in\n    tag_206:\n        /* \"#utility.yul\":8089:8128   */\n      tag_92\n      jump\t// in\n    tag_205:\n        /* \"#utility.yul\":8084:8087   */\n      dup3\n        /* \"#utility.yul\":8077:8129   */\n      mstore\n        /* \"#utility.yul\":7990:8135   */\n      pop\n      pop\n      jump\t// out\n        /* \"#utility.yul\":8141:8384   */\n    tag_45:\n        /* \"#utility.yul\":8247:8250   */\n      0x00\n        /* \"#utility.yul\":8262:8331   */\n      tag_208\n        /* \"#utility.yul\":8327:8330   */\n      dup3\n        /* \"#utility.yul\":8318:8324   */\n      dup5\n        /* \"#utility.yul\":8262:8331   */\n      tag_93\n      jump\t// in\n    tag_208:\n        /* \"#utility.yul\":8356:8357   */\n      0x01\n        /* \"#utility.yul\":8351:8354   */\n      dup3\n        /* \"#utility.yul\":8347:8358   */\n      add\n        /* \"#utility.yul\":8340:8358   */\n      swap2\n      pop\n        /* \"#utility.yul\":8375:8378   */\n      dup2\n        /* \"#utility.yul\":8368:8378   */\n      swap1\n      pop\n        /* \"#utility.yul\":8141:8384   */\n      swap3\n      swap2\n      pop\n      pop\n      jump\t// out\n        /* \"#utility.yul\":8390:8469   */\n    tag_94:\n        /* \"#utility.yul\":8429:8436   */\n      0x00\n        /* \"#utility.yul\":8458:8463   */\n      dup2\n        /* \"#utility.yul\":8447:8463   */\n      swap1\n      pop\n        /* \"#utility.yul\":8390:8469   */\n      swap2\n      swap1\n      pop\n      jump\t// out\n        /* \"#utility.yul\":8475:8632   */\n    tag_95:\n        /* \"#utility.yul\":8580:8625   */\n      tag_211\n        /* \"#utility.yul\":8600:8624   */\n      tag_212\n        /* \"#utility.yul\":8618:8623   */\n      dup3\n        /* \"#utility.yul\":8600:8624   */\n      tag_58\n      jump\t// in\n    tag_212:\n        /* \"#utility.yul\":8580:8625   */\n      tag_94\n      jump\t// in\n    tag_211:\n        /* \"#utility.yul\":8575:8578   */\n      dup3\n        /* \"#utility.yul\":8568:8626   */\n      mstore\n        /* \"#utility.yul\":8475:8632   */\n      pop\n      pop\n      jump\t// out\n        /* \"#utility.yul\":8638:8716   */\n    tag_96:\n        /* \"#utility.yul\":8676:8683   */\n      0x00\n        /* \"#utility.yul\":8705:8710   */\n      dup2\n        /* \"#utility.yul\":8694:8710   */\n      swap1\n      pop\n        /* \"#utility.yul\":8638:8716   */\n      swap2\n      swap1\n      pop\n      jump\t// out\n        /* \"#utility.yul\":8722:8875   */\n    tag_97:\n        /* \"#utility.yul\":8825:8868   */\n      tag_215\n        /* \"#utility.yul\":8844:8867   */\n      tag_216\n        /* \"#utility.yul\":8861:8866   */\n      dup3\n        /* \"#utility.yul\":8844:8867   */\n      tag_77\n      jump\t// in\n    tag_216:\n        /* \"#utility.yul\":8825:8868   */\n      tag_96\n      jump\t// in\n    tag_215:\n        /* \"#utility.yul\":8820:8823   */\n      dup3\n        /* \"#utility.yul\":8813:8869   */\n      mstore\n        /* \"#utility.yul\":8722:8875   */\n      pop\n      pop\n      jump\t// out\n        /* \"#utility.yul\":8881:8980   */\n    tag_98:\n        /* \"#utility.yul\":8933:8939   */\n      0x00\n        /* \"#utility.yul\":8967:8972   */\n      dup2\n        /* \"#utility.yul\":8961:8973   */\n      mload\n        /* \"#utility.yul\":8951:8973   */\n      swap1\n      pop\n        /* \"#utility.yul\":8881:8980   */\n      swap2\n      swap1\n      pop\n      jump\t// out\n        /* \"#utility.yul\":8986:9134   */\n    tag_99:\n        /* \"#utility.yul\":9088:9099   */\n      0x00\n        /* \"#utility.yul\":9125:9128   */\n      dup2\n        /* \"#utility.yul\":9110:9128   */\n      swap1\n      pop\n        /* \"#utility.yul\":8986:9134   */\n      swap3\n      swap2\n      pop\n      pop\n      jump\t// out\n        /* \"#utility.yul\":9140:9517   */\n    tag_100:\n        /* \"#utility.yul\":9246:9249   */\n      0x00\n        /* \"#utility.yul\":9274:9313   */\n      tag_220\n        /* \"#utility.yul\":9307:9312   */\n      dup3\n        /* \"#utility.yul\":9274:9313   */\n      tag_98\n      jump\t// in\n    tag_220:\n        /* \"#utility.yul\":9329:9418   */\n      tag_221\n        /* \"#utility.yul\":9411:9417   */\n      dup2\n        /* \"#utility.yul\":9406:9409   */\n      dup6\n        /* \"#utility.yul\":9329:9418   */\n      tag_99\n      jump\t// in\n    tag_221:\n        /* \"#utility.yul\":9322:9418   */\n      swap4\n      pop\n        /* \"#utility.yul\":9427:9479   */\n      tag_222\n        /* \"#utility.yul\":9472:9478   */\n      dup2\n        /* \"#utility.yul\":9467:9470   */\n      dup6\n        /* \"#utility.yul\":9460:9464   */\n      0x20\n        /* \"#utility.yul\":9453:9458   */\n      dup7\n        /* \"#utility.yul\":9449:9465   */\n      add\n        /* \"#utility.yul\":9427:9479   */\n      tag_72\n      jump\t// in\n    tag_222:\n        /* \"#utility.yul\":9504:9510   */\n      dup1\n        /* \"#utility.yul\":9499:9502   */\n      dup5\n        /* \"#utility.yul\":9495:9511   */\n      add\n        /* \"#utility.yul\":9488:9511   */\n      swap2\n      pop\n        /* \"#utility.yul\":9250:9517   */\n      pop\n        /* \"#utility.yul\":9140:9517   */\n      swap3\n      swap2\n      pop\n      pop\n      jump\t// out\n        /* \"#utility.yul\":9523:10213   */\n    tag_50:\n        /* \"#utility.yul\":9735:9738   */\n      0x00\n        /* \"#utility.yul\":9750:9825   */\n      tag_224\n        /* \"#utility.yul\":9821:9824   */\n      dup3\n        /* \"#utility.yul\":9812:9818   */\n      dup8\n        /* \"#utility.yul\":9750:9825   */\n      tag_95\n      jump\t// in\n    tag_224:\n        /* \"#utility.yul\":9850:9852   */\n      0x20\n        /* \"#utility.yul\":9845:9848   */\n      dup3\n        /* \"#utility.yul\":9841:9853   */\n      add\n        /* \"#utility.yul\":9834:9853   */\n      swap2\n      pop\n        /* \"#utility.yul\":9863:9936   */\n      tag_225\n        /* \"#utility.yul\":9932:9935   */\n      dup3\n        /* \"#utility.yul\":9923:9929   */\n      dup7\n        /* \"#utility.yul\":9863:9936   */\n      tag_97\n      jump\t// in\n    tag_225:\n        /* \"#utility.yul\":9961:9963   */\n      0x20\n        /* \"#utility.yul\":9956:9959   */\n      dup3\n        /* \"#utility.yul\":9952:9964   */\n      add\n        /* \"#utility.yul\":9945:9964   */\n      swap2\n      pop\n        /* \"#utility.yul\":9974:10047   */\n      tag_226\n        /* \"#utility.yul\":10043:10046   */\n      dup3\n        /* \"#utility.yul\":10034:10040   */\n      dup6\n        /* \"#utility.yul\":9974:10047   */\n      tag_97\n      jump\t// in\n    tag_226:\n        /* \"#utility.yul\":10072:10074   */\n      0x20\n        /* \"#utility.yul\":10067:10070   */\n      dup3\n        /* \"#utility.yul\":10063:10075   */\n      add\n        /* \"#utility.yul\":10056:10075   */\n      swap2\n      pop\n        /* \"#utility.yul\":10092:10187   */\n      tag_227\n        /* \"#utility.yul\":10183:10186   */\n      dup3\n        /* \"#utility.yul\":10174:10180   */\n      dup5\n        /* \"#utility.yul\":10092:10187   */\n      tag_100\n      jump\t// in\n    tag_227:\n        /* \"#utility.yul\":10085:10187   */\n      swap2\n      pop\n        /* \"#utility.yul\":10204:10207   */\n      dup2\n        /* \"#utility.yul\":10197:10207   */\n      swap1\n      pop\n        /* \"#utility.yul\":9523:10213   */\n      swap6\n      swap5\n      pop\n      pop\n      pop\n      pop\n      pop\n      jump\t// out\n        /* \"#utility.yul\":10219:10366   */\n    tag_101:\n        /* \"#utility.yul\":10320:10331   */\n      0x00\n        /* \"#utility.yul\":10357:10360   */\n      dup2\n        /* \"#utility.yul\":10342:10360   */\n      swap1\n      pop\n        /* \"#utility.yul\":10219:10366   */\n      swap3\n      swap2\n      pop\n      pop\n      jump\t// out\n        /* \"#utility.yul\":10372:10745   */\n    tag_102:\n        /* \"#utility.yul\":10476:10479   */\n      0x00\n        /* \"#utility.yul\":10504:10542   */\n      tag_230\n        /* \"#utility.yul\":10536:10541   */\n      dup3\n        /* \"#utility.yul\":10504:10542   */\n      tag_70\n      jump\t// in\n    tag_230:\n        /* \"#utility.yul\":10558:10646   */\n      tag_231\n        /* \"#utility.yul\":10639:10645   */\n      dup2\n        /* \"#utility.yul\":10634:10637   */\n      dup6\n        /* \"#utility.yul\":10558:10646   */\n      tag_101\n      jump\t// in\n    tag_231:\n        /* \"#utility.yul\":10551:10646   */\n      swap4\n      pop\n        /* \"#utility.yul\":10655:10707   */\n      tag_232\n        /* \"#utility.yul\":10700:10706   */\n      dup2\n        /* \"#utility.yul\":10695:10698   */\n      dup6\n        /* \"#utility.yul\":10688:10692   */\n      0x20\n        /* \"#utility.yul\":10681:10686   */\n      dup7\n        /* \"#utility.yul\":10677:10693   */\n      add\n        /* \"#utility.yul\":10655:10707   */\n      tag_72\n      jump\t// in\n    tag_232:\n        /* \"#utility.yul\":10732:10738   */\n      dup1\n        /* \"#utility.yul\":10727:10730   */\n      dup5\n        /* \"#utility.yul\":10723:10739   */\n      add\n        /* \"#utility.yul\":10716:10739   */\n      swap2\n      pop\n        /* \"#utility.yul\":10480:10745   */\n      pop\n        /* \"#utility.yul\":10372:10745   */\n      swap3\n      swap2\n      pop\n      pop\n      jump\t// out\n        /* \"#utility.yul\":10751:11022   */\n    tag_52:\n        /* \"#utility.yul\":10881:10884   */\n      0x00\n        /* \"#utility.yul\":10903:10996   */\n      tag_234\n        /* \"#utility.yul\":10992:10995   */\n      dup3\n        /* \"#utility.yul\":10983:10989   */\n      dup5\n        /* \"#utility.yul\":10903:10996   */\n      tag_102\n      jump\t// in\n    tag_234:\n        /* \"#utility.yul\":10896:10996   */\n      swap2\n      pop\n        /* \"#utility.yul\":11013:11016   */\n      dup2\n        /* \"#utility.yul\":11006:11016   */\n      swap1\n      pop\n        /* \"#utility.yul\":10751:11022   */\n      swap3\n      swap2\n      pop\n      pop\n      jump\t// out\n        /* \"#utility.yul\":11028:11150   */\n    tag_103:\n        /* \"#utility.yul\":11101:11125   */\n      tag_236\n        /* \"#utility.yul\":11119:11124   */\n      dup2\n        /* \"#utility.yul\":11101:11125   */\n      tag_89\n      jump\t// in\n    tag_236:\n        /* \"#utility.yul\":11094:11099   */\n      dup2\n        /* \"#utility.yul\":11091:11126   */\n      eq\n        /* \"#utility.yul\":11081:11144   */\n      tag_237\n      jumpi\n        /* \"#utility.yul\":11140:11141   */\n      0x00\n        /* \"#utility.yul\":11137:11138   */\n      dup1\n        /* \"#utility.yul\":11130:11142   */\n      revert\n        /* \"#utility.yul\":11081:11144   */\n    tag_237:\n        /* \"#utility.yul\":11028:11150   */\n      pop\n      jump\t// out\n        /* \"#utility.yul\":11156:11299   */\n    tag_104:\n        /* \"#utility.yul\":11213:11218   */\n      0x00\n        /* \"#utility.yul\":11244:11250   */\n      dup2\n        /* \"#utility.yul\":11238:11251   */\n      mload\n        /* \"#utility.yul\":11229:11251   */\n      swap1\n      pop\n        /* \"#utility.yul\":11260:11293   */\n      tag_239\n        /* \"#utility.yul\":11287:11292   */\n      dup2\n        /* \"#utility.yul\":11260:11293   */\n      tag_103\n      jump\t// in\n    tag_239:\n        /* \"#utility.yul\":11156:11299   */\n      swap3\n      swap2\n      pop\n      pop\n      jump\t// out\n        /* \"#utility.yul\":11305:11656   */\n    tag_56:\n        /* \"#utility.yul\":11375:11381   */\n      0x00\n        /* \"#utility.yul\":11424:11426   */\n      0x20\n        /* \"#utility.yul\":11412:11421   */\n      dup3\n        /* \"#utility.yul\":11403:11410   */\n      dup5\n        /* \"#utility.yul\":11399:11422   */\n      sub\n        /* \"#utility.yul\":11395:11427   */\n      slt\n        /* \"#utility.yul\":11392:11511   */\n      iszero\n      tag_241\n      jumpi\n        /* \"#utility.yul\":11430:11509   */\n      tag_242\n      tag_61\n      jump\t// in\n    tag_242:\n        /* \"#utility.yul\":11392:11511   */\n    tag_241:\n        /* \"#utility.yul\":11550:11551   */\n      0x00\n        /* \"#utility.yul\":11575:11639   */\n      tag_243\n        /* \"#utility.yul\":11631:11638   */\n      dup5\n        /* \"#utility.yul\":11622:11628   */\n      dup3\n        /* \"#utility.yul\":11611:11620   */\n      dup6\n        /* \"#utility.yul\":11607:11629   */\n      add\n        /* \"#utility.yul\":11575:11639   */\n      tag_104\n      jump\t// in\n    tag_243:\n        /* \"#utility.yul\":11565:11639   */\n      swap2\n      pop\n        /* \"#utility.yul\":11521:11649   */\n      pop\n        /* \"#utility.yul\":11305:11656   */\n      swap3\n      swap2\n      pop\n      pop\n      jump\t// out\n\n    auxdata: 0xa26469706673582212209de9f9f2b3fd687aebcf0578a9b061a8aff9f69182f6f3075c6bedfb8bdeac4664736f6c634300080b0033\n}\n",
				"bytecode": {
					"linkReferences": {},
					"object": "60806040526001805534801561001457600080fd5b5061090d806100246000396000f3fe6080604052600436106100555760003560e01c8063722713f71461005a5780637bd703e814610085578063c47e739a146100c2578063e8b5e51f146100ff578063f672e79814610109578063f8b2cb4f14610146575b600080fd5b34801561006657600080fd5b5061006f610183565b60405161007c91906102de565b60405180910390f35b34801561009157600080fd5b506100ac60048036038101906100a7919061036b565b61018b565b6040516100b991906102de565b60405180910390f35b3480156100ce57600080fd5b506100e960048036038101906100e491906103d1565b61019d565b6040516100f69190610497565b60405180910390f35b6101076101c6565b005b34801561011557600080fd5b50610130600480360381019061012b9190610650565b6101dd565b60405161013d91906106ec565b60405180910390f35b34801561015257600080fd5b5061016d6004803603810190610168919061036b565b61027d565b60405161017a91906102de565b60405180910390f35b600047905090565b60006101968261027d565b9050919050565b6060816040516020016101b0919061073d565b6040516020818303038152906040529050919050565b670de0b6b3a76400003410156101db57600080fd5b565b6000429450600154935060405180602001604052806000815250915060008060028787848760405160200161021594939291906107e1565b6040516020818303038152906040526040516102319190610867565b602060405180830381855afa15801561024e573d6000803e3d6000fd5b5050506040513d601f19601f8201168201806040525081019061027191906108aa565b92505050949350505050565b60008060008373ffffffffffffffffffffffffffffffffffffffff1673ffffffffffffffffffffffffffffffffffffffff168152602001908152602001600020549050919050565b6000819050919050565b6102d8816102c5565b82525050565b60006020820190506102f360008301846102cf565b92915050565b6000604051905090565b600080fd5b600080fd5b600073ffffffffffffffffffffffffffffffffffffffff82169050919050565b60006103388261030d565b9050919050565b6103488161032d565b811461035357600080fd5b50565b6000813590506103658161033f565b92915050565b60006020828403121561038157610380610303565b5b600061038f84828501610356565b91505092915050565b60008160000b9050919050565b6103ae81610398565b81146103b957600080fd5b50565b6000813590506103cb816103a5565b92915050565b6000602082840312156103e7576103e6610303565b5b60006103f5848285016103bc565b91505092915050565b600081519050919050565b600082825260208201905092915050565b60005b8381101561043857808201518184015260208101905061041d565b83811115610447576000848401525b50505050565b6000601f19601f8301169050919050565b6000610469826103fe565b6104738185610409565b935061048381856020860161041a565b61048c8161044d565b840191505092915050565b600060208201905081810360008301526104b1818461045e565b905092915050565b6104c2816102c5565b81146104cd57600080fd5b50565b6000813590506104df816104b9565b92915050565b6000819050919050565b6104f8816104e5565b811461050357600080fd5b50565b600081359050610515816104ef565b92915050565b600080fd5b600080fd5b7f4e487b7100000000000000000000000000000000000000000000000000000000600052604160045260246000fd5b61055d8261044d565b810181811067ffffffffffffffff8211171561057c5761057b610525565b5b80604052505050565b600061058f6102f9565b905061059b8282610554565b919050565b600067ffffffffffffffff8211156105bb576105ba610525565b5b6105c48261044d565b9050602081019050919050565b82818337600083830152505050565b60006105f36105ee846105a0565b610585565b90508281526020810184848401111561060f5761060e610520565b5b61061a8482856105d1565b509392505050565b600082601f8301126106375761063661051b565b5b81356106478482602086016105e0565b91505092915050565b6000806000806080858703121561066a57610669610303565b5b6000610678878288016104d0565b945050602061068987828801610506565b935050604061069a878288016104d0565b925050606085013567ffffffffffffffff8111156106bb576106ba610308565b5b6106c787828801610622565b91505092959194509250565b6000819050919050565b6106e6816106d3565b82525050565b600060208201905061070160008301846106dd565b92915050565b60008160f81b9050919050565b600061071f82610707565b9050919050565b61073761073282610398565b610714565b82525050565b60006107498284610726565b60018201915081905092915050565b6000819050919050565b61077361076e826102c5565b610758565b82525050565b6000819050919050565b61079461078f826104e5565b610779565b82525050565b600081519050919050565b600081905092915050565b60006107bb8261079a565b6107c581856107a5565b93506107d581856020860161041a565b80840191505092915050565b60006107ed8287610762565b6020820191506107fd8286610783565b60208201915061080d8285610783565b60208201915061081d82846107b0565b915081905095945050505050565b600081905092915050565b6000610841826103fe565b61084b818561082b565b935061085b81856020860161041a565b80840191505092915050565b60006108738284610836565b915081905092915050565b610887816106d3565b811461089257600080fd5b50565b6000815190506108a48161087e565b92915050565b6000602082840312156108c0576108bf610303565b5b60006108ce84828501610895565b9150509291505056fea26469706673582212209de9f9f2b3fd687aebcf0578a9b061a8aff9f69182f6f3075c6bedfb8bdeac4664736f6c634300080b0033",
					"opcodes": "PUSH1 0x80 PUSH1 0x40 MSTORE PUSH1 0x1 DUP1 SSTORE CALLVALUE DUP1 ISZERO PUSH2 0x14 JUMPI PUSH1 0x0 DUP1 REVERT JUMPDEST POP PUSH2 0x90D DUP1 PUSH2 0x24 PUSH1 0x0 CODECOPY PUSH1 0x0 RETURN INVALID PUSH1 0x80 PUSH1 0x40 MSTORE PUSH1 0x4 CALLDATASIZE LT PUSH2 0x55 JUMPI PUSH1 0x0 CALLDATALOAD PUSH1 0xE0 SHR DUP1 PUSH4 0x722713F7 EQ PUSH2 0x5A JUMPI DUP1 PUSH4 0x7BD703E8 EQ PUSH2 0x85 JUMPI DUP1 PUSH4 0xC47E739A EQ PUSH2 0xC2 JUMPI DUP1 PUSH4 0xE8B5E51F EQ PUSH2 0xFF JUMPI DUP1 PUSH4 0xF672E798 EQ PUSH2 0x109 JUMPI DUP1 PUSH4 0xF8B2CB4F EQ PUSH2 0x146 JUMPI JUMPDEST PUSH1 0x0 DUP1 REVERT JUMPDEST CALLVALUE DUP1 ISZERO PUSH2 0x66 JUMPI PUSH1 0x0 DUP1 REVERT JUMPDEST POP PUSH2 0x6F PUSH2 0x183 JUMP JUMPDEST PUSH1 0x40 MLOAD PUSH2 0x7C SWAP2 SWAP1 PUSH2 0x2DE JUMP JUMPDEST PUSH1 0x40 MLOAD DUP1 SWAP2 SUB SWAP1 RETURN JUMPDEST CALLVALUE DUP1 ISZERO PUSH2 0x91 JUMPI PUSH1 0x0 DUP1 REVERT JUMPDEST POP PUSH2 0xAC PUSH1 0x4 DUP1 CALLDATASIZE SUB DUP2 ADD SWAP1 PUSH2 0xA7 SWAP2 SWAP1 PUSH2 0x36B JUMP JUMPDEST PUSH2 0x18B JUMP JUMPDEST PUSH1 0x40 MLOAD PUSH2 0xB9 SWAP2 SWAP1 PUSH2 0x2DE JUMP JUMPDEST PUSH1 0x40 MLOAD DUP1 SWAP2 SUB SWAP1 RETURN JUMPDEST CALLVALUE DUP1 ISZERO PUSH2 0xCE JUMPI PUSH1 0x0 DUP1 REVERT JUMPDEST POP PUSH2 0xE9 PUSH1 0x4 DUP1 CALLDATASIZE SUB DUP2 ADD SWAP1 PUSH2 0xE4 SWAP2 SWAP1 PUSH2 0x3D1 JUMP JUMPDEST PUSH2 0x19D JUMP JUMPDEST PUSH1 0x40 MLOAD PUSH2 0xF6 SWAP2 SWAP1 PUSH2 0x497 JUMP JUMPDEST PUSH1 0x40 MLOAD DUP1 SWAP2 SUB SWAP1 RETURN JUMPDEST PUSH2 0x107 PUSH2 0x1C6 JUMP JUMPDEST STOP JUMPDEST CALLVALUE DUP1 ISZERO PUSH2 0x115 JUMPI PUSH1 0x0 DUP1 REVERT JUMPDEST POP PUSH2 0x130 PUSH1 0x4 DUP1 CALLDATASIZE SUB DUP2 ADD SWAP1 PUSH2 0x12B SWAP2 SWAP1 PUSH2 0x650 JUMP JUMPDEST PUSH2 0x1DD JUMP JUMPDEST PUSH1 0x40 MLOAD PUSH2 0x13D SWAP2 SWAP1 PUSH2 0x6EC JUMP JUMPDEST PUSH1 0x40 MLOAD DUP1 SWAP2 SUB SWAP1 RETURN JUMPDEST CALLVALUE DUP1 ISZERO PUSH2 0x152 JUMPI PUSH1 0x0 DUP1 REVERT JUMPDEST POP PUSH2 0x16D PUSH1 0x4 DUP1 CALLDATASIZE SUB DUP2 ADD SWAP1 PUSH2 0x168 SWAP2 SWAP1 PUSH2 0x36B JUMP JUMPDEST PUSH2 0x27D JUMP JUMPDEST PUSH1 0x40 MLOAD PUSH2 0x17A SWAP2 SWAP1 PUSH2 0x2DE JUMP JUMPDEST PUSH1 0x40 MLOAD DUP1 SWAP2 SUB SWAP1 RETURN JUMPDEST PUSH1 0x0 SELFBALANCE SWAP1 POP SWAP1 JUMP JUMPDEST PUSH1 0x0 PUSH2 0x196 DUP3 PUSH2 0x27D JUMP JUMPDEST SWAP1 POP SWAP2 SWAP1 POP JUMP JUMPDEST PUSH1 0x60 DUP2 PUSH1 0x40 MLOAD PUSH1 0x20 ADD PUSH2 0x1B0 SWAP2 SWAP1 PUSH2 0x73D JUMP JUMPDEST PUSH1 0x40 MLOAD PUSH1 0x20 DUP2 DUP4 SUB SUB DUP2 MSTORE SWAP1 PUSH1 0x40 MSTORE SWAP1 POP SWAP2 SWAP1 POP JUMP JUMPDEST PUSH8 0xDE0B6B3A7640000 CALLVALUE LT ISZERO PUSH2 0x1DB JUMPI PUSH1 0x0 DUP1 REVERT JUMPDEST JUMP JUMPDEST PUSH1 0x0 TIMESTAMP SWAP5 POP PUSH1 0x1 SLOAD SWAP4 POP PUSH1 0x40 MLOAD DUP1 PUSH1 0x20 ADD PUSH1 0x40 MSTORE DUP1 PUSH1 0x0 DUP2 MSTORE POP SWAP2 POP PUSH1 0x0 DUP1 PUSH1 0x2 DUP8 DUP8 DUP5 DUP8 PUSH1 0x40 MLOAD PUSH1 0x20 ADD PUSH2 0x215 SWAP5 SWAP4 SWAP3 SWAP2 SWAP1 PUSH2 0x7E1 JUMP JUMPDEST PUSH1 0x40 MLOAD PUSH1 0x20 DUP2 DUP4 SUB SUB DUP2 MSTORE SWAP1 PUSH1 0x40 MSTORE PUSH1 0x40 MLOAD PUSH2 0x231 SWAP2 SWAP1 PUSH2 0x867 JUMP JUMPDEST PUSH1 0x20 PUSH1 0x40 MLOAD DUP1 DUP4 SUB DUP2 DUP6 GAS STATICCALL ISZERO DUP1 ISZERO PUSH2 0x24E JUMPI RETURNDATASIZE PUSH1 0x0 DUP1 RETURNDATACOPY RETURNDATASIZE PUSH1 0x0 REVERT JUMPDEST POP POP POP PUSH1 0x40 MLOAD RETURNDATASIZE PUSH1 0x1F NOT PUSH1 0x1F DUP3 ADD AND DUP3 ADD DUP1 PUSH1 0x40 MSTORE POP DUP2 ADD SWAP1 PUSH2 0x271 SWAP2 SWAP1 PUSH2 0x8AA JUMP JUMPDEST SWAP3 POP POP POP SWAP5 SWAP4 POP POP POP POP JUMP JUMPDEST PUSH1 0x0 DUP1 PUSH1 0x0 DUP4 PUSH20 0xFFFFFFFFFFFFFFFFFFFFFFFFFFFFFFFFFFFFFFFF AND PUSH20 0xFFFFFFFFFFFFFFFFFFFFFFFFFFFFFFFFFFFFFFFF AND DUP2 MSTORE PUSH1 0x20 ADD SWAP1 DUP2 MSTORE PUSH1 0x20 ADD PUSH1 0x0 KECCAK256 SLOAD SWAP1 POP SWAP2 SWAP1 POP JUMP JUMPDEST PUSH1 0x0 DUP2 SWAP1 POP SWAP2 SWAP1 POP JUMP JUMPDEST PUSH2 0x2D8 DUP2 PUSH2 0x2C5 JUMP JUMPDEST DUP3 MSTORE POP POP JUMP JUMPDEST PUSH1 0x0 PUSH1 0x20 DUP3 ADD SWAP1 POP PUSH2 0x2F3 PUSH1 0x0 DUP4 ADD DUP5 PUSH2 0x2CF JUMP JUMPDEST SWAP3 SWAP2 POP POP JUMP JUMPDEST PUSH1 0x0 PUSH1 0x40 MLOAD SWAP1 POP SWAP1 JUMP JUMPDEST PUSH1 0x0 DUP1 REVERT JUMPDEST PUSH1 0x0 DUP1 REVERT JUMPDEST PUSH1 0x0 PUSH20 0xFFFFFFFFFFFFFFFFFFFFFFFFFFFFFFFFFFFFFFFF DUP3 AND SWAP1 POP SWAP2 SWAP1 POP JUMP JUMPDEST PUSH1 0x0 PUSH2 0x338 DUP3 PUSH2 0x30D JUMP JUMPDEST SWAP1 POP SWAP2 SWAP1 POP JUMP JUMPDEST PUSH2 0x348 DUP2 PUSH2 0x32D JUMP JUMPDEST DUP2 EQ PUSH2 0x353 JUMPI PUSH1 0x0 DUP1 REVERT JUMPDEST POP JUMP JUMPDEST PUSH1 0x0 DUP2 CALLDATALOAD SWAP1 POP PUSH2 0x365 DUP2 PUSH2 0x33F JUMP JUMPDEST SWAP3 SWAP2 POP POP JUMP JUMPDEST PUSH1 0x0 PUSH1 0x20 DUP3 DUP5 SUB SLT ISZERO PUSH2 0x381 JUMPI PUSH2 0x380 PUSH2 0x303 JUMP JUMPDEST JUMPDEST PUSH1 0x0 PUSH2 0x38F DUP5 DUP3 DUP6 ADD PUSH2 0x356 JUMP JUMPDEST SWAP2 POP POP SWAP3 SWAP2 POP POP JUMP JUMPDEST PUSH1 0x0 DUP2 PUSH1 0x0 SIGNEXTEND SWAP1 POP SWAP2 SWAP1 POP JUMP JUMPDEST PUSH2 0x3AE DUP2 PUSH2 0x398 JUMP JUMPDEST DUP2 EQ PUSH2 0x3B9 JUMPI PUSH1 0x0 DUP1 REVERT JUMPDEST POP JUMP JUMPDEST PUSH1 0x0 DUP2 CALLDATALOAD SWAP1 POP PUSH2 0x3CB DUP2 PUSH2 0x3A5 JUMP JUMPDEST SWAP3 SWAP2 POP POP JUMP JUMPDEST PUSH1 0x0 PUSH1 0x20 DUP3 DUP5 SUB SLT ISZERO PUSH2 0x3E7 JUMPI PUSH2 0x3E6 PUSH2 0x303 JUMP JUMPDEST JUMPDEST PUSH1 0x0 PUSH2 0x3F5 DUP5 DUP3 DUP6 ADD PUSH2 0x3BC JUMP JUMPDEST SWAP2 POP POP SWAP3 SWAP2 POP POP JUMP JUMPDEST PUSH1 0x0 DUP2 MLOAD SWAP1 POP SWAP2 SWAP1 POP JUMP JUMPDEST PUSH1 0x0 DUP3 DUP3 MSTORE PUSH1 0x20 DUP3 ADD SWAP1 POP SWAP3 SWAP2 POP POP JUMP JUMPDEST PUSH1 0x0 JUMPDEST DUP4 DUP2 LT ISZERO PUSH2 0x438 JUMPI DUP1 DUP3 ADD MLOAD DUP2 DUP5 ADD MSTORE PUSH1 0x20 DUP2 ADD SWAP1 POP PUSH2 0x41D JUMP JUMPDEST DUP4 DUP2 GT ISZERO PUSH2 0x447 JUMPI PUSH1 0x0 DUP5 DUP5 ADD MSTORE JUMPDEST POP POP POP POP JUMP JUMPDEST PUSH1 0x0 PUSH1 0x1F NOT PUSH1 0x1F DUP4 ADD AND SWAP1 POP SWAP2 SWAP1 POP JUMP JUMPDEST PUSH1 0x0 PUSH2 0x469 DUP3 PUSH2 0x3FE JUMP JUMPDEST PUSH2 0x473 DUP2 DUP6 PUSH2 0x409 JUMP JUMPDEST SWAP4 POP PUSH2 0x483 DUP2 DUP6 PUSH1 0x20 DUP7 ADD PUSH2 0x41A JUMP JUMPDEST PUSH2 0x48C DUP2 PUSH2 0x44D JUMP JUMPDEST DUP5 ADD SWAP2 POP POP SWAP3 SWAP2 POP POP JUMP JUMPDEST PUSH1 0x0 PUSH1 0x20 DUP3 ADD SWAP1 POP DUP2 DUP2 SUB PUSH1 0x0 DUP4 ADD MSTORE PUSH2 0x4B1 DUP2 DUP5 PUSH2 0x45E JUMP JUMPDEST SWAP1 POP SWAP3 SWAP2 POP POP JUMP JUMPDEST PUSH2 0x4C2 DUP2 PUSH2 0x2C5 JUMP JUMPDEST DUP2 EQ PUSH2 0x4CD JUMPI PUSH1 0x0 DUP1 REVERT JUMPDEST POP JUMP JUMPDEST PUSH1 0x0 DUP2 CALLDATALOAD SWAP1 POP PUSH2 0x4DF DUP2 PUSH2 0x4B9 JUMP JUMPDEST SWAP3 SWAP2 POP POP JUMP JUMPDEST PUSH1 0x0 DUP2 SWAP1 POP SWAP2 SWAP1 POP JUMP JUMPDEST PUSH2 0x4F8 DUP2 PUSH2 0x4E5 JUMP JUMPDEST DUP2 EQ PUSH2 0x503 JUMPI PUSH1 0x0 DUP1 REVERT JUMPDEST POP JUMP JUMPDEST PUSH1 0x0 DUP2 CALLDATALOAD SWAP1 POP PUSH2 0x515 DUP2 PUSH2 0x4EF JUMP JUMPDEST SWAP3 SWAP2 POP POP JUMP JUMPDEST PUSH1 0x0 DUP1 REVERT JUMPDEST PUSH1 0x0 DUP1 REVERT JUMPDEST PUSH32 0x4E487B7100000000000000000000000000000000000000000000000000000000 PUSH1 0x0 MSTORE PUSH1 0x41 PUSH1 0x4 MSTORE PUSH1 0x24 PUSH1 0x0 REVERT JUMPDEST PUSH2 0x55D DUP3 PUSH2 0x44D JUMP JUMPDEST DUP2 ADD DUP2 DUP2 LT PUSH8 0xFFFFFFFFFFFFFFFF DUP3 GT OR ISZERO PUSH2 0x57C JUMPI PUSH2 0x57B PUSH2 0x525 JUMP JUMPDEST JUMPDEST DUP1 PUSH1 0x40 MSTORE POP POP POP JUMP JUMPDEST PUSH1 0x0 PUSH2 0x58F PUSH2 0x2F9 JUMP JUMPDEST SWAP1 POP PUSH2 0x59B DUP3 DUP3 PUSH2 0x554 JUMP JUMPDEST SWAP2 SWAP1 POP JUMP JUMPDEST PUSH1 0x0 PUSH8 0xFFFFFFFFFFFFFFFF DUP3 GT ISZERO PUSH2 0x5BB JUMPI PUSH2 0x5BA PUSH2 0x525 JUMP JUMPDEST JUMPDEST PUSH2 0x5C4 DUP3 PUSH2 0x44D JUMP JUMPDEST SWAP1 POP PUSH1 0x20 DUP2 ADD SWAP1 POP SWAP2 SWAP1 POP JUMP JUMPDEST DUP3 DUP2 DUP4 CALLDATACOPY PUSH1 0x0 DUP4 DUP4 ADD MSTORE POP POP POP JUMP JUMPDEST PUSH1 0x0 PUSH2 0x5F3 PUSH2 0x5EE DUP5 PUSH2 0x5A0 JUMP JUMPDEST PUSH2 0x585 JUMP JUMPDEST SWAP1 POP DUP3 DUP2 MSTORE PUSH1 0x20 DUP2 ADD DUP5 DUP5 DUP5 ADD GT ISZERO PUSH2 0x60F JUMPI PUSH2 0x60E PUSH2 0x520 JUMP JUMPDEST JUMPDEST PUSH2 0x61A DUP5 DUP3 DUP6 PUSH2 0x5D1 JUMP JUMPDEST POP SWAP4 SWAP3 POP POP POP JUMP JUMPDEST PUSH1 0x0 DUP3 PUSH1 0x1F DUP4 ADD SLT PUSH2 0x637 JUMPI PUSH2 0x636 PUSH2 0x51B JUMP JUMPDEST JUMPDEST DUP2 CALLDATALOAD PUSH2 0x647 DUP5 DUP3 PUSH1 0x20 DUP7 ADD PUSH2 0x5E0 JUMP JUMPDEST SWAP2 POP POP SWAP3 SWAP2 POP POP JUMP JUMPDEST PUSH1 0x0 DUP1 PUSH1 0x0 DUP1 PUSH1 0x80 DUP6 DUP8 SUB SLT ISZERO PUSH2 0x66A JUMPI PUSH2 0x669 PUSH2 0x303 JUMP JUMPDEST JUMPDEST PUSH1 0x0 PUSH2 0x678 DUP8 DUP3 DUP9 ADD PUSH2 0x4D0 JUMP JUMPDEST SWAP5 POP POP PUSH1 0x20 PUSH2 0x689 DUP8 DUP3 DUP9 ADD PUSH2 0x506 JUMP JUMPDEST SWAP4 POP POP PUSH1 0x40 PUSH2 0x69A DUP8 DUP3 DUP9 ADD PUSH2 0x4D0 JUMP JUMPDEST SWAP3 POP POP PUSH1 0x60 DUP6 ADD CALLDATALOAD PUSH8 0xFFFFFFFFFFFFFFFF DUP2 GT ISZERO PUSH2 0x6BB JUMPI PUSH2 0x6BA PUSH2 0x308 JUMP JUMPDEST JUMPDEST PUSH2 0x6C7 DUP8 DUP3 DUP9 ADD PUSH2 0x622 JUMP JUMPDEST SWAP2 POP POP SWAP3 SWAP6 SWAP2 SWAP5 POP SWAP3 POP JUMP JUMPDEST PUSH1 0x0 DUP2 SWAP1 POP SWAP2 SWAP1 POP JUMP JUMPDEST PUSH2 0x6E6 DUP2 PUSH2 0x6D3 JUMP JUMPDEST DUP3 MSTORE POP POP JUMP JUMPDEST PUSH1 0x0 PUSH1 0x20 DUP3 ADD SWAP1 POP PUSH2 0x701 PUSH1 0x0 DUP4 ADD DUP5 PUSH2 0x6DD JUMP JUMPDEST SWAP3 SWAP2 POP POP JUMP JUMPDEST PUSH1 0x0 DUP2 PUSH1 0xF8 SHL SWAP1 POP SWAP2 SWAP1 POP JUMP JUMPDEST PUSH1 0x0 PUSH2 0x71F DUP3 PUSH2 0x707 JUMP JUMPDEST SWAP1 POP SWAP2 SWAP1 POP JUMP JUMPDEST PUSH2 0x737 PUSH2 0x732 DUP3 PUSH2 0x398 JUMP JUMPDEST PUSH2 0x714 JUMP JUMPDEST DUP3 MSTORE POP POP JUMP JUMPDEST PUSH1 0x0 PUSH2 0x749 DUP3 DUP5 PUSH2 0x726 JUMP JUMPDEST PUSH1 0x1 DUP3 ADD SWAP2 POP DUP2 SWAP1 POP SWAP3 SWAP2 POP POP JUMP JUMPDEST PUSH1 0x0 DUP2 SWAP1 POP SWAP2 SWAP1 POP JUMP JUMPDEST PUSH2 0x773 PUSH2 0x76E DUP3 PUSH2 0x2C5 JUMP JUMPDEST PUSH2 0x758 JUMP JUMPDEST DUP3 MSTORE POP POP JUMP JUMPDEST PUSH1 0x0 DUP2 SWAP1 POP SWAP2 SWAP1 POP JUMP JUMPDEST PUSH2 0x794 PUSH2 0x78F DUP3 PUSH2 0x4E5 JUMP JUMPDEST PUSH2 0x779 JUMP JUMPDEST DUP3 MSTORE POP POP JUMP JUMPDEST PUSH1 0x0 DUP2 MLOAD SWAP1 POP SWAP2 SWAP1 POP JUMP JUMPDEST PUSH1 0x0 DUP2 SWAP1 POP SWAP3 SWAP2 POP POP JUMP JUMPDEST PUSH1 0x0 PUSH2 0x7BB DUP3 PUSH2 0x79A JUMP JUMPDEST PUSH2 0x7C5 DUP2 DUP6 PUSH2 0x7A5 JUMP JUMPDEST SWAP4 POP PUSH2 0x7D5 DUP2 DUP6 PUSH1 0x20 DUP7 ADD PUSH2 0x41A JUMP JUMPDEST DUP1 DUP5 ADD SWAP2 POP POP SWAP3 SWAP2 POP POP JUMP JUMPDEST PUSH1 0x0 PUSH2 0x7ED DUP3 DUP8 PUSH2 0x762 JUMP JUMPDEST PUSH1 0x20 DUP3 ADD SWAP2 POP PUSH2 0x7FD DUP3 DUP7 PUSH2 0x783 JUMP JUMPDEST PUSH1 0x20 DUP3 ADD SWAP2 POP PUSH2 0x80D DUP3 DUP6 PUSH2 0x783 JUMP JUMPDEST PUSH1 0x20 DUP3 ADD SWAP2 POP PUSH2 0x81D DUP3 DUP5 PUSH2 0x7B0 JUMP JUMPDEST SWAP2 POP DUP2 SWAP1 POP SWAP6 SWAP5 POP POP POP POP POP JUMP JUMPDEST PUSH1 0x0 DUP2 SWAP1 POP SWAP3 SWAP2 POP POP JUMP JUMPDEST PUSH1 0x0 PUSH2 0x841 DUP3 PUSH2 0x3FE JUMP JUMPDEST PUSH2 0x84B DUP2 DUP6 PUSH2 0x82B JUMP JUMPDEST SWAP4 POP PUSH2 0x85B DUP2 DUP6 PUSH1 0x20 DUP7 ADD PUSH2 0x41A JUMP JUMPDEST DUP1 DUP5 ADD SWAP2 POP POP SWAP3 SWAP2 POP POP JUMP JUMPDEST PUSH1 0x0 PUSH2 0x873 DUP3 DUP5 PUSH2 0x836 JUMP JUMPDEST SWAP2 POP DUP2 SWAP1 POP SWAP3 SWAP2 POP POP JUMP JUMPDEST PUSH2 0x887 DUP2 PUSH2 0x6D3 JUMP JUMPDEST DUP2 EQ PUSH2 0x892 JUMPI PUSH1 0x0 DUP1 REVERT JUMPDEST POP JUMP JUMPDEST PUSH1 0x0 DUP2 MLOAD SWAP1 POP PUSH2 0x8A4 DUP2 PUSH2 0x87E JUMP JUMPDEST SWAP3 SWAP2 POP POP JUMP JUMPDEST PUSH1 0x0 PUSH1 0x20 DUP3 DUP5 SUB SLT ISZERO PUSH2 0x8C0 JUMPI PUSH2 0x8BF PUSH2 0x303 JUMP JUMPDEST JUMPDEST PUSH1 0x0 PUSH2 0x8CE DUP5 DUP3 DUP6 ADD PUSH2 0x895 JUMP JUMPDEST SWAP2 POP POP SWAP3 SWAP2 POP POP JUMP INVALID LOG2 PUSH5 0x6970667358 0x22 SLT KECCAK256 SWAP14 0xE9 0xF9 CALLCODE 0xB3 REVERT PUSH9 0x7AEBCF0578A9B061A8 0xAF 0xF9 0xF6 SWAP2 DUP3 0xF6 RETURN SMOD 0x5C PUSH12 0xEDFB8BDEAC4664736F6C6343 STOP ADDMOD SIGNEXTEND STOP CALLER "
				},
				"gasEstimates": {
					"creation": {
						"codeDepositCost": "463400",
						"executionCost": "22605",
						"totalCost": "486005"
					},
					"external": {
						"Block(uint256,int256,uint256,string)": "infinite",
						"balanceOf()": "317",
						"encodeInt8(int8)": "infinite",
						"getBalance(address)": "2929",
						"getBalanceInEth(address)": "2884",
						"invest()": "189"
					}
				},
				"methodIdentifiers": {
					"Block(uint256,int256,uint256,string)": "f672e798",
					"balanceOf()": "722713f7",
					"encodeInt8(int8)": "c47e739a",
					"getBalance(address)": "f8b2cb4f",
					"getBalanceInEth(address)": "7bd703e8",
					"invest()": "e8b5e51f"
				}
			},
			"storageLayout": {
				"storage": [
					{
						"astId": 5,
						"contract": "contracts/transact.sol:transact",
						"label": "balances",
						"offset": 0,
						"slot": "0",
						"type": "t_mapping(t_address,t_uint256)"
					},
					{
						"astId": 8,
						"contract": "contracts/transact.sol:transact",
						"label": "trans",
						"offset": 0,
						"slot": "1",
						"type": "t_int256"
					}
				],
				"types": {
					"t_address": {
						"encoding": "inplace",
						"label": "address",
						"numberOfBytes": "20"
					},
					"t_int256": {
						"encoding": "inplace",
						"label": "int256",
						"numberOfBytes": "32"
					},
					"t_mapping(t_address,t_uint256)": {
						"encoding": "mapping",
						"key": "t_address",
						"label": "mapping(address => uint256)",
						"numberOfBytes": "32",
						"value": "t_uint256"
					},
					"t_uint256": {
						"encoding": "inplace",
						"label": "uint256",
						"numberOfBytes": "32"
					}
				}
			},
			"userdoc": {
				"kind": "user",
				"methods": {},
				"version": 1
			}
		}
	}
}