{
	"contracts/transact.sol": {
		"transact": {
			"abi": [
				{
					"inputs": [
						{
							"internalType": "int256",
							"name": "transactions",
							"type": "int256"
						}
					],
					"name": "Block",
					"outputs": [
						{
							"internalType": "bytes32",
							"name": "hashin",
							"type": "bytes32"
						}
					],
					"stateMutability": "view",
					"type": "function"
				},
				{
					"inputs": [],
					"name": "balanceOf",
					"outputs": [
						{
							"internalType": "uint256",
							"name": "",
							"type": "uint256"
						}
					],
					"stateMutability": "view",
					"type": "function"
				},
				{
					"inputs": [
						{
							"internalType": "int8",
							"name": "time",
							"type": "int8"
						}
					],
					"name": "encodeInt8",
					"outputs": [
						{
							"internalType": "bytes",
							"name": "",
							"type": "bytes"
						}
					],
					"stateMutability": "pure",
					"type": "function"
				},
				{
					"inputs": [
						{
							"internalType": "address",
							"name": "addr",
							"type": "address"
						}
					],
					"name": "getBalance",
					"outputs": [
						{
							"internalType": "uint256",
							"name": "",
							"type": "uint256"
						}
					],
					"stateMutability": "view",
					"type": "function"
				},
				{
					"inputs": [
						{
							"internalType": "address",
							"name": "addr",
							"type": "address"
						}
					],
					"name": "getBalanceInEth",
					"outputs": [
						{
							"internalType": "uint256",
							"name": "",
							"type": "uint256"
						}
					],
					"stateMutability": "view",
					"type": "function"
				},
				{
					"inputs": [],
					"name": "invest",
					"outputs": [],
					"stateMutability": "payable",
					"type": "function"
				}
			],
			"devdoc": {
				"kind": "dev",
				"methods": {},
				"version": 1
			},
			"evm": {
				"assembly": "    /* \"contracts/transact.sol\":60:1068  contract transact {... */\n  mstore(0x40, 0x80)\n  callvalue\n  dup1\n  iszero\n  tag_1\n  jumpi\n  0x00\n  dup1\n  revert\ntag_1:\n  pop\n  dataSize(sub_0)\n  dup1\n  dataOffset(sub_0)\n  0x00\n  codecopy\n  0x00\n  return\nstop\n\nsub_0: assembly {\n        /* \"contracts/transact.sol\":60:1068  contract transact {... */\n      mstore(0x40, 0x80)\n      jumpi(tag_1, lt(calldatasize, 0x04))\n      shr(0xe0, calldataload(0x00))\n      dup1\n      0x722713f7\n      eq\n      tag_2\n      jumpi\n      dup1\n      0x7bd703e8\n      eq\n      tag_3\n      jumpi\n      dup1\n      0x8c6f2e82\n      eq\n      tag_4\n      jumpi\n      dup1\n      0xc47e739a\n      eq\n      tag_5\n      jumpi\n      dup1\n      0xe8b5e51f\n      eq\n      tag_6\n      jumpi\n      dup1\n      0xf8b2cb4f\n      eq\n      tag_7\n      jumpi\n    tag_1:\n      0x00\n      dup1\n      revert\n        /* \"contracts/transact.sol\":245:343  function balanceOf() external view returns (uint) {... */\n    tag_2:\n      callvalue\n      dup1\n      iszero\n      tag_8\n      jumpi\n      0x00\n      dup1\n      revert\n    tag_8:\n      pop\n      tag_9\n      tag_10\n      jump\t// in\n    tag_9:\n      mload(0x40)\n      tag_11\n      swap2\n      swap1\n      tag_12\n      jump\t// in\n    tag_11:\n      mload(0x40)\n      dup1\n      swap2\n      sub\n      swap1\n      return\n        /* \"contracts/transact.sol\":351:457  function getBalanceInEth(address addr) public view returns(uint){... */\n    tag_3:\n      callvalue\n      dup1\n      iszero\n      tag_13\n      jumpi\n      0x00\n      dup1\n      revert\n    tag_13:\n      pop\n      tag_14\n      0x04\n      dup1\n      calldatasize\n      sub\n      dup2\n      add\n      swap1\n      tag_15\n      swap2\n      swap1\n      tag_16\n      jump\t// in\n    tag_15:\n      tag_17\n      jump\t// in\n    tag_14:\n      mload(0x40)\n      tag_18\n      swap2\n      swap1\n      tag_12\n      jump\t// in\n    tag_18:\n      mload(0x40)\n      dup1\n      swap2\n      sub\n      swap1\n      return\n        /* \"contracts/transact.sol\":573:852  function Block(int transactions)public view returns(bytes32 hashin){... */\n    tag_4:\n      callvalue\n      dup1\n      iszero\n      tag_19\n      jumpi\n      0x00\n      dup1\n      revert\n    tag_19:\n      pop\n      tag_20\n      0x04\n      dup1\n      calldatasize\n      sub\n      dup2\n      add\n      swap1\n      tag_21\n      swap2\n      swap1\n      tag_22\n      jump\t// in\n    tag_21:\n      tag_23\n      jump\t// in\n    tag_20:\n      mload(0x40)\n      tag_24\n      swap2\n      swap1\n      tag_25\n      jump\t// in\n    tag_24:\n      mload(0x40)\n      dup1\n      swap2\n      sub\n      swap1\n      return\n        /* \"contracts/transact.sol\":859:973  function encodeInt8(int8 time) public pure returns (bytes memory) {... */\n    tag_5:\n      callvalue\n      dup1\n      iszero\n      tag_26\n      jumpi\n      0x00\n      dup1\n      revert\n    tag_26:\n      pop\n      tag_27\n      0x04\n      dup1\n      calldatasize\n      sub\n      dup2\n      add\n      swap1\n      tag_28\n      swap2\n      swap1\n      tag_29\n      jump\t// in\n    tag_28:\n      tag_30\n      jump\t// in\n    tag_27:\n      mload(0x40)\n      tag_31\n      swap2\n      swap1\n      tag_32\n      jump\t// in\n    tag_31:\n      mload(0x40)\n      dup1\n      swap2\n      sub\n      swap1\n      return\n        /* \"contracts/transact.sol\":126:239  function invest() external payable {... */\n    tag_6:\n      tag_33\n      tag_34\n      jump\t// in\n    tag_33:\n      stop\n        /* \"contracts/transact.sol\":465:565  function getBalance(address addr) public view returns(uint) {... */\n    tag_7:\n      callvalue\n      dup1\n      iszero\n      tag_35\n      jumpi\n      0x00\n      dup1\n      revert\n    tag_35:\n      pop\n      tag_36\n      0x04\n      dup1\n      calldatasize\n      sub\n      dup2\n      add\n      swap1\n      tag_37\n      swap2\n      swap1\n      tag_16\n      jump\t// in\n    tag_37:\n      tag_38\n      jump\t// in\n    tag_36:\n      mload(0x40)\n      tag_39\n      swap2\n      swap1\n      tag_12\n      jump\t// in\n    tag_39:\n      mload(0x40)\n      dup1\n      swap2\n      sub\n      swap1\n      return\n        /* \"contracts/transact.sol\":245:343  function balanceOf() external view returns (uint) {... */\n    tag_10:\n        /* \"contracts/transact.sol\":289:293  uint */\n      0x00\n        /* \"contracts/transact.sol\":313:334  address(this).balance */\n      selfbalance\n        /* \"contracts/transact.sol\":306:334  return address(this).balance */\n      swap1\n      pop\n        /* \"contracts/transact.sol\":245:343  function balanceOf() external view returns (uint) {... */\n      swap1\n      jump\t// out\n        /* \"contracts/transact.sol\":351:457  function getBalanceInEth(address addr) public view returns(uint){... */\n    tag_17:\n        /* \"contracts/transact.sol\":410:414  uint */\n      0x00\n        /* \"contracts/transact.sol\":433:449  getBalance(addr) */\n      tag_42\n        /* \"contracts/transact.sol\":444:448  addr */\n      dup3\n        /* \"contracts/transact.sol\":433:443  getBalance */\n      tag_38\n        /* \"contracts/transact.sol\":433:449  getBalance(addr) */\n      jump\t// in\n    tag_42:\n        /* \"contracts/transact.sol\":426:449  return getBalance(addr) */\n      swap1\n      pop\n        /* \"contracts/transact.sol\":351:457  function getBalanceInEth(address addr) public view returns(uint){... */\n      swap2\n      swap1\n      pop\n      jump\t// out\n        /* \"contracts/transact.sol\":573:852  function Block(int transactions)public view returns(bytes32 hashin){... */\n    tag_23:\n        /* \"contracts/transact.sol\":625:639  bytes32 hashin */\n      0x00\n        /* \"contracts/transact.sol\":650:659  uint time */\n      dup1\n        /* \"contracts/transact.sol\":661:676  block.timestamp */\n      timestamp\n        /* \"contracts/transact.sol\":650:676  uint time= block.timestamp */\n      swap1\n      pop\n        /* \"contracts/transact.sol\":685:705  bytes32 previousHash */\n      0x00\n        /* \"contracts/transact.sol\":707:708  0 */\n      dup1\n        /* \"contracts/transact.sol\":685:708  bytes32 previousHash= 0 */\n      0x00\n      shl\n      swap1\n      pop\n        /* \"contracts/transact.sol\":727:783  sha256(abi.encodePacked(time,transactions,previousHash)) */\n      0x02\n        /* \"contracts/transact.sol\":751:755  time */\n      dup3\n        /* \"contracts/transact.sol\":756:768  transactions */\n      dup6\n        /* \"contracts/transact.sol\":769:781  previousHash */\n      dup4\n        /* \"contracts/transact.sol\":734:782  abi.encodePacked(time,transactions,previousHash) */\n      add(0x20, mload(0x40))\n      tag_44\n      swap4\n      swap3\n      swap2\n      swap1\n      tag_45\n      jump\t// in\n    tag_44:\n      mload(0x40)\n      0x20\n      dup2\n      dup4\n      sub\n      sub\n      dup2\n      mstore\n      swap1\n      0x40\n      mstore\n        /* \"contracts/transact.sol\":727:783  sha256(abi.encodePacked(time,transactions,previousHash)) */\n      mload(0x40)\n      tag_46\n      swap2\n      swap1\n      tag_47\n      jump\t// in\n    tag_46:\n      0x20\n      mload(0x40)\n      dup1\n      dup4\n      sub\n      dup2\n      dup6\n      gas\n      staticcall\n      iszero\n      dup1\n      iszero\n      tag_49\n      jumpi\n      returndatasize\n      0x00\n      dup1\n      returndatacopy\n      revert(0x00, returndatasize)\n    tag_49:\n      pop\n      pop\n      pop\n      mload(0x40)\n      returndatasize\n      not(0x1f)\n      0x1f\n      dup3\n      add\n      and\n      dup3\n      add\n      dup1\n      0x40\n      mstore\n      pop\n      dup2\n      add\n      swap1\n      tag_50\n      swap2\n      swap1\n      tag_51\n      jump\t// in\n    tag_50:\n        /* \"contracts/transact.sol\":719:783  hashin= sha256(abi.encodePacked(time,transactions,previousHash)) */\n      swap3\n      pop\n        /* \"contracts/transact.sol\":807:813  hashin */\n      dup3\n        /* \"contracts/transact.sol\":794:813  previousHash=hashin */\n      swap1\n      pop\n        /* \"contracts/transact.sol\":824:837  return hashin */\n      pop\n      pop\n        /* \"contracts/transact.sol\":573:852  function Block(int transactions)public view returns(bytes32 hashin){... */\n      swap2\n      swap1\n      pop\n      jump\t// out\n        /* \"contracts/transact.sol\":859:973  function encodeInt8(int8 time) public pure returns (bytes memory) {... */\n    tag_30:\n        /* \"contracts/transact.sol\":911:923  bytes memory */\n      0x60\n        /* \"contracts/transact.sol\":960:964  time */\n      dup2\n        /* \"contracts/transact.sol\":943:965  abi.encodePacked(time) */\n      add(0x20, mload(0x40))\n      tag_53\n      swap2\n      swap1\n      tag_54\n      jump\t// in\n    tag_53:\n      mload(0x40)\n      0x20\n      dup2\n      dup4\n      sub\n      sub\n      dup2\n      mstore\n      swap1\n      0x40\n      mstore\n        /* \"contracts/transact.sol\":936:965  return abi.encodePacked(time) */\n      swap1\n      pop\n        /* \"contracts/transact.sol\":859:973  function encodeInt8(int8 time) public pure returns (bytes memory) {... */\n      swap2\n      swap1\n      pop\n      jump\t// out\n        /* \"contracts/transact.sol\":126:239  function invest() external payable {... */\n    tag_34:\n        /* \"contracts/transact.sol\":187:194  1 ether */\n      0x0de0b6b3a7640000\n        /* \"contracts/transact.sol\":175:184  msg.value */\n      callvalue\n        /* \"contracts/transact.sol\":175:194  msg.value < 1 ether */\n      lt\n        /* \"contracts/transact.sol\":172:230  if(msg.value < 1 ether){... */\n      iszero\n      tag_56\n      jumpi\n        /* \"contracts/transact.sol\":210:218  revert() */\n      0x00\n      dup1\n      revert\n        /* \"contracts/transact.sol\":172:230  if(msg.value < 1 ether){... */\n    tag_56:\n        /* \"contracts/transact.sol\":126:239  function invest() external payable {... */\n      jump\t// out\n        /* \"contracts/transact.sol\":465:565  function getBalance(address addr) public view returns(uint) {... */\n    tag_38:\n        /* \"contracts/transact.sol\":519:523  uint */\n      0x00\n        /* \"contracts/transact.sol\":543:551  balances */\n      dup1\n        /* \"contracts/transact.sol\":543:557  balances[addr] */\n      0x00\n        /* \"contracts/transact.sol\":552:556  addr */\n      dup4\n        /* \"contracts/transact.sol\":543:557  balances[addr] */\n      0xffffffffffffffffffffffffffffffffffffffff\n      and\n      0xffffffffffffffffffffffffffffffffffffffff\n      and\n      dup2\n      mstore\n      0x20\n      add\n      swap1\n      dup2\n      mstore\n      0x20\n      add\n      0x00\n      keccak256\n      sload\n        /* \"contracts/transact.sol\":536:557  return balances[addr] */\n      swap1\n      pop\n        /* \"contracts/transact.sol\":465:565  function getBalance(address addr) public view returns(uint) {... */\n      swap2\n      swap1\n      pop\n      jump\t// out\n        /* \"#utility.yul\":7:84   */\n    tag_58:\n        /* \"#utility.yul\":44:51   */\n      0x00\n        /* \"#utility.yul\":73:78   */\n      dup2\n        /* \"#utility.yul\":62:78   */\n      swap1\n      pop\n        /* \"#utility.yul\":7:84   */\n      swap2\n      swap1\n      pop\n      jump\t// out\n        /* \"#utility.yul\":90:208   */\n    tag_59:\n        /* \"#utility.yul\":177:201   */\n      tag_96\n        /* \"#utility.yul\":195:200   */\n      dup2\n        /* \"#utility.yul\":177:201   */\n      tag_58\n      jump\t// in\n    tag_96:\n        /* \"#utility.yul\":172:175   */\n      dup3\n        /* \"#utility.yul\":165:202   */\n      mstore\n        /* \"#utility.yul\":90:208   */\n      pop\n      pop\n      jump\t// out\n        /* \"#utility.yul\":214:436   */\n    tag_12:\n        /* \"#utility.yul\":307:311   */\n      0x00\n        /* \"#utility.yul\":345:347   */\n      0x20\n        /* \"#utility.yul\":334:343   */\n      dup3\n        /* \"#utility.yul\":330:348   */\n      add\n        /* \"#utility.yul\":322:348   */\n      swap1\n      pop\n        /* \"#utility.yul\":358:429   */\n      tag_98\n        /* \"#utility.yul\":426:427   */\n      0x00\n        /* \"#utility.yul\":415:424   */\n      dup4\n        /* \"#utility.yul\":411:428   */\n      add\n        /* \"#utility.yul\":402:408   */\n      dup5\n        /* \"#utility.yul\":358:429   */\n      tag_59\n      jump\t// in\n    tag_98:\n        /* \"#utility.yul\":214:436   */\n      swap3\n      swap2\n      pop\n      pop\n      jump\t// out\n        /* \"#utility.yul\":523:640   */\n    tag_61:\n        /* \"#utility.yul\":632:633   */\n      0x00\n        /* \"#utility.yul\":629:630   */\n      dup1\n        /* \"#utility.yul\":622:634   */\n      revert\n        /* \"#utility.yul\":769:895   */\n    tag_63:\n        /* \"#utility.yul\":806:813   */\n      0x00\n        /* \"#utility.yul\":846:888   */\n      0xffffffffffffffffffffffffffffffffffffffff\n        /* \"#utility.yul\":839:844   */\n      dup3\n        /* \"#utility.yul\":835:889   */\n      and\n        /* \"#utility.yul\":824:889   */\n      swap1\n      pop\n        /* \"#utility.yul\":769:895   */\n      swap2\n      swap1\n      pop\n      jump\t// out\n        /* \"#utility.yul\":901:997   */\n    tag_64:\n        /* \"#utility.yul\":938:945   */\n      0x00\n        /* \"#utility.yul\":967:991   */\n      tag_104\n        /* \"#utility.yul\":985:990   */\n      dup3\n        /* \"#utility.yul\":967:991   */\n      tag_63\n      jump\t// in\n    tag_104:\n        /* \"#utility.yul\":956:991   */\n      swap1\n      pop\n        /* \"#utility.yul\":901:997   */\n      swap2\n      swap1\n      pop\n      jump\t// out\n        /* \"#utility.yul\":1003:1125   */\n    tag_65:\n        /* \"#utility.yul\":1076:1100   */\n      tag_106\n        /* \"#utility.yul\":1094:1099   */\n      dup2\n        /* \"#utility.yul\":1076:1100   */\n      tag_64\n      jump\t// in\n    tag_106:\n        /* \"#utility.yul\":1069:1074   */\n      dup2\n        /* \"#utility.yul\":1066:1101   */\n      eq\n        /* \"#utility.yul\":1056:1119   */\n      tag_107\n      jumpi\n        /* \"#utility.yul\":1115:1116   */\n      0x00\n        /* \"#utility.yul\":1112:1113   */\n      dup1\n        /* \"#utility.yul\":1105:1117   */\n      revert\n        /* \"#utility.yul\":1056:1119   */\n    tag_107:\n        /* \"#utility.yul\":1003:1125   */\n      pop\n      jump\t// out\n        /* \"#utility.yul\":1131:1270   */\n    tag_66:\n        /* \"#utility.yul\":1177:1182   */\n      0x00\n        /* \"#utility.yul\":1215:1221   */\n      dup2\n        /* \"#utility.yul\":1202:1222   */\n      calldataload\n        /* \"#utility.yul\":1193:1222   */\n      swap1\n      pop\n        /* \"#utility.yul\":1231:1264   */\n      tag_109\n        /* \"#utility.yul\":1258:1263   */\n      dup2\n        /* \"#utility.yul\":1231:1264   */\n      tag_65\n      jump\t// in\n    tag_109:\n        /* \"#utility.yul\":1131:1270   */\n      swap3\n      swap2\n      pop\n      pop\n      jump\t// out\n        /* \"#utility.yul\":1276:1605   */\n    tag_16:\n        /* \"#utility.yul\":1335:1341   */\n      0x00\n        /* \"#utility.yul\":1384:1386   */\n      0x20\n        /* \"#utility.yul\":1372:1381   */\n      dup3\n        /* \"#utility.yul\":1363:1370   */\n      dup5\n        /* \"#utility.yul\":1359:1382   */\n      sub\n        /* \"#utility.yul\":1355:1387   */\n      slt\n        /* \"#utility.yul\":1352:1471   */\n      iszero\n      tag_111\n      jumpi\n        /* \"#utility.yul\":1390:1469   */\n      tag_112\n      tag_61\n      jump\t// in\n    tag_112:\n        /* \"#utility.yul\":1352:1471   */\n    tag_111:\n        /* \"#utility.yul\":1510:1511   */\n      0x00\n        /* \"#utility.yul\":1535:1588   */\n      tag_113\n        /* \"#utility.yul\":1580:1587   */\n      dup5\n        /* \"#utility.yul\":1571:1577   */\n      dup3\n        /* \"#utility.yul\":1560:1569   */\n      dup6\n        /* \"#utility.yul\":1556:1578   */\n      add\n        /* \"#utility.yul\":1535:1588   */\n      tag_66\n      jump\t// in\n    tag_113:\n        /* \"#utility.yul\":1525:1588   */\n      swap2\n      pop\n        /* \"#utility.yul\":1481:1598   */\n      pop\n        /* \"#utility.yul\":1276:1605   */\n      swap3\n      swap2\n      pop\n      pop\n      jump\t// out\n        /* \"#utility.yul\":1611:1687   */\n    tag_67:\n        /* \"#utility.yul\":1647:1654   */\n      0x00\n        /* \"#utility.yul\":1676:1681   */\n      dup2\n        /* \"#utility.yul\":1665:1681   */\n      swap1\n      pop\n        /* \"#utility.yul\":1611:1687   */\n      swap2\n      swap1\n      pop\n      jump\t// out\n        /* \"#utility.yul\":1693:1813   */\n    tag_68:\n        /* \"#utility.yul\":1765:1788   */\n      tag_116\n        /* \"#utility.yul\":1782:1787   */\n      dup2\n        /* \"#utility.yul\":1765:1788   */\n      tag_67\n      jump\t// in\n    tag_116:\n        /* \"#utility.yul\":1758:1763   */\n      dup2\n        /* \"#utility.yul\":1755:1789   */\n      eq\n        /* \"#utility.yul\":1745:1807   */\n      tag_117\n      jumpi\n        /* \"#utility.yul\":1803:1804   */\n      0x00\n        /* \"#utility.yul\":1800:1801   */\n      dup1\n        /* \"#utility.yul\":1793:1805   */\n      revert\n        /* \"#utility.yul\":1745:1807   */\n    tag_117:\n        /* \"#utility.yul\":1693:1813   */\n      pop\n      jump\t// out\n        /* \"#utility.yul\":1819:1956   */\n    tag_69:\n        /* \"#utility.yul\":1864:1869   */\n      0x00\n        /* \"#utility.yul\":1902:1908   */\n      dup2\n        /* \"#utility.yul\":1889:1909   */\n      calldataload\n        /* \"#utility.yul\":1880:1909   */\n      swap1\n      pop\n        /* \"#utility.yul\":1918:1950   */\n      tag_119\n        /* \"#utility.yul\":1944:1949   */\n      dup2\n        /* \"#utility.yul\":1918:1950   */\n      tag_68\n      jump\t// in\n    tag_119:\n        /* \"#utility.yul\":1819:1956   */\n      swap3\n      swap2\n      pop\n      pop\n      jump\t// out\n        /* \"#utility.yul\":1962:2289   */\n    tag_22:\n        /* \"#utility.yul\":2020:2026   */\n      0x00\n        /* \"#utility.yul\":2069:2071   */\n      0x20\n        /* \"#utility.yul\":2057:2066   */\n      dup3\n        /* \"#utility.yul\":2048:2055   */\n      dup5\n        /* \"#utility.yul\":2044:2067   */\n      sub\n        /* \"#utility.yul\":2040:2072   */\n      slt\n        /* \"#utility.yul\":2037:2156   */\n      iszero\n      tag_121\n      jumpi\n        /* \"#utility.yul\":2075:2154   */\n      tag_122\n      tag_61\n      jump\t// in\n    tag_122:\n        /* \"#utility.yul\":2037:2156   */\n    tag_121:\n        /* \"#utility.yul\":2195:2196   */\n      0x00\n        /* \"#utility.yul\":2220:2272   */\n      tag_123\n        /* \"#utility.yul\":2264:2271   */\n      dup5\n        /* \"#utility.yul\":2255:2261   */\n      dup3\n        /* \"#utility.yul\":2244:2253   */\n      dup6\n        /* \"#utility.yul\":2240:2262   */\n      add\n        /* \"#utility.yul\":2220:2272   */\n      tag_69\n      jump\t// in\n    tag_123:\n        /* \"#utility.yul\":2210:2272   */\n      swap2\n      pop\n        /* \"#utility.yul\":2166:2282   */\n      pop\n        /* \"#utility.yul\":1962:2289   */\n      swap3\n      swap2\n      pop\n      pop\n      jump\t// out\n        /* \"#utility.yul\":2295:2372   */\n    tag_70:\n        /* \"#utility.yul\":2332:2339   */\n      0x00\n        /* \"#utility.yul\":2361:2366   */\n      dup2\n        /* \"#utility.yul\":2350:2366   */\n      swap1\n      pop\n        /* \"#utility.yul\":2295:2372   */\n      swap2\n      swap1\n      pop\n      jump\t// out\n        /* \"#utility.yul\":2378:2496   */\n    tag_71:\n        /* \"#utility.yul\":2465:2489   */\n      tag_126\n        /* \"#utility.yul\":2483:2488   */\n      dup2\n        /* \"#utility.yul\":2465:2489   */\n      tag_70\n      jump\t// in\n    tag_126:\n        /* \"#utility.yul\":2460:2463   */\n      dup3\n        /* \"#utility.yul\":2453:2490   */\n      mstore\n        /* \"#utility.yul\":2378:2496   */\n      pop\n      pop\n      jump\t// out\n        /* \"#utility.yul\":2502:2724   */\n    tag_25:\n        /* \"#utility.yul\":2595:2599   */\n      0x00\n        /* \"#utility.yul\":2633:2635   */\n      0x20\n        /* \"#utility.yul\":2622:2631   */\n      dup3\n        /* \"#utility.yul\":2618:2636   */\n      add\n        /* \"#utility.yul\":2610:2636   */\n      swap1\n      pop\n        /* \"#utility.yul\":2646:2717   */\n      tag_128\n        /* \"#utility.yul\":2714:2715   */\n      0x00\n        /* \"#utility.yul\":2703:2712   */\n      dup4\n        /* \"#utility.yul\":2699:2716   */\n      add\n        /* \"#utility.yul\":2690:2696   */\n      dup5\n        /* \"#utility.yul\":2646:2717   */\n      tag_71\n      jump\t// in\n    tag_128:\n        /* \"#utility.yul\":2502:2724   */\n      swap3\n      swap2\n      pop\n      pop\n      jump\t// out\n        /* \"#utility.yul\":2730:2819   */\n    tag_72:\n        /* \"#utility.yul\":2764:2771   */\n      0x00\n        /* \"#utility.yul\":2807:2812   */\n      dup2\n        /* \"#utility.yul\":2804:2805   */\n      0x00\n        /* \"#utility.yul\":2793:2813   */\n      signextend\n        /* \"#utility.yul\":2782:2813   */\n      swap1\n      pop\n        /* \"#utility.yul\":2730:2819   */\n      swap2\n      swap1\n      pop\n      jump\t// out\n        /* \"#utility.yul\":2825:2941   */\n    tag_73:\n        /* \"#utility.yul\":2895:2916   */\n      tag_131\n        /* \"#utility.yul\":2910:2915   */\n      dup2\n        /* \"#utility.yul\":2895:2916   */\n      tag_72\n      jump\t// in\n    tag_131:\n        /* \"#utility.yul\":2888:2893   */\n      dup2\n        /* \"#utility.yul\":2885:2917   */\n      eq\n        /* \"#utility.yul\":2875:2935   */\n      tag_132\n      jumpi\n        /* \"#utility.yul\":2931:2932   */\n      0x00\n        /* \"#utility.yul\":2928:2929   */\n      dup1\n        /* \"#utility.yul\":2921:2933   */\n      revert\n        /* \"#utility.yul\":2875:2935   */\n    tag_132:\n        /* \"#utility.yul\":2825:2941   */\n      pop\n      jump\t// out\n        /* \"#utility.yul\":2947:3080   */\n    tag_74:\n        /* \"#utility.yul\":2990:2995   */\n      0x00\n        /* \"#utility.yul\":3028:3034   */\n      dup2\n        /* \"#utility.yul\":3015:3035   */\n      calldataload\n        /* \"#utility.yul\":3006:3035   */\n      swap1\n      pop\n        /* \"#utility.yul\":3044:3074   */\n      tag_134\n        /* \"#utility.yul\":3068:3073   */\n      dup2\n        /* \"#utility.yul\":3044:3074   */\n      tag_73\n      jump\t// in\n    tag_134:\n        /* \"#utility.yul\":2947:3080   */\n      swap3\n      swap2\n      pop\n      pop\n      jump\t// out\n        /* \"#utility.yul\":3086:3409   */\n    tag_29:\n        /* \"#utility.yul\":3142:3148   */\n      0x00\n        /* \"#utility.yul\":3191:3193   */\n      0x20\n        /* \"#utility.yul\":3179:3188   */\n      dup3\n        /* \"#utility.yul\":3170:3177   */\n      dup5\n        /* \"#utility.yul\":3166:3189   */\n      sub\n        /* \"#utility.yul\":3162:3194   */\n      slt\n        /* \"#utility.yul\":3159:3278   */\n      iszero\n      tag_136\n      jumpi\n        /* \"#utility.yul\":3197:3276   */\n      tag_137\n      tag_61\n      jump\t// in\n    tag_137:\n        /* \"#utility.yul\":3159:3278   */\n    tag_136:\n        /* \"#utility.yul\":3317:3318   */\n      0x00\n        /* \"#utility.yul\":3342:3392   */\n      tag_138\n        /* \"#utility.yul\":3384:3391   */\n      dup5\n        /* \"#utility.yul\":3375:3381   */\n      dup3\n        /* \"#utility.yul\":3364:3373   */\n      dup6\n        /* \"#utility.yul\":3360:3382   */\n      add\n        /* \"#utility.yul\":3342:3392   */\n      tag_74\n      jump\t// in\n    tag_138:\n        /* \"#utility.yul\":3332:3392   */\n      swap2\n      pop\n        /* \"#utility.yul\":3288:3402   */\n      pop\n        /* \"#utility.yul\":3086:3409   */\n      swap3\n      swap2\n      pop\n      pop\n      jump\t// out\n        /* \"#utility.yul\":3415:3513   */\n    tag_75:\n        /* \"#utility.yul\":3466:3472   */\n      0x00\n        /* \"#utility.yul\":3500:3505   */\n      dup2\n        /* \"#utility.yul\":3494:3506   */\n      mload\n        /* \"#utility.yul\":3484:3506   */\n      swap1\n      pop\n        /* \"#utility.yul\":3415:3513   */\n      swap2\n      swap1\n      pop\n      jump\t// out\n        /* \"#utility.yul\":3519:3687   */\n    tag_76:\n        /* \"#utility.yul\":3602:3613   */\n      0x00\n        /* \"#utility.yul\":3636:3642   */\n      dup3\n        /* \"#utility.yul\":3631:3634   */\n      dup3\n        /* \"#utility.yul\":3624:3643   */\n      mstore\n        /* \"#utility.yul\":3676:3680   */\n      0x20\n        /* \"#utility.yul\":3671:3674   */\n      dup3\n        /* \"#utility.yul\":3667:3681   */\n      add\n        /* \"#utility.yul\":3652:3681   */\n      swap1\n      pop\n        /* \"#utility.yul\":3519:3687   */\n      swap3\n      swap2\n      pop\n      pop\n      jump\t// out\n        /* \"#utility.yul\":3693:4000   */\n    tag_77:\n        /* \"#utility.yul\":3761:3762   */\n      0x00\n        /* \"#utility.yul\":3771:3884   */\n    tag_142:\n        /* \"#utility.yul\":3785:3791   */\n      dup4\n        /* \"#utility.yul\":3782:3783   */\n      dup2\n        /* \"#utility.yul\":3779:3792   */\n      lt\n        /* \"#utility.yul\":3771:3884   */\n      iszero\n      tag_144\n      jumpi\n        /* \"#utility.yul\":3870:3871   */\n      dup1\n        /* \"#utility.yul\":3865:3868   */\n      dup3\n        /* \"#utility.yul\":3861:3872   */\n      add\n        /* \"#utility.yul\":3855:3873   */\n      mload\n        /* \"#utility.yul\":3851:3852   */\n      dup2\n        /* \"#utility.yul\":3846:3849   */\n      dup5\n        /* \"#utility.yul\":3842:3853   */\n      add\n        /* \"#utility.yul\":3835:3874   */\n      mstore\n        /* \"#utility.yul\":3807:3809   */\n      0x20\n        /* \"#utility.yul\":3804:3805   */\n      dup2\n        /* \"#utility.yul\":3800:3810   */\n      add\n        /* \"#utility.yul\":3795:3810   */\n      swap1\n      pop\n        /* \"#utility.yul\":3771:3884   */\n      jump(tag_142)\n    tag_144:\n        /* \"#utility.yul\":3902:3908   */\n      dup4\n        /* \"#utility.yul\":3899:3900   */\n      dup2\n        /* \"#utility.yul\":3896:3909   */\n      gt\n        /* \"#utility.yul\":3893:3994   */\n      iszero\n      tag_145\n      jumpi\n        /* \"#utility.yul\":3982:3983   */\n      0x00\n        /* \"#utility.yul\":3973:3979   */\n      dup5\n        /* \"#utility.yul\":3968:3971   */\n      dup5\n        /* \"#utility.yul\":3964:3980   */\n      add\n        /* \"#utility.yul\":3957:3984   */\n      mstore\n        /* \"#utility.yul\":3893:3994   */\n    tag_145:\n        /* \"#utility.yul\":3742:4000   */\n      pop\n        /* \"#utility.yul\":3693:4000   */\n      pop\n      pop\n      pop\n      jump\t// out\n        /* \"#utility.yul\":4006:4108   */\n    tag_78:\n        /* \"#utility.yul\":4047:4053   */\n      0x00\n        /* \"#utility.yul\":4098:4100   */\n      0x1f\n        /* \"#utility.yul\":4094:4101   */\n      not\n        /* \"#utility.yul\":4089:4091   */\n      0x1f\n        /* \"#utility.yul\":4082:4087   */\n      dup4\n        /* \"#utility.yul\":4078:4092   */\n      add\n        /* \"#utility.yul\":4074:4102   */\n      and\n        /* \"#utility.yul\":4064:4102   */\n      swap1\n      pop\n        /* \"#utility.yul\":4006:4108   */\n      swap2\n      swap1\n      pop\n      jump\t// out\n        /* \"#utility.yul\":4114:4474   */\n    tag_79:\n        /* \"#utility.yul\":4200:4203   */\n      0x00\n        /* \"#utility.yul\":4228:4266   */\n      tag_148\n        /* \"#utility.yul\":4260:4265   */\n      dup3\n        /* \"#utility.yul\":4228:4266   */\n      tag_75\n      jump\t// in\n    tag_148:\n        /* \"#utility.yul\":4282:4352   */\n      tag_149\n        /* \"#utility.yul\":4345:4351   */\n      dup2\n        /* \"#utility.yul\":4340:4343   */\n      dup6\n        /* \"#utility.yul\":4282:4352   */\n      tag_76\n      jump\t// in\n    tag_149:\n        /* \"#utility.yul\":4275:4352   */\n      swap4\n      pop\n        /* \"#utility.yul\":4361:4413   */\n      tag_150\n        /* \"#utility.yul\":4406:4412   */\n      dup2\n        /* \"#utility.yul\":4401:4404   */\n      dup6\n        /* \"#utility.yul\":4394:4398   */\n      0x20\n        /* \"#utility.yul\":4387:4392   */\n      dup7\n        /* \"#utility.yul\":4383:4399   */\n      add\n        /* \"#utility.yul\":4361:4413   */\n      tag_77\n      jump\t// in\n    tag_150:\n        /* \"#utility.yul\":4438:4467   */\n      tag_151\n        /* \"#utility.yul\":4460:4466   */\n      dup2\n        /* \"#utility.yul\":4438:4467   */\n      tag_78\n      jump\t// in\n    tag_151:\n        /* \"#utility.yul\":4433:4436   */\n      dup5\n        /* \"#utility.yul\":4429:4468   */\n      add\n        /* \"#utility.yul\":4422:4468   */\n      swap2\n      pop\n        /* \"#utility.yul\":4204:4474   */\n      pop\n        /* \"#utility.yul\":4114:4474   */\n      swap3\n      swap2\n      pop\n      pop\n      jump\t// out\n        /* \"#utility.yul\":4480:4789   */\n    tag_32:\n        /* \"#utility.yul\":4591:4595   */\n      0x00\n        /* \"#utility.yul\":4629:4631   */\n      0x20\n        /* \"#utility.yul\":4618:4627   */\n      dup3\n        /* \"#utility.yul\":4614:4632   */\n      add\n        /* \"#utility.yul\":4606:4632   */\n      swap1\n      pop\n        /* \"#utility.yul\":4678:4687   */\n      dup2\n        /* \"#utility.yul\":4672:4676   */\n      dup2\n        /* \"#utility.yul\":4668:4688   */\n      sub\n        /* \"#utility.yul\":4664:4665   */\n      0x00\n        /* \"#utility.yul\":4653:4662   */\n      dup4\n        /* \"#utility.yul\":4649:4666   */\n      add\n        /* \"#utility.yul\":4642:4689   */\n      mstore\n        /* \"#utility.yul\":4706:4782   */\n      tag_153\n        /* \"#utility.yul\":4777:4781   */\n      dup2\n        /* \"#utility.yul\":4768:4774   */\n      dup5\n        /* \"#utility.yul\":4706:4782   */\n      tag_79\n      jump\t// in\n    tag_153:\n        /* \"#utility.yul\":4698:4782   */\n      swap1\n      pop\n        /* \"#utility.yul\":4480:4789   */\n      swap3\n      swap2\n      pop\n      pop\n      jump\t// out\n        /* \"#utility.yul\":4795:4874   */\n    tag_80:\n        /* \"#utility.yul\":4834:4841   */\n      0x00\n        /* \"#utility.yul\":4863:4868   */\n      dup2\n        /* \"#utility.yul\":4852:4868   */\n      swap1\n      pop\n        /* \"#utility.yul\":4795:4874   */\n      swap2\n      swap1\n      pop\n      jump\t// out\n        /* \"#utility.yul\":4880:5037   */\n    tag_81:\n        /* \"#utility.yul\":4985:5030   */\n      tag_156\n        /* \"#utility.yul\":5005:5029   */\n      tag_157\n        /* \"#utility.yul\":5023:5028   */\n      dup3\n        /* \"#utility.yul\":5005:5029   */\n      tag_58\n      jump\t// in\n    tag_157:\n        /* \"#utility.yul\":4985:5030   */\n      tag_80\n      jump\t// in\n    tag_156:\n        /* \"#utility.yul\":4980:4983   */\n      dup3\n        /* \"#utility.yul\":4973:5031   */\n      mstore\n        /* \"#utility.yul\":4880:5037   */\n      pop\n      pop\n      jump\t// out\n        /* \"#utility.yul\":5043:5121   */\n    tag_82:\n        /* \"#utility.yul\":5081:5088   */\n      0x00\n        /* \"#utility.yul\":5110:5115   */\n      dup2\n        /* \"#utility.yul\":5099:5115   */\n      swap1\n      pop\n        /* \"#utility.yul\":5043:5121   */\n      swap2\n      swap1\n      pop\n      jump\t// out\n        /* \"#utility.yul\":5127:5280   */\n    tag_83:\n        /* \"#utility.yul\":5230:5273   */\n      tag_160\n        /* \"#utility.yul\":5249:5272   */\n      tag_161\n        /* \"#utility.yul\":5266:5271   */\n      dup3\n        /* \"#utility.yul\":5249:5272   */\n      tag_67\n      jump\t// in\n    tag_161:\n        /* \"#utility.yul\":5230:5273   */\n      tag_82\n      jump\t// in\n    tag_160:\n        /* \"#utility.yul\":5225:5228   */\n      dup3\n        /* \"#utility.yul\":5218:5274   */\n      mstore\n        /* \"#utility.yul\":5127:5280   */\n      pop\n      pop\n      jump\t// out\n        /* \"#utility.yul\":5286:5365   */\n    tag_84:\n        /* \"#utility.yul\":5325:5332   */\n      0x00\n        /* \"#utility.yul\":5354:5359   */\n      dup2\n        /* \"#utility.yul\":5343:5359   */\n      swap1\n      pop\n        /* \"#utility.yul\":5286:5365   */\n      swap2\n      swap1\n      pop\n      jump\t// out\n        /* \"#utility.yul\":5371:5528   */\n    tag_85:\n        /* \"#utility.yul\":5476:5521   */\n      tag_164\n        /* \"#utility.yul\":5496:5520   */\n      tag_165\n        /* \"#utility.yul\":5514:5519   */\n      dup3\n        /* \"#utility.yul\":5496:5520   */\n      tag_70\n      jump\t// in\n    tag_165:\n        /* \"#utility.yul\":5476:5521   */\n      tag_84\n      jump\t// in\n    tag_164:\n        /* \"#utility.yul\":5471:5474   */\n      dup3\n        /* \"#utility.yul\":5464:5522   */\n      mstore\n        /* \"#utility.yul\":5371:5528   */\n      pop\n      pop\n      jump\t// out\n        /* \"#utility.yul\":5534:6068   */\n    tag_45:\n        /* \"#utility.yul\":5700:5703   */\n      0x00\n        /* \"#utility.yul\":5715:5790   */\n      tag_167\n        /* \"#utility.yul\":5786:5789   */\n      dup3\n        /* \"#utility.yul\":5777:5783   */\n      dup7\n        /* \"#utility.yul\":5715:5790   */\n      tag_81\n      jump\t// in\n    tag_167:\n        /* \"#utility.yul\":5815:5817   */\n      0x20\n        /* \"#utility.yul\":5810:5813   */\n      dup3\n        /* \"#utility.yul\":5806:5818   */\n      add\n        /* \"#utility.yul\":5799:5818   */\n      swap2\n      pop\n        /* \"#utility.yul\":5828:5901   */\n      tag_168\n        /* \"#utility.yul\":5897:5900   */\n      dup3\n        /* \"#utility.yul\":5888:5894   */\n      dup6\n        /* \"#utility.yul\":5828:5901   */\n      tag_83\n      jump\t// in\n    tag_168:\n        /* \"#utility.yul\":5926:5928   */\n      0x20\n        /* \"#utility.yul\":5921:5924   */\n      dup3\n        /* \"#utility.yul\":5917:5929   */\n      add\n        /* \"#utility.yul\":5910:5929   */\n      swap2\n      pop\n        /* \"#utility.yul\":5939:6014   */\n      tag_169\n        /* \"#utility.yul\":6010:6013   */\n      dup3\n        /* \"#utility.yul\":6001:6007   */\n      dup5\n        /* \"#utility.yul\":5939:6014   */\n      tag_85\n      jump\t// in\n    tag_169:\n        /* \"#utility.yul\":6039:6041   */\n      0x20\n        /* \"#utility.yul\":6034:6037   */\n      dup3\n        /* \"#utility.yul\":6030:6042   */\n      add\n        /* \"#utility.yul\":6023:6042   */\n      swap2\n      pop\n        /* \"#utility.yul\":6059:6062   */\n      dup2\n        /* \"#utility.yul\":6052:6062   */\n      swap1\n      pop\n        /* \"#utility.yul\":5534:6068   */\n      swap5\n      swap4\n      pop\n      pop\n      pop\n      pop\n      jump\t// out\n        /* \"#utility.yul\":6074:6221   */\n    tag_86:\n        /* \"#utility.yul\":6175:6186   */\n      0x00\n        /* \"#utility.yul\":6212:6215   */\n      dup2\n        /* \"#utility.yul\":6197:6215   */\n      swap1\n      pop\n        /* \"#utility.yul\":6074:6221   */\n      swap3\n      swap2\n      pop\n      pop\n      jump\t// out\n        /* \"#utility.yul\":6227:6600   */\n    tag_87:\n        /* \"#utility.yul\":6331:6334   */\n      0x00\n        /* \"#utility.yul\":6359:6397   */\n      tag_172\n        /* \"#utility.yul\":6391:6396   */\n      dup3\n        /* \"#utility.yul\":6359:6397   */\n      tag_75\n      jump\t// in\n    tag_172:\n        /* \"#utility.yul\":6413:6501   */\n      tag_173\n        /* \"#utility.yul\":6494:6500   */\n      dup2\n        /* \"#utility.yul\":6489:6492   */\n      dup6\n        /* \"#utility.yul\":6413:6501   */\n      tag_86\n      jump\t// in\n    tag_173:\n        /* \"#utility.yul\":6406:6501   */\n      swap4\n      pop\n        /* \"#utility.yul\":6510:6562   */\n      tag_174\n        /* \"#utility.yul\":6555:6561   */\n      dup2\n        /* \"#utility.yul\":6550:6553   */\n      dup6\n        /* \"#utility.yul\":6543:6547   */\n      0x20\n        /* \"#utility.yul\":6536:6541   */\n      dup7\n        /* \"#utility.yul\":6532:6548   */\n      add\n        /* \"#utility.yul\":6510:6562   */\n      tag_77\n      jump\t// in\n    tag_174:\n        /* \"#utility.yul\":6587:6593   */\n      dup1\n        /* \"#utility.yul\":6582:6585   */\n      dup5\n        /* \"#utility.yul\":6578:6594   */\n      add\n        /* \"#utility.yul\":6571:6594   */\n      swap2\n      pop\n        /* \"#utility.yul\":6335:6600   */\n      pop\n        /* \"#utility.yul\":6227:6600   */\n      swap3\n      swap2\n      pop\n      pop\n      jump\t// out\n        /* \"#utility.yul\":6606:6877   */\n    tag_47:\n        /* \"#utility.yul\":6736:6739   */\n      0x00\n        /* \"#utility.yul\":6758:6851   */\n      tag_176\n        /* \"#utility.yul\":6847:6850   */\n      dup3\n        /* \"#utility.yul\":6838:6844   */\n      dup5\n        /* \"#utility.yul\":6758:6851   */\n      tag_87\n      jump\t// in\n    tag_176:\n        /* \"#utility.yul\":6751:6851   */\n      swap2\n      pop\n        /* \"#utility.yul\":6868:6871   */\n      dup2\n        /* \"#utility.yul\":6861:6871   */\n      swap1\n      pop\n        /* \"#utility.yul\":6606:6877   */\n      swap3\n      swap2\n      pop\n      pop\n      jump\t// out\n        /* \"#utility.yul\":6883:7005   */\n    tag_88:\n        /* \"#utility.yul\":6956:6980   */\n      tag_178\n        /* \"#utility.yul\":6974:6979   */\n      dup2\n        /* \"#utility.yul\":6956:6980   */\n      tag_70\n      jump\t// in\n    tag_178:\n        /* \"#utility.yul\":6949:6954   */\n      dup2\n        /* \"#utility.yul\":6946:6981   */\n      eq\n        /* \"#utility.yul\":6936:6999   */\n      tag_179\n      jumpi\n        /* \"#utility.yul\":6995:6996   */\n      0x00\n        /* \"#utility.yul\":6992:6993   */\n      dup1\n        /* \"#utility.yul\":6985:6997   */\n      revert\n        /* \"#utility.yul\":6936:6999   */\n    tag_179:\n        /* \"#utility.yul\":6883:7005   */\n      pop\n      jump\t// out\n        /* \"#utility.yul\":7011:7154   */\n    tag_89:\n        /* \"#utility.yul\":7068:7073   */\n      0x00\n        /* \"#utility.yul\":7099:7105   */\n      dup2\n        /* \"#utility.yul\":7093:7106   */\n      mload\n        /* \"#utility.yul\":7084:7106   */\n      swap1\n      pop\n        /* \"#utility.yul\":7115:7148   */\n      tag_181\n        /* \"#utility.yul\":7142:7147   */\n      dup2\n        /* \"#utility.yul\":7115:7148   */\n      tag_88\n      jump\t// in\n    tag_181:\n        /* \"#utility.yul\":7011:7154   */\n      swap3\n      swap2\n      pop\n      pop\n      jump\t// out\n        /* \"#utility.yul\":7160:7511   */\n    tag_51:\n        /* \"#utility.yul\":7230:7236   */\n      0x00\n        /* \"#utility.yul\":7279:7281   */\n      0x20\n        /* \"#utility.yul\":7267:7276   */\n      dup3\n        /* \"#utility.yul\":7258:7265   */\n      dup5\n        /* \"#utility.yul\":7254:7277   */\n      sub\n        /* \"#utility.yul\":7250:7282   */\n      slt\n        /* \"#utility.yul\":7247:7366   */\n      iszero\n      tag_183\n      jumpi\n        /* \"#utility.yul\":7285:7364   */\n      tag_184\n      tag_61\n      jump\t// in\n    tag_184:\n        /* \"#utility.yul\":7247:7366   */\n    tag_183:\n        /* \"#utility.yul\":7405:7406   */\n      0x00\n        /* \"#utility.yul\":7430:7494   */\n      tag_185\n        /* \"#utility.yul\":7486:7493   */\n      dup5\n        /* \"#utility.yul\":7477:7483   */\n      dup3\n        /* \"#utility.yul\":7466:7475   */\n      dup6\n        /* \"#utility.yul\":7462:7484   */\n      add\n        /* \"#utility.yul\":7430:7494   */\n      tag_89\n      jump\t// in\n    tag_185:\n        /* \"#utility.yul\":7420:7494   */\n      swap2\n      pop\n        /* \"#utility.yul\":7376:7504   */\n      pop\n        /* \"#utility.yul\":7160:7511   */\n      swap3\n      swap2\n      pop\n      pop\n      jump\t// out\n        /* \"#utility.yul\":7517:7613   */\n    tag_90:\n        /* \"#utility.yul\":7551:7559   */\n      0x00\n        /* \"#utility.yul\":7600:7605   */\n      dup2\n        /* \"#utility.yul\":7595:7598   */\n      0xf8\n        /* \"#utility.yul\":7591:7606   */\n      shl\n        /* \"#utility.yul\":7570:7606   */\n      swap1\n      pop\n        /* \"#utility.yul\":7517:7613   */\n      swap2\n      swap1\n      pop\n      jump\t// out\n        /* \"#utility.yul\":7619:7711   */\n    tag_91:\n        /* \"#utility.yul\":7655:7662   */\n      0x00\n        /* \"#utility.yul\":7684:7705   */\n      tag_188\n        /* \"#utility.yul\":7699:7704   */\n      dup3\n        /* \"#utility.yul\":7684:7705   */\n      tag_90\n      jump\t// in\n    tag_188:\n        /* \"#utility.yul\":7673:7705   */\n      swap1\n      pop\n        /* \"#utility.yul\":7619:7711   */\n      swap2\n      swap1\n      pop\n      jump\t// out\n        /* \"#utility.yul\":7717:7862   */\n    tag_92:\n        /* \"#utility.yul\":7816:7855   */\n      tag_190\n        /* \"#utility.yul\":7833:7854   */\n      tag_191\n        /* \"#utility.yul\":7848:7853   */\n      dup3\n        /* \"#utility.yul\":7833:7854   */\n      tag_72\n      jump\t// in\n    tag_191:\n        /* \"#utility.yul\":7816:7855   */\n      tag_91\n      jump\t// in\n    tag_190:\n        /* \"#utility.yul\":7811:7814   */\n      dup3\n        /* \"#utility.yul\":7804:7856   */\n      mstore\n        /* \"#utility.yul\":7717:7862   */\n      pop\n      pop\n      jump\t// out\n        /* \"#utility.yul\":7868:8111   */\n    tag_54:\n        /* \"#utility.yul\":7974:7977   */\n      0x00\n        /* \"#utility.yul\":7989:8058   */\n      tag_193\n        /* \"#utility.yul\":8054:8057   */\n      dup3\n        /* \"#utility.yul\":8045:8051   */\n      dup5\n        /* \"#utility.yul\":7989:8058   */\n      tag_92\n      jump\t// in\n    tag_193:\n        /* \"#utility.yul\":8083:8084   */\n      0x01\n        /* \"#utility.yul\":8078:8081   */\n      dup3\n        /* \"#utility.yul\":8074:8085   */\n      add\n        /* \"#utility.yul\":8067:8085   */\n      swap2\n      pop\n        /* \"#utility.yul\":8102:8105   */\n      dup2\n        /* \"#utility.yul\":8095:8105   */\n      swap1\n      pop\n        /* \"#utility.yul\":7868:8111   */\n      swap3\n      swap2\n      pop\n      pop\n      jump\t// out\n\n    auxdata: 0xa2646970667358221220317a934cdbb79dca70ffb771b378fbde98a54c5ae3f8e429aa9e903afeead8b764736f6c634300080b0033\n}\n",
				"bytecode": {
					"linkReferences": {},
					"object": "608060405234801561001057600080fd5b50610701806100206000396000f3fe6080604052600436106100555760003560e01c8063722713f71461005a5780637bd703e8146100855780638c6f2e82146100c2578063c47e739a146100ff578063e8b5e51f1461013c578063f8b2cb4f14610146575b600080fd5b34801561006657600080fd5b5061006f610183565b60405161007c91906102cb565b60405180910390f35b34801561009157600080fd5b506100ac60048036038101906100a79190610349565b61018b565b6040516100b991906102cb565b60405180910390f35b3480156100ce57600080fd5b506100e960048036038101906100e491906103ac565b61019d565b6040516100f691906103f2565b60405180910390f35b34801561010b57600080fd5b5061012660048036038101906101219190610446565b61022a565b604051610133919061050c565b60405180910390f35b610144610253565b005b34801561015257600080fd5b5061016d60048036038101906101689190610349565b61026a565b60405161017a91906102cb565b60405180910390f35b600047905090565b60006101968261026a565b9050919050565b60008042905060008060001b905060028285836040516020016101c293929190610591565b6040516020818303038152906040526040516101de919061060a565b602060405180830381855afa1580156101fb573d6000803e3d6000fd5b5050506040513d601f19601f8201168201806040525081019061021e919061064d565b92508290505050919050565b60608160405160200161023d91906106b0565b6040516020818303038152906040529050919050565b670de0b6b3a764000034101561026857600080fd5b565b60008060008373ffffffffffffffffffffffffffffffffffffffff1673ffffffffffffffffffffffffffffffffffffffff168152602001908152602001600020549050919050565b6000819050919050565b6102c5816102b2565b82525050565b60006020820190506102e060008301846102bc565b92915050565b600080fd5b600073ffffffffffffffffffffffffffffffffffffffff82169050919050565b6000610316826102eb565b9050919050565b6103268161030b565b811461033157600080fd5b50565b6000813590506103438161031d565b92915050565b60006020828403121561035f5761035e6102e6565b5b600061036d84828501610334565b91505092915050565b6000819050919050565b61038981610376565b811461039457600080fd5b50565b6000813590506103a681610380565b92915050565b6000602082840312156103c2576103c16102e6565b5b60006103d084828501610397565b91505092915050565b6000819050919050565b6103ec816103d9565b82525050565b600060208201905061040760008301846103e3565b92915050565b60008160000b9050919050565b6104238161040d565b811461042e57600080fd5b50565b6000813590506104408161041a565b92915050565b60006020828403121561045c5761045b6102e6565b5b600061046a84828501610431565b91505092915050565b600081519050919050565b600082825260208201905092915050565b60005b838110156104ad578082015181840152602081019050610492565b838111156104bc576000848401525b50505050565b6000601f19601f8301169050919050565b60006104de82610473565b6104e8818561047e565b93506104f881856020860161048f565b610501816104c2565b840191505092915050565b6000602082019050818103600083015261052681846104d3565b905092915050565b6000819050919050565b610549610544826102b2565b61052e565b82525050565b6000819050919050565b61056a61056582610376565b61054f565b82525050565b6000819050919050565b61058b610586826103d9565b610570565b82525050565b600061059d8286610538565b6020820191506105ad8285610559565b6020820191506105bd828461057a565b602082019150819050949350505050565b600081905092915050565b60006105e482610473565b6105ee81856105ce565b93506105fe81856020860161048f565b80840191505092915050565b600061061682846105d9565b915081905092915050565b61062a816103d9565b811461063557600080fd5b50565b60008151905061064781610621565b92915050565b600060208284031215610663576106626102e6565b5b600061067184828501610638565b91505092915050565b60008160f81b9050919050565b60006106928261067a565b9050919050565b6106aa6106a58261040d565b610687565b82525050565b60006106bc8284610699565b6001820191508190509291505056fea2646970667358221220317a934cdbb79dca70ffb771b378fbde98a54c5ae3f8e429aa9e903afeead8b764736f6c634300080b0033",
					"opcodes": "PUSH1 0x80 PUSH1 0x40 MSTORE CALLVALUE DUP1 ISZERO PUSH2 0x10 JUMPI PUSH1 0x0 DUP1 REVERT JUMPDEST POP PUSH2 0x701 DUP1 PUSH2 0x20 PUSH1 0x0 CODECOPY PUSH1 0x0 RETURN INVALID PUSH1 0x80 PUSH1 0x40 MSTORE PUSH1 0x4 CALLDATASIZE LT PUSH2 0x55 JUMPI PUSH1 0x0 CALLDATALOAD PUSH1 0xE0 SHR DUP1 PUSH4 0x722713F7 EQ PUSH2 0x5A JUMPI DUP1 PUSH4 0x7BD703E8 EQ PUSH2 0x85 JUMPI DUP1 PUSH4 0x8C6F2E82 EQ PUSH2 0xC2 JUMPI DUP1 PUSH4 0xC47E739A EQ PUSH2 0xFF JUMPI DUP1 PUSH4 0xE8B5E51F EQ PUSH2 0x13C JUMPI DUP1 PUSH4 0xF8B2CB4F EQ PUSH2 0x146 JUMPI JUMPDEST PUSH1 0x0 DUP1 REVERT JUMPDEST CALLVALUE DUP1 ISZERO PUSH2 0x66 JUMPI PUSH1 0x0 DUP1 REVERT JUMPDEST POP PUSH2 0x6F PUSH2 0x183 JUMP JUMPDEST PUSH1 0x40 MLOAD PUSH2 0x7C SWAP2 SWAP1 PUSH2 0x2CB JUMP JUMPDEST PUSH1 0x40 MLOAD DUP1 SWAP2 SUB SWAP1 RETURN JUMPDEST CALLVALUE DUP1 ISZERO PUSH2 0x91 JUMPI PUSH1 0x0 DUP1 REVERT JUMPDEST POP PUSH2 0xAC PUSH1 0x4 DUP1 CALLDATASIZE SUB DUP2 ADD SWAP1 PUSH2 0xA7 SWAP2 SWAP1 PUSH2 0x349 JUMP JUMPDEST PUSH2 0x18B JUMP JUMPDEST PUSH1 0x40 MLOAD PUSH2 0xB9 SWAP2 SWAP1 PUSH2 0x2CB JUMP JUMPDEST PUSH1 0x40 MLOAD DUP1 SWAP2 SUB SWAP1 RETURN JUMPDEST CALLVALUE DUP1 ISZERO PUSH2 0xCE JUMPI PUSH1 0x0 DUP1 REVERT JUMPDEST POP PUSH2 0xE9 PUSH1 0x4 DUP1 CALLDATASIZE SUB DUP2 ADD SWAP1 PUSH2 0xE4 SWAP2 SWAP1 PUSH2 0x3AC JUMP JUMPDEST PUSH2 0x19D JUMP JUMPDEST PUSH1 0x40 MLOAD PUSH2 0xF6 SWAP2 SWAP1 PUSH2 0x3F2 JUMP JUMPDEST PUSH1 0x40 MLOAD DUP1 SWAP2 SUB SWAP1 RETURN JUMPDEST CALLVALUE DUP1 ISZERO PUSH2 0x10B JUMPI PUSH1 0x0 DUP1 REVERT JUMPDEST POP PUSH2 0x126 PUSH1 0x4 DUP1 CALLDATASIZE SUB DUP2 ADD SWAP1 PUSH2 0x121 SWAP2 SWAP1 PUSH2 0x446 JUMP JUMPDEST PUSH2 0x22A JUMP JUMPDEST PUSH1 0x40 MLOAD PUSH2 0x133 SWAP2 SWAP1 PUSH2 0x50C JUMP JUMPDEST PUSH1 0x40 MLOAD DUP1 SWAP2 SUB SWAP1 RETURN JUMPDEST PUSH2 0x144 PUSH2 0x253 JUMP JUMPDEST STOP JUMPDEST CALLVALUE DUP1 ISZERO PUSH2 0x152 JUMPI PUSH1 0x0 DUP1 REVERT JUMPDEST POP PUSH2 0x16D PUSH1 0x4 DUP1 CALLDATASIZE SUB DUP2 ADD SWAP1 PUSH2 0x168 SWAP2 SWAP1 PUSH2 0x349 JUMP JUMPDEST PUSH2 0x26A JUMP JUMPDEST PUSH1 0x40 MLOAD PUSH2 0x17A SWAP2 SWAP1 PUSH2 0x2CB JUMP JUMPDEST PUSH1 0x40 MLOAD DUP1 SWAP2 SUB SWAP1 RETURN JUMPDEST PUSH1 0x0 SELFBALANCE SWAP1 POP SWAP1 JUMP JUMPDEST PUSH1 0x0 PUSH2 0x196 DUP3 PUSH2 0x26A JUMP JUMPDEST SWAP1 POP SWAP2 SWAP1 POP JUMP JUMPDEST PUSH1 0x0 DUP1 TIMESTAMP SWAP1 POP PUSH1 0x0 DUP1 PUSH1 0x0 SHL SWAP1 POP PUSH1 0x2 DUP3 DUP6 DUP4 PUSH1 0x40 MLOAD PUSH1 0x20 ADD PUSH2 0x1C2 SWAP4 SWAP3 SWAP2 SWAP1 PUSH2 0x591 JUMP JUMPDEST PUSH1 0x40 MLOAD PUSH1 0x20 DUP2 DUP4 SUB SUB DUP2 MSTORE SWAP1 PUSH1 0x40 MSTORE PUSH1 0x40 MLOAD PUSH2 0x1DE SWAP2 SWAP1 PUSH2 0x60A JUMP JUMPDEST PUSH1 0x20 PUSH1 0x40 MLOAD DUP1 DUP4 SUB DUP2 DUP6 GAS STATICCALL ISZERO DUP1 ISZERO PUSH2 0x1FB JUMPI RETURNDATASIZE PUSH1 0x0 DUP1 RETURNDATACOPY RETURNDATASIZE PUSH1 0x0 REVERT JUMPDEST POP POP POP PUSH1 0x40 MLOAD RETURNDATASIZE PUSH1 0x1F NOT PUSH1 0x1F DUP3 ADD AND DUP3 ADD DUP1 PUSH1 0x40 MSTORE POP DUP2 ADD SWAP1 PUSH2 0x21E SWAP2 SWAP1 PUSH2 0x64D JUMP JUMPDEST SWAP3 POP DUP3 SWAP1 POP POP POP SWAP2 SWAP1 POP JUMP JUMPDEST PUSH1 0x60 DUP2 PUSH1 0x40 MLOAD PUSH1 0x20 ADD PUSH2 0x23D SWAP2 SWAP1 PUSH2 0x6B0 JUMP JUMPDEST PUSH1 0x40 MLOAD PUSH1 0x20 DUP2 DUP4 SUB SUB DUP2 MSTORE SWAP1 PUSH1 0x40 MSTORE SWAP1 POP SWAP2 SWAP1 POP JUMP JUMPDEST PUSH8 0xDE0B6B3A7640000 CALLVALUE LT ISZERO PUSH2 0x268 JUMPI PUSH1 0x0 DUP1 REVERT JUMPDEST JUMP JUMPDEST PUSH1 0x0 DUP1 PUSH1 0x0 DUP4 PUSH20 0xFFFFFFFFFFFFFFFFFFFFFFFFFFFFFFFFFFFFFFFF AND PUSH20 0xFFFFFFFFFFFFFFFFFFFFFFFFFFFFFFFFFFFFFFFF AND DUP2 MSTORE PUSH1 0x20 ADD SWAP1 DUP2 MSTORE PUSH1 0x20 ADD PUSH1 0x0 KECCAK256 SLOAD SWAP1 POP SWAP2 SWAP1 POP JUMP JUMPDEST PUSH1 0x0 DUP2 SWAP1 POP SWAP2 SWAP1 POP JUMP JUMPDEST PUSH2 0x2C5 DUP2 PUSH2 0x2B2 JUMP JUMPDEST DUP3 MSTORE POP POP JUMP JUMPDEST PUSH1 0x0 PUSH1 0x20 DUP3 ADD SWAP1 POP PUSH2 0x2E0 PUSH1 0x0 DUP4 ADD DUP5 PUSH2 0x2BC JUMP JUMPDEST SWAP3 SWAP2 POP POP JUMP JUMPDEST PUSH1 0x0 DUP1 REVERT JUMPDEST PUSH1 0x0 PUSH20 0xFFFFFFFFFFFFFFFFFFFFFFFFFFFFFFFFFFFFFFFF DUP3 AND SWAP1 POP SWAP2 SWAP1 POP JUMP JUMPDEST PUSH1 0x0 PUSH2 0x316 DUP3 PUSH2 0x2EB JUMP JUMPDEST SWAP1 POP SWAP2 SWAP1 POP JUMP JUMPDEST PUSH2 0x326 DUP2 PUSH2 0x30B JUMP JUMPDEST DUP2 EQ PUSH2 0x331 JUMPI PUSH1 0x0 DUP1 REVERT JUMPDEST POP JUMP JUMPDEST PUSH1 0x0 DUP2 CALLDATALOAD SWAP1 POP PUSH2 0x343 DUP2 PUSH2 0x31D JUMP JUMPDEST SWAP3 SWAP2 POP POP JUMP JUMPDEST PUSH1 0x0 PUSH1 0x20 DUP3 DUP5 SUB SLT ISZERO PUSH2 0x35F JUMPI PUSH2 0x35E PUSH2 0x2E6 JUMP JUMPDEST JUMPDEST PUSH1 0x0 PUSH2 0x36D DUP5 DUP3 DUP6 ADD PUSH2 0x334 JUMP JUMPDEST SWAP2 POP POP SWAP3 SWAP2 POP POP JUMP JUMPDEST PUSH1 0x0 DUP2 SWAP1 POP SWAP2 SWAP1 POP JUMP JUMPDEST PUSH2 0x389 DUP2 PUSH2 0x376 JUMP JUMPDEST DUP2 EQ PUSH2 0x394 JUMPI PUSH1 0x0 DUP1 REVERT JUMPDEST POP JUMP JUMPDEST PUSH1 0x0 DUP2 CALLDATALOAD SWAP1 POP PUSH2 0x3A6 DUP2 PUSH2 0x380 JUMP JUMPDEST SWAP3 SWAP2 POP POP JUMP JUMPDEST PUSH1 0x0 PUSH1 0x20 DUP3 DUP5 SUB SLT ISZERO PUSH2 0x3C2 JUMPI PUSH2 0x3C1 PUSH2 0x2E6 JUMP JUMPDEST JUMPDEST PUSH1 0x0 PUSH2 0x3D0 DUP5 DUP3 DUP6 ADD PUSH2 0x397 JUMP JUMPDEST SWAP2 POP POP SWAP3 SWAP2 POP POP JUMP JUMPDEST PUSH1 0x0 DUP2 SWAP1 POP SWAP2 SWAP1 POP JUMP JUMPDEST PUSH2 0x3EC DUP2 PUSH2 0x3D9 JUMP JUMPDEST DUP3 MSTORE POP POP JUMP JUMPDEST PUSH1 0x0 PUSH1 0x20 DUP3 ADD SWAP1 POP PUSH2 0x407 PUSH1 0x0 DUP4 ADD DUP5 PUSH2 0x3E3 JUMP JUMPDEST SWAP3 SWAP2 POP POP JUMP JUMPDEST PUSH1 0x0 DUP2 PUSH1 0x0 SIGNEXTEND SWAP1 POP SWAP2 SWAP1 POP JUMP JUMPDEST PUSH2 0x423 DUP2 PUSH2 0x40D JUMP JUMPDEST DUP2 EQ PUSH2 0x42E JUMPI PUSH1 0x0 DUP1 REVERT JUMPDEST POP JUMP JUMPDEST PUSH1 0x0 DUP2 CALLDATALOAD SWAP1 POP PUSH2 0x440 DUP2 PUSH2 0x41A JUMP JUMPDEST SWAP3 SWAP2 POP POP JUMP JUMPDEST PUSH1 0x0 PUSH1 0x20 DUP3 DUP5 SUB SLT ISZERO PUSH2 0x45C JUMPI PUSH2 0x45B PUSH2 0x2E6 JUMP JUMPDEST JUMPDEST PUSH1 0x0 PUSH2 0x46A DUP5 DUP3 DUP6 ADD PUSH2 0x431 JUMP JUMPDEST SWAP2 POP POP SWAP3 SWAP2 POP POP JUMP JUMPDEST PUSH1 0x0 DUP2 MLOAD SWAP1 POP SWAP2 SWAP1 POP JUMP JUMPDEST PUSH1 0x0 DUP3 DUP3 MSTORE PUSH1 0x20 DUP3 ADD SWAP1 POP SWAP3 SWAP2 POP POP JUMP JUMPDEST PUSH1 0x0 JUMPDEST DUP4 DUP2 LT ISZERO PUSH2 0x4AD JUMPI DUP1 DUP3 ADD MLOAD DUP2 DUP5 ADD MSTORE PUSH1 0x20 DUP2 ADD SWAP1 POP PUSH2 0x492 JUMP JUMPDEST DUP4 DUP2 GT ISZERO PUSH2 0x4BC JUMPI PUSH1 0x0 DUP5 DUP5 ADD MSTORE JUMPDEST POP POP POP POP JUMP JUMPDEST PUSH1 0x0 PUSH1 0x1F NOT PUSH1 0x1F DUP4 ADD AND SWAP1 POP SWAP2 SWAP1 POP JUMP JUMPDEST PUSH1 0x0 PUSH2 0x4DE DUP3 PUSH2 0x473 JUMP JUMPDEST PUSH2 0x4E8 DUP2 DUP6 PUSH2 0x47E JUMP JUMPDEST SWAP4 POP PUSH2 0x4F8 DUP2 DUP6 PUSH1 0x20 DUP7 ADD PUSH2 0x48F JUMP JUMPDEST PUSH2 0x501 DUP2 PUSH2 0x4C2 JUMP JUMPDEST DUP5 ADD SWAP2 POP POP SWAP3 SWAP2 POP POP JUMP JUMPDEST PUSH1 0x0 PUSH1 0x20 DUP3 ADD SWAP1 POP DUP2 DUP2 SUB PUSH1 0x0 DUP4 ADD MSTORE PUSH2 0x526 DUP2 DUP5 PUSH2 0x4D3 JUMP JUMPDEST SWAP1 POP SWAP3 SWAP2 POP POP JUMP JUMPDEST PUSH1 0x0 DUP2 SWAP1 POP SWAP2 SWAP1 POP JUMP JUMPDEST PUSH2 0x549 PUSH2 0x544 DUP3 PUSH2 0x2B2 JUMP JUMPDEST PUSH2 0x52E JUMP JUMPDEST DUP3 MSTORE POP POP JUMP JUMPDEST PUSH1 0x0 DUP2 SWAP1 POP SWAP2 SWAP1 POP JUMP JUMPDEST PUSH2 0x56A PUSH2 0x565 DUP3 PUSH2 0x376 JUMP JUMPDEST PUSH2 0x54F JUMP JUMPDEST DUP3 MSTORE POP POP JUMP JUMPDEST PUSH1 0x0 DUP2 SWAP1 POP SWAP2 SWAP1 POP JUMP JUMPDEST PUSH2 0x58B PUSH2 0x586 DUP3 PUSH2 0x3D9 JUMP JUMPDEST PUSH2 0x570 JUMP JUMPDEST DUP3 MSTORE POP POP JUMP JUMPDEST PUSH1 0x0 PUSH2 0x59D DUP3 DUP7 PUSH2 0x538 JUMP JUMPDEST PUSH1 0x20 DUP3 ADD SWAP2 POP PUSH2 0x5AD DUP3 DUP6 PUSH2 0x559 JUMP JUMPDEST PUSH1 0x20 DUP3 ADD SWAP2 POP PUSH2 0x5BD DUP3 DUP5 PUSH2 0x57A JUMP JUMPDEST PUSH1 0x20 DUP3 ADD SWAP2 POP DUP2 SWAP1 POP SWAP5 SWAP4 POP POP POP POP JUMP JUMPDEST PUSH1 0x0 DUP2 SWAP1 POP SWAP3 SWAP2 POP POP JUMP JUMPDEST PUSH1 0x0 PUSH2 0x5E4 DUP3 PUSH2 0x473 JUMP JUMPDEST PUSH2 0x5EE DUP2 DUP6 PUSH2 0x5CE JUMP JUMPDEST SWAP4 POP PUSH2 0x5FE DUP2 DUP6 PUSH1 0x20 DUP7 ADD PUSH2 0x48F JUMP JUMPDEST DUP1 DUP5 ADD SWAP2 POP POP SWAP3 SWAP2 POP POP JUMP JUMPDEST PUSH1 0x0 PUSH2 0x616 DUP3 DUP5 PUSH2 0x5D9 JUMP JUMPDEST SWAP2 POP DUP2 SWAP1 POP SWAP3 SWAP2 POP POP JUMP JUMPDEST PUSH2 0x62A DUP2 PUSH2 0x3D9 JUMP JUMPDEST DUP2 EQ PUSH2 0x635 JUMPI PUSH1 0x0 DUP1 REVERT JUMPDEST POP JUMP JUMPDEST PUSH1 0x0 DUP2 MLOAD SWAP1 POP PUSH2 0x647 DUP2 PUSH2 0x621 JUMP JUMPDEST SWAP3 SWAP2 POP POP JUMP JUMPDEST PUSH1 0x0 PUSH1 0x20 DUP3 DUP5 SUB SLT ISZERO PUSH2 0x663 JUMPI PUSH2 0x662 PUSH2 0x2E6 JUMP JUMPDEST JUMPDEST PUSH1 0x0 PUSH2 0x671 DUP5 DUP3 DUP6 ADD PUSH2 0x638 JUMP JUMPDEST SWAP2 POP POP SWAP3 SWAP2 POP POP JUMP JUMPDEST PUSH1 0x0 DUP2 PUSH1 0xF8 SHL SWAP1 POP SWAP2 SWAP1 POP JUMP JUMPDEST PUSH1 0x0 PUSH2 0x692 DUP3 PUSH2 0x67A JUMP JUMPDEST SWAP1 POP SWAP2 SWAP1 POP JUMP JUMPDEST PUSH2 0x6AA PUSH2 0x6A5 DUP3 PUSH2 0x40D JUMP JUMPDEST PUSH2 0x687 JUMP JUMPDEST DUP3 MSTORE POP POP JUMP JUMPDEST PUSH1 0x0 PUSH2 0x6BC DUP3 DUP5 PUSH2 0x699 JUMP JUMPDEST PUSH1 0x1 DUP3 ADD SWAP2 POP DUP2 SWAP1 POP SWAP3 SWAP2 POP POP JUMP INVALID LOG2 PUSH5 0x6970667358 0x22 SLT KECCAK256 BALANCE PUSH27 0x934CDBB79DCA70FFB771B378FBDE98A54C5AE3F8E429AA9E903AFE 0xEA 0xD8 0xB7 PUSH5 0x736F6C6343 STOP ADDMOD SIGNEXTEND STOP CALLER "
				},
				"gasEstimates": {
					"creation": {
						"codeDepositCost": "358600",
						"executionCost": "399",
						"totalCost": "358999"
					},
					"external": {
						"Block(int256)": "infinite",
						"balanceOf()": "317",
						"encodeInt8(int8)": "infinite",
						"getBalance(address)": "2929",
						"getBalanceInEth(address)": "2884",
						"invest()": "211"
					}
				},
				"methodIdentifiers": {
					"Block(int256)": "8c6f2e82",
					"balanceOf()": "722713f7",
					"encodeInt8(int8)": "c47e739a",
					"getBalance(address)": "f8b2cb4f",
					"getBalanceInEth(address)": "7bd703e8",
					"invest()": "e8b5e51f"
				}
			},
			"storageLayout": {
				"storage": [
					{
						"astId": 5,
						"contract": "contracts/transact.sol:transact",
						"label": "balances",
						"offset": 0,
						"slot": "0",
						"type": "t_mapping(t_address,t_uint256)"
					}
				],
				"types": {
					"t_address": {
						"encoding": "inplace",
						"label": "address",
						"numberOfBytes": "20"
					},
					"t_mapping(t_address,t_uint256)": {
						"encoding": "mapping",
						"key": "t_address",
						"label": "mapping(address => uint256)",
						"numberOfBytes": "32",
						"value": "t_uint256"
					},
					"t_uint256": {
						"encoding": "inplace",
						"label": "uint256",
						"numberOfBytes": "32"
					}
				}
			},
			"userdoc": {
				"kind": "user",
				"methods": {},
				"version": 1
			}
		}
	}
}