{
	".deps/github/pipermerriam/ethereum-datetime/contracts/DateTime.sol": {
		"DateTime": {
			"abi": [
				{
					"constant": true,
					"inputs": [
						{
							"name": "timestamp",
							"type": "uint256"
						}
					],
					"name": "getHour",
					"outputs": [
						{
							"name": "",
							"type": "uint8"
						}
					],
					"payable": false,
					"stateMutability": "view",
					"type": "function"
				},
				{
					"constant": true,
					"inputs": [
						{
							"name": "timestamp",
							"type": "uint256"
						}
					],
					"name": "getWeekday",
					"outputs": [
						{
							"name": "",
							"type": "uint8"
						}
					],
					"payable": false,
					"stateMutability": "view",
					"type": "function"
				},
				{
					"constant": true,
					"inputs": [
						{
							"name": "year",
							"type": "uint16"
						},
						{
							"name": "month",
							"type": "uint8"
						},
						{
							"name": "day",
							"type": "uint8"
						},
						{
							"name": "hour",
							"type": "uint8"
						},
						{
							"name": "minute",
							"type": "uint8"
						}
					],
					"name": "toTimestamp",
					"outputs": [
						{
							"name": "timestamp",
							"type": "uint256"
						}
					],
					"payable": false,
					"stateMutability": "view",
					"type": "function"
				},
				{
					"constant": true,
					"inputs": [
						{
							"name": "timestamp",
							"type": "uint256"
						}
					],
					"name": "getDay",
					"outputs": [
						{
							"name": "",
							"type": "uint8"
						}
					],
					"payable": false,
					"stateMutability": "view",
					"type": "function"
				},
				{
					"constant": true,
					"inputs": [
						{
							"name": "year",
							"type": "uint16"
						},
						{
							"name": "month",
							"type": "uint8"
						},
						{
							"name": "day",
							"type": "uint8"
						},
						{
							"name": "hour",
							"type": "uint8"
						}
					],
					"name": "toTimestamp",
					"outputs": [
						{
							"name": "timestamp",
							"type": "uint256"
						}
					],
					"payable": false,
					"stateMutability": "view",
					"type": "function"
				},
				{
					"constant": true,
					"inputs": [
						{
							"name": "timestamp",
							"type": "uint256"
						}
					],
					"name": "getSecond",
					"outputs": [
						{
							"name": "",
							"type": "uint8"
						}
					],
					"payable": false,
					"stateMutability": "view",
					"type": "function"
				},
				{
					"constant": true,
					"inputs": [
						{
							"name": "year",
							"type": "uint16"
						},
						{
							"name": "month",
							"type": "uint8"
						},
						{
							"name": "day",
							"type": "uint8"
						}
					],
					"name": "toTimestamp",
					"outputs": [
						{
							"name": "timestamp",
							"type": "uint256"
						}
					],
					"payable": false,
					"stateMutability": "view",
					"type": "function"
				},
				{
					"constant": true,
					"inputs": [
						{
							"name": "year",
							"type": "uint16"
						},
						{
							"name": "month",
							"type": "uint8"
						},
						{
							"name": "day",
							"type": "uint8"
						},
						{
							"name": "hour",
							"type": "uint8"
						},
						{
							"name": "minute",
							"type": "uint8"
						},
						{
							"name": "second",
							"type": "uint8"
						}
					],
					"name": "toTimestamp",
					"outputs": [
						{
							"name": "timestamp",
							"type": "uint256"
						}
					],
					"payable": false,
					"stateMutability": "view",
					"type": "function"
				},
				{
					"constant": true,
					"inputs": [
						{
							"name": "timestamp",
							"type": "uint256"
						}
					],
					"name": "getYear",
					"outputs": [
						{
							"name": "",
							"type": "uint16"
						}
					],
					"payable": false,
					"stateMutability": "view",
					"type": "function"
				},
				{
					"constant": true,
					"inputs": [
						{
							"name": "timestamp",
							"type": "uint256"
						}
					],
					"name": "getMonth",
					"outputs": [
						{
							"name": "",
							"type": "uint8"
						}
					],
					"payable": false,
					"stateMutability": "view",
					"type": "function"
				},
				{
					"constant": true,
					"inputs": [
						{
							"name": "year",
							"type": "uint16"
						}
					],
					"name": "isLeapYear",
					"outputs": [
						{
							"name": "",
							"type": "bool"
						}
					],
					"payable": false,
					"stateMutability": "view",
					"type": "function"
				},
				{
					"constant": true,
					"inputs": [
						{
							"name": "year",
							"type": "uint256"
						}
					],
					"name": "leapYearsBefore",
					"outputs": [
						{
							"name": "",
							"type": "uint256"
						}
					],
					"payable": false,
					"stateMutability": "view",
					"type": "function"
				},
				{
					"constant": true,
					"inputs": [
						{
							"name": "month",
							"type": "uint8"
						},
						{
							"name": "year",
							"type": "uint16"
						}
					],
					"name": "getDaysInMonth",
					"outputs": [
						{
							"name": "",
							"type": "uint8"
						}
					],
					"payable": false,
					"stateMutability": "view",
					"type": "function"
				},
				{
					"constant": true,
					"inputs": [
						{
							"name": "timestamp",
							"type": "uint256"
						}
					],
					"name": "getMinute",
					"outputs": [
						{
							"name": "",
							"type": "uint8"
						}
					],
					"payable": false,
					"stateMutability": "view",
					"type": "function"
				}
			],
			"devdoc": {
				"methods": {}
			},
			"evm": {
				"assembly": "    /* \".deps/github/pipermerriam/ethereum-datetime/contracts/DateTime.sol\":26:7597  contract DateTime {... */\n  mstore(0x40, 0x80)\n  callvalue\n    /* \"--CODEGEN--\":8:17   */\n  dup1\n    /* \"--CODEGEN--\":5:7   */\n  iszero\n  tag_1\n  jumpi\n    /* \"--CODEGEN--\":30:31   */\n  0x0\n    /* \"--CODEGEN--\":27:28   */\n  dup1\n    /* \"--CODEGEN--\":20:32   */\n  revert\n    /* \"--CODEGEN--\":5:7   */\ntag_1:\n    /* \".deps/github/pipermerriam/ethereum-datetime/contracts/DateTime.sol\":26:7597  contract DateTime {... */\n  pop\n  dataSize(sub_0)\n  dup1\n  dataOffset(sub_0)\n  0x0\n  codecopy\n  0x0\n  return\nstop\n\nsub_0: assembly {\n        /* \".deps/github/pipermerriam/ethereum-datetime/contracts/DateTime.sol\":26:7597  contract DateTime {... */\n      mstore(0x40, 0x80)\n      jumpi(tag_1, lt(calldatasize, 0x4))\n      calldataload(0x0)\n      0x100000000000000000000000000000000000000000000000000000000\n      swap1\n      div\n      0xffffffff\n      and\n      dup1\n      0x3e239e1a\n      eq\n      tag_2\n      jumpi\n      dup1\n      0x4ac1ad78\n      eq\n      tag_3\n      jumpi\n      dup1\n      0x62ba9687\n      eq\n      tag_4\n      jumpi\n      dup1\n      0x65c72840\n      eq\n      tag_5\n      jumpi\n      dup1\n      0x7f791833\n      eq\n      tag_6\n      jumpi\n      dup1\n      0x8aa001fc\n      eq\n      tag_7\n      jumpi\n      dup1\n      0x8c8d98a0\n      eq\n      tag_8\n      jumpi\n      dup1\n      0x9054bdec\n      eq\n      tag_9\n      jumpi\n      dup1\n      0x92d66313\n      eq\n      tag_10\n      jumpi\n      dup1\n      0xa324ad24\n      eq\n      tag_11\n      jumpi\n      dup1\n      0xa6f0e577\n      eq\n      tag_12\n      jumpi\n      dup1\n      0xb1999937\n      eq\n      tag_13\n      jumpi\n      dup1\n      0xb238ad0e\n      eq\n      tag_14\n      jumpi\n      dup1\n      0xfa93f883\n      eq\n      tag_15\n      jumpi\n    tag_1:\n      0x0\n      dup1\n      revert\n        /* \".deps/github/pipermerriam/ethereum-datetime/contracts/DateTime.sol\":4722:4852  function getHour(uint timestamp) public pure returns (uint8) {... */\n    tag_2:\n      callvalue\n        /* \"--CODEGEN--\":8:17   */\n      dup1\n        /* \"--CODEGEN--\":5:7   */\n      iszero\n      tag_16\n      jumpi\n        /* \"--CODEGEN--\":30:31   */\n      0x0\n        /* \"--CODEGEN--\":27:28   */\n      dup1\n        /* \"--CODEGEN--\":20:32   */\n      revert\n        /* \"--CODEGEN--\":5:7   */\n    tag_16:\n        /* \".deps/github/pipermerriam/ethereum-datetime/contracts/DateTime.sol\":4722:4852  function getHour(uint timestamp) public pure returns (uint8) {... */\n      pop\n      tag_17\n      0x4\n      dup1\n      calldatasize\n      sub\n      dup2\n      add\n      swap1\n      dup1\n      dup1\n      calldataload\n      swap1\n      0x20\n      add\n      swap1\n      swap3\n      swap2\n      swap1\n      pop\n      pop\n      pop\n      jump(tag_18)\n    tag_17:\n      mload(0x40)\n      dup1\n      dup3\n      0xff\n      and\n      0xff\n      and\n      dup2\n      mstore\n      0x20\n      add\n      swap2\n      pop\n      pop\n      mload(0x40)\n      dup1\n      swap2\n      sub\n      swap1\n      return\n        /* \".deps/github/pipermerriam/ethereum-datetime/contracts/DateTime.sol\":5129:5272  function getWeekday(uint timestamp) public pure returns (uint8) {... */\n    tag_3:\n      callvalue\n        /* \"--CODEGEN--\":8:17   */\n      dup1\n        /* \"--CODEGEN--\":5:7   */\n      iszero\n      tag_19\n      jumpi\n        /* \"--CODEGEN--\":30:31   */\n      0x0\n        /* \"--CODEGEN--\":27:28   */\n      dup1\n        /* \"--CODEGEN--\":20:32   */\n      revert\n        /* \"--CODEGEN--\":5:7   */\n    tag_19:\n        /* \".deps/github/pipermerriam/ethereum-datetime/contracts/DateTime.sol\":5129:5272  function getWeekday(uint timestamp) public pure returns (uint8) {... */\n      pop\n      tag_20\n      0x4\n      dup1\n      calldatasize\n      sub\n      dup2\n      add\n      swap1\n      dup1\n      dup1\n      calldataload\n      swap1\n      0x20\n      add\n      swap1\n      swap3\n      swap2\n      swap1\n      pop\n      pop\n      pop\n      jump(tag_21)\n    tag_20:\n      mload(0x40)\n      dup1\n      dup3\n      0xff\n      and\n      0xff\n      and\n      dup2\n      mstore\n      0x20\n      add\n      swap2\n      pop\n      pop\n      mload(0x40)\n      dup1\n      swap2\n      sub\n      swap1\n      return\n        /* \".deps/github/pipermerriam/ethereum-datetime/contracts/DateTime.sol\":5655:5858  function toTimestamp(uint16 year, uint8 month, uint8 day, uint8 hour, uint8 minute) public pure returns (uint timestamp) {... */\n    tag_4:\n      callvalue\n        /* \"--CODEGEN--\":8:17   */\n      dup1\n        /* \"--CODEGEN--\":5:7   */\n      iszero\n      tag_22\n      jumpi\n        /* \"--CODEGEN--\":30:31   */\n      0x0\n        /* \"--CODEGEN--\":27:28   */\n      dup1\n        /* \"--CODEGEN--\":20:32   */\n      revert\n        /* \"--CODEGEN--\":5:7   */\n    tag_22:\n        /* \".deps/github/pipermerriam/ethereum-datetime/contracts/DateTime.sol\":5655:5858  function toTimestamp(uint16 year, uint8 month, uint8 day, uint8 hour, uint8 minute) public pure returns (uint timestamp) {... */\n      pop\n      tag_23\n      0x4\n      dup1\n      calldatasize\n      sub\n      dup2\n      add\n      swap1\n      dup1\n      dup1\n      calldataload\n      0xffff\n      and\n      swap1\n      0x20\n      add\n      swap1\n      swap3\n      swap2\n      swap1\n      dup1\n      calldataload\n      0xff\n      and\n      swap1\n      0x20\n      add\n      swap1\n      swap3\n      swap2\n      swap1\n      dup1\n      calldataload\n      0xff\n      and\n      swap1\n      0x20\n      add\n      swap1\n      swap3\n      swap2\n      swap1\n      dup1\n      calldataload\n      0xff\n      and\n      swap1\n      0x20\n      add\n      swap1\n      swap3\n      swap2\n      swap1\n      dup1\n      calldataload\n      0xff\n      and\n      swap1\n      0x20\n      add\n      swap1\n      swap3\n      swap2\n      swap1\n      pop\n      pop\n      pop\n      jump(tag_24)\n    tag_23:\n      mload(0x40)\n      dup1\n      dup3\n      dup2\n      mstore\n      0x20\n      add\n      swap2\n      pop\n      pop\n      mload(0x40)\n      dup1\n      swap2\n      sub\n      swap1\n      return\n        /* \".deps/github/pipermerriam/ethereum-datetime/contracts/DateTime.sol\":4587:4712  function getDay(uint timestamp) public pure returns (uint8) {... */\n    tag_5:\n      callvalue\n        /* \"--CODEGEN--\":8:17   */\n      dup1\n        /* \"--CODEGEN--\":5:7   */\n      iszero\n      tag_25\n      jumpi\n        /* \"--CODEGEN--\":30:31   */\n      0x0\n        /* \"--CODEGEN--\":27:28   */\n      dup1\n        /* \"--CODEGEN--\":20:32   */\n      revert\n        /* \"--CODEGEN--\":5:7   */\n    tag_25:\n        /* \".deps/github/pipermerriam/ethereum-datetime/contracts/DateTime.sol\":4587:4712  function getDay(uint timestamp) public pure returns (uint8) {... */\n      pop\n      tag_26\n      0x4\n      dup1\n      calldatasize\n      sub\n      dup2\n      add\n      swap1\n      dup1\n      dup1\n      calldataload\n      swap1\n      0x20\n      add\n      swap1\n      swap3\n      swap2\n      swap1\n      pop\n      pop\n      pop\n      jump(tag_27)\n    tag_26:\n      mload(0x40)\n      dup1\n      dup3\n      0xff\n      and\n      0xff\n      and\n      dup2\n      mstore\n      0x20\n      add\n      swap2\n      pop\n      pop\n      mload(0x40)\n      dup1\n      swap2\n      sub\n      swap1\n      return\n        /* \".deps/github/pipermerriam/ethereum-datetime/contracts/DateTime.sol\":5461:5645  function toTimestamp(uint16 year, uint8 month, uint8 day, uint8 hour) public pure returns (uint timestamp) {... */\n    tag_6:\n      callvalue\n        /* \"--CODEGEN--\":8:17   */\n      dup1\n        /* \"--CODEGEN--\":5:7   */\n      iszero\n      tag_28\n      jumpi\n        /* \"--CODEGEN--\":30:31   */\n      0x0\n        /* \"--CODEGEN--\":27:28   */\n      dup1\n        /* \"--CODEGEN--\":20:32   */\n      revert\n        /* \"--CODEGEN--\":5:7   */\n    tag_28:\n        /* \".deps/github/pipermerriam/ethereum-datetime/contracts/DateTime.sol\":5461:5645  function toTimestamp(uint16 year, uint8 month, uint8 day, uint8 hour) public pure returns (uint timestamp) {... */\n      pop\n      tag_29\n      0x4\n      dup1\n      calldatasize\n      sub\n      dup2\n      add\n      swap1\n      dup1\n      dup1\n      calldataload\n      0xffff\n      and\n      swap1\n      0x20\n      add\n      swap1\n      swap3\n      swap2\n      swap1\n      dup1\n      calldataload\n      0xff\n      and\n      swap1\n      0x20\n      add\n      swap1\n      swap3\n      swap2\n      swap1\n      dup1\n      calldataload\n      0xff\n      and\n      swap1\n      0x20\n      add\n      swap1\n      swap3\n      swap2\n      swap1\n      dup1\n      calldataload\n      0xff\n      and\n      swap1\n      0x20\n      add\n      swap1\n      swap3\n      swap2\n      swap1\n      pop\n      pop\n      pop\n      jump(tag_30)\n    tag_29:\n      mload(0x40)\n      dup1\n      dup3\n      dup2\n      mstore\n      0x20\n      add\n      swap2\n      pop\n      pop\n      mload(0x40)\n      dup1\n      swap2\n      sub\n      swap1\n      return\n        /* \".deps/github/pipermerriam/ethereum-datetime/contracts/DateTime.sol\":4999:5119  function getSecond(uint timestamp) public pure returns (uint8) {... */\n    tag_7:\n      callvalue\n        /* \"--CODEGEN--\":8:17   */\n      dup1\n        /* \"--CODEGEN--\":5:7   */\n      iszero\n      tag_31\n      jumpi\n        /* \"--CODEGEN--\":30:31   */\n      0x0\n        /* \"--CODEGEN--\":27:28   */\n      dup1\n        /* \"--CODEGEN--\":20:32   */\n      revert\n        /* \"--CODEGEN--\":5:7   */\n    tag_31:\n        /* \".deps/github/pipermerriam/ethereum-datetime/contracts/DateTime.sol\":4999:5119  function getSecond(uint timestamp) public pure returns (uint8) {... */\n      pop\n      tag_32\n      0x4\n      dup1\n      calldatasize\n      sub\n      dup2\n      add\n      swap1\n      dup1\n      dup1\n      calldataload\n      swap1\n      0x20\n      add\n      swap1\n      swap3\n      swap2\n      swap1\n      pop\n      pop\n      pop\n      jump(tag_33)\n    tag_32:\n      mload(0x40)\n      dup1\n      dup3\n      0xff\n      and\n      0xff\n      and\n      dup2\n      mstore\n      0x20\n      add\n      swap2\n      pop\n      pop\n      mload(0x40)\n      dup1\n      swap2\n      sub\n      swap1\n      return\n        /* \".deps/github/pipermerriam/ethereum-datetime/contracts/DateTime.sol\":5282:5451  function toTimestamp(uint16 year, uint8 month, uint8 day) public pure returns (uint timestamp) {... */\n    tag_8:\n      callvalue\n        /* \"--CODEGEN--\":8:17   */\n      dup1\n        /* \"--CODEGEN--\":5:7   */\n      iszero\n      tag_34\n      jumpi\n        /* \"--CODEGEN--\":30:31   */\n      0x0\n        /* \"--CODEGEN--\":27:28   */\n      dup1\n        /* \"--CODEGEN--\":20:32   */\n      revert\n        /* \"--CODEGEN--\":5:7   */\n    tag_34:\n        /* \".deps/github/pipermerriam/ethereum-datetime/contracts/DateTime.sol\":5282:5451  function toTimestamp(uint16 year, uint8 month, uint8 day) public pure returns (uint timestamp) {... */\n      pop\n      tag_35\n      0x4\n      dup1\n      calldatasize\n      sub\n      dup2\n      add\n      swap1\n      dup1\n      dup1\n      calldataload\n      0xffff\n      and\n      swap1\n      0x20\n      add\n      swap1\n      swap3\n      swap2\n      swap1\n      dup1\n      calldataload\n      0xff\n      and\n      swap1\n      0x20\n      add\n      swap1\n      swap3\n      swap2\n      swap1\n      dup1\n      calldataload\n      0xff\n      and\n      swap1\n      0x20\n      add\n      swap1\n      swap3\n      swap2\n      swap1\n      pop\n      pop\n      pop\n      jump(tag_36)\n    tag_35:\n      mload(0x40)\n      dup1\n      dup3\n      dup2\n      mstore\n      0x20\n      add\n      swap2\n      pop\n      pop\n      mload(0x40)\n      dup1\n      swap2\n      sub\n      swap1\n      return\n        /* \".deps/github/pipermerriam/ethereum-datetime/contracts/DateTime.sol\":5868:7595  function toTimestamp(uint16 year, uint8 month, uint8 day, uint8 hour, uint8 minute, uint8 second) public pure returns (uint timestamp) {... */\n    tag_9:\n      callvalue\n        /* \"--CODEGEN--\":8:17   */\n      dup1\n        /* \"--CODEGEN--\":5:7   */\n      iszero\n      tag_37\n      jumpi\n        /* \"--CODEGEN--\":30:31   */\n      0x0\n        /* \"--CODEGEN--\":27:28   */\n      dup1\n        /* \"--CODEGEN--\":20:32   */\n      revert\n        /* \"--CODEGEN--\":5:7   */\n    tag_37:\n        /* \".deps/github/pipermerriam/ethereum-datetime/contracts/DateTime.sol\":5868:7595  function toTimestamp(uint16 year, uint8 month, uint8 day, uint8 hour, uint8 minute, uint8 second) public pure returns (uint timestamp) {... */\n      pop\n      tag_38\n      0x4\n      dup1\n      calldatasize\n      sub\n      dup2\n      add\n      swap1\n      dup1\n      dup1\n      calldataload\n      0xffff\n      and\n      swap1\n      0x20\n      add\n      swap1\n      swap3\n      swap2\n      swap1\n      dup1\n      calldataload\n      0xff\n      and\n      swap1\n      0x20\n      add\n      swap1\n      swap3\n      swap2\n      swap1\n      dup1\n      calldataload\n      0xff\n      and\n      swap1\n      0x20\n      add\n      swap1\n      swap3\n      swap2\n      swap1\n      dup1\n      calldataload\n      0xff\n      and\n      swap1\n      0x20\n      add\n      swap1\n      swap3\n      swap2\n      swap1\n      dup1\n      calldataload\n      0xff\n      and\n      swap1\n      0x20\n      add\n      swap1\n      swap3\n      swap2\n      swap1\n      dup1\n      calldataload\n      0xff\n      and\n      swap1\n      0x20\n      add\n      swap1\n      swap3\n      swap2\n      swap1\n      pop\n      pop\n      pop\n      jump(tag_39)\n    tag_38:\n      mload(0x40)\n      dup1\n      dup3\n      dup2\n      mstore\n      0x20\n      add\n      swap2\n      pop\n      pop\n      mload(0x40)\n      dup1\n      swap2\n      sub\n      swap1\n      return\n        /* \".deps/github/pipermerriam/ethereum-datetime/contracts/DateTime.sol\":3467:4438  function getYear(uint timestamp) public pure returns (uint16) {... */\n    tag_10:\n      callvalue\n        /* \"--CODEGEN--\":8:17   */\n      dup1\n        /* \"--CODEGEN--\":5:7   */\n      iszero\n      tag_40\n      jumpi\n        /* \"--CODEGEN--\":30:31   */\n      0x0\n        /* \"--CODEGEN--\":27:28   */\n      dup1\n        /* \"--CODEGEN--\":20:32   */\n      revert\n        /* \"--CODEGEN--\":5:7   */\n    tag_40:\n        /* \".deps/github/pipermerriam/ethereum-datetime/contracts/DateTime.sol\":3467:4438  function getYear(uint timestamp) public pure returns (uint16) {... */\n      pop\n      tag_41\n      0x4\n      dup1\n      calldatasize\n      sub\n      dup2\n      add\n      swap1\n      dup1\n      dup1\n      calldataload\n      swap1\n      0x20\n      add\n      swap1\n      swap3\n      swap2\n      swap1\n      pop\n      pop\n      pop\n      jump(tag_42)\n    tag_41:\n      mload(0x40)\n      dup1\n      dup3\n      0xffff\n      and\n      0xffff\n      and\n      dup2\n      mstore\n      0x20\n      add\n      swap2\n      pop\n      pop\n      mload(0x40)\n      dup1\n      swap2\n      sub\n      swap1\n      return\n        /* \".deps/github/pipermerriam/ethereum-datetime/contracts/DateTime.sol\":4448:4577  function getMonth(uint timestamp) public pure returns (uint8) {... */\n    tag_11:\n      callvalue\n        /* \"--CODEGEN--\":8:17   */\n      dup1\n        /* \"--CODEGEN--\":5:7   */\n      iszero\n      tag_43\n      jumpi\n        /* \"--CODEGEN--\":30:31   */\n      0x0\n        /* \"--CODEGEN--\":27:28   */\n      dup1\n        /* \"--CODEGEN--\":20:32   */\n      revert\n        /* \"--CODEGEN--\":5:7   */\n    tag_43:\n        /* \".deps/github/pipermerriam/ethereum-datetime/contracts/DateTime.sol\":4448:4577  function getMonth(uint timestamp) public pure returns (uint8) {... */\n      pop\n      tag_44\n      0x4\n      dup1\n      calldatasize\n      sub\n      dup2\n      add\n      swap1\n      dup1\n      dup1\n      calldataload\n      swap1\n      0x20\n      add\n      swap1\n      swap3\n      swap2\n      swap1\n      pop\n      pop\n      pop\n      jump(tag_45)\n    tag_44:\n      mload(0x40)\n      dup1\n      dup3\n      0xff\n      and\n      0xff\n      and\n      dup2\n      mstore\n      0x20\n      add\n      swap2\n      pop\n      pop\n      mload(0x40)\n      dup1\n      swap2\n      sub\n      swap1\n      return\n        /* \".deps/github/pipermerriam/ethereum-datetime/contracts/DateTime.sol\":679:1061  function isLeapYear(uint16 year) public pure returns (bool) {... */\n    tag_12:\n      callvalue\n        /* \"--CODEGEN--\":8:17   */\n      dup1\n        /* \"--CODEGEN--\":5:7   */\n      iszero\n      tag_46\n      jumpi\n        /* \"--CODEGEN--\":30:31   */\n      0x0\n        /* \"--CODEGEN--\":27:28   */\n      dup1\n        /* \"--CODEGEN--\":20:32   */\n      revert\n        /* \"--CODEGEN--\":5:7   */\n    tag_46:\n        /* \".deps/github/pipermerriam/ethereum-datetime/contracts/DateTime.sol\":679:1061  function isLeapYear(uint16 year) public pure returns (bool) {... */\n      pop\n      tag_47\n      0x4\n      dup1\n      calldatasize\n      sub\n      dup2\n      add\n      swap1\n      dup1\n      dup1\n      calldataload\n      0xffff\n      and\n      swap1\n      0x20\n      add\n      swap1\n      swap3\n      swap2\n      swap1\n      pop\n      pop\n      pop\n      jump(tag_48)\n    tag_47:\n      mload(0x40)\n      dup1\n      dup3\n      iszero\n      iszero\n      iszero\n      iszero\n      dup2\n      mstore\n      0x20\n      add\n      swap2\n      pop\n      pop\n      mload(0x40)\n      dup1\n      swap2\n      sub\n      swap1\n      return\n        /* \".deps/github/pipermerriam/ethereum-datetime/contracts/DateTime.sol\":1071:1231  function leapYearsBefore(uint year) public pure returns (uint) {... */\n    tag_13:\n      callvalue\n        /* \"--CODEGEN--\":8:17   */\n      dup1\n        /* \"--CODEGEN--\":5:7   */\n      iszero\n      tag_49\n      jumpi\n        /* \"--CODEGEN--\":30:31   */\n      0x0\n        /* \"--CODEGEN--\":27:28   */\n      dup1\n        /* \"--CODEGEN--\":20:32   */\n      revert\n        /* \"--CODEGEN--\":5:7   */\n    tag_49:\n        /* \".deps/github/pipermerriam/ethereum-datetime/contracts/DateTime.sol\":1071:1231  function leapYearsBefore(uint year) public pure returns (uint) {... */\n      pop\n      tag_50\n      0x4\n      dup1\n      calldatasize\n      sub\n      dup2\n      add\n      swap1\n      dup1\n      dup1\n      calldataload\n      swap1\n      0x20\n      add\n      swap1\n      swap3\n      swap2\n      swap1\n      pop\n      pop\n      pop\n      jump(tag_51)\n    tag_50:\n      mload(0x40)\n      dup1\n      dup3\n      dup2\n      mstore\n      0x20\n      add\n      swap2\n      pop\n      pop\n      mload(0x40)\n      dup1\n      swap2\n      sub\n      swap1\n      return\n        /* \".deps/github/pipermerriam/ethereum-datetime/contracts/DateTime.sol\":1241:1812  function getDaysInMonth(uint8 month, uint16 year) public pure returns (uint8) {... */\n    tag_14:\n      callvalue\n        /* \"--CODEGEN--\":8:17   */\n      dup1\n        /* \"--CODEGEN--\":5:7   */\n      iszero\n      tag_52\n      jumpi\n        /* \"--CODEGEN--\":30:31   */\n      0x0\n        /* \"--CODEGEN--\":27:28   */\n      dup1\n        /* \"--CODEGEN--\":20:32   */\n      revert\n        /* \"--CODEGEN--\":5:7   */\n    tag_52:\n        /* \".deps/github/pipermerriam/ethereum-datetime/contracts/DateTime.sol\":1241:1812  function getDaysInMonth(uint8 month, uint16 year) public pure returns (uint8) {... */\n      pop\n      tag_53\n      0x4\n      dup1\n      calldatasize\n      sub\n      dup2\n      add\n      swap1\n      dup1\n      dup1\n      calldataload\n      0xff\n      and\n      swap1\n      0x20\n      add\n      swap1\n      swap3\n      swap2\n      swap1\n      dup1\n      calldataload\n      0xffff\n      and\n      swap1\n      0x20\n      add\n      swap1\n      swap3\n      swap2\n      swap1\n      pop\n      pop\n      pop\n      jump(tag_54)\n    tag_53:\n      mload(0x40)\n      dup1\n      dup3\n      0xff\n      and\n      0xff\n      and\n      dup2\n      mstore\n      0x20\n      add\n      swap2\n      pop\n      pop\n      mload(0x40)\n      dup1\n      swap2\n      sub\n      swap1\n      return\n        /* \".deps/github/pipermerriam/ethereum-datetime/contracts/DateTime.sol\":4862:4989  function getMinute(uint timestamp) public pure returns (uint8) {... */\n    tag_15:\n      callvalue\n        /* \"--CODEGEN--\":8:17   */\n      dup1\n        /* \"--CODEGEN--\":5:7   */\n      iszero\n      tag_55\n      jumpi\n        /* \"--CODEGEN--\":30:31   */\n      0x0\n        /* \"--CODEGEN--\":27:28   */\n      dup1\n        /* \"--CODEGEN--\":20:32   */\n      revert\n        /* \"--CODEGEN--\":5:7   */\n    tag_55:\n        /* \".deps/github/pipermerriam/ethereum-datetime/contracts/DateTime.sol\":4862:4989  function getMinute(uint timestamp) public pure returns (uint8) {... */\n      pop\n      tag_56\n      0x4\n      dup1\n      calldatasize\n      sub\n      dup2\n      add\n      swap1\n      dup1\n      dup1\n      calldataload\n      swap1\n      0x20\n      add\n      swap1\n      swap3\n      swap2\n      swap1\n      pop\n      pop\n      pop\n      jump(tag_57)\n    tag_56:\n      mload(0x40)\n      dup1\n      dup3\n      0xff\n      and\n      0xff\n      and\n      dup2\n      mstore\n      0x20\n      add\n      swap2\n      pop\n      pop\n      mload(0x40)\n      dup1\n      swap2\n      sub\n      swap1\n      return\n        /* \".deps/github/pipermerriam/ethereum-datetime/contracts/DateTime.sol\":4722:4852  function getHour(uint timestamp) public pure returns (uint8) {... */\n    tag_18:\n        /* \".deps/github/pipermerriam/ethereum-datetime/contracts/DateTime.sol\":4776:4781  uint8 */\n      0x0\n        /* \".deps/github/pipermerriam/ethereum-datetime/contracts/DateTime.sol\":4838:4840  24 */\n      0x18\n        /* \".deps/github/pipermerriam/ethereum-datetime/contracts/DateTime.sol\":4832:4834  60 */\n      0x3c\n        /* \".deps/github/pipermerriam/ethereum-datetime/contracts/DateTime.sol\":4827:4829  60 */\n      dup1\n        /* \".deps/github/pipermerriam/ethereum-datetime/contracts/DateTime.sol\":4815:4824  timestamp */\n      dup5\n        /* \".deps/github/pipermerriam/ethereum-datetime/contracts/DateTime.sol\":4815:4829  timestamp / 60 */\n      dup2\n      iszero\n      iszero\n      tag_59\n      jumpi\n      invalid\n    tag_59:\n      div\n        /* \".deps/github/pipermerriam/ethereum-datetime/contracts/DateTime.sol\":4815:4834  timestamp / 60 / 60 */\n      dup2\n      iszero\n      iszero\n      tag_60\n      jumpi\n      invalid\n    tag_60:\n      div\n        /* \".deps/github/pipermerriam/ethereum-datetime/contracts/DateTime.sol\":4814:4840  (timestamp / 60 / 60) % 24 */\n      dup2\n      iszero\n      iszero\n      tag_61\n      jumpi\n      invalid\n    tag_61:\n      mod\n        /* \".deps/github/pipermerriam/ethereum-datetime/contracts/DateTime.sol\":4801:4841  return uint8((timestamp / 60 / 60) % 24) */\n      swap1\n      pop\n        /* \".deps/github/pipermerriam/ethereum-datetime/contracts/DateTime.sol\":4722:4852  function getHour(uint timestamp) public pure returns (uint8) {... */\n      swap2\n      swap1\n      pop\n      jump\t// out\n        /* \".deps/github/pipermerriam/ethereum-datetime/contracts/DateTime.sol\":5129:5272  function getWeekday(uint timestamp) public pure returns (uint8) {... */\n    tag_21:\n        /* \".deps/github/pipermerriam/ethereum-datetime/contracts/DateTime.sol\":5186:5191  uint8 */\n      0x0\n        /* \".deps/github/pipermerriam/ethereum-datetime/contracts/DateTime.sol\":5259:5260  7 */\n      0x7\n        /* \".deps/github/pipermerriam/ethereum-datetime/contracts/DateTime.sol\":5254:5255  4 */\n      0x4\n        /* \".deps/github/pipermerriam/ethereum-datetime/contracts/DateTime.sol\":420:425  86400 */\n      0x15180\n        /* \".deps/github/pipermerriam/ethereum-datetime/contracts/DateTime.sol\":5225:5234  timestamp */\n      dup5\n        /* \".deps/github/pipermerriam/ethereum-datetime/contracts/DateTime.sol\":5225:5251  timestamp / DAY_IN_SECONDS */\n      dup2\n      iszero\n      iszero\n      tag_63\n      jumpi\n      invalid\n    tag_63:\n      div\n        /* \".deps/github/pipermerriam/ethereum-datetime/contracts/DateTime.sol\":5225:5255  timestamp / DAY_IN_SECONDS + 4 */\n      add\n        /* \".deps/github/pipermerriam/ethereum-datetime/contracts/DateTime.sol\":5224:5260  (timestamp / DAY_IN_SECONDS + 4) % 7 */\n      dup2\n      iszero\n      iszero\n      tag_64\n      jumpi\n      invalid\n    tag_64:\n      mod\n        /* \".deps/github/pipermerriam/ethereum-datetime/contracts/DateTime.sol\":5211:5261  return uint8((timestamp / DAY_IN_SECONDS + 4) % 7) */\n      swap1\n      pop\n        /* \".deps/github/pipermerriam/ethereum-datetime/contracts/DateTime.sol\":5129:5272  function getWeekday(uint timestamp) public pure returns (uint8) {... */\n      swap2\n      swap1\n      pop\n      jump\t// out\n        /* \".deps/github/pipermerriam/ethereum-datetime/contracts/DateTime.sol\":5655:5858  function toTimestamp(uint16 year, uint8 month, uint8 day, uint8 hour, uint8 minute) public pure returns (uint timestamp) {... */\n    tag_24:\n        /* \".deps/github/pipermerriam/ethereum-datetime/contracts/DateTime.sol\":5760:5774  uint timestamp */\n      0x0\n        /* \".deps/github/pipermerriam/ethereum-datetime/contracts/DateTime.sol\":5801:5847  toTimestamp(year, month, day, hour, minute, 0) */\n      tag_66\n        /* \".deps/github/pipermerriam/ethereum-datetime/contracts/DateTime.sol\":5813:5817  year */\n      dup7\n        /* \".deps/github/pipermerriam/ethereum-datetime/contracts/DateTime.sol\":5819:5824  month */\n      dup7\n        /* \".deps/github/pipermerriam/ethereum-datetime/contracts/DateTime.sol\":5826:5829  day */\n      dup7\n        /* \".deps/github/pipermerriam/ethereum-datetime/contracts/DateTime.sol\":5831:5835  hour */\n      dup7\n        /* \".deps/github/pipermerriam/ethereum-datetime/contracts/DateTime.sol\":5837:5843  minute */\n      dup7\n        /* \".deps/github/pipermerriam/ethereum-datetime/contracts/DateTime.sol\":5845:5846  0 */\n      0x0\n        /* \".deps/github/pipermerriam/ethereum-datetime/contracts/DateTime.sol\":5801:5812  toTimestamp */\n      tag_39\n        /* \".deps/github/pipermerriam/ethereum-datetime/contracts/DateTime.sol\":5801:5847  toTimestamp(year, month, day, hour, minute, 0) */\n      jump\t// in\n    tag_66:\n        /* \".deps/github/pipermerriam/ethereum-datetime/contracts/DateTime.sol\":5794:5847  return toTimestamp(year, month, day, hour, minute, 0) */\n      swap1\n      pop\n        /* \".deps/github/pipermerriam/ethereum-datetime/contracts/DateTime.sol\":5655:5858  function toTimestamp(uint16 year, uint8 month, uint8 day, uint8 hour, uint8 minute) public pure returns (uint timestamp) {... */\n      swap6\n      swap5\n      pop\n      pop\n      pop\n      pop\n      pop\n      jump\t// out\n        /* \".deps/github/pipermerriam/ethereum-datetime/contracts/DateTime.sol\":4587:4712  function getDay(uint timestamp) public pure returns (uint8) {... */\n    tag_27:\n        /* \".deps/github/pipermerriam/ethereum-datetime/contracts/DateTime.sol\":4640:4645  uint8 */\n      0x0\n        /* \".deps/github/pipermerriam/ethereum-datetime/contracts/DateTime.sol\":4672:4697  parseTimestamp(timestamp) */\n      tag_68\n        /* \".deps/github/pipermerriam/ethereum-datetime/contracts/DateTime.sol\":4687:4696  timestamp */\n      dup3\n        /* \".deps/github/pipermerriam/ethereum-datetime/contracts/DateTime.sol\":4672:4686  parseTimestamp */\n      tag_69\n        /* \".deps/github/pipermerriam/ethereum-datetime/contracts/DateTime.sol\":4672:4697  parseTimestamp(timestamp) */\n      jump\t// in\n    tag_68:\n        /* \".deps/github/pipermerriam/ethereum-datetime/contracts/DateTime.sol\":4672:4701  parseTimestamp(timestamp).day */\n      0x40\n      add\n      mload\n        /* \".deps/github/pipermerriam/ethereum-datetime/contracts/DateTime.sol\":4665:4701  return parseTimestamp(timestamp).day */\n      swap1\n      pop\n        /* \".deps/github/pipermerriam/ethereum-datetime/contracts/DateTime.sol\":4587:4712  function getDay(uint timestamp) public pure returns (uint8) {... */\n      swap2\n      swap1\n      pop\n      jump\t// out\n        /* \".deps/github/pipermerriam/ethereum-datetime/contracts/DateTime.sol\":5461:5645  function toTimestamp(uint16 year, uint8 month, uint8 day, uint8 hour) public pure returns (uint timestamp) {... */\n    tag_30:\n        /* \".deps/github/pipermerriam/ethereum-datetime/contracts/DateTime.sol\":5552:5566  uint timestamp */\n      0x0\n        /* \".deps/github/pipermerriam/ethereum-datetime/contracts/DateTime.sol\":5593:5634  toTimestamp(year, month, day, hour, 0, 0) */\n      tag_71\n        /* \".deps/github/pipermerriam/ethereum-datetime/contracts/DateTime.sol\":5605:5609  year */\n      dup6\n        /* \".deps/github/pipermerriam/ethereum-datetime/contracts/DateTime.sol\":5611:5616  month */\n      dup6\n        /* \".deps/github/pipermerriam/ethereum-datetime/contracts/DateTime.sol\":5618:5621  day */\n      dup6\n        /* \".deps/github/pipermerriam/ethereum-datetime/contracts/DateTime.sol\":5623:5627  hour */\n      dup6\n        /* \".deps/github/pipermerriam/ethereum-datetime/contracts/DateTime.sol\":5629:5630  0 */\n      0x0\n        /* \".deps/github/pipermerriam/ethereum-datetime/contracts/DateTime.sol\":5632:5633  0 */\n      dup1\n        /* \".deps/github/pipermerriam/ethereum-datetime/contracts/DateTime.sol\":5593:5604  toTimestamp */\n      tag_39\n        /* \".deps/github/pipermerriam/ethereum-datetime/contracts/DateTime.sol\":5593:5634  toTimestamp(year, month, day, hour, 0, 0) */\n      jump\t// in\n    tag_71:\n        /* \".deps/github/pipermerriam/ethereum-datetime/contracts/DateTime.sol\":5586:5634  return toTimestamp(year, month, day, hour, 0, 0) */\n      swap1\n      pop\n        /* \".deps/github/pipermerriam/ethereum-datetime/contracts/DateTime.sol\":5461:5645  function toTimestamp(uint16 year, uint8 month, uint8 day, uint8 hour) public pure returns (uint timestamp) {... */\n      swap5\n      swap4\n      pop\n      pop\n      pop\n      pop\n      jump\t// out\n        /* \".deps/github/pipermerriam/ethereum-datetime/contracts/DateTime.sol\":4999:5119  function getSecond(uint timestamp) public pure returns (uint8) {... */\n    tag_33:\n        /* \".deps/github/pipermerriam/ethereum-datetime/contracts/DateTime.sol\":5055:5060  uint8 */\n      0x0\n        /* \".deps/github/pipermerriam/ethereum-datetime/contracts/DateTime.sol\":5105:5107  60 */\n      0x3c\n        /* \".deps/github/pipermerriam/ethereum-datetime/contracts/DateTime.sol\":5093:5102  timestamp */\n      dup3\n        /* \".deps/github/pipermerriam/ethereum-datetime/contracts/DateTime.sol\":5093:5107  timestamp % 60 */\n      dup2\n      iszero\n      iszero\n      tag_73\n      jumpi\n      invalid\n    tag_73:\n      mod\n        /* \".deps/github/pipermerriam/ethereum-datetime/contracts/DateTime.sol\":5080:5108  return uint8(timestamp % 60) */\n      swap1\n      pop\n        /* \".deps/github/pipermerriam/ethereum-datetime/contracts/DateTime.sol\":4999:5119  function getSecond(uint timestamp) public pure returns (uint8) {... */\n      swap2\n      swap1\n      pop\n      jump\t// out\n        /* \".deps/github/pipermerriam/ethereum-datetime/contracts/DateTime.sol\":5282:5451  function toTimestamp(uint16 year, uint8 month, uint8 day) public pure returns (uint timestamp) {... */\n    tag_36:\n        /* \".deps/github/pipermerriam/ethereum-datetime/contracts/DateTime.sol\":5361:5375  uint timestamp */\n      0x0\n        /* \".deps/github/pipermerriam/ethereum-datetime/contracts/DateTime.sol\":5402:5440  toTimestamp(year, month, day, 0, 0, 0) */\n      tag_75\n        /* \".deps/github/pipermerriam/ethereum-datetime/contracts/DateTime.sol\":5414:5418  year */\n      dup5\n        /* \".deps/github/pipermerriam/ethereum-datetime/contracts/DateTime.sol\":5420:5425  month */\n      dup5\n        /* \".deps/github/pipermerriam/ethereum-datetime/contracts/DateTime.sol\":5427:5430  day */\n      dup5\n        /* \".deps/github/pipermerriam/ethereum-datetime/contracts/DateTime.sol\":5432:5433  0 */\n      0x0\n        /* \".deps/github/pipermerriam/ethereum-datetime/contracts/DateTime.sol\":5435:5436  0 */\n      dup1\n        /* \".deps/github/pipermerriam/ethereum-datetime/contracts/DateTime.sol\":5438:5439  0 */\n      0x0\n        /* \".deps/github/pipermerriam/ethereum-datetime/contracts/DateTime.sol\":5402:5413  toTimestamp */\n      tag_39\n        /* \".deps/github/pipermerriam/ethereum-datetime/contracts/DateTime.sol\":5402:5440  toTimestamp(year, month, day, 0, 0, 0) */\n      jump\t// in\n    tag_75:\n        /* \".deps/github/pipermerriam/ethereum-datetime/contracts/DateTime.sol\":5395:5440  return toTimestamp(year, month, day, 0, 0, 0) */\n      swap1\n      pop\n        /* \".deps/github/pipermerriam/ethereum-datetime/contracts/DateTime.sol\":5282:5451  function toTimestamp(uint16 year, uint8 month, uint8 day) public pure returns (uint timestamp) {... */\n      swap4\n      swap3\n      pop\n      pop\n      pop\n      jump\t// out\n        /* \".deps/github/pipermerriam/ethereum-datetime/contracts/DateTime.sol\":5868:7595  function toTimestamp(uint16 year, uint8 month, uint8 day, uint8 hour, uint8 minute, uint8 second) public pure returns (uint timestamp) {... */\n    tag_39:\n        /* \".deps/github/pipermerriam/ethereum-datetime/contracts/DateTime.sol\":5987:6001  uint timestamp */\n      0x0\n        /* \".deps/github/pipermerriam/ethereum-datetime/contracts/DateTime.sol\":6021:6029  uint16 i */\n      dup1\n        /* \".deps/github/pipermerriam/ethereum-datetime/contracts/DateTime.sol\":6428:6459  uint8[12] memory monthDayCounts */\n      tag_76\n      jump\t// in(tag_77)\n    tag_76:\n        /* \".deps/github/pipermerriam/ethereum-datetime/contracts/DateTime.sol\":664:668  1970 */\n      0x7b2\n        /* \".deps/github/pipermerriam/ethereum-datetime/contracts/DateTime.sol\":6077:6092  i = ORIGIN_YEAR */\n      swap2\n      pop\n        /* \".deps/github/pipermerriam/ethereum-datetime/contracts/DateTime.sol\":6072:6385  for (i = ORIGIN_YEAR; i < year; i++) {... */\n    tag_79:\n        /* \".deps/github/pipermerriam/ethereum-datetime/contracts/DateTime.sol\":6098:6102  year */\n      dup9\n        /* \".deps/github/pipermerriam/ethereum-datetime/contracts/DateTime.sol\":6094:6102  i < year */\n      0xffff\n      and\n        /* \".deps/github/pipermerriam/ethereum-datetime/contracts/DateTime.sol\":6094:6095  i */\n      dup3\n        /* \".deps/github/pipermerriam/ethereum-datetime/contracts/DateTime.sol\":6094:6102  i < year */\n      0xffff\n      and\n      lt\n        /* \".deps/github/pipermerriam/ethereum-datetime/contracts/DateTime.sol\":6072:6385  for (i = ORIGIN_YEAR; i < year; i++) {... */\n      iszero\n      tag_80\n      jumpi\n        /* \".deps/github/pipermerriam/ethereum-datetime/contracts/DateTime.sol\":6139:6152  isLeapYear(i) */\n      tag_82\n        /* \".deps/github/pipermerriam/ethereum-datetime/contracts/DateTime.sol\":6150:6151  i */\n      dup3\n        /* \".deps/github/pipermerriam/ethereum-datetime/contracts/DateTime.sol\":6139:6149  isLeapYear */\n      tag_48\n        /* \".deps/github/pipermerriam/ethereum-datetime/contracts/DateTime.sol\":6139:6152  isLeapYear(i) */\n      jump\t// in\n    tag_82:\n        /* \".deps/github/pipermerriam/ethereum-datetime/contracts/DateTime.sol\":6135:6367  if (isLeapYear(i)) {... */\n      iszero\n      tag_83\n      jumpi\n        /* \".deps/github/pipermerriam/ethereum-datetime/contracts/DateTime.sol\":522:530  31622400 */\n      0x1e28500\n        /* \".deps/github/pipermerriam/ethereum-datetime/contracts/DateTime.sol\":6188:6221  timestamp += LEAP_YEAR_IN_SECONDS */\n      dup4\n      add\n      swap3\n      pop\n        /* \".deps/github/pipermerriam/ethereum-datetime/contracts/DateTime.sol\":6135:6367  if (isLeapYear(i)) {... */\n      jump(tag_84)\n    tag_83:\n        /* \".deps/github/pipermerriam/ethereum-datetime/contracts/DateTime.sol\":467:475  31536000 */\n      0x1e13380\n        /* \".deps/github/pipermerriam/ethereum-datetime/contracts/DateTime.sol\":6312:6340  timestamp += YEAR_IN_SECONDS */\n      dup4\n      add\n      swap3\n      pop\n        /* \".deps/github/pipermerriam/ethereum-datetime/contracts/DateTime.sol\":6135:6367  if (isLeapYear(i)) {... */\n    tag_84:\n        /* \".deps/github/pipermerriam/ethereum-datetime/contracts/DateTime.sol\":6104:6107  i++ */\n      dup2\n      dup1\n      0x1\n      add\n      swap3\n      pop\n      pop\n        /* \".deps/github/pipermerriam/ethereum-datetime/contracts/DateTime.sol\":6072:6385  for (i = ORIGIN_YEAR; i < year; i++) {... */\n      jump(tag_79)\n    tag_80:\n        /* \".deps/github/pipermerriam/ethereum-datetime/contracts/DateTime.sol\":6497:6499  31 */\n      0x1f\n        /* \".deps/github/pipermerriam/ethereum-datetime/contracts/DateTime.sol\":6477:6491  monthDayCounts */\n      dup2\n        /* \".deps/github/pipermerriam/ethereum-datetime/contracts/DateTime.sol\":6492:6493  0 */\n      0x0\n        /* \".deps/github/pipermerriam/ethereum-datetime/contracts/DateTime.sol\":6477:6494  monthDayCounts[0] */\n      0xc\n      dup2\n      lt\n      iszero\n      iszero\n      tag_85\n      jumpi\n      invalid\n    tag_85:\n      0x20\n      mul\n      add\n        /* \".deps/github/pipermerriam/ethereum-datetime/contracts/DateTime.sol\":6477:6499  monthDayCounts[0] = 31 */\n      swap1\n      0xff\n      and\n      swap1\n      dup2\n      0xff\n      and\n      dup2\n      mstore\n      pop\n      pop\n        /* \".deps/github/pipermerriam/ethereum-datetime/contracts/DateTime.sol\":6521:6537  isLeapYear(year) */\n      tag_86\n        /* \".deps/github/pipermerriam/ethereum-datetime/contracts/DateTime.sol\":6532:6536  year */\n      dup10\n        /* \".deps/github/pipermerriam/ethereum-datetime/contracts/DateTime.sol\":6521:6531  isLeapYear */\n      tag_48\n        /* \".deps/github/pipermerriam/ethereum-datetime/contracts/DateTime.sol\":6521:6537  isLeapYear(year) */\n      jump\t// in\n    tag_86:\n        /* \".deps/github/pipermerriam/ethereum-datetime/contracts/DateTime.sol\":6517:6695  if (isLeapYear(year)) {... */\n      iszero\n      tag_87\n      jumpi\n        /* \".deps/github/pipermerriam/ethereum-datetime/contracts/DateTime.sol\":6585:6587  29 */\n      0x1d\n        /* \".deps/github/pipermerriam/ethereum-datetime/contracts/DateTime.sol\":6565:6579  monthDayCounts */\n      dup2\n        /* \".deps/github/pipermerriam/ethereum-datetime/contracts/DateTime.sol\":6580:6581  1 */\n      0x1\n        /* \".deps/github/pipermerriam/ethereum-datetime/contracts/DateTime.sol\":6565:6582  monthDayCounts[1] */\n      0xc\n      dup2\n      lt\n      iszero\n      iszero\n      tag_88\n      jumpi\n      invalid\n    tag_88:\n      0x20\n      mul\n      add\n        /* \".deps/github/pipermerriam/ethereum-datetime/contracts/DateTime.sol\":6565:6587  monthDayCounts[1] = 29 */\n      swap1\n      0xff\n      and\n      swap1\n      dup2\n      0xff\n      and\n      dup2\n      mstore\n      pop\n      pop\n        /* \".deps/github/pipermerriam/ethereum-datetime/contracts/DateTime.sol\":6517:6695  if (isLeapYear(year)) {... */\n      jump(tag_89)\n    tag_87:\n        /* \".deps/github/pipermerriam/ethereum-datetime/contracts/DateTime.sol\":6674:6676  28 */\n      0x1c\n        /* \".deps/github/pipermerriam/ethereum-datetime/contracts/DateTime.sol\":6654:6668  monthDayCounts */\n      dup2\n        /* \".deps/github/pipermerriam/ethereum-datetime/contracts/DateTime.sol\":6669:6670  1 */\n      0x1\n        /* \".deps/github/pipermerriam/ethereum-datetime/contracts/DateTime.sol\":6654:6671  monthDayCounts[1] */\n      0xc\n      dup2\n      lt\n      iszero\n      iszero\n      tag_90\n      jumpi\n      invalid\n    tag_90:\n      0x20\n      mul\n      add\n        /* \".deps/github/pipermerriam/ethereum-datetime/contracts/DateTime.sol\":6654:6676  monthDayCounts[1] = 28 */\n      swap1\n      0xff\n      and\n      swap1\n      dup2\n      0xff\n      and\n      dup2\n      mstore\n      pop\n      pop\n        /* \".deps/github/pipermerriam/ethereum-datetime/contracts/DateTime.sol\":6517:6695  if (isLeapYear(year)) {... */\n    tag_89:\n        /* \".deps/github/pipermerriam/ethereum-datetime/contracts/DateTime.sol\":6732:6734  31 */\n      0x1f\n        /* \".deps/github/pipermerriam/ethereum-datetime/contracts/DateTime.sol\":6712:6726  monthDayCounts */\n      dup2\n        /* \".deps/github/pipermerriam/ethereum-datetime/contracts/DateTime.sol\":6727:6728  2 */\n      0x2\n        /* \".deps/github/pipermerriam/ethereum-datetime/contracts/DateTime.sol\":6712:6729  monthDayCounts[2] */\n      0xc\n      dup2\n      lt\n      iszero\n      iszero\n      tag_91\n      jumpi\n      invalid\n    tag_91:\n      0x20\n      mul\n      add\n        /* \".deps/github/pipermerriam/ethereum-datetime/contracts/DateTime.sol\":6712:6734  monthDayCounts[2] = 31 */\n      swap1\n      0xff\n      and\n      swap1\n      dup2\n      0xff\n      and\n      dup2\n      mstore\n      pop\n      pop\n        /* \".deps/github/pipermerriam/ethereum-datetime/contracts/DateTime.sol\":6772:6774  30 */\n      0x1e\n        /* \".deps/github/pipermerriam/ethereum-datetime/contracts/DateTime.sol\":6752:6766  monthDayCounts */\n      dup2\n        /* \".deps/github/pipermerriam/ethereum-datetime/contracts/DateTime.sol\":6767:6768  3 */\n      0x3\n        /* \".deps/github/pipermerriam/ethereum-datetime/contracts/DateTime.sol\":6752:6769  monthDayCounts[3] */\n      0xc\n      dup2\n      lt\n      iszero\n      iszero\n      tag_92\n      jumpi\n      invalid\n    tag_92:\n      0x20\n      mul\n      add\n        /* \".deps/github/pipermerriam/ethereum-datetime/contracts/DateTime.sol\":6752:6774  monthDayCounts[3] = 30 */\n      swap1\n      0xff\n      and\n      swap1\n      dup2\n      0xff\n      and\n      dup2\n      mstore\n      pop\n      pop\n        /* \".deps/github/pipermerriam/ethereum-datetime/contracts/DateTime.sol\":6812:6814  31 */\n      0x1f\n        /* \".deps/github/pipermerriam/ethereum-datetime/contracts/DateTime.sol\":6792:6806  monthDayCounts */\n      dup2\n        /* \".deps/github/pipermerriam/ethereum-datetime/contracts/DateTime.sol\":6807:6808  4 */\n      0x4\n        /* \".deps/github/pipermerriam/ethereum-datetime/contracts/DateTime.sol\":6792:6809  monthDayCounts[4] */\n      0xc\n      dup2\n      lt\n      iszero\n      iszero\n      tag_93\n      jumpi\n      invalid\n    tag_93:\n      0x20\n      mul\n      add\n        /* \".deps/github/pipermerriam/ethereum-datetime/contracts/DateTime.sol\":6792:6814  monthDayCounts[4] = 31 */\n      swap1\n      0xff\n      and\n      swap1\n      dup2\n      0xff\n      and\n      dup2\n      mstore\n      pop\n      pop\n        /* \".deps/github/pipermerriam/ethereum-datetime/contracts/DateTime.sol\":6852:6854  30 */\n      0x1e\n        /* \".deps/github/pipermerriam/ethereum-datetime/contracts/DateTime.sol\":6832:6846  monthDayCounts */\n      dup2\n        /* \".deps/github/pipermerriam/ethereum-datetime/contracts/DateTime.sol\":6847:6848  5 */\n      0x5\n        /* \".deps/github/pipermerriam/ethereum-datetime/contracts/DateTime.sol\":6832:6849  monthDayCounts[5] */\n      0xc\n      dup2\n      lt\n      iszero\n      iszero\n      tag_94\n      jumpi\n      invalid\n    tag_94:\n      0x20\n      mul\n      add\n        /* \".deps/github/pipermerriam/ethereum-datetime/contracts/DateTime.sol\":6832:6854  monthDayCounts[5] = 30 */\n      swap1\n      0xff\n      and\n      swap1\n      dup2\n      0xff\n      and\n      dup2\n      mstore\n      pop\n      pop\n        /* \".deps/github/pipermerriam/ethereum-datetime/contracts/DateTime.sol\":6892:6894  31 */\n      0x1f\n        /* \".deps/github/pipermerriam/ethereum-datetime/contracts/DateTime.sol\":6872:6886  monthDayCounts */\n      dup2\n        /* \".deps/github/pipermerriam/ethereum-datetime/contracts/DateTime.sol\":6887:6888  6 */\n      0x6\n        /* \".deps/github/pipermerriam/ethereum-datetime/contracts/DateTime.sol\":6872:6889  monthDayCounts[6] */\n      0xc\n      dup2\n      lt\n      iszero\n      iszero\n      tag_95\n      jumpi\n      invalid\n    tag_95:\n      0x20\n      mul\n      add\n        /* \".deps/github/pipermerriam/ethereum-datetime/contracts/DateTime.sol\":6872:6894  monthDayCounts[6] = 31 */\n      swap1\n      0xff\n      and\n      swap1\n      dup2\n      0xff\n      and\n      dup2\n      mstore\n      pop\n      pop\n        /* \".deps/github/pipermerriam/ethereum-datetime/contracts/DateTime.sol\":6932:6934  31 */\n      0x1f\n        /* \".deps/github/pipermerriam/ethereum-datetime/contracts/DateTime.sol\":6912:6926  monthDayCounts */\n      dup2\n        /* \".deps/github/pipermerriam/ethereum-datetime/contracts/DateTime.sol\":6927:6928  7 */\n      0x7\n        /* \".deps/github/pipermerriam/ethereum-datetime/contracts/DateTime.sol\":6912:6929  monthDayCounts[7] */\n      0xc\n      dup2\n      lt\n      iszero\n      iszero\n      tag_96\n      jumpi\n      invalid\n    tag_96:\n      0x20\n      mul\n      add\n        /* \".deps/github/pipermerriam/ethereum-datetime/contracts/DateTime.sol\":6912:6934  monthDayCounts[7] = 31 */\n      swap1\n      0xff\n      and\n      swap1\n      dup2\n      0xff\n      and\n      dup2\n      mstore\n      pop\n      pop\n        /* \".deps/github/pipermerriam/ethereum-datetime/contracts/DateTime.sol\":6972:6974  30 */\n      0x1e\n        /* \".deps/github/pipermerriam/ethereum-datetime/contracts/DateTime.sol\":6952:6966  monthDayCounts */\n      dup2\n        /* \".deps/github/pipermerriam/ethereum-datetime/contracts/DateTime.sol\":6967:6968  8 */\n      0x8\n        /* \".deps/github/pipermerriam/ethereum-datetime/contracts/DateTime.sol\":6952:6969  monthDayCounts[8] */\n      0xc\n      dup2\n      lt\n      iszero\n      iszero\n      tag_97\n      jumpi\n      invalid\n    tag_97:\n      0x20\n      mul\n      add\n        /* \".deps/github/pipermerriam/ethereum-datetime/contracts/DateTime.sol\":6952:6974  monthDayCounts[8] = 30 */\n      swap1\n      0xff\n      and\n      swap1\n      dup2\n      0xff\n      and\n      dup2\n      mstore\n      pop\n      pop\n        /* \".deps/github/pipermerriam/ethereum-datetime/contracts/DateTime.sol\":7012:7014  31 */\n      0x1f\n        /* \".deps/github/pipermerriam/ethereum-datetime/contracts/DateTime.sol\":6992:7006  monthDayCounts */\n      dup2\n        /* \".deps/github/pipermerriam/ethereum-datetime/contracts/DateTime.sol\":7007:7008  9 */\n      0x9\n        /* \".deps/github/pipermerriam/ethereum-datetime/contracts/DateTime.sol\":6992:7009  monthDayCounts[9] */\n      0xc\n      dup2\n      lt\n      iszero\n      iszero\n      tag_98\n      jumpi\n      invalid\n    tag_98:\n      0x20\n      mul\n      add\n        /* \".deps/github/pipermerriam/ethereum-datetime/contracts/DateTime.sol\":6992:7014  monthDayCounts[9] = 31 */\n      swap1\n      0xff\n      and\n      swap1\n      dup2\n      0xff\n      and\n      dup2\n      mstore\n      pop\n      pop\n        /* \".deps/github/pipermerriam/ethereum-datetime/contracts/DateTime.sol\":7053:7055  30 */\n      0x1e\n        /* \".deps/github/pipermerriam/ethereum-datetime/contracts/DateTime.sol\":7032:7046  monthDayCounts */\n      dup2\n        /* \".deps/github/pipermerriam/ethereum-datetime/contracts/DateTime.sol\":7047:7049  10 */\n      0xa\n        /* \".deps/github/pipermerriam/ethereum-datetime/contracts/DateTime.sol\":7032:7050  monthDayCounts[10] */\n      0xc\n      dup2\n      lt\n      iszero\n      iszero\n      tag_99\n      jumpi\n      invalid\n    tag_99:\n      0x20\n      mul\n      add\n        /* \".deps/github/pipermerriam/ethereum-datetime/contracts/DateTime.sol\":7032:7055  monthDayCounts[10] = 30 */\n      swap1\n      0xff\n      and\n      swap1\n      dup2\n      0xff\n      and\n      dup2\n      mstore\n      pop\n      pop\n        /* \".deps/github/pipermerriam/ethereum-datetime/contracts/DateTime.sol\":7094:7096  31 */\n      0x1f\n        /* \".deps/github/pipermerriam/ethereum-datetime/contracts/DateTime.sol\":7073:7087  monthDayCounts */\n      dup2\n        /* \".deps/github/pipermerriam/ethereum-datetime/contracts/DateTime.sol\":7088:7090  11 */\n      0xb\n        /* \".deps/github/pipermerriam/ethereum-datetime/contracts/DateTime.sol\":7073:7091  monthDayCounts[11] */\n      0xc\n      dup2\n      lt\n      iszero\n      iszero\n      tag_100\n      jumpi\n      invalid\n    tag_100:\n      0x20\n      mul\n      add\n        /* \".deps/github/pipermerriam/ethereum-datetime/contracts/DateTime.sol\":7073:7096  monthDayCounts[11] = 31 */\n      swap1\n      0xff\n      and\n      swap1\n      dup2\n      0xff\n      and\n      dup2\n      mstore\n      pop\n      pop\n        /* \".deps/github/pipermerriam/ethereum-datetime/contracts/DateTime.sol\":7124:7125  1 */\n      0x1\n        /* \".deps/github/pipermerriam/ethereum-datetime/contracts/DateTime.sol\":7120:7125  i = 1 */\n      swap2\n      pop\n        /* \".deps/github/pipermerriam/ethereum-datetime/contracts/DateTime.sol\":7115:7239  for (i = 1; i < month; i++) {... */\n    tag_101:\n        /* \".deps/github/pipermerriam/ethereum-datetime/contracts/DateTime.sol\":7131:7136  month */\n      dup8\n        /* \".deps/github/pipermerriam/ethereum-datetime/contracts/DateTime.sol\":7127:7136  i < month */\n      0xff\n      and\n        /* \".deps/github/pipermerriam/ethereum-datetime/contracts/DateTime.sol\":7127:7128  i */\n      dup3\n        /* \".deps/github/pipermerriam/ethereum-datetime/contracts/DateTime.sol\":7127:7136  i < month */\n      0xffff\n      and\n      lt\n        /* \".deps/github/pipermerriam/ethereum-datetime/contracts/DateTime.sol\":7115:7239  for (i = 1; i < month; i++) {... */\n      iszero\n      tag_102\n      jumpi\n        /* \".deps/github/pipermerriam/ethereum-datetime/contracts/DateTime.sol\":7199:7213  monthDayCounts */\n      dup1\n        /* \".deps/github/pipermerriam/ethereum-datetime/contracts/DateTime.sol\":7218:7219  1 */\n      0x1\n        /* \".deps/github/pipermerriam/ethereum-datetime/contracts/DateTime.sol\":7214:7215  i */\n      dup4\n        /* \".deps/github/pipermerriam/ethereum-datetime/contracts/DateTime.sol\":7214:7219  i - 1 */\n      sub\n        /* \".deps/github/pipermerriam/ethereum-datetime/contracts/DateTime.sol\":7199:7220  monthDayCounts[i - 1] */\n      0xffff\n      and\n      0xc\n      dup2\n      lt\n      iszero\n      iszero\n      tag_104\n      jumpi\n      invalid\n    tag_104:\n      0x20\n      mul\n      add\n      mload\n        /* \".deps/github/pipermerriam/ethereum-datetime/contracts/DateTime.sol\":7182:7220  DAY_IN_SECONDS * monthDayCounts[i - 1] */\n      0xff\n      and\n        /* \".deps/github/pipermerriam/ethereum-datetime/contracts/DateTime.sol\":420:425  86400 */\n      0x15180\n        /* \".deps/github/pipermerriam/ethereum-datetime/contracts/DateTime.sol\":7182:7220  DAY_IN_SECONDS * monthDayCounts[i - 1] */\n      mul\n        /* \".deps/github/pipermerriam/ethereum-datetime/contracts/DateTime.sol\":7169:7220  timestamp += DAY_IN_SECONDS * monthDayCounts[i - 1] */\n      dup4\n      add\n      swap3\n      pop\n        /* \".deps/github/pipermerriam/ethereum-datetime/contracts/DateTime.sol\":7138:7141  i++ */\n      dup2\n      dup1\n      0x1\n      add\n      swap3\n      pop\n      pop\n        /* \".deps/github/pipermerriam/ethereum-datetime/contracts/DateTime.sol\":7115:7239  for (i = 1; i < month; i++) {... */\n      jump(tag_101)\n    tag_102:\n        /* \".deps/github/pipermerriam/ethereum-datetime/contracts/DateTime.sol\":7317:7318  1 */\n      0x1\n        /* \".deps/github/pipermerriam/ethereum-datetime/contracts/DateTime.sol\":7311:7314  day */\n      dup8\n        /* \".deps/github/pipermerriam/ethereum-datetime/contracts/DateTime.sol\":7311:7318  day - 1 */\n      sub\n        /* \".deps/github/pipermerriam/ethereum-datetime/contracts/DateTime.sol\":7293:7319  DAY_IN_SECONDS * (day - 1) */\n      0xff\n      and\n        /* \".deps/github/pipermerriam/ethereum-datetime/contracts/DateTime.sol\":420:425  86400 */\n      0x15180\n        /* \".deps/github/pipermerriam/ethereum-datetime/contracts/DateTime.sol\":7293:7319  DAY_IN_SECONDS * (day - 1) */\n      mul\n        /* \".deps/github/pipermerriam/ethereum-datetime/contracts/DateTime.sol\":7280:7319  timestamp += DAY_IN_SECONDS * (day - 1) */\n      dup4\n      add\n      swap3\n      pop\n        /* \".deps/github/pipermerriam/ethereum-datetime/contracts/DateTime.sol\":7394:7398  hour */\n      dup6\n        /* \".deps/github/pipermerriam/ethereum-datetime/contracts/DateTime.sol\":7375:7399  HOUR_IN_SECONDS * (hour) */\n      0xff\n      and\n        /* \".deps/github/pipermerriam/ethereum-datetime/contracts/DateTime.sol\":573:577  3600 */\n      0xe10\n        /* \".deps/github/pipermerriam/ethereum-datetime/contracts/DateTime.sol\":7375:7399  HOUR_IN_SECONDS * (hour) */\n      mul\n        /* \".deps/github/pipermerriam/ethereum-datetime/contracts/DateTime.sol\":7362:7399  timestamp += HOUR_IN_SECONDS * (hour) */\n      dup4\n      add\n      swap3\n      pop\n        /* \".deps/github/pipermerriam/ethereum-datetime/contracts/DateTime.sol\":7478:7484  minute */\n      dup5\n        /* \".deps/github/pipermerriam/ethereum-datetime/contracts/DateTime.sol\":7457:7485  MINUTE_IN_SECONDS * (minute) */\n      0xff\n      and\n        /* \".deps/github/pipermerriam/ethereum-datetime/contracts/DateTime.sol\":621:623  60 */\n      0x3c\n        /* \".deps/github/pipermerriam/ethereum-datetime/contracts/DateTime.sol\":7457:7485  MINUTE_IN_SECONDS * (minute) */\n      mul\n        /* \".deps/github/pipermerriam/ethereum-datetime/contracts/DateTime.sol\":7444:7485  timestamp += MINUTE_IN_SECONDS * (minute) */\n      dup4\n      add\n      swap3\n      pop\n        /* \".deps/github/pipermerriam/ethereum-datetime/contracts/DateTime.sol\":7543:7549  second */\n      dup4\n        /* \".deps/github/pipermerriam/ethereum-datetime/contracts/DateTime.sol\":7530:7549  timestamp += second */\n      0xff\n      and\n      dup4\n      add\n      swap3\n      pop\n        /* \".deps/github/pipermerriam/ethereum-datetime/contracts/DateTime.sol\":7575:7584  timestamp */\n      dup3\n        /* \".deps/github/pipermerriam/ethereum-datetime/contracts/DateTime.sol\":7568:7584  return timestamp */\n      swap3\n      pop\n        /* \".deps/github/pipermerriam/ethereum-datetime/contracts/DateTime.sol\":5868:7595  function toTimestamp(uint16 year, uint8 month, uint8 day, uint8 hour, uint8 minute, uint8 second) public pure returns (uint timestamp) {... */\n      pop\n      pop\n      swap7\n      swap6\n      pop\n      pop\n      pop\n      pop\n      pop\n      pop\n      jump\t// out\n        /* \".deps/github/pipermerriam/ethereum-datetime/contracts/DateTime.sol\":3467:4438  function getYear(uint timestamp) public pure returns (uint16) {... */\n    tag_42:\n        /* \".deps/github/pipermerriam/ethereum-datetime/contracts/DateTime.sol\":3521:3527  uint16 */\n      0x0\n        /* \".deps/github/pipermerriam/ethereum-datetime/contracts/DateTime.sol\":3547:3571  uint secondsAccountedFor */\n      dup1\n        /* \".deps/github/pipermerriam/ethereum-datetime/contracts/DateTime.sol\":3593:3604  uint16 year */\n      0x0\n        /* \".deps/github/pipermerriam/ethereum-datetime/contracts/DateTime.sol\":3622:3639  uint numLeapYears */\n      dup1\n        /* \".deps/github/pipermerriam/ethereum-datetime/contracts/DateTime.sol\":3574:3575  0 */\n      0x0\n        /* \".deps/github/pipermerriam/ethereum-datetime/contracts/DateTime.sol\":3547:3575  uint secondsAccountedFor = 0 */\n      swap3\n      pop\n        /* \".deps/github/pipermerriam/ethereum-datetime/contracts/DateTime.sol\":467:475  31536000 */\n      0x1e13380\n        /* \".deps/github/pipermerriam/ethereum-datetime/contracts/DateTime.sol\":3710:3719  timestamp */\n      dup6\n        /* \".deps/github/pipermerriam/ethereum-datetime/contracts/DateTime.sol\":3710:3737  timestamp / YEAR_IN_SECONDS */\n      dup2\n      iszero\n      iszero\n      tag_106\n      jumpi\n      invalid\n    tag_106:\n      div\n        /* \".deps/github/pipermerriam/ethereum-datetime/contracts/DateTime.sol\":664:668  1970 */\n      0x7b2\n        /* \".deps/github/pipermerriam/ethereum-datetime/contracts/DateTime.sol\":3696:3737  ORIGIN_YEAR + timestamp / YEAR_IN_SECONDS */\n      0xffff\n      and\n      add\n        /* \".deps/github/pipermerriam/ethereum-datetime/contracts/DateTime.sol\":3682:3738  year = uint16(ORIGIN_YEAR + timestamp / YEAR_IN_SECONDS) */\n      swap2\n      pop\n        /* \".deps/github/pipermerriam/ethereum-datetime/contracts/DateTime.sol\":3795:3823  leapYearsBefore(ORIGIN_YEAR) */\n      tag_107\n        /* \".deps/github/pipermerriam/ethereum-datetime/contracts/DateTime.sol\":664:668  1970 */\n      0x7b2\n        /* \".deps/github/pipermerriam/ethereum-datetime/contracts/DateTime.sol\":3795:3823  leapYearsBefore(ORIGIN_YEAR) */\n      0xffff\n      and\n        /* \".deps/github/pipermerriam/ethereum-datetime/contracts/DateTime.sol\":3795:3810  leapYearsBefore */\n      tag_51\n        /* \".deps/github/pipermerriam/ethereum-datetime/contracts/DateTime.sol\":3795:3823  leapYearsBefore(ORIGIN_YEAR) */\n      jump\t// in\n    tag_107:\n        /* \".deps/github/pipermerriam/ethereum-datetime/contracts/DateTime.sol\":3771:3792  leapYearsBefore(year) */\n      tag_108\n        /* \".deps/github/pipermerriam/ethereum-datetime/contracts/DateTime.sol\":3787:3791  year */\n      dup4\n        /* \".deps/github/pipermerriam/ethereum-datetime/contracts/DateTime.sol\":3771:3792  leapYearsBefore(year) */\n      0xffff\n      and\n        /* \".deps/github/pipermerriam/ethereum-datetime/contracts/DateTime.sol\":3771:3786  leapYearsBefore */\n      tag_51\n        /* \".deps/github/pipermerriam/ethereum-datetime/contracts/DateTime.sol\":3771:3792  leapYearsBefore(year) */\n      jump\t// in\n    tag_108:\n        /* \".deps/github/pipermerriam/ethereum-datetime/contracts/DateTime.sol\":3771:3823  leapYearsBefore(year) - leapYearsBefore(ORIGIN_YEAR) */\n      sub\n        /* \".deps/github/pipermerriam/ethereum-datetime/contracts/DateTime.sol\":3756:3823  numLeapYears = leapYearsBefore(year) - leapYearsBefore(ORIGIN_YEAR) */\n      swap1\n      pop\n        /* \".deps/github/pipermerriam/ethereum-datetime/contracts/DateTime.sol\":3888:3900  numLeapYears */\n      dup1\n        /* \".deps/github/pipermerriam/ethereum-datetime/contracts/DateTime.sol\":522:530  31622400 */\n      0x1e28500\n        /* \".deps/github/pipermerriam/ethereum-datetime/contracts/DateTime.sol\":3865:3900  LEAP_YEAR_IN_SECONDS * numLeapYears */\n      mul\n        /* \".deps/github/pipermerriam/ethereum-datetime/contracts/DateTime.sol\":3842:3900  secondsAccountedFor += LEAP_YEAR_IN_SECONDS * numLeapYears */\n      dup4\n      add\n      swap3\n      pop\n        /* \".deps/github/pipermerriam/ethereum-datetime/contracts/DateTime.sol\":3981:3993  numLeapYears */\n      dup1\n        /* \".deps/github/pipermerriam/ethereum-datetime/contracts/DateTime.sol\":664:668  1970 */\n      0x7b2\n        /* \".deps/github/pipermerriam/ethereum-datetime/contracts/DateTime.sol\":3960:3964  year */\n      dup4\n        /* \".deps/github/pipermerriam/ethereum-datetime/contracts/DateTime.sol\":3960:3978  year - ORIGIN_YEAR */\n      sub\n        /* \".deps/github/pipermerriam/ethereum-datetime/contracts/DateTime.sol\":3960:3993  year - ORIGIN_YEAR - numLeapYears */\n      0xffff\n      and\n      sub\n        /* \".deps/github/pipermerriam/ethereum-datetime/contracts/DateTime.sol\":467:475  31536000 */\n      0x1e13380\n        /* \".deps/github/pipermerriam/ethereum-datetime/contracts/DateTime.sol\":3941:3994  YEAR_IN_SECONDS * (year - ORIGIN_YEAR - numLeapYears) */\n      mul\n        /* \".deps/github/pipermerriam/ethereum-datetime/contracts/DateTime.sol\":3918:3994  secondsAccountedFor += YEAR_IN_SECONDS * (year - ORIGIN_YEAR - numLeapYears) */\n      dup4\n      add\n      swap3\n      pop\n        /* \".deps/github/pipermerriam/ethereum-datetime/contracts/DateTime.sol\":4013:4399  while (secondsAccountedFor > timestamp) {... */\n    tag_109:\n        /* \".deps/github/pipermerriam/ethereum-datetime/contracts/DateTime.sol\":4042:4051  timestamp */\n      dup5\n        /* \".deps/github/pipermerriam/ethereum-datetime/contracts/DateTime.sol\":4020:4039  secondsAccountedFor */\n      dup4\n        /* \".deps/github/pipermerriam/ethereum-datetime/contracts/DateTime.sol\":4020:4051  secondsAccountedFor > timestamp */\n      gt\n        /* \".deps/github/pipermerriam/ethereum-datetime/contracts/DateTime.sol\":4013:4399  while (secondsAccountedFor > timestamp) {... */\n      iszero\n      tag_110\n      jumpi\n        /* \".deps/github/pipermerriam/ethereum-datetime/contracts/DateTime.sol\":4083:4111  isLeapYear(uint16(year - 1)) */\n      tag_111\n        /* \".deps/github/pipermerriam/ethereum-datetime/contracts/DateTime.sol\":4108:4109  1 */\n      0x1\n        /* \".deps/github/pipermerriam/ethereum-datetime/contracts/DateTime.sol\":4101:4105  year */\n      dup4\n        /* \".deps/github/pipermerriam/ethereum-datetime/contracts/DateTime.sol\":4101:4109  year - 1 */\n      sub\n        /* \".deps/github/pipermerriam/ethereum-datetime/contracts/DateTime.sol\":4083:4093  isLeapYear */\n      tag_48\n        /* \".deps/github/pipermerriam/ethereum-datetime/contracts/DateTime.sol\":4083:4111  isLeapYear(uint16(year - 1)) */\n      jump\t// in\n    tag_111:\n        /* \".deps/github/pipermerriam/ethereum-datetime/contracts/DateTime.sol\":4079:4346  if (isLeapYear(uint16(year - 1))) {... */\n      iszero\n      tag_112\n      jumpi\n        /* \".deps/github/pipermerriam/ethereum-datetime/contracts/DateTime.sol\":522:530  31622400 */\n      0x1e28500\n        /* \".deps/github/pipermerriam/ethereum-datetime/contracts/DateTime.sol\":4147:4190  secondsAccountedFor -= LEAP_YEAR_IN_SECONDS */\n      dup4\n      sub\n      swap3\n      pop\n        /* \".deps/github/pipermerriam/ethereum-datetime/contracts/DateTime.sol\":4079:4346  if (isLeapYear(uint16(year - 1))) {... */\n      jump(tag_113)\n    tag_112:\n        /* \".deps/github/pipermerriam/ethereum-datetime/contracts/DateTime.sol\":467:475  31536000 */\n      0x1e13380\n        /* \".deps/github/pipermerriam/ethereum-datetime/contracts/DateTime.sol\":4281:4319  secondsAccountedFor -= YEAR_IN_SECONDS */\n      dup4\n      sub\n      swap3\n      pop\n        /* \".deps/github/pipermerriam/ethereum-datetime/contracts/DateTime.sol\":4079:4346  if (isLeapYear(uint16(year - 1))) {... */\n    tag_113:\n        /* \".deps/github/pipermerriam/ethereum-datetime/contracts/DateTime.sol\":4379:4380  1 */\n      0x1\n        /* \".deps/github/pipermerriam/ethereum-datetime/contracts/DateTime.sol\":4371:4380  year -= 1 */\n      dup3\n      sub\n      swap2\n      pop\n        /* \".deps/github/pipermerriam/ethereum-datetime/contracts/DateTime.sol\":4013:4399  while (secondsAccountedFor > timestamp) {... */\n      jump(tag_109)\n    tag_110:\n        /* \".deps/github/pipermerriam/ethereum-datetime/contracts/DateTime.sol\":4423:4427  year */\n      dup2\n        /* \".deps/github/pipermerriam/ethereum-datetime/contracts/DateTime.sol\":4416:4427  return year */\n      swap4\n      pop\n        /* \".deps/github/pipermerriam/ethereum-datetime/contracts/DateTime.sol\":3467:4438  function getYear(uint timestamp) public pure returns (uint16) {... */\n      pop\n      pop\n      pop\n      swap2\n      swap1\n      pop\n      jump\t// out\n        /* \".deps/github/pipermerriam/ethereum-datetime/contracts/DateTime.sol\":4448:4577  function getMonth(uint timestamp) public pure returns (uint8) {... */\n    tag_45:\n        /* \".deps/github/pipermerriam/ethereum-datetime/contracts/DateTime.sol\":4503:4508  uint8 */\n      0x0\n        /* \".deps/github/pipermerriam/ethereum-datetime/contracts/DateTime.sol\":4535:4560  parseTimestamp(timestamp) */\n      tag_115\n        /* \".deps/github/pipermerriam/ethereum-datetime/contracts/DateTime.sol\":4550:4559  timestamp */\n      dup3\n        /* \".deps/github/pipermerriam/ethereum-datetime/contracts/DateTime.sol\":4535:4549  parseTimestamp */\n      tag_69\n        /* \".deps/github/pipermerriam/ethereum-datetime/contracts/DateTime.sol\":4535:4560  parseTimestamp(timestamp) */\n      jump\t// in\n    tag_115:\n        /* \".deps/github/pipermerriam/ethereum-datetime/contracts/DateTime.sol\":4535:4566  parseTimestamp(timestamp).month */\n      0x20\n      add\n      mload\n        /* \".deps/github/pipermerriam/ethereum-datetime/contracts/DateTime.sol\":4528:4566  return parseTimestamp(timestamp).month */\n      swap1\n      pop\n        /* \".deps/github/pipermerriam/ethereum-datetime/contracts/DateTime.sol\":4448:4577  function getMonth(uint timestamp) public pure returns (uint8) {... */\n      swap2\n      swap1\n      pop\n      jump\t// out\n        /* \".deps/github/pipermerriam/ethereum-datetime/contracts/DateTime.sol\":679:1061  function isLeapYear(uint16 year) public pure returns (bool) {... */\n    tag_48:\n        /* \".deps/github/pipermerriam/ethereum-datetime/contracts/DateTime.sol\":733:737  bool */\n      0x0\n        /* \".deps/github/pipermerriam/ethereum-datetime/contracts/DateTime.sol\":773:774  0 */\n      dup1\n        /* \".deps/github/pipermerriam/ethereum-datetime/contracts/DateTime.sol\":768:769  4 */\n      0x4\n        /* \".deps/github/pipermerriam/ethereum-datetime/contracts/DateTime.sol\":761:765  year */\n      dup4\n        /* \".deps/github/pipermerriam/ethereum-datetime/contracts/DateTime.sol\":761:769  year % 4 */\n      0xffff\n      and\n      dup2\n      iszero\n      iszero\n      tag_117\n      jumpi\n      invalid\n    tag_117:\n      mod\n        /* \".deps/github/pipermerriam/ethereum-datetime/contracts/DateTime.sol\":761:774  year % 4 != 0 */\n      0xffff\n      and\n      eq\n      iszero\n        /* \".deps/github/pipermerriam/ethereum-datetime/contracts/DateTime.sol\":757:833  if (year % 4 != 0) {... */\n      iszero\n      tag_118\n      jumpi\n        /* \".deps/github/pipermerriam/ethereum-datetime/contracts/DateTime.sol\":809:814  false */\n      0x0\n        /* \".deps/github/pipermerriam/ethereum-datetime/contracts/DateTime.sol\":802:814  return false */\n      swap1\n      pop\n      jump(tag_116)\n        /* \".deps/github/pipermerriam/ethereum-datetime/contracts/DateTime.sol\":757:833  if (year % 4 != 0) {... */\n    tag_118:\n        /* \".deps/github/pipermerriam/ethereum-datetime/contracts/DateTime.sol\":868:869  0 */\n      0x0\n        /* \".deps/github/pipermerriam/ethereum-datetime/contracts/DateTime.sol\":861:864  100 */\n      0x64\n        /* \".deps/github/pipermerriam/ethereum-datetime/contracts/DateTime.sol\":854:858  year */\n      dup4\n        /* \".deps/github/pipermerriam/ethereum-datetime/contracts/DateTime.sol\":854:864  year % 100 */\n      0xffff\n      and\n      dup2\n      iszero\n      iszero\n      tag_119\n      jumpi\n      invalid\n    tag_119:\n      mod\n        /* \".deps/github/pipermerriam/ethereum-datetime/contracts/DateTime.sol\":854:869  year % 100 != 0 */\n      0xffff\n      and\n      eq\n      iszero\n        /* \".deps/github/pipermerriam/ethereum-datetime/contracts/DateTime.sol\":850:927  if (year % 100 != 0) {... */\n      iszero\n      tag_120\n      jumpi\n        /* \".deps/github/pipermerriam/ethereum-datetime/contracts/DateTime.sol\":904:908  true */\n      0x1\n        /* \".deps/github/pipermerriam/ethereum-datetime/contracts/DateTime.sol\":897:908  return true */\n      swap1\n      pop\n      jump(tag_116)\n        /* \".deps/github/pipermerriam/ethereum-datetime/contracts/DateTime.sol\":850:927  if (year % 100 != 0) {... */\n    tag_120:\n        /* \".deps/github/pipermerriam/ethereum-datetime/contracts/DateTime.sol\":962:963  0 */\n      0x0\n        /* \".deps/github/pipermerriam/ethereum-datetime/contracts/DateTime.sol\":955:958  400 */\n      0x190\n        /* \".deps/github/pipermerriam/ethereum-datetime/contracts/DateTime.sol\":948:952  year */\n      dup4\n        /* \".deps/github/pipermerriam/ethereum-datetime/contracts/DateTime.sol\":948:958  year % 400 */\n      0xffff\n      and\n      dup2\n      iszero\n      iszero\n      tag_121\n      jumpi\n      invalid\n    tag_121:\n      mod\n        /* \".deps/github/pipermerriam/ethereum-datetime/contracts/DateTime.sol\":948:963  year % 400 != 0 */\n      0xffff\n      and\n      eq\n      iszero\n        /* \".deps/github/pipermerriam/ethereum-datetime/contracts/DateTime.sol\":944:1022  if (year % 400 != 0) {... */\n      iszero\n      tag_122\n      jumpi\n        /* \".deps/github/pipermerriam/ethereum-datetime/contracts/DateTime.sol\":998:1003  false */\n      0x0\n        /* \".deps/github/pipermerriam/ethereum-datetime/contracts/DateTime.sol\":991:1003  return false */\n      swap1\n      pop\n      jump(tag_116)\n        /* \".deps/github/pipermerriam/ethereum-datetime/contracts/DateTime.sol\":944:1022  if (year % 400 != 0) {... */\n    tag_122:\n        /* \".deps/github/pipermerriam/ethereum-datetime/contracts/DateTime.sol\":1046:1050  true */\n      0x1\n        /* \".deps/github/pipermerriam/ethereum-datetime/contracts/DateTime.sol\":1039:1050  return true */\n      swap1\n      pop\n        /* \".deps/github/pipermerriam/ethereum-datetime/contracts/DateTime.sol\":679:1061  function isLeapYear(uint16 year) public pure returns (bool) {... */\n    tag_116:\n      swap2\n      swap1\n      pop\n      jump\t// out\n        /* \".deps/github/pipermerriam/ethereum-datetime/contracts/DateTime.sol\":1071:1231  function leapYearsBefore(uint year) public pure returns (uint) {... */\n    tag_51:\n        /* \".deps/github/pipermerriam/ethereum-datetime/contracts/DateTime.sol\":1128:1132  uint */\n      0x0\n        /* \".deps/github/pipermerriam/ethereum-datetime/contracts/DateTime.sol\":1160:1161  1 */\n      0x1\n        /* \".deps/github/pipermerriam/ethereum-datetime/contracts/DateTime.sol\":1152:1161  year -= 1 */\n      dup3\n      sub\n      swap2\n      pop\n        /* \".deps/github/pipermerriam/ethereum-datetime/contracts/DateTime.sol\":1217:1220  400 */\n      0x190\n        /* \".deps/github/pipermerriam/ethereum-datetime/contracts/DateTime.sol\":1210:1214  year */\n      dup3\n        /* \".deps/github/pipermerriam/ethereum-datetime/contracts/DateTime.sol\":1210:1220  year / 400 */\n      dup2\n      iszero\n      iszero\n      tag_124\n      jumpi\n      invalid\n    tag_124:\n      div\n        /* \".deps/github/pipermerriam/ethereum-datetime/contracts/DateTime.sol\":1204:1207  100 */\n      0x64\n        /* \".deps/github/pipermerriam/ethereum-datetime/contracts/DateTime.sol\":1197:1201  year */\n      dup4\n        /* \".deps/github/pipermerriam/ethereum-datetime/contracts/DateTime.sol\":1197:1207  year / 100 */\n      dup2\n      iszero\n      iszero\n      tag_125\n      jumpi\n      invalid\n    tag_125:\n      div\n        /* \".deps/github/pipermerriam/ethereum-datetime/contracts/DateTime.sol\":1193:1194  4 */\n      0x4\n        /* \".deps/github/pipermerriam/ethereum-datetime/contracts/DateTime.sol\":1186:1190  year */\n      dup5\n        /* \".deps/github/pipermerriam/ethereum-datetime/contracts/DateTime.sol\":1186:1194  year / 4 */\n      dup2\n      iszero\n      iszero\n      tag_126\n      jumpi\n      invalid\n    tag_126:\n      div\n        /* \".deps/github/pipermerriam/ethereum-datetime/contracts/DateTime.sol\":1186:1207  year / 4 - year / 100 */\n      sub\n        /* \".deps/github/pipermerriam/ethereum-datetime/contracts/DateTime.sol\":1186:1220  year / 4 - year / 100 + year / 400 */\n      add\n        /* \".deps/github/pipermerriam/ethereum-datetime/contracts/DateTime.sol\":1179:1220  return year / 4 - year / 100 + year / 400 */\n      swap1\n      pop\n        /* \".deps/github/pipermerriam/ethereum-datetime/contracts/DateTime.sol\":1071:1231  function leapYearsBefore(uint year) public pure returns (uint) {... */\n      swap2\n      swap1\n      pop\n      jump\t// out\n        /* \".deps/github/pipermerriam/ethereum-datetime/contracts/DateTime.sol\":1241:1812  function getDaysInMonth(uint8 month, uint16 year) public pure returns (uint8) {... */\n    tag_54:\n        /* \".deps/github/pipermerriam/ethereum-datetime/contracts/DateTime.sol\":1312:1317  uint8 */\n      0x0\n        /* \".deps/github/pipermerriam/ethereum-datetime/contracts/DateTime.sol\":1350:1351  1 */\n      0x1\n        /* \".deps/github/pipermerriam/ethereum-datetime/contracts/DateTime.sol\":1341:1346  month */\n      dup4\n        /* \".deps/github/pipermerriam/ethereum-datetime/contracts/DateTime.sol\":1341:1351  month == 1 */\n      0xff\n      and\n      eq\n        /* \".deps/github/pipermerriam/ethereum-datetime/contracts/DateTime.sol\":1341:1365  month == 1 || month == 3 */\n      dup1\n      tag_128\n      jumpi\n      pop\n        /* \".deps/github/pipermerriam/ethereum-datetime/contracts/DateTime.sol\":1364:1365  3 */\n      0x3\n        /* \".deps/github/pipermerriam/ethereum-datetime/contracts/DateTime.sol\":1355:1360  month */\n      dup4\n        /* \".deps/github/pipermerriam/ethereum-datetime/contracts/DateTime.sol\":1355:1365  month == 3 */\n      0xff\n      and\n      eq\n        /* \".deps/github/pipermerriam/ethereum-datetime/contracts/DateTime.sol\":1341:1365  month == 1 || month == 3 */\n    tag_128:\n        /* \".deps/github/pipermerriam/ethereum-datetime/contracts/DateTime.sol\":1341:1379  month == 1 || month == 3 || month == 5 */\n      dup1\n      tag_129\n      jumpi\n      pop\n        /* \".deps/github/pipermerriam/ethereum-datetime/contracts/DateTime.sol\":1378:1379  5 */\n      0x5\n        /* \".deps/github/pipermerriam/ethereum-datetime/contracts/DateTime.sol\":1369:1374  month */\n      dup4\n        /* \".deps/github/pipermerriam/ethereum-datetime/contracts/DateTime.sol\":1369:1379  month == 5 */\n      0xff\n      and\n      eq\n        /* \".deps/github/pipermerriam/ethereum-datetime/contracts/DateTime.sol\":1341:1379  month == 1 || month == 3 || month == 5 */\n    tag_129:\n        /* \".deps/github/pipermerriam/ethereum-datetime/contracts/DateTime.sol\":1341:1393  month == 1 || month == 3 || month == 5 || month == 7 */\n      dup1\n      tag_130\n      jumpi\n      pop\n        /* \".deps/github/pipermerriam/ethereum-datetime/contracts/DateTime.sol\":1392:1393  7 */\n      0x7\n        /* \".deps/github/pipermerriam/ethereum-datetime/contracts/DateTime.sol\":1383:1388  month */\n      dup4\n        /* \".deps/github/pipermerriam/ethereum-datetime/contracts/DateTime.sol\":1383:1393  month == 7 */\n      0xff\n      and\n      eq\n        /* \".deps/github/pipermerriam/ethereum-datetime/contracts/DateTime.sol\":1341:1393  month == 1 || month == 3 || month == 5 || month == 7 */\n    tag_130:\n        /* \".deps/github/pipermerriam/ethereum-datetime/contracts/DateTime.sol\":1341:1407  month == 1 || month == 3 || month == 5 || month == 7 || month == 8 */\n      dup1\n      tag_131\n      jumpi\n      pop\n        /* \".deps/github/pipermerriam/ethereum-datetime/contracts/DateTime.sol\":1406:1407  8 */\n      0x8\n        /* \".deps/github/pipermerriam/ethereum-datetime/contracts/DateTime.sol\":1397:1402  month */\n      dup4\n        /* \".deps/github/pipermerriam/ethereum-datetime/contracts/DateTime.sol\":1397:1407  month == 8 */\n      0xff\n      and\n      eq\n        /* \".deps/github/pipermerriam/ethereum-datetime/contracts/DateTime.sol\":1341:1407  month == 1 || month == 3 || month == 5 || month == 7 || month == 8 */\n    tag_131:\n        /* \".deps/github/pipermerriam/ethereum-datetime/contracts/DateTime.sol\":1341:1422  month == 1 || month == 3 || month == 5 || month == 7 || month == 8 || month == 10 */\n      dup1\n      tag_132\n      jumpi\n      pop\n        /* \".deps/github/pipermerriam/ethereum-datetime/contracts/DateTime.sol\":1420:1422  10 */\n      0xa\n        /* \".deps/github/pipermerriam/ethereum-datetime/contracts/DateTime.sol\":1411:1416  month */\n      dup4\n        /* \".deps/github/pipermerriam/ethereum-datetime/contracts/DateTime.sol\":1411:1422  month == 10 */\n      0xff\n      and\n      eq\n        /* \".deps/github/pipermerriam/ethereum-datetime/contracts/DateTime.sol\":1341:1422  month == 1 || month == 3 || month == 5 || month == 7 || month == 8 || month == 10 */\n    tag_132:\n        /* \".deps/github/pipermerriam/ethereum-datetime/contracts/DateTime.sol\":1341:1437  month == 1 || month == 3 || month == 5 || month == 7 || month == 8 || month == 10 || month == 12 */\n      dup1\n      tag_133\n      jumpi\n      pop\n        /* \".deps/github/pipermerriam/ethereum-datetime/contracts/DateTime.sol\":1435:1437  12 */\n      0xc\n        /* \".deps/github/pipermerriam/ethereum-datetime/contracts/DateTime.sol\":1426:1431  month */\n      dup4\n        /* \".deps/github/pipermerriam/ethereum-datetime/contracts/DateTime.sol\":1426:1437  month == 12 */\n      0xff\n      and\n      eq\n        /* \".deps/github/pipermerriam/ethereum-datetime/contracts/DateTime.sol\":1341:1437  month == 1 || month == 3 || month == 5 || month == 7 || month == 8 || month == 10 || month == 12 */\n    tag_133:\n        /* \".deps/github/pipermerriam/ethereum-datetime/contracts/DateTime.sol\":1337:1802  if (month == 1 || month == 3 || month == 5 || month == 7 || month == 8 || month == 10 || month == 12) {... */\n      iszero\n      tag_134\n      jumpi\n        /* \".deps/github/pipermerriam/ethereum-datetime/contracts/DateTime.sol\":1472:1474  31 */\n      0x1f\n        /* \".deps/github/pipermerriam/ethereum-datetime/contracts/DateTime.sol\":1465:1474  return 31 */\n      swap1\n      pop\n      jump(tag_127)\n        /* \".deps/github/pipermerriam/ethereum-datetime/contracts/DateTime.sol\":1337:1802  if (month == 1 || month == 3 || month == 5 || month == 7 || month == 8 || month == 10 || month == 12) {... */\n    tag_134:\n        /* \".deps/github/pipermerriam/ethereum-datetime/contracts/DateTime.sol\":1528:1529  4 */\n      0x4\n        /* \".deps/github/pipermerriam/ethereum-datetime/contracts/DateTime.sol\":1519:1524  month */\n      dup4\n        /* \".deps/github/pipermerriam/ethereum-datetime/contracts/DateTime.sol\":1519:1529  month == 4 */\n      0xff\n      and\n      eq\n        /* \".deps/github/pipermerriam/ethereum-datetime/contracts/DateTime.sol\":1519:1543  month == 4 || month == 6 */\n      dup1\n      tag_136\n      jumpi\n      pop\n        /* \".deps/github/pipermerriam/ethereum-datetime/contracts/DateTime.sol\":1542:1543  6 */\n      0x6\n        /* \".deps/github/pipermerriam/ethereum-datetime/contracts/DateTime.sol\":1533:1538  month */\n      dup4\n        /* \".deps/github/pipermerriam/ethereum-datetime/contracts/DateTime.sol\":1533:1543  month == 6 */\n      0xff\n      and\n      eq\n        /* \".deps/github/pipermerriam/ethereum-datetime/contracts/DateTime.sol\":1519:1543  month == 4 || month == 6 */\n    tag_136:\n        /* \".deps/github/pipermerriam/ethereum-datetime/contracts/DateTime.sol\":1519:1557  month == 4 || month == 6 || month == 9 */\n      dup1\n      tag_137\n      jumpi\n      pop\n        /* \".deps/github/pipermerriam/ethereum-datetime/contracts/DateTime.sol\":1556:1557  9 */\n      0x9\n        /* \".deps/github/pipermerriam/ethereum-datetime/contracts/DateTime.sol\":1547:1552  month */\n      dup4\n        /* \".deps/github/pipermerriam/ethereum-datetime/contracts/DateTime.sol\":1547:1557  month == 9 */\n      0xff\n      and\n      eq\n        /* \".deps/github/pipermerriam/ethereum-datetime/contracts/DateTime.sol\":1519:1557  month == 4 || month == 6 || month == 9 */\n    tag_137:\n        /* \".deps/github/pipermerriam/ethereum-datetime/contracts/DateTime.sol\":1519:1572  month == 4 || month == 6 || month == 9 || month == 11 */\n      dup1\n      tag_138\n      jumpi\n      pop\n        /* \".deps/github/pipermerriam/ethereum-datetime/contracts/DateTime.sol\":1570:1572  11 */\n      0xb\n        /* \".deps/github/pipermerriam/ethereum-datetime/contracts/DateTime.sol\":1561:1566  month */\n      dup4\n        /* \".deps/github/pipermerriam/ethereum-datetime/contracts/DateTime.sol\":1561:1572  month == 11 */\n      0xff\n      and\n      eq\n        /* \".deps/github/pipermerriam/ethereum-datetime/contracts/DateTime.sol\":1519:1572  month == 4 || month == 6 || month == 9 || month == 11 */\n    tag_138:\n        /* \".deps/github/pipermerriam/ethereum-datetime/contracts/DateTime.sol\":1515:1802  if (month == 4 || month == 6 || month == 9 || month == 11) {... */\n      iszero\n      tag_139\n      jumpi\n        /* \".deps/github/pipermerriam/ethereum-datetime/contracts/DateTime.sol\":1607:1609  30 */\n      0x1e\n        /* \".deps/github/pipermerriam/ethereum-datetime/contracts/DateTime.sol\":1600:1609  return 30 */\n      swap1\n      pop\n      jump(tag_127)\n        /* \".deps/github/pipermerriam/ethereum-datetime/contracts/DateTime.sol\":1515:1802  if (month == 4 || month == 6 || month == 9 || month == 11) {... */\n    tag_139:\n        /* \".deps/github/pipermerriam/ethereum-datetime/contracts/DateTime.sol\":1654:1670  isLeapYear(year) */\n      tag_141\n        /* \".deps/github/pipermerriam/ethereum-datetime/contracts/DateTime.sol\":1665:1669  year */\n      dup3\n        /* \".deps/github/pipermerriam/ethereum-datetime/contracts/DateTime.sol\":1654:1664  isLeapYear */\n      tag_48\n        /* \".deps/github/pipermerriam/ethereum-datetime/contracts/DateTime.sol\":1654:1670  isLeapYear(year) */\n      jump\t// in\n    tag_141:\n        /* \".deps/github/pipermerriam/ethereum-datetime/contracts/DateTime.sol\":1650:1802  if (isLeapYear(year)) {... */\n      iszero\n      tag_142\n      jumpi\n        /* \".deps/github/pipermerriam/ethereum-datetime/contracts/DateTime.sol\":1705:1707  29 */\n      0x1d\n        /* \".deps/github/pipermerriam/ethereum-datetime/contracts/DateTime.sol\":1698:1707  return 29 */\n      swap1\n      pop\n      jump(tag_127)\n        /* \".deps/github/pipermerriam/ethereum-datetime/contracts/DateTime.sol\":1650:1802  if (isLeapYear(year)) {... */\n    tag_142:\n        /* \".deps/github/pipermerriam/ethereum-datetime/contracts/DateTime.sol\":1781:1783  28 */\n      0x1c\n        /* \".deps/github/pipermerriam/ethereum-datetime/contracts/DateTime.sol\":1774:1783  return 28 */\n      swap1\n      pop\n        /* \".deps/github/pipermerriam/ethereum-datetime/contracts/DateTime.sol\":1241:1812  function getDaysInMonth(uint8 month, uint16 year) public pure returns (uint8) {... */\n    tag_127:\n      swap3\n      swap2\n      pop\n      pop\n      jump\t// out\n        /* \".deps/github/pipermerriam/ethereum-datetime/contracts/DateTime.sol\":4862:4989  function getMinute(uint timestamp) public pure returns (uint8) {... */\n    tag_57:\n        /* \".deps/github/pipermerriam/ethereum-datetime/contracts/DateTime.sol\":4918:4923  uint8 */\n      0x0\n        /* \".deps/github/pipermerriam/ethereum-datetime/contracts/DateTime.sol\":4975:4977  60 */\n      0x3c\n        /* \".deps/github/pipermerriam/ethereum-datetime/contracts/DateTime.sol\":4969:4971  60 */\n      dup1\n        /* \".deps/github/pipermerriam/ethereum-datetime/contracts/DateTime.sol\":4957:4966  timestamp */\n      dup4\n        /* \".deps/github/pipermerriam/ethereum-datetime/contracts/DateTime.sol\":4957:4971  timestamp / 60 */\n      dup2\n      iszero\n      iszero\n      tag_145\n      jumpi\n      invalid\n    tag_145:\n      div\n        /* \".deps/github/pipermerriam/ethereum-datetime/contracts/DateTime.sol\":4956:4977  (timestamp / 60) % 60 */\n      dup2\n      iszero\n      iszero\n      tag_146\n      jumpi\n      invalid\n    tag_146:\n      mod\n        /* \".deps/github/pipermerriam/ethereum-datetime/contracts/DateTime.sol\":4943:4978  return uint8((timestamp / 60) % 60) */\n      swap1\n      pop\n        /* \".deps/github/pipermerriam/ethereum-datetime/contracts/DateTime.sol\":4862:4989  function getMinute(uint timestamp) public pure returns (uint8) {... */\n      swap2\n      swap1\n      pop\n      jump\t// out\n        /* \".deps/github/pipermerriam/ethereum-datetime/contracts/DateTime.sol\":1822:3457  function parseTimestamp(uint timestamp) internal pure returns (_DateTime dt) {... */\n    tag_69:\n        /* \".deps/github/pipermerriam/ethereum-datetime/contracts/DateTime.sol\":1885:1897  _DateTime dt */\n      tag_147\n      jump\t// in(tag_148)\n    tag_147:\n        /* \".deps/github/pipermerriam/ethereum-datetime/contracts/DateTime.sol\":1917:1941  uint secondsAccountedFor */\n      0x0\n        /* \".deps/github/pipermerriam/ethereum-datetime/contracts/DateTime.sol\":1963:1971  uint buf */\n      dup1\n        /* \".deps/github/pipermerriam/ethereum-datetime/contracts/DateTime.sol\":1989:1996  uint8 i */\n      0x0\n        /* \".deps/github/pipermerriam/ethereum-datetime/contracts/DateTime.sol\":2346:2365  uint secondsInMonth */\n      dup1\n        /* \".deps/github/pipermerriam/ethereum-datetime/contracts/DateTime.sol\":1944:1945  0 */\n      0x0\n        /* \".deps/github/pipermerriam/ethereum-datetime/contracts/DateTime.sol\":1917:1945  uint secondsAccountedFor = 0 */\n      swap4\n      pop\n        /* \".deps/github/pipermerriam/ethereum-datetime/contracts/DateTime.sol\":2049:2067  getYear(timestamp) */\n      tag_150\n        /* \".deps/github/pipermerriam/ethereum-datetime/contracts/DateTime.sol\":2057:2066  timestamp */\n      dup7\n        /* \".deps/github/pipermerriam/ethereum-datetime/contracts/DateTime.sol\":2049:2056  getYear */\n      tag_42\n        /* \".deps/github/pipermerriam/ethereum-datetime/contracts/DateTime.sol\":2049:2067  getYear(timestamp) */\n      jump\t// in\n    tag_150:\n        /* \".deps/github/pipermerriam/ethereum-datetime/contracts/DateTime.sol\":2039:2041  dt */\n      dup6\n        /* \".deps/github/pipermerriam/ethereum-datetime/contracts/DateTime.sol\":2039:2046  dt.year */\n      0x0\n      add\n        /* \".deps/github/pipermerriam/ethereum-datetime/contracts/DateTime.sol\":2039:2067  dt.year = getYear(timestamp) */\n      swap1\n      0xffff\n      and\n      swap1\n      dup2\n      0xffff\n      and\n      dup2\n      mstore\n      pop\n      pop\n        /* \".deps/github/pipermerriam/ethereum-datetime/contracts/DateTime.sol\":2118:2146  leapYearsBefore(ORIGIN_YEAR) */\n      tag_151\n        /* \".deps/github/pipermerriam/ethereum-datetime/contracts/DateTime.sol\":664:668  1970 */\n      0x7b2\n        /* \".deps/github/pipermerriam/ethereum-datetime/contracts/DateTime.sol\":2118:2146  leapYearsBefore(ORIGIN_YEAR) */\n      0xffff\n      and\n        /* \".deps/github/pipermerriam/ethereum-datetime/contracts/DateTime.sol\":2118:2133  leapYearsBefore */\n      tag_51\n        /* \".deps/github/pipermerriam/ethereum-datetime/contracts/DateTime.sol\":2118:2146  leapYearsBefore(ORIGIN_YEAR) */\n      jump\t// in\n    tag_151:\n        /* \".deps/github/pipermerriam/ethereum-datetime/contracts/DateTime.sol\":2091:2115  leapYearsBefore(dt.year) */\n      tag_152\n        /* \".deps/github/pipermerriam/ethereum-datetime/contracts/DateTime.sol\":2107:2109  dt */\n      dup7\n        /* \".deps/github/pipermerriam/ethereum-datetime/contracts/DateTime.sol\":2107:2114  dt.year */\n      0x0\n      add\n      mload\n        /* \".deps/github/pipermerriam/ethereum-datetime/contracts/DateTime.sol\":2091:2115  leapYearsBefore(dt.year) */\n      0xffff\n      and\n        /* \".deps/github/pipermerriam/ethereum-datetime/contracts/DateTime.sol\":2091:2106  leapYearsBefore */\n      tag_51\n        /* \".deps/github/pipermerriam/ethereum-datetime/contracts/DateTime.sol\":2091:2115  leapYearsBefore(dt.year) */\n      jump\t// in\n    tag_152:\n        /* \".deps/github/pipermerriam/ethereum-datetime/contracts/DateTime.sol\":2091:2146  leapYearsBefore(dt.year) - leapYearsBefore(ORIGIN_YEAR) */\n      sub\n        /* \".deps/github/pipermerriam/ethereum-datetime/contracts/DateTime.sol\":2085:2146  buf = leapYearsBefore(dt.year) - leapYearsBefore(ORIGIN_YEAR) */\n      swap3\n      pop\n        /* \".deps/github/pipermerriam/ethereum-datetime/contracts/DateTime.sol\":2211:2214  buf */\n      dup3\n        /* \".deps/github/pipermerriam/ethereum-datetime/contracts/DateTime.sol\":522:530  31622400 */\n      0x1e28500\n        /* \".deps/github/pipermerriam/ethereum-datetime/contracts/DateTime.sol\":2188:2214  LEAP_YEAR_IN_SECONDS * buf */\n      mul\n        /* \".deps/github/pipermerriam/ethereum-datetime/contracts/DateTime.sol\":2165:2214  secondsAccountedFor += LEAP_YEAR_IN_SECONDS * buf */\n      dup5\n      add\n      swap4\n      pop\n        /* \".deps/github/pipermerriam/ethereum-datetime/contracts/DateTime.sol\":2298:2301  buf */\n      dup3\n        /* \".deps/github/pipermerriam/ethereum-datetime/contracts/DateTime.sol\":664:668  1970 */\n      0x7b2\n        /* \".deps/github/pipermerriam/ethereum-datetime/contracts/DateTime.sol\":2274:2276  dt */\n      dup7\n        /* \".deps/github/pipermerriam/ethereum-datetime/contracts/DateTime.sol\":2274:2281  dt.year */\n      0x0\n      add\n      mload\n        /* \".deps/github/pipermerriam/ethereum-datetime/contracts/DateTime.sol\":2274:2295  dt.year - ORIGIN_YEAR */\n      sub\n        /* \".deps/github/pipermerriam/ethereum-datetime/contracts/DateTime.sol\":2274:2301  dt.year - ORIGIN_YEAR - buf */\n      0xffff\n      and\n      sub\n        /* \".deps/github/pipermerriam/ethereum-datetime/contracts/DateTime.sol\":467:475  31536000 */\n      0x1e13380\n        /* \".deps/github/pipermerriam/ethereum-datetime/contracts/DateTime.sol\":2255:2302  YEAR_IN_SECONDS * (dt.year - ORIGIN_YEAR - buf) */\n      mul\n        /* \".deps/github/pipermerriam/ethereum-datetime/contracts/DateTime.sol\":2232:2302  secondsAccountedFor += YEAR_IN_SECONDS * (dt.year - ORIGIN_YEAR - buf) */\n      dup5\n      add\n      swap4\n      pop\n        /* \".deps/github/pipermerriam/ethereum-datetime/contracts/DateTime.sol\":2392:2393  1 */\n      0x1\n        /* \".deps/github/pipermerriam/ethereum-datetime/contracts/DateTime.sol\":2388:2393  i = 1 */\n      swap2\n      pop\n        /* \".deps/github/pipermerriam/ethereum-datetime/contracts/DateTime.sol\":2383:2768  for (i = 1; i <= 12; i++) {... */\n    tag_153:\n        /* \".deps/github/pipermerriam/ethereum-datetime/contracts/DateTime.sol\":2400:2402  12 */\n      0xc\n        /* \".deps/github/pipermerriam/ethereum-datetime/contracts/DateTime.sol\":2395:2396  i */\n      dup3\n        /* \".deps/github/pipermerriam/ethereum-datetime/contracts/DateTime.sol\":2395:2402  i <= 12 */\n      0xff\n      and\n      gt\n      iszero\n        /* \".deps/github/pipermerriam/ethereum-datetime/contracts/DateTime.sol\":2383:2768  for (i = 1; i <= 12; i++) {... */\n      iszero\n      tag_154\n      jumpi\n        /* \".deps/github/pipermerriam/ethereum-datetime/contracts/DateTime.sol\":2469:2495  getDaysInMonth(i, dt.year) */\n      tag_156\n        /* \".deps/github/pipermerriam/ethereum-datetime/contracts/DateTime.sol\":2484:2485  i */\n      dup3\n        /* \".deps/github/pipermerriam/ethereum-datetime/contracts/DateTime.sol\":2487:2489  dt */\n      dup7\n        /* \".deps/github/pipermerriam/ethereum-datetime/contracts/DateTime.sol\":2487:2494  dt.year */\n      0x0\n      add\n      mload\n        /* \".deps/github/pipermerriam/ethereum-datetime/contracts/DateTime.sol\":2469:2483  getDaysInMonth */\n      tag_54\n        /* \".deps/github/pipermerriam/ethereum-datetime/contracts/DateTime.sol\":2469:2495  getDaysInMonth(i, dt.year) */\n      jump\t// in\n    tag_156:\n        /* \".deps/github/pipermerriam/ethereum-datetime/contracts/DateTime.sol\":2452:2495  DAY_IN_SECONDS * getDaysInMonth(i, dt.year) */\n      0xff\n      and\n        /* \".deps/github/pipermerriam/ethereum-datetime/contracts/DateTime.sol\":420:425  86400 */\n      0x15180\n        /* \".deps/github/pipermerriam/ethereum-datetime/contracts/DateTime.sol\":2452:2495  DAY_IN_SECONDS * getDaysInMonth(i, dt.year) */\n      mul\n        /* \".deps/github/pipermerriam/ethereum-datetime/contracts/DateTime.sol\":2435:2495  secondsInMonth = DAY_IN_SECONDS * getDaysInMonth(i, dt.year) */\n      swap1\n      pop\n        /* \".deps/github/pipermerriam/ethereum-datetime/contracts/DateTime.sol\":2564:2573  timestamp */\n      dup6\n        /* \".deps/github/pipermerriam/ethereum-datetime/contracts/DateTime.sol\":2542:2561  secondsAccountedFor */\n      dup5\n        /* \".deps/github/pipermerriam/ethereum-datetime/contracts/DateTime.sol\":2525:2539  secondsInMonth */\n      dup3\n        /* \".deps/github/pipermerriam/ethereum-datetime/contracts/DateTime.sol\":2525:2561  secondsInMonth + secondsAccountedFor */\n      add\n        /* \".deps/github/pipermerriam/ethereum-datetime/contracts/DateTime.sol\":2525:2573  secondsInMonth + secondsAccountedFor > timestamp */\n      gt\n        /* \".deps/github/pipermerriam/ethereum-datetime/contracts/DateTime.sol\":2521:2687  if (secondsInMonth + secondsAccountedFor > timestamp) {... */\n      iszero\n      tag_157\n      jumpi\n        /* \".deps/github/pipermerriam/ethereum-datetime/contracts/DateTime.sol\":2620:2621  i */\n      dup2\n        /* \".deps/github/pipermerriam/ethereum-datetime/contracts/DateTime.sol\":2609:2611  dt */\n      dup6\n        /* \".deps/github/pipermerriam/ethereum-datetime/contracts/DateTime.sol\":2609:2617  dt.month */\n      0x20\n      add\n        /* \".deps/github/pipermerriam/ethereum-datetime/contracts/DateTime.sol\":2609:2621  dt.month = i */\n      swap1\n      0xff\n      and\n      swap1\n      dup2\n      0xff\n      and\n      dup2\n      mstore\n      pop\n      pop\n        /* \".deps/github/pipermerriam/ethereum-datetime/contracts/DateTime.sol\":2655:2660  break */\n      jump(tag_154)\n        /* \".deps/github/pipermerriam/ethereum-datetime/contracts/DateTime.sol\":2521:2687  if (secondsInMonth + secondsAccountedFor > timestamp) {... */\n    tag_157:\n        /* \".deps/github/pipermerriam/ethereum-datetime/contracts/DateTime.sol\":2735:2749  secondsInMonth */\n      dup1\n        /* \".deps/github/pipermerriam/ethereum-datetime/contracts/DateTime.sol\":2712:2749  secondsAccountedFor += secondsInMonth */\n      dup5\n      add\n      swap4\n      pop\n        /* \".deps/github/pipermerriam/ethereum-datetime/contracts/DateTime.sol\":2404:2407  i++ */\n      dup2\n      dup1\n      0x1\n      add\n      swap3\n      pop\n      pop\n        /* \".deps/github/pipermerriam/ethereum-datetime/contracts/DateTime.sol\":2383:2768  for (i = 1; i <= 12; i++) {... */\n      jump(tag_153)\n    tag_154:\n        /* \".deps/github/pipermerriam/ethereum-datetime/contracts/DateTime.sol\":2818:2819  1 */\n      0x1\n        /* \".deps/github/pipermerriam/ethereum-datetime/contracts/DateTime.sol\":2814:2819  i = 1 */\n      swap2\n      pop\n        /* \".deps/github/pipermerriam/ethereum-datetime/contracts/DateTime.sol\":2809:3137  for (i = 1; i <= getDaysInMonth(dt.month, dt.year); i++) {... */\n    tag_158:\n        /* \".deps/github/pipermerriam/ethereum-datetime/contracts/DateTime.sol\":2826:2859  getDaysInMonth(dt.month, dt.year) */\n      tag_161\n        /* \".deps/github/pipermerriam/ethereum-datetime/contracts/DateTime.sol\":2841:2843  dt */\n      dup6\n        /* \".deps/github/pipermerriam/ethereum-datetime/contracts/DateTime.sol\":2841:2849  dt.month */\n      0x20\n      add\n      mload\n        /* \".deps/github/pipermerriam/ethereum-datetime/contracts/DateTime.sol\":2851:2853  dt */\n      dup7\n        /* \".deps/github/pipermerriam/ethereum-datetime/contracts/DateTime.sol\":2851:2858  dt.year */\n      0x0\n      add\n      mload\n        /* \".deps/github/pipermerriam/ethereum-datetime/contracts/DateTime.sol\":2826:2840  getDaysInMonth */\n      tag_54\n        /* \".deps/github/pipermerriam/ethereum-datetime/contracts/DateTime.sol\":2826:2859  getDaysInMonth(dt.month, dt.year) */\n      jump\t// in\n    tag_161:\n        /* \".deps/github/pipermerriam/ethereum-datetime/contracts/DateTime.sol\":2821:2859  i <= getDaysInMonth(dt.month, dt.year) */\n      0xff\n      and\n        /* \".deps/github/pipermerriam/ethereum-datetime/contracts/DateTime.sol\":2821:2822  i */\n      dup3\n        /* \".deps/github/pipermerriam/ethereum-datetime/contracts/DateTime.sol\":2821:2859  i <= getDaysInMonth(dt.month, dt.year) */\n      0xff\n      and\n      gt\n      iszero\n        /* \".deps/github/pipermerriam/ethereum-datetime/contracts/DateTime.sol\":2809:3137  for (i = 1; i <= getDaysInMonth(dt.month, dt.year); i++) {... */\n      iszero\n      tag_159\n      jumpi\n        /* \".deps/github/pipermerriam/ethereum-datetime/contracts/DateTime.sol\":2935:2944  timestamp */\n      dup6\n        /* \".deps/github/pipermerriam/ethereum-datetime/contracts/DateTime.sol\":2913:2932  secondsAccountedFor */\n      dup5\n        /* \".deps/github/pipermerriam/ethereum-datetime/contracts/DateTime.sol\":420:425  86400 */\n      0x15180\n        /* \".deps/github/pipermerriam/ethereum-datetime/contracts/DateTime.sol\":2896:2932  DAY_IN_SECONDS + secondsAccountedFor */\n      add\n        /* \".deps/github/pipermerriam/ethereum-datetime/contracts/DateTime.sol\":2896:2944  DAY_IN_SECONDS + secondsAccountedFor > timestamp */\n      gt\n        /* \".deps/github/pipermerriam/ethereum-datetime/contracts/DateTime.sol\":2892:3056  if (DAY_IN_SECONDS + secondsAccountedFor > timestamp) {... */\n      iszero\n      tag_162\n      jumpi\n        /* \".deps/github/pipermerriam/ethereum-datetime/contracts/DateTime.sol\":2989:2990  i */\n      dup2\n        /* \".deps/github/pipermerriam/ethereum-datetime/contracts/DateTime.sol\":2980:2982  dt */\n      dup6\n        /* \".deps/github/pipermerriam/ethereum-datetime/contracts/DateTime.sol\":2980:2986  dt.day */\n      0x40\n      add\n        /* \".deps/github/pipermerriam/ethereum-datetime/contracts/DateTime.sol\":2980:2990  dt.day = i */\n      swap1\n      0xff\n      and\n      swap1\n      dup2\n      0xff\n      and\n      dup2\n      mstore\n      pop\n      pop\n        /* \".deps/github/pipermerriam/ethereum-datetime/contracts/DateTime.sol\":3024:3029  break */\n      jump(tag_159)\n        /* \".deps/github/pipermerriam/ethereum-datetime/contracts/DateTime.sol\":2892:3056  if (DAY_IN_SECONDS + secondsAccountedFor > timestamp) {... */\n    tag_162:\n        /* \".deps/github/pipermerriam/ethereum-datetime/contracts/DateTime.sol\":420:425  86400 */\n      0x15180\n        /* \".deps/github/pipermerriam/ethereum-datetime/contracts/DateTime.sol\":3081:3118  secondsAccountedFor += DAY_IN_SECONDS */\n      dup5\n      add\n      swap4\n      pop\n        /* \".deps/github/pipermerriam/ethereum-datetime/contracts/DateTime.sol\":2861:2864  i++ */\n      dup2\n      dup1\n      0x1\n      add\n      swap3\n      pop\n      pop\n        /* \".deps/github/pipermerriam/ethereum-datetime/contracts/DateTime.sol\":2809:3137  for (i = 1; i <= getDaysInMonth(dt.month, dt.year); i++) {... */\n      jump(tag_158)\n    tag_159:\n        /* \".deps/github/pipermerriam/ethereum-datetime/contracts/DateTime.sol\":3189:3207  getHour(timestamp) */\n      tag_163\n        /* \".deps/github/pipermerriam/ethereum-datetime/contracts/DateTime.sol\":3197:3206  timestamp */\n      dup7\n        /* \".deps/github/pipermerriam/ethereum-datetime/contracts/DateTime.sol\":3189:3196  getHour */\n      tag_18\n        /* \".deps/github/pipermerriam/ethereum-datetime/contracts/DateTime.sol\":3189:3207  getHour(timestamp) */\n      jump\t// in\n    tag_163:\n        /* \".deps/github/pipermerriam/ethereum-datetime/contracts/DateTime.sol\":3179:3181  dt */\n      dup6\n        /* \".deps/github/pipermerriam/ethereum-datetime/contracts/DateTime.sol\":3179:3186  dt.hour */\n      0x60\n      add\n        /* \".deps/github/pipermerriam/ethereum-datetime/contracts/DateTime.sol\":3179:3207  dt.hour = getHour(timestamp) */\n      swap1\n      0xff\n      and\n      swap1\n      dup2\n      0xff\n      and\n      dup2\n      mstore\n      pop\n      pop\n        /* \".deps/github/pipermerriam/ethereum-datetime/contracts/DateTime.sol\":3264:3284  getMinute(timestamp) */\n      tag_164\n        /* \".deps/github/pipermerriam/ethereum-datetime/contracts/DateTime.sol\":3274:3283  timestamp */\n      dup7\n        /* \".deps/github/pipermerriam/ethereum-datetime/contracts/DateTime.sol\":3264:3273  getMinute */\n      tag_57\n        /* \".deps/github/pipermerriam/ethereum-datetime/contracts/DateTime.sol\":3264:3284  getMinute(timestamp) */\n      jump\t// in\n    tag_164:\n        /* \".deps/github/pipermerriam/ethereum-datetime/contracts/DateTime.sol\":3252:3254  dt */\n      dup6\n        /* \".deps/github/pipermerriam/ethereum-datetime/contracts/DateTime.sol\":3252:3261  dt.minute */\n      0x80\n      add\n        /* \".deps/github/pipermerriam/ethereum-datetime/contracts/DateTime.sol\":3252:3284  dt.minute = getMinute(timestamp) */\n      swap1\n      0xff\n      and\n      swap1\n      dup2\n      0xff\n      and\n      dup2\n      mstore\n      pop\n      pop\n        /* \".deps/github/pipermerriam/ethereum-datetime/contracts/DateTime.sol\":3341:3361  getSecond(timestamp) */\n      tag_165\n        /* \".deps/github/pipermerriam/ethereum-datetime/contracts/DateTime.sol\":3351:3360  timestamp */\n      dup7\n        /* \".deps/github/pipermerriam/ethereum-datetime/contracts/DateTime.sol\":3341:3350  getSecond */\n      tag_33\n        /* \".deps/github/pipermerriam/ethereum-datetime/contracts/DateTime.sol\":3341:3361  getSecond(timestamp) */\n      jump\t// in\n    tag_165:\n        /* \".deps/github/pipermerriam/ethereum-datetime/contracts/DateTime.sol\":3329:3331  dt */\n      dup6\n        /* \".deps/github/pipermerriam/ethereum-datetime/contracts/DateTime.sol\":3329:3338  dt.second */\n      0xa0\n      add\n        /* \".deps/github/pipermerriam/ethereum-datetime/contracts/DateTime.sol\":3329:3361  dt.second = getSecond(timestamp) */\n      swap1\n      0xff\n      and\n      swap1\n      dup2\n      0xff\n      and\n      dup2\n      mstore\n      pop\n      pop\n        /* \".deps/github/pipermerriam/ethereum-datetime/contracts/DateTime.sol\":3425:3446  getWeekday(timestamp) */\n      tag_166\n        /* \".deps/github/pipermerriam/ethereum-datetime/contracts/DateTime.sol\":3436:3445  timestamp */\n      dup7\n        /* \".deps/github/pipermerriam/ethereum-datetime/contracts/DateTime.sol\":3425:3435  getWeekday */\n      tag_21\n        /* \".deps/github/pipermerriam/ethereum-datetime/contracts/DateTime.sol\":3425:3446  getWeekday(timestamp) */\n      jump\t// in\n    tag_166:\n        /* \".deps/github/pipermerriam/ethereum-datetime/contracts/DateTime.sol\":3412:3414  dt */\n      dup6\n        /* \".deps/github/pipermerriam/ethereum-datetime/contracts/DateTime.sol\":3412:3422  dt.weekday */\n      0xc0\n      add\n        /* \".deps/github/pipermerriam/ethereum-datetime/contracts/DateTime.sol\":3412:3446  dt.weekday = getWeekday(timestamp) */\n      swap1\n      0xff\n      and\n      swap1\n      dup2\n      0xff\n      and\n      dup2\n      mstore\n      pop\n      pop\n        /* \".deps/github/pipermerriam/ethereum-datetime/contracts/DateTime.sol\":1822:3457  function parseTimestamp(uint timestamp) internal pure returns (_DateTime dt) {... */\n      pop\n      pop\n      pop\n      pop\n      swap2\n      swap1\n      pop\n      jump\t// out\n        /* \".deps/github/pipermerriam/ethereum-datetime/contracts/DateTime.sol\":26:7597  contract DateTime {... */\n    tag_77:\n      0x180\n      mload(0x40)\n      swap1\n      dup2\n      add\n      0x40\n      mstore\n      dup1\n      0xc\n      swap1\n        /* \"--CODEGEN--\":29:31   */\n      0x20\n        /* \"--CODEGEN--\":21:27   */\n      dup3\n        /* \"--CODEGEN--\":17:32   */\n      mul\n        /* \"--CODEGEN--\":117:121   */\n      dup1\n        /* \"--CODEGEN--\":105:115   */\n      codesize\n        /* \"--CODEGEN--\":97:103   */\n      dup4\n        /* \"--CODEGEN--\":88:122   */\n      codecopy\n        /* \"--CODEGEN--\":148:152   */\n      dup1\n        /* \"--CODEGEN--\":140:146   */\n      dup3\n        /* \"--CODEGEN--\":136:153   */\n      add\n        /* \"--CODEGEN--\":126:153   */\n      swap2\n      pop\n        /* \"--CODEGEN--\":0:157   */\n      pop\n        /* \".deps/github/pipermerriam/ethereum-datetime/contracts/DateTime.sol\":26:7597  contract DateTime {... */\n      swap1\n      pop\n      pop\n      swap1\n      jump\t// out\n    tag_148:\n      0xe0\n      mload(0x40)\n      swap1\n      dup2\n      add\n      0x40\n      mstore\n      dup1\n      and(0xffff, 0x0)\n      dup2\n      mstore\n      0x20\n      add\n      and(0xff, 0x0)\n      dup2\n      mstore\n      0x20\n      add\n      and(0xff, 0x0)\n      dup2\n      mstore\n      0x20\n      add\n      and(0xff, 0x0)\n      dup2\n      mstore\n      0x20\n      add\n      and(0xff, 0x0)\n      dup2\n      mstore\n      0x20\n      add\n      and(0xff, 0x0)\n      dup2\n      mstore\n      0x20\n      add\n      and(0xff, 0x0)\n      dup2\n      mstore\n      pop\n      swap1\n      jump\t// out\n\n    auxdata: 0xa165627a7a723058203113d8991f06cc0d5ec77611f29b75d103099a66cf2ef88594063d01ec2f265b0029\n}\n",
				"bytecode": {
					"linkReferences": {},
					"object": "608060405234801561001057600080fd5b50610d9a806100206000396000f3006080604052600436106100d0576000357c0100000000000000000000000000000000000000000000000000000000900463ffffffff1680633e239e1a146100d55780634ac1ad781461011c57806362ba96871461016357806365c72840146101dc5780637f791833146102235780638aa001fc1461028f5780638c8d98a0146102d65780639054bdec1461033557806392d66313146103bb578063a324ad2414610404578063a6f0e5771461044b578063b199993714610494578063b238ad0e146104d5578063fa93f8831461052d575b600080fd5b3480156100e157600080fd5b5061010060048036038101908080359060200190929190505050610574565b604051808260ff1660ff16815260200191505060405180910390f35b34801561012857600080fd5b50610147600480360381019080803590602001909291905050506105a1565b604051808260ff1660ff16815260200191505060405180910390f35b34801561016f57600080fd5b506101c6600480360381019080803561ffff169060200190929190803560ff169060200190929190803560ff169060200190929190803560ff169060200190929190803560ff1690602001909291905050506105c8565b6040518082815260200191505060405180910390f35b3480156101e857600080fd5b50610207600480360381019080803590602001909291905050506105e4565b604051808260ff1660ff16815260200191505060405180910390f35b34801561022f57600080fd5b50610279600480360381019080803561ffff169060200190929190803560ff169060200190929190803560ff169060200190929190803560ff1690602001909291905050506105fa565b6040518082815260200191505060405180910390f35b34801561029b57600080fd5b506102ba60048036038101908080359060200190929190505050610615565b604051808260ff1660ff16815260200191505060405180910390f35b3480156102e257600080fd5b5061031f600480360381019080803561ffff169060200190929190803560ff169060200190929190803560ff16906020019092919050505061062b565b6040518082815260200191505060405180910390f35b34801561034157600080fd5b506103a5600480360381019080803561ffff169060200190929190803560ff169060200190929190803560ff169060200190929190803560ff169060200190929190803560ff169060200190929190803560ff169060200190929190505050610646565b6040518082815260200191505060405180910390f35b3480156103c757600080fd5b506103e6600480360381019080803590602001909291905050506108ed565b604051808261ffff1661ffff16815260200191505060405180910390f35b34801561041057600080fd5b5061042f60048036038101908080359060200190929190505050610998565b604051808260ff1660ff16815260200191505060405180910390f35b34801561045757600080fd5b5061047a600480360381019080803561ffff1690602001909291905050506109ae565b604051808215151515815260200191505060405180910390f35b3480156104a057600080fd5b506104bf60048036038101908080359060200190929190505050610a2f565b6040518082815260200191505060405180910390f35b3480156104e157600080fd5b50610511600480360381019080803560ff169060200190929190803561ffff169060200190929190505050610a68565b604051808260ff1660ff16815260200191505060405180910390f35b34801561053957600080fd5b5061055860048036038101908080359060200190929190505050610b34565b604051808260ff1660ff16815260200191505060405180910390f35b60006018603c808481151561058557fe5b0481151561058f57fe5b0481151561059957fe5b069050919050565b60006007600462015180848115156105b557fe5b04018115156105c057fe5b069050919050565b60006105d986868686866000610646565b905095945050505050565b60006105ef82610b55565b604001519050919050565b600061060b85858585600080610646565b9050949350505050565b6000603c8281151561062357fe5b069050919050565b600061063d8484846000806000610646565b90509392505050565b600080610651610cf6565b6107b291505b8861ffff168261ffff16101561069a57610670826109ae565b15610683576301e285008301925061068d565b6301e13380830192505b8180600101925050610657565b601f816000600c811015156106ab57fe5b602002019060ff16908160ff16815250506106c5896109ae565b156106f157601d816001600c811015156106db57fe5b602002019060ff16908160ff1681525050610714565b601c816001600c8110151561070257fe5b602002019060ff16908160ff16815250505b601f816002600c8110151561072557fe5b602002019060ff16908160ff1681525050601e816003600c8110151561074757fe5b602002019060ff16908160ff1681525050601f816004600c8110151561076957fe5b602002019060ff16908160ff1681525050601e816005600c8110151561078b57fe5b602002019060ff16908160ff1681525050601f816006600c811015156107ad57fe5b602002019060ff16908160ff1681525050601f816007600c811015156107cf57fe5b602002019060ff16908160ff1681525050601e816008600c811015156107f157fe5b602002019060ff16908160ff1681525050601f816009600c8110151561081357fe5b602002019060ff16908160ff1681525050601e81600a600c8110151561083557fe5b602002019060ff16908160ff1681525050601f81600b600c8110151561085757fe5b602002019060ff16908160ff1681525050600191505b8760ff168261ffff1610156108af57806001830361ffff16600c8110151561089157fe5b602002015160ff16620151800283019250818060010192505061086d565b6001870360ff166201518002830192508560ff16610e1002830192508460ff16603c02830192508360ff168301925082925050509695505050505050565b600080600080600092506301e133808581151561090657fe5b046107b261ffff160191506109206107b261ffff16610a2f565b61092d8361ffff16610a2f565b039050806301e285000283019250806107b2830361ffff16036301e1338002830192505b8483111561098d57610965600183036109ae565b15610978576301e2850083039250610982565b6301e13380830392505b600182039150610951565b819350505050919050565b60006109a382610b55565b602001519050919050565b60008060048361ffff168115156109c157fe5b0661ffff161415156109d65760009050610a2a565b600060648361ffff168115156109e857fe5b0661ffff161415156109fd5760019050610a2a565b60006101908361ffff16811515610a1057fe5b0661ffff16141515610a255760009050610a2a565b600190505b919050565b600060018203915061019082811515610a4457fe5b04606483811515610a5157fe5b04600484811515610a5e57fe5b0403019050919050565b600060018360ff161480610a7f575060038360ff16145b80610a8d575060058360ff16145b80610a9b575060078360ff16145b80610aa9575060088360ff16145b80610ab75750600a8360ff16145b80610ac55750600c8360ff16145b15610ad357601f9050610b2e565b60048360ff161480610ae8575060068360ff16145b80610af6575060098360ff16145b80610b045750600b8360ff16145b15610b1257601e9050610b2e565b610b1b826109ae565b15610b2957601d9050610b2e565b601c90505b92915050565b6000603c8083811515610b4357fe5b04811515610b4d57fe5b069050919050565b610b5d610d1a565b60008060008060009350610b70866108ed565b856000019061ffff16908161ffff1681525050610b926107b261ffff16610a2f565b610ba3866000015161ffff16610a2f565b039250826301e285000284019350826107b286600001510361ffff16036301e133800284019350600191505b600c8260ff16111515610c2757610bea828660000151610a68565b60ff1662015180029050858482011115610c155781856020019060ff16908160ff1681525050610c27565b80840193508180600101925050610bcf565b600191505b610c3e85602001518660000151610a68565b60ff168260ff16111515610c8557858462015180011115610c705781856040019060ff16908160ff1681525050610c85565b62015180840193508180600101925050610c2c565b610c8e86610574565b856060019060ff16908160ff1681525050610ca886610b34565b856080019060ff16908160ff1681525050610cc286610615565b8560a0019060ff16908160ff1681525050610cdc866105a1565b8560c0019060ff16908160ff168152505050505050919050565b61018060405190810160405280600c90602082028038833980820191505090505090565b60e060405190810160405280600061ffff168152602001600060ff168152602001600060ff168152602001600060ff168152602001600060ff168152602001600060ff168152602001600060ff16815250905600a165627a7a723058203113d8991f06cc0d5ec77611f29b75d103099a66cf2ef88594063d01ec2f265b0029",
					"opcodes": "PUSH1 0x80 PUSH1 0x40 MSTORE CALLVALUE DUP1 ISZERO PUSH2 0x10 JUMPI PUSH1 0x0 DUP1 REVERT JUMPDEST POP PUSH2 0xD9A DUP1 PUSH2 0x20 PUSH1 0x0 CODECOPY PUSH1 0x0 RETURN STOP PUSH1 0x80 PUSH1 0x40 MSTORE PUSH1 0x4 CALLDATASIZE LT PUSH2 0xD0 JUMPI PUSH1 0x0 CALLDATALOAD PUSH29 0x100000000000000000000000000000000000000000000000000000000 SWAP1 DIV PUSH4 0xFFFFFFFF AND DUP1 PUSH4 0x3E239E1A EQ PUSH2 0xD5 JUMPI DUP1 PUSH4 0x4AC1AD78 EQ PUSH2 0x11C JUMPI DUP1 PUSH4 0x62BA9687 EQ PUSH2 0x163 JUMPI DUP1 PUSH4 0x65C72840 EQ PUSH2 0x1DC JUMPI DUP1 PUSH4 0x7F791833 EQ PUSH2 0x223 JUMPI DUP1 PUSH4 0x8AA001FC EQ PUSH2 0x28F JUMPI DUP1 PUSH4 0x8C8D98A0 EQ PUSH2 0x2D6 JUMPI DUP1 PUSH4 0x9054BDEC EQ PUSH2 0x335 JUMPI DUP1 PUSH4 0x92D66313 EQ PUSH2 0x3BB JUMPI DUP1 PUSH4 0xA324AD24 EQ PUSH2 0x404 JUMPI DUP1 PUSH4 0xA6F0E577 EQ PUSH2 0x44B JUMPI DUP1 PUSH4 0xB1999937 EQ PUSH2 0x494 JUMPI DUP1 PUSH4 0xB238AD0E EQ PUSH2 0x4D5 JUMPI DUP1 PUSH4 0xFA93F883 EQ PUSH2 0x52D JUMPI JUMPDEST PUSH1 0x0 DUP1 REVERT JUMPDEST CALLVALUE DUP1 ISZERO PUSH2 0xE1 JUMPI PUSH1 0x0 DUP1 REVERT JUMPDEST POP PUSH2 0x100 PUSH1 0x4 DUP1 CALLDATASIZE SUB DUP2 ADD SWAP1 DUP1 DUP1 CALLDATALOAD SWAP1 PUSH1 0x20 ADD SWAP1 SWAP3 SWAP2 SWAP1 POP POP POP PUSH2 0x574 JUMP JUMPDEST PUSH1 0x40 MLOAD DUP1 DUP3 PUSH1 0xFF AND PUSH1 0xFF AND DUP2 MSTORE PUSH1 0x20 ADD SWAP2 POP POP PUSH1 0x40 MLOAD DUP1 SWAP2 SUB SWAP1 RETURN JUMPDEST CALLVALUE DUP1 ISZERO PUSH2 0x128 JUMPI PUSH1 0x0 DUP1 REVERT JUMPDEST POP PUSH2 0x147 PUSH1 0x4 DUP1 CALLDATASIZE SUB DUP2 ADD SWAP1 DUP1 DUP1 CALLDATALOAD SWAP1 PUSH1 0x20 ADD SWAP1 SWAP3 SWAP2 SWAP1 POP POP POP PUSH2 0x5A1 JUMP JUMPDEST PUSH1 0x40 MLOAD DUP1 DUP3 PUSH1 0xFF AND PUSH1 0xFF AND DUP2 MSTORE PUSH1 0x20 ADD SWAP2 POP POP PUSH1 0x40 MLOAD DUP1 SWAP2 SUB SWAP1 RETURN JUMPDEST CALLVALUE DUP1 ISZERO PUSH2 0x16F JUMPI PUSH1 0x0 DUP1 REVERT JUMPDEST POP PUSH2 0x1C6 PUSH1 0x4 DUP1 CALLDATASIZE SUB DUP2 ADD SWAP1 DUP1 DUP1 CALLDATALOAD PUSH2 0xFFFF AND SWAP1 PUSH1 0x20 ADD SWAP1 SWAP3 SWAP2 SWAP1 DUP1 CALLDATALOAD PUSH1 0xFF AND SWAP1 PUSH1 0x20 ADD SWAP1 SWAP3 SWAP2 SWAP1 DUP1 CALLDATALOAD PUSH1 0xFF AND SWAP1 PUSH1 0x20 ADD SWAP1 SWAP3 SWAP2 SWAP1 DUP1 CALLDATALOAD PUSH1 0xFF AND SWAP1 PUSH1 0x20 ADD SWAP1 SWAP3 SWAP2 SWAP1 DUP1 CALLDATALOAD PUSH1 0xFF AND SWAP1 PUSH1 0x20 ADD SWAP1 SWAP3 SWAP2 SWAP1 POP POP POP PUSH2 0x5C8 JUMP JUMPDEST PUSH1 0x40 MLOAD DUP1 DUP3 DUP2 MSTORE PUSH1 0x20 ADD SWAP2 POP POP PUSH1 0x40 MLOAD DUP1 SWAP2 SUB SWAP1 RETURN JUMPDEST CALLVALUE DUP1 ISZERO PUSH2 0x1E8 JUMPI PUSH1 0x0 DUP1 REVERT JUMPDEST POP PUSH2 0x207 PUSH1 0x4 DUP1 CALLDATASIZE SUB DUP2 ADD SWAP1 DUP1 DUP1 CALLDATALOAD SWAP1 PUSH1 0x20 ADD SWAP1 SWAP3 SWAP2 SWAP1 POP POP POP PUSH2 0x5E4 JUMP JUMPDEST PUSH1 0x40 MLOAD DUP1 DUP3 PUSH1 0xFF AND PUSH1 0xFF AND DUP2 MSTORE PUSH1 0x20 ADD SWAP2 POP POP PUSH1 0x40 MLOAD DUP1 SWAP2 SUB SWAP1 RETURN JUMPDEST CALLVALUE DUP1 ISZERO PUSH2 0x22F JUMPI PUSH1 0x0 DUP1 REVERT JUMPDEST POP PUSH2 0x279 PUSH1 0x4 DUP1 CALLDATASIZE SUB DUP2 ADD SWAP1 DUP1 DUP1 CALLDATALOAD PUSH2 0xFFFF AND SWAP1 PUSH1 0x20 ADD SWAP1 SWAP3 SWAP2 SWAP1 DUP1 CALLDATALOAD PUSH1 0xFF AND SWAP1 PUSH1 0x20 ADD SWAP1 SWAP3 SWAP2 SWAP1 DUP1 CALLDATALOAD PUSH1 0xFF AND SWAP1 PUSH1 0x20 ADD SWAP1 SWAP3 SWAP2 SWAP1 DUP1 CALLDATALOAD PUSH1 0xFF AND SWAP1 PUSH1 0x20 ADD SWAP1 SWAP3 SWAP2 SWAP1 POP POP POP PUSH2 0x5FA JUMP JUMPDEST PUSH1 0x40 MLOAD DUP1 DUP3 DUP2 MSTORE PUSH1 0x20 ADD SWAP2 POP POP PUSH1 0x40 MLOAD DUP1 SWAP2 SUB SWAP1 RETURN JUMPDEST CALLVALUE DUP1 ISZERO PUSH2 0x29B JUMPI PUSH1 0x0 DUP1 REVERT JUMPDEST POP PUSH2 0x2BA PUSH1 0x4 DUP1 CALLDATASIZE SUB DUP2 ADD SWAP1 DUP1 DUP1 CALLDATALOAD SWAP1 PUSH1 0x20 ADD SWAP1 SWAP3 SWAP2 SWAP1 POP POP POP PUSH2 0x615 JUMP JUMPDEST PUSH1 0x40 MLOAD DUP1 DUP3 PUSH1 0xFF AND PUSH1 0xFF AND DUP2 MSTORE PUSH1 0x20 ADD SWAP2 POP POP PUSH1 0x40 MLOAD DUP1 SWAP2 SUB SWAP1 RETURN JUMPDEST CALLVALUE DUP1 ISZERO PUSH2 0x2E2 JUMPI PUSH1 0x0 DUP1 REVERT JUMPDEST POP PUSH2 0x31F PUSH1 0x4 DUP1 CALLDATASIZE SUB DUP2 ADD SWAP1 DUP1 DUP1 CALLDATALOAD PUSH2 0xFFFF AND SWAP1 PUSH1 0x20 ADD SWAP1 SWAP3 SWAP2 SWAP1 DUP1 CALLDATALOAD PUSH1 0xFF AND SWAP1 PUSH1 0x20 ADD SWAP1 SWAP3 SWAP2 SWAP1 DUP1 CALLDATALOAD PUSH1 0xFF AND SWAP1 PUSH1 0x20 ADD SWAP1 SWAP3 SWAP2 SWAP1 POP POP POP PUSH2 0x62B JUMP JUMPDEST PUSH1 0x40 MLOAD DUP1 DUP3 DUP2 MSTORE PUSH1 0x20 ADD SWAP2 POP POP PUSH1 0x40 MLOAD DUP1 SWAP2 SUB SWAP1 RETURN JUMPDEST CALLVALUE DUP1 ISZERO PUSH2 0x341 JUMPI PUSH1 0x0 DUP1 REVERT JUMPDEST POP PUSH2 0x3A5 PUSH1 0x4 DUP1 CALLDATASIZE SUB DUP2 ADD SWAP1 DUP1 DUP1 CALLDATALOAD PUSH2 0xFFFF AND SWAP1 PUSH1 0x20 ADD SWAP1 SWAP3 SWAP2 SWAP1 DUP1 CALLDATALOAD PUSH1 0xFF AND SWAP1 PUSH1 0x20 ADD SWAP1 SWAP3 SWAP2 SWAP1 DUP1 CALLDATALOAD PUSH1 0xFF AND SWAP1 PUSH1 0x20 ADD SWAP1 SWAP3 SWAP2 SWAP1 DUP1 CALLDATALOAD PUSH1 0xFF AND SWAP1 PUSH1 0x20 ADD SWAP1 SWAP3 SWAP2 SWAP1 DUP1 CALLDATALOAD PUSH1 0xFF AND SWAP1 PUSH1 0x20 ADD SWAP1 SWAP3 SWAP2 SWAP1 DUP1 CALLDATALOAD PUSH1 0xFF AND SWAP1 PUSH1 0x20 ADD SWAP1 SWAP3 SWAP2 SWAP1 POP POP POP PUSH2 0x646 JUMP JUMPDEST PUSH1 0x40 MLOAD DUP1 DUP3 DUP2 MSTORE PUSH1 0x20 ADD SWAP2 POP POP PUSH1 0x40 MLOAD DUP1 SWAP2 SUB SWAP1 RETURN JUMPDEST CALLVALUE DUP1 ISZERO PUSH2 0x3C7 JUMPI PUSH1 0x0 DUP1 REVERT JUMPDEST POP PUSH2 0x3E6 PUSH1 0x4 DUP1 CALLDATASIZE SUB DUP2 ADD SWAP1 DUP1 DUP1 CALLDATALOAD SWAP1 PUSH1 0x20 ADD SWAP1 SWAP3 SWAP2 SWAP1 POP POP POP PUSH2 0x8ED JUMP JUMPDEST PUSH1 0x40 MLOAD DUP1 DUP3 PUSH2 0xFFFF AND PUSH2 0xFFFF AND DUP2 MSTORE PUSH1 0x20 ADD SWAP2 POP POP PUSH1 0x40 MLOAD DUP1 SWAP2 SUB SWAP1 RETURN JUMPDEST CALLVALUE DUP1 ISZERO PUSH2 0x410 JUMPI PUSH1 0x0 DUP1 REVERT JUMPDEST POP PUSH2 0x42F PUSH1 0x4 DUP1 CALLDATASIZE SUB DUP2 ADD SWAP1 DUP1 DUP1 CALLDATALOAD SWAP1 PUSH1 0x20 ADD SWAP1 SWAP3 SWAP2 SWAP1 POP POP POP PUSH2 0x998 JUMP JUMPDEST PUSH1 0x40 MLOAD DUP1 DUP3 PUSH1 0xFF AND PUSH1 0xFF AND DUP2 MSTORE PUSH1 0x20 ADD SWAP2 POP POP PUSH1 0x40 MLOAD DUP1 SWAP2 SUB SWAP1 RETURN JUMPDEST CALLVALUE DUP1 ISZERO PUSH2 0x457 JUMPI PUSH1 0x0 DUP1 REVERT JUMPDEST POP PUSH2 0x47A PUSH1 0x4 DUP1 CALLDATASIZE SUB DUP2 ADD SWAP1 DUP1 DUP1 CALLDATALOAD PUSH2 0xFFFF AND SWAP1 PUSH1 0x20 ADD SWAP1 SWAP3 SWAP2 SWAP1 POP POP POP PUSH2 0x9AE JUMP JUMPDEST PUSH1 0x40 MLOAD DUP1 DUP3 ISZERO ISZERO ISZERO ISZERO DUP2 MSTORE PUSH1 0x20 ADD SWAP2 POP POP PUSH1 0x40 MLOAD DUP1 SWAP2 SUB SWAP1 RETURN JUMPDEST CALLVALUE DUP1 ISZERO PUSH2 0x4A0 JUMPI PUSH1 0x0 DUP1 REVERT JUMPDEST POP PUSH2 0x4BF PUSH1 0x4 DUP1 CALLDATASIZE SUB DUP2 ADD SWAP1 DUP1 DUP1 CALLDATALOAD SWAP1 PUSH1 0x20 ADD SWAP1 SWAP3 SWAP2 SWAP1 POP POP POP PUSH2 0xA2F JUMP JUMPDEST PUSH1 0x40 MLOAD DUP1 DUP3 DUP2 MSTORE PUSH1 0x20 ADD SWAP2 POP POP PUSH1 0x40 MLOAD DUP1 SWAP2 SUB SWAP1 RETURN JUMPDEST CALLVALUE DUP1 ISZERO PUSH2 0x4E1 JUMPI PUSH1 0x0 DUP1 REVERT JUMPDEST POP PUSH2 0x511 PUSH1 0x4 DUP1 CALLDATASIZE SUB DUP2 ADD SWAP1 DUP1 DUP1 CALLDATALOAD PUSH1 0xFF AND SWAP1 PUSH1 0x20 ADD SWAP1 SWAP3 SWAP2 SWAP1 DUP1 CALLDATALOAD PUSH2 0xFFFF AND SWAP1 PUSH1 0x20 ADD SWAP1 SWAP3 SWAP2 SWAP1 POP POP POP PUSH2 0xA68 JUMP JUMPDEST PUSH1 0x40 MLOAD DUP1 DUP3 PUSH1 0xFF AND PUSH1 0xFF AND DUP2 MSTORE PUSH1 0x20 ADD SWAP2 POP POP PUSH1 0x40 MLOAD DUP1 SWAP2 SUB SWAP1 RETURN JUMPDEST CALLVALUE DUP1 ISZERO PUSH2 0x539 JUMPI PUSH1 0x0 DUP1 REVERT JUMPDEST POP PUSH2 0x558 PUSH1 0x4 DUP1 CALLDATASIZE SUB DUP2 ADD SWAP1 DUP1 DUP1 CALLDATALOAD SWAP1 PUSH1 0x20 ADD SWAP1 SWAP3 SWAP2 SWAP1 POP POP POP PUSH2 0xB34 JUMP JUMPDEST PUSH1 0x40 MLOAD DUP1 DUP3 PUSH1 0xFF AND PUSH1 0xFF AND DUP2 MSTORE PUSH1 0x20 ADD SWAP2 POP POP PUSH1 0x40 MLOAD DUP1 SWAP2 SUB SWAP1 RETURN JUMPDEST PUSH1 0x0 PUSH1 0x18 PUSH1 0x3C DUP1 DUP5 DUP2 ISZERO ISZERO PUSH2 0x585 JUMPI INVALID JUMPDEST DIV DUP2 ISZERO ISZERO PUSH2 0x58F JUMPI INVALID JUMPDEST DIV DUP2 ISZERO ISZERO PUSH2 0x599 JUMPI INVALID JUMPDEST MOD SWAP1 POP SWAP2 SWAP1 POP JUMP JUMPDEST PUSH1 0x0 PUSH1 0x7 PUSH1 0x4 PUSH3 0x15180 DUP5 DUP2 ISZERO ISZERO PUSH2 0x5B5 JUMPI INVALID JUMPDEST DIV ADD DUP2 ISZERO ISZERO PUSH2 0x5C0 JUMPI INVALID JUMPDEST MOD SWAP1 POP SWAP2 SWAP1 POP JUMP JUMPDEST PUSH1 0x0 PUSH2 0x5D9 DUP7 DUP7 DUP7 DUP7 DUP7 PUSH1 0x0 PUSH2 0x646 JUMP JUMPDEST SWAP1 POP SWAP6 SWAP5 POP POP POP POP POP JUMP JUMPDEST PUSH1 0x0 PUSH2 0x5EF DUP3 PUSH2 0xB55 JUMP JUMPDEST PUSH1 0x40 ADD MLOAD SWAP1 POP SWAP2 SWAP1 POP JUMP JUMPDEST PUSH1 0x0 PUSH2 0x60B DUP6 DUP6 DUP6 DUP6 PUSH1 0x0 DUP1 PUSH2 0x646 JUMP JUMPDEST SWAP1 POP SWAP5 SWAP4 POP POP POP POP JUMP JUMPDEST PUSH1 0x0 PUSH1 0x3C DUP3 DUP2 ISZERO ISZERO PUSH2 0x623 JUMPI INVALID JUMPDEST MOD SWAP1 POP SWAP2 SWAP1 POP JUMP JUMPDEST PUSH1 0x0 PUSH2 0x63D DUP5 DUP5 DUP5 PUSH1 0x0 DUP1 PUSH1 0x0 PUSH2 0x646 JUMP JUMPDEST SWAP1 POP SWAP4 SWAP3 POP POP POP JUMP JUMPDEST PUSH1 0x0 DUP1 PUSH2 0x651 PUSH2 0xCF6 JUMP JUMPDEST PUSH2 0x7B2 SWAP2 POP JUMPDEST DUP9 PUSH2 0xFFFF AND DUP3 PUSH2 0xFFFF AND LT ISZERO PUSH2 0x69A JUMPI PUSH2 0x670 DUP3 PUSH2 0x9AE JUMP JUMPDEST ISZERO PUSH2 0x683 JUMPI PUSH4 0x1E28500 DUP4 ADD SWAP3 POP PUSH2 0x68D JUMP JUMPDEST PUSH4 0x1E13380 DUP4 ADD SWAP3 POP JUMPDEST DUP2 DUP1 PUSH1 0x1 ADD SWAP3 POP POP PUSH2 0x657 JUMP JUMPDEST PUSH1 0x1F DUP2 PUSH1 0x0 PUSH1 0xC DUP2 LT ISZERO ISZERO PUSH2 0x6AB JUMPI INVALID JUMPDEST PUSH1 0x20 MUL ADD SWAP1 PUSH1 0xFF AND SWAP1 DUP2 PUSH1 0xFF AND DUP2 MSTORE POP POP PUSH2 0x6C5 DUP10 PUSH2 0x9AE JUMP JUMPDEST ISZERO PUSH2 0x6F1 JUMPI PUSH1 0x1D DUP2 PUSH1 0x1 PUSH1 0xC DUP2 LT ISZERO ISZERO PUSH2 0x6DB JUMPI INVALID JUMPDEST PUSH1 0x20 MUL ADD SWAP1 PUSH1 0xFF AND SWAP1 DUP2 PUSH1 0xFF AND DUP2 MSTORE POP POP PUSH2 0x714 JUMP JUMPDEST PUSH1 0x1C DUP2 PUSH1 0x1 PUSH1 0xC DUP2 LT ISZERO ISZERO PUSH2 0x702 JUMPI INVALID JUMPDEST PUSH1 0x20 MUL ADD SWAP1 PUSH1 0xFF AND SWAP1 DUP2 PUSH1 0xFF AND DUP2 MSTORE POP POP JUMPDEST PUSH1 0x1F DUP2 PUSH1 0x2 PUSH1 0xC DUP2 LT ISZERO ISZERO PUSH2 0x725 JUMPI INVALID JUMPDEST PUSH1 0x20 MUL ADD SWAP1 PUSH1 0xFF AND SWAP1 DUP2 PUSH1 0xFF AND DUP2 MSTORE POP POP PUSH1 0x1E DUP2 PUSH1 0x3 PUSH1 0xC DUP2 LT ISZERO ISZERO PUSH2 0x747 JUMPI INVALID JUMPDEST PUSH1 0x20 MUL ADD SWAP1 PUSH1 0xFF AND SWAP1 DUP2 PUSH1 0xFF AND DUP2 MSTORE POP POP PUSH1 0x1F DUP2 PUSH1 0x4 PUSH1 0xC DUP2 LT ISZERO ISZERO PUSH2 0x769 JUMPI INVALID JUMPDEST PUSH1 0x20 MUL ADD SWAP1 PUSH1 0xFF AND SWAP1 DUP2 PUSH1 0xFF AND DUP2 MSTORE POP POP PUSH1 0x1E DUP2 PUSH1 0x5 PUSH1 0xC DUP2 LT ISZERO ISZERO PUSH2 0x78B JUMPI INVALID JUMPDEST PUSH1 0x20 MUL ADD SWAP1 PUSH1 0xFF AND SWAP1 DUP2 PUSH1 0xFF AND DUP2 MSTORE POP POP PUSH1 0x1F DUP2 PUSH1 0x6 PUSH1 0xC DUP2 LT ISZERO ISZERO PUSH2 0x7AD JUMPI INVALID JUMPDEST PUSH1 0x20 MUL ADD SWAP1 PUSH1 0xFF AND SWAP1 DUP2 PUSH1 0xFF AND DUP2 MSTORE POP POP PUSH1 0x1F DUP2 PUSH1 0x7 PUSH1 0xC DUP2 LT ISZERO ISZERO PUSH2 0x7CF JUMPI INVALID JUMPDEST PUSH1 0x20 MUL ADD SWAP1 PUSH1 0xFF AND SWAP1 DUP2 PUSH1 0xFF AND DUP2 MSTORE POP POP PUSH1 0x1E DUP2 PUSH1 0x8 PUSH1 0xC DUP2 LT ISZERO ISZERO PUSH2 0x7F1 JUMPI INVALID JUMPDEST PUSH1 0x20 MUL ADD SWAP1 PUSH1 0xFF AND SWAP1 DUP2 PUSH1 0xFF AND DUP2 MSTORE POP POP PUSH1 0x1F DUP2 PUSH1 0x9 PUSH1 0xC DUP2 LT ISZERO ISZERO PUSH2 0x813 JUMPI INVALID JUMPDEST PUSH1 0x20 MUL ADD SWAP1 PUSH1 0xFF AND SWAP1 DUP2 PUSH1 0xFF AND DUP2 MSTORE POP POP PUSH1 0x1E DUP2 PUSH1 0xA PUSH1 0xC DUP2 LT ISZERO ISZERO PUSH2 0x835 JUMPI INVALID JUMPDEST PUSH1 0x20 MUL ADD SWAP1 PUSH1 0xFF AND SWAP1 DUP2 PUSH1 0xFF AND DUP2 MSTORE POP POP PUSH1 0x1F DUP2 PUSH1 0xB PUSH1 0xC DUP2 LT ISZERO ISZERO PUSH2 0x857 JUMPI INVALID JUMPDEST PUSH1 0x20 MUL ADD SWAP1 PUSH1 0xFF AND SWAP1 DUP2 PUSH1 0xFF AND DUP2 MSTORE POP POP PUSH1 0x1 SWAP2 POP JUMPDEST DUP8 PUSH1 0xFF AND DUP3 PUSH2 0xFFFF AND LT ISZERO PUSH2 0x8AF JUMPI DUP1 PUSH1 0x1 DUP4 SUB PUSH2 0xFFFF AND PUSH1 0xC DUP2 LT ISZERO ISZERO PUSH2 0x891 JUMPI INVALID JUMPDEST PUSH1 0x20 MUL ADD MLOAD PUSH1 0xFF AND PUSH3 0x15180 MUL DUP4 ADD SWAP3 POP DUP2 DUP1 PUSH1 0x1 ADD SWAP3 POP POP PUSH2 0x86D JUMP JUMPDEST PUSH1 0x1 DUP8 SUB PUSH1 0xFF AND PUSH3 0x15180 MUL DUP4 ADD SWAP3 POP DUP6 PUSH1 0xFF AND PUSH2 0xE10 MUL DUP4 ADD SWAP3 POP DUP5 PUSH1 0xFF AND PUSH1 0x3C MUL DUP4 ADD SWAP3 POP DUP4 PUSH1 0xFF AND DUP4 ADD SWAP3 POP DUP3 SWAP3 POP POP POP SWAP7 SWAP6 POP POP POP POP POP POP JUMP JUMPDEST PUSH1 0x0 DUP1 PUSH1 0x0 DUP1 PUSH1 0x0 SWAP3 POP PUSH4 0x1E13380 DUP6 DUP2 ISZERO ISZERO PUSH2 0x906 JUMPI INVALID JUMPDEST DIV PUSH2 0x7B2 PUSH2 0xFFFF AND ADD SWAP2 POP PUSH2 0x920 PUSH2 0x7B2 PUSH2 0xFFFF AND PUSH2 0xA2F JUMP JUMPDEST PUSH2 0x92D DUP4 PUSH2 0xFFFF AND PUSH2 0xA2F JUMP JUMPDEST SUB SWAP1 POP DUP1 PUSH4 0x1E28500 MUL DUP4 ADD SWAP3 POP DUP1 PUSH2 0x7B2 DUP4 SUB PUSH2 0xFFFF AND SUB PUSH4 0x1E13380 MUL DUP4 ADD SWAP3 POP JUMPDEST DUP5 DUP4 GT ISZERO PUSH2 0x98D JUMPI PUSH2 0x965 PUSH1 0x1 DUP4 SUB PUSH2 0x9AE JUMP JUMPDEST ISZERO PUSH2 0x978 JUMPI PUSH4 0x1E28500 DUP4 SUB SWAP3 POP PUSH2 0x982 JUMP JUMPDEST PUSH4 0x1E13380 DUP4 SUB SWAP3 POP JUMPDEST PUSH1 0x1 DUP3 SUB SWAP2 POP PUSH2 0x951 JUMP JUMPDEST DUP2 SWAP4 POP POP POP POP SWAP2 SWAP1 POP JUMP JUMPDEST PUSH1 0x0 PUSH2 0x9A3 DUP3 PUSH2 0xB55 JUMP JUMPDEST PUSH1 0x20 ADD MLOAD SWAP1 POP SWAP2 SWAP1 POP JUMP JUMPDEST PUSH1 0x0 DUP1 PUSH1 0x4 DUP4 PUSH2 0xFFFF AND DUP2 ISZERO ISZERO PUSH2 0x9C1 JUMPI INVALID JUMPDEST MOD PUSH2 0xFFFF AND EQ ISZERO ISZERO PUSH2 0x9D6 JUMPI PUSH1 0x0 SWAP1 POP PUSH2 0xA2A JUMP JUMPDEST PUSH1 0x0 PUSH1 0x64 DUP4 PUSH2 0xFFFF AND DUP2 ISZERO ISZERO PUSH2 0x9E8 JUMPI INVALID JUMPDEST MOD PUSH2 0xFFFF AND EQ ISZERO ISZERO PUSH2 0x9FD JUMPI PUSH1 0x1 SWAP1 POP PUSH2 0xA2A JUMP JUMPDEST PUSH1 0x0 PUSH2 0x190 DUP4 PUSH2 0xFFFF AND DUP2 ISZERO ISZERO PUSH2 0xA10 JUMPI INVALID JUMPDEST MOD PUSH2 0xFFFF AND EQ ISZERO ISZERO PUSH2 0xA25 JUMPI PUSH1 0x0 SWAP1 POP PUSH2 0xA2A JUMP JUMPDEST PUSH1 0x1 SWAP1 POP JUMPDEST SWAP2 SWAP1 POP JUMP JUMPDEST PUSH1 0x0 PUSH1 0x1 DUP3 SUB SWAP2 POP PUSH2 0x190 DUP3 DUP2 ISZERO ISZERO PUSH2 0xA44 JUMPI INVALID JUMPDEST DIV PUSH1 0x64 DUP4 DUP2 ISZERO ISZERO PUSH2 0xA51 JUMPI INVALID JUMPDEST DIV PUSH1 0x4 DUP5 DUP2 ISZERO ISZERO PUSH2 0xA5E JUMPI INVALID JUMPDEST DIV SUB ADD SWAP1 POP SWAP2 SWAP1 POP JUMP JUMPDEST PUSH1 0x0 PUSH1 0x1 DUP4 PUSH1 0xFF AND EQ DUP1 PUSH2 0xA7F JUMPI POP PUSH1 0x3 DUP4 PUSH1 0xFF AND EQ JUMPDEST DUP1 PUSH2 0xA8D JUMPI POP PUSH1 0x5 DUP4 PUSH1 0xFF AND EQ JUMPDEST DUP1 PUSH2 0xA9B JUMPI POP PUSH1 0x7 DUP4 PUSH1 0xFF AND EQ JUMPDEST DUP1 PUSH2 0xAA9 JUMPI POP PUSH1 0x8 DUP4 PUSH1 0xFF AND EQ JUMPDEST DUP1 PUSH2 0xAB7 JUMPI POP PUSH1 0xA DUP4 PUSH1 0xFF AND EQ JUMPDEST DUP1 PUSH2 0xAC5 JUMPI POP PUSH1 0xC DUP4 PUSH1 0xFF AND EQ JUMPDEST ISZERO PUSH2 0xAD3 JUMPI PUSH1 0x1F SWAP1 POP PUSH2 0xB2E JUMP JUMPDEST PUSH1 0x4 DUP4 PUSH1 0xFF AND EQ DUP1 PUSH2 0xAE8 JUMPI POP PUSH1 0x6 DUP4 PUSH1 0xFF AND EQ JUMPDEST DUP1 PUSH2 0xAF6 JUMPI POP PUSH1 0x9 DUP4 PUSH1 0xFF AND EQ JUMPDEST DUP1 PUSH2 0xB04 JUMPI POP PUSH1 0xB DUP4 PUSH1 0xFF AND EQ JUMPDEST ISZERO PUSH2 0xB12 JUMPI PUSH1 0x1E SWAP1 POP PUSH2 0xB2E JUMP JUMPDEST PUSH2 0xB1B DUP3 PUSH2 0x9AE JUMP JUMPDEST ISZERO PUSH2 0xB29 JUMPI PUSH1 0x1D SWAP1 POP PUSH2 0xB2E JUMP JUMPDEST PUSH1 0x1C SWAP1 POP JUMPDEST SWAP3 SWAP2 POP POP JUMP JUMPDEST PUSH1 0x0 PUSH1 0x3C DUP1 DUP4 DUP2 ISZERO ISZERO PUSH2 0xB43 JUMPI INVALID JUMPDEST DIV DUP2 ISZERO ISZERO PUSH2 0xB4D JUMPI INVALID JUMPDEST MOD SWAP1 POP SWAP2 SWAP1 POP JUMP JUMPDEST PUSH2 0xB5D PUSH2 0xD1A JUMP JUMPDEST PUSH1 0x0 DUP1 PUSH1 0x0 DUP1 PUSH1 0x0 SWAP4 POP PUSH2 0xB70 DUP7 PUSH2 0x8ED JUMP JUMPDEST DUP6 PUSH1 0x0 ADD SWAP1 PUSH2 0xFFFF AND SWAP1 DUP2 PUSH2 0xFFFF AND DUP2 MSTORE POP POP PUSH2 0xB92 PUSH2 0x7B2 PUSH2 0xFFFF AND PUSH2 0xA2F JUMP JUMPDEST PUSH2 0xBA3 DUP7 PUSH1 0x0 ADD MLOAD PUSH2 0xFFFF AND PUSH2 0xA2F JUMP JUMPDEST SUB SWAP3 POP DUP3 PUSH4 0x1E28500 MUL DUP5 ADD SWAP4 POP DUP3 PUSH2 0x7B2 DUP7 PUSH1 0x0 ADD MLOAD SUB PUSH2 0xFFFF AND SUB PUSH4 0x1E13380 MUL DUP5 ADD SWAP4 POP PUSH1 0x1 SWAP2 POP JUMPDEST PUSH1 0xC DUP3 PUSH1 0xFF AND GT ISZERO ISZERO PUSH2 0xC27 JUMPI PUSH2 0xBEA DUP3 DUP7 PUSH1 0x0 ADD MLOAD PUSH2 0xA68 JUMP JUMPDEST PUSH1 0xFF AND PUSH3 0x15180 MUL SWAP1 POP DUP6 DUP5 DUP3 ADD GT ISZERO PUSH2 0xC15 JUMPI DUP2 DUP6 PUSH1 0x20 ADD SWAP1 PUSH1 0xFF AND SWAP1 DUP2 PUSH1 0xFF AND DUP2 MSTORE POP POP PUSH2 0xC27 JUMP JUMPDEST DUP1 DUP5 ADD SWAP4 POP DUP2 DUP1 PUSH1 0x1 ADD SWAP3 POP POP PUSH2 0xBCF JUMP JUMPDEST PUSH1 0x1 SWAP2 POP JUMPDEST PUSH2 0xC3E DUP6 PUSH1 0x20 ADD MLOAD DUP7 PUSH1 0x0 ADD MLOAD PUSH2 0xA68 JUMP JUMPDEST PUSH1 0xFF AND DUP3 PUSH1 0xFF AND GT ISZERO ISZERO PUSH2 0xC85 JUMPI DUP6 DUP5 PUSH3 0x15180 ADD GT ISZERO PUSH2 0xC70 JUMPI DUP2 DUP6 PUSH1 0x40 ADD SWAP1 PUSH1 0xFF AND SWAP1 DUP2 PUSH1 0xFF AND DUP2 MSTORE POP POP PUSH2 0xC85 JUMP JUMPDEST PUSH3 0x15180 DUP5 ADD SWAP4 POP DUP2 DUP1 PUSH1 0x1 ADD SWAP3 POP POP PUSH2 0xC2C JUMP JUMPDEST PUSH2 0xC8E DUP7 PUSH2 0x574 JUMP JUMPDEST DUP6 PUSH1 0x60 ADD SWAP1 PUSH1 0xFF AND SWAP1 DUP2 PUSH1 0xFF AND DUP2 MSTORE POP POP PUSH2 0xCA8 DUP7 PUSH2 0xB34 JUMP JUMPDEST DUP6 PUSH1 0x80 ADD SWAP1 PUSH1 0xFF AND SWAP1 DUP2 PUSH1 0xFF AND DUP2 MSTORE POP POP PUSH2 0xCC2 DUP7 PUSH2 0x615 JUMP JUMPDEST DUP6 PUSH1 0xA0 ADD SWAP1 PUSH1 0xFF AND SWAP1 DUP2 PUSH1 0xFF AND DUP2 MSTORE POP POP PUSH2 0xCDC DUP7 PUSH2 0x5A1 JUMP JUMPDEST DUP6 PUSH1 0xC0 ADD SWAP1 PUSH1 0xFF AND SWAP1 DUP2 PUSH1 0xFF AND DUP2 MSTORE POP POP POP POP POP POP SWAP2 SWAP1 POP JUMP JUMPDEST PUSH2 0x180 PUSH1 0x40 MLOAD SWAP1 DUP2 ADD PUSH1 0x40 MSTORE DUP1 PUSH1 0xC SWAP1 PUSH1 0x20 DUP3 MUL DUP1 CODESIZE DUP4 CODECOPY DUP1 DUP3 ADD SWAP2 POP POP SWAP1 POP POP SWAP1 JUMP JUMPDEST PUSH1 0xE0 PUSH1 0x40 MLOAD SWAP1 DUP2 ADD PUSH1 0x40 MSTORE DUP1 PUSH1 0x0 PUSH2 0xFFFF AND DUP2 MSTORE PUSH1 0x20 ADD PUSH1 0x0 PUSH1 0xFF AND DUP2 MSTORE PUSH1 0x20 ADD PUSH1 0x0 PUSH1 0xFF AND DUP2 MSTORE PUSH1 0x20 ADD PUSH1 0x0 PUSH1 0xFF AND DUP2 MSTORE PUSH1 0x20 ADD PUSH1 0x0 PUSH1 0xFF AND DUP2 MSTORE PUSH1 0x20 ADD PUSH1 0x0 PUSH1 0xFF AND DUP2 MSTORE PUSH1 0x20 ADD PUSH1 0x0 PUSH1 0xFF AND DUP2 MSTORE POP SWAP1 JUMP STOP LOG1 PUSH6 0x627A7A723058 KECCAK256 BALANCE SGT 0xd8 SWAP10 0x1f MOD 0xcc 0xd 0x5e 0xc7 PUSH23 0x11F29B75D103099A66CF2EF88594063D01EC2F265B0029 "
				},
				"gasEstimates": {
					"creation": {
						"codeDepositCost": "696400",
						"executionCost": "728",
						"totalCost": "697128"
					},
					"external": {
						"getDay(uint256)": "infinite",
						"getDaysInMonth(uint8,uint16)": "1241",
						"getHour(uint256)": "368",
						"getMinute(uint256)": "623",
						"getMonth(uint256)": "infinite",
						"getSecond(uint256)": "416",
						"getWeekday(uint256)": "365",
						"getYear(uint256)": "infinite",
						"isLeapYear(uint16)": "728",
						"leapYearsBefore(uint256)": "624",
						"toTimestamp(uint16,uint8,uint8)": "infinite",
						"toTimestamp(uint16,uint8,uint8,uint8)": "infinite",
						"toTimestamp(uint16,uint8,uint8,uint8,uint8)": "infinite",
						"toTimestamp(uint16,uint8,uint8,uint8,uint8,uint8)": "infinite"
					},
					"internal": {
						"parseTimestamp(uint256)": "infinite"
					}
				},
				"methodIdentifiers": {
					"getDay(uint256)": "65c72840",
					"getDaysInMonth(uint8,uint16)": "b238ad0e",
					"getHour(uint256)": "3e239e1a",
					"getMinute(uint256)": "fa93f883",
					"getMonth(uint256)": "a324ad24",
					"getSecond(uint256)": "8aa001fc",
					"getWeekday(uint256)": "4ac1ad78",
					"getYear(uint256)": "92d66313",
					"isLeapYear(uint16)": "a6f0e577",
					"leapYearsBefore(uint256)": "b1999937",
					"toTimestamp(uint16,uint8,uint8)": "8c8d98a0",
					"toTimestamp(uint16,uint8,uint8,uint8)": "7f791833",
					"toTimestamp(uint16,uint8,uint8,uint8,uint8)": "62ba9687",
					"toTimestamp(uint16,uint8,uint8,uint8,uint8,uint8)": "9054bdec"
				}
			},
			"userdoc": {
				"methods": {}
			}
		}
	}
}